{
  "contractName": "DiamondLoupeFacet",
  "abi": [
    {
      "inputs": [],
      "name": "facets",
      "outputs": [
        {
          "components": [
            {
              "internalType": "address",
              "name": "facetAddress",
              "type": "address"
            },
            {
              "internalType": "bytes4[]",
              "name": "functionSelectors",
              "type": "bytes4[]"
            }
          ],
          "internalType": "struct IDiamondLoupe.Facet[]",
          "name": "facets_",
          "type": "tuple[]"
        }
      ],
      "stateMutability": "view",
      "type": "function"
    },
    {
      "inputs": [
        {
          "internalType": "address",
          "name": "_facet",
          "type": "address"
        }
      ],
      "name": "facetFunctionSelectors",
      "outputs": [
        {
          "internalType": "bytes4[]",
          "name": "_facetFunctionSelectors",
          "type": "bytes4[]"
        }
      ],
      "stateMutability": "view",
      "type": "function"
    },
    {
      "inputs": [],
      "name": "facetAddresses",
      "outputs": [
        {
          "internalType": "address[]",
          "name": "facetAddresses_",
          "type": "address[]"
        }
      ],
      "stateMutability": "view",
      "type": "function"
    },
    {
      "inputs": [
        {
          "internalType": "bytes4",
          "name": "_functionSelector",
          "type": "bytes4"
        }
      ],
      "name": "facetAddress",
      "outputs": [
        {
          "internalType": "address",
          "name": "facetAddress_",
          "type": "address"
        }
      ],
      "stateMutability": "view",
      "type": "function"
    },
    {
      "inputs": [
        {
          "internalType": "bytes4",
          "name": "_interfaceId",
          "type": "bytes4"
        }
      ],
      "name": "supportsInterface",
      "outputs": [
        {
          "internalType": "bool",
          "name": "",
          "type": "bool"
        }
      ],
      "stateMutability": "view",
      "type": "function"
    }
  ],
  "bytecode": "0x608060405234801561001057600080fd5b5061125c806100206000396000f3fe608060405234801561001057600080fd5b50600436106100575760003560e01c806301ffc9a71461005c57806352ef6b2c1461008c5780637a0ed627146100aa578063adfca15e146100c8578063cdffacc6146100f8575b600080fd5b61007660048036038101906100719190610ca9565b610128565b6040516100839190610cf1565b60405180910390f35b61009461019e565b6040516100a19190610dfc565b60405180910390f35b6100b26103ff565b6040516100bf9190610fdb565b60405180910390f35b6100e260048036038101906100dd9190611029565b610960565b6040516100ef91906110c5565b60405180910390f35b610112600480360381019061010d9190610ca9565b610b83565b60405161011f91906110f6565b60405180910390f35b600080610133610bef565b9050806003016000847bffffffffffffffffffffffffffffffffffffffffffffffffffffffff19167bffffffffffffffffffffffffffffffffffffffffffffffffffffffff1916815260200190815260200160002060009054906101000a900460ff16915050919050565b606060006101aa610bef565b90508060020160009054906101000a900461ffff1661ffff1667ffffffffffffffff8111156101dc576101db611111565b5b60405190808252806020026020018201604052801561020a5781602001602082028036833780820191505090505b50915060008060005b8360020160009054906101000a900461ffff1661ffff168210156103f557600084600101600083815260200190815260200160002054905060005b60088110156103e057838061026290611179565b9450508560020160009054906101000a900461ffff1661ffff1684116103e0576000600582901b83901b90506000876000016000837bffffffffffffffffffffffffffffffffffffffffffffffffffffffff19167bffffffffffffffffffffffffffffffffffffffffffffffffffffffff191681526020019081526020016000205460601c90506000805b8881101561035e578a8181518110610308576103076111c1565b5b602002602001015173ffffffffffffffffffffffffffffffffffffffff168373ffffffffffffffffffffffffffffffffffffffff160361034b576001915061035e565b808061035690611179565b9150506102ed565b50801561036d575050506103cd565b818a8981518110610381576103806111c1565b5b602002602001019073ffffffffffffffffffffffffffffffffffffffff16908173ffffffffffffffffffffffffffffffffffffffff168152505087806103c690611179565b9850505050505b80806103d890611179565b91505061024e565b505080806103ed90611179565b915050610213565b5081845250505090565b6060600061040b610bef565b90508060020160009054906101000a900461ffff1661ffff1667ffffffffffffffff81111561043d5761043c611111565b5b60405190808252806020026020018201604052801561047657816020015b610463610c1c565b81526020019060019003908161045b5790505b50915060008160020160009054906101000a900461ffff1661ffff1667ffffffffffffffff8111156104ab576104aa611111565b5b6040519080825280602002602001820160405280156104d95781602001602082028036833780820191505090505b50905060008060005b8460020160009054906101000a900461ffff1661ffff168210156108ec57600085600101600083815260200190815260200160002054905060005b60088110156108d757838061053190611179565b9450508660020160009054906101000a900461ffff1661ffff1684116108d7576000600582901b83901b90506000886000016000837bffffffffffffffffffffffffffffffffffffffffffffffffffffffff19167bffffffffffffffffffffffffffffffffffffffffffffffffffffffff191681526020019081526020016000205460601c90506000805b88811015610728578273ffffffffffffffffffffffffffffffffffffffff168c82815181106105ee576105ed6111c1565b5b60200260200101516000015173ffffffffffffffffffffffffffffffffffffffff160361071557838c8281518110610629576106286111c1565b5b6020026020010151602001518b8381518110610648576106476111c1565b5b602002602001015160ff1681518110610664576106636111c1565b5b60200260200101907bffffffffffffffffffffffffffffffffffffffffffffffffffffffff191690817bffffffffffffffffffffffffffffffffffffffffffffffffffffffff19168152505060ff8a82815181106106c5576106c46111c1565b5b602002602001015160ff16106106da57600080fd5b8981815181106106ed576106ec6111c1565b5b602002602001018051809190610702906111fd565b60ff1660ff168152505060019150610728565b808061072090611179565b9150506105bc565b508015610737575050506108c4565b818b898151811061074b5761074a6111c1565b5b60200260200101516000019073ffffffffffffffffffffffffffffffffffffffff16908173ffffffffffffffffffffffffffffffffffffffff16815250508960020160009054906101000a900461ffff1661ffff1667ffffffffffffffff8111156107b9576107b8611111565b5b6040519080825280602002602001820160405280156107e75781602001602082028036833780820191505090505b508b89815181106107fb576107fa6111c1565b5b602002602001015160200181905250828b898151811061081e5761081d6111c1565b5b60200260200101516020015160008151811061083d5761083c6111c1565b5b60200260200101907bffffffffffffffffffffffffffffffffffffffffffffffffffffffff191690817bffffffffffffffffffffffffffffffffffffffffffffffffffffffff191681525050600189898151811061089e5761089d6111c1565b5b602002602001019060ff16908160ff168152505087806108bd90611179565b9850505050505b80806108cf90611179565b91505061051d565b505080806108e490611179565b9150506104e2565b5060005b8281101561095557600084828151811061090d5761090c6111c1565b5b602002602001015160ff169050600087838151811061092f5761092e6111c1565b5b60200260200101516020015190508181525050808061094d90611179565b9150506108f0565b508185525050505090565b6060600061096c610bef565b905060008160020160009054906101000a900461ffff1661ffff1667ffffffffffffffff8111156109a05761099f611111565b5b6040519080825280602002602001820160405280156109ce5781602001602082028036833780820191505090505b5092506000805b8360020160009054906101000a900461ffff1661ffff16821015610b7757600084600101600083815260200190815260200160002054905060005b6008811015610b62578380610a2490611179565b9450508560020160009054906101000a900461ffff1661ffff168411610b62576000600582901b83901b90506000876000016000837bffffffffffffffffffffffffffffffffffffffffffffffffffffffff19167bffffffffffffffffffffffffffffffffffffffffffffffffffffffff191681526020019081526020016000205460601c90508073ffffffffffffffffffffffffffffffffffffffff168a73ffffffffffffffffffffffffffffffffffffffff1603610b4d5781898881518110610af257610af16111c1565b5b60200260200101907bffffffffffffffffffffffffffffffffffffffffffffffffffffffff191690817bffffffffffffffffffffffffffffffffffffffffffffffffffffffff1916815250508680610b4990611179565b9750505b50508080610b5a90611179565b915050610a10565b50508080610b6f90611179565b9150506109d5565b50818452505050919050565b600080610b8e610bef565b9050806000016000847bffffffffffffffffffffffffffffffffffffffffffffffffffffffff19167bffffffffffffffffffffffffffffffffffffffffffffffffffffffff191681526020019081526020016000205460601c915050919050565b6000807fc8fcad8db84d3cc18b4c41d551ea0ee66dd599cde068d998e57d5e09332c131c90508091505090565b6040518060400160405280600073ffffffffffffffffffffffffffffffffffffffff168152602001606081525090565b600080fd5b60007fffffffff0000000000000000000000000000000000000000000000000000000082169050919050565b610c8681610c51565b8114610c9157600080fd5b50565b600081359050610ca381610c7d565b92915050565b600060208284031215610cbf57610cbe610c4c565b5b6000610ccd84828501610c94565b91505092915050565b60008115159050919050565b610ceb81610cd6565b82525050565b6000602082019050610d066000830184610ce2565b92915050565b600081519050919050565b600082825260208201905092915050565b6000819050602082019050919050565b600073ffffffffffffffffffffffffffffffffffffffff82169050919050565b6000610d6382610d38565b9050919050565b610d7381610d58565b82525050565b6000610d858383610d6a565b60208301905092915050565b6000602082019050919050565b6000610da982610d0c565b610db38185610d17565b9350610dbe83610d28565b8060005b83811015610def578151610dd68882610d79565b9750610de183610d91565b925050600181019050610dc2565b5085935050505092915050565b60006020820190508181036000830152610e168184610d9e565b905092915050565b600081519050919050565b600082825260208201905092915050565b6000819050602082019050919050565b600081519050919050565b600082825260208201905092915050565b6000819050602082019050919050565b610e7f81610c51565b82525050565b6000610e918383610e76565b60208301905092915050565b6000602082019050919050565b6000610eb582610e4a565b610ebf8185610e55565b9350610eca83610e66565b8060005b83811015610efb578151610ee28882610e85565b9750610eed83610e9d565b925050600181019050610ece565b5085935050505092915050565b6000604083016000830151610f206000860182610d6a565b5060208301518482036020860152610f388282610eaa565b9150508091505092915050565b6000610f518383610f08565b905092915050565b6000602082019050919050565b6000610f7182610e1e565b610f7b8185610e29565b935083602082028501610f8d85610e3a565b8060005b85811015610fc95784840389528151610faa8582610f45565b9450610fb583610f59565b925060208a01995050600181019050610f91565b50829750879550505050505092915050565b60006020820190508181036000830152610ff58184610f66565b905092915050565b61100681610d58565b811461101157600080fd5b50565b60008135905061102381610ffd565b92915050565b60006020828403121561103f5761103e610c4c565b5b600061104d84828501611014565b91505092915050565b600082825260208201905092915050565b600061107282610e4a565b61107c8185611056565b935061108783610e66565b8060005b838110156110b857815161109f8882610e85565b97506110aa83610e9d565b92505060018101905061108b565b5085935050505092915050565b600060208201905081810360008301526110df8184611067565b905092915050565b6110f081610d58565b82525050565b600060208201905061110b60008301846110e7565b92915050565b7f4e487b7100000000000000000000000000000000000000000000000000000000600052604160045260246000fd5b7f4e487b7100000000000000000000000000000000000000000000000000000000600052601160045260246000fd5b6000819050919050565b60006111848261116f565b91507fffffffffffffffffffffffffffffffffffffffffffffffffffffffffffffffff82036111b6576111b5611140565b5b600182019050919050565b7f4e487b7100000000000000000000000000000000000000000000000000000000600052603260045260246000fd5b600060ff82169050919050565b6000611208826111f0565b915060ff820361121b5761121a611140565b5b60018201905091905056fea264697066735822122037f10c7af6a747ca4a2dd052d042074a804a719a304a6a6cdcbaf14a6b95f0c464736f6c634300080d0033",
  "immutableReferences": {},
  "source": "// SPDX-License-Identifier: MIT\n/**\n * Vendored on February 16, 2022 from:\n * https://github.com/mudgen/diamond-2-hardhat/blob/0cf47c8/contracts/Diamond.sol\n */\npragma solidity ^0.8.0;\n/******************************************************************************\\\n* Author: Nick Mudge <nick@perfectabstractions.com> (https://twitter.com/mudgen)\n* EIP-2535 Diamonds: https://eips.ethereum.org/EIPS/eip-2535\n/******************************************************************************/\n\nimport { LibDiamond } from  \"../libraries/LibDiamond.sol\";\nimport { IDiamondLoupe } from \"../interfaces/IDiamondLoupe.sol\";\nimport { IERC165 } from \"../interfaces/IERC165.sol\";\n\ncontract DiamondLoupeFacet is IDiamondLoupe, IERC165 {\n    // Diamond Loupe Functions\n    ////////////////////////////////////////////////////////////////////\n    /// These functions are expected to be called frequently by tools.\n    //\n    // struct Facet {\n    //     address facetAddress;\n    //     bytes4[] functionSelectors;\n    // }\n    /// @notice Gets all facets and their selectors.\n    /// @return facets_ Facet\n    function facets() external override view returns (Facet[] memory facets_) {\n        LibDiamond.DiamondStorage storage ds = LibDiamond.diamondStorage();\n        facets_ = new Facet[](ds.selectorCount);\n        uint8[] memory numFacetSelectors = new uint8[](ds.selectorCount);\n        uint256 numFacets;\n        uint256 selectorIndex;\n        // loop through function selectors\n        for (uint256 slotIndex; selectorIndex < ds.selectorCount; slotIndex++) {\n            bytes32 slot = ds.selectorSlots[slotIndex];\n            for (uint256 selectorSlotIndex; selectorSlotIndex < 8; selectorSlotIndex++) {\n                selectorIndex++;\n                if (selectorIndex > ds.selectorCount) {\n                    break;\n                }\n                bytes4 selector = bytes4(slot << (selectorSlotIndex << 5));\n                address facetAddress_ = address(bytes20(ds.facets[selector]));\n                bool continueLoop;\n                for (uint256 facetIndex; facetIndex < numFacets; facetIndex++) {\n                    if (facets_[facetIndex].facetAddress == facetAddress_) {\n                        facets_[facetIndex].functionSelectors[numFacetSelectors[facetIndex]] = selector;\n                        // probably will never have more than 256 functions from one facet contract\n                        require(numFacetSelectors[facetIndex] < 255);\n                        numFacetSelectors[facetIndex]++;\n                        continueLoop = true;\n                        break;\n                    }\n                }\n                if (continueLoop) {\n                    continue;\n                }\n                facets_[numFacets].facetAddress = facetAddress_;\n                facets_[numFacets].functionSelectors = new bytes4[](ds.selectorCount);\n                facets_[numFacets].functionSelectors[0] = selector;\n                numFacetSelectors[numFacets] = 1;\n                numFacets++;\n            }\n        }\n        for (uint256 facetIndex; facetIndex < numFacets; facetIndex++) {\n            uint256 numSelectors = numFacetSelectors[facetIndex];\n            bytes4[] memory selectors = facets_[facetIndex].functionSelectors;\n            // setting the number of selectors\n            assembly {\n                mstore(selectors, numSelectors)\n            }\n        }\n        // setting the number of facets\n        assembly {\n            mstore(facets_, numFacets)\n        }\n    }\n\n    /// @notice Gets all the function selectors supported by a specific facet.\n    /// @param _facet The facet address.\n    /// @return _facetFunctionSelectors The selectors associated with a facet address.\n    function facetFunctionSelectors(address _facet) external override view returns (bytes4[] memory _facetFunctionSelectors) {\n        LibDiamond.DiamondStorage storage ds = LibDiamond.diamondStorage();\n        uint256 numSelectors;\n        _facetFunctionSelectors = new bytes4[](ds.selectorCount);\n        uint256 selectorIndex;\n        // loop through function selectors\n        for (uint256 slotIndex; selectorIndex < ds.selectorCount; slotIndex++) {\n            bytes32 slot = ds.selectorSlots[slotIndex];\n            for (uint256 selectorSlotIndex; selectorSlotIndex < 8; selectorSlotIndex++) {\n                selectorIndex++;\n                if (selectorIndex > ds.selectorCount) {\n                    break;\n                }\n                bytes4 selector = bytes4(slot << (selectorSlotIndex << 5));\n                address facet = address(bytes20(ds.facets[selector]));\n                if (_facet == facet) {\n                    _facetFunctionSelectors[numSelectors] = selector;\n                    numSelectors++;\n                }\n            }\n        }\n        // Set the number of selectors in the array\n        assembly {\n            mstore(_facetFunctionSelectors, numSelectors)\n        }\n    }\n\n    /// @notice Get all the facet addresses used by a diamond.\n    /// @return facetAddresses_\n    function facetAddresses() external override view returns (address[] memory facetAddresses_) {\n        LibDiamond.DiamondStorage storage ds = LibDiamond.diamondStorage();\n        facetAddresses_ = new address[](ds.selectorCount);\n        uint256 numFacets;\n        uint256 selectorIndex;\n        // loop through function selectors\n        for (uint256 slotIndex; selectorIndex < ds.selectorCount; slotIndex++) {\n            bytes32 slot = ds.selectorSlots[slotIndex];\n            for (uint256 selectorSlotIndex; selectorSlotIndex < 8; selectorSlotIndex++) {\n                selectorIndex++;\n                if (selectorIndex > ds.selectorCount) {\n                    break;\n                }\n                bytes4 selector = bytes4(slot << (selectorSlotIndex << 5));\n                address facetAddress_ = address(bytes20(ds.facets[selector]));\n                bool continueLoop;\n                for (uint256 facetIndex; facetIndex < numFacets; facetIndex++) {\n                    if (facetAddress_ == facetAddresses_[facetIndex]) {\n                        continueLoop = true;\n                        break;\n                    }\n                }\n                if (continueLoop) {\n                    continue;\n                }\n                facetAddresses_[numFacets] = facetAddress_;\n                numFacets++;\n            }\n        }\n        // Set the number of facet addresses in the array\n        assembly {\n            mstore(facetAddresses_, numFacets)\n        }\n    }\n\n    /// @notice Gets the facet that supports the given selector.\n    /// @dev If facet is not found return address(0).\n    /// @param _functionSelector The function selector.\n    /// @return facetAddress_ The facet address.\n    function facetAddress(bytes4 _functionSelector) external override view returns (address facetAddress_) {\n        LibDiamond.DiamondStorage storage ds = LibDiamond.diamondStorage();\n        facetAddress_ = address(bytes20(ds.facets[_functionSelector]));\n    }\n\n    // This implements ERC-165.\n    function supportsInterface(bytes4 _interfaceId) external override view returns (bool) {\n        LibDiamond.DiamondStorage storage ds = LibDiamond.diamondStorage();\n        return ds.supportedInterfaces[_interfaceId];\n    }\n}\n",
  "sourcePath": "/home/terra/opensource/tosca-chain/smart-contract-example/contracts/vendor/facets/DiamondLoupeFacet.sol",
  "compiler": {
    "name": "solc",
    "version": "0.8.13+commit.abaa5c0e.Emscripten.clang"
  },
  "schemaVersion": "3.4.7",
  "updatedAt": "2022-04-30T15:27:25.979Z",
  "devdoc": {
    "kind": "dev",
    "methods": {
      "facetAddress(bytes4)": {
        "details": "If facet is not found return address(0).",
        "params": {
          "_functionSelector": "The function selector."
        },
        "returns": {
          "facetAddress_": "The facet address."
        }
      },
      "facetAddresses()": {
        "returns": {
          "facetAddresses_": "facetAddresses_"
        }
      },
      "facetFunctionSelectors(address)": {
        "params": {
          "_facet": "The facet address."
        },
        "returns": {
          "_facetFunctionSelectors": "The selectors associated with a facet address."
        }
      },
      "facets()": {
        "returns": {
          "facets_": "Facet"
        }
      }
    },
    "version": 1
  },
  "userdoc": {
    "kind": "user",
    "methods": {
      "facetAddress(bytes4)": {
        "notice": "Gets the facet that supports the given selector."
      },
      "facetAddresses()": {
        "notice": "Get all the facet addresses used by a diamond."
      },
      "facetFunctionSelectors(address)": {
        "notice": "Gets all the function selectors supported by a specific facet."
      },
      "facets()": {
        "notice": "Gets all facets and their selectors."
      }
    },
    "version": 1
  }
}