{
  "contractName": "LibLazyUpdate",
  "abi": [
    {
      "inputs": [
        {
          "internalType": "uint256",
          "name": "updateToTime",
          "type": "uint256"
        },
        {
          "components": [
            {
              "internalType": "address",
              "name": "owner",
              "type": "address"
            },
            {
              "internalType": "uint256",
              "name": "range",
              "type": "uint256"
            },
            {
              "internalType": "uint256",
              "name": "speed",
              "type": "uint256"
            },
            {
              "internalType": "uint256",
              "name": "defense",
              "type": "uint256"
            },
            {
              "internalType": "uint256",
              "name": "population",
              "type": "uint256"
            },
            {
              "internalType": "uint256",
              "name": "populationCap",
              "type": "uint256"
            },
            {
              "internalType": "uint256",
              "name": "populationGrowth",
              "type": "uint256"
            },
            {
              "internalType": "uint256",
              "name": "silverCap",
              "type": "uint256"
            },
            {
              "internalType": "uint256",
              "name": "silverGrowth",
              "type": "uint256"
            },
            {
              "internalType": "uint256",
              "name": "silver",
              "type": "uint256"
            },
            {
              "internalType": "uint256",
              "name": "planetLevel",
              "type": "uint256"
            },
            {
              "internalType": "enum PlanetType",
              "name": "planetType",
              "type": "PlanetType"
            },
            {
              "internalType": "bool",
              "name": "isHomePlanet",
              "type": "bool"
            }
          ],
          "internalType": "struct Planet",
          "name": "planet",
          "type": "tuple"
        },
        {
          "components": [
            {
              "internalType": "bool",
              "name": "isInitialized",
              "type": "bool"
            },
            {
              "internalType": "uint256",
              "name": "createdAt",
              "type": "uint256"
            },
            {
              "internalType": "uint256",
              "name": "lastUpdated",
              "type": "uint256"
            },
            {
              "internalType": "uint256",
              "name": "perlin",
              "type": "uint256"
            },
            {
              "internalType": "enum SpaceType",
              "name": "spaceType",
              "type": "SpaceType"
            },
            {
              "internalType": "uint256",
              "name": "upgradeState0",
              "type": "uint256"
            },
            {
              "internalType": "uint256",
              "name": "upgradeState1",
              "type": "uint256"
            },
            {
              "internalType": "uint256",
              "name": "upgradeState2",
              "type": "uint256"
            },
            {
              "internalType": "uint256",
              "name": "hatLevel",
              "type": "uint256"
            },
            {
              "internalType": "bool",
              "name": "hasTriedFindingArtifact",
              "type": "bool"
            },
            {
              "internalType": "uint256",
              "name": "prospectedBlockNumber",
              "type": "uint256"
            },
            {
              "internalType": "bool",
              "name": "destroyed",
              "type": "bool"
            },
            {
              "internalType": "uint256",
              "name": "spaceJunk",
              "type": "uint256"
            }
          ],
          "internalType": "struct PlanetExtendedInfo",
          "name": "planetExtendedInfo",
          "type": "tuple"
        },
        {
          "components": [
            {
              "internalType": "bool",
              "name": "isInitialized",
              "type": "bool"
            },
            {
              "internalType": "uint256",
              "name": "pausers",
              "type": "uint256"
            },
            {
              "internalType": "address",
              "name": "invader",
              "type": "address"
            },
            {
              "internalType": "uint256",
              "name": "invadeStartBlock",
              "type": "uint256"
            },
            {
              "internalType": "address",
              "name": "capturer",
              "type": "address"
            }
          ],
          "internalType": "struct PlanetExtendedInfo2",
          "name": "planetExtendedInfo2",
          "type": "tuple"
        }
      ],
      "name": "updatePlanet",
      "outputs": [
        {
          "components": [
            {
              "internalType": "address",
              "name": "owner",
              "type": "address"
            },
            {
              "internalType": "uint256",
              "name": "range",
              "type": "uint256"
            },
            {
              "internalType": "uint256",
              "name": "speed",
              "type": "uint256"
            },
            {
              "internalType": "uint256",
              "name": "defense",
              "type": "uint256"
            },
            {
              "internalType": "uint256",
              "name": "population",
              "type": "uint256"
            },
            {
              "internalType": "uint256",
              "name": "populationCap",
              "type": "uint256"
            },
            {
              "internalType": "uint256",
              "name": "populationGrowth",
              "type": "uint256"
            },
            {
              "internalType": "uint256",
              "name": "silverCap",
              "type": "uint256"
            },
            {
              "internalType": "uint256",
              "name": "silverGrowth",
              "type": "uint256"
            },
            {
              "internalType": "uint256",
              "name": "silver",
              "type": "uint256"
            },
            {
              "internalType": "uint256",
              "name": "planetLevel",
              "type": "uint256"
            },
            {
              "internalType": "enum PlanetType",
              "name": "planetType",
              "type": "PlanetType"
            },
            {
              "internalType": "bool",
              "name": "isHomePlanet",
              "type": "bool"
            }
          ],
          "internalType": "struct Planet",
          "name": "",
          "type": "tuple"
        },
        {
          "components": [
            {
              "internalType": "bool",
              "name": "isInitialized",
              "type": "bool"
            },
            {
              "internalType": "uint256",
              "name": "createdAt",
              "type": "uint256"
            },
            {
              "internalType": "uint256",
              "name": "lastUpdated",
              "type": "uint256"
            },
            {
              "internalType": "uint256",
              "name": "perlin",
              "type": "uint256"
            },
            {
              "internalType": "enum SpaceType",
              "name": "spaceType",
              "type": "SpaceType"
            },
            {
              "internalType": "uint256",
              "name": "upgradeState0",
              "type": "uint256"
            },
            {
              "internalType": "uint256",
              "name": "upgradeState1",
              "type": "uint256"
            },
            {
              "internalType": "uint256",
              "name": "upgradeState2",
              "type": "uint256"
            },
            {
              "internalType": "uint256",
              "name": "hatLevel",
              "type": "uint256"
            },
            {
              "internalType": "bool",
              "name": "hasTriedFindingArtifact",
              "type": "bool"
            },
            {
              "internalType": "uint256",
              "name": "prospectedBlockNumber",
              "type": "uint256"
            },
            {
              "internalType": "bool",
              "name": "destroyed",
              "type": "bool"
            },
            {
              "internalType": "uint256",
              "name": "spaceJunk",
              "type": "uint256"
            }
          ],
          "internalType": "struct PlanetExtendedInfo",
          "name": "",
          "type": "tuple"
        },
        {
          "components": [
            {
              "internalType": "bool",
              "name": "isInitialized",
              "type": "bool"
            },
            {
              "internalType": "uint256",
              "name": "pausers",
              "type": "uint256"
            },
            {
              "internalType": "address",
              "name": "invader",
              "type": "address"
            },
            {
              "internalType": "uint256",
              "name": "invadeStartBlock",
              "type": "uint256"
            },
            {
              "internalType": "address",
              "name": "capturer",
              "type": "address"
            }
          ],
          "internalType": "struct PlanetExtendedInfo2",
          "name": "",
          "type": "tuple"
        }
      ],
      "stateMutability": "pure",
      "type": "function"
    },
    {
      "inputs": [
        {
          "internalType": "uint256",
          "name": "currentTimestamp",
          "type": "uint256"
        },
        {
          "components": [
            {
              "internalType": "address",
              "name": "owner",
              "type": "address"
            },
            {
              "internalType": "uint256",
              "name": "range",
              "type": "uint256"
            },
            {
              "internalType": "uint256",
              "name": "speed",
              "type": "uint256"
            },
            {
              "internalType": "uint256",
              "name": "defense",
              "type": "uint256"
            },
            {
              "internalType": "uint256",
              "name": "population",
              "type": "uint256"
            },
            {
              "internalType": "uint256",
              "name": "populationCap",
              "type": "uint256"
            },
            {
              "internalType": "uint256",
              "name": "populationGrowth",
              "type": "uint256"
            },
            {
              "internalType": "uint256",
              "name": "silverCap",
              "type": "uint256"
            },
            {
              "internalType": "uint256",
              "name": "silverGrowth",
              "type": "uint256"
            },
            {
              "internalType": "uint256",
              "name": "silver",
              "type": "uint256"
            },
            {
              "internalType": "uint256",
              "name": "planetLevel",
              "type": "uint256"
            },
            {
              "internalType": "enum PlanetType",
              "name": "planetType",
              "type": "PlanetType"
            },
            {
              "internalType": "bool",
              "name": "isHomePlanet",
              "type": "bool"
            }
          ],
          "internalType": "struct Planet",
          "name": "planet",
          "type": "tuple"
        },
        {
          "components": [
            {
              "internalType": "bool",
              "name": "isInitialized",
              "type": "bool"
            },
            {
              "internalType": "uint256",
              "name": "createdAt",
              "type": "uint256"
            },
            {
              "internalType": "uint256",
              "name": "lastUpdated",
              "type": "uint256"
            },
            {
              "internalType": "uint256",
              "name": "perlin",
              "type": "uint256"
            },
            {
              "internalType": "enum SpaceType",
              "name": "spaceType",
              "type": "SpaceType"
            },
            {
              "internalType": "uint256",
              "name": "upgradeState0",
              "type": "uint256"
            },
            {
              "internalType": "uint256",
              "name": "upgradeState1",
              "type": "uint256"
            },
            {
              "internalType": "uint256",
              "name": "upgradeState2",
              "type": "uint256"
            },
            {
              "internalType": "uint256",
              "name": "hatLevel",
              "type": "uint256"
            },
            {
              "internalType": "bool",
              "name": "hasTriedFindingArtifact",
              "type": "bool"
            },
            {
              "internalType": "uint256",
              "name": "prospectedBlockNumber",
              "type": "uint256"
            },
            {
              "internalType": "bool",
              "name": "destroyed",
              "type": "bool"
            },
            {
              "internalType": "uint256",
              "name": "spaceJunk",
              "type": "uint256"
            }
          ],
          "internalType": "struct PlanetExtendedInfo",
          "name": "planetExtendedInfo",
          "type": "tuple"
        },
        {
          "components": [
            {
              "internalType": "bool",
              "name": "isInitialized",
              "type": "bool"
            },
            {
              "internalType": "uint256",
              "name": "pausers",
              "type": "uint256"
            },
            {
              "internalType": "address",
              "name": "invader",
              "type": "address"
            },
            {
              "internalType": "uint256",
              "name": "invadeStartBlock",
              "type": "uint256"
            },
            {
              "internalType": "address",
              "name": "capturer",
              "type": "address"
            }
          ],
          "internalType": "struct PlanetExtendedInfo2",
          "name": "planetExtendedInfo2",
          "type": "tuple"
        },
        {
          "components": [
            {
              "internalType": "uint256",
              "name": "id",
              "type": "uint256"
            },
            {
              "internalType": "enum PlanetEventType",
              "name": "eventType",
              "type": "PlanetEventType"
            },
            {
              "internalType": "uint256",
              "name": "timeTrigger",
              "type": "uint256"
            },
            {
              "internalType": "uint256",
              "name": "timeAdded",
              "type": "uint256"
            }
          ],
          "internalType": "struct PlanetEventMetadata[]",
          "name": "events",
          "type": "tuple[]"
        }
      ],
      "name": "applyPendingEvents",
      "outputs": [
        {
          "components": [
            {
              "internalType": "address",
              "name": "owner",
              "type": "address"
            },
            {
              "internalType": "uint256",
              "name": "range",
              "type": "uint256"
            },
            {
              "internalType": "uint256",
              "name": "speed",
              "type": "uint256"
            },
            {
              "internalType": "uint256",
              "name": "defense",
              "type": "uint256"
            },
            {
              "internalType": "uint256",
              "name": "population",
              "type": "uint256"
            },
            {
              "internalType": "uint256",
              "name": "populationCap",
              "type": "uint256"
            },
            {
              "internalType": "uint256",
              "name": "populationGrowth",
              "type": "uint256"
            },
            {
              "internalType": "uint256",
              "name": "silverCap",
              "type": "uint256"
            },
            {
              "internalType": "uint256",
              "name": "silverGrowth",
              "type": "uint256"
            },
            {
              "internalType": "uint256",
              "name": "silver",
              "type": "uint256"
            },
            {
              "internalType": "uint256",
              "name": "planetLevel",
              "type": "uint256"
            },
            {
              "internalType": "enum PlanetType",
              "name": "planetType",
              "type": "PlanetType"
            },
            {
              "internalType": "bool",
              "name": "isHomePlanet",
              "type": "bool"
            }
          ],
          "internalType": "struct Planet",
          "name": "",
          "type": "tuple"
        },
        {
          "components": [
            {
              "internalType": "bool",
              "name": "isInitialized",
              "type": "bool"
            },
            {
              "internalType": "uint256",
              "name": "createdAt",
              "type": "uint256"
            },
            {
              "internalType": "uint256",
              "name": "lastUpdated",
              "type": "uint256"
            },
            {
              "internalType": "uint256",
              "name": "perlin",
              "type": "uint256"
            },
            {
              "internalType": "enum SpaceType",
              "name": "spaceType",
              "type": "SpaceType"
            },
            {
              "internalType": "uint256",
              "name": "upgradeState0",
              "type": "uint256"
            },
            {
              "internalType": "uint256",
              "name": "upgradeState1",
              "type": "uint256"
            },
            {
              "internalType": "uint256",
              "name": "upgradeState2",
              "type": "uint256"
            },
            {
              "internalType": "uint256",
              "name": "hatLevel",
              "type": "uint256"
            },
            {
              "internalType": "bool",
              "name": "hasTriedFindingArtifact",
              "type": "bool"
            },
            {
              "internalType": "uint256",
              "name": "prospectedBlockNumber",
              "type": "uint256"
            },
            {
              "internalType": "bool",
              "name": "destroyed",
              "type": "bool"
            },
            {
              "internalType": "uint256",
              "name": "spaceJunk",
              "type": "uint256"
            }
          ],
          "internalType": "struct PlanetExtendedInfo",
          "name": "",
          "type": "tuple"
        },
        {
          "components": [
            {
              "internalType": "bool",
              "name": "isInitialized",
              "type": "bool"
            },
            {
              "internalType": "uint256",
              "name": "pausers",
              "type": "uint256"
            },
            {
              "internalType": "address",
              "name": "invader",
              "type": "address"
            },
            {
              "internalType": "uint256",
              "name": "invadeStartBlock",
              "type": "uint256"
            },
            {
              "internalType": "address",
              "name": "capturer",
              "type": "address"
            }
          ],
          "internalType": "struct PlanetExtendedInfo2",
          "name": "",
          "type": "tuple"
        },
        {
          "internalType": "uint256[24]",
          "name": "",
          "type": "uint256[24]"
        }
      ],
      "stateMutability": "view",
      "type": "function"
    }
  ],
  "bytecode": "0x6129b6610053600b82828239805160001a607314610046577f4e487b7100000000000000000000000000000000000000000000000000000000600052600060045260246000fd5b30600052607381538281f3fe73000000000000000000000000000000000000000030146080604052600436106100405760003560e01c806355363bda14610045578063aceff28014610077575b600080fd5b61005f600480360381019061005a9190611ffb565b6100aa565b60405161006e939291906123cf565b60405180910390f35b610091600480360381019061008c9190612573565b610128565b6040516100a194939291906126aa565b60405180910390f35b6100b26119b2565b6100ba611a44565b6100c2611ac4565b6100ce87878787610532565b600160048111156100e2576100e1612083565b5b86610160015160048111156100fa576100f9612083565b5b0361010b5761010a878787610705565b5b868560400181815250508585859250925092509450945094915050565b6101306119b2565b610138611a44565b610140611ac4565b610148611b21565b610150611b21565b6000806000805b60008a51148061016957508b61016001515b610515577fffffffffffffffffffffffffffffffffffffffffffffffffffffffffffffffff915060005b8a5181101561026c57828b82815181106101b0576101af6126f3565b5b60200260200101516040015110156102595760006001905060005b8681101561022b578c83815181106101e6576101e56126f3565b5b602002602001015160000151888260188110610205576102046126f3565b5b602002015103610218576000915061022b565b808061022390612751565b9150506101cb565b508015610257578b8281518110610245576102446126f3565b5b60200260200101516040015193508192505b505b808061026490612751565b915050610193565b508d8a8281518110610281576102806126f3565b5b602002602001015160400151111580156102bb57507fffffffffffffffffffffffffffffffffffffffffffffffffffffffffffffffff8214155b1561050c576102ea8a82815181106102d6576102d56126f3565b5b6020026020010151604001518e8e8e6100aa565b809d50819e50829f5050505060008081111561030957610308612083565b5b8a828151811061031c5761031b6126f3565b5b602002602001015160200151600081111561033a57610339612083565b5b0361050b57898181518110610352576103516126f3565b5b60200260200101516000015185858061036a90612751565b96506018811061037d5761037c6126f3565b5b60200201818152505060006104c38e8d610395610826565b60140160008f87815181106103ad576103ac6126f3565b5b602002602001015160000151815260200190815260200160002060405180610160016040529081600082015481526020016001820160009054906101000a900473ffffffffffffffffffffffffffffffffffffffff1673ffffffffffffffffffffffffffffffffffffffff1673ffffffffffffffffffffffffffffffffffffffff1681526020016002820154815260200160038201548152602001600482015481526020016005820154815260200160068201548152602001600782015481526020016008820160009054906101000a900460ff16600381111561049457610493612083565b5b60038111156104a6576104a5612083565b5b815260200160098201548152602001600a82015481525050610835565b809f5081925050506000811461050957808685806104e090612751565b9650600c6104ee9190612799565b601881106104ff576104fe6126f3565b5b6020020181815250505b505b5b8d821115610157575b8c8c8c879850985098509850505050505095509550955095915050565b600073ffffffffffffffffffffffffffffffffffffffff16836000015173ffffffffffffffffffffffffffffffffffffffff1603156106ff57600061058b61057986610ab7565b6105868560400151610ab7565b610ada565b905060006105996001610ab7565b9050600061063d6106376106076106026105f06105ea6105d87ffffffffffffffffffffffffffffffffffffffffffffffffffffffffffffffffc610b41565b6105e58d60c00151610ab7565b610b90565b88610b90565b6105fd8b60a00151610ab7565b610bfb565b610c84565b61063261062c61061a8b60a00151610ab7565b6106278c60800151610ab7565b610bfb565b86610ada565b610b90565b83610cfd565b9050600061065f61065a6106548960a00151610ab7565b84610bfb565b610d64565b67ffffffffffffffff169050600085602001511180156106825750866080015181115b1561069057505050506106ff565b808760800181815250506004808111156106ad576106ac612083565b5b87610160015160048111156106c5576106c4612083565b5b14806106d5575060008560200151115b156106fa578660a00151876080015111156106f9578660a001518760800181815250505b5b505050505b50505050565b6001600481111561071957610718612083565b5b826101600151600481111561073157610730612083565b5b14610771576040517f08c379a000000000000000000000000000000000000000000000000000000000815260040161076890612872565b60405180910390fd5b600073ffffffffffffffffffffffffffffffffffffffff16826000015173ffffffffffffffffffffffffffffffffffffffff160315610821578160e0015182610120015110156108205760008160400151846107cd9190612892565b90506000818461010001516107e291906128c6565b905060008460e0015190506000828661012001516108009190612799565b905080821061080f5780610811565b815b86610120018181525050505050505b5b505050565b6000610830610d85565b905090565b600061083f6119b2565b846000015173ffffffffffffffffffffffffffffffffffffffff16836020015173ffffffffffffffffffffffffffffffffffffffff160361089c578260800151856080015161088e9190612799565b856080018181525050610a07565b6003808111156108af576108ae612083565b5b83610100015160038111156108c7576108c6612083565b5b0315610a06578460600151606484608001516108e391906128c6565b6108ed919061294f565b856080015111156109355784606001516064846080015161090e91906128c6565b610918919061294f565b85608001516109279190612892565b856080018181525050610a05565b600073ffffffffffffffffffffffffffffffffffffffff16836020015173ffffffffffffffffffffffffffffffffffffffff161461097757826020015161097d565b84600001515b856000019073ffffffffffffffffffffffffffffffffffffffff16908173ffffffffffffffffffffffffffffffffffffffff16815250506064856060015186608001516109ca91906128c6565b6109d4919061294f565b83608001516109e39190612892565b8560800181815250506000856080015103610a045760018560800181815250505b5b5b5b600480811115610a1a57610a19612083565b5b8561016001516004811115610a3257610a31612083565b5b1480610a42575060008460200151115b15610a67578460a0015185608001511115610a66578460a001518560800181815250505b5b60008560e00151905060008460a00151876101200151610a879190612799565b9050808210610a965780610a98565b815b8761012001818152505084610120015187935093505050935093915050565b6000677fffffffffffffff821115610ace57600080fd5b604082901b9050919050565b60008082600f0b84600f0b0390507fffffffffffffffffffffffffffffffff80000000000000000000000000000000600f0b8112158015610b2e57506f7fffffffffffffffffffffffffffffff600f0b8113155b610b3757600080fd5b8091505092915050565b60007fffffffffffffffffffffffffffffffffffffffffffffffff80000000000000008212158015610b7b5750677fffffffffffffff8213155b610b8457600080fd5b604082901b9050919050565b600080604083600f0b85600f0b02901d90507fffffffffffffffffffffffffffffffff80000000000000000000000000000000600f0b8112158015610be857506f7fffffffffffffffffffffffffffffff600f0b8113155b610bf157600080fd5b8091505092915050565b60008082600f0b03610c0c57600080fd5b600082600f0b604085600f0b901b81610c2857610c27612920565b5b0590507fffffffffffffffffffffffffffffffff80000000000000000000000000000000600f0b8112158015610c7157506f7fffffffffffffffffffffffffffffff600f0b8113155b610c7a57600080fd5b8091505092915050565b60006840000000000000000082600f0b12610c9e57600080fd5b7fffffffffffffffffffffffffffffffffffffffffffffffc0000000000000000082600f0b1215610cd25760009050610cf8565b610cf56080700171547652b82fe1777d0ffda0d23a7d1284600f0b02901d610db2565b90505b919050565b60008082600f0b84600f0b0190507fffffffffffffffffffffffffffffffff80000000000000000000000000000000600f0b8112158015610d5157506f7fffffffffffffffffffffffffffffff600f0b8113155b610d5a57600080fd5b8091505092915050565b60008082600f0b1215610d7657600080fd5b604082600f0b901d9050919050565b6000807fcb7f1a525606efcbba7baaf9b0b55c468d0fd558cbf767967f538834dfa1232e90508091505090565b60006840000000000000000082600f0b12610dcc57600080fd5b7fffffffffffffffffffffffffffffffffffffffffffffffc0000000000000000082600f0b1215610e0057600090506119ad565b60006f80000000000000000000000000000000905060006780000000000000008416600f0b1315610e4657608070016a09e667f3bcc908b2fb1366ea957d3e8202901c90505b60006740000000000000008416600f0b1315610e775760807001306fe0a31b7152de8d5a46305c85edec8202901c90505b60006720000000000000008416600f0b1315610ea85760807001172b83c7d517adcdf7c8c50eb14a791f8202901c90505b60006710000000000000008416600f0b1315610ed957608070010b5586cf9890f6298b92b71842a983638202901c90505b60006708000000000000008416600f0b1315610f0a5760807001059b0d31585743ae7c548eb68ca417fd8202901c90505b60006704000000000000008416600f0b1315610f3b576080700102c9a3e778060ee6f7caca4f7a29bde88202901c90505b60006702000000000000008416600f0b1315610f6c57608070010163da9fb33356d84a66ae336dcdfa3f8202901c90505b60006701000000000000008416600f0b1315610f9d576080700100b1afa5abcbed6129ab13ec11dc95438202901c90505b600066800000000000008416600f0b1315610fcd57608070010058c86da1c09ea1ff19d294cf2f679b8202901c90505b600066400000000000008416600f0b1315610ffd5760807001002c605e2e8cec506d21bfc89a23a00f8202901c90505b600066200000000000008416600f0b131561102d576080700100162f3904051fa128bca9c55c31e5df8202901c90505b600066100000000000008416600f0b131561105d5760807001000b175effdc76ba38e31671ca9397258202901c90505b600066080000000000008416600f0b131561108d576080700100058ba01fb9f96d6cacd4b180917c3d8202901c90505b600066040000000000008416600f0b13156110bd57608070010002c5cc37da9491d0985c348c68e7b38202901c90505b600066020000000000008416600f0b13156110ed5760807001000162e525ee054754457d59952920268202901c90505b600066010000000000008416600f0b131561111d57608070010000b17255775c040618bf4a4ade83fc8202901c90505b6000658000000000008416600f0b131561114c5760807001000058b91b5bc9ae2eed81e9b7d4cfab8202901c90505b6000654000000000008416600f0b131561117b576080700100002c5c89d5ec6ca4d7c8acc017b7c98202901c90505b6000652000000000008416600f0b13156111aa57608070010000162e43f4f831060e02d839a9d16d8202901c90505b6000651000000000008416600f0b13156111d9576080700100000b1721bcfc99d9f890ea069117638202901c90505b6000650800000000008416600f0b131561120857608070010000058b90cf1e6d97f9ca14dbcc16288202901c90505b6000650400000000008416600f0b13156112375760807001000002c5c863b73f016468f6bac5ca2b8202901c90505b6000650200000000008416600f0b1315611266576080700100000162e430e5a18f6119e3c02282a58202901c90505b6000650100000000008416600f0b13156112955760807001000000b1721835514b86e6d96efd1bfe8202901c90505b60006480000000008416600f0b13156112c3576080700100000058b90c0b48c6be5df846c5b2ef8202901c90505b60006440000000008416600f0b13156112f157608070010000002c5c8601cc6b9e94213c72737a8202901c90505b60006420000000008416600f0b131561131f5760807001000000162e42fff037df38aa2b219f068202901c90505b60006410000000008416600f0b131561134d57608070010000000b17217fba9c739aa5819f44f98202901c90505b60006408000000008416600f0b131561137b5760807001000000058b90bfcdee5acd3c1cedc8238202901c90505b60006404000000008416600f0b13156113a9576080700100000002c5c85fe31f35a6a30da1be508202901c90505b60006402000000008416600f0b13156113d757608070010000000162e42ff0999ce3541b9fffcf8202901c90505b60006401000000008416600f0b1315611405576080700100000000b17217f80f4ef5aadda455548202901c90505b600063800000008416600f0b131561143257608070010000000058b90bfbf8479bd5a81b51ad8202901c90505b600063400000008416600f0b131561145f5760807001000000002c5c85fdf84bd62ae30a74cc8202901c90505b600063200000008416600f0b131561148c576080700100000000162e42fefb2fed257559bdaa8202901c90505b600063100000008416600f0b13156114b95760807001000000000b17217f7d5a7716bba4a9ae8202901c90505b600063080000008416600f0b13156114e6576080700100000000058b90bfbe9ddbac5e109cce8202901c90505b600063040000008416600f0b131561151357608070010000000002c5c85fdf4b15de6f17eb0d8202901c90505b600063020000008416600f0b13156115405760807001000000000162e42fefa494f1478fde058202901c90505b600063010000008416600f0b131561156d57608070010000000000b17217f7d20cf927c8e94c8202901c90505b6000628000008416600f0b13156115995760807001000000000058b90bfbe8f71cb4e4b33d8202901c90505b6000624000008416600f0b13156115c5576080700100000000002c5c85fdf477b662b269458202901c90505b6000622000008416600f0b13156115f157608070010000000000162e42fefa3ae53369388c8202901c90505b6000621000008416600f0b131561161d576080700100000000000b17217f7d1d351a389d408202901c90505b6000620800008416600f0b131561164957608070010000000000058b90bfbe8e8b2d3d4ede8202901c90505b6000620400008416600f0b13156116755760807001000000000002c5c85fdf4741bea6e77e8202901c90505b6000620200008416600f0b13156116a1576080700100000000000162e42fefa39fe95583c28202901c90505b6000620100008416600f0b13156116cd5760807001000000000000b17217f7d1cfb72b45e18202901c90505b60006180008416600f0b13156116f8576080700100000000000058b90bfbe8e7cc35c3f08202901c90505b60006140008416600f0b131561172357608070010000000000002c5c85fdf473e242ea388202901c90505b60006120008416600f0b131561174e5760807001000000000000162e42fefa39f02b772c8202901c90505b60006110008416600f0b131561177957608070010000000000000b17217f7d1cf7d83c1a8202901c90505b60006108008416600f0b13156117a45760807001000000000000058b90bfbe8e7bdcbe2e8202901c90505b60006104008416600f0b13156117cf576080700100000000000002c5c85fdf473dea871f8202901c90505b60006102008416600f0b13156117fa57608070010000000000000162e42fefa39ef44d918202901c90505b60006101008416600f0b1315611825576080700100000000000000b17217f7d1cf79e9498202901c90505b600060808416600f0b131561184f57608070010000000000000058b90bfbe8e7bce5448202901c90505b600060408416600f0b13156118795760807001000000000000002c5c85fdf473de6eca8202901c90505b600060208416600f0b13156118a3576080700100000000000000162e42fefa39ef366f8202901c90505b600060108416600f0b13156118cd5760807001000000000000000b17217f7d1cf79afa8202901c90505b600060088416600f0b13156118f7576080700100000000000000058b90bfbe8e7bcd6d8202901c90505b600060048416600f0b131561192157608070010000000000000002c5c85fdf473de6b28202901c90505b600060028416600f0b131561194b5760807001000000000000000162e42fefa39ef3588202901c90505b600060018416600f0b131561197557608070010000000000000000b17217f7d1cf79ab8202901c90505b604083600f0b901d603f03600f0b81901c90506f7fffffffffffffffffffffffffffffff600f0b8111156119a857600080fd5b809150505b919050565b604051806101a00160405280600073ffffffffffffffffffffffffffffffffffffffff1681526020016000815260200160008152602001600081526020016000815260200160008152602001600081526020016000815260200160008152602001600081526020016000815260200160006004811115611a3557611a34612083565b5b81526020016000151581525090565b604051806101a0016040528060001515815260200160008152602001600081526020016000815260200160006003811115611a8257611a81612083565b5b81526020016000815260200160008152602001600081526020016000815260200160001515815260200160008152602001600015158152602001600081525090565b6040518060a0016040528060001515815260200160008152602001600073ffffffffffffffffffffffffffffffffffffffff16815260200160008152602001600073ffffffffffffffffffffffffffffffffffffffff1681525090565b604051806103000160405280601890602082028036833780820191505090505090565b6000604051905090565b600080fd5b600080fd5b6000819050919050565b611b6b81611b58565b8114611b7657600080fd5b50565b600081359050611b8881611b62565b92915050565b600080fd5b6000601f19601f8301169050919050565b7f4e487b7100000000000000000000000000000000000000000000000000000000600052604160045260246000fd5b611bdc82611b93565b810181811067ffffffffffffffff82111715611bfb57611bfa611ba4565b5b80604052505050565b6000611c0e611b44565b9050611c1a8282611bd3565b919050565b600073ffffffffffffffffffffffffffffffffffffffff82169050919050565b6000611c4a82611c1f565b9050919050565b611c5a81611c3f565b8114611c6557600080fd5b50565b600081359050611c7781611c51565b92915050565b60058110611c8a57600080fd5b50565b600081359050611c9c81611c7d565b92915050565b60008115159050919050565b611cb781611ca2565b8114611cc257600080fd5b50565b600081359050611cd481611cae565b92915050565b60006101a08284031215611cf157611cf0611b8e565b5b611cfc6101a0611c04565b90506000611d0c84828501611c68565b6000830152506020611d2084828501611b79565b6020830152506040611d3484828501611b79565b6040830152506060611d4884828501611b79565b6060830152506080611d5c84828501611b79565b60808301525060a0611d7084828501611b79565b60a08301525060c0611d8484828501611b79565b60c08301525060e0611d9884828501611b79565b60e083015250610100611dad84828501611b79565b61010083015250610120611dc384828501611b79565b61012083015250610140611dd984828501611b79565b61014083015250610160611def84828501611c8d565b61016083015250610180611e0584828501611cc5565b6101808301525092915050565b60048110611e1f57600080fd5b50565b600081359050611e3181611e12565b92915050565b60006101a08284031215611e4e57611e4d611b8e565b5b611e596101a0611c04565b90506000611e6984828501611cc5565b6000830152506020611e7d84828501611b79565b6020830152506040611e9184828501611b79565b6040830152506060611ea584828501611b79565b6060830152506080611eb984828501611e22565b60808301525060a0611ecd84828501611b79565b60a08301525060c0611ee184828501611b79565b60c08301525060e0611ef584828501611b79565b60e083015250610100611f0a84828501611b79565b61010083015250610120611f2084828501611cc5565b61012083015250610140611f3684828501611b79565b61014083015250610160611f4c84828501611cc5565b61016083015250610180611f6284828501611b79565b6101808301525092915050565b600060a08284031215611f8557611f84611b8e565b5b611f8f60a0611c04565b90506000611f9f84828501611cc5565b6000830152506020611fb384828501611b79565b6020830152506040611fc784828501611c68565b6040830152506060611fdb84828501611b79565b6060830152506080611fef84828501611c68565b60808301525092915050565b600080600080610400858703121561201657612015611b4e565b5b600061202487828801611b79565b945050602061203587828801611cda565b9350506101c061204787828801611e37565b92505061036061205987828801611f6f565b91505092959194509250565b61206e81611c3f565b82525050565b61207d81611b58565b82525050565b7f4e487b7100000000000000000000000000000000000000000000000000000000600052602160045260246000fd5b600581106120c3576120c2612083565b5b50565b60008190506120d4826120b2565b919050565b60006120e4826120c6565b9050919050565b6120f4816120d9565b82525050565b61210381611ca2565b82525050565b6101a0820160008201516121206000850182612065565b5060208201516121336020850182612074565b5060408201516121466040850182612074565b5060608201516121596060850182612074565b50608082015161216c6080850182612074565b5060a082015161217f60a0850182612074565b5060c082015161219260c0850182612074565b5060e08201516121a560e0850182612074565b506101008201516121ba610100850182612074565b506101208201516121cf610120850182612074565b506101408201516121e4610140850182612074565b506101608201516121f96101608501826120eb565b5061018082015161220e6101808501826120fa565b50505050565b6004811061222557612224612083565b5b50565b600081905061223682612214565b919050565b600061224682612228565b9050919050565b6122568161223b565b82525050565b6101a08201600082015161227360008501826120fa565b5060208201516122866020850182612074565b5060408201516122996040850182612074565b5060608201516122ac6060850182612074565b5060808201516122bf608085018261224d565b5060a08201516122d260a0850182612074565b5060c08201516122e560c0850182612074565b5060e08201516122f860e0850182612074565b5061010082015161230d610100850182612074565b506101208201516123226101208501826120fa565b50610140820151612337610140850182612074565b5061016082015161234c6101608501826120fa565b50610180820151612361610180850182612074565b50505050565b60a08201600082015161237d60008501826120fa565b5060208201516123906020850182612074565b5060408201516123a36040850182612065565b5060608201516123b66060850182612074565b5060808201516123c96080850182612065565b50505050565b60006103e0820190506123e56000830186612109565b6123f36101a083018561225c565b612401610340830184612367565b949350505050565b600080fd5b600067ffffffffffffffff82111561242957612428611ba4565b5b602082029050602081019050919050565b600080fd5b6001811061244c57600080fd5b50565b60008135905061245e8161243f565b92915050565b60006080828403121561247a57612479611b8e565b5b6124846080611c04565b9050600061249484828501611b79565b60008301525060206124a88482850161244f565b60208301525060406124bc84828501611b79565b60408301525060606124d084828501611b79565b60608301525092915050565b60006124ef6124ea8461240e565b611c04565b905080838252602082019050608084028301858111156125125761251161243a565b5b835b8181101561253b57806125278882612464565b845260208401935050608081019050612514565b5050509392505050565b600082601f83011261255a57612559612409565b5b813561256a8482602086016124dc565b91505092915050565b600080600080600061042086880312156125905761258f611b4e565b5b600061259e88828901611b79565b95505060206125af88828901611cda565b9450506101c06125c188828901611e37565b9350506103606125d388828901611f6f565b92505061040086013567ffffffffffffffff8111156125f5576125f4611b53565b5b61260188828901612545565b9150509295509295909350565b600060189050919050565b600081905092915050565b6000819050919050565b600061263a8383612074565b60208301905092915050565b6000602082019050919050565b61265c8161260e565b6126668184612619565b925061267182612624565b8060005b838110156126a2578151612689878261262e565b965061269483612646565b925050600181019050612675565b505050505050565b60006106e0820190506126c06000830187612109565b6126ce6101a083018661225c565b6126dc610340830185612367565b6126ea6103e0830184612653565b95945050505050565b7f4e487b7100000000000000000000000000000000000000000000000000000000600052603260045260246000fd5b7f4e487b7100000000000000000000000000000000000000000000000000000000600052601160045260246000fd5b600061275c82611b58565b91507fffffffffffffffffffffffffffffffffffffffffffffffffffffffffffffffff820361278e5761278d612722565b5b600182019050919050565b60006127a482611b58565b91506127af83611b58565b9250827fffffffffffffffffffffffffffffffffffffffffffffffffffffffffffffffff038211156127e4576127e3612722565b5b828201905092915050565b600082825260208201905092915050565b7f43616e206f6e6c79207570646174652073696c766572206f6e2073696c76657260008201527f2070726f647563696e6720706c616e6574000000000000000000000000000000602082015250565b600061285c6031836127ef565b915061286782612800565b604082019050919050565b6000602082019050818103600083015261288b8161284f565b9050919050565b600061289d82611b58565b91506128a883611b58565b9250828210156128bb576128ba612722565b5b828203905092915050565b60006128d182611b58565b91506128dc83611b58565b9250817fffffffffffffffffffffffffffffffffffffffffffffffffffffffffffffffff048311821515161561291557612914612722565b5b828202905092915050565b7f4e487b7100000000000000000000000000000000000000000000000000000000600052601260045260246000fd5b600061295a82611b58565b915061296583611b58565b92508261297557612974612920565b5b82820490509291505056fea2646970667358221220cd9f84b3fda304193300a344af03f9f1b4ba46c7ef647c4c65f75d952887201b64736f6c634300080d0033",
  "immutableReferences": {},
  "source": "// SPDX-License-Identifier: GPL-3.0\npragma solidity ^0.8.0;\n\n// Library imports\nimport {ABDKMath64x64} from \"../vendor/libraries/ABDKMath64x64.sol\";\n\n// Storage imports\nimport {LibStorage, GameStorage} from \"./LibStorage.sol\";\n\n// Type imports\nimport {\n    Planet,\n    PlanetExtendedInfo,\n    PlanetExtendedInfo2,\n    PlanetType,\n    PlanetEventMetadata,\n    PlanetEventType,\n    ArrivalData,\n    ArrivalType,\n    Artifact\n} from \"../DFTypes.sol\";\n\nlibrary LibLazyUpdate {\n    function gs() internal pure returns (GameStorage storage) {\n        return LibStorage.gameStorage();\n    }\n\n    function _updateSilver(\n        uint256 updateToTime,\n        Planet memory planet,\n        PlanetExtendedInfo memory planetExtendedInfo\n    ) private pure {\n        // This function should never be called directly and should only be called\n        // by the refresh planet function. This require is in place to make sure\n        // no one tries to updateSilver on non silver producing planet.\n        require(\n            planet.planetType == PlanetType.SILVER_MINE,\n            \"Can only update silver on silver producing planet\"\n        );\n        if (planet.owner == address(0)) {\n            // unowned planet doesn't gain silver\n            return;\n        }\n\n        if (planet.silver < planet.silverCap) {\n            uint256 _timeDiff = updateToTime - planetExtendedInfo.lastUpdated;\n            uint256 _silverMined = planet.silverGrowth * _timeDiff;\n\n            uint256 _maxSilver = planet.silverCap;\n            uint256 _currentSilver = planet.silver + _silverMined;\n            planet.silver = _maxSilver < _currentSilver ? _maxSilver : _currentSilver;\n        }\n    }\n\n    function _updatePopulation(\n        uint256 updateToTime,\n        Planet memory planet,\n        PlanetExtendedInfo memory planetExtendedInfo,\n        PlanetExtendedInfo2 memory planetExtendedInfo2\n    ) private pure {\n        if (planet.owner == address(0)) {\n            // unowned planet doesn't increase in population\n            return;\n        }\n\n        int128 _timeElapsed =\n            ABDKMath64x64.sub(\n                ABDKMath64x64.fromUInt(updateToTime),\n                ABDKMath64x64.fromUInt(planetExtendedInfo.lastUpdated)\n            );\n\n        int128 _one = ABDKMath64x64.fromUInt(1);\n\n        int128 _denominator =\n            ABDKMath64x64.add(\n                ABDKMath64x64.mul(\n                    ABDKMath64x64.exp(\n                        ABDKMath64x64.div(\n                            ABDKMath64x64.mul(\n                                ABDKMath64x64.mul(\n                                    ABDKMath64x64.fromInt(-4),\n                                    ABDKMath64x64.fromUInt(planet.populationGrowth)\n                                ),\n                                _timeElapsed\n                            ),\n                            ABDKMath64x64.fromUInt(planet.populationCap)\n                        )\n                    ),\n                    ABDKMath64x64.sub(\n                        ABDKMath64x64.div(\n                            ABDKMath64x64.fromUInt(planet.populationCap),\n                            ABDKMath64x64.fromUInt(planet.population)\n                        ),\n                        _one\n                    )\n                ),\n                _one\n            );\n\n        uint256 newPopulation =\n            ABDKMath64x64.toUInt(\n                ABDKMath64x64.div(ABDKMath64x64.fromUInt(planet.populationCap), _denominator)\n            );\n\n        // If paused, no energy growth\n        if (planetExtendedInfo2.pausers > 0 && newPopulation > planet.population) {\n            return;\n        }\n\n        planet.population = newPopulation;\n\n        // quasars have 0 energy growth, so they have 0 energy decay as well\n        // so don't allow them to become overful\n        if (planet.planetType == PlanetType.SILVER_BANK || planetExtendedInfo2.pausers > 0) {\n            if (planet.population > planet.populationCap) {\n                planet.population = planet.populationCap;\n            }\n        }\n    }\n\n    function updatePlanet(\n        uint256 updateToTime,\n        Planet memory planet,\n        PlanetExtendedInfo memory planetExtendedInfo,\n        PlanetExtendedInfo2 memory planetExtendedInfo2\n    )\n        public\n        pure\n        returns (\n            Planet memory,\n            PlanetExtendedInfo memory,\n            PlanetExtendedInfo2 memory\n        )\n    {\n        _updatePopulation(updateToTime, planet, planetExtendedInfo, planetExtendedInfo2);\n\n        if (planet.planetType == PlanetType.SILVER_MINE) {\n            _updateSilver(updateToTime, planet, planetExtendedInfo);\n        }\n\n        planetExtendedInfo.lastUpdated = updateToTime;\n\n        return (planet, planetExtendedInfo, planetExtendedInfo2);\n    }\n\n    // assumes that the planet last updated time is equal to the arrival time trigger\n    function applyArrival(\n        Planet memory planet,\n        PlanetExtendedInfo2 memory planetExtendedInfo2,\n        ArrivalData memory arrival\n    ) private pure returns (uint256 newArtifactOnPlanet, Planet memory) {\n        // checks whether the planet is owned by the player sending ships\n        if (arrival.player == planet.owner) {\n            // simply increase the population if so\n            planet.population = planet.population + arrival.popArriving;\n        } else {\n            if (arrival.arrivalType == ArrivalType.Wormhole) {\n                // if this is a wormhole arrival to a planet that isn't owned by the initiator of\n                // the move, then don't move any energy\n            } else if (planet.population > (arrival.popArriving * 100) / planet.defense) {\n                // handles if the planet population is bigger than the arriving ships\n                // simply reduce the amount of planet population by the arriving ships\n                planet.population =\n                    planet.population -\n                    ((arrival.popArriving * 100) / planet.defense);\n            } else {\n                // handles if the planet population is equal or less the arriving ships\n                // reduce the arriving ships amount with the current population and the\n                // result is the new population of the planet now owned by the attacking\n                // player\n\n                /**\n                  This is the zero address so that ships moving to an unowned planet with\n                  no barbarians don't cause the planet to be conquered by the ship's controller.\n                 */\n                planet.owner = arrival.player == address(0) ? planet.owner : arrival.player;\n                planet.population =\n                    arrival.popArriving -\n                    ((planet.population * planet.defense) / 100);\n                if (planet.population == 0) {\n                    // make sure pop is never 0\n                    planet.population = 1;\n                }\n            }\n        }\n\n        // quasars have 0 energy growth, so they have 0 energy decay as well\n        // so don't allow them to become overful\n        if (planet.planetType == PlanetType.SILVER_BANK || planetExtendedInfo2.pausers > 0) {\n            if (planet.population > planet.populationCap) {\n                planet.population = planet.populationCap;\n            }\n        }\n\n        uint256 _maxSilver = planet.silverCap;\n        uint256 _nextSilver = planet.silver + arrival.silverMoved;\n        planet.silver = _maxSilver < _nextSilver ? _maxSilver : _nextSilver;\n\n        return (arrival.carriedArtifactId, planet);\n    }\n\n    function applyPendingEvents(\n        uint256 currentTimestamp,\n        Planet memory planet,\n        PlanetExtendedInfo memory planetExtendedInfo,\n        PlanetExtendedInfo2 memory planetExtendedInfo2,\n        PlanetEventMetadata[] memory events\n    )\n        public\n        view\n        returns (\n            Planet memory,\n            PlanetExtendedInfo memory,\n            PlanetExtendedInfo2 memory,\n            uint256[24] memory\n        )\n    {\n        // first 12 are event ids to remove\n        // last 12 are artifact ids that are new on the planet\n        uint256[24] memory eventIdsAndArtifacts;\n\n        uint256 numEventsToRemove = 0;\n        uint256 numNewArtifactsOnPlanet = 0;\n        uint256 earliestEventTime = 0;\n        uint256 earliestEventIndex = 0;\n\n        do {\n            if (events.length == 0 || planetExtendedInfo.destroyed) {\n                break;\n            }\n\n            // set to to the upperbound of uint256\n            earliestEventTime = 115792089237316195423570985008687907853269984665640564039457584007913129639935;\n\n            // loops through the array and find the earliest event time that hasn't already been applied\n            for (uint256 i = 0; i < events.length; i++) {\n                if (events[i].timeTrigger < earliestEventTime) {\n                    bool shouldApply = true;\n\n                    // checks if this event has already been applied.\n                    for (\n                        uint256 alreadyRemovedIdx = 0;\n                        alreadyRemovedIdx < numEventsToRemove;\n                        alreadyRemovedIdx++\n                    ) {\n                        if (eventIdsAndArtifacts[alreadyRemovedIdx] == events[i].id) {\n                            shouldApply = false;\n                            break;\n                        }\n                    }\n\n                    if (shouldApply) {\n                        earliestEventTime = events[i].timeTrigger;\n                        earliestEventIndex = i;\n                    }\n                }\n            }\n\n            // only process the event if it occurs before the current time and the timeTrigger is not 0\n            // which comes from uninitialized PlanetEventMetadata\n            if (\n                events[earliestEventIndex].timeTrigger <= currentTimestamp &&\n                earliestEventTime !=\n                115792089237316195423570985008687907853269984665640564039457584007913129639935\n            ) {\n                (planet, planetExtendedInfo, planetExtendedInfo2) = updatePlanet(\n                    events[earliestEventIndex].timeTrigger,\n                    planet,\n                    planetExtendedInfo,\n                    planetExtendedInfo2\n                );\n\n                if (events[earliestEventIndex].eventType == PlanetEventType.ARRIVAL) {\n                    eventIdsAndArtifacts[numEventsToRemove++] = events[earliestEventIndex].id;\n\n                    uint256 newArtifactId;\n                    (newArtifactId, planet) = applyArrival(\n                        planet,\n                        planetExtendedInfo2,\n                        gs().planetArrivals[events[earliestEventIndex].id]\n                    );\n\n                    if (newArtifactId != 0) {\n                        eventIdsAndArtifacts[12 + numNewArtifactsOnPlanet++] = newArtifactId;\n                    }\n                }\n            }\n        } while (earliestEventTime <= currentTimestamp);\n\n        return (planet, planetExtendedInfo, planetExtendedInfo2, eventIdsAndArtifacts);\n    }\n}\n",
  "sourcePath": "/home/terra/opensource/tosca-chain/smart-contract-example/contracts/libraries/LibLazyUpdate.sol",
  "compiler": {
    "name": "solc",
    "version": "0.8.13+commit.abaa5c0e.Emscripten.clang"
  },
  "schemaVersion": "3.4.7",
  "updatedAt": "2022-04-30T15:27:25.905Z",
  "devdoc": {
    "kind": "dev",
    "methods": {},
    "version": 1
  },
  "userdoc": {
    "kind": "user",
    "methods": {},
    "version": 1
  }
}