{
  "contractName": "SignedOperationProxy",
  "abi": [
    {
      "constant": true,
      "inputs": [],
      "name": "SOLO_MARGIN",
      "outputs": [
        {
          "name": "",
          "type": "address"
        }
      ],
      "payable": false,
      "stateMutability": "view",
      "type": "function"
    },
    {
      "constant": true,
      "inputs": [
        {
          "name": "",
          "type": "bytes32"
        }
      ],
      "name": "g_invalidated",
      "outputs": [
        {
          "name": "",
          "type": "bool"
        }
      ],
      "payable": false,
      "stateMutability": "view",
      "type": "function"
    },
    {
      "constant": false,
      "inputs": [],
      "name": "renounceOwnership",
      "outputs": [],
      "payable": false,
      "stateMutability": "nonpayable",
      "type": "function"
    },
    {
      "constant": true,
      "inputs": [],
      "name": "owner",
      "outputs": [
        {
          "name": "",
          "type": "address"
        }
      ],
      "payable": false,
      "stateMutability": "view",
      "type": "function"
    },
    {
      "constant": true,
      "inputs": [],
      "name": "isOwner",
      "outputs": [
        {
          "name": "",
          "type": "bool"
        }
      ],
      "payable": false,
      "stateMutability": "view",
      "type": "function"
    },
    {
      "constant": true,
      "inputs": [],
      "name": "EIP712_DOMAIN_HASH",
      "outputs": [
        {
          "name": "",
          "type": "bytes32"
        }
      ],
      "payable": false,
      "stateMutability": "view",
      "type": "function"
    },
    {
      "constant": false,
      "inputs": [
        {
          "name": "newOwner",
          "type": "address"
        }
      ],
      "name": "transferOwnership",
      "outputs": [],
      "payable": false,
      "stateMutability": "nonpayable",
      "type": "function"
    },
    {
      "constant": true,
      "inputs": [],
      "name": "g_isOperational",
      "outputs": [
        {
          "name": "",
          "type": "bool"
        }
      ],
      "payable": false,
      "stateMutability": "view",
      "type": "function"
    },
    {
      "inputs": [
        {
          "name": "soloMargin",
          "type": "address"
        },
        {
          "name": "chainId",
          "type": "uint256"
        }
      ],
      "payable": false,
      "stateMutability": "nonpayable",
      "type": "constructor"
    },
    {
      "anonymous": false,
      "inputs": [
        {
          "indexed": false,
          "name": "operational",
          "type": "bool"
        }
      ],
      "name": "ContractStatusSet",
      "type": "event"
    },
    {
      "anonymous": false,
      "inputs": [
        {
          "indexed": true,
          "name": "operationHash",
          "type": "bytes32"
        },
        {
          "indexed": true,
          "name": "signer",
          "type": "address"
        },
        {
          "indexed": true,
          "name": "sender",
          "type": "address"
        }
      ],
      "name": "LogOperationExecuted",
      "type": "event"
    },
    {
      "anonymous": false,
      "inputs": [
        {
          "indexed": true,
          "name": "operationHash",
          "type": "bytes32"
        },
        {
          "indexed": true,
          "name": "canceler",
          "type": "address"
        }
      ],
      "name": "LogOperationCanceled",
      "type": "event"
    },
    {
      "anonymous": false,
      "inputs": [
        {
          "indexed": true,
          "name": "previousOwner",
          "type": "address"
        },
        {
          "indexed": true,
          "name": "newOwner",
          "type": "address"
        }
      ],
      "name": "OwnershipTransferred",
      "type": "event"
    },
    {
      "constant": false,
      "inputs": [],
      "name": "shutDown",
      "outputs": [],
      "payable": false,
      "stateMutability": "nonpayable",
      "type": "function"
    },
    {
      "constant": false,
      "inputs": [],
      "name": "startUp",
      "outputs": [],
      "payable": false,
      "stateMutability": "nonpayable",
      "type": "function"
    },
    {
      "constant": false,
      "inputs": [
        {
          "components": [
            {
              "name": "owner",
              "type": "address"
            },
            {
              "name": "number",
              "type": "uint256"
            }
          ],
          "name": "accounts",
          "type": "tuple[]"
        },
        {
          "components": [
            {
              "name": "actionType",
              "type": "uint8"
            },
            {
              "name": "accountId",
              "type": "uint256"
            },
            {
              "components": [
                {
                  "name": "sign",
                  "type": "bool"
                },
                {
                  "name": "denomination",
                  "type": "uint8"
                },
                {
                  "name": "ref",
                  "type": "uint8"
                },
                {
                  "name": "value",
                  "type": "uint256"
                }
              ],
              "name": "amount",
              "type": "tuple"
            },
            {
              "name": "primaryMarketId",
              "type": "uint256"
            },
            {
              "name": "secondaryMarketId",
              "type": "uint256"
            },
            {
              "name": "otherAddress",
              "type": "address"
            },
            {
              "name": "otherAccountId",
              "type": "uint256"
            },
            {
              "name": "data",
              "type": "bytes"
            }
          ],
          "name": "actions",
          "type": "tuple[]"
        },
        {
          "components": [
            {
              "name": "numActions",
              "type": "uint256"
            },
            {
              "components": [
                {
                  "name": "expiration",
                  "type": "uint256"
                },
                {
                  "name": "salt",
                  "type": "uint256"
                },
                {
                  "name": "sender",
                  "type": "address"
                },
                {
                  "name": "signer",
                  "type": "address"
                }
              ],
              "name": "header",
              "type": "tuple"
            },
            {
              "name": "signature",
              "type": "bytes"
            }
          ],
          "name": "auth",
          "type": "tuple"
        }
      ],
      "name": "cancel",
      "outputs": [],
      "payable": false,
      "stateMutability": "nonpayable",
      "type": "function"
    },
    {
      "constant": false,
      "inputs": [
        {
          "components": [
            {
              "name": "owner",
              "type": "address"
            },
            {
              "name": "number",
              "type": "uint256"
            }
          ],
          "name": "accounts",
          "type": "tuple[]"
        },
        {
          "components": [
            {
              "name": "actionType",
              "type": "uint8"
            },
            {
              "name": "accountId",
              "type": "uint256"
            },
            {
              "components": [
                {
                  "name": "sign",
                  "type": "bool"
                },
                {
                  "name": "denomination",
                  "type": "uint8"
                },
                {
                  "name": "ref",
                  "type": "uint8"
                },
                {
                  "name": "value",
                  "type": "uint256"
                }
              ],
              "name": "amount",
              "type": "tuple"
            },
            {
              "name": "primaryMarketId",
              "type": "uint256"
            },
            {
              "name": "secondaryMarketId",
              "type": "uint256"
            },
            {
              "name": "otherAddress",
              "type": "address"
            },
            {
              "name": "otherAccountId",
              "type": "uint256"
            },
            {
              "name": "data",
              "type": "bytes"
            }
          ],
          "name": "actions",
          "type": "tuple[]"
        },
        {
          "components": [
            {
              "name": "numActions",
              "type": "uint256"
            },
            {
              "components": [
                {
                  "name": "expiration",
                  "type": "uint256"
                },
                {
                  "name": "salt",
                  "type": "uint256"
                },
                {
                  "name": "sender",
                  "type": "address"
                },
                {
                  "name": "signer",
                  "type": "address"
                }
              ],
              "name": "header",
              "type": "tuple"
            },
            {
              "name": "signature",
              "type": "bytes"
            }
          ],
          "name": "auths",
          "type": "tuple[]"
        }
      ],
      "name": "operate",
      "outputs": [],
      "payable": false,
      "stateMutability": "nonpayable",
      "type": "function"
    },
    {
      "constant": true,
      "inputs": [
        {
          "name": "operationHashes",
          "type": "bytes32[]"
        }
      ],
      "name": "getOperationsAreInvalid",
      "outputs": [
        {
          "name": "",
          "type": "bool[]"
        }
      ],
      "payable": false,
      "stateMutability": "view",
      "type": "function"
    }
  ],
  "bytecode": "0x60806040523480156200001157600080fd5b506040516040806200364f8339810180604052620000339190810190620001de565b60008054600160a060020a03808516600160a060020a031992831617835560018054909216331791829055604051911691907f8be0079c531659141344cd1fd0a4f28419497f9722a3daafe3b4186f6b6457e0908290a36003805460ff19166001179055604051620000a890602001620003de565b60408051601f1981840301815290829052620000c791602001620003d0565b60408051601f1981840301815282825280516020918201208383018352601484527f5369676e65644f7065726174696f6e50726f78790000000000000000000000009382019390935281518083018352600381527f312e3100000000000000000000000000000000000000000000000000000000009082015290516200019792917fcefe97a0ba2f870a5405632ee9957acc8f7015bb8dbd346fb5ce3f06f3571dc3917f722c0e0c80487266e8c6a45e3a1a803aab23378a9c32e6ebe029d4fad7bfc96591869130910162000432565b604051602081830303815290604052805190602001206002819055505050620004e0565b6000620001c9825162000491565b9392505050565b6000620001c982516200049e565b60008060408385031215620001f257600080fd5b6000620002008585620001bb565b92505060206200021385828601620001d0565b9150509250929050565b620002288162000491565b82525050565b62000228816200049e565b6000620002468262000488565b6200025281856200048c565b935062000264818560208601620004ad565b9290920192915050565b60006200027d600c836200048c565b7f737472696e67206e616d652c00000000000000000000000000000000000000008152600c0192915050565b6000620002b86019836200048c565b7f6164647265737320766572696679696e67436f6e747261637400000000000000815260190192915050565b6000620002f36010836200048c565b7f75696e7432353620636861696e49642c00000000000000000000000000000000815260100192915050565b60006200032e6001836200048c565b7f2900000000000000000000000000000000000000000000000000000000000000815260010192915050565b600062000369600f836200048c565b7f737472696e672076657273696f6e2c00000000000000000000000000000000008152600f0192915050565b6000620003a4600d836200048c565b7f454950373132446f6d61696e28000000000000000000000000000000000000008152600d0192915050565b6000620001c9828462000239565b6000620003eb8262000395565b9150620003f8826200026e565b915062000405826200035a565b91506200041282620002e4565b91506200041f82620002a9565b91506200042c826200031f565b92915050565b60a081016200044282886200022e565b6200045160208301876200022e565b6200046060408301866200022e565b6200046f60608301856200022e565b6200047e60808301846200021d565b9695505050505050565b5190565b919050565b60006200042c82620004a1565b90565b600160a060020a031690565b60005b83811015620004ca578181015183820152602001620004b0565b83811115620004da576000848401525b50505050565b61315f80620004f06000396000f3fe608060405234801561001057600080fd5b50600436106100fc576000357c0100000000000000000000000000000000000000000000000000000000900480638da5cb5b116100a9578063baf7413f11610083578063baf7413f146101a9578063e306f779146101bc578063f2fde38b146101d1578063f72ac9cb146101e4576100fc565b80638da5cb5b146101795780638f32d59b1461018e5780639ef90ea214610196576100fc565b80633b84a304116100da5780633b84a304146101315780635b9ddfdc14610151578063715018a614610171576100fc565b806310b9e583146101015780631b1fe68a1461010b57806330e4a78414610129575b600080fd5b6101096101ec565b005b610113610260565b6040516101209190612f63565b60405180910390f35b61010961027c565b61014461013f3660046120b7565b6102e9565b6040516101209190612dc4565b61016461015f366004612228565b61038d565b6040516101209190612dfa565b6101096103a2565b610181610422565b6040516101209190612d80565b61016461043e565b6101096101a43660046120ec565b61045c565b6101096101b7366004612180565b6108dd565b6101c46109d6565b6040516101209190612e08565b6101096101df366004612099565b6109dc565b6101646109f9565b6101f461043e565b6101fd57600080fd5b600380547fffffffffffffffffffffffffffffffffffffffffffffffffffffffffffffff001690556040517f800e9acf7ef6d84d7bc26116f2ecb9d8fc6e4a2562cda6d1c411f66ea72054819061025690600090612dfa565b60405180910390a1565b60005473ffffffffffffffffffffffffffffffffffffffff1681565b61028461043e565b61028d57600080fd5b600380547fffffffffffffffffffffffffffffffffffffffffffffffffffffffffffffff001660019081179091556040517f800e9acf7ef6d84d7bc26116f2ecb9d8fc6e4a2562cda6d1c411f66ea72054819161025691612dfa565b606060008251905060608160405190808252806020026020018201604052801561031d578160200160208202803883390190505b50905060005b82811015610383576004600086838151811061033b57fe5b6020026020010151815260200190815260200160002060009054906101000a900460ff1682828151811061036b57fe5b91151560209283029190910190910152600101610323565b509150505b919050565b60046020526000908152604090205460ff1681565b6103aa61043e565b6103b357600080fd5b60015460405160009173ffffffffffffffffffffffffffffffffffffffff16907f8be0079c531659141344cd1fd0a4f28419497f9722a3daafe3b4186f6b6457e0908390a3600180547fffffffffffffffffffffffff0000000000000000000000000000000000000000169055565b60015473ffffffffffffffffffffffffffffffffffffffff1690565b60015473ffffffffffffffffffffffffffffffffffffffff16331490565b6003546104ad9060ff167f5369676e65644f7065726174696f6e50726f78790000000000000000000000007f436f6e7472616374206973206e6f74206f7065726174696f6e616c0000000000610a02565b6000805b82518110156107fe576104c2611ad5565b8382815181106104ce57fe5b6020026020010151905061053f816020015160000151600014806104f757506020820151514211155b7f5369676e65644f7065726174696f6e50726f78790000000000000000000000007f5369676e6564206f7065726174696f6e2069732065787069726564000000000085610a9a565b6020810151604001516105d39073ffffffffffffffffffffffffffffffffffffffff16158061058b575060208201516040015173ffffffffffffffffffffffffffffffffffffffff1633145b7f5369676e65644f7065726174696f6e50726f78790000000000000000000000007f4f7065726174696f6e2073656e646572206d69736d617463680000000000000085610a9a565b60408101515133901561075b5760006105ee88888588610b38565b6000818152600460205260409020549091506106509060ff16157f5369676e65644f7065726174696f6e50726f78790000000000000000000000007f4861736820616c72656164792075736564206f722063616e63656c656400000084610c53565b61065e818460400151610cb5565b91506106e18273ffffffffffffffffffffffffffffffffffffffff1684602001516060015173ffffffffffffffffffffffffffffffffffffffff16147f5369676e65644f7065726174696f6e50726f78790000000000000000000000007f496e76616c6964207369676e6174757265000000000000000000000000000000610a02565b60008181526004602052604080822080547fffffffffffffffffffffffffffffffffffffffffffffffffffffffffffffff0016600117905551339173ffffffffffffffffffffffffffffffffffffffff85169184917fc567efce0a7476d41074b5c204ed0e44fd548b306cf1dc0c27b8cfac27bc0c2d91a4505b815160009061077190869063ffffffff610ee816565b9050845b818110156107f157610785611afc565b88828151811061079157fe5b602002602001015190506107c08a8260200151815181106107ae57fe5b60200260200101516000015185610f01565b6002815160088111156107cf57fe5b14156107e8576107e88a8260c00151815181106107ae57fe5b50600101610775565b50935050506001016104b1565b5061084d835182147f5369676e65644f7065726174696f6e50726f78790000000000000000000000007f4e6f7420616c6c20616374696f6e7320617265207369676e6564000000000000610a02565b6000546040517fa67a6a4500000000000000000000000000000000000000000000000000000000815273ffffffffffffffffffffffffffffffffffffffff9091169063a67a6a45906108a59087908790600401612dd5565b600060405180830381600087803b1580156108bf57600080fd5b505af11580156108d3573d6000803e3d6000fd5b5050505050505050565b60006108ec8484846000610b38565b905061096f3373ffffffffffffffffffffffffffffffffffffffff1683602001516060015173ffffffffffffffffffffffffffffffffffffffff16147f5369676e65644f7065726174696f6e50726f78790000000000000000000000007f43616e63656c6572206d757374206265207369676e6572000000000000000000610a02565b60008181526004602052604080822080547fffffffffffffffffffffffffffffffffffffffffffffffffffffffffffffff0016600117905551339183917feb98d4ec98d06fd7735ff893b47d492a6f12700b6093a6c5bd5a932608727afb9190a350505050565b60025481565b6109e461043e565b6109ed57600080fd5b6109f6816110fc565b50565b60035460ff1681565b82610a9557610a10826111aa565b7f3a20000000000000000000000000000000000000000000000000000000000000610a3a836111aa565b604051602001610a4c93929190612b9f565b60408051601f19818403018152908290527f08c379a0000000000000000000000000000000000000000000000000000000008252610a8c91600401612f71565b60405180910390fd5b505050565b83610b3257610aa8836111aa565b7f3a20000000000000000000000000000000000000000000000000000000000000610ad2846111aa565b7f203c000000000000000000000000000000000000000000000000000000000000610afc85611287565b604051610a4c9594939291907f3e0000000000000000000000000000000000000000000000000000000000000090602001612bc7565b50505050565b600080610b47868686866113b5565b90506000604051602001610b5a90612c83565b604051602081830303815290604052604051602001610b7890612cd0565b604051602081830303815290604052604051602001610b9690612d49565b60408051601f1981840301815290829052610bb5939291602001612c5f565b60405160208183030381529060405280519060200120828660200151604051602001610be393929190612e62565b60408051601f19818403018152908290528051602091820120600254909350610c30927f190100000000000000000000000000000000000000000000000000000000000092859101612b47565b60405160208183030381529060405280519060200120925050505b949350505050565b83610b3257610c61836111aa565b7f3a20000000000000000000000000000000000000000000000000000000000000610c8b846111aa565b7f203c000000000000000000000000000000000000000000000000000000000000610afc856114e5565b6000610d0660428351147f54797065645369676e61747572650000000000000000000000000000000000007f496e76616c6964207369676e6174757265206c656e6774680000000000000000610a02565b602082015160408301516060840151600081901a9060011a610d6c600382107f54797065645369676e61747572650000000000000000000000000000000000007f496e76616c6964207369676e6174757265207479706500000000000000000000610a02565b60008160ff166003811115610d7d57fe5b9050600080826003811115610d8e57fe5b1415610d9b575087610e8a565b6001826003811115610da957fe5b1415610e14576040518060400160405280601c81526020017f19457468657265756d205369676e6564204d6573736167653a0a33320000000081525089604051602001610df7929190612c25565b604051602081830303815290604052805190602001209050610e8a565b6002826003811115610e2257fe5b14610e2957fe5b6040518060400160405280601b81526020017f19457468657265756d205369676e6564204d6573736167653a0a20000000000081525089604051602001610e71929190612c25565b6040516020818303038152906040528051906020012090505b60018185888860405160008152602001604052604051610ead9493929190612f2e565b6020604051602081039080840390855afa158015610ecf573d6000803e3d6000fd5b5050506020604051035196505050505050505b92915050565b600082820183811015610efa57600080fd5b9392505050565b60003373ffffffffffffffffffffffffffffffffffffffff84161480610f5257508273ffffffffffffffffffffffffffffffffffffffff168273ffffffffffffffffffffffffffffffffffffffff16145b8061100057506000546040517f3a031bf000000000000000000000000000000000000000000000000000000000815273ffffffffffffffffffffffffffffffffffffffff90911690633a031bf090610fb09086903390600401612da9565b60206040518083038186803b158015610fc857600080fd5b505afa158015610fdc573d6000803e3d6000fd5b505050506040513d601f19601f82011682018060405250611000919081019061220a565b806110ae57506000546040517f3a031bf000000000000000000000000000000000000000000000000000000000815273ffffffffffffffffffffffffffffffffffffffff90911690633a031bf09061105e9086908690600401612d8e565b60206040518083038186803b15801561107657600080fd5b505afa15801561108a573d6000803e3d6000fd5b505050506040513d601f19601f820116820180604052506110ae919081019061220a565b9050610a95817f5369676e65644f7065726174696f6e50726f78790000000000000000000000007f5369676e6572206e6f7420617574686f72697a6564000000000000000000000085611684565b73ffffffffffffffffffffffffffffffffffffffff811661111c57600080fd5b60015460405173ffffffffffffffffffffffffffffffffffffffff8084169216907f8be0079c531659141344cd1fd0a4f28419497f9722a3daafe3b4186f6b6457e090600090a3600180547fffffffffffffffffffffffff00000000000000000000000000000000000000001673ffffffffffffffffffffffffffffffffffffffff92909216919091179055565b606080826040516020016111be9190612b7e565b60408051601f19818403018152919052905060205b80156112705781517fffffffffffffffffffffffffffffffffffffffffffffffffffffffffffffffff9091019082908290811061120c57fe5b6020910101517f010000000000000000000000000000000000000000000000000000000000000090819004027fff00000000000000000000000000000000000000000000000000000000000000161561126b5760010181529050610388565b6111d3565b505060408051600081526020810190915292915050565b6060816112c8575060408051808201909152600181527f30000000000000000000000000000000000000000000000000000000000000006020820152610388565b8160005b81156112e057600101600a820491506112cc565b6060816040519080825280601f01601f19166020018201604052801561130d576020820181803883390190505b508593509050815b80156113ac577fffffffffffffffffffffffffffffffffffffffffffffffffffffffffffffffff01600a84066030017f01000000000000000000000000000000000000000000000000000000000000000282828151811061137257fe5b60200101907effffffffffffffffffffffffffffffffffffffffffffffffffffffffffffff1916908160001a905350600a84049350611315565b50949350505050565b6000606083600001516040519080825280602002602001820160405280156113e7578160200160208202803883390190505b50905060005b84518110156114b2576113fe611afc565b868286018151811061140c57fe5b6020026020010151905061141e611b5b565b6000825161142b906116e6565b600281111561143657fe5b1461145857888260c001518151811061144b57fe5b602002602001015161146d565b60408051808201909152600080825260208201525b9050611491828a84602001518151811061148357fe5b602002602001015183611754565b84848151811061149d57fe5b602090810291909101015250506001016113ed565b50806040516020016114c49190612b3b565b60405160208183030381529060405280519060200120915050949350505050565b604080516042808252608082019092526060918391839160208201818038833901905050905060307f0100000000000000000000000000000000000000000000000000000000000000028160008151811061153c57fe5b60200101907effffffffffffffffffffffffffffffffffffffffffffffffffffffffffffff1916908160001a90535060787f0100000000000000000000000000000000000000000000000000000000000000028160018151811061159c57fe5b60200101907effffffffffffffffffffffffffffffffffffffffffffffffffffffffffffff1916908160001a90535060005b602081101561038357600281026115e7600f8516611839565b8382604103815181106115f657fe5b60200101907effffffffffffffffffffffffffffffffffffffffffffffffffffffffffffff1916908160001a905350601090930492611637600f8516611839565b83826040038151811061164657fe5b60200101907effffffffffffffffffffffffffffffffffffffffffffffffffffffffffffff1916908160001a905350506010909204916001016115ce565b83610b3257611692836111aa565b7f3a200000000000000000000000000000000000000000000000000000000000006116bc846111aa565b7f203c000000000000000000000000000000000000000000000000000000000000610afc85611899565b600060028260088111156116f657fe5b148061170d5750600582600881111561170b57fe5b145b1561171a57506001610388565b600682600881111561172857fe5b148061173f5750600782600881111561173d57fe5b145b1561174c57506002610388565b506000919050565b600060405160200161176590612cd0565b60405160208183030381529060405260405160200161178390612d49565b60408051601f19818403018152908290526117a19291602001612c47565b604051602081830303815290604052805190602001208460000151846000015185602001516117d38860400151611a4c565b606089015160808a015160a08b0151895160208b015160e08e01516040516117fb9190612b93565b60405190819003812061181a9b9a999897969594939291602001612e8a565b6040516020818303038152906040528051906020012090509392505050565b6000600a82101561187057507f01000000000000000000000000000000000000000000000000000000000000006030820102610388565b506057017f01000000000000000000000000000000000000000000000000000000000000000290565b60408051602a808252606082810190935273ffffffffffffffffffffffffffffffffffffffff841691839160208201818038833901905050905060307f0100000000000000000000000000000000000000000000000000000000000000028160008151811061190457fe5b60200101907effffffffffffffffffffffffffffffffffffffffffffffffffffffffffffff1916908160001a90535060787f0100000000000000000000000000000000000000000000000000000000000000028160018151811061196457fe5b60200101907effffffffffffffffffffffffffffffffffffffffffffffffffffffffffffff1916908160001a90535060005b601481101561038357600281026119af600f8516611839565b8382602903815181106119be57fe5b60200101907effffffffffffffffffffffffffffffffffffffffffffffffffffffffffffff1916908160001a9053506010909304926119ff600f8516611839565b838260280381518110611a0e57fe5b60200101907effffffffffffffffffffffffffffffffffffffffffffffffffffffffffffff1916908160001a90535050601090920491600101611996565b6000604051602001611a5d90612d49565b60408051601f1981840301815290829052611a7a91602001612b93565b604051602081830303815290604052805190602001208260000151836020015184604001518560600151604051602001611ab8959493929190612e16565b604051602081830303815290604052805190602001209050919050565b6040518060c0016040528060008152602001611aef611b72565b8152602001606081525090565b604080516101608101825260008082526020820152908101611b1c611bc6565b81526020016000815260200160008152602001600073ffffffffffffffffffffffffffffffffffffffff16815260200160008152602001606081525090565b604080518082019091526000808252602082015290565b60405180608001604052806000815260200160008152602001600073ffffffffffffffffffffffffffffffffffffffff168152602001600073ffffffffffffffffffffffffffffffffffffffff1681525090565b604080516080810190915260008082526020820190815260200160008152602001600081525090565b6000610efa8235613005565b600082601f830112611c0c57600080fd5b8135611c1f611c1a82612fa9565b612f82565b91508181835260208401935060208101905083856020840282011115611c4457600080fd5b60005b83811015611c705781611c5a8882611dbe565b8452506020928301929190910190600101611c47565b5050505092915050565b600082601f830112611c8b57600080fd5b8135611c99611c1a82612fa9565b81815260209384019390925082018360005b83811015611c705781358601611cc18882611e31565b8452506020928301929190910190600101611cab565b600082601f830112611ce857600080fd5b8135611cf6611c1a82612fa9565b81815260209384019390925082018360005b83811015611c705781358601611d1e8882611f7c565b8452506020928301929190910190600101611d08565b600082601f830112611d4557600080fd5b8135611d53611c1a82612fa9565b91508181835260208401935060208101905083856040840282011115611d7857600080fd5b60005b83811015611c705781611d8e8882611fef565b84525060209092019160409190910190600101611d7b565b6000610efa8235613010565b6000610efa8251613010565b6000610efa823561305f565b600082601f830112611ddb57600080fd5b8135611de9611c1a82612fca565b91508082526020830160208301858383011115611e0557600080fd5b611e108382846130e3565b50505092915050565b6000610efa823561309d565b6000610efa82356130ac565b60006101608284031215611e4457600080fd5b611e4f610100612f82565b90506000611e5d8484611e19565b8252506020611e6e84848301611dbe565b6020830152506040611e8284828501611f0d565b60408301525060c0611e9684828501611dbe565b60608301525060e0611eaa84828501611dbe565b608083015250610100611ebf84828501611bef565b60a083015250610120611ed484828501611dbe565b60c08301525061014082013567ffffffffffffffff811115611ef557600080fd5b611f0184828501611dca565b60e08301525092915050565b600060808284031215611f1f57600080fd5b611f296080612f82565b90506000611f378484611da6565b8252506020611f4884848301611e25565b6020830152506040611f5c84828501611e25565b6040830152506060611f7084828501611dbe565b60608301525092915050565b600060c08284031215611f8e57600080fd5b611f986060612f82565b90506000611fa68484611dbe565b8252506020611fb784848301612036565b60208301525060a082013567ffffffffffffffff811115611fd757600080fd5b611fe384828501611dca565b60408301525092915050565b60006040828403121561200157600080fd5b61200b6040612f82565b905060006120198484611bef565b825250602061202a84848301611dbe565b60208301525092915050565b60006080828403121561204857600080fd5b6120526080612f82565b905060006120608484611dbe565b825250602061207184848301611dbe565b602083015250604061208584828501611bef565b6040830152506060611f7084828501611bef565b6000602082840312156120ab57600080fd5b6000610c4b8484611bef565b6000602082840312156120c957600080fd5b813567ffffffffffffffff8111156120e057600080fd5b610c4b84828501611bfb565b60008060006060848603121561210157600080fd5b833567ffffffffffffffff81111561211857600080fd5b61212486828701611d34565b935050602084013567ffffffffffffffff81111561214157600080fd5b61214d86828701611c7a565b925050604084013567ffffffffffffffff81111561216a57600080fd5b61217686828701611cd7565b9150509250925092565b60008060006060848603121561219557600080fd5b833567ffffffffffffffff8111156121ac57600080fd5b6121b886828701611d34565b935050602084013567ffffffffffffffff8111156121d557600080fd5b6121e186828701611c7a565b925050604084013567ffffffffffffffff8111156121fe57600080fd5b61217686828701611f7c565b60006020828403121561221c57600080fd5b6000610c4b8484611db2565b60006020828403121561223a57600080fd5b6000610c4b8484611dbe565b600061225283836123f3565b505060200190565b60006122528383612419565b6000610efa83836129cf565b600061227e8383612ac4565b505060400190565b61228f816130bb565b82525050565b61228f81613005565b60006122a982612ff8565b6122b38185612ffc565b93506122be83612ff2565b60005b828110156122e9576122d4868351612246565b95506122df82612ff2565b91506001016122c1565b5093949350505050565b60006122fe82612ff8565b6123088185610388565b935061231383612ff2565b60005b828110156122e95761232986835161225a565b955061233482612ff2565b9150600101612316565b600061234982612ff8565b6123538185612ffc565b93508360208202850161236585612ff2565b60005b8481101561239c578383038852612380838351612266565b925061238b82612ff2565b602098909801979150600101612368565b50909695505050505050565b60006123b382612ff8565b6123bd8185612ffc565b93506123c883612ff2565b60005b828110156122e9576123de868351612272565b95506123e982612ff2565b91506001016123cb565b61228f81613010565b61228f61240882613015565b61305f565b61228f6124088261303a565b61228f8161305f565b61228f6124088261305f565b600061243982612ff8565b6124438185610388565b93506124538185602086016130ef565b9290920192915050565b600061246882612ff8565b6124728185612ffc565b93506124828185602086016130ef565b61248b8161311b565b9093019392505050565b61228f816130c2565b61228f816130cd565b61228f816130d8565b60006124bd601383610388565b7f75696e74382064656e6f6d696e6174696f6e2c00000000000000000000000000815260130192915050565b60006124f6600f83610388565b7f616464726573732073656e6465722c00000000000000000000000000000000008152600f0192915050565b600061252f600a83610388565b7f4f7065726174696f6e28000000000000000000000000000000000000000000008152600a0192915050565b6000612568601183610388565b7f416374696f6e5b5d20616374696f6e732c000000000000000000000000000000815260110192915050565b60006125a1600a83610388565b7f626f6f6c207369676e2c000000000000000000000000000000000000000000008152600a0192915050565b60006125da601883610388565b7f75696e74323536207072696d6172794d61726b657449642c0000000000000000815260180192915050565b6000612613600d83610388565b7f75696e743235362076616c7565000000000000000000000000000000000000008152600d0192915050565b600061264c600183610388565b7f2900000000000000000000000000000000000000000000000000000000000000815260010192915050565b6000612685600783610388565b7f416374696f6e2800000000000000000000000000000000000000000000000000815260070192915050565b60006126be601b83610388565b7f75696e74323536206f746865724163636f756e744e756d6265722c00000000008152601b0192915050565b60006126f7600c83610388565b7f4173736574416d6f756e742800000000000000000000000000000000000000008152600c0192915050565b6000612730601a83610388565b7f61646472657373206f746865724163636f756e744f776e65722c0000000000008152601a0192915050565b6000612769600d83610388565b7f75696e743235362073616c742c000000000000000000000000000000000000008152600d0192915050565b60006127a2601583610388565b7f61646472657373206163636f756e744f776e65722c0000000000000000000000815260150192915050565b60006127db600e83610388565b7f61646472657373207369676e65720000000000000000000000000000000000008152600e0192915050565b6000612814600a83610388565b7f62797465732064617461000000000000000000000000000000000000000000008152600a0192915050565b600061284d600a83610388565b7f75696e7438207265662c000000000000000000000000000000000000000000008152600a0192915050565b6000612886601883610388565b7f4173736574416d6f756e74206173736574416d6f756e742c0000000000000000815260180192915050565b60006128bf601383610388565b7f75696e743235362065787069726174696f6e2c00000000000000000000000000815260130192915050565b60006128f8601683610388565b7f75696e74323536206163636f756e744e756d6265722c00000000000000000000815260160192915050565b6000612931601183610388565b7f75696e743820616374696f6e547970652c000000000000000000000000000000815260110192915050565b600061296a601583610388565b7f61646472657373206f74686572416464726573732c0000000000000000000000815260150192915050565b60006129a3601a83610388565b7f75696e74323536207365636f6e646172794d61726b657449642c0000000000008152601a0192915050565b80516000906101608401906129e4858261249e565b5060208301516129f76020860182612419565b506040830151612a0a6040860182612a7a565b506060830151612a1d60c0860182612419565b506080830151612a3060e0860182612419565b5060a0830151612a44610100860182612295565b5060c0830151612a58610120860182612419565b5060e0830151848203610140860152612a71828261245d565b95945050505050565b80516080830190612a8b84826123f3565b506020820151612a9e60208501826124a7565b506040820151612ab160408501826124a7565b506060820151610b326060850182612419565b80516040830190612ad58482612295565b506020820151610b326020850182612419565b80516080830190612af98482612419565b506020820151612b0c6020850182612419565b506040820151612b1f6040850182612295565b506060820151610b326060850182612295565b61228f81613097565b6000610efa82846122f3565b6000612b53828661240d565b600282019150612b638285612422565b602082019150612b738284612422565b506020019392505050565b6000612b8a8284612422565b50602001919050565b6000610efa828461242e565b6000612bab828661242e565b9150612bb7828561240d565b600282019150612a71828461242e565b6000612bd3828961242e565b9150612bdf828861240d565b600282019150612bef828761242e565b9150612bfb828661240d565b600282019150612c0b828561242e565b9150612c1782846123fc565b506001019695505050505050565b6000612c31828561242e565b9150612c3d8284612422565b5060200192915050565b6000612c53828561242e565b9150610c4b828461242e565b6000612c6b828661242e565b9150612c77828561242e565b9150612a71828461242e565b6000612c8e82612522565b9150612c998261255b565b9150612ca4826128b2565b9150612caf8261275c565b9150612cba826124e9565b9150612cc5826127ce565b9150610ee28261263f565b6000612cdb82612678565b9150612ce682612924565b9150612cf182612795565b9150612cfc826128eb565b9150612d0782612879565b9150612d12826125cd565b9150612d1d82612996565b9150612d288261295d565b9150612d3382612723565b9150612d3e826126b1565b9150612cc582612807565b6000612d54826126ea565b9150612d5f82612594565b9150612d6a826124b0565b9150612d7582612840565b9150612cc582612606565b60208101610ee28284612295565b60408101612d9c8285612295565b610efa6020830184612295565b60408101612db78285612295565b610efa6020830184612286565b60208082528101610efa818461229e565b60408082528101612de681856123a8565b90508181036020830152610c4b818461233e565b60208101610ee282846123f3565b60208101610ee28284612419565b60a08101612e248288612419565b612e3160208301876123f3565b612e3e60408301866124a7565b612e4b60608301856124a7565b612e586080830184612419565b9695505050505050565b60c08101612e708286612419565b612e7d6020830185612419565b610c4b6040830184612ae8565b6101608101612e99828e612419565b612ea6602083018d61249e565b612eb3604083018c612295565b612ec0606083018b612419565b612ecd608083018a612419565b612eda60a0830189612419565b612ee760c0830188612419565b612ef460e0830187612295565b612f02610100830186612295565b612f10610120830185612419565b612f1e610140830184612419565b9c9b505050505050505050505050565b60808101612f3c8287612419565b612f496020830186612b32565b612f566040830185612419565b612a716060830184612419565b60208101610ee28284612495565b60208082528101610efa818461245d565b60405181810167ffffffffffffffff81118282101715612fa157600080fd5b604052919050565b600067ffffffffffffffff821115612fc057600080fd5b5060209081020190565b600067ffffffffffffffff821115612fe157600080fd5b506020601f91909101601f19160190565b60200190565b5190565b90815260200190565b6000610ee28261307e565b151590565b7fff000000000000000000000000000000000000000000000000000000000000001690565b7fffff0000000000000000000000000000000000000000000000000000000000001690565b90565b60006009821061306e57fe5b5090565b60006002821061306e57fe5b73ffffffffffffffffffffffffffffffffffffffff1690565b60ff1690565b60006009821061306e57600080fd5b60006002821061306e57600080fd5b6000610ee2825b6000610ee282613005565b6000610ee282613062565b6000610ee282613072565b82818337506000910152565b60005b8381101561310a5781810151838201526020016130f2565b83811115610b325750506000910152565b601f01601f19169056fea265627a7a72305820e4778cbd187f0575bceb92db1fdd6c044d7de2d70655fb1c92be0ab4f4ba6b8e6c6578706572696d656e74616cf50037",
  "source": "/*\n\n    Copyright 2019 dYdX Trading Inc.\n\n    Licensed under the Apache License, Version 2.0 (the \"License\");\n    you may not use this file except in compliance with the License.\n    You may obtain a copy of the License at\n\n    http://www.apache.org/licenses/LICENSE-2.0\n\n    Unless required by applicable law or agreed to in writing, software\n    distributed under the License is distributed on an \"AS IS\" BASIS,\n    WITHOUT WARRANTIES OR CONDITIONS OF ANY KIND, either express or implied.\n    See the License for the specific language governing permissions and\n    limitations under the License.\n\n*/\n\npragma solidity 0.5.7;\npragma experimental ABIEncoderV2;\n\nimport { SafeMath } from \"openzeppelin-solidity/contracts/math/SafeMath.sol\";\nimport { Ownable } from \"openzeppelin-solidity/contracts/ownership/Ownable.sol\";\nimport { Account } from \"../../protocol/lib/Account.sol\";\nimport { Actions } from \"../../protocol/lib/Actions.sol\";\nimport { Require } from \"../../protocol/lib/Require.sol\";\nimport { Types } from \"../../protocol/lib/Types.sol\";\nimport { OnlySolo } from \"../helpers/OnlySolo.sol\";\nimport { TypedSignature } from \"../lib/TypedSignature.sol\";\n\n\n/**\n * @title SignedOperationProxy\n * @author dYdX\n *\n * Contract for sending operations on behalf of others\n */\ncontract SignedOperationProxy is\n    OnlySolo,\n    Ownable\n{\n    using SafeMath for uint256;\n\n    // ============ Constants ============\n\n    bytes32 constant private FILE = \"SignedOperationProxy\";\n\n    // EIP191 header for EIP712 prefix\n    bytes2 constant private EIP191_HEADER = 0x1901;\n\n    // EIP712 Domain Name value\n    string constant private EIP712_DOMAIN_NAME = \"SignedOperationProxy\";\n\n    // EIP712 Domain Version value\n    string constant private EIP712_DOMAIN_VERSION = \"1.1\";\n\n    // EIP712 encodeType of EIP712Domain\n    bytes constant private EIP712_DOMAIN_STRING = abi.encodePacked(\n        \"EIP712Domain(\",\n        \"string name,\",\n        \"string version,\",\n        \"uint256 chainId,\",\n        \"address verifyingContract\",\n        \")\"\n    );\n\n    // EIP712 encodeType of Operation\n    bytes constant private EIP712_OPERATION_STRING = abi.encodePacked(\n        \"Operation(\",\n        \"Action[] actions,\",\n        \"uint256 expiration,\",\n        \"uint256 salt,\",\n        \"address sender,\",\n        \"address signer\",\n        \")\"\n    );\n\n    // EIP712 encodeType of Action\n    bytes constant private EIP712_ACTION_STRING = abi.encodePacked(\n        \"Action(\",\n        \"uint8 actionType,\",\n        \"address accountOwner,\",\n        \"uint256 accountNumber,\",\n        \"AssetAmount assetAmount,\",\n        \"uint256 primaryMarketId,\",\n        \"uint256 secondaryMarketId,\",\n        \"address otherAddress,\",\n        \"address otherAccountOwner,\",\n        \"uint256 otherAccountNumber,\",\n        \"bytes data\",\n        \")\"\n    );\n\n    // EIP712 encodeType of AssetAmount\n    bytes constant private EIP712_ASSET_AMOUNT_STRING = abi.encodePacked(\n        \"AssetAmount(\",\n        \"bool sign,\",\n        \"uint8 denomination,\",\n        \"uint8 ref,\",\n        \"uint256 value\",\n        \")\"\n    );\n\n    // EIP712 typeHash of EIP712Domain\n    /* solium-disable-next-line indentation */\n    bytes32 constant private EIP712_DOMAIN_SEPARATOR_SCHEMA_HASH = keccak256(abi.encodePacked(\n        EIP712_DOMAIN_STRING\n    ));\n\n    // EIP712 typeHash of Operation\n    /* solium-disable-next-line indentation */\n    bytes32 constant private EIP712_OPERATION_HASH = keccak256(abi.encodePacked(\n        EIP712_OPERATION_STRING,\n        EIP712_ACTION_STRING,\n        EIP712_ASSET_AMOUNT_STRING\n    ));\n\n    // EIP712 typeHash of Action\n    /* solium-disable-next-line indentation */\n    bytes32 constant private EIP712_ACTION_HASH = keccak256(abi.encodePacked(\n        EIP712_ACTION_STRING,\n        EIP712_ASSET_AMOUNT_STRING\n    ));\n\n    // EIP712 typeHash of AssetAmount\n    /* solium-disable-next-line indentation */\n    bytes32 constant private EIP712_ASSET_AMOUNT_HASH = keccak256(abi.encodePacked(\n        EIP712_ASSET_AMOUNT_STRING\n    ));\n\n    // ============ Structs ============\n\n    struct OperationHeader {\n        uint256 expiration;\n        uint256 salt;\n        address sender;\n        address signer;\n    }\n\n    struct Authorization {\n        uint256 numActions;\n        OperationHeader header;\n        bytes signature;\n    }\n\n    // ============ Events ============\n\n    event ContractStatusSet(\n        bool operational\n    );\n\n    event LogOperationExecuted(\n        bytes32 indexed operationHash,\n        address indexed signer,\n        address indexed sender\n    );\n\n    event LogOperationCanceled(\n        bytes32 indexed operationHash,\n        address indexed canceler\n    );\n\n    // ============ Immutable Storage ============\n\n    // Hash of the EIP712 Domain Separator data\n    bytes32 public EIP712_DOMAIN_HASH;\n\n    // ============ Mutable Storage ============\n\n     // true if this contract can process operationss\n    bool public g_isOperational;\n\n    // operation hash => was executed (or canceled)\n    mapping (bytes32 => bool) public g_invalidated;\n\n    // ============ Constructor ============\n\n    constructor (\n        address soloMargin,\n        uint256 chainId\n    )\n        public\n        OnlySolo(soloMargin)\n    {\n        g_isOperational = true;\n\n        /* solium-disable-next-line indentation */\n        EIP712_DOMAIN_HASH = keccak256(abi.encode(\n            EIP712_DOMAIN_SEPARATOR_SCHEMA_HASH,\n            keccak256(bytes(EIP712_DOMAIN_NAME)),\n            keccak256(bytes(EIP712_DOMAIN_VERSION)),\n            chainId,\n            address(this)\n        ));\n    }\n\n    // ============ Admin Functions ============\n\n     /**\n     * The owner can shut down the exchange.\n     */\n    function shutDown()\n        external\n        onlyOwner\n    {\n        g_isOperational = false;\n        emit ContractStatusSet(false);\n    }\n\n     /**\n     * The owner can start back up the exchange.\n     */\n    function startUp()\n        external\n        onlyOwner\n    {\n        g_isOperational = true;\n        emit ContractStatusSet(true);\n    }\n\n    // ============ Public Functions ============\n\n    /**\n     * Allows a signer to permanently cancel an operation on-chain.\n     *\n     * @param  accounts  The accounts involved in the operation\n     * @param  actions   The actions involved in the operation\n     * @param  auth      The unsigned authorization of the operation\n     */\n    function cancel(\n        Account.Info[] memory accounts,\n        Actions.ActionArgs[] memory actions,\n        Authorization memory auth\n    )\n        public\n    {\n        bytes32 operationHash = getOperationHash(\n            accounts,\n            actions,\n            auth,\n            0\n        );\n        Require.that(\n            auth.header.signer == msg.sender,\n            FILE,\n            \"Canceler must be signer\"\n        );\n        g_invalidated[operationHash] = true;\n        emit LogOperationCanceled(operationHash, msg.sender);\n    }\n\n    /**\n     * Submits an operation to SoloMargin. Actions for accounts that the msg.sender does not control\n     * must be authorized by a signed message. Each authorization can apply to multiple actions at\n     * once which must occur in-order next to each other. An empty authorization must be supplied\n     * explicitly for each group of actions that do not require a signed message.\n     *\n     * @param  accounts  The accounts to forward to SoloMargin.operate()\n     * @param  actions   The actions to forward to SoloMargin.operate()\n     * @param  auths     The signed authorizations for each group of actions\n     *                   (or unsigned if msg.sender is already authorized)\n     */\n    function operate(\n        Account.Info[] memory accounts,\n        Actions.ActionArgs[] memory actions,\n        Authorization[] memory auths\n    )\n        public\n    {\n        Require.that(\n            g_isOperational,\n            FILE,\n            \"Contract is not operational\"\n        );\n\n        // cache the index of the first action for this auth\n        uint256 actionStartIdx = 0;\n\n        // loop over all auths\n        for (uint256 authIdx = 0; authIdx < auths.length; authIdx++) {\n            Authorization memory auth = auths[authIdx];\n\n            // require that the message is not expired\n            Require.that(\n                auth.header.expiration == 0 || auth.header.expiration >= block.timestamp,\n                FILE,\n                \"Signed operation is expired\",\n                authIdx\n            );\n\n            // require that the sender matches the authorization\n            Require.that(\n                auth.header.sender == address(0) || auth.header.sender == msg.sender,\n                FILE,\n                \"Operation sender mismatch\",\n                authIdx\n            );\n\n            // consider the signer to be msg.sender unless there is a signature\n            address signer = msg.sender;\n\n            // if there is a signature, then validate it\n            if (auth.signature.length != 0) {\n                // get the hash of the operation\n                bytes32 operationHash = getOperationHash(\n                    accounts,\n                    actions,\n                    auth,\n                    actionStartIdx\n                );\n\n                // require that this message is still valid\n                Require.that(\n                    !g_invalidated[operationHash],\n                    FILE,\n                    \"Hash already used or canceled\",\n                    operationHash\n                );\n\n                // get the signer\n                signer = TypedSignature.recover(operationHash, auth.signature);\n\n                // require that this signer matches the authorization\n                Require.that(\n                    auth.header.signer == signer,\n                    FILE,\n                    \"Invalid signature\"\n                );\n\n                // consider this operationHash to be used (and therefore no longer valid)\n                g_invalidated[operationHash] = true;\n                emit LogOperationExecuted(operationHash, signer, msg.sender);\n            }\n\n            // cache the index of the first action after this auth\n            uint256 actionEndIdx = actionStartIdx.add(auth.numActions);\n\n            // loop over all actions for which this auth applies\n            for (uint256 actionIdx = actionStartIdx; actionIdx < actionEndIdx; actionIdx++) {\n                // validate primary account\n                Actions.ActionArgs memory action = actions[actionIdx];\n                validateAccountOwner(accounts[action.accountId].owner, signer);\n\n                // validate second account in the case of a transfer\n                if (action.actionType == Actions.ActionType.Transfer) {\n                    validateAccountOwner(accounts[action.otherAccountId].owner, signer);\n                }\n            }\n\n            // update actionStartIdx\n            actionStartIdx = actionEndIdx;\n        }\n\n        // require that all actions are signed or from msg.sender\n        Require.that(\n            actionStartIdx == actions.length,\n            FILE,\n            \"Not all actions are signed\"\n        );\n\n        // send the operation\n        SOLO_MARGIN.operate(accounts, actions);\n    }\n\n    // ============ Getters ============\n\n    /**\n     * Returns a bool for each operation. True if the operation is invalid (from being canceled or\n     * previously executed).\n     */\n    function getOperationsAreInvalid(\n        bytes32[] memory operationHashes\n    )\n        public\n        view\n        returns(bool[] memory)\n    {\n        uint256 numOperations = operationHashes.length;\n        bool[] memory output = new bool[](numOperations);\n\n        for (uint256 i = 0; i < numOperations; i++) {\n            output[i] = g_invalidated[operationHashes[i]];\n        }\n        return output;\n    }\n\n    // ============ Private Helper Functions ============\n\n    /**\n     * Validates that either the signer or the msg.sender are the accountOwner (or that either are\n     * localOperators of the accountOwner).\n     */\n    function validateAccountOwner(\n        address accountOwner,\n        address signer\n    )\n        private\n        view\n    {\n        bool valid =\n            msg.sender == accountOwner\n            || signer == accountOwner\n            || SOLO_MARGIN.getIsLocalOperator(accountOwner, msg.sender)\n            || SOLO_MARGIN.getIsLocalOperator(accountOwner, signer);\n\n        Require.that(\n            valid,\n            FILE,\n            \"Signer not authorized\",\n            signer\n        );\n    }\n\n    /**\n     * Returns the EIP712 hash of an Operation message.\n     */\n    function getOperationHash(\n        Account.Info[] memory accounts,\n        Actions.ActionArgs[] memory actions,\n        Authorization memory auth,\n        uint256 startIdx\n    )\n        private\n        view\n        returns (bytes32)\n    {\n        // get the bytes32 hash of each action, then packed together\n        bytes32 actionsEncoding = getActionsEncoding(\n            accounts,\n            actions,\n            auth,\n            startIdx\n        );\n\n        // compute the EIP712 hashStruct of an Operation struct\n        /* solium-disable-next-line indentation */\n        bytes32 structHash = keccak256(abi.encode(\n            EIP712_OPERATION_HASH,\n            actionsEncoding,\n            auth.header\n        ));\n\n        // compute eip712 compliant hash\n        /* solium-disable-next-line indentation */\n        return keccak256(abi.encodePacked(\n            EIP191_HEADER,\n            EIP712_DOMAIN_HASH,\n            structHash\n        ));\n    }\n\n    /**\n     * Returns the EIP712 encodeData of an Action struct array.\n     */\n    function getActionsEncoding(\n        Account.Info[] memory accounts,\n        Actions.ActionArgs[] memory actions,\n        Authorization memory auth,\n        uint256 startIdx\n    )\n        private\n        pure\n        returns (bytes32)\n    {\n        // store hash of each action\n        bytes32[] memory actionsBytes = new bytes32[](auth.numActions);\n\n        // for each action that corresponds to the auth\n        for (uint256 i = 0; i < auth.numActions; i++) {\n            Actions.ActionArgs memory action = actions[startIdx + i];\n\n            // if action type has no second account, assume null account\n            Account.Info memory otherAccount =\n                (Actions.getAccountLayout(action.actionType) == Actions.AccountLayout.OnePrimary)\n                ? Account.Info({ owner: address(0), number: 0 })\n                : accounts[action.otherAccountId];\n\n            // compute the individual hash for the action\n            /* solium-disable-next-line indentation */\n            actionsBytes[i] = getActionHash(\n                action,\n                accounts[action.accountId],\n                otherAccount\n            );\n        }\n\n        return keccak256(abi.encodePacked(actionsBytes));\n    }\n\n    /**\n     * Returns the EIP712 hashStruct of an Action struct.\n     */\n    function getActionHash(\n        Actions.ActionArgs memory action,\n        Account.Info memory primaryAccount,\n        Account.Info memory secondaryAccount\n    )\n        private\n        pure\n        returns (bytes32)\n    {\n        /* solium-disable-next-line indentation */\n        return keccak256(abi.encode(\n            EIP712_ACTION_HASH,\n            action.actionType,\n            primaryAccount.owner,\n            primaryAccount.number,\n            getAssetAmountHash(action.amount),\n            action.primaryMarketId,\n            action.secondaryMarketId,\n            action.otherAddress,\n            secondaryAccount.owner,\n            secondaryAccount.number,\n            keccak256(action.data)\n        ));\n    }\n\n    /**\n     * Returns the EIP712 hashStruct of an AssetAmount struct.\n     */\n    function getAssetAmountHash(\n        Types.AssetAmount memory amount\n    )\n        private\n        pure\n        returns (bytes32)\n    {\n        /* solium-disable-next-line indentation */\n        return keccak256(abi.encode(\n            EIP712_ASSET_AMOUNT_HASH,\n            amount.sign,\n            amount.denomination,\n            amount.ref,\n            amount.value\n        ));\n    }\n}\n",
  "sourcePath": "/home/terra/opensource/solo/contracts/external/proxies/SignedOperationProxy.sol",
  "compiler": {
    "name": "solc",
    "version": "0.5.7+commit.6da8b019.Linux.g++"
  },
  "schemaVersion": "3.4.7",
  "updatedAt": "2022-04-29T09:51:29.176Z",
  "devdoc": {
    "author": "dYdX * Contract for sending operations on behalf of others",
    "methods": {
      "cancel((address,uint256)[],(uint8,uint256,(bool,uint8,uint8,uint256),uint256,uint256,address,uint256,bytes)[],(uint256,(uint256,uint256,address,address),bytes))": {
        "params": {
          "accounts": "The accounts involved in the operation",
          "actions": "The actions involved in the operation",
          "auth": "The unsigned authorization of the operation"
        }
      },
      "isOwner()": {
        "return": "true if `msg.sender` is the owner of the contract."
      },
      "operate((address,uint256)[],(uint8,uint256,(bool,uint8,uint8,uint256),uint256,uint256,address,uint256,bytes)[],(uint256,(uint256,uint256,address,address),bytes)[])": {
        "params": {
          "accounts": "The accounts to forward to SoloMargin.operate()",
          "actions": "The actions to forward to SoloMargin.operate()",
          "auths": "The signed authorizations for each group of actions                  (or unsigned if msg.sender is already authorized)"
        }
      },
      "owner()": {
        "return": "the address of the owner."
      },
      "renounceOwnership()": {
        "details": "Allows the current owner to relinquish control of the contract."
      },
      "transferOwnership(address)": {
        "details": "Allows the current owner to transfer control of the contract to a newOwner.",
        "params": {
          "newOwner": "The address to transfer ownership to."
        }
      }
    },
    "title": "SignedOperationProxy"
  },
  "userdoc": {
    "methods": {
      "cancel((address,uint256)[],(uint8,uint256,(bool,uint8,uint8,uint256),uint256,uint256,address,uint256,bytes)[],(uint256,(uint256,uint256,address,address),bytes))": {
        "notice": "Allows a signer to permanently cancel an operation on-chain."
      },
      "getOperationsAreInvalid(bytes32[])": {
        "notice": "Returns a bool for each operation. True if the operation is invalid (from being canceled or previously executed)."
      },
      "operate((address,uint256)[],(uint8,uint256,(bool,uint8,uint8,uint256),uint256,uint256,address,uint256,bytes)[],(uint256,(uint256,uint256,address,address),bytes)[])": {
        "notice": "Submits an operation to SoloMargin. Actions for accounts that the msg.sender does not control must be authorized by a signed message. Each authorization can apply to multiple actions at once which must occur in-order next to each other. An empty authorization must be supplied explicitly for each group of actions that do not require a signed message."
      },
      "renounceOwnership()": {
        "notice": "Renouncing to ownership will leave the contract without an owner. It will not be possible to call the functions with the `onlyOwner` modifier anymore."
      },
      "shutDown()": {
        "notice": "The owner can shut down the exchange."
      },
      "startUp()": {
        "notice": "The owner can start back up the exchange."
      }
    }
  }
}