{
  "contractName": "TestCounter",
  "abi": [
    {
      "constant": true,
      "inputs": [],
      "name": "counterOne",
      "outputs": [
        {
          "name": "",
          "type": "uint256"
        }
      ],
      "payable": false,
      "stateMutability": "view",
      "type": "function"
    },
    {
      "constant": true,
      "inputs": [
        {
          "name": "",
          "type": "uint256"
        },
        {
          "name": "",
          "type": "uint256"
        }
      ],
      "name": "counterThree",
      "outputs": [
        {
          "name": "",
          "type": "uint256"
        }
      ],
      "payable": false,
      "stateMutability": "view",
      "type": "function"
    },
    {
      "constant": true,
      "inputs": [],
      "name": "counterFallback",
      "outputs": [
        {
          "name": "",
          "type": "uint256"
        }
      ],
      "payable": false,
      "stateMutability": "view",
      "type": "function"
    },
    {
      "constant": true,
      "inputs": [
        {
          "name": "",
          "type": "uint256"
        }
      ],
      "name": "counterTwo",
      "outputs": [
        {
          "name": "",
          "type": "uint256"
        }
      ],
      "payable": false,
      "stateMutability": "view",
      "type": "function"
    },
    {
      "payable": true,
      "stateMutability": "payable",
      "type": "fallback"
    },
    {
      "constant": false,
      "inputs": [],
      "name": "functionOne",
      "outputs": [],
      "payable": false,
      "stateMutability": "nonpayable",
      "type": "function"
    },
    {
      "constant": false,
      "inputs": [
        {
          "name": "input",
          "type": "uint256"
        }
      ],
      "name": "functionTwo",
      "outputs": [],
      "payable": false,
      "stateMutability": "nonpayable",
      "type": "function"
    },
    {
      "constant": false,
      "inputs": [
        {
          "name": "input1",
          "type": "uint256"
        },
        {
          "name": "input2",
          "type": "uint256"
        }
      ],
      "name": "functionThree",
      "outputs": [],
      "payable": false,
      "stateMutability": "nonpayable",
      "type": "function"
    }
  ],
  "bytecode": "0x608060405234801561001057600080fd5b506102c0806100206000396000f3fe60806040526004361061008d576000357c0100000000000000000000000000000000000000000000000000000000900480639c65a4001161006b5780639c65a400146100ef578063c1e198821461011a578063ced0f9fd1461013a578063d7215e7a1461014f5761008d565b8063181b3bb3146100985780638e0137b9146100af578063935272a2146100cf575b600080546001019055005b3480156100a457600080fd5b506100ad61016f565b005b3480156100bb57600080fd5b506100ad6100ca366004610226565b610179565b3480156100db57600080fd5b506100ad6100ea366004610200565b61019b565b3480156100fb57600080fd5b506101046101b2565b604051610111919061026f565b60405180910390f35b34801561012657600080fd5b50610104610135366004610226565b6101b8565b34801561014657600080fd5b506101046101d5565b34801561015b57600080fd5b5061010461016a366004610200565b6101db565b6001805481019055565b6000918252600360209081526040808420928452919052902080546001019055565b600090815260026020526040902080546001019055565b60015481565b600360209081526000928352604080842090915290825290205481565b60005481565b60026020526000908152604090205481565b60006101f98235610283565b9392505050565b60006020828403121561021257600080fd5b600061021e84846101ed565b949350505050565b6000806040838503121561023957600080fd5b600061024585856101ed565b9250506020610256858286016101ed565b9150509250929050565b61026981610283565b82525050565b6020810161027d8284610260565b92915050565b9056fea265627a7a7230582053d75d72cfa889b5d9484f0b1e73faadc5e9fb99d748a2e7d59e5774821ecf7a6c6578706572696d656e74616cf50037",
  "source": "/*\n\n    Copyright 2019 dYdX Trading Inc.\n\n    Licensed under the Apache License, Version 2.0 (the \"License\");\n    you may not use this file except in compliance with the License.\n    You may obtain a copy of the License at\n\n    http://www.apache.org/licenses/LICENSE-2.0\n\n    Unless required by applicable law or agreed to in writing, software\n    distributed under the License is distributed on an \"AS IS\" BASIS,\n    WITHOUT WARRANTIES OR CONDITIONS OF ANY KIND, either express or implied.\n    See the License for the specific language governing permissions and\n    limitations under the License.\n\n*/\n\npragma solidity 0.5.7;\npragma experimental ABIEncoderV2;\n\n/**\n * @title TestCounter\n * @author dYdX\n *\n * Counts function calls for testing\n */\ncontract TestCounter\n{\n    // ============ Storage ============\n\n    uint256 public counterFallback;\n\n    uint256 public counterOne;\n\n    mapping (uint256 => uint256) public counterTwo;\n\n    mapping (uint256 => mapping (uint256 => uint256)) public counterThree;\n\n    // ============ Functions ============\n\n    function()\n        external\n        payable\n    {\n        counterFallback++;\n    }\n\n    function functionOne()\n        public\n    {\n        counterOne++;\n    }\n\n    function functionTwo(\n        uint256 input\n    )\n        public\n    {\n        counterTwo[input]++;\n    }\n\n    function functionThree(\n        uint256 input1,\n        uint256 input2\n    )\n        public\n    {\n        counterThree[input1][input2]++;\n    }\n}\n",
  "sourcePath": "/home/terra/opensource/solo/contracts/testing/TestCounter.sol",
  "compiler": {
    "name": "solc",
    "version": "0.5.7+commit.6da8b019.Linux.g++"
  },
  "schemaVersion": "3.4.7",
  "updatedAt": "2022-04-29T09:51:29.388Z",
  "devdoc": {
    "author": "dYdX * Counts function calls for testing",
    "methods": {},
    "title": "TestCounter"
  },
  "userdoc": {
    "methods": {}
  }
}