{
  "contractName": "TestCurve",
  "abi": [
    {
      "constant": true,
      "inputs": [],
      "name": "dy",
      "outputs": [
        {
          "name": "",
          "type": "uint256"
        }
      ],
      "payable": false,
      "stateMutability": "view",
      "type": "function"
    },
    {
      "constant": true,
      "inputs": [],
      "name": "fee",
      "outputs": [
        {
          "name": "",
          "type": "uint256"
        }
      ],
      "payable": false,
      "stateMutability": "view",
      "type": "function"
    },
    {
      "constant": true,
      "inputs": [
        {
          "name": "",
          "type": "int128"
        },
        {
          "name": "",
          "type": "int128"
        },
        {
          "name": "",
          "type": "uint256"
        }
      ],
      "name": "get_dy",
      "outputs": [
        {
          "name": "",
          "type": "uint256"
        }
      ],
      "payable": false,
      "stateMutability": "view",
      "type": "function"
    },
    {
      "constant": false,
      "inputs": [
        {
          "name": "newFee",
          "type": "uint112"
        }
      ],
      "name": "setFee",
      "outputs": [],
      "payable": false,
      "stateMutability": "nonpayable",
      "type": "function"
    },
    {
      "constant": false,
      "inputs": [
        {
          "name": "newDy",
          "type": "uint112"
        }
      ],
      "name": "setDy",
      "outputs": [],
      "payable": false,
      "stateMutability": "nonpayable",
      "type": "function"
    }
  ],
  "bytecode": "0x6080604052623d0900600055600060015534801561001c57600080fd5b506102418061002c6000396000f3fe608060405234801561001057600080fd5b5060043610610084576000357c0100000000000000000000000000000000000000000000000000000000900480635e0d443f1161006d5780635e0d443f146100bc578063ddca3f43146100cf578063ddf8c3c0146100d757610084565b80632a7b2ecb1461008957806336511ae1146100a7575b600080fd5b6100916100ea565b60405161009e91906101d7565b60405180910390f35b6100ba6100b53660046101a2565b6100f0565b005b6100916100ca366004610155565b610105565b61009161010f565b6100ba6100e53660046101a2565b610115565b60015481565b6dffffffffffffffffffffffffffff16600055565b6001549392505050565b60005481565b6dffffffffffffffffffffffffffff16600155565b600061013682356101ee565b9392505050565b600061013682356101f4565b600061013682356101eb565b60008060006060848603121561016a57600080fd5b6000610176868661012a565b93505060206101878682870161012a565b925050604061019886828701610149565b9150509250925092565b6000602082840312156101b457600080fd5b60006101c0848461013d565b949350505050565b6101d1816101eb565b82525050565b602081016101e582846101c8565b92915050565b90565b600f0b90565b6dffffffffffffffffffffffffffff169056fea265627a7a72305820026fcb06fbbd2d2d2df56e385228fb291840331d2eeefc43351b1bb992cbbf756c6578706572696d656e74616cf50037",
  "source": "/*\n\n    Copyright 2019 dYdX Trading Inc.\n\n    Licensed under the Apache License, Version 2.0 (the \"License\");\n    you may not use this file except in compliance with the License.\n    You may obtain a copy of the License at\n\n    http://www.apache.org/licenses/LICENSE-2.0\n\n    Unless required by applicable law or agreed to in writing, software\n    distributed under the License is distributed on an \"AS IS\" BASIS,\n    WITHOUT WARRANTIES OR CONDITIONS OF ANY KIND, either express or implied.\n    See the License for the specific language governing permissions and\n    limitations under the License.\n\n*/\n\npragma solidity 0.5.7;\npragma experimental ABIEncoderV2;\n\nimport { ICurve } from \"../external/interfaces/ICurve.sol\";\n\n\n/**\n * @title TestCurve\n * @author dYdX\n *\n * Mock of the Curve contract.\n */\ncontract TestCurve is\n    ICurve\n{\n    uint256 public fee = 4000000;\n    uint256 public dy = 0;\n\n    // ============ Getter Functions ============\n\n    function get_dy(\n        int128 /* i */,\n        int128 /* j */,\n        uint256 /* dx */\n    )\n        external\n        view\n        returns (uint256)\n    {\n        return dy;\n    }\n\n    // ============ Test Data Setter Functions ============\n\n    function setFee(\n        uint112 newFee\n    )\n        external\n    {\n        fee = newFee;\n    }\n\n    function setDy(\n        uint112 newDy\n    )\n        external\n    {\n        dy = newDy;\n    }\n}\n",
  "sourcePath": "/home/terra/opensource/solo/contracts/testing/TestCurve.sol",
  "compiler": {
    "name": "solc",
    "version": "0.5.7+commit.6da8b019.Linux.g++"
  },
  "schemaVersion": "3.4.7",
  "updatedAt": "2022-04-29T09:51:29.389Z",
  "devdoc": {
    "author": "dYdX * Mock of the Curve contract.",
    "methods": {},
    "title": "TestCurve"
  },
  "userdoc": {
    "methods": {}
  }
}