{
  "_format": "hh-sol-artifact-1",
  "contractName": "HookCoveredCallFactory",
  "sourceName": "contracts/HookCoveredCallFactory.sol",
  "abi": [
    {
      "inputs": [
        {
          "internalType": "address",
          "name": "hookProtocolAddress",
          "type": "address"
        },
        {
          "internalType": "address",
          "name": "beaconAddress",
          "type": "address"
        },
        {
          "internalType": "address",
          "name": "preApprovedMarketplace",
          "type": "address"
        }
      ],
      "stateMutability": "nonpayable",
      "type": "constructor"
    },
    {
      "anonymous": false,
      "inputs": [
        {
          "indexed": false,
          "internalType": "address",
          "name": "assetAddress",
          "type": "address"
        },
        {
          "indexed": false,
          "internalType": "address",
          "name": "instrumentAddress",
          "type": "address"
        }
      ],
      "name": "CoveredCallInstrumentCreated",
      "type": "event"
    },
    {
      "inputs": [],
      "name": "ALLOWLISTER_ROLE",
      "outputs": [
        {
          "internalType": "bytes32",
          "name": "",
          "type": "bytes32"
        }
      ],
      "stateMutability": "view",
      "type": "function"
    },
    {
      "inputs": [],
      "name": "CALL_UPGRADER",
      "outputs": [
        {
          "internalType": "bytes32",
          "name": "",
          "type": "bytes32"
        }
      ],
      "stateMutability": "view",
      "type": "function"
    },
    {
      "inputs": [],
      "name": "COLLECTION_CONF",
      "outputs": [
        {
          "internalType": "bytes32",
          "name": "",
          "type": "bytes32"
        }
      ],
      "stateMutability": "view",
      "type": "function"
    },
    {
      "inputs": [],
      "name": "MARKET_CONF",
      "outputs": [
        {
          "internalType": "bytes32",
          "name": "",
          "type": "bytes32"
        }
      ],
      "stateMutability": "view",
      "type": "function"
    },
    {
      "inputs": [],
      "name": "PAUSER_ROLE",
      "outputs": [
        {
          "internalType": "bytes32",
          "name": "",
          "type": "bytes32"
        }
      ],
      "stateMutability": "view",
      "type": "function"
    },
    {
      "inputs": [],
      "name": "VAULT_UPGRADER",
      "outputs": [
        {
          "internalType": "bytes32",
          "name": "",
          "type": "bytes32"
        }
      ],
      "stateMutability": "view",
      "type": "function"
    },
    {
      "inputs": [
        {
          "internalType": "address",
          "name": "",
          "type": "address"
        }
      ],
      "name": "getCallInstrument",
      "outputs": [
        {
          "internalType": "address",
          "name": "",
          "type": "address"
        }
      ],
      "stateMutability": "view",
      "type": "function"
    },
    {
      "inputs": [
        {
          "internalType": "address",
          "name": "assetAddress",
          "type": "address"
        }
      ],
      "name": "makeCallInstrument",
      "outputs": [
        {
          "internalType": "address",
          "name": "",
          "type": "address"
        }
      ],
      "stateMutability": "nonpayable",
      "type": "function"
    }
  ],
  "bytecode": "0x60e060405234801561001057600080fd5b5060405161144f38038061144f83398101604081905261002f916101b7565b6100428361018c60201b6106271760201c565b6100935760405162461bcd60e51b815260206004820181905260248201527f686f6f6b2070726f746f636f6c206d757374206265206120636f6e747261637460448201526064015b60405180910390fd5b6100a68261018c60201b6106271760201c565b6100fc5760405162461bcd60e51b815260206004820152602160248201527f626561636f6e2061646472657373206d757374206265206120636f6e747261636044820152601d60fa1b606482015260840161008a565b61010f8161018c60201b6106271760201c565b61016f5760405162461bcd60e51b815260206004820152602b60248201527f7072652d617070726f766564206d61726b6574706c616365206d75737420626560448201526a08184818dbdb9d1c9858dd60aa1b606482015260840161008a565b6001600160a01b0391821660805291811660a0521660c0526101fa565b6001600160a01b03163b151590565b80516001600160a01b03811681146101b257600080fd5b919050565b6000806000606084860312156101cc57600080fd5b6101d58461019b565b92506101e36020850161019b565b91506101f16040850161019b565b90509250925092565b60805160a05160c05161121161023e6000396000610516015260008181610253015281816102f60152818161045001526104720152600061042f01526112116000f3fe608060405234801561001057600080fd5b50600436106100785760003560e01c80630d5e67ec1461007d578063a34fd3fb146100b7578063acca6838146100de578063bb31173a146100f3578063c01222241461011a578063e2fcf3151461013a578063e63ab1e914610163578063f23c19e81461018a575b600080fd5b6100a47f945438d5e976f17e0d00cb2997cf8951c55e12977d86234d6738d1865abe006e81565b6040519081526020015b60405180910390f35b6100a47f657f307dfada290937bc821a25e2da10feb07809ba9560b816723e8b47fe379a81565b6100a46000805160206111bc83398151915281565b6100a47ff7e0191f3657a6da7569740b1cdeac8c3425bcbfd257d4fdc6d2241598f4de8b81565b61012d61012836600461078f565b6101b1565b6040516100ae91906107ac565b61012d61014836600461078f565b6000602081905290815260409020546001600160a01b031681565b6100a47f65d7a28e3265b37a6474929f336521b332c1681b933f6cb9f3376673440d862a81565b6100a47f8de11a8d956993287a5b6a74c069984045abc1b621d651081c4c77c05c3cb7af81565b6001600160a01b038181166000908152602081905260408120549091161561023c5760405162461bcd60e51b815260206004820152603360248201527f6d616b6543616c6c496e737472756d656e742d612063616c6c20696e737472756044820152726d656e7420616c72656164792065786973747360681b60648201526084015b60405180910390fd5b604051632474521560e21b81526001600160a01b037f000000000000000000000000000000000000000000000000000000000000000016906391d1485490610298906000805160206111bc8339815191529033906004016107c0565b602060405180830381865afa1580156102b5573d6000803e3d6000fd5b505050506040513d601f19601f820116820180604052508101906102d991906107d7565b8061037d5750604051632474521560e21b81526001600160a01b037f000000000000000000000000000000000000000000000000000000000000000016906391d148549061033c906000805160206111bc833981519152906000906004016107c0565b602060405180830381865afa158015610359573d6000803e3d6000fd5b505050506040513d601f19601f8201168201806040525081019061037d91906107d7565b6103e55760405162461bcd60e51b815260206004820152603360248201527f6d616b6543616c6c496e737472756d656e742d4f6e6c792061646d696e732063604482015272616e206d616b6520696e737472756d656e747360681b6064820152608401610233565b600061041c60006103f585610636565b6040516104046020820161076a565b601f1982820381018352601f90910116604052610666565b9050806001600160a01b0316637fe8e72c7f00000000000000000000000000000000000000000000000000000000000000007f0000000000000000000000000000000000000000000000000000000000000000867f00000000000000000000000000000000000000000000000000000000000000006001600160a01b0316632274346b6040518163ffffffff1660e01b8152600401602060405180830381865afa1580156104ce573d6000803e3d6000fd5b505050506040513d601f19601f820116820180604052508101906104f291906107f9565b6040516001600160a01b0393841660248201529183166044830152821660648201527f0000000000000000000000000000000000000000000000000000000000000000909116608482015260a40160408051601f198184030181529181526020820180516001600160e01b0316637c643b2f60e11b1790525160e084901b6001600160e01b031916815261058a929190600401610816565b600060405180830381600087803b1580156105a457600080fd5b505af11580156105b8573d6000803e3d6000fd5b505050506001600160a01b038381166000818152602081815260409182902080546001600160a01b031916948616948517905581519283528201929092527f3a65d7f5e9cd8add56b06a0cad687ab063ce48787f57221089d3b484144b9b5f910160405180910390a192915050565b6001600160a01b03163b151590565b60008160405160200161064991906107ac565b604051602081830303815290604052805190602001209050919050565b6000834710156106b85760405162461bcd60e51b815260206004820152601d60248201527f437265617465323a20696e73756666696369656e742062616c616e63650000006044820152606401610233565b81516107065760405162461bcd60e51b815260206004820181905260248201527f437265617465323a2062797465636f6465206c656e677468206973207a65726f6044820152606401610233565b8282516020840186f590506001600160a01b0381166107635760405162461bcd60e51b8152602060048201526019602482015278437265617465323a204661696c6564206f6e206465706c6f7960381b6044820152606401610233565b9392505050565b6109408061087c83390190565b6001600160a01b038116811461078c57600080fd5b50565b6000602082840312156107a157600080fd5b813561076381610777565b6001600160a01b0391909116815260200190565b9182526001600160a01b0316602082015260400190565b6000602082840312156107e957600080fd5b8151801515811461076357600080fd5b60006020828403121561080b57600080fd5b815161076381610777565b60018060a01b038316815260006020604081840152835180604085015260005b8181101561085257858101830151858201606001528201610836565b81811115610864576000606083870101525b50601f01601f19169290920160600194935050505056fe608060405234801561001057600080fd5b50610920806100206000396000f3fe6080604052600436106100225760003560e01c80637fe8e72c1461003957610031565b366100315761002f610059565b005b61002f610059565b34801561004557600080fd5b5061002f610054366004610696565b61006b565b61006961006461016f565b6101f6565b565b6000610077600161021a565b905080156100af57600161009f61009c82600080516020610884833981519152610759565b90565b805460ff19169115159190911790555b6100da60017fa3f0ad74e5423aebfd80d3ef4346578335a9a72aeaee59ff6cb3582b35133d51610759565b600080516020610864833981519152146100f6576100f661077e565b610102838360006102ee565b801561016a57600061012661009c6001600080516020610884833981519152610759565b805460ff1916911515919091179055604051600181527f7f26b83ff96e1f2b6a682f133852f6798a09c465da95921460cefb38474024989060200160405180910390a15b505050565b6000610190600080516020610864833981519152546001600160a01b031690565b6001600160a01b0316635c60da1b6040518163ffffffff1660e01b8152600401602060405180830381865afa1580156101cd573d6000803e3d6000fd5b505050506040513d601f19601f820116820180604052508101906101f19190610794565b905090565b3660008037600080366000845af43d6000803e808015610215573d6000f35b3d6000fd5b600061023861009c6001600080516020610884833981519152610759565b5460ff1615610287578160ff16600114801561025a5750610258306103ae565b155b61027f5760405162461bcd60e51b8152600401610276906107b1565b60405180910390fd5b506000919050565b60ff82166102a761009c60016000805160206108a4833981519152610759565b54106102c55760405162461bcd60e51b8152600401610276906107b1565b60ff82166102e561009c60016000805160206108a4833981519152610759565b55506001919050565b6102f7836103bd565b6040516001600160a01b038416907f1cf3b03a6cf19fa2baba4df148e9dcabedea7f8a5c07840e207e5c089be95d3e90600090a26000825111806103385750805b1561016a576103a8836001600160a01b0316635c60da1b6040518163ffffffff1660e01b8152600401602060405180830381865afa15801561037e573d6000803e3d6000fd5b505050506040513d601f19601f820116820180604052508101906103a29190610794565b8361051e565b50505050565b6001600160a01b03163b151590565b6103c6816103ae565b6104205760405162461bcd60e51b815260206004820152602560248201527f455243313936373a206e657720626561636f6e206973206e6f74206120636f6e6044820152641d1c9858dd60da1b6064820152608401610276565b61048a816001600160a01b0316635c60da1b6040518163ffffffff1660e01b8152600401602060405180830381865afa158015610461573d6000803e3d6000fd5b505050506040513d601f19601f820116820180604052508101906104859190610794565b6103ae565b6104ef5760405162461bcd60e51b815260206004820152603060248201527f455243313936373a20626561636f6e20696d706c656d656e746174696f6e206960448201526f1cc81b9bdd08184818dbdb9d1c9858dd60821b6064820152608401610276565b60008051602061086483398151915280546001600160a01b0319166001600160a01b0392909216919091179055565b606061054383836040518060600160405280602781526020016108c46027913961054a565b9392505050565b6060600080856001600160a01b0316856040516105679190610814565b600060405180830381855af49150503d80600081146105a2576040519150601f19603f3d011682016040523d82523d6000602084013e6105a7565b606091505b50915091506105b8868383876105c2565b9695505050505050565b6060831561062c578251610625576105d9856103ae565b6106255760405162461bcd60e51b815260206004820152601d60248201527f416464726573733a2063616c6c20746f206e6f6e2d636f6e74726163740000006044820152606401610276565b5081610636565b610636838361063e565b949350505050565b81511561064e5781518083602001fd5b8060405162461bcd60e51b81526004016102769190610830565b6001600160a01b038116811461067d57600080fd5b50565b634e487b7160e01b600052604160045260246000fd5b600080604083850312156106a957600080fd5b82356106b481610668565b915060208301356001600160401b03808211156106d057600080fd5b818501915085601f8301126106e457600080fd5b8135818111156106f6576106f6610680565b604051601f8201601f19908116603f0116810190838211818310171561071e5761071e610680565b8160405282815288602084870101111561073757600080fd5b8260208601602083013760006020848301015280955050505050509250929050565b60008282101561077957634e487b7160e01b600052601160045260246000fd5b500390565b634e487b7160e01b600052600160045260246000fd5b6000602082840312156107a657600080fd5b815161054381610668565b6020808252601f908201527f636f6e747261637420697320616c726561647920696e697469616c697a656400604082015260600190565b60005b838110156108035781810151838201526020016107eb565b838111156103a85750506000910152565b600082516108268184602087016107e8565b9190910192915050565b602081526000825180602084015261084f8160408501602087016107e8565b601f01601f1916919091016040019291505056fea3f0ad74e5423aebfd80d3ef4346578335a9a72aeaee59ff6cb3582b35133d50ba701f97ffd09be973ab0487da5ef9921c2bd0aad55202b3c0b41745a8ecda29021cb2f443fd62c4cb6b5d341f5eb8cd045222fc4183f8753d3725ac19741805416464726573733a206c6f772d6c6576656c2064656c65676174652063616c6c206661696c6564a2646970667358221220eef977ecffa556a9f12fda34c0013a467b6cfe8a6b5f1c5ea9f69d03ee8b09f764736f6c634300080a0033fba4f6dd992a27a814ee807eb2f9332d6d01312041726966a540cf4a4a891553a264697066735822122058980f0d0ab9b76f5074ba312bfb6f6871c0ecaee1ca53aff026bb786aaeaaee64736f6c634300080a0033",
  "linkReferences": {},
  "deployedLinkReferences": {}
}