{
  "contractName": "DFAdminFacet",
  "abi": [
    {
      "anonymous": false,
      "inputs": [
        {
          "indexed": false,
          "internalType": "uint256",
          "name": "loc",
          "type": "uint256"
        },
        {
          "indexed": false,
          "internalType": "address",
          "name": "owner",
          "type": "address"
        },
        {
          "indexed": false,
          "internalType": "enum ArtifactType",
          "name": "artifactType",
          "type": "uint8"
        }
      ],
      "name": "AdminGiveSpaceship",
      "type": "event"
    },
    {
      "anonymous": false,
      "inputs": [
        {
          "indexed": false,
          "internalType": "uint256",
          "name": "loc",
          "type": "uint256"
        },
        {
          "indexed": false,
          "internalType": "address",
          "name": "newOwner",
          "type": "address"
        }
      ],
      "name": "AdminOwnershipChanged",
      "type": "event"
    },
    {
      "anonymous": false,
      "inputs": [
        {
          "indexed": false,
          "internalType": "uint256",
          "name": "loc",
          "type": "uint256"
        }
      ],
      "name": "AdminPlanetCreated",
      "type": "event"
    },
    {
      "anonymous": false,
      "inputs": [
        {
          "indexed": false,
          "internalType": "bool",
          "name": "paused",
          "type": "bool"
        }
      ],
      "name": "PauseStateChanged",
      "type": "event"
    },
    {
      "inputs": [],
      "name": "pause",
      "outputs": [],
      "stateMutability": "nonpayable",
      "type": "function"
    },
    {
      "inputs": [],
      "name": "unpause",
      "outputs": [],
      "stateMutability": "nonpayable",
      "type": "function"
    },
    {
      "inputs": [
        {
          "internalType": "uint256",
          "name": "planetId",
          "type": "uint256"
        },
        {
          "internalType": "address",
          "name": "newOwner",
          "type": "address"
        }
      ],
      "name": "setOwner",
      "outputs": [],
      "stateMutability": "nonpayable",
      "type": "function"
    },
    {
      "inputs": [
        {
          "internalType": "address",
          "name": "playerAddress",
          "type": "address"
        },
        {
          "internalType": "uint256",
          "name": "amount",
          "type": "uint256"
        }
      ],
      "name": "deductScore",
      "outputs": [],
      "stateMutability": "nonpayable",
      "type": "function"
    },
    {
      "inputs": [
        {
          "internalType": "address",
          "name": "playerAddress",
          "type": "address"
        },
        {
          "internalType": "uint256",
          "name": "amount",
          "type": "uint256"
        }
      ],
      "name": "addScore",
      "outputs": [],
      "stateMutability": "nonpayable",
      "type": "function"
    },
    {
      "inputs": [
        {
          "internalType": "address",
          "name": "newOwner",
          "type": "address"
        },
        {
          "internalType": "uint256[2]",
          "name": "_a",
          "type": "uint256[2]"
        },
        {
          "internalType": "uint256[2][2]",
          "name": "_b",
          "type": "uint256[2][2]"
        },
        {
          "internalType": "uint256[2]",
          "name": "_c",
          "type": "uint256[2]"
        },
        {
          "internalType": "uint256[8]",
          "name": "_input",
          "type": "uint256[8]"
        }
      ],
      "name": "safeSetOwner",
      "outputs": [],
      "stateMutability": "nonpayable",
      "type": "function"
    },
    {
      "inputs": [
        {
          "internalType": "uint256",
          "name": "_newConstant",
          "type": "uint256"
        }
      ],
      "name": "changeWorldRadiusMin",
      "outputs": [],
      "stateMutability": "nonpayable",
      "type": "function"
    },
    {
      "inputs": [
        {
          "internalType": "uint256",
          "name": "_newRadius",
          "type": "uint256"
        }
      ],
      "name": "adminSetWorldRadius",
      "outputs": [],
      "stateMutability": "nonpayable",
      "type": "function"
    },
    {
      "inputs": [
        {
          "internalType": "uint256",
          "name": "newCooldown",
          "type": "uint256"
        }
      ],
      "name": "changeLocationRevealCooldown",
      "outputs": [],
      "stateMutability": "nonpayable",
      "type": "function"
    },
    {
      "inputs": [],
      "name": "withdraw",
      "outputs": [],
      "stateMutability": "nonpayable",
      "type": "function"
    },
    {
      "inputs": [
        {
          "internalType": "uint256",
          "name": "newTokenMintEndTime",
          "type": "uint256"
        }
      ],
      "name": "setTokenMintEndTime",
      "outputs": [],
      "stateMutability": "nonpayable",
      "type": "function"
    },
    {
      "inputs": [
        {
          "components": [
            {
              "internalType": "uint256",
              "name": "location",
              "type": "uint256"
            },
            {
              "internalType": "uint256",
              "name": "perlin",
              "type": "uint256"
            },
            {
              "internalType": "uint256",
              "name": "level",
              "type": "uint256"
            },
            {
              "internalType": "enum PlanetType",
              "name": "planetType",
              "type": "uint8"
            },
            {
              "internalType": "bool",
              "name": "requireValidLocationId",
              "type": "bool"
            }
          ],
          "internalType": "struct AdminCreatePlanetArgs",
          "name": "args",
          "type": "tuple"
        }
      ],
      "name": "createPlanet",
      "outputs": [],
      "stateMutability": "nonpayable",
      "type": "function"
    },
    {
      "inputs": [
        {
          "internalType": "uint256",
          "name": "locationId",
          "type": "uint256"
        },
        {
          "internalType": "address",
          "name": "owner",
          "type": "address"
        },
        {
          "internalType": "enum ArtifactType",
          "name": "artifactType",
          "type": "uint8"
        }
      ],
      "name": "adminGiveSpaceShip",
      "outputs": [],
      "stateMutability": "nonpayable",
      "type": "function"
    },
    {
      "inputs": [
        {
          "internalType": "uint256",
          "name": "locationId",
          "type": "uint256"
        },
        {
          "internalType": "uint256",
          "name": "perlin",
          "type": "uint256"
        }
      ],
      "name": "adminInitializePlanet",
      "outputs": [],
      "stateMutability": "nonpayable",
      "type": "function"
    },
    {
      "inputs": [
        {
          "internalType": "bool",
          "name": "enabled",
          "type": "bool"
        }
      ],
      "name": "setPlanetTransferEnabled",
      "outputs": [],
      "stateMutability": "nonpayable",
      "type": "function"
    }
  ],
  "bytecode": "0x608060405234801561001057600080fd5b50613407806100206000396000f3fe608060405234801561001057600080fd5b50600436106100f55760003560e01c80637fd3924711610097578063d119db4c11610066578063d119db4c146101f8578063e3aecc5414610214578063ea8046a014610230578063f1cb497a1461024c576100f5565b80637fd392471461019a5780638456cb59146101b6578063944e6679146101c0578063bcb324d8146101dc576100f5565b80633ccfd60b116100d35780633ccfd60b1461014e5780633f4ba83a1461015857806350e1ade3146101625780637b05ea6e1461017e576100f5565b806302531a47146100fa57806319ce75261461011657806332d5cef414610132575b600080fd5b610114600480360381019061010f919061196c565b610268565b005b610130600480360381019061012b9190611ca0565b610283565b005b61014c6004803603810190610147919061196c565b6103e2565b005b610156610459565b005b6101606104aa565b005b61017c6004803603810190610177919061196c565b610568565b005b61019860048036038101906101939190611d1d565b610583565b005b6101b460048036038101906101af9190611d5d565b61068f565b005b6101be610732565b005b6101da60048036038101906101d59190611dd5565b6107f1565b005b6101f660048036038101906101f19190611eb8565b61081f565b005b610212600480360381019061020d9190611d1d565b610b58565b005b61022e60048036038101906102299190611f0a565b610c1d565b005b61024a6004803603810190610245919061196c565b6116e7565b005b61026660048036038101906102619190611f5d565b611702565b005b6102706117e7565b80610279611882565b6019018190555050565b61028b6117e7565b6000816000600881106102a1576102a0611f9d565b5b602002015190506102b0611891565b600e01600082815260200190815260200160002060000160009054906101000a900460ff1661034a5773__LibPlanet_____________________________63e01f89268686868660006040518663ffffffff1660e01b8152600401610319959493929190612208565b60006040518083038186803b15801561033157600080fd5b505af4158015610345573d6000803e3d6000fd5b505050505b610352611891565b600c01600082815260200190815260200160002060070154610372611891565b600c01600083815260200190815260200160002060090181905550610395611891565b600c016000828152602001908152602001600020600501546103b5611891565b600c016000838152602001908152602001600020600401819055506103da818761068f565b505050505050565b6103ea6117e7565b806103f3611882565b6001018190555073__LibGameUtils__________________________63eaae46536040518163ffffffff1660e01b815260040160006040518083038186803b15801561043e57600080fd5b505af4158015610452573d6000803e3d6000fd5b5050505050565b6104616117e7565b3373ffffffffffffffffffffffffffffffffffffffff166108fc479081150290604051600060405180830381858888f193505050501580156104a7573d6000803e3d6000fd5b50565b6104b26117e7565b6104ba611891565b60000160149054906101000a900460ff1661050a576040517f08c379a0000000000000000000000000000000000000000000000000000000008152600401610501906122bb565b60405180910390fd5b6000610514611891565b60000160146101000a81548160ff0219169083151502179055507f4543baa938cb97f5073ec206ad35638cdb1f4db8f677d31579b2f6fe7d18c14a600060405161055e91906122ea565b60405180910390a1565b6105706117e7565b80610579611891565b6009018190555050565b61058b6117e7565b6000610595611891565b60120160008473ffffffffffffffffffffffffffffffffffffffff1673ffffffffffffffffffffffffffffffffffffffff16815260200190815260200160002090508060000160009054906101000a900460ff16610628576040517f08c379a000000000000000000000000000000000000000000000000000000000815260040161061f90612351565b60405180910390fd5b806004015482111561066f576040517f08c379a0000000000000000000000000000000000000000000000000000000008152600401610666906123bd565b60405180910390fd5b81816004016000828254610683919061240c565b92505081905550505050565b6106976117e7565b806106a0611891565b600c01600084815260200190815260200160002060000160006101000a81548173ffffffffffffffffffffffffffffffffffffffff021916908373ffffffffffffffffffffffffffffffffffffffff1602179055507fe122bcb5a2c1ab58804715b8f43c4414ec77d77167268cc38dc72d8301107bf2828260405161072692919061245e565b60405180910390a15050565b61073a6117e7565b610742611891565b60000160149054906101000a900460ff1615610793576040517f08c379a000000000000000000000000000000000000000000000000000000000815260040161078a906124d3565b60405180910390fd5b600161079d611891565b60000160146101000a81548160ff0219169083151502179055507f4543baa938cb97f5073ec206ad35638cdb1f4db8f677d31579b2f6fe7d18c14a60016040516107e791906122ea565b60405180910390a1565b6107f96117e7565b80610802611882565b60170160006101000a81548160ff02191690831515021790555050565b6108276117e7565b61082f611882565b60000160009054906101000a900460ff1661087f576040517f08c379a00000000000000000000000000000000000000000000000000000000081526004016108769061253f565b60405180910390fd5b8060800151156109455773__LibGameUtils__________________________63c8d503ea82600001516040518263ffffffff1660e01b81526004016108c4919061256e565b602060405180830381865af41580156108e1573d6000803e3d6000fd5b505050506040513d601f19601f82011682018060405250810190610905919061259e565b610944576040517f08c379a000000000000000000000000000000000000000000000000000000000815260040161093b90612617565b60405180910390fd5b5b600073__LibGameUtils__________________________637308c81883602001516040518263ffffffff1660e01b8152600401610982919061256e565b602060405180830381865af415801561099f573d6000803e3d6000fd5b505050506040513d601f19601f820116820180604052508101906109c3919061265c565b905073__LibPlanet_____________________________632caa23fc6040518060e00160405280856000015181526020018560200151815260200185604001518152602001610a10611882565b600301548152602001846003811115610a2c57610a2b612689565b5b815260200185606001516004811115610a4857610a47612689565b5b8152602001600015158152506040518263ffffffff1660e01b8152600401610a7091906127e5565b60006040518083038186803b158015610a8857600080fd5b505af4158015610a9c573d6000803e3d6000fd5b50505050610aa8611891565b600601826000015190806001815401808255809150506001900390600052602060002001600090919091909150556001610ae0611891565b600501836040015181548110610af957610af8611f9d565b5b906000526020600020016000828254610b129190612800565b925050819055507f4cea35aae122363317e2962f1f094b4ee7be8c7ed501f8d609090702310431be8260000151604051610b4c9190612856565b60405180910390a15050565b610b606117e7565b6000610b6a611891565b60120160008473ffffffffffffffffffffffffffffffffffffffff1673ffffffffffffffffffffffffffffffffffffffff16815260200190815260200160002090508060000160009054906101000a900460ff16610bfd576040517f08c379a0000000000000000000000000000000000000000000000000000000008152600401610bf490612351565b60405180910390fd5b81816004016000828254610c119190612800565b92505081905550505050565b610c256117e7565b610c2d611891565b600f01600084815260200190815260200160002060000160009054906101000a900460ff16610c91576040517f08c379a0000000000000000000000000000000000000000000000000000000008152600401610c88906128bd565b60405180910390fd5b73__LibArtifactUtils______________________639bc1a452826040518263ffffffff1660e01b8152600401610cc89190612925565b602060405180830381865af4158015610ce5573d6000803e3d6000fd5b505050506040513d601f19601f82011682018060405250810190610d09919061259e565b610d48576040517f08c379a0000000000000000000000000000000000000000000000000000000008152600401610d3f906129b2565b60405180910390fd5b600073__LibArtifactUtils______________________63fa96074f8585856040518463ffffffff1660e01b8152600401610d85939291906129e1565b602060405180830381865af4158015610da2573d6000803e3d6000fd5b505050506040513d601f19601f82011682018060405250810190610dc69190612a2d565b90506000610dd2611891565b6016016000838152602001908152602001600020604051806101a00160405290816000820160009054906101000a900460ff1615151515815260200160018201548152602001600282015481526020016003820160009054906101000a900460ff166005811115610e4657610e45612689565b5b6005811115610e5857610e57612689565b5b81526020016003820160019054906101000a900460ff16600a811115610e8157610e80612689565b5b600a811115610e9357610e92612689565b5b8152602001600482015481526020016005820160009054906101000a900473ffffffffffffffffffffffffffffffffffffffff1673ffffffffffffffffffffffffffffffffffffffff1673ffffffffffffffffffffffffffffffffffffffff1681526020016005820160149054906101000a900460ff16600e811115610f1c57610f1b612689565b5b600e811115610f2e57610f2d612689565b5b815260200160068201548152602001600782015481526020016008820154815260200160098201548152602001600a820160009054906101000a900473ffffffffffffffffffffffffffffffffffffffff1673ffffffffffffffffffffffffffffffffffffffff1673ffffffffffffffffffffffffffffffffffffffff168152505090506000610fbc611891565b600c016000878152602001908152602001600020604051806101a00160405290816000820160009054906101000a900473ffffffffffffffffffffffffffffffffffffffff1673ffffffffffffffffffffffffffffffffffffffff1673ffffffffffffffffffffffffffffffffffffffff168152602001600182015481526020016002820154815260200160038201548152602001600482015481526020016005820154815260200160068201548152602001600782015481526020016008820154815260200160098201548152602001600a8201548152602001600b820160009054906101000a900460ff1660048111156110bb576110ba612689565b5b60048111156110cd576110cc612689565b5b8152602001600b820160019054906101000a900460ff161515151581525050905060006110f8611891565b600e016000888152602001908152602001600020604051806101a00160405290816000820160009054906101000a900460ff161515151581526020016001820154815260200160028201548152602001600382015481526020016004820160009054906101000a900460ff16600381111561117657611175612689565b5b600381111561118857611187612689565b5b8152602001600582015481526020016006820154815260200160078201548152602001600882015481526020016009820160009054906101000a900460ff16151515158152602001600a8201548152602001600b820160009054906101000a900460ff16151515158152602001600c820154815250509050600061120a611891565b600f0160008981526020019081526020016000206040518060a00160405290816000820160009054906101000a900460ff16151515158152602001600182015481526020016002820160009054906101000a900473ffffffffffffffffffffffffffffffffffffffff1673ffffffffffffffffffffffffffffffffffffffff1673ffffffffffffffffffffffffffffffffffffffff168152602001600382015481526020016004820160009054906101000a900473ffffffffffffffffffffffffffffffffffffffff1673ffffffffffffffffffffffffffffffffffffffff1673ffffffffffffffffffffffffffffffffffffffff1681525050905073__LibPlanet_____________________________637f1ac31c858585856040518563ffffffff1660e01b81526004016113439493929190612e91565b6103e060405180830381865af4158015611361573d6000803e3d6000fd5b505050506040513d601f19601f820116820180604052508101906113859190613200565b8093508194508295505050508261139a611891565b600c0160008a815260200190815260200160002060008201518160000160006101000a81548173ffffffffffffffffffffffffffffffffffffffff021916908373ffffffffffffffffffffffffffffffffffffffff1602179055506020820151816001015560408201518160020155606082015181600301556080820151816004015560a0820151816005015560c0820151816006015560e082015181600701556101008201518160080155610120820151816009015561014082015181600a015561016082015181600b0160006101000a81548160ff0219169083600481111561148857611487612689565b5b021790555061018082015181600b0160016101000a81548160ff021916908315150217905550905050816114ba611891565b600e0160008a815260200190815260200160002060008201518160000160006101000a81548160ff02191690831515021790555060208201518160010155604082015181600201556060820151816003015560808201518160040160006101000a81548160ff0219169083600381111561153757611536612689565b5b021790555060a0820151816005015560c0820151816006015560e0820151816007015561010082015181600801556101208201518160090160006101000a81548160ff02191690831515021790555061014082015181600a015561016082015181600b0160006101000a81548160ff02191690831515021790555061018082015181600c0155905050806115c9611891565b600f0160008a815260200190815260200160002060008201518160000160006101000a81548160ff0219169083151502179055506020820151816001015560408201518160020160006101000a81548173ffffffffffffffffffffffffffffffffffffffff021916908373ffffffffffffffffffffffffffffffffffffffff1602179055506060820151816003015560808201518160040160006101000a81548173ffffffffffffffffffffffffffffffffffffffff021916908373ffffffffffffffffffffffffffffffffffffffff1602179055509050507f2246671d1302c2b118c9a4288e96c893947032c469b02476b8a67ea4c18342b48888886040516116d593929190613265565b60405180910390a15050505050505050565b6116ef6117e7565b806116f8611891565b6001018190555050565b61170a6117e7565b611712611891565b600f01600083815260200190815260200160002060000160009054906101000a900460ff1615611777576040517f08c379a000000000000000000000000000000000000000000000000000000000815260040161176e906132e8565b60405180910390fd5b73__LibPlanet_____________________________631f59767e838360006040518463ffffffff1660e01b81526004016117b393929190613308565b60006040518083038186803b1580156117cb57600080fd5b505af41580156117df573d6000803e3d6000fd5b505050505050565b6117ef6118a0565b60040160009054906101000a900473ffffffffffffffffffffffffffffffffffffffff1673ffffffffffffffffffffffffffffffffffffffff163373ffffffffffffffffffffffffffffffffffffffff1614611880576040517f08c379a0000000000000000000000000000000000000000000000000000000008152600401611877906133b1565b60405180910390fd5b565b600061188c6118cd565b905090565b600061189b6118fa565b905090565b6000807fc8fcad8db84d3cc18b4c41d551ea0ee66dd599cde068d998e57d5e09332c131c90508091505090565b6000807f5fb65bb339c6bd3f2609a7342e6cb046e09f3e40f45242a5971904b021b5bb5390508091505090565b6000807fcb7f1a525606efcbba7baaf9b0b55c468d0fd558cbf767967f538834dfa1232e90508091505090565b6000604051905090565b600080fd5b6000819050919050565b61194981611936565b811461195457600080fd5b50565b60008135905061196681611940565b92915050565b60006020828403121561198257611981611931565b5b600061199084828501611957565b91505092915050565b600073ffffffffffffffffffffffffffffffffffffffff82169050919050565b60006119c482611999565b9050919050565b6119d4816119b9565b81146119df57600080fd5b50565b6000813590506119f1816119cb565b92915050565b600080fd5b6000601f19601f8301169050919050565b7f4e487b7100000000000000000000000000000000000000000000000000000000600052604160045260246000fd5b611a45826119fc565b810181811067ffffffffffffffff82111715611a6457611a63611a0d565b5b80604052505050565b6000611a77611927565b9050611a838282611a3c565b919050565b600067ffffffffffffffff821115611aa357611aa2611a0d565b5b602082029050919050565b600080fd5b6000611ac6611ac184611a88565b611a6d565b90508060208402830185811115611ae057611adf611aae565b5b835b81811015611b095780611af58882611957565b845260208401935050602081019050611ae2565b5050509392505050565b600082601f830112611b2857611b276119f7565b5b6002611b35848285611ab3565b91505092915050565b600067ffffffffffffffff821115611b5957611b58611a0d565b5b602082029050919050565b6000611b77611b7284611b3e565b611a6d565b90508060408402830185811115611b9157611b90611aae565b5b835b81811015611bba5780611ba68882611b13565b845260208401935050604081019050611b93565b5050509392505050565b600082601f830112611bd957611bd86119f7565b5b6002611be6848285611b64565b91505092915050565b600067ffffffffffffffff821115611c0a57611c09611a0d565b5b602082029050919050565b6000611c28611c2384611bef565b611a6d565b90508060208402830185811115611c4257611c41611aae565b5b835b81811015611c6b5780611c578882611957565b845260208401935050602081019050611c44565b5050509392505050565b600082601f830112611c8a57611c896119f7565b5b6008611c97848285611c15565b91505092915050565b60008060008060006102208688031215611cbd57611cbc611931565b5b6000611ccb888289016119e2565b9550506020611cdc88828901611b13565b9450506060611ced88828901611bc4565b93505060e0611cfe88828901611b13565b925050610120611d1088828901611c75565b9150509295509295909350565b60008060408385031215611d3457611d33611931565b5b6000611d42858286016119e2565b9250506020611d5385828601611957565b9150509250929050565b60008060408385031215611d7457611d73611931565b5b6000611d8285828601611957565b9250506020611d93858286016119e2565b9150509250929050565b60008115159050919050565b611db281611d9d565b8114611dbd57600080fd5b50565b600081359050611dcf81611da9565b92915050565b600060208284031215611deb57611dea611931565b5b6000611df984828501611dc0565b91505092915050565b600080fd5b60058110611e1457600080fd5b50565b600081359050611e2681611e07565b92915050565b600060a08284031215611e4257611e41611e02565b5b611e4c60a0611a6d565b90506000611e5c84828501611957565b6000830152506020611e7084828501611957565b6020830152506040611e8484828501611957565b6040830152506060611e9884828501611e17565b6060830152506080611eac84828501611dc0565b60808301525092915050565b600060a08284031215611ece57611ecd611931565b5b6000611edc84828501611e2c565b91505092915050565b600f8110611ef257600080fd5b50565b600081359050611f0481611ee5565b92915050565b600080600060608486031215611f2357611f22611931565b5b6000611f3186828701611957565b9350506020611f42868287016119e2565b9250506040611f5386828701611ef5565b9150509250925092565b60008060408385031215611f7457611f73611931565b5b6000611f8285828601611957565b9250506020611f9385828601611957565b9150509250929050565b7f4e487b7100000000000000000000000000000000000000000000000000000000600052603260045260246000fd5b600060029050919050565b600081905092915050565b6000819050919050565b611ff581611936565b82525050565b60006120078383611fec565b60208301905092915050565b6000602082019050919050565b61202981611fcc565b6120338184611fd7565b925061203e82611fe2565b8060005b8381101561206f5781516120568782611ffb565b965061206183612013565b925050600181019050612042565b505050505050565b600060029050919050565b600081905092915050565b6000819050919050565b600081905092915050565b6120ab81611fcc565b6120b58184612097565b92506120c082611fe2565b8060005b838110156120f15781516120d88782611ffb565b96506120e383612013565b9250506001810190506120c4565b505050505050565b600061210583836120a2565b60408301905092915050565b6000602082019050919050565b61212781612077565b6121318184612082565b925061213c8261208d565b8060005b8381101561216d57815161215487826120f9565b965061215f83612111565b925050600181019050612140565b505050505050565b600060089050919050565b600081905092915050565b6000819050919050565b6000602082019050919050565b6121ab81612175565b6121b58184612180565b92506121c08261218b565b8060005b838110156121f15781516121d88782611ffb565b96506121e383612195565b9250506001810190506121c4565b505050505050565b61220281611d9d565b82525050565b60006102208201905061221e6000830188612020565b61222b604083018761211e565b61223860c0830186612020565b6122466101008301856121a2565b6122546102008301846121f9565b9695505050505050565b600082825260208201905092915050565b7f47616d6520697320616c726561647920756e7061757365640000000000000000600082015250565b60006122a560188361225e565b91506122b08261226f565b602082019050919050565b600060208201905081810360008301526122d481612298565b9050919050565b6122e481611d9d565b82525050565b60006020820190506122ff60008301846122db565b92915050565b7f706c6179657220646f6573206e6f742065786973740000000000000000000000600082015250565b600061233b60158361225e565b915061234682612305565b602082019050919050565b6000602082019050818103600083015261236a8161232e565b9050919050565b7f747269656420746f20646564756374206d7563682073636f7265000000000000600082015250565b60006123a7601a8361225e565b91506123b282612371565b602082019050919050565b600060208201905081810360008301526123d68161239a565b9050919050565b7f4e487b7100000000000000000000000000000000000000000000000000000000600052601160045260246000fd5b600061241782611936565b915061242283611936565b925082821015612435576124346123dd565b5b828203905092915050565b61244981611936565b82525050565b612458816119b9565b82525050565b60006040820190506124736000830185612440565b612480602083018461244f565b9392505050565b7f47616d6520697320616c72656164792070617573656400000000000000000000600082015250565b60006124bd60168361225e565b91506124c882612487565b602082019050919050565b600060208201905081810360008301526124ec816124b0565b9050919050565b7f61646d696e2063616e206e6f206c6f6e6765722061646420706c616e65747300600082015250565b6000612529601f8361225e565b9150612534826124f3565b602082019050919050565b600060208201905081810360008301526125588161251c565b9050919050565b61256881611936565b82525050565b6000602082019050612583600083018461255f565b92915050565b60008151905061259881611da9565b92915050565b6000602082840312156125b4576125b3611931565b5b60006125c284828501612589565b91505092915050565b7f4e6f7420612076616c696420706c616e6574206c6f636174696f6e0000000000600082015250565b6000612601601b8361225e565b915061260c826125cb565b602082019050919050565b60006020820190508181036000830152612630816125f4565b9050919050565b6004811061264457600080fd5b50565b60008151905061265681612637565b92915050565b60006020828403121561267257612671611931565b5b600061268084828501612647565b91505092915050565b7f4e487b7100000000000000000000000000000000000000000000000000000000600052602160045260246000fd5b600481106126c9576126c8612689565b5b50565b60008190506126da826126b8565b919050565b60006126ea826126cc565b9050919050565b6126fa816126df565b82525050565b6005811061271157612710612689565b5b50565b600081905061272282612700565b919050565b600061273282612714565b9050919050565b61274281612727565b82525050565b61275181611d9d565b82525050565b60e08201600082015161276d6000850182611fec565b5060208201516127806020850182611fec565b5060408201516127936040850182611fec565b5060608201516127a66060850182611fec565b5060808201516127b960808501826126f1565b5060a08201516127cc60a0850182612739565b5060c08201516127df60c0850182612748565b50505050565b600060e0820190506127fa6000830184612757565b92915050565b600061280b82611936565b915061281683611936565b9250827fffffffffffffffffffffffffffffffffffffffffffffffffffffffffffffffff0382111561284b5761284a6123dd565b5b828201905092915050565b600060208201905061286b6000830184612440565b92915050565b7f706c616e6574206973206e6f7420696e697469616c697a656400000000000000600082015250565b60006128a760198361225e565b91506128b282612871565b602082019050919050565b600060208201905081810360008301526128d68161289a565b9050919050565b600f81106128ee576128ed612689565b5b50565b60008190506128ff826128dd565b919050565b600061290f826128f1565b9050919050565b61291f81612904565b82525050565b600060208201905061293a6000830184612916565b92915050565b7f61727469666163742074797065206d757374206265206120737061636520736860008201527f6970000000000000000000000000000000000000000000000000000000000000602082015250565b600061299c60228361225e565b91506129a782612940565b604082019050919050565b600060208201905081810360008301526129cb8161298f565b9050919050565b6129db816119b9565b82525050565b60006060820190506129f6600083018661255f565b612a0360208301856129d2565b612a106040830184612916565b949350505050565b600081519050612a2781611940565b92915050565b600060208284031215612a4357612a42611931565b5b6000612a5184828501612a18565b91505092915050565b60068110612a6b57612a6a612689565b5b50565b6000819050612a7c82612a5a565b919050565b6000612a8c82612a6e565b9050919050565b612a9c81612a81565b82525050565b600b8110612ab357612ab2612689565b5b50565b6000819050612ac482612aa2565b919050565b6000612ad482612ab6565b9050919050565b612ae481612ac9565b82525050565b612af3816119b9565b82525050565b612b0281612904565b82525050565b6101a082016000820151612b1f6000850182612748565b506020820151612b326020850182611fec565b506040820151612b456040850182611fec565b506060820151612b586060850182612a93565b506080820151612b6b6080850182612adb565b5060a0820151612b7e60a0850182611fec565b5060c0820151612b9160c0850182612aea565b5060e0820151612ba460e0850182612af9565b50610100820151612bb9610100850182611fec565b50610120820151612bce610120850182611fec565b50610140820151612be3610140850182611fec565b50610160820151612bf8610160850182611fec565b50610180820151612c0d610180850182612aea565b50505050565b6101a082016000820151612c2a6000850182612aea565b506020820151612c3d6020850182611fec565b506040820151612c506040850182611fec565b506060820151612c636060850182611fec565b506080820151612c766080850182611fec565b5060a0820151612c8960a0850182611fec565b5060c0820151612c9c60c0850182611fec565b5060e0820151612caf60e0850182611fec565b50610100820151612cc4610100850182611fec565b50610120820151612cd9610120850182611fec565b50610140820151612cee610140850182611fec565b50610160820151612d03610160850182612739565b50610180820151612d18610180850182612748565b50505050565b6101a082016000820151612d356000850182612748565b506020820151612d486020850182611fec565b506040820151612d5b6040850182611fec565b506060820151612d6e6060850182611fec565b506080820151612d8160808501826126f1565b5060a0820151612d9460a0850182611fec565b5060c0820151612da760c0850182611fec565b5060e0820151612dba60e0850182611fec565b50610100820151612dcf610100850182611fec565b50610120820151612de4610120850182612748565b50610140820151612df9610140850182611fec565b50610160820151612e0e610160850182612748565b50610180820151612e23610180850182611fec565b50505050565b60a082016000820151612e3f6000850182612748565b506020820151612e526020850182611fec565b506040820151612e656040850182612aea565b506060820151612e786060850182611fec565b506080820151612e8b6080850182612aea565b50505050565b600061058082019050612ea76000830187612b08565b612eb56101a0830186612c13565b612ec3610340830185612d1e565b612ed16104e0830184612e29565b95945050505050565b600081519050612ee9816119cb565b92915050565b600081519050612efe81611e07565b92915050565b60006101a08284031215612f1b57612f1a611e02565b5b612f266101a0611a6d565b90506000612f3684828501612eda565b6000830152506020612f4a84828501612a18565b6020830152506040612f5e84828501612a18565b6040830152506060612f7284828501612a18565b6060830152506080612f8684828501612a18565b60808301525060a0612f9a84828501612a18565b60a08301525060c0612fae84828501612a18565b60c08301525060e0612fc284828501612a18565b60e083015250610100612fd784828501612a18565b61010083015250610120612fed84828501612a18565b6101208301525061014061300384828501612a18565b6101408301525061016061301984828501612eef565b6101608301525061018061302f84828501612589565b6101808301525092915050565b60006101a0828403121561305357613052611e02565b5b61305e6101a0611a6d565b9050600061306e84828501612589565b600083015250602061308284828501612a18565b602083015250604061309684828501612a18565b60408301525060606130aa84828501612a18565b60608301525060806130be84828501612647565b60808301525060a06130d284828501612a18565b60a08301525060c06130e684828501612a18565b60c08301525060e06130fa84828501612a18565b60e08301525061010061310f84828501612a18565b6101008301525061012061312584828501612589565b6101208301525061014061313b84828501612a18565b6101408301525061016061315184828501612589565b6101608301525061018061316784828501612a18565b6101808301525092915050565b600060a0828403121561318a57613189611e02565b5b61319460a0611a6d565b905060006131a484828501612589565b60008301525060206131b884828501612a18565b60208301525060406131cc84828501612eda565b60408301525060606131e084828501612a18565b60608301525060806131f484828501612eda565b60808301525092915050565b60008060006103e0848603121561321a57613219611931565b5b600061322886828701612f04565b9350506101a061323a8682870161303c565b92505061034061324c86828701613174565b9150509250925092565b61325f81612904565b82525050565b600060608201905061327a6000830186612440565b613287602083018561244f565b6132946040830184613256565b949350505050565b7f706c616e657420697320616c726561647920696e697469616c697a6564000000600082015250565b60006132d2601d8361225e565b91506132dd8261329c565b602082019050919050565b60006020820190508181036000830152613301816132c5565b9050919050565b600060608201905061331d600083018661255f565b61332a602083018561255f565b61333760408301846121f9565b949350505050565b7f4c69624469616d6f6e643a204d75737420626520636f6e7472616374206f776e60008201527f6572000000000000000000000000000000000000000000000000000000000000602082015250565b600061339b60228361225e565b91506133a68261333f565b604082019050919050565b600060208201905081810360008301526133ca8161338e565b905091905056fea2646970667358221220986dc59f3e2e0d1dde0837046fd8a8c6eea7d8b6616819ccf18d3dfbb878827c64736f6c634300080d0033",
  "immutableReferences": {},
  "source": "// SPDX-License-Identifier: GPL-3.0\npragma solidity ^0.8.0;\n\n// Library imports\nimport {LibDiamond} from \"../vendor/libraries/LibDiamond.sol\";\nimport {LibGameUtils} from \"../libraries/LibGameUtils.sol\";\nimport {LibPlanet} from \"../libraries/LibPlanet.sol\";\nimport {LibArtifactUtils} from \"../libraries/LibArtifactUtils.sol\";\n\n// Storage imports\nimport {WithStorage} from \"../libraries/LibStorage.sol\";\n\n// Type imports\nimport {\n    SpaceType,\n    DFPInitPlanetArgs,\n    AdminCreatePlanetArgs,\n    Artifact,\n    ArtifactType,\n    Player,\n    Planet,\n    PlanetExtendedInfo,\n    PlanetExtendedInfo2\n} from \"../DFTypes.sol\";\n\ncontract DFAdminFacet is WithStorage {\n    event AdminOwnershipChanged(uint256 loc, address newOwner);\n    event AdminPlanetCreated(uint256 loc);\n    event AdminGiveSpaceship(uint256 loc, address owner, ArtifactType artifactType);\n    event PauseStateChanged(bool paused);\n\n    /////////////////////////////\n    /// Administrative Engine ///\n    /////////////////////////////\n\n    modifier onlyAdmin() {\n        LibDiamond.enforceIsContractOwner();\n        _;\n    }\n\n    function pause() public onlyAdmin {\n        require(!gs().paused, \"Game is already paused\");\n        gs().paused = true;\n        emit PauseStateChanged(true);\n    }\n\n    function unpause() public onlyAdmin {\n        require(gs().paused, \"Game is already unpaused\");\n        gs().paused = false;\n        emit PauseStateChanged(false);\n    }\n\n    /**\n     * Only works for initialized planets.\n     */\n    function setOwner(uint256 planetId, address newOwner) public onlyAdmin {\n        gs().planets[planetId].owner = newOwner;\n        emit AdminOwnershipChanged(planetId, newOwner);\n    }\n\n    function deductScore(address playerAddress, uint256 amount) public onlyAdmin {\n        Player storage player = gs().players[playerAddress];\n\n        require(player.isInitialized, \"player does not exist\");\n        require(amount <= player.score, \"tried to deduct much score\");\n\n        player.score -= amount;\n    }\n\n    function addScore(address playerAddress, uint256 amount) public onlyAdmin {\n        Player storage player = gs().players[playerAddress];\n\n        require(player.isInitialized, \"player does not exist\");\n\n        player.score += amount;\n    }\n\n    /**\n     * Sets the owner of the given planet, even if it's not initialized (which is why\n     * it requires the same snark arguments as DFCoreFacet#initializePlanet).\n     */\n    function safeSetOwner(\n        address newOwner,\n        uint256[2] memory _a,\n        uint256[2][2] memory _b,\n        uint256[2] memory _c,\n        uint256[8] memory _input\n    ) public onlyAdmin {\n        uint256 planetId = _input[0];\n\n        if (!gs().planetsExtendedInfo[planetId].isInitialized) {\n            LibPlanet.initializePlanet(_a, _b, _c, _input, false);\n        }\n\n        gs().planets[planetId].silver = gs().planets[planetId].silverCap;\n        gs().planets[planetId].population = gs().planets[planetId].populationCap;\n\n        setOwner(planetId, newOwner);\n    }\n\n    function changeWorldRadiusMin(uint256 _newConstant) public onlyAdmin {\n        gameConstants().WORLD_RADIUS_MIN = _newConstant;\n        LibGameUtils.updateWorldRadius();\n    }\n\n    function adminSetWorldRadius(uint256 _newRadius) public onlyAdmin {\n        gs().worldRadius = _newRadius;\n    }\n\n    function changeLocationRevealCooldown(uint256 newCooldown) public onlyAdmin {\n        gameConstants().LOCATION_REVEAL_COOLDOWN = newCooldown;\n    }\n\n    function withdraw() public onlyAdmin {\n        // TODO: Don't send to msg.sender, instead send to contract admin\n        payable(msg.sender).transfer(address(this).balance);\n    }\n\n    function setTokenMintEndTime(uint256 newTokenMintEndTime) public onlyAdmin {\n        gs().TOKEN_MINT_END_TIMESTAMP = newTokenMintEndTime;\n    }\n\n    function createPlanet(AdminCreatePlanetArgs memory args) public onlyAdmin {\n        require(gameConstants().ADMIN_CAN_ADD_PLANETS, \"admin can no longer add planets\");\n        if (args.requireValidLocationId) {\n            require(LibGameUtils._locationIdValid(args.location), \"Not a valid planet location\");\n        }\n        SpaceType spaceType = LibGameUtils.spaceTypeFromPerlin(args.perlin);\n        LibPlanet._initializePlanet(\n            DFPInitPlanetArgs(\n                args.location,\n                args.perlin,\n                args.level,\n                gameConstants().TIME_FACTOR_HUNDREDTHS,\n                spaceType,\n                args.planetType,\n                false\n            )\n        );\n        gs().planetIds.push(args.location);\n        gs().initializedPlanetCountByLevel[args.level] += 1;\n\n        emit AdminPlanetCreated(args.location);\n    }\n\n    function adminGiveSpaceShip(\n        uint256 locationId,\n        address owner,\n        ArtifactType artifactType\n    ) public onlyAdmin {\n        require(gs().planetsExtendedInfo2[locationId].isInitialized, \"planet is not initialized\");\n        require(LibArtifactUtils.isSpaceship(artifactType), \"artifact type must be a space ship\");\n\n        uint256 shipId = LibArtifactUtils.createAndPlaceSpaceship(locationId, owner, artifactType);\n        Artifact memory artifact = gs().artifacts[shipId];\n        Planet memory planet = gs().planets[locationId];\n        PlanetExtendedInfo memory planetExtendedInfo = gs().planetsExtendedInfo[locationId];\n        PlanetExtendedInfo2 memory planetExtendedInfo2 = gs().planetsExtendedInfo2[locationId];\n\n        (planet, planetExtendedInfo, planetExtendedInfo2) = LibPlanet.applySpaceshipArrive(\n            artifact,\n            planet,\n            planetExtendedInfo,\n            planetExtendedInfo2\n        );\n\n        gs().planets[locationId] = planet;\n        gs().planetsExtendedInfo[locationId] = planetExtendedInfo;\n        gs().planetsExtendedInfo2[locationId] = planetExtendedInfo2;\n\n        emit AdminGiveSpaceship(locationId, owner, artifactType);\n    }\n\n    function adminInitializePlanet(uint256 locationId, uint256 perlin) public onlyAdmin {\n        require(\n            !gs().planetsExtendedInfo2[locationId].isInitialized,\n            \"planet is already initialized\"\n        );\n\n        LibPlanet.initializePlanetWithDefaults(locationId, perlin, false);\n    }\n\n    function setPlanetTransferEnabled(bool enabled) public onlyAdmin {\n        gameConstants().PLANET_TRANSFER_ENABLED = enabled;\n    }\n}\n",
  "sourcePath": "/home/terra/opensource/tosca-chain/smart-contract-example/contracts/facets/DFAdminFacet.sol",
  "compiler": {
    "name": "solc",
    "version": "0.8.13+commit.abaa5c0e.Emscripten.clang"
  },
  "schemaVersion": "3.4.7",
  "updatedAt": "2022-04-30T15:27:25.718Z",
  "devdoc": {
    "kind": "dev",
    "methods": {},
    "version": 1
  },
  "userdoc": {
    "kind": "user",
    "methods": {
      "safeSetOwner(address,uint256[2],uint256[2][2],uint256[2],uint256[8])": {
        "notice": "Sets the owner of the given planet, even if it's not initialized (which is why it requires the same snark arguments as DFCoreFacet#initializePlanet)."
      },
      "setOwner(uint256,address)": {
        "notice": "Only works for initialized planets."
      }
    },
    "version": 1
  }
}