{
  "contractName": "DFArtifactFacet",
  "abi": [
    {
      "anonymous": false,
      "inputs": [
        {
          "indexed": true,
          "internalType": "address",
          "name": "owner",
          "type": "address"
        },
        {
          "indexed": true,
          "internalType": "address",
          "name": "operator",
          "type": "address"
        },
        {
          "indexed": true,
          "internalType": "uint256",
          "name": "tokenId",
          "type": "uint256"
        }
      ],
      "name": "Approval",
      "type": "event"
    },
    {
      "anonymous": false,
      "inputs": [
        {
          "indexed": true,
          "internalType": "address",
          "name": "owner",
          "type": "address"
        },
        {
          "indexed": true,
          "internalType": "address",
          "name": "operator",
          "type": "address"
        },
        {
          "indexed": false,
          "internalType": "bool",
          "name": "approved",
          "type": "bool"
        }
      ],
      "name": "ApprovalForAll",
      "type": "event"
    },
    {
      "anonymous": false,
      "inputs": [
        {
          "indexed": false,
          "internalType": "address",
          "name": "player",
          "type": "address"
        },
        {
          "indexed": false,
          "internalType": "uint256",
          "name": "artifactId",
          "type": "uint256"
        },
        {
          "indexed": false,
          "internalType": "uint256",
          "name": "loc",
          "type": "uint256"
        }
      ],
      "name": "ArtifactActivated",
      "type": "event"
    },
    {
      "anonymous": false,
      "inputs": [
        {
          "indexed": false,
          "internalType": "address",
          "name": "player",
          "type": "address"
        },
        {
          "indexed": false,
          "internalType": "uint256",
          "name": "artifactId",
          "type": "uint256"
        },
        {
          "indexed": false,
          "internalType": "uint256",
          "name": "loc",
          "type": "uint256"
        }
      ],
      "name": "ArtifactDeactivated",
      "type": "event"
    },
    {
      "anonymous": false,
      "inputs": [
        {
          "indexed": false,
          "internalType": "address",
          "name": "player",
          "type": "address"
        },
        {
          "indexed": false,
          "internalType": "uint256",
          "name": "artifactId",
          "type": "uint256"
        },
        {
          "indexed": false,
          "internalType": "uint256",
          "name": "loc",
          "type": "uint256"
        }
      ],
      "name": "ArtifactDeposited",
      "type": "event"
    },
    {
      "anonymous": false,
      "inputs": [
        {
          "indexed": false,
          "internalType": "address",
          "name": "player",
          "type": "address"
        },
        {
          "indexed": false,
          "internalType": "uint256",
          "name": "artifactId",
          "type": "uint256"
        },
        {
          "indexed": false,
          "internalType": "uint256",
          "name": "loc",
          "type": "uint256"
        }
      ],
      "name": "ArtifactFound",
      "type": "event"
    },
    {
      "anonymous": false,
      "inputs": [
        {
          "indexed": false,
          "internalType": "address",
          "name": "player",
          "type": "address"
        },
        {
          "indexed": false,
          "internalType": "uint256",
          "name": "artifactId",
          "type": "uint256"
        },
        {
          "indexed": false,
          "internalType": "uint256",
          "name": "loc",
          "type": "uint256"
        }
      ],
      "name": "ArtifactWithdrawn",
      "type": "event"
    },
    {
      "anonymous": false,
      "inputs": [
        {
          "indexed": false,
          "internalType": "address",
          "name": "player",
          "type": "address"
        },
        {
          "indexed": false,
          "internalType": "uint256",
          "name": "loc",
          "type": "uint256"
        }
      ],
      "name": "PlanetProspected",
      "type": "event"
    },
    {
      "anonymous": false,
      "inputs": [
        {
          "indexed": true,
          "internalType": "address",
          "name": "from",
          "type": "address"
        },
        {
          "indexed": true,
          "internalType": "address",
          "name": "to",
          "type": "address"
        },
        {
          "indexed": true,
          "internalType": "uint256",
          "name": "tokenId",
          "type": "uint256"
        }
      ],
      "name": "Transfer",
      "type": "event"
    },
    {
      "inputs": [
        {
          "internalType": "address",
          "name": "operator",
          "type": "address"
        },
        {
          "internalType": "uint256",
          "name": "tokenId",
          "type": "uint256"
        }
      ],
      "name": "approve",
      "outputs": [],
      "stateMutability": "payable",
      "type": "function"
    },
    {
      "inputs": [
        {
          "internalType": "address",
          "name": "account",
          "type": "address"
        }
      ],
      "name": "balanceOf",
      "outputs": [
        {
          "internalType": "uint256",
          "name": "",
          "type": "uint256"
        }
      ],
      "stateMutability": "view",
      "type": "function"
    },
    {
      "inputs": [
        {
          "internalType": "uint256",
          "name": "tokenId",
          "type": "uint256"
        }
      ],
      "name": "getApproved",
      "outputs": [
        {
          "internalType": "address",
          "name": "",
          "type": "address"
        }
      ],
      "stateMutability": "view",
      "type": "function"
    },
    {
      "inputs": [
        {
          "internalType": "address",
          "name": "account",
          "type": "address"
        },
        {
          "internalType": "address",
          "name": "operator",
          "type": "address"
        }
      ],
      "name": "isApprovedForAll",
      "outputs": [
        {
          "internalType": "bool",
          "name": "",
          "type": "bool"
        }
      ],
      "stateMutability": "view",
      "type": "function"
    },
    {
      "inputs": [],
      "name": "name",
      "outputs": [
        {
          "internalType": "string",
          "name": "",
          "type": "string"
        }
      ],
      "stateMutability": "view",
      "type": "function"
    },
    {
      "inputs": [
        {
          "internalType": "uint256",
          "name": "tokenId",
          "type": "uint256"
        }
      ],
      "name": "ownerOf",
      "outputs": [
        {
          "internalType": "address",
          "name": "",
          "type": "address"
        }
      ],
      "stateMutability": "view",
      "type": "function"
    },
    {
      "inputs": [
        {
          "internalType": "address",
          "name": "from",
          "type": "address"
        },
        {
          "internalType": "address",
          "name": "to",
          "type": "address"
        },
        {
          "internalType": "uint256",
          "name": "tokenId",
          "type": "uint256"
        }
      ],
      "name": "safeTransferFrom",
      "outputs": [],
      "stateMutability": "payable",
      "type": "function"
    },
    {
      "inputs": [
        {
          "internalType": "address",
          "name": "from",
          "type": "address"
        },
        {
          "internalType": "address",
          "name": "to",
          "type": "address"
        },
        {
          "internalType": "uint256",
          "name": "tokenId",
          "type": "uint256"
        },
        {
          "internalType": "bytes",
          "name": "data",
          "type": "bytes"
        }
      ],
      "name": "safeTransferFrom",
      "outputs": [],
      "stateMutability": "payable",
      "type": "function"
    },
    {
      "inputs": [
        {
          "internalType": "address",
          "name": "operator",
          "type": "address"
        },
        {
          "internalType": "bool",
          "name": "status",
          "type": "bool"
        }
      ],
      "name": "setApprovalForAll",
      "outputs": [],
      "stateMutability": "nonpayable",
      "type": "function"
    },
    {
      "inputs": [
        {
          "internalType": "bytes4",
          "name": "interfaceId",
          "type": "bytes4"
        }
      ],
      "name": "supportsInterface",
      "outputs": [
        {
          "internalType": "bool",
          "name": "",
          "type": "bool"
        }
      ],
      "stateMutability": "view",
      "type": "function"
    },
    {
      "inputs": [],
      "name": "symbol",
      "outputs": [
        {
          "internalType": "string",
          "name": "",
          "type": "string"
        }
      ],
      "stateMutability": "view",
      "type": "function"
    },
    {
      "inputs": [
        {
          "internalType": "uint256",
          "name": "index",
          "type": "uint256"
        }
      ],
      "name": "tokenByIndex",
      "outputs": [
        {
          "internalType": "uint256",
          "name": "",
          "type": "uint256"
        }
      ],
      "stateMutability": "view",
      "type": "function"
    },
    {
      "inputs": [
        {
          "internalType": "address",
          "name": "owner",
          "type": "address"
        },
        {
          "internalType": "uint256",
          "name": "index",
          "type": "uint256"
        }
      ],
      "name": "tokenOfOwnerByIndex",
      "outputs": [
        {
          "internalType": "uint256",
          "name": "",
          "type": "uint256"
        }
      ],
      "stateMutability": "view",
      "type": "function"
    },
    {
      "inputs": [
        {
          "internalType": "uint256",
          "name": "tokenId",
          "type": "uint256"
        }
      ],
      "name": "tokenURI",
      "outputs": [
        {
          "internalType": "string",
          "name": "",
          "type": "string"
        }
      ],
      "stateMutability": "view",
      "type": "function"
    },
    {
      "inputs": [],
      "name": "totalSupply",
      "outputs": [
        {
          "internalType": "uint256",
          "name": "",
          "type": "uint256"
        }
      ],
      "stateMutability": "view",
      "type": "function"
    },
    {
      "inputs": [
        {
          "internalType": "address",
          "name": "from",
          "type": "address"
        },
        {
          "internalType": "address",
          "name": "to",
          "type": "address"
        },
        {
          "internalType": "uint256",
          "name": "tokenId",
          "type": "uint256"
        }
      ],
      "name": "transferFrom",
      "outputs": [],
      "stateMutability": "payable",
      "type": "function"
    },
    {
      "inputs": [
        {
          "components": [
            {
              "internalType": "uint256",
              "name": "tokenId",
              "type": "uint256"
            },
            {
              "internalType": "address",
              "name": "discoverer",
              "type": "address"
            },
            {
              "internalType": "uint256",
              "name": "planetId",
              "type": "uint256"
            },
            {
              "internalType": "enum ArtifactRarity",
              "name": "rarity",
              "type": "uint8"
            },
            {
              "internalType": "enum Biome",
              "name": "biome",
              "type": "uint8"
            },
            {
              "internalType": "enum ArtifactType",
              "name": "artifactType",
              "type": "uint8"
            },
            {
              "internalType": "address",
              "name": "owner",
              "type": "address"
            },
            {
              "internalType": "address",
              "name": "controller",
              "type": "address"
            }
          ],
          "internalType": "struct DFTCreateArtifactArgs",
          "name": "args",
          "type": "tuple"
        }
      ],
      "name": "createArtifact",
      "outputs": [
        {
          "components": [
            {
              "internalType": "bool",
              "name": "isInitialized",
              "type": "bool"
            },
            {
              "internalType": "uint256",
              "name": "id",
              "type": "uint256"
            },
            {
              "internalType": "uint256",
              "name": "planetDiscoveredOn",
              "type": "uint256"
            },
            {
              "internalType": "enum ArtifactRarity",
              "name": "rarity",
              "type": "uint8"
            },
            {
              "internalType": "enum Biome",
              "name": "planetBiome",
              "type": "uint8"
            },
            {
              "internalType": "uint256",
              "name": "mintedAtTimestamp",
              "type": "uint256"
            },
            {
              "internalType": "address",
              "name": "discoverer",
              "type": "address"
            },
            {
              "internalType": "enum ArtifactType",
              "name": "artifactType",
              "type": "uint8"
            },
            {
              "internalType": "uint256",
              "name": "activations",
              "type": "uint256"
            },
            {
              "internalType": "uint256",
              "name": "lastActivated",
              "type": "uint256"
            },
            {
              "internalType": "uint256",
              "name": "lastDeactivated",
              "type": "uint256"
            },
            {
              "internalType": "uint256",
              "name": "wormholeTo",
              "type": "uint256"
            },
            {
              "internalType": "address",
              "name": "controller",
              "type": "address"
            }
          ],
          "internalType": "struct Artifact",
          "name": "",
          "type": "tuple"
        }
      ],
      "stateMutability": "nonpayable",
      "type": "function"
    },
    {
      "inputs": [
        {
          "internalType": "uint256",
          "name": "tokenId",
          "type": "uint256"
        }
      ],
      "name": "getArtifact",
      "outputs": [
        {
          "components": [
            {
              "internalType": "bool",
              "name": "isInitialized",
              "type": "bool"
            },
            {
              "internalType": "uint256",
              "name": "id",
              "type": "uint256"
            },
            {
              "internalType": "uint256",
              "name": "planetDiscoveredOn",
              "type": "uint256"
            },
            {
              "internalType": "enum ArtifactRarity",
              "name": "rarity",
              "type": "uint8"
            },
            {
              "internalType": "enum Biome",
              "name": "planetBiome",
              "type": "uint8"
            },
            {
              "internalType": "uint256",
              "name": "mintedAtTimestamp",
              "type": "uint256"
            },
            {
              "internalType": "address",
              "name": "discoverer",
              "type": "address"
            },
            {
              "internalType": "enum ArtifactType",
              "name": "artifactType",
              "type": "uint8"
            },
            {
              "internalType": "uint256",
              "name": "activations",
              "type": "uint256"
            },
            {
              "internalType": "uint256",
              "name": "lastActivated",
              "type": "uint256"
            },
            {
              "internalType": "uint256",
              "name": "lastDeactivated",
              "type": "uint256"
            },
            {
              "internalType": "uint256",
              "name": "wormholeTo",
              "type": "uint256"
            },
            {
              "internalType": "address",
              "name": "controller",
              "type": "address"
            }
          ],
          "internalType": "struct Artifact",
          "name": "",
          "type": "tuple"
        }
      ],
      "stateMutability": "view",
      "type": "function"
    },
    {
      "inputs": [
        {
          "internalType": "uint256",
          "name": "idx",
          "type": "uint256"
        }
      ],
      "name": "getArtifactAtIndex",
      "outputs": [
        {
          "components": [
            {
              "internalType": "bool",
              "name": "isInitialized",
              "type": "bool"
            },
            {
              "internalType": "uint256",
              "name": "id",
              "type": "uint256"
            },
            {
              "internalType": "uint256",
              "name": "planetDiscoveredOn",
              "type": "uint256"
            },
            {
              "internalType": "enum ArtifactRarity",
              "name": "rarity",
              "type": "uint8"
            },
            {
              "internalType": "enum Biome",
              "name": "planetBiome",
              "type": "uint8"
            },
            {
              "internalType": "uint256",
              "name": "mintedAtTimestamp",
              "type": "uint256"
            },
            {
              "internalType": "address",
              "name": "discoverer",
              "type": "address"
            },
            {
              "internalType": "enum ArtifactType",
              "name": "artifactType",
              "type": "uint8"
            },
            {
              "internalType": "uint256",
              "name": "activations",
              "type": "uint256"
            },
            {
              "internalType": "uint256",
              "name": "lastActivated",
              "type": "uint256"
            },
            {
              "internalType": "uint256",
              "name": "lastDeactivated",
              "type": "uint256"
            },
            {
              "internalType": "uint256",
              "name": "wormholeTo",
              "type": "uint256"
            },
            {
              "internalType": "address",
              "name": "controller",
              "type": "address"
            }
          ],
          "internalType": "struct Artifact",
          "name": "",
          "type": "tuple"
        }
      ],
      "stateMutability": "view",
      "type": "function"
    },
    {
      "inputs": [
        {
          "internalType": "address",
          "name": "playerId",
          "type": "address"
        }
      ],
      "name": "getPlayerArtifactIds",
      "outputs": [
        {
          "internalType": "uint256[]",
          "name": "",
          "type": "uint256[]"
        }
      ],
      "stateMutability": "view",
      "type": "function"
    },
    {
      "inputs": [
        {
          "internalType": "uint256",
          "name": "tokenId",
          "type": "uint256"
        },
        {
          "internalType": "address",
          "name": "newOwner",
          "type": "address"
        }
      ],
      "name": "transferArtifact",
      "outputs": [],
      "stateMutability": "nonpayable",
      "type": "function"
    },
    {
      "inputs": [
        {
          "components": [
            {
              "internalType": "bool",
              "name": "isInitialized",
              "type": "bool"
            },
            {
              "internalType": "uint256",
              "name": "id",
              "type": "uint256"
            },
            {
              "internalType": "uint256",
              "name": "planetDiscoveredOn",
              "type": "uint256"
            },
            {
              "internalType": "enum ArtifactRarity",
              "name": "rarity",
              "type": "uint8"
            },
            {
              "internalType": "enum Biome",
              "name": "planetBiome",
              "type": "uint8"
            },
            {
              "internalType": "uint256",
              "name": "mintedAtTimestamp",
              "type": "uint256"
            },
            {
              "internalType": "address",
              "name": "discoverer",
              "type": "address"
            },
            {
              "internalType": "enum ArtifactType",
              "name": "artifactType",
              "type": "uint8"
            },
            {
              "internalType": "uint256",
              "name": "activations",
              "type": "uint256"
            },
            {
              "internalType": "uint256",
              "name": "lastActivated",
              "type": "uint256"
            },
            {
              "internalType": "uint256",
              "name": "lastDeactivated",
              "type": "uint256"
            },
            {
              "internalType": "uint256",
              "name": "wormholeTo",
              "type": "uint256"
            },
            {
              "internalType": "address",
              "name": "controller",
              "type": "address"
            }
          ],
          "internalType": "struct Artifact",
          "name": "updatedArtifact",
          "type": "tuple"
        }
      ],
      "name": "updateArtifact",
      "outputs": [],
      "stateMutability": "nonpayable",
      "type": "function"
    },
    {
      "inputs": [
        {
          "internalType": "uint256",
          "name": "tokenId",
          "type": "uint256"
        }
      ],
      "name": "doesArtifactExist",
      "outputs": [
        {
          "internalType": "bool",
          "name": "",
          "type": "bool"
        }
      ],
      "stateMutability": "view",
      "type": "function"
    },
    {
      "inputs": [
        {
          "internalType": "uint256[2]",
          "name": "_a",
          "type": "uint256[2]"
        },
        {
          "internalType": "uint256[2][2]",
          "name": "_b",
          "type": "uint256[2][2]"
        },
        {
          "internalType": "uint256[2]",
          "name": "_c",
          "type": "uint256[2]"
        },
        {
          "internalType": "uint256[7]",
          "name": "_input",
          "type": "uint256[7]"
        }
      ],
      "name": "findArtifact",
      "outputs": [],
      "stateMutability": "nonpayable",
      "type": "function"
    },
    {
      "inputs": [
        {
          "internalType": "uint256",
          "name": "locationId",
          "type": "uint256"
        },
        {
          "internalType": "uint256",
          "name": "artifactId",
          "type": "uint256"
        }
      ],
      "name": "depositArtifact",
      "outputs": [],
      "stateMutability": "nonpayable",
      "type": "function"
    },
    {
      "inputs": [
        {
          "internalType": "uint256",
          "name": "locationId",
          "type": "uint256"
        },
        {
          "internalType": "uint256",
          "name": "artifactId",
          "type": "uint256"
        }
      ],
      "name": "withdrawArtifact",
      "outputs": [],
      "stateMutability": "nonpayable",
      "type": "function"
    },
    {
      "inputs": [
        {
          "internalType": "uint256",
          "name": "locationId",
          "type": "uint256"
        },
        {
          "internalType": "uint256",
          "name": "artifactId",
          "type": "uint256"
        },
        {
          "internalType": "uint256",
          "name": "wormholeTo",
          "type": "uint256"
        }
      ],
      "name": "activateArtifact",
      "outputs": [],
      "stateMutability": "nonpayable",
      "type": "function"
    },
    {
      "inputs": [
        {
          "internalType": "uint256",
          "name": "locationId",
          "type": "uint256"
        }
      ],
      "name": "deactivateArtifact",
      "outputs": [],
      "stateMutability": "nonpayable",
      "type": "function"
    },
    {
      "inputs": [
        {
          "internalType": "uint256",
          "name": "locationId",
          "type": "uint256"
        }
      ],
      "name": "prospectPlanet",
      "outputs": [],
      "stateMutability": "nonpayable",
      "type": "function"
    },
    {
      "inputs": [
        {
          "internalType": "uint256",
          "name": "locationId",
          "type": "uint256"
        }
      ],
      "name": "giveSpaceShips",
      "outputs": [],
      "stateMutability": "nonpayable",
      "type": "function"
    },
    {
      "inputs": [
        {
          "components": [
            {
              "internalType": "uint256",
              "name": "tokenId",
              "type": "uint256"
            },
            {
              "internalType": "address",
              "name": "discoverer",
              "type": "address"
            },
            {
              "internalType": "uint256",
              "name": "planetId",
              "type": "uint256"
            },
            {
              "internalType": "enum ArtifactRarity",
              "name": "rarity",
              "type": "uint8"
            },
            {
              "internalType": "enum Biome",
              "name": "biome",
              "type": "uint8"
            },
            {
              "internalType": "enum ArtifactType",
              "name": "artifactType",
              "type": "uint8"
            },
            {
              "internalType": "address",
              "name": "owner",
              "type": "address"
            },
            {
              "internalType": "address",
              "name": "controller",
              "type": "address"
            }
          ],
          "internalType": "struct DFTCreateArtifactArgs",
          "name": "args",
          "type": "tuple"
        }
      ],
      "name": "adminGiveArtifact",
      "outputs": [],
      "stateMutability": "nonpayable",
      "type": "function"
    }
  ],
  "bytecode": "0x608060405234801561001057600080fd5b506170fc80620000216000396000f3fe6080604052600436106101d85760003560e01c806370a0823111610102578063a22cb46511610095578063c918aebd11610064578063c918aebd146106de578063d72fd41114610707578063e76aa42914610744578063e985e9c51461076d576101d8565b8063a22cb46514610633578063b88d4fde1461065c578063c429fee814610678578063c87b56dd146106a1576101d8565b80639513a2ad116100d15780639513a2ad1461058d57806395d89b41146105b657806398d042f2146105e1578063991182da1461060a576101d8565b806370a08231146104c157806370e0f0ce146104fe5780638465ad441461052757806392d93a1214610564576101d8565b80631f94f5401161017a578063314d1ff711610149578063314d1ff7146103ee57806342842e0e1461042b5780634f6ccce7146104475780636352211e14610484576101d8565b80631f94f5401461032f578063204155f41461036c57806323b872dd146103955780632f745c59146103b1576101d8565b8063095ea7b3116101b6578063095ea7b3146102825780630be72d831461029e57806318160ddd146102db5780631cff980414610306576101d8565b806301ffc9a7146101dd57806306fdde031461021a578063081812fc14610245575b600080fd5b3480156101e957600080fd5b5061020460048036038101906101ff91906148cf565b6107aa565b6040516102119190614917565b60405180910390f35b34801561022657600080fd5b5061022f6107cd565b60405161023c91906149cb565b60405180910390f35b34801561025157600080fd5b5061026c60048036038101906102679190614a23565b610868565b6040516102799190614a91565b60405180910390f35b61029c60048036038101906102979190614ad8565b61087a565b005b3480156102aa57600080fd5b506102c560048036038101906102c09190614a23565b61098e565b6040516102d29190614d57565b60405180910390f35b3480156102e757600080fd5b506102f0610b8b565b6040516102fd9190614d82565b60405180910390f35b34801561031257600080fd5b5061032d60048036038101906103289190614a23565b610b9a565b005b34801561033b57600080fd5b5061035660048036038101906103519190614a23565b611268565b6040516103639190614917565b60405180910390f35b34801561037857600080fd5b50610393600480360381019061038e9190614ff0565b61128b565b005b6103af60048036038101906103aa919061501e565b61156e565b005b3480156103bd57600080fd5b506103d860048036038101906103d39190614ad8565b6115d3565b6040516103e59190614d82565b60405180910390f35b3480156103fa57600080fd5b5061041560048036038101906104109190615071565b6115e7565b604051610422919061514d565b60405180910390f35b6104456004803603810190610440919061501e565b611695565b005b34801561045357600080fd5b5061046e60048036038101906104699190614a23565b6116b5565b60405161047b9190614d82565b60405180910390f35b34801561049057600080fd5b506104ab60048036038101906104a69190614a23565b6116c7565b6040516104b89190614a91565b60405180910390f35b3480156104cd57600080fd5b506104e860048036038101906104e39190615071565b6116d9565b6040516104f59190614d82565b60405180910390f35b34801561050a57600080fd5b506105256004803603810190610520919061516f565b6116eb565b005b34801561053357600080fd5b5061054e60048036038101906105499190614a23565b611853565b60405161055b9190614d57565b60405180910390f35b34801561057057600080fd5b5061058b6004803603810190610586919061516f565b611a48565b005b34801561059957600080fd5b506105b460048036038101906105af91906151af565b611bb2565b005b3480156105c257600080fd5b506105cb611d52565b6040516105d891906149cb565b60405180910390f35b3480156105ed57600080fd5b506106086004803603810190610603919061541f565b611ded565b005b34801561061657600080fd5b50610631600480360381019061062c9190615488565b612219565b005b34801561063f57600080fd5b5061065a600480360381019061065591906154c8565b612349565b005b610676600480360381019061067191906155bd565b6124bd565b005b34801561068457600080fd5b5061069f600480360381019061069a919061570a565b612524565b005b3480156106ad57600080fd5b506106c860048036038101906106c39190614a23565b612670565b6040516106d591906149cb565b60405180910390f35b3480156106ea57600080fd5b5061070560048036038101906107009190614a23565b612889565b005b34801561071357600080fd5b5061072e6004803603810190610729919061570a565b6129b3565b60405161073b9190614d57565b60405180910390f35b34801561075057600080fd5b5061076b60048036038101906107669190614a23565b612d82565b005b34801561077957600080fd5b50610794600480360381019061078f9190615738565b612ee5565b6040516107a19190614917565b60405180910390f35b60006107c6826107b8612ef9565b612f2690919063ffffffff16565b9050919050565b60606107d7612f91565b60000180546107e5906157a7565b80601f0160208091040260200160405190810160405280929190818152602001828054610811906157a7565b801561085e5780601f106108335761010080835404028352916020019161085e565b820191906000526020600020905b81548152906001019060200180831161084157829003601f168201915b5050505050905090565b600061087382612fbe565b9050919050565b61088582823461305b565b6000610890826116c7565b90508073ffffffffffffffffffffffffffffffffffffffff168373ffffffffffffffffffffffffffffffffffffffff1603610900576040517f08c379a00000000000000000000000000000000000000000000000000000000081526004016108f79061584a565b60405180910390fd5b8073ffffffffffffffffffffffffffffffffffffffff163373ffffffffffffffffffffffffffffffffffffffff161480610940575061093f8133612ee5565b5b61097f576040517f08c379a0000000000000000000000000000000000000000000000000000000008152600401610976906158dc565b60405180910390fd5b61098983836130ae565b505050565b61099661473a565b61099e613170565b60160160006109ac846116b5565b8152602001908152602001600020604051806101a00160405290816000820160009054906101000a900460ff1615151515815260200160018201548152602001600282015481526020016003820160009054906101000a900460ff166005811115610a1a57610a19614b36565b5b6005811115610a2c57610a2b614b36565b5b81526020016003820160019054906101000a900460ff16600a811115610a5557610a54614b36565b5b600a811115610a6757610a66614b36565b5b8152602001600482015481526020016005820160009054906101000a900473ffffffffffffffffffffffffffffffffffffffff1673ffffffffffffffffffffffffffffffffffffffff1673ffffffffffffffffffffffffffffffffffffffff1681526020016005820160149054906101000a900460ff16600e811115610af057610aef614b36565b5b600e811115610b0257610b01614b36565b5b815260200160068201548152602001600782015481526020016008820154815260200160098201548152602001600a820160009054906101000a900473ffffffffffffffffffffffffffffffffffffffff1673ffffffffffffffffffffffffffffffffffffffff1673ffffffffffffffffffffffffffffffffffffffff16815250509050919050565b6000610b9561317f565b905090565b3073ffffffffffffffffffffffffffffffffffffffff16633af32abf336040518263ffffffff1660e01b8152600401610bd39190614a91565b602060405180830381865afa158015610bf0573d6000803e3d6000fd5b505050506040513d601f19601f82011682018060405250810190610c149190615911565b80610c515750610c22613196565b73ffffffffffffffffffffffffffffffffffffffff163373ffffffffffffffffffffffffffffffffffffffff16145b610c90576040517f08c379a0000000000000000000000000000000000000000000000000000000008152600401610c879061598a565b60405180910390fd5b610c98613170565b60120160003373ffffffffffffffffffffffffffffffffffffffff1673ffffffffffffffffffffffffffffffffffffffff16815260200190815260200160002060070160009054906101000a900460ff1615610d29576040517f08c379a0000000000000000000000000000000000000000000000000000000008152600401610d20906159f6565b60405180910390fd5b3373ffffffffffffffffffffffffffffffffffffffff16610d48613170565b600c01600083815260200190815260200160002060000160009054906101000a900473ffffffffffffffffffffffffffffffffffffffff1673ffffffffffffffffffffffffffffffffffffffff16148015610dcc5750610da6613170565b600c016000828152602001908152602001600020600b0160019054906101000a900460ff165b610e0b576040517f08c379a0000000000000000000000000000000000000000000000000000000008152600401610e0290615a88565b60405180910390fd5b6000610e15613170565b600c01600083815260200190815260200160002060000160009054906101000a900473ffffffffffffffffffffffffffffffffffffffff169050600073__LibArtifactUtils______________________63fa96074f8484600a6040518463ffffffff1660e01b8152600401610e8d93929190615ad5565b602060405180830381865af4158015610eaa573d6000803e3d6000fd5b505050506040513d601f19601f82011682018060405250810190610ece9190615b21565b9050600073__LibArtifactUtils______________________63fa96074f8585600b6040518463ffffffff1660e01b8152600401610f0e93929190615ad5565b602060405180830381865af4158015610f2b573d6000803e3d6000fd5b505050506040513d601f19601f82011682018060405250810190610f4f9190615b21565b9050600073__LibArtifactUtils______________________63fa96074f8686600c6040518463ffffffff1660e01b8152600401610f8f93929190615ad5565b602060405180830381865af4158015610fac573d6000803e3d6000fd5b505050506040513d601f19601f82011682018060405250810190610fd09190615b21565b9050600073__LibArtifactUtils______________________63fa96074f8787600d6040518463ffffffff1660e01b815260040161101093929190615ad5565b602060405180830381865af415801561102d573d6000803e3d6000fd5b505050506040513d601f19601f820116820180604052508101906110519190615b21565b9050600073__LibArtifactUtils______________________63fa96074f8888600e6040518463ffffffff1660e01b815260040161109193929190615ad5565b602060405180830381865af41580156110ae573d6000803e3d6000fd5b505050506040513d601f19601f820116820180604052508101906110d29190615b21565b90507fa6b2e3472225444bec652f00ae684c35bcb609cdb2b3d58ca3596df3d53eca5233868960405161110793929190615b4e565b60405180910390a17fa6b2e3472225444bec652f00ae684c35bcb609cdb2b3d58ca3596df3d53eca5233858960405161114293929190615b4e565b60405180910390a17fa6b2e3472225444bec652f00ae684c35bcb609cdb2b3d58ca3596df3d53eca5233848960405161117d93929190615b4e565b60405180910390a17fa6b2e3472225444bec652f00ae684c35bcb609cdb2b3d58ca3596df3d53eca523383896040516111b893929190615b4e565b60405180910390a17fa6b2e3472225444bec652f00ae684c35bcb609cdb2b3d58ca3596df3d53eca523382896040516111f393929190615b4e565b60405180910390a16001611205613170565b60120160003373ffffffffffffffffffffffffffffffffffffffff1673ffffffffffffffffffffffffffffffffffffffff16815260200190815260200160002060070160006101000a81548160ff02191690831515021790555050505050505050565b6000611284826112766131c9565b6131f690919063ffffffff16565b9050919050565b611293613170565b60000160009054906101000a900473ffffffffffffffffffffffffffffffffffffffff1673ffffffffffffffffffffffffffffffffffffffff163373ffffffffffffffffffffffffffffffffffffffff16148061132257506112f3613196565b73ffffffffffffffffffffffffffffffffffffffff163373ffffffffffffffffffffffffffffffffffffffff16145b611361576040517f08c379a000000000000000000000000000000000000000000000000000000000815260040161135890615bf7565b60405180910390fd5b61137f81602001516113716131c9565b6131f690919063ffffffff16565b6113be576040517f08c379a00000000000000000000000000000000000000000000000000000000081526004016113b590615c89565b60405180910390fd5b806113c7613170565b60160160008360200151815260200190815260200160002060008201518160000160006101000a81548160ff021916908315150217905550602082015181600101556040820151816002015560608201518160030160006101000a81548160ff0219169083600581111561143e5761143d614b36565b5b021790555060808201518160030160016101000a81548160ff0219169083600a81111561146e5761146d614b36565b5b021790555060a0820151816004015560c08201518160050160006101000a81548173ffffffffffffffffffffffffffffffffffffffff021916908373ffffffffffffffffffffffffffffffffffffffff16021790555060e08201518160050160146101000a81548160ff0219169083600e8111156114ef576114ee614b36565b5b0217905550610100820151816006015561012082015181600701556101408201518160080155610160820151816009015561018082015181600a0160006101000a81548173ffffffffffffffffffffffffffffffffffffffff021916908373ffffffffffffffffffffffffffffffffffffffff16021790555090505050565b61157a83838334613216565b611584338261326b565b6115c3576040517f08c379a00000000000000000000000000000000000000000000000000000000081526004016115ba90615d1b565b60405180910390fd5b6115ce83838361335a565b505050565b60006115df8383613583565b905092915050565b606060006115f4836116d9565b905060008167ffffffffffffffff81111561161257611611614da2565b5b6040519080825280602002602001820160405280156116405781602001602082028036833780820191505090505b50905060005b8281101561168a5761165885826115d3565b82828151811061166b5761166a615d3b565b5b602002602001018181525050808061168290615d99565b915050611646565b508092505050919050565b6116b0838383604051806020016040528060008152506124bd565b505050565b60006116c0826135a9565b9050919050565b60006116d2826135cc565b9050919050565b60006116e482613666565b9050919050565b6116f3613170565b60000160149054906101000a900460ff1615611744576040517f08c379a000000000000000000000000000000000000000000000000000000000815260040161173b90615e2d565b60405180910390fd5b73__LibPlanet_____________________________633f324cf3836040518263ffffffff1660e01b815260040161177b9190615e4d565b60006040518083038186803b15801561179357600080fd5b505af41580156117a7573d6000803e3d6000fd5b5050505073__LibArtifactUtils______________________6370e0f0ce83836040518363ffffffff1660e01b81526004016117e4929190615e68565b60006040518083038186803b1580156117fc57600080fd5b505af4158015611810573d6000803e3d6000fd5b505050507f48ad4f34e4e8702c2cce499eb073f2d87362784e89bd342cc867ddbaf6e58c1133828460405161184793929190615b4e565b60405180910390a15050565b61185b61473a565b611863613170565b6016016000838152602001908152602001600020604051806101a00160405290816000820160009054906101000a900460ff1615151515815260200160018201548152602001600282015481526020016003820160009054906101000a900460ff1660058111156118d7576118d6614b36565b5b60058111156118e9576118e8614b36565b5b81526020016003820160019054906101000a900460ff16600a81111561191257611911614b36565b5b600a81111561192457611923614b36565b5b8152602001600482015481526020016005820160009054906101000a900473ffffffffffffffffffffffffffffffffffffffff1673ffffffffffffffffffffffffffffffffffffffff1673ffffffffffffffffffffffffffffffffffffffff1681526020016005820160149054906101000a900460ff16600e8111156119ad576119ac614b36565b5b600e8111156119bf576119be614b36565b5b815260200160068201548152602001600782015481526020016008820154815260200160098201548152602001600a820160009054906101000a900473ffffffffffffffffffffffffffffffffffffffff1673ffffffffffffffffffffffffffffffffffffffff1673ffffffffffffffffffffffffffffffffffffffff16815250509050919050565b611a50613170565b60000160149054906101000a900460ff1615611aa1576040517f08c379a0000000000000000000000000000000000000000000000000000000008152600401611a9890615e2d565b60405180910390fd5b73__LibPlanet_____________________________633f324cf3836040518263ffffffff1660e01b8152600401611ad89190615e4d565b60006040518083038186803b158015611af057600080fd5b505af4158015611b04573d6000803e3d6000fd5b5050505073__LibArtifactUtils______________________63a7d0cc308383306040518463ffffffff1660e01b8152600401611b4393929190615e91565b60006040518083038186803b158015611b5b57600080fd5b505af4158015611b6f573d6000803e3d6000fd5b505050507f59545c981f6380604ebc25911ef7315d4175b9ab6c0fbf03409eb3b17220bb51338284604051611ba693929190615b4e565b60405180910390a15050565b611bba613170565b60000160149054906101000a900460ff1615611c0b576040517f08c379a0000000000000000000000000000000000000000000000000000000008152600401611c0290615e2d565b60405180910390fd5b73__LibPlanet_____________________________633f324cf3846040518263ffffffff1660e01b8152600401611c429190615e4d565b60006040518083038186803b158015611c5a57600080fd5b505af4158015611c6e573d6000803e3d6000fd5b5050505060008114611ce25773__LibPlanet_____________________________633f324cf3826040518263ffffffff1660e01b8152600401611cb19190615e4d565b60006040518083038186803b158015611cc957600080fd5b505af4158015611cdd573d6000803e3d6000fd5b505050505b73__LibArtifactUtils______________________639513a2ad8484846040518463ffffffff1660e01b8152600401611d1d93929190615ec8565b60006040518083038186803b158015611d3557600080fd5b505af4158015611d49573d6000803e3d6000fd5b50505050505050565b6060611d5c612f91565b6001018054611d6a906157a7565b80601f0160208091040260200160405190810160405280929190818152602001828054611d96906157a7565b8015611de35780601f10611db857610100808354040283529160200191611de3565b820191906000526020600020905b815481529060010190602001808311611dc657829003601f168201915b5050505050905090565b611df5613170565b60000160149054906101000a900460ff1615611e46576040517f08c379a0000000000000000000000000000000000000000000000000000000008152600401611e3d90615e2d565b60405180910390fd5b611e4e613170565b600101544210611e93576040517f08c379a0000000000000000000000000000000000000000000000000000000008152600401611e8a90615f4b565b60405180910390fd5b600081600060078110611ea957611ea8615d3b565b5b60200201519050600082600160078110611ec657611ec5615d3b565b5b6020020151905073__LibGameUtils__________________________6326c7e6186040518060a0016040528086600260078110611f0657611f05615d3b565b5b6020020151815260200186600360078110611f2457611f23615d3b565b5b6020020151815260200186600460078110611f4257611f41615d3b565b5b6020020151815260200186600560078110611f6057611f5f615d3b565b5b6020020151815260200186600660078110611f7e57611f7d615d3b565b5b602002015181525060016040518363ffffffff1660e01b8152600401611fa5929190616025565b602060405180830381865af4158015611fc2573d6000803e3d6000fd5b505050506040513d601f19601f82011682018060405250810190611fe69190615911565b5073__LibPlanet_____________________________633f324cf3836040518263ffffffff1660e01b815260040161201e9190615e4d565b60006040518083038186803b15801561203657600080fd5b505af415801561204a573d6000803e3d6000fd5b5050505061205661372d565b60000160009054906101000a900460ff166121295773__Verifier______________________________639e1f3678878787876040518563ffffffff1660e01b81526004016120a89493929190616254565b602060405180830381865af41580156120c5573d6000803e3d6000fd5b505050506040513d601f19601f820116820180604052508101906120e99190615911565b612128576040517f08c379a000000000000000000000000000000000000000000000000000000000815260040161211f9061630d565b60405180910390fd5b5b600073__LibArtifactUtils______________________6376293ff160405180606001604052808681526020018581526020013073ffffffffffffffffffffffffffffffffffffffff168152506040518263ffffffff1660e01b8152600401612192919061637e565b602060405180830381865af41580156121af573d6000803e3d6000fd5b505050506040513d601f19601f820116820180604052508101906121d39190615b21565b90507fa6b2e3472225444bec652f00ae684c35bcb609cdb2b3d58ca3596df3d53eca5233828560405161220893929190615b4e565b60405180910390a150505050505050565b612221613170565b60000160009054906101000a900473ffffffffffffffffffffffffffffffffffffffff1673ffffffffffffffffffffffffffffffffffffffff163373ffffffffffffffffffffffffffffffffffffffff1614806122b05750612281613196565b73ffffffffffffffffffffffffffffffffffffffff163373ffffffffffffffffffffffffffffffffffffffff16145b6122ef576040517f08c379a00000000000000000000000000000000000000000000000000000000081526004016122e690615bf7565b60405180910390fd5b600073ffffffffffffffffffffffffffffffffffffffff168173ffffffffffffffffffffffffffffffffffffffff16036123315761232c8261373c565b612345565b61234461233d836116c7565b828461335a565b5b5050565b3373ffffffffffffffffffffffffffffffffffffffff168273ffffffffffffffffffffffffffffffffffffffff16036123b7576040517f08c379a00000000000000000000000000000000000000000000000000000000081526004016123ae906163e5565b60405180910390fd5b806123c06131c9565b60040160003373ffffffffffffffffffffffffffffffffffffffff1673ffffffffffffffffffffffffffffffffffffffff16815260200190815260200160002060008473ffffffffffffffffffffffffffffffffffffffff1673ffffffffffffffffffffffffffffffffffffffff16815260200190815260200160002060006101000a81548160ff0219169083151502179055508173ffffffffffffffffffffffffffffffffffffffff163373ffffffffffffffffffffffffffffffffffffffff167f17307eab39ab6107e8899845ad3d59bd9653f200f220920489ca2b5937696c31836040516124b19190614917565b60405180910390a35050565b6124c984848434613216565b6124d3338361326b565b612512576040517f08c379a000000000000000000000000000000000000000000000000000000000815260040161250990615d1b565b60405180910390fd5b61251e84848484613838565b50505050565b61252c613196565b73ffffffffffffffffffffffffffffffffffffffff163373ffffffffffffffffffffffffffffffffffffffff1614612599576040517f08c379a000000000000000000000000000000000000000000000000000000000815260040161259090616477565b60405180910390fd5b60006125a4826129b3565b90506125b4816020015130612219565b73__LibGameUtils__________________________63e83162c2826020015184604001516040518363ffffffff1660e01b81526004016125f5929190615e68565b60006040518083038186803b15801561260d57600080fd5b505af4158015612621573d6000803e3d6000fd5b505050507fa6b2e3472225444bec652f00ae684c35bcb609cdb2b3d58ca3596df3d53eca528260c001518260200151846040015160405161266493929190615b4e565b60405180910390a15050565b606061268c8261267e6131c9565b6131f690919063ffffffff16565b6126cb576040517f08c379a00000000000000000000000000000000000000000000000000000000081526004016126c290616509565b60405180910390fd5b60006126d5612f91565b9050600081600301600085815260200190815260200160002080546126f9906157a7565b80601f0160208091040260200160405190810160405280929190818152602001828054612725906157a7565b80156127725780601f1061274757610100808354040283529160200191612772565b820191906000526020600020905b81548152906001019060200180831161275557829003601f168201915b50505050509050600082600201805461278a906157a7565b80601f01602080910402602001604051908101604052809291908181526020018280546127b6906157a7565b80156128035780601f106127d857610100808354040283529160200191612803565b820191906000526020600020905b8154815290600101906020018083116127e657829003601f168201915b50505050509050600081510361281e57819350505050612884565b60008251111561285457808260405160200161283b929190616565565b6040516020818303038152906040529350505050612884565b8061285e86613894565b60405160200161286f929190616565565b60405160208183030381529060405293505050505b919050565b612891613170565b60000160149054906101000a900460ff16156128e2576040517f08c379a00000000000000000000000000000000000000000000000000000000081526004016128d990615e2d565b60405180910390fd5b73__LibPlanet_____________________________633f324cf3826040518263ffffffff1660e01b81526004016129199190615e4d565b60006040518083038186803b15801561293157600080fd5b505af4158015612945573d6000803e3d6000fd5b5050505073__LibArtifactUtils______________________63c918aebd826040518263ffffffff1660e01b81526004016129809190615e4d565b60006040518083038186803b15801561299857600080fd5b505af41580156129ac573d6000803e3d6000fd5b5050505050565b6129bb61473a565b6129c3613170565b60000160009054906101000a900473ffffffffffffffffffffffffffffffffffffffff1673ffffffffffffffffffffffffffffffffffffffff163373ffffffffffffffffffffffffffffffffffffffff161480612a525750612a23613196565b73ffffffffffffffffffffffffffffffffffffffff163373ffffffffffffffffffffffffffffffffffffffff16145b612a91576040517f08c379a0000000000000000000000000000000000000000000000000000000008152600401612a8890615bf7565b60405180910390fd5b600182600001511015612ad9576040517f08c379a0000000000000000000000000000000000000000000000000000000008152600401612ad0906165d5565b60405180910390fd5b612aeb8260c0015183600001516139f4565b6000604051806101a00160405280600115158152602001846000015181526020018460400151815260200184606001516005811115612b2d57612b2c614b36565b5b81526020018460800151600a811115612b4957612b48614b36565b5b8152602001428152602001846020015173ffffffffffffffffffffffffffffffffffffffff1681526020018460a00151600e811115612b8b57612b8a614b36565b5b8152602001600081526020016000815260200160008152602001600081526020018460e0015173ffffffffffffffffffffffffffffffffffffffff16815250905080612bd5613170565b60160160008560000151815260200190815260200160002060008201518160000160006101000a81548160ff021916908315150217905550602082015181600101556040820151816002015560608201518160030160006101000a81548160ff02191690836005811115612c4c57612c4b614b36565b5b021790555060808201518160030160016101000a81548160ff0219169083600a811115612c7c57612c7b614b36565b5b021790555060a0820151816004015560c08201518160050160006101000a81548173ffffffffffffffffffffffffffffffffffffffff021916908373ffffffffffffffffffffffffffffffffffffffff16021790555060e08201518160050160146101000a81548160ff0219169083600e811115612cfd57612cfc614b36565b5b0217905550610100820151816006015561012082015181600701556101408201518160080155610160820151816009015561018082015181600a0160006101000a81548173ffffffffffffffffffffffffffffffffffffffff021916908373ffffffffffffffffffffffffffffffffffffffff16021790555090505080915050919050565b612d8a613170565b60000160149054906101000a900460ff1615612ddb576040517f08c379a0000000000000000000000000000000000000000000000000000000008152600401612dd290615e2d565b60405180910390fd5b73__LibPlanet_____________________________633f324cf3826040518263ffffffff1660e01b8152600401612e129190615e4d565b60006040518083038186803b158015612e2a57600080fd5b505af4158015612e3e573d6000803e3d6000fd5b5050505073__LibArtifactUtils______________________63e76aa429826040518263ffffffff1660e01b8152600401612e799190615e4d565b60006040518083038186803b158015612e9157600080fd5b505af4158015612ea5573d6000803e3d6000fd5b505050507f133e35e21e24fa1cd40129f5e449f8fe1bffd66bf86383ff2b1f6d39d680d6e13382604051612eda9291906165f5565b60405180910390a150565b6000612ef18383613b9c565b905092915050565b6000807f326d0c59a7612f6a9919e2a8ee333c80ba689d8ba2634de89c85cbb04832e70590508091505090565b6000826000016000837bffffffffffffffffffffffffffffffffffffffffffffffffffffffff19167bffffffffffffffffffffffffffffffffffffffffffffffffffffffff1916815260200190815260200160002060009054906101000a900460ff16905092915050565b6000807f99574a7094154bb123ae6ae102096f0bf9679b85a5cd1e727aaa0ae5f132e6b190508091505090565b600080612fc96131c9565b9050612fde83826131f690919063ffffffff16565b61301d576040517f08c379a000000000000000000000000000000000000000000000000000000000815260040161301490616690565b60405180910390fd5b80600301600084815260200190815260200160002060009054906101000a900473ffffffffffffffffffffffffffffffffffffffff16915050919050565b6000811461309e576040517f08c379a000000000000000000000000000000000000000000000000000000000815260040161309590616722565b60405180910390fd5b6130a9838383613c39565b505050565b816130b76131c9565b600301600083815260200190815260200160002060006101000a81548173ffffffffffffffffffffffffffffffffffffffff021916908373ffffffffffffffffffffffffffffffffffffffff160217905550808273ffffffffffffffffffffffffffffffffffffffff1661312a836135cc565b73ffffffffffffffffffffffffffffffffffffffff167f8c5be1e5ebec7d5bd14f71427d1e84f3dd0314c0f7b2291e5b200ac8c7c3b92560405160405180910390a45050565b600061317a613c3e565b905090565b600061319161318c6131c9565b613c6b565b905090565b60006131a0613c80565b60040160009054906101000a900473ffffffffffffffffffffffffffffffffffffffff16905090565b6000807f3c7bf052874fa81625121783266a03507bd2cd48b16e571c01a04e8dd3fb07a690508091505090565b600061320e8284600001613cad90919063ffffffff16565b905092915050565b60008114613259576040517f08c379a0000000000000000000000000000000000000000000000000000000008152600401613250906167b4565b60405180910390fd5b61326584848484613cc7565b50505050565b6000613287826132796131c9565b6131f690919063ffffffff16565b6132c6576040517f08c379a00000000000000000000000000000000000000000000000000000000081526004016132bd90616846565b60405180910390fd5b60006132d1836135cc565b90508073ffffffffffffffffffffffffffffffffffffffff168473ffffffffffffffffffffffffffffffffffffffff16148061334057508373ffffffffffffffffffffffffffffffffffffffff1661332884612fbe565b73ffffffffffffffffffffffffffffffffffffffff16145b8061335157506133508185613b9c565b5b91505092915050565b8273ffffffffffffffffffffffffffffffffffffffff1661337a826135cc565b73ffffffffffffffffffffffffffffffffffffffff16146133d0576040517f08c379a00000000000000000000000000000000000000000000000000000000081526004016133c7906168d8565b60405180910390fd5b600073ffffffffffffffffffffffffffffffffffffffff168273ffffffffffffffffffffffffffffffffffffffff160361343f576040517f08c379a00000000000000000000000000000000000000000000000000000000081526004016134369061696a565b60405180910390fd5b61344a838383613ccd565b6134556000826130ae565b600061345f6131c9565b90506134b4828260020160008773ffffffffffffffffffffffffffffffffffffffff1673ffffffffffffffffffffffffffffffffffffffff168152602001908152602001600020613cdd90919063ffffffff16565b50613508828260020160008673ffffffffffffffffffffffffffffffffffffffff1673ffffffffffffffffffffffffffffffffffffffff168152602001908152602001600020613cf790919063ffffffff16565b50613521828483600001613d119092919063ffffffff16565b50818373ffffffffffffffffffffffffffffffffffffffff168573ffffffffffffffffffffffffffffffffffffffff167fddf252ad1be2c89b69c2b068fc378daa952ba7f163c4a11628f55a4df523b3ef60405160405180910390a450505050565b60006135a183836135926131c9565b613d469092919063ffffffff16565b905092915050565b60006135c5826135b76131c9565b613da490919063ffffffff16565b9050919050565b6000806135ec836135db6131c9565b600001613dca90919063ffffffff16565b9050600073ffffffffffffffffffffffffffffffffffffffff168173ffffffffffffffffffffffffffffffffffffffff160361365d576040517f08c379a0000000000000000000000000000000000000000000000000000000008152600401613654906169d6565b60405180910390fd5b80915050919050565b60008073ffffffffffffffffffffffffffffffffffffffff168273ffffffffffffffffffffffffffffffffffffffff16036136d6576040517f08c379a00000000000000000000000000000000000000000000000000000000081526004016136cd90616a68565b60405180910390fd5b6137266136e16131c9565b60020160008473ffffffffffffffffffffffffffffffffffffffff1673ffffffffffffffffffffffffffffffffffffffff168152602001908152602001600020613de7565b9050919050565b6000613737613dfc565b905090565b6000613747826135cc565b905061375581600084613ccd565b6137606000836130ae565b600061376a6131c9565b90506137bf838260020160008573ffffffffffffffffffffffffffffffffffffffff1673ffffffffffffffffffffffffffffffffffffffff168152602001908152602001600020613cdd90919063ffffffff16565b506137d68382600001613e2990919063ffffffff16565b5082600073ffffffffffffffffffffffffffffffffffffffff168373ffffffffffffffffffffffffffffffffffffffff167fddf252ad1be2c89b69c2b068fc378daa952ba7f163c4a11628f55a4df523b3ef60405160405180910390a4505050565b61384384848461335a565b61384f84848484613e43565b61388e576040517f08c379a000000000000000000000000000000000000000000000000000000000815260040161388590616afa565b60405180910390fd5b50505050565b6060600082036138db576040518060400160405280600181526020017f300000000000000000000000000000000000000000000000000000000000000081525090506139ef565b600082905060005b6000821461390d5780806138f690615d99565b915050600a826139069190616b49565b91506138e3565b60008167ffffffffffffffff81111561392957613928614da2565b5b6040519080825280601f01601f19166020018201604052801561395b5781602001600182028036833780820191505090505b5090505b600085146139e8576001826139749190616b7a565b9150600a856139839190616bae565b603061398f9190616bdf565b60f81b8183815181106139a5576139a4615d3b565b5b60200101907effffffffffffffffffffffffffffffffffffffffffffffffffffffffffffff1916908160001a905350600a856139e19190616b49565b945061395f565b8093505050505b919050565b600073ffffffffffffffffffffffffffffffffffffffff168273ffffffffffffffffffffffffffffffffffffffff1603613a63576040517f08c379a0000000000000000000000000000000000000000000000000000000008152600401613a5a90616c81565b60405180910390fd5b6000613a6d6131c9565b9050613a8282826131f690919063ffffffff16565b15613ac2576040517f08c379a0000000000000000000000000000000000000000000000000000000008152600401613ab990616ced565b60405180910390fd5b613ace60008484613ccd565b613b21828260020160008673ffffffffffffffffffffffffffffffffffffffff1673ffffffffffffffffffffffffffffffffffffffff168152602001908152602001600020613cf790919063ffffffff16565b50613b3a828483600001613d119092919063ffffffff16565b50818373ffffffffffffffffffffffffffffffffffffffff16600073ffffffffffffffffffffffffffffffffffffffff167fddf252ad1be2c89b69c2b068fc378daa952ba7f163c4a11628f55a4df523b3ef60405160405180910390a4505050565b6000613ba66131c9565b60040160008473ffffffffffffffffffffffffffffffffffffffff1673ffffffffffffffffffffffffffffffffffffffff16815260200190815260200160002060008373ffffffffffffffffffffffffffffffffffffffff1673ffffffffffffffffffffffffffffffffffffffff16815260200190815260200160002060009054906101000a900460ff16905092915050565b505050565b6000807fcb7f1a525606efcbba7baaf9b0b55c468d0fd558cbf767967f538834dfa1232e90508091505090565b6000613c7982600001613fb9565b9050919050565b6000807fc8fcad8db84d3cc18b4c41d551ea0ee66dd599cde068d998e57d5e09332c131c90508091505090565b6000613cbf836000018360001b613fce565b905092915050565b50505050565b613cd8838383613ff1565b505050565b6000613cef836000018360001b614001565b905092915050565b6000613d09836000018360001b6140ef565b905092915050565b6000613d3d846000018460001b8473ffffffffffffffffffffffffffffffffffffffff1660001b61415f565b90509392505050565b6000613d9b828560020160008673ffffffffffffffffffffffffffffffffffffffff1673ffffffffffffffffffffffffffffffffffffffff16815260200190815260200160002061424190919063ffffffff16565b90509392505050565b600080613dbd838560000161425b90919063ffffffff16565b5090508091505092915050565b6000613ddc836000018360001b614287565b60001c905092915050565b6000613df582600001614319565b9050919050565b6000807f2849cb27302bb32c0c7252ab45487d42296bcddad804f932e0b0589e515a937490508091505090565b6000613e3b836000018360001b61432a565b905092915050565b6000613e648473ffffffffffffffffffffffffffffffffffffffff16614449565b613e715760019050613fb1565b6000613f3163150b7a0260e01b33888787604051602401613e959493929190616d62565b604051602081830303815290604052907bffffffffffffffffffffffffffffffffffffffffffffffffffffffff19166020820180517bffffffffffffffffffffffffffffffffffffffffffffffffffffffff8381831617835250505050604051806060016040528060328152602001617095603291398773ffffffffffffffffffffffffffffffffffffffff1661445c9092919063ffffffff16565b9050600081806020019051810190613f499190616dc3565b90507f150b7a02000000000000000000000000000000000000000000000000000000007bffffffffffffffffffffffffffffffffffffffffffffffffffffffff1916817bffffffffffffffffffffffffffffffffffffffffffffffffffffffff191614925050505b949350505050565b6000613fc782600001614474565b9050919050565b600080836001016000848152602001908152602001600020541415905092915050565b613ffc838383614485565b505050565b600080836001016000848152602001908152602001600020549050600081146140e35760008460000160018660000180549050038154811061404657614045615d3b565b5b906000526020600020015490508085600001600184038154811061406d5761406c615d3b565b5b9060005260206000200181905550818560010160008381526020019081526020016000208190555050836000018054806140aa576140a9616df0565b5b600190038181906000526020600020016000905590558360010160008481526020019081526020016000206000905560019150506140e9565b60009150505b92915050565b60006140fb83836144f2565b614154578260000182908060018154018082558091505060019003906000526020600020016000909190919091505582600001805490508360010160008481526020019081526020016000208190555060019050614159565b600090505b92915050565b600080846001016000858152602001908152602001600020549050600081036142055784600001604051806040016040528086815260200185815250908060018154018082558091505060019003906000526020600020906002020160009091909190915060008201518160000155602082015181600101555050846000018054905085600101600086815260200190815260200160002081905550600191505061423a565b8285600001600183038154811061421f5761421e615d3b565b5b90600052602060002090600202016001018190555060009150505b9392505050565b60006142508360000183614515565b60001c905092915050565b60008060008061426e8660000186614589565b915091508160001c8160001c9350935050509250929050565b600080836001016000848152602001908152602001600020549050600081036142e5576040517f08c379a00000000000000000000000000000000000000000000000000000000081526004016142dc90616e6b565b60405180910390fd5b8360000160018203815481106142fe576142fd615d3b565b5b90600052602060002090600202016001015491505092915050565b600081600001805490509050919050565b6000808360010160008481526020019081526020016000205490506000811461443d5760008460000160018660000180549050038154811061436f5761436e615d3b565b5b906000526020600020906002020190508085600001600184038154811061439957614398615d3b565b5b9060005260206000209060020201600082015481600001556001820154816001015590505081856001016000836000015481526020019081526020016000208190555050836000018054806143f1576143f0616df0565b5b6001900381819060005260206000209060020201600080820160009055600182016000905550509055836001016000848152602001908152602001600020600090556001915050614443565b60009150505b92915050565b600080823b905060008111915050919050565b606061446b8484600085614613565b90509392505050565b600081600001805490509050919050565b614490838383614735565b600073ffffffffffffffffffffffffffffffffffffffff168273ffffffffffffffffffffffffffffffffffffffff16036144ed576144cc612f91565b600301600082815260200190815260200160002060006144ec9190614806565b5b505050565b600080836001016000848152602001908152602001600020541415905092915050565b600081836000018054905011614560576040517f08c379a000000000000000000000000000000000000000000000000000000000815260040161455790616efd565b60405180910390fd5b82600001828154811061457657614575615d3b565b5b9060005260206000200154905092915050565b600080828460000180549050116145d5576040517f08c379a00000000000000000000000000000000000000000000000000000000081526004016145cc90616f8f565b60405180910390fd5b60008460000184815481106145ed576145ec615d3b565b5b906000526020600020906002020190508060000154816001015492509250509250929050565b606061461e85614449565b61465d576040517f08c379a000000000000000000000000000000000000000000000000000000000815260040161465490617021565b60405180910390fd5b6000808673ffffffffffffffffffffffffffffffffffffffff168587604051614686919061707d565b60006040518083038185875af1925050503d80600081146146c3576040519150601f19603f3d011682016040523d82523d6000602084013e6146c8565b606091505b509150915081156146dd57809250505061472d565b6000815111156146f05780518082602001fd5b836040517f08c379a000000000000000000000000000000000000000000000000000000000815260040161472491906149cb565b60405180910390fd5b949350505050565b505050565b604051806101a0016040528060001515815260200160008152602001600081526020016000600581111561477157614770614b36565b5b81526020016000600a81111561478a57614789614b36565b5b815260200160008152602001600073ffffffffffffffffffffffffffffffffffffffff1681526020016000600e8111156147c7576147c6614b36565b5b815260200160008152602001600081526020016000815260200160008152602001600073ffffffffffffffffffffffffffffffffffffffff1681525090565b508054614812906157a7565b6000825580601f106148245750614843565b601f0160209004906000526020600020908101906148429190614846565b5b50565b5b8082111561485f576000816000905550600101614847565b5090565b6000604051905090565b600080fd5b600080fd5b60007fffffffff0000000000000000000000000000000000000000000000000000000082169050919050565b6148ac81614877565b81146148b757600080fd5b50565b6000813590506148c9816148a3565b92915050565b6000602082840312156148e5576148e461486d565b5b60006148f3848285016148ba565b91505092915050565b60008115159050919050565b614911816148fc565b82525050565b600060208201905061492c6000830184614908565b92915050565b600081519050919050565b600082825260208201905092915050565b60005b8381101561496c578082015181840152602081019050614951565b8381111561497b576000848401525b50505050565b6000601f19601f8301169050919050565b600061499d82614932565b6149a7818561493d565b93506149b781856020860161494e565b6149c081614981565b840191505092915050565b600060208201905081810360008301526149e58184614992565b905092915050565b6000819050919050565b614a00816149ed565b8114614a0b57600080fd5b50565b600081359050614a1d816149f7565b92915050565b600060208284031215614a3957614a3861486d565b5b6000614a4784828501614a0e565b91505092915050565b600073ffffffffffffffffffffffffffffffffffffffff82169050919050565b6000614a7b82614a50565b9050919050565b614a8b81614a70565b82525050565b6000602082019050614aa66000830184614a82565b92915050565b614ab581614a70565b8114614ac057600080fd5b50565b600081359050614ad281614aac565b92915050565b60008060408385031215614aef57614aee61486d565b5b6000614afd85828601614ac3565b9250506020614b0e85828601614a0e565b9150509250929050565b614b21816148fc565b82525050565b614b30816149ed565b82525050565b7f4e487b7100000000000000000000000000000000000000000000000000000000600052602160045260246000fd5b60068110614b7657614b75614b36565b5b50565b6000819050614b8782614b65565b919050565b6000614b9782614b79565b9050919050565b614ba781614b8c565b82525050565b600b8110614bbe57614bbd614b36565b5b50565b6000819050614bcf82614bad565b919050565b6000614bdf82614bc1565b9050919050565b614bef81614bd4565b82525050565b614bfe81614a70565b82525050565b600f8110614c1557614c14614b36565b5b50565b6000819050614c2682614c04565b919050565b6000614c3682614c18565b9050919050565b614c4681614c2b565b82525050565b6101a082016000820151614c636000850182614b18565b506020820151614c766020850182614b27565b506040820151614c896040850182614b27565b506060820151614c9c6060850182614b9e565b506080820151614caf6080850182614be6565b5060a0820151614cc260a0850182614b27565b5060c0820151614cd560c0850182614bf5565b5060e0820151614ce860e0850182614c3d565b50610100820151614cfd610100850182614b27565b50610120820151614d12610120850182614b27565b50610140820151614d27610140850182614b27565b50610160820151614d3c610160850182614b27565b50610180820151614d51610180850182614bf5565b50505050565b60006101a082019050614d6d6000830184614c4c565b92915050565b614d7c816149ed565b82525050565b6000602082019050614d976000830184614d73565b92915050565b600080fd5b7f4e487b7100000000000000000000000000000000000000000000000000000000600052604160045260246000fd5b614dda82614981565b810181811067ffffffffffffffff82111715614df957614df8614da2565b5b80604052505050565b6000614e0c614863565b9050614e188282614dd1565b919050565b614e26816148fc565b8114614e3157600080fd5b50565b600081359050614e4381614e1d565b92915050565b60068110614e5657600080fd5b50565b600081359050614e6881614e49565b92915050565b600b8110614e7b57600080fd5b50565b600081359050614e8d81614e6e565b92915050565b600f8110614ea057600080fd5b50565b600081359050614eb281614e93565b92915050565b60006101a08284031215614ecf57614ece614d9d565b5b614eda6101a0614e02565b90506000614eea84828501614e34565b6000830152506020614efe84828501614a0e565b6020830152506040614f1284828501614a0e565b6040830152506060614f2684828501614e59565b6060830152506080614f3a84828501614e7e565b60808301525060a0614f4e84828501614a0e565b60a08301525060c0614f6284828501614ac3565b60c08301525060e0614f7684828501614ea3565b60e083015250610100614f8b84828501614a0e565b61010083015250610120614fa184828501614a0e565b61012083015250610140614fb784828501614a0e565b61014083015250610160614fcd84828501614a0e565b61016083015250610180614fe384828501614ac3565b6101808301525092915050565b60006101a082840312156150075761500661486d565b5b600061501584828501614eb8565b91505092915050565b6000806000606084860312156150375761503661486d565b5b600061504586828701614ac3565b935050602061505686828701614ac3565b925050604061506786828701614a0e565b9150509250925092565b6000602082840312156150875761508661486d565b5b600061509584828501614ac3565b91505092915050565b600081519050919050565b600082825260208201905092915050565b6000819050602082019050919050565b60006150d68383614b27565b60208301905092915050565b6000602082019050919050565b60006150fa8261509e565b61510481856150a9565b935061510f836150ba565b8060005b8381101561514057815161512788826150ca565b9750615132836150e2565b925050600181019050615113565b5085935050505092915050565b6000602082019050818103600083015261516781846150ef565b905092915050565b600080604083850312156151865761518561486d565b5b600061519485828601614a0e565b92505060206151a585828601614a0e565b9150509250929050565b6000806000606084860312156151c8576151c761486d565b5b60006151d686828701614a0e565b93505060206151e786828701614a0e565b92505060406151f886828701614a0e565b9150509250925092565b600080fd5b600067ffffffffffffffff82111561522257615221614da2565b5b602082029050919050565b600080fd5b600061524561524084615207565b614e02565b9050806020840283018581111561525f5761525e61522d565b5b835b8181101561528857806152748882614a0e565b845260208401935050602081019050615261565b5050509392505050565b600082601f8301126152a7576152a6615202565b5b60026152b4848285615232565b91505092915050565b600067ffffffffffffffff8211156152d8576152d7614da2565b5b602082029050919050565b60006152f66152f1846152bd565b614e02565b905080604084028301858111156153105761530f61522d565b5b835b8181101561533957806153258882615292565b845260208401935050604081019050615312565b5050509392505050565b600082601f83011261535857615357615202565b5b60026153658482856152e3565b91505092915050565b600067ffffffffffffffff82111561538957615388614da2565b5b602082029050919050565b60006153a76153a28461536e565b614e02565b905080602084028301858111156153c1576153c061522d565b5b835b818110156153ea57806153d68882614a0e565b8452602084019350506020810190506153c3565b5050509392505050565b600082601f83011261540957615408615202565b5b6007615416848285615394565b91505092915050565b6000806000806101e0858703121561543a5761543961486d565b5b600061544887828801615292565b945050604061545987828801615343565b93505060c061546a87828801615292565b92505061010061547c878288016153f4565b91505092959194509250565b6000806040838503121561549f5761549e61486d565b5b60006154ad85828601614a0e565b92505060206154be85828601614ac3565b9150509250929050565b600080604083850312156154df576154de61486d565b5b60006154ed85828601614ac3565b92505060206154fe85828601614e34565b9150509250929050565b600080fd5b600067ffffffffffffffff82111561552857615527614da2565b5b61553182614981565b9050602081019050919050565b82818337600083830152505050565b600061556061555b8461550d565b614e02565b90508281526020810184848401111561557c5761557b615508565b5b61558784828561553e565b509392505050565b600082601f8301126155a4576155a3615202565b5b81356155b484826020860161554d565b91505092915050565b600080600080608085870312156155d7576155d661486d565b5b60006155e587828801614ac3565b94505060206155f687828801614ac3565b935050604061560787828801614a0e565b925050606085013567ffffffffffffffff81111561562857615627614872565b5b6156348782880161558f565b91505092959194509250565b6000610100828403121561565757615656614d9d565b5b615662610100614e02565b9050600061567284828501614a0e565b600083015250602061568684828501614ac3565b602083015250604061569a84828501614a0e565b60408301525060606156ae84828501614e59565b60608301525060806156c284828501614e7e565b60808301525060a06156d684828501614ea3565b60a08301525060c06156ea84828501614ac3565b60c08301525060e06156fe84828501614ac3565b60e08301525092915050565b600061010082840312156157215761572061486d565b5b600061572f84828501615640565b91505092915050565b6000806040838503121561574f5761574e61486d565b5b600061575d85828601614ac3565b925050602061576e85828601614ac3565b9150509250929050565b7f4e487b7100000000000000000000000000000000000000000000000000000000600052602260045260246000fd5b600060028204905060018216806157bf57607f821691505b6020821081036157d2576157d1615778565b5b50919050565b7f4552433732313a20617070726f76616c20746f2063757272656e74206f776e6560008201527f7200000000000000000000000000000000000000000000000000000000000000602082015250565b600061583460218361493d565b915061583f826157d8565b604082019050919050565b6000602082019050818103600083015261586381615827565b9050919050565b7f4552433732313a20617070726f76652063616c6c6572206973206e6f74206f7760008201527f6e6572206e6f7220617070726f76656420666f7220616c6c0000000000000000602082015250565b60006158c660388361493d565b91506158d18261586a565b604082019050919050565b600060208201905081810360008301526158f5816158b9565b9050919050565b60008151905061590b81614e1d565b92915050565b6000602082840312156159275761592661486d565b5b6000615935848285016158fc565b91505092915050565b7f506c61796572206973206e6f742077686974656c697374656400000000000000600082015250565b600061597460198361493d565b915061597f8261593e565b602082019050919050565b600060208201905081810360008301526159a381615967565b9050919050565b7f706c6179657220616c726561647920636c61696d656420736869707300000000600082015250565b60006159e0601c8361493d565b91506159eb826159aa565b602082019050919050565b60006020820190508181036000830152615a0f816159d3565b9050919050565b7f796f752063616e206f6e6c7920737061776e207368697073206f6e20796f757260008201527f20686f6d6520706c616e65740000000000000000000000000000000000000000602082015250565b6000615a72602c8361493d565b9150615a7d82615a16565b604082019050919050565b60006020820190508181036000830152615aa181615a65565b9050919050565b615ab1816149ed565b82525050565b615ac081614a70565b82525050565b615acf81614c2b565b82525050565b6000606082019050615aea6000830186615aa8565b615af76020830185615ab7565b615b046040830184615ac6565b949350505050565b600081519050615b1b816149f7565b92915050565b600060208284031215615b3757615b3661486d565b5b6000615b4584828501615b0c565b91505092915050565b6000606082019050615b636000830186614a82565b615b706020830185614d73565b615b7d6040830184614d73565b949350505050565b7f4f6e6c792074686520436f7265206f722041646d696e2061646472657373657360008201527f2063616e20666964646c652077697468206172746966616374732e0000000000602082015250565b6000615be1603b8361493d565b9150615bec82615b85565b604082019050919050565b60006020820190508181036000830152615c1081615bd4565b9050919050565b7f796f752063616e6e6f742075706461746520616e20617274696661637420746860008201527f617420646f65736e277420657869737400000000000000000000000000000000602082015250565b6000615c7360308361493d565b9150615c7e82615c17565b604082019050919050565b60006020820190508181036000830152615ca281615c66565b9050919050565b7f4552433732313a207472616e736665722063616c6c6572206973206e6f74206f60008201527f776e6572206f7220617070726f76656400000000000000000000000000000000602082015250565b6000615d0560308361493d565b9150615d1082615ca9565b604082019050919050565b60006020820190508181036000830152615d3481615cf8565b9050919050565b7f4e487b7100000000000000000000000000000000000000000000000000000000600052603260045260246000fd5b7f4e487b7100000000000000000000000000000000000000000000000000000000600052601160045260246000fd5b6000615da4826149ed565b91507fffffffffffffffffffffffffffffffffffffffffffffffffffffffffffffffff8203615dd657615dd5615d6a565b5b600182019050919050565b7f47616d6520697320706175736564000000000000000000000000000000000000600082015250565b6000615e17600e8361493d565b9150615e2282615de1565b602082019050919050565b60006020820190508181036000830152615e4681615e0a565b9050919050565b6000602082019050615e626000830184615aa8565b92915050565b6000604082019050615e7d6000830185615aa8565b615e8a6020830184615aa8565b9392505050565b6000606082019050615ea66000830186615aa8565b615eb36020830185615aa8565b615ec06040830184615ab7565b949350505050565b6000606082019050615edd6000830186615aa8565b615eea6020830185615aa8565b615ef76040830184615aa8565b949350505050565b7f546f6b656e206d696e7420706572696f642068617320656e6465640000000000600082015250565b6000615f35601b8361493d565b9150615f4082615eff565b602082019050919050565b60006020820190508181036000830152615f6481615f28565b9050919050565b600060059050919050565b600081905092915050565b6000819050919050565b615f94816149ed565b82525050565b6000615fa68383615f8b565b60208301905092915050565b6000602082019050919050565b615fc881615f6b565b615fd28184615f76565b9250615fdd82615f81565b8060005b8381101561600e578151615ff58782615f9a565b965061600083615fb2565b925050600181019050615fe1565b505050505050565b61601f816148fc565b82525050565b600060c08201905061603a6000830185615fbf565b61604760a0830184616016565b9392505050565b600060029050919050565b600081905092915050565b6000819050919050565b6000602082019050919050565b6160848161604e565b61608e8184616059565b925061609982616064565b8060005b838110156160ca5781516160b18782615f9a565b96506160bc8361606e565b92505060018101905061609d565b505050505050565b600060029050919050565b600081905092915050565b6000819050919050565b600081905092915050565b6161068161604e565b61611081846160f2565b925061611b82616064565b8060005b8381101561614c5781516161338782615f9a565b965061613e8361606e565b92505060018101905061611f565b505050505050565b600061616083836160fd565b60408301905092915050565b6000602082019050919050565b616182816160d2565b61618c81846160dd565b9250616197826160e8565b8060005b838110156161c85781516161af8782616154565b96506161ba8361616c565b92505060018101905061619b565b505050505050565b600060079050919050565b600081905092915050565b6000819050919050565b6000602082019050919050565b616206816161d0565b61621081846161db565b925061621b826161e6565b8060005b8381101561624c5781516162338782615f9a565b965061623e836161f0565b92505060018101905061621f565b505050505050565b60006101e08201905061626a600083018761607b565b6162776040830186616179565b61628460c083018561607b565b6162926101008301846161fd565b95945050505050565b7f62696f6d65207a6b534e41524b206661696c656420646f65736e27742063686560008201527f636b206f75740000000000000000000000000000000000000000000000000000602082015250565b60006162f760268361493d565b91506163028261629b565b604082019050919050565b60006020820190508181036000830152616326816162ea565b9050919050565b61633681614a70565b82525050565b6060820160008201516163526000850182615f8b565b5060208201516163656020850182615f8b565b506040820151616378604085018261632d565b50505050565b6000606082019050616393600083018461633c565b92915050565b7f4552433732313a20617070726f766520746f2063616c6c657200000000000000600082015250565b60006163cf60198361493d565b91506163da82616399565b602082019050919050565b600060208201905081810360008301526163fe816163c2565b9050919050565b7f4f6e6c792041646d696e20616464726573732063616e20706572666f726d207460008201527f68697320616374696f6e2e000000000000000000000000000000000000000000602082015250565b6000616461602b8361493d565b915061646c82616405565b604082019050919050565b6000602082019050818103600083015261649081616454565b9050919050565b7f4552433732314d657461646174613a2055524920717565727920666f72206e6f60008201527f6e6578697374656e7420746f6b656e0000000000000000000000000000000000602082015250565b60006164f3602f8361493d565b91506164fe82616497565b604082019050919050565b60006020820190508181036000830152616522816164e6565b9050919050565b600081905092915050565b600061653f82614932565b6165498185616529565b935061655981856020860161494e565b80840191505092915050565b60006165718285616534565b915061657d8284616534565b91508190509392505050565b7f6172746966616374206964206d75737420626520706f73697469766500000000600082015250565b60006165bf601c8361493d565b91506165ca82616589565b602082019050919050565b600060208201905081810360008301526165ee816165b2565b9050919050565b600060408201905061660a6000830185614a82565b6166176020830184614d73565b9392505050565b7f4552433732313a20617070726f76656420717565727920666f72206e6f6e657860008201527f697374656e7420746f6b656e0000000000000000000000000000000000000000602082015250565b600061667a602c8361493d565b91506166858261661e565b604082019050919050565b600060208201905081810360008301526166a98161666d565b9050919050565b7f4552433732313a2070617961626c6520617070726f76652063616c6c73206e6f60008201527f7420737570706f72746564000000000000000000000000000000000000000000602082015250565b600061670c602b8361493d565b9150616717826166b0565b604082019050919050565b6000602082019050818103600083015261673b816166ff565b9050919050565b7f4552433732313a2070617961626c65207472616e736665722063616c6c73206e60008201527f6f7420737570706f727465640000000000000000000000000000000000000000602082015250565b600061679e602c8361493d565b91506167a982616742565b604082019050919050565b600060208201905081810360008301526167cd81616791565b9050919050565b7f4552433732313a20717565727920666f72206e6f6e6578697374656e7420746f60008201527f6b656e0000000000000000000000000000000000000000000000000000000000602082015250565b600061683060238361493d565b915061683b826167d4565b604082019050919050565b6000602082019050818103600083015261685f81616823565b9050919050565b7f4552433732313a207472616e73666572206f6620746f6b656e2074686174206960008201527f73206e6f74206f776e0000000000000000000000000000000000000000000000602082015250565b60006168c260298361493d565b91506168cd82616866565b604082019050919050565b600060208201905081810360008301526168f1816168b5565b9050919050565b7f4552433732313a207472616e7366657220746f20746865207a65726f2061646460008201527f7265737300000000000000000000000000000000000000000000000000000000602082015250565b600061695460248361493d565b915061695f826168f8565b604082019050919050565b6000602082019050818103600083015261698381616947565b9050919050565b7f4552433732313a20696e76616c6964206f776e65720000000000000000000000600082015250565b60006169c060158361493d565b91506169cb8261698a565b602082019050919050565b600060208201905081810360008301526169ef816169b3565b9050919050565b7f4552433732313a2062616c616e636520717565727920666f7220746865207a6560008201527f726f206164647265737300000000000000000000000000000000000000000000602082015250565b6000616a52602a8361493d565b9150616a5d826169f6565b604082019050919050565b60006020820190508181036000830152616a8181616a45565b9050919050565b7f4552433732313a207472616e7366657220746f206e6f6e20455243373231526560008201527f63656976657220696d706c656d656e7465720000000000000000000000000000602082015250565b6000616ae460328361493d565b9150616aef82616a88565b604082019050919050565b60006020820190508181036000830152616b1381616ad7565b9050919050565b7f4e487b7100000000000000000000000000000000000000000000000000000000600052601260045260246000fd5b6000616b54826149ed565b9150616b5f836149ed565b925082616b6f57616b6e616b1a565b5b828204905092915050565b6000616b85826149ed565b9150616b90836149ed565b925082821015616ba357616ba2615d6a565b5b828203905092915050565b6000616bb9826149ed565b9150616bc4836149ed565b925082616bd457616bd3616b1a565b5b828206905092915050565b6000616bea826149ed565b9150616bf5836149ed565b9250827fffffffffffffffffffffffffffffffffffffffffffffffffffffffffffffffff03821115616c2a57616c29615d6a565b5b828201905092915050565b7f4552433732313a206d696e7420746f20746865207a65726f2061646472657373600082015250565b6000616c6b60208361493d565b9150616c7682616c35565b602082019050919050565b60006020820190508181036000830152616c9a81616c5e565b9050919050565b7f4552433732313a20746f6b656e20616c7265616479206d696e74656400000000600082015250565b6000616cd7601c8361493d565b9150616ce282616ca1565b602082019050919050565b60006020820190508181036000830152616d0681616cca565b9050919050565b600081519050919050565b600082825260208201905092915050565b6000616d3482616d0d565b616d3e8185616d18565b9350616d4e81856020860161494e565b616d5781614981565b840191505092915050565b6000608082019050616d776000830187614a82565b616d846020830186614a82565b616d916040830185614d73565b8181036060830152616da38184616d29565b905095945050505050565b600081519050616dbd816148a3565b92915050565b600060208284031215616dd957616dd861486d565b5b6000616de784828501616dae565b91505092915050565b7f4e487b7100000000000000000000000000000000000000000000000000000000600052603160045260246000fd5b7f456e756d657261626c654d61703a206e6f6e6578697374656e74206b65790000600082015250565b6000616e55601e8361493d565b9150616e6082616e1f565b602082019050919050565b60006020820190508181036000830152616e8481616e48565b9050919050565b7f456e756d657261626c655365743a20696e646578206f7574206f6620626f756e60008201527f6473000000000000000000000000000000000000000000000000000000000000602082015250565b6000616ee760228361493d565b9150616ef282616e8b565b604082019050919050565b60006020820190508181036000830152616f1681616eda565b9050919050565b7f456e756d657261626c654d61703a20696e646578206f7574206f6620626f756e60008201527f6473000000000000000000000000000000000000000000000000000000000000602082015250565b6000616f7960228361493d565b9150616f8482616f1d565b604082019050919050565b60006020820190508181036000830152616fa881616f6c565b9050919050565b7f416464726573735574696c733a2066756e6374696f6e2063616c6c20746f206e60008201527f6f6e2d636f6e7472616374000000000000000000000000000000000000000000602082015250565b600061700b602b8361493d565b915061701682616faf565b604082019050919050565b6000602082019050818103600083015261703a81616ffe565b9050919050565b600081905092915050565b600061705782616d0d565b6170618185617041565b935061707181856020860161494e565b80840191505092915050565b6000617089828461704c565b91508190509291505056fe4552433732313a207472616e7366657220746f206e6f6e20455243373231526563656976657220696d706c656d656e746572a2646970667358221220d2607635e58de7709d8237211cac5c429f0777df5aed19a275c802cb37c9e99364736f6c634300080d0033",
  "immutableReferences": {},
  "source": "// SPDX-License-Identifier: GPL-3.0\npragma solidity ^0.8.0;\n\n// Contract imports\nimport {ERC721} from \"@solidstate/contracts/token/ERC721/ERC721.sol\";\nimport {ERC721BaseStorage} from \"@solidstate/contracts/token/ERC721/base/ERC721BaseStorage.sol\";\nimport {Verifier} from \"../Verifier.sol\";\nimport {DFWhitelistFacet} from \"./DFWhitelistFacet.sol\";\n\n// Library Imports\nimport {LibDiamond} from \"../vendor/libraries/LibDiamond.sol\";\nimport {LibGameUtils} from \"../libraries/LibGameUtils.sol\";\nimport {LibArtifactUtils} from \"../libraries/LibArtifactUtils.sol\";\nimport {LibPlanet} from \"../libraries/LibPlanet.sol\";\n\n// Storage imports\nimport {WithStorage} from \"../libraries/LibStorage.sol\";\n\n// Type imports\nimport {Artifact, ArtifactType, DFTCreateArtifactArgs, DFPFindArtifactArgs} from \"../DFTypes.sol\";\n\ncontract DFArtifactFacet is WithStorage, ERC721 {\n    using ERC721BaseStorage for ERC721BaseStorage.Layout;\n\n    event PlanetProspected(address player, uint256 loc);\n    event ArtifactFound(address player, uint256 artifactId, uint256 loc);\n    event ArtifactDeposited(address player, uint256 artifactId, uint256 loc);\n    event ArtifactWithdrawn(address player, uint256 artifactId, uint256 loc);\n    event ArtifactActivated(address player, uint256 artifactId, uint256 loc); // also emitted in LibPlanet\n    event ArtifactDeactivated(address player, uint256 artifactId, uint256 loc); // also emitted in LibPlanet\n\n    modifier onlyWhitelisted() {\n        require(\n            DFWhitelistFacet(address(this)).isWhitelisted(msg.sender) ||\n                msg.sender == LibDiamond.contractOwner(),\n            \"Player is not whitelisted\"\n        );\n        _;\n    }\n\n    modifier notPaused() {\n        require(!gs().paused, \"Game is paused\");\n        _;\n    }\n\n    modifier notTokenEnded() {\n        require(block.timestamp < gs().TOKEN_MINT_END_TIMESTAMP, \"Token mint period has ended\");\n        _;\n    }\n\n    modifier onlyAdminOrCore() {\n        require(\n            msg.sender == gs().diamondAddress || msg.sender == LibDiamond.contractOwner(),\n            \"Only the Core or Admin addresses can fiddle with artifacts.\"\n        );\n        _;\n    }\n\n    modifier onlyAdmin() {\n        require(\n            msg.sender == LibDiamond.contractOwner(),\n            \"Only Admin address can perform this action.\"\n        );\n        _;\n    }\n\n    function createArtifact(DFTCreateArtifactArgs memory args)\n        public\n        onlyAdminOrCore\n        returns (Artifact memory)\n    {\n        require(args.tokenId >= 1, \"artifact id must be positive\");\n\n        _mint(args.owner, args.tokenId);\n\n        Artifact memory newArtifact =\n            Artifact(\n                true,\n                args.tokenId,\n                args.planetId,\n                args.rarity,\n                args.biome,\n                block.timestamp,\n                args.discoverer,\n                args.artifactType,\n                0,\n                0,\n                0,\n                0,\n                args.controller\n            );\n\n        gs().artifacts[args.tokenId] = newArtifact;\n\n        return newArtifact;\n    }\n\n    function getArtifact(uint256 tokenId) public view returns (Artifact memory) {\n        return gs().artifacts[tokenId];\n    }\n\n    function getArtifactAtIndex(uint256 idx) public view returns (Artifact memory) {\n        return gs().artifacts[tokenByIndex(idx)];\n    }\n\n    function getPlayerArtifactIds(address playerId) public view returns (uint256[] memory) {\n        uint256 balance = balanceOf(playerId);\n        uint256[] memory results = new uint256[](balance);\n\n        for (uint256 idx = 0; idx < balance; idx++) {\n            results[idx] = tokenOfOwnerByIndex(playerId, idx);\n        }\n\n        return results;\n    }\n\n    function transferArtifact(uint256 tokenId, address newOwner) public onlyAdminOrCore {\n        if (newOwner == address(0)) {\n            _burn(tokenId);\n        } else {\n            _transfer(ownerOf(tokenId), newOwner, tokenId);\n        }\n    }\n\n    function updateArtifact(Artifact memory updatedArtifact) public onlyAdminOrCore {\n        require(\n            ERC721BaseStorage.layout().exists(updatedArtifact.id),\n            \"you cannot update an artifact that doesn't exist\"\n        );\n\n        gs().artifacts[updatedArtifact.id] = updatedArtifact;\n    }\n\n    function doesArtifactExist(uint256 tokenId) public view returns (bool) {\n        return ERC721BaseStorage.layout().exists(tokenId);\n    }\n\n    function findArtifact(\n        uint256[2] memory _a,\n        uint256[2][2] memory _b,\n        uint256[2] memory _c,\n        uint256[7] memory _input\n    ) public notPaused notTokenEnded {\n        uint256 planetId = _input[0];\n        uint256 biomebase = _input[1];\n\n        LibGameUtils.revertIfBadSnarkPerlinFlags(\n            [_input[2], _input[3], _input[4], _input[5], _input[6]],\n            true\n        );\n\n        LibPlanet.refreshPlanet(planetId);\n\n        if (!snarkConstants().DISABLE_ZK_CHECKS) {\n            require(\n                Verifier.verifyBiomebaseProof(_a, _b, _c, _input),\n                \"biome zkSNARK failed doesn't check out\"\n            );\n        }\n\n        uint256 foundArtifactId =\n            LibArtifactUtils.findArtifact(DFPFindArtifactArgs(planetId, biomebase, address(this)));\n\n        emit ArtifactFound(msg.sender, foundArtifactId, planetId);\n    }\n\n    function depositArtifact(uint256 locationId, uint256 artifactId) public notPaused {\n        // should this be implemented as logic that is triggered when a player sends\n        // an artifact to the contract with locationId in the extra data?\n        // might be better use of the ERC721 standard - can use safeTransfer then\n        LibPlanet.refreshPlanet(locationId);\n\n        LibArtifactUtils.depositArtifact(locationId, artifactId, address(this));\n\n        emit ArtifactDeposited(msg.sender, artifactId, locationId);\n    }\n\n    // withdraws the given artifact from the given planet. you must own the planet,\n    // the artifact must be on the given planet\n    function withdrawArtifact(uint256 locationId, uint256 artifactId) public notPaused {\n        LibPlanet.refreshPlanet(locationId);\n\n        LibArtifactUtils.withdrawArtifact(locationId, artifactId);\n\n        emit ArtifactWithdrawn(msg.sender, artifactId, locationId);\n    }\n\n    // activates the given artifact on the given planet. the artifact must have\n    // been previously deposited on this planet. the artifact cannot be activated\n    // within a certain cooldown period, depending on the artifact type\n    function activateArtifact(\n        uint256 locationId,\n        uint256 artifactId,\n        uint256 wormholeTo\n    ) public notPaused {\n        LibPlanet.refreshPlanet(locationId);\n\n        if (wormholeTo != 0) {\n            LibPlanet.refreshPlanet(wormholeTo);\n        }\n\n        LibArtifactUtils.activateArtifact(locationId, artifactId, wormholeTo);\n        // event is emitted in the above library function\n    }\n\n    // if there's an activated artifact on this planet, deactivates it. otherwise reverts.\n    // deactivating an artifact this debuffs the planet, and also removes whatever special\n    // effect that the artifact bestowned upon this planet.\n    function deactivateArtifact(uint256 locationId) public notPaused {\n        LibPlanet.refreshPlanet(locationId);\n\n        LibArtifactUtils.deactivateArtifact(locationId);\n        // event is emitted in the above library function\n    }\n\n    // in order to be able to find an artifact on a planet, the planet\n    // must first be 'prospected'. prospecting commits to a currently-unknown\n    // seed that is used to randomly generate the artifact that will be\n    // found on this planet.\n    function prospectPlanet(uint256 locationId) public notPaused {\n        LibPlanet.refreshPlanet(locationId);\n        LibArtifactUtils.prospectPlanet(locationId);\n        emit PlanetProspected(msg.sender, locationId);\n    }\n\n    /**\n      Gives players 5 spaceships on their home planet. Can only be called once\n      by a given player. This is a first pass at getting spaceships into the game.\n      Eventually ships will be able to spawn in the game naturally (construction, capturing, etc.)\n     */\n    function giveSpaceShips(uint256 locationId) public onlyWhitelisted {\n        require(!gs().players[msg.sender].claimedShips, \"player already claimed ships\");\n        require(\n            gs().planets[locationId].owner == msg.sender && gs().planets[locationId].isHomePlanet,\n            \"you can only spawn ships on your home planet\"\n        );\n\n        address owner = gs().planets[locationId].owner;\n        uint256 id1 =\n            LibArtifactUtils.createAndPlaceSpaceship(\n                locationId,\n                owner,\n                ArtifactType.ShipMothership\n            );\n        uint256 id2 =\n            LibArtifactUtils.createAndPlaceSpaceship(locationId, owner, ArtifactType.ShipCrescent);\n        uint256 id3 =\n            LibArtifactUtils.createAndPlaceSpaceship(locationId, owner, ArtifactType.ShipWhale);\n        uint256 id4 =\n            LibArtifactUtils.createAndPlaceSpaceship(locationId, owner, ArtifactType.ShipGear);\n        uint256 id5 =\n            LibArtifactUtils.createAndPlaceSpaceship(locationId, owner, ArtifactType.ShipTitan);\n\n        emit ArtifactFound(msg.sender, id1, locationId);\n        emit ArtifactFound(msg.sender, id2, locationId);\n        emit ArtifactFound(msg.sender, id3, locationId);\n        emit ArtifactFound(msg.sender, id4, locationId);\n        emit ArtifactFound(msg.sender, id5, locationId);\n\n        gs().players[msg.sender].claimedShips = true;\n    }\n\n    function adminGiveArtifact(DFTCreateArtifactArgs memory args) public onlyAdmin {\n        Artifact memory artifact = createArtifact(args);\n        transferArtifact(artifact.id, address(this));\n        LibGameUtils._putArtifactOnPlanet(artifact.id, args.planetId);\n\n        emit ArtifactFound(args.owner, artifact.id, args.planetId);\n    }\n}\n",
  "sourcePath": "/home/terra/opensource/tosca-chain/smart-contract-example/contracts/facets/DFArtifactFacet.sol",
  "compiler": {
    "name": "solc",
    "version": "0.8.13+commit.abaa5c0e.Emscripten.clang"
  },
  "schemaVersion": "3.4.7",
  "updatedAt": "2022-04-30T15:27:25.732Z",
  "devdoc": {
    "kind": "dev",
    "methods": {
      "approve(address,uint256)": {
        "params": {
          "operator": "address to be approved",
          "tokenId": "token to approve"
        }
      },
      "balanceOf(address)": {
        "returns": {
          "_0": "quantity of tokens held"
        }
      },
      "getApproved(uint256)": {
        "params": {
          "tokenId": "token to query"
        },
        "returns": {
          "_0": "address approved to spend token"
        }
      },
      "isApprovedForAll(address,address)": {
        "params": {
          "account": "address to query for approval granted",
          "operator": "address to query for approval received"
        },
        "returns": {
          "_0": "whether operator is approved to spend tokens held by account"
        }
      },
      "ownerOf(uint256)": {
        "params": {
          "tokenId": "token to query"
        },
        "returns": {
          "_0": "token owner"
        }
      },
      "safeTransferFrom(address,address,uint256)": {
        "params": {
          "from": "sender of token",
          "to": "receiver of token",
          "tokenId": "token id"
        }
      },
      "safeTransferFrom(address,address,uint256,bytes)": {
        "params": {
          "data": "data payload",
          "from": "sender of token",
          "to": "receiver of token",
          "tokenId": "token id"
        }
      },
      "setApprovalForAll(address,bool)": {
        "params": {
          "operator": "address to be approved",
          "status": "approval status"
        }
      },
      "supportsInterface(bytes4)": {
        "params": {
          "interfaceId": "interface id"
        },
        "returns": {
          "_0": "bool whether interface is supported"
        }
      },
      "tokenByIndex(uint256)": {
        "params": {
          "index": "position in global token list to query"
        },
        "returns": {
          "_0": "id of retrieved token"
        }
      },
      "tokenOfOwnerByIndex(address,uint256)": {
        "params": {
          "index": "position in owner's token list to query",
          "owner": "token holder to query"
        },
        "returns": {
          "_0": "id of retrieved token"
        }
      },
      "totalSupply()": {
        "returns": {
          "_0": "total supply"
        }
      },
      "transferFrom(address,address,uint256)": {
        "params": {
          "from": "sender of token",
          "to": "receiver of token",
          "tokenId": "token id"
        }
      }
    },
    "version": 1
  },
  "userdoc": {
    "kind": "user",
    "methods": {
      "approve(address,uint256)": {
        "notice": "grant approval to given account to spend token"
      },
      "balanceOf(address)": {
        "notice": "query the balance of given address"
      },
      "getApproved(uint256)": {
        "notice": "get approval status for given token"
      },
      "giveSpaceShips(uint256)": {
        "notice": "Gives players 5 spaceships on their home planet. Can only be called once by a given player. This is a first pass at getting spaceships into the game. Eventually ships will be able to spawn in the game naturally (construction, capturing, etc.)"
      },
      "isApprovedForAll(address,address)": {
        "notice": "query approval status of given operator with respect to given address"
      },
      "name()": {
        "notice": "inheritdoc IERC721Metadata"
      },
      "ownerOf(uint256)": {
        "notice": "query the owner of given token"
      },
      "safeTransferFrom(address,address,uint256)": {
        "notice": "transfer token between given addresses, checking for ERC721Receiver implementation if applicable"
      },
      "safeTransferFrom(address,address,uint256,bytes)": {
        "notice": "transfer token between given addresses, checking for ERC721Receiver implementation if applicable"
      },
      "setApprovalForAll(address,bool)": {
        "notice": "grant approval to or revoke approval from given account to spend all tokens held by sender"
      },
      "supportsInterface(bytes4)": {
        "notice": "query whether contract has registered support for given interface"
      },
      "symbol()": {
        "notice": "inheritdoc IERC721Metadata"
      },
      "tokenByIndex(uint256)": {
        "notice": "get token at given internal storage index"
      },
      "tokenOfOwnerByIndex(address,uint256)": {
        "notice": "get token of given owner at given internal storage index"
      },
      "tokenURI(uint256)": {
        "notice": "inheritdoc IERC721Metadata"
      },
      "totalSupply()": {
        "notice": "get total token supply"
      },
      "transferFrom(address,address,uint256)": {
        "notice": "transfer token between given addresses, without checking for ERC721Receiver implementation if applicable"
      }
    },
    "version": 1
  }
}