{
  "contractName": "DFCoreFacet",
  "abi": [
    {
      "anonymous": false,
      "inputs": [
        {
          "indexed": false,
          "internalType": "address",
          "name": "revealer",
          "type": "address"
        },
        {
          "indexed": false,
          "internalType": "uint256",
          "name": "loc",
          "type": "uint256"
        },
        {
          "indexed": false,
          "internalType": "uint256",
          "name": "x",
          "type": "uint256"
        },
        {
          "indexed": false,
          "internalType": "uint256",
          "name": "y",
          "type": "uint256"
        }
      ],
      "name": "LocationRevealed",
      "type": "event"
    },
    {
      "anonymous": false,
      "inputs": [
        {
          "indexed": false,
          "internalType": "address",
          "name": "player",
          "type": "address"
        },
        {
          "indexed": false,
          "internalType": "uint256",
          "name": "loc",
          "type": "uint256"
        },
        {
          "indexed": false,
          "internalType": "uint256",
          "name": "tohatLevel",
          "type": "uint256"
        }
      ],
      "name": "PlanetHatBought",
      "type": "event"
    },
    {
      "anonymous": false,
      "inputs": [
        {
          "indexed": false,
          "internalType": "address",
          "name": "player",
          "type": "address"
        },
        {
          "indexed": false,
          "internalType": "uint256",
          "name": "loc",
          "type": "uint256"
        },
        {
          "indexed": false,
          "internalType": "uint256",
          "name": "amount",
          "type": "uint256"
        }
      ],
      "name": "PlanetSilverWithdrawn",
      "type": "event"
    },
    {
      "anonymous": false,
      "inputs": [
        {
          "indexed": false,
          "internalType": "address",
          "name": "sender",
          "type": "address"
        },
        {
          "indexed": false,
          "internalType": "uint256",
          "name": "loc",
          "type": "uint256"
        },
        {
          "indexed": false,
          "internalType": "address",
          "name": "receiver",
          "type": "address"
        }
      ],
      "name": "PlanetTransferred",
      "type": "event"
    },
    {
      "anonymous": false,
      "inputs": [
        {
          "indexed": false,
          "internalType": "address",
          "name": "player",
          "type": "address"
        },
        {
          "indexed": false,
          "internalType": "uint256",
          "name": "loc",
          "type": "uint256"
        },
        {
          "indexed": false,
          "internalType": "uint256",
          "name": "branch",
          "type": "uint256"
        },
        {
          "indexed": false,
          "internalType": "uint256",
          "name": "toBranchLevel",
          "type": "uint256"
        }
      ],
      "name": "PlanetUpgraded",
      "type": "event"
    },
    {
      "anonymous": false,
      "inputs": [
        {
          "indexed": false,
          "internalType": "address",
          "name": "player",
          "type": "address"
        },
        {
          "indexed": false,
          "internalType": "uint256",
          "name": "loc",
          "type": "uint256"
        }
      ],
      "name": "PlayerInitialized",
      "type": "event"
    },
    {
      "inputs": [
        {
          "internalType": "uint256",
          "name": "location",
          "type": "uint256"
        }
      ],
      "name": "refreshPlanet",
      "outputs": [],
      "stateMutability": "nonpayable",
      "type": "function"
    },
    {
      "inputs": [
        {
          "internalType": "uint256",
          "name": "location",
          "type": "uint256"
        },
        {
          "internalType": "uint256",
          "name": "timestamp",
          "type": "uint256"
        }
      ],
      "name": "getRefreshedPlanet",
      "outputs": [
        {
          "components": [
            {
              "internalType": "address",
              "name": "owner",
              "type": "address"
            },
            {
              "internalType": "uint256",
              "name": "range",
              "type": "uint256"
            },
            {
              "internalType": "uint256",
              "name": "speed",
              "type": "uint256"
            },
            {
              "internalType": "uint256",
              "name": "defense",
              "type": "uint256"
            },
            {
              "internalType": "uint256",
              "name": "population",
              "type": "uint256"
            },
            {
              "internalType": "uint256",
              "name": "populationCap",
              "type": "uint256"
            },
            {
              "internalType": "uint256",
              "name": "populationGrowth",
              "type": "uint256"
            },
            {
              "internalType": "uint256",
              "name": "silverCap",
              "type": "uint256"
            },
            {
              "internalType": "uint256",
              "name": "silverGrowth",
              "type": "uint256"
            },
            {
              "internalType": "uint256",
              "name": "silver",
              "type": "uint256"
            },
            {
              "internalType": "uint256",
              "name": "planetLevel",
              "type": "uint256"
            },
            {
              "internalType": "enum PlanetType",
              "name": "planetType",
              "type": "uint8"
            },
            {
              "internalType": "bool",
              "name": "isHomePlanet",
              "type": "bool"
            }
          ],
          "internalType": "struct Planet",
          "name": "",
          "type": "tuple"
        },
        {
          "components": [
            {
              "internalType": "bool",
              "name": "isInitialized",
              "type": "bool"
            },
            {
              "internalType": "uint256",
              "name": "createdAt",
              "type": "uint256"
            },
            {
              "internalType": "uint256",
              "name": "lastUpdated",
              "type": "uint256"
            },
            {
              "internalType": "uint256",
              "name": "perlin",
              "type": "uint256"
            },
            {
              "internalType": "enum SpaceType",
              "name": "spaceType",
              "type": "uint8"
            },
            {
              "internalType": "uint256",
              "name": "upgradeState0",
              "type": "uint256"
            },
            {
              "internalType": "uint256",
              "name": "upgradeState1",
              "type": "uint256"
            },
            {
              "internalType": "uint256",
              "name": "upgradeState2",
              "type": "uint256"
            },
            {
              "internalType": "uint256",
              "name": "hatLevel",
              "type": "uint256"
            },
            {
              "internalType": "bool",
              "name": "hasTriedFindingArtifact",
              "type": "bool"
            },
            {
              "internalType": "uint256",
              "name": "prospectedBlockNumber",
              "type": "uint256"
            },
            {
              "internalType": "bool",
              "name": "destroyed",
              "type": "bool"
            },
            {
              "internalType": "uint256",
              "name": "spaceJunk",
              "type": "uint256"
            }
          ],
          "internalType": "struct PlanetExtendedInfo",
          "name": "",
          "type": "tuple"
        },
        {
          "components": [
            {
              "internalType": "bool",
              "name": "isInitialized",
              "type": "bool"
            },
            {
              "internalType": "uint256",
              "name": "pausers",
              "type": "uint256"
            },
            {
              "internalType": "address",
              "name": "invader",
              "type": "address"
            },
            {
              "internalType": "uint256",
              "name": "invadeStartBlock",
              "type": "uint256"
            },
            {
              "internalType": "address",
              "name": "capturer",
              "type": "address"
            }
          ],
          "internalType": "struct PlanetExtendedInfo2",
          "name": "",
          "type": "tuple"
        },
        {
          "internalType": "uint256[12]",
          "name": "eventsToRemove",
          "type": "uint256[12]"
        },
        {
          "internalType": "uint256[12]",
          "name": "artifactsToAdd",
          "type": "uint256[12]"
        }
      ],
      "stateMutability": "view",
      "type": "function"
    },
    {
      "inputs": [
        {
          "internalType": "uint256[2]",
          "name": "_a",
          "type": "uint256[2]"
        },
        {
          "internalType": "uint256[2][2]",
          "name": "_b",
          "type": "uint256[2][2]"
        },
        {
          "internalType": "uint256[2]",
          "name": "_c",
          "type": "uint256[2]"
        },
        {
          "internalType": "uint256[9]",
          "name": "_input",
          "type": "uint256[9]"
        }
      ],
      "name": "checkRevealProof",
      "outputs": [
        {
          "internalType": "bool",
          "name": "",
          "type": "bool"
        }
      ],
      "stateMutability": "view",
      "type": "function"
    },
    {
      "inputs": [
        {
          "internalType": "uint256[2]",
          "name": "_a",
          "type": "uint256[2]"
        },
        {
          "internalType": "uint256[2][2]",
          "name": "_b",
          "type": "uint256[2][2]"
        },
        {
          "internalType": "uint256[2]",
          "name": "_c",
          "type": "uint256[2]"
        },
        {
          "internalType": "uint256[9]",
          "name": "_input",
          "type": "uint256[9]"
        }
      ],
      "name": "revealLocation",
      "outputs": [
        {
          "internalType": "uint256",
          "name": "",
          "type": "uint256"
        }
      ],
      "stateMutability": "nonpayable",
      "type": "function"
    },
    {
      "inputs": [
        {
          "internalType": "uint256[2]",
          "name": "_a",
          "type": "uint256[2]"
        },
        {
          "internalType": "uint256[2][2]",
          "name": "_b",
          "type": "uint256[2][2]"
        },
        {
          "internalType": "uint256[2]",
          "name": "_c",
          "type": "uint256[2]"
        },
        {
          "internalType": "uint256[8]",
          "name": "_input",
          "type": "uint256[8]"
        }
      ],
      "name": "initializePlayer",
      "outputs": [
        {
          "internalType": "uint256",
          "name": "",
          "type": "uint256"
        }
      ],
      "stateMutability": "nonpayable",
      "type": "function"
    },
    {
      "inputs": [
        {
          "internalType": "uint256",
          "name": "_location",
          "type": "uint256"
        },
        {
          "internalType": "uint256",
          "name": "_branch",
          "type": "uint256"
        }
      ],
      "name": "upgradePlanet",
      "outputs": [
        {
          "internalType": "uint256",
          "name": "",
          "type": "uint256"
        },
        {
          "internalType": "uint256",
          "name": "",
          "type": "uint256"
        }
      ],
      "stateMutability": "nonpayable",
      "type": "function"
    },
    {
      "inputs": [
        {
          "internalType": "uint256",
          "name": "_location",
          "type": "uint256"
        },
        {
          "internalType": "address",
          "name": "_player",
          "type": "address"
        }
      ],
      "name": "transferPlanet",
      "outputs": [],
      "stateMutability": "nonpayable",
      "type": "function"
    },
    {
      "inputs": [
        {
          "internalType": "uint256",
          "name": "_location",
          "type": "uint256"
        }
      ],
      "name": "buyHat",
      "outputs": [],
      "stateMutability": "payable",
      "type": "function"
    },
    {
      "inputs": [
        {
          "internalType": "uint256",
          "name": "locationId",
          "type": "uint256"
        },
        {
          "internalType": "uint256",
          "name": "amount",
          "type": "uint256"
        }
      ],
      "name": "withdrawSilver",
      "outputs": [],
      "stateMutability": "nonpayable",
      "type": "function"
    }
  ],
  "bytecode": "0x608060405234801561001057600080fd5b506134ea806100206000396000f3fe6080604052600436106100865760003560e01c806373a853811161005957806373a85381146101435780638f0742bf146101815780639fd4d4d4146101c2578063a44751a7146101de578063d161f02c1461021b57610086565b806308a703701461008b5780633f324cf3146100b4578063443a397c146100dd5780634910555014610106575b600080fd5b34801561009757600080fd5b506100b260048036038101906100ad9190611a08565b610258565b005b3480156100c057600080fd5b506100db60048036038101906100d69190611a48565b610642565b005b3480156100e957600080fd5b5061010460048036038101906100ff9190611a75565b610705565b005b34801561011257600080fd5b5061012d60048036038101906101289190611d5e565b61080f565b60405161013a9190611de2565b60405180910390f35b34801561014f57600080fd5b5061016a60048036038101906101659190611a75565b610a12565b604051610178929190611e0c565b60405180910390f35b34801561018d57600080fd5b506101a860048036038101906101a39190611a75565b610aed565b6040516101b995949392919061223b565b60405180910390f35b6101dc60048036038101906101d79190611a48565b610ba4565b005b3480156101ea57600080fd5b5061020560048036038101906102009190611d5e565b610e38565b6040516102129190612293565b60405180910390f35b34801561022757600080fd5b50610242600480360381019061023d919061235f565b6111f3565b60405161024f9190612293565b60405180910390f35b6102606116bf565b60000160149054906101000a900460ff16156102b1576040517f08c379a00000000000000000000000000000000000000000000000000000000081526004016102a890612425565b60405180910390fd5b6102b96116ce565b60170160009054906101000a900460ff16610309576040517f08c379a000000000000000000000000000000000000000000000000000000000815260040161030090612491565b60405180910390fd5b600115156103156116bf565b600e01600084815260200190815260200160002060000160009054906101000a900460ff1615151461037c576040517f08c379a0000000000000000000000000000000000000000000000000000000008152600401610373906124fd565b60405180910390fd5b61038582610642565b3373ffffffffffffffffffffffffffffffffffffffff166103a46116bf565b600c01600084815260200190815260200160002060000160009054906101000a900473ffffffffffffffffffffffffffffffffffffffff1673ffffffffffffffffffffffffffffffffffffffff1614610432576040517f08c379a00000000000000000000000000000000000000000000000000000000081526004016104299061258f565b60405180910390fd5b3373ffffffffffffffffffffffffffffffffffffffff168173ffffffffffffffffffffffffffffffffffffffff16036104a0576040517f08c379a0000000000000000000000000000000000000000000000000000000008152600401610497906125fb565b60405180910390fd5b6104a86116bf565b60120160008273ffffffffffffffffffffffffffffffffffffffff1673ffffffffffffffffffffffffffffffffffffffff16815260200190815260200160002060000160009054906101000a900460ff16610538576040517f08c379a000000000000000000000000000000000000000000000000000000000815260040161052f9061268d565b60405180910390fd5b6105406116bf565b600e016000838152602001908152602001600020600b0160009054906101000a900460ff16156105a5576040517f08c379a000000000000000000000000000000000000000000000000000000000815260040161059c9061271f565b60405180910390fd5b806105ae6116bf565b600c01600084815260200190815260200160002060000160006101000a81548173ffffffffffffffffffffffffffffffffffffffff021916908373ffffffffffffffffffffffffffffffffffffffff1602179055507f1d92e9b511fc71a1213860ad7a4111448dc643ec0b6726a6edb81c06f3230db13383836040516106369392919061274e565b60405180910390a15050565b61064a6116bf565b60000160149054906101000a900460ff161561069b576040517f08c379a000000000000000000000000000000000000000000000000000000000815260040161069290612425565b60405180910390fd5b73__LibPlanet_____________________________633f324cf3826040518263ffffffff1660e01b81526004016106d29190612794565b60006040518083038186803b1580156106ea57600080fd5b505af41580156106fe573d6000803e3d6000fd5b5050505050565b61070d6116bf565b60000160149054906101000a900460ff161561075e576040517f08c379a000000000000000000000000000000000000000000000000000000000815260040161075590612425565b60405180910390fd5b61076782610642565b73__LibPlanet_____________________________63443a397c83836040518363ffffffff1660e01b81526004016107a09291906127af565b60006040518083038186803b1580156107b857600080fd5b505af41580156107cc573d6000803e3d6000fd5b505050507ff7e58fc4b0905079f485f6d32c17942662c0e6785cfffe7dc539b11404632cdd338383604051610803939291906127d8565b60405180910390a15050565b60006108196116dd565b60000160009054906101000a900460ff166108ec5773__Verifier______________________________63d20293f0868686866040518563ffffffff1660e01b815260040161086b9493929190612a3c565b602060405180830381865af4158015610888573d6000803e3d6000fd5b505050506040513d601f19601f820116820180604052508101906108ac9190612aaf565b6108eb576040517f08c379a00000000000000000000000000000000000000000000000000000000081526004016108e290612b28565b60405180910390fd5b5b73__LibGameUtils__________________________6326c7e6186040518060a001604052808560046009811061092557610924612b48565b5b602002015181526020018560056009811061094357610942612b48565b5b602002015181526020018560066009811061096157610960612b48565b5b602002015181526020018560076009811061097f5761097e612b48565b5b602002015181526020018560086009811061099d5761099c612b48565b5b602002015181525060006040518363ffffffff1660e01b81526004016109c4929190612c0a565b602060405180830381865af41580156109e1573d6000803e3d6000fd5b505050506040513d601f19601f82011682018060405250810190610a059190612aaf565b5060019050949350505050565b600080610a1d6116bf565b60000160149054906101000a900460ff1615610a6e576040517f08c379a0000000000000000000000000000000000000000000000000000000008152600401610a6590612425565b60405180910390fd5b610a7784610642565b73__LibPlanet_____________________________6373a8538185856040518363ffffffff1660e01b8152600401610ab09291906127af565b60006040518083038186803b158015610ac857600080fd5b505af4158015610adc573d6000803e3d6000fd5b505050508383915091509250929050565b610af56117d3565b610afd611865565b610b056118e5565b610b0d611942565b610b15611942565b73__LibPlanet_____________________________638f0742bf88886040518363ffffffff1660e01b8152600401610b4e9291906127af565b6106e060405180830381865af4158015610b6c573d6000803e3d6000fd5b505050506040513d601f19601f82011682018060405250810190610b909190613059565b945094509450945094509295509295909350565b610bac6116bf565b60000160149054906101000a900460ff1615610bfd576040517f08c379a0000000000000000000000000000000000000000000000000000000008152600401610bf490612425565b60405180910390fd5b60011515610c096116bf565b600e01600083815260200190815260200160002060000160009054906101000a900460ff16151514610c70576040517f08c379a0000000000000000000000000000000000000000000000000000000008152600401610c67906124fd565b60405180910390fd5b610c7981610642565b3373ffffffffffffffffffffffffffffffffffffffff16610c986116bf565b600c01600083815260200190815260200160002060000160009054906101000a900473ffffffffffffffffffffffffffffffffffffffff1673ffffffffffffffffffffffffffffffffffffffff1614610d26576040517f08c379a0000000000000000000000000000000000000000000000000000000008152600401610d1d9061258f565b60405180910390fd5b6000670de0b6b3a7640000610d396116bf565b600e016000848152602001908152602001600020600801546001901b610d5f9190613108565b9050803414610da3576040517f08c379a0000000000000000000000000000000000000000000000000000000008152600401610d9a906131ae565b60405180910390fd5b6001610dad6116bf565b600e0160008481526020019081526020016000206008016000828254610dd391906131ce565b925050819055507f191948a607e3727d3abe53efe0912f2c3a917df67e33365e530a0df0cd8a779e3383610e056116bf565b600e01600086815260200190815260200160002060080154604051610e2c939291906127d8565b60405180910390a15050565b60003073ffffffffffffffffffffffffffffffffffffffff16633af32abf336040518263ffffffff1660e01b8152600401610e739190613224565b602060405180830381865afa158015610e90573d6000803e3d6000fd5b505050506040513d601f19601f82011682018060405250810190610eb49190612aaf565b80610ef15750610ec26116ec565b73ffffffffffffffffffffffffffffffffffffffff163373ffffffffffffffffffffffffffffffffffffffff16145b610f30576040517f08c379a0000000000000000000000000000000000000000000000000000000008152600401610f279061328b565b60405180910390fd5b610f3c8585858561080f565b610f7b576040517f08c379a0000000000000000000000000000000000000000000000000000000008152600401610f7290612b28565b60405180910390fd5b610f836116bf565b600e01600083600060098110610f9c57610f9b612b48565b5b6020020151815260200190815260200160002060000160009054906101000a900460ff166110615773__LibPlanet_____________________________631f59767e83600060098110610ff257610ff1612b48565b5b60200201518460016009811061100b5761100a612b48565b5b602002015160006040518463ffffffff1660e01b8152600401611030939291906132ab565b60006040518083038186803b15801561104857600080fd5b505af415801561105c573d6000803e3d6000fd5b505050505b73__LibPlanet_____________________________63f35f65138360006009811061108f5761108e612b48565b5b6020020151846001600981106110a8576110a7612b48565b5b6020020151856002600981106110c1576110c0612b48565b5b6020020151866003600981106110da576110d9612b48565b5b60200201516110e76116ec565b73ffffffffffffffffffffffffffffffffffffffff163373ffffffffffffffffffffffffffffffffffffffff1614156040518663ffffffff1660e01b81526004016111369594939291906132e2565b60006040518083038186803b15801561114e57600080fd5b505af4158015611162573d6000803e3d6000fd5b505050507fcc285dee81e69d685f5f8f01302f91e90dc2563f95dc92b247bb5e0332d56959338360006009811061119c5761119b612b48565b5b6020020151846002600981106111b5576111b4612b48565b5b6020020151856003600981106111ce576111cd612b48565b5b60200201516040516111e39493929190613335565b60405180910390a1949350505050565b60003073ffffffffffffffffffffffffffffffffffffffff16633af32abf336040518263ffffffff1660e01b815260040161122e9190613224565b602060405180830381865afa15801561124b573d6000803e3d6000fd5b505050506040513d601f19601f8201168201806040525081019061126f9190612aaf565b806112ac575061127d6116ec565b73ffffffffffffffffffffffffffffffffffffffff163373ffffffffffffffffffffffffffffffffffffffff16145b6112eb576040517f08c379a00000000000000000000000000000000000000000000000000000000081526004016112e29061328b565b60405180910390fd5b73__LibPlanet_____________________________63e01f89268686868660016040518663ffffffff1660e01b815260040161132b9594939291906133fe565b60006040518083038186803b15801561134357600080fd5b505af4158015611357573d6000803e3d6000fd5b5050505060008260006008811061137157611370612b48565b5b6020020151905060008360016008811061138e5761138d612b48565b5b602002015190506000846002600881106113ab576113aa612b48565b5b6020020151905073__LibPlanet_____________________________63eb75e2848484846040518463ffffffff1660e01b81526004016113ed93929190613454565b602060405180830381865af415801561140a573d6000803e3d6000fd5b505050506040513d601f19601f8201168201806040525081019061142e9190612aaf565b61143757600080fd5b61143f6116bf565b600801339080600181540180825580915050600190039060005260206000200160009091909190916101000a81548173ffffffffffffffffffffffffffffffffffffffff021916908373ffffffffffffffffffffffffffffffffffffffff1602179055506040518061012001604052806001151581526020013373ffffffffffffffffffffffffffffffffffffffff1681526020014281526020018481526020016000815260200160008152602001600081526020016114fd6116ce565b604a01548152602001600015158152506115156116bf565b60120160003373ffffffffffffffffffffffffffffffffffffffff1673ffffffffffffffffffffffffffffffffffffffff16815260200190815260200160002060008201518160000160006101000a81548160ff02191690831515021790555060208201518160000160016101000a81548173ffffffffffffffffffffffffffffffffffffffff021916908373ffffffffffffffffffffffffffffffffffffffff16021790555060408201518160010155606082015181600201556080820151816003015560a0820151816004015560c0820151816005015560e082015181600601556101008201518160070160006101000a81548160ff02191690831515021790555090505073__LibGameUtils__________________________63eaae46536040518163ffffffff1660e01b815260040160006040518083038186803b15801561166057600080fd5b505af4158015611674573d6000803e3d6000fd5b505050507f5765df5ce7cf4175ef997923b4936159dcf3cea059434dab4643214d690a2b9533846040516116a992919061348b565b60405180910390a1829350505050949350505050565b60006116c961171f565b905090565b60006116d861174c565b905090565b60006116e7611779565b905090565b60006116f66117a6565b60040160009054906101000a900473ffffffffffffffffffffffffffffffffffffffff16905090565b6000807fcb7f1a525606efcbba7baaf9b0b55c468d0fd558cbf767967f538834dfa1232e90508091505090565b6000807f5fb65bb339c6bd3f2609a7342e6cb046e09f3e40f45242a5971904b021b5bb5390508091505090565b6000807f2849cb27302bb32c0c7252ab45487d42296bcddad804f932e0b0589e515a937490508091505090565b6000807fc8fcad8db84d3cc18b4c41d551ea0ee66dd599cde068d998e57d5e09332c131c90508091505090565b604051806101a00160405280600073ffffffffffffffffffffffffffffffffffffffff168152602001600081526020016000815260200160008152602001600081526020016000815260200160008152602001600081526020016000815260200160008152602001600081526020016000600481111561185657611855611e53565b5b81526020016000151581525090565b604051806101a00160405280600015158152602001600081526020016000815260200160008152602001600060038111156118a3576118a2611e53565b5b81526020016000815260200160008152602001600081526020016000815260200160001515815260200160008152602001600015158152602001600081525090565b6040518060a0016040528060001515815260200160008152602001600073ffffffffffffffffffffffffffffffffffffffff16815260200160008152602001600073ffffffffffffffffffffffffffffffffffffffff1681525090565b604051806101800160405280600c90602082028036833780820191505090505090565b6000604051905090565b600080fd5b6000819050919050565b61198781611974565b811461199257600080fd5b50565b6000813590506119a48161197e565b92915050565b600073ffffffffffffffffffffffffffffffffffffffff82169050919050565b60006119d5826119aa565b9050919050565b6119e5816119ca565b81146119f057600080fd5b50565b600081359050611a02816119dc565b92915050565b60008060408385031215611a1f57611a1e61196f565b5b6000611a2d85828601611995565b9250506020611a3e858286016119f3565b9150509250929050565b600060208284031215611a5e57611a5d61196f565b5b6000611a6c84828501611995565b91505092915050565b60008060408385031215611a8c57611a8b61196f565b5b6000611a9a85828601611995565b9250506020611aab85828601611995565b9150509250929050565b600080fd5b6000601f19601f8301169050919050565b7f4e487b7100000000000000000000000000000000000000000000000000000000600052604160045260246000fd5b611b0382611aba565b810181811067ffffffffffffffff82111715611b2257611b21611acb565b5b80604052505050565b6000611b35611965565b9050611b418282611afa565b919050565b600067ffffffffffffffff821115611b6157611b60611acb565b5b602082029050919050565b600080fd5b6000611b84611b7f84611b46565b611b2b565b90508060208402830185811115611b9e57611b9d611b6c565b5b835b81811015611bc75780611bb38882611995565b845260208401935050602081019050611ba0565b5050509392505050565b600082601f830112611be657611be5611ab5565b5b6002611bf3848285611b71565b91505092915050565b600067ffffffffffffffff821115611c1757611c16611acb565b5b602082029050919050565b6000611c35611c3084611bfc565b611b2b565b90508060408402830185811115611c4f57611c4e611b6c565b5b835b81811015611c785780611c648882611bd1565b845260208401935050604081019050611c51565b5050509392505050565b600082601f830112611c9757611c96611ab5565b5b6002611ca4848285611c22565b91505092915050565b600067ffffffffffffffff821115611cc857611cc7611acb565b5b602082029050919050565b6000611ce6611ce184611cad565b611b2b565b90508060208402830185811115611d0057611cff611b6c565b5b835b81811015611d295780611d158882611995565b845260208401935050602081019050611d02565b5050509392505050565b600082601f830112611d4857611d47611ab5565b5b6009611d55848285611cd3565b91505092915050565b6000806000806102208587031215611d7957611d7861196f565b5b6000611d8787828801611bd1565b9450506040611d9887828801611c82565b93505060c0611da987828801611bd1565b925050610100611dbb87828801611d33565b91505092959194509250565b60008115159050919050565b611ddc81611dc7565b82525050565b6000602082019050611df76000830184611dd3565b92915050565b611e0681611974565b82525050565b6000604082019050611e216000830185611dfd565b611e2e6020830184611dfd565b9392505050565b611e3e816119ca565b82525050565b611e4d81611974565b82525050565b7f4e487b7100000000000000000000000000000000000000000000000000000000600052602160045260246000fd5b60058110611e9357611e92611e53565b5b50565b6000819050611ea482611e82565b919050565b6000611eb482611e96565b9050919050565b611ec481611ea9565b82525050565b611ed381611dc7565b82525050565b6101a082016000820151611ef06000850182611e35565b506020820151611f036020850182611e44565b506040820151611f166040850182611e44565b506060820151611f296060850182611e44565b506080820151611f3c6080850182611e44565b5060a0820151611f4f60a0850182611e44565b5060c0820151611f6260c0850182611e44565b5060e0820151611f7560e0850182611e44565b50610100820151611f8a610100850182611e44565b50610120820151611f9f610120850182611e44565b50610140820151611fb4610140850182611e44565b50610160820151611fc9610160850182611ebb565b50610180820151611fde610180850182611eca565b50505050565b60048110611ff557611ff4611e53565b5b50565b600081905061200682611fe4565b919050565b600061201682611ff8565b9050919050565b6120268161200b565b82525050565b6101a0820160008201516120436000850182611eca565b5060208201516120566020850182611e44565b5060408201516120696040850182611e44565b50606082015161207c6060850182611e44565b50608082015161208f608085018261201d565b5060a08201516120a260a0850182611e44565b5060c08201516120b560c0850182611e44565b5060e08201516120c860e0850182611e44565b506101008201516120dd610100850182611e44565b506101208201516120f2610120850182611eca565b50610140820151612107610140850182611e44565b5061016082015161211c610160850182611eca565b50610180820151612131610180850182611e44565b50505050565b60a08201600082015161214d6000850182611eca565b5060208201516121606020850182611e44565b5060408201516121736040850182611e35565b5060608201516121866060850182611e44565b5060808201516121996080850182611e35565b50505050565b6000600c9050919050565b600081905092915050565b6000819050919050565b60006121cb8383611e44565b60208301905092915050565b6000602082019050919050565b6121ed8161219f565b6121f781846121aa565b9250612202826121b5565b8060005b8381101561223357815161221a87826121bf565b9650612225836121d7565b925050600181019050612206565b505050505050565b60006106e0820190506122516000830188611ed9565b61225f6101a083018761202c565b61226d610340830186612137565b61227b6103e08301856121e4565b6122896105608301846121e4565b9695505050505050565b60006020820190506122a86000830184611dfd565b92915050565b600067ffffffffffffffff8211156122c9576122c8611acb565b5b602082029050919050565b60006122e76122e2846122ae565b611b2b565b9050806020840283018581111561230157612300611b6c565b5b835b8181101561232a57806123168882611995565b845260208401935050602081019050612303565b5050509392505050565b600082601f83011261234957612348611ab5565b5b60086123568482856122d4565b91505092915050565b600080600080610200858703121561237a5761237961196f565b5b600061238887828801611bd1565b945050604061239987828801611c82565b93505060c06123aa87828801611bd1565b9250506101006123bc87828801612334565b91505092959194509250565b600082825260208201905092915050565b7f47616d6520697320706175736564000000000000000000000000000000000000600082015250565b600061240f600e836123c8565b915061241a826123d9565b602082019050919050565b6000602082019050818103600083015261243e81612402565b9050919050565b7f706c616e6574207472616e7366657272696e672069732064697361626c656400600082015250565b600061247b601f836123c8565b915061248682612445565b602082019050919050565b600060208201905081810360008301526124aa8161246e565b9050919050565b7f506c616e6574206973206e6f7420696e697469616c697a656400000000000000600082015250565b60006124e76019836123c8565b91506124f2826124b1565b602082019050919050565b60006020820190508181036000830152612516816124da565b9050919050565b7f4f6e6c79206f776e6572206163636f756e742063616e20706572666f726d207460008201527f686174206f7065726174696f6e206f6e20706c616e65742e0000000000000000602082015250565b60006125796038836123c8565b91506125848261251d565b604082019050919050565b600060208201905081810360008301526125a88161256c565b9050919050565b7f43616e6e6f74207472616e7366657220706c616e657420746f2073656c660000600082015250565b60006125e5601e836123c8565b91506125f0826125af565b602082019050919050565b60006020820190508181036000830152612614816125d8565b9050919050565b7f43616e206f6e6c79207472616e73666572206f776e65727368697020746f206960008201527f6e697469616c697a656420706c61796572730000000000000000000000000000602082015250565b60006126776032836123c8565b91506126828261261b565b604082019050919050565b600060208201905081810360008301526126a68161266a565b9050919050565b7f63616e2774207472616e7366657220612064657374726f79656420706c616e6560008201527f7400000000000000000000000000000000000000000000000000000000000000602082015250565b60006127096021836123c8565b9150612714826126ad565b604082019050919050565b60006020820190508181036000830152612738816126fc565b9050919050565b612748816119ca565b82525050565b6000606082019050612763600083018661273f565b6127706020830185611dfd565b61277d604083018461273f565b949350505050565b61278e81611974565b82525050565b60006020820190506127a96000830184612785565b92915050565b60006040820190506127c46000830185612785565b6127d16020830184612785565b9392505050565b60006060820190506127ed600083018661273f565b6127fa6020830185611dfd565b6128076040830184611dfd565b949350505050565b600060029050919050565b600081905092915050565b6000819050919050565b61283881611974565b82525050565b600061284a838361282f565b60208301905092915050565b6000602082019050919050565b61286c8161280f565b612876818461281a565b925061288182612825565b8060005b838110156128b2578151612899878261283e565b96506128a483612856565b925050600181019050612885565b505050505050565b600060029050919050565b600081905092915050565b6000819050919050565b600081905092915050565b6128ee8161280f565b6128f881846128da565b925061290382612825565b8060005b8381101561293457815161291b878261283e565b965061292683612856565b925050600181019050612907565b505050505050565b600061294883836128e5565b60408301905092915050565b6000602082019050919050565b61296a816128ba565b61297481846128c5565b925061297f826128d0565b8060005b838110156129b0578151612997878261293c565b96506129a283612954565b925050600181019050612983565b505050505050565b600060099050919050565b600081905092915050565b6000819050919050565b6000602082019050919050565b6129ee816129b8565b6129f881846129c3565b9250612a03826129ce565b8060005b83811015612a34578151612a1b878261283e565b9650612a26836129d8565b925050600181019050612a07565b505050505050565b600061022082019050612a526000830187612863565b612a5f6040830186612961565b612a6c60c0830185612863565b612a7a6101008301846129e5565b95945050505050565b612a8c81611dc7565b8114612a9757600080fd5b50565b600081519050612aa981612a83565b92915050565b600060208284031215612ac557612ac461196f565b5b6000612ad384828501612a9a565b91505092915050565b7f4661696c65642072657665616c20706620636865636b00000000000000000000600082015250565b6000612b126016836123c8565b9150612b1d82612adc565b602082019050919050565b60006020820190508181036000830152612b4181612b05565b9050919050565b7f4e487b7100000000000000000000000000000000000000000000000000000000600052603260045260246000fd5b600060059050919050565b600081905092915050565b6000819050919050565b6000602082019050919050565b612bad81612b77565b612bb78184612b82565b9250612bc282612b8d565b8060005b83811015612bf3578151612bda878261283e565b9650612be583612b97565b925050600181019050612bc6565b505050505050565b612c0481611dc7565b82525050565b600060c082019050612c1f6000830185612ba4565b612c2c60a0830184612bfb565b9392505050565b600080fd5b600081519050612c47816119dc565b92915050565b600081519050612c5c8161197e565b92915050565b60058110612c6f57600080fd5b50565b600081519050612c8181612c62565b92915050565b60006101a08284031215612c9e57612c9d612c33565b5b612ca96101a0611b2b565b90506000612cb984828501612c38565b6000830152506020612ccd84828501612c4d565b6020830152506040612ce184828501612c4d565b6040830152506060612cf584828501612c4d565b6060830152506080612d0984828501612c4d565b60808301525060a0612d1d84828501612c4d565b60a08301525060c0612d3184828501612c4d565b60c08301525060e0612d4584828501612c4d565b60e083015250610100612d5a84828501612c4d565b61010083015250610120612d7084828501612c4d565b61012083015250610140612d8684828501612c4d565b61014083015250610160612d9c84828501612c72565b61016083015250610180612db284828501612a9a565b6101808301525092915050565b60048110612dcc57600080fd5b50565b600081519050612dde81612dbf565b92915050565b60006101a08284031215612dfb57612dfa612c33565b5b612e066101a0611b2b565b90506000612e1684828501612a9a565b6000830152506020612e2a84828501612c4d565b6020830152506040612e3e84828501612c4d565b6040830152506060612e5284828501612c4d565b6060830152506080612e6684828501612dcf565b60808301525060a0612e7a84828501612c4d565b60a08301525060c0612e8e84828501612c4d565b60c08301525060e0612ea284828501612c4d565b60e083015250610100612eb784828501612c4d565b61010083015250610120612ecd84828501612a9a565b61012083015250610140612ee384828501612c4d565b61014083015250610160612ef984828501612a9a565b61016083015250610180612f0f84828501612c4d565b6101808301525092915050565b600060a08284031215612f3257612f31612c33565b5b612f3c60a0611b2b565b90506000612f4c84828501612a9a565b6000830152506020612f6084828501612c4d565b6020830152506040612f7484828501612c38565b6040830152506060612f8884828501612c4d565b6060830152506080612f9c84828501612c38565b60808301525092915050565b600067ffffffffffffffff821115612fc357612fc2611acb565b5b602082029050919050565b6000612fe1612fdc84612fa8565b611b2b565b90508060208402830185811115612ffb57612ffa611b6c565b5b835b8181101561302457806130108882612c4d565b845260208401935050602081019050612ffd565b5050509392505050565b600082601f83011261304357613042611ab5565b5b600c613050848285612fce565b91505092915050565b60008060008060006106e086880312156130765761307561196f565b5b600061308488828901612c87565b9550506101a061309688828901612de4565b9450506103406130a888828901612f1c565b9350506103e06130ba8882890161302e565b9250506105606130cc8882890161302e565b9150509295509295909350565b7f4e487b7100000000000000000000000000000000000000000000000000000000600052601160045260246000fd5b600061311382611974565b915061311e83611974565b9250817fffffffffffffffffffffffffffffffffffffffffffffffffffffffffffffffff0483118215151615613157576131566130d9565b5b828202905092915050565b7f57726f6e672076616c75652073656e7400000000000000000000000000000000600082015250565b60006131986010836123c8565b91506131a382613162565b602082019050919050565b600060208201905081810360008301526131c78161318b565b9050919050565b60006131d982611974565b91506131e483611974565b9250827fffffffffffffffffffffffffffffffffffffffffffffffffffffffffffffffff03821115613219576132186130d9565b5b828201905092915050565b6000602082019050613239600083018461273f565b92915050565b7f506c61796572206973206e6f742077686974656c697374656400000000000000600082015250565b60006132756019836123c8565b91506132808261323f565b602082019050919050565b600060208201905081810360008301526132a481613268565b9050919050565b60006060820190506132c06000830186612785565b6132cd6020830185612785565b6132da6040830184612bfb565b949350505050565b600060a0820190506132f76000830188612785565b6133046020830187612785565b6133116040830186612785565b61331e6060830185612785565b61332b6080830184612bfb565b9695505050505050565b600060808201905061334a600083018761273f565b6133576020830186611dfd565b6133646040830185611dfd565b6133716060830184611dfd565b95945050505050565b600060089050919050565b600081905092915050565b6000819050919050565b6000602082019050919050565b6133b08161337a565b6133ba8184613385565b92506133c582613390565b8060005b838110156133f65781516133dd878261283e565b96506133e88361339a565b9250506001810190506133c9565b505050505050565b6000610220820190506134146000830188612863565b6134216040830187612961565b61342e60c0830186612863565b61343c6101008301856133a7565b61344a610200830184612bfb565b9695505050505050565b60006060820190506134696000830186612785565b6134766020830185612785565b6134836040830184612785565b949350505050565b60006040820190506134a0600083018561273f565b6134ad6020830184611dfd565b939250505056fea26469706673582212203e81151081f78bd637bb2111ba94dafb3c894ad70d3b6ccad1308160f5b3b16664736f6c634300080d0033",
  "immutableReferences": {},
  "source": "// SPDX-License-Identifier: GPL-3.0\npragma solidity ^0.8.0;\n\n// External contract imports\nimport {DFWhitelistFacet} from \"./DFWhitelistFacet.sol\";\n\n// Library imports\nimport {Verifier} from \"../Verifier.sol\";\nimport {ABDKMath64x64} from \"../vendor/libraries/ABDKMath64x64.sol\";\nimport {LibDiamond} from \"../vendor/libraries/LibDiamond.sol\";\nimport {LibGameUtils} from \"../libraries/LibGameUtils.sol\";\nimport {LibArtifactUtils} from \"../libraries/LibArtifactUtils.sol\";\nimport {LibPlanet} from \"../libraries/LibPlanet.sol\";\n\n// Storage imports\nimport {WithStorage} from \"../libraries/LibStorage.sol\";\n\n// Type imports\nimport {\n    SpaceType,\n    Planet,\n    PlanetExtendedInfo,\n    PlanetExtendedInfo2,\n    Player,\n    ArtifactType,\n    DFPInitPlanetArgs,\n    DFPMoveArgs,\n    DFPFindArtifactArgs,\n    AdminCreatePlanetArgs\n} from \"../DFTypes.sol\";\n\ncontract DFCoreFacet is WithStorage {\n    using ABDKMath64x64 for *;\n\n    event PlayerInitialized(address player, uint256 loc);\n    event PlanetUpgraded(address player, uint256 loc, uint256 branch, uint256 toBranchLevel); // emitted in LibPlanet\n    event PlanetHatBought(address player, uint256 loc, uint256 tohatLevel);\n    event PlanetTransferred(address sender, uint256 loc, address receiver);\n    event LocationRevealed(address revealer, uint256 loc, uint256 x, uint256 y);\n\n    event PlanetSilverWithdrawn(address player, uint256 loc, uint256 amount);\n\n    //////////////////////\n    /// ACCESS CONTROL ///\n    //////////////////////\n\n    modifier onlyWhitelisted() {\n        require(\n            DFWhitelistFacet(address(this)).isWhitelisted(msg.sender) ||\n                msg.sender == LibDiamond.contractOwner(),\n            \"Player is not whitelisted\"\n        );\n        _;\n    }\n\n    modifier disabled() {\n        require(false, \"This functionality is disabled for the current round.\");\n        _;\n    }\n\n    modifier notPaused() {\n        require(!gs().paused, \"Game is paused\");\n        _;\n    }\n\n    //////////////////////\n    /// Game Mechanics ///\n    //////////////////////\n\n    function refreshPlanet(uint256 location) public notPaused {\n        LibPlanet.refreshPlanet(location);\n    }\n\n    function getRefreshedPlanet(uint256 location, uint256 timestamp)\n        public\n        view\n        returns (\n            Planet memory,\n            PlanetExtendedInfo memory,\n            PlanetExtendedInfo2 memory,\n            uint256[12] memory eventsToRemove,\n            uint256[12] memory artifactsToAdd\n        )\n    {\n        return LibPlanet.getRefreshedPlanet(location, timestamp);\n    }\n\n    function checkRevealProof(\n        uint256[2] memory _a,\n        uint256[2][2] memory _b,\n        uint256[2] memory _c,\n        uint256[9] memory _input\n    ) public view returns (bool) {\n        if (!snarkConstants().DISABLE_ZK_CHECKS) {\n            require(Verifier.verifyRevealProof(_a, _b, _c, _input), \"Failed reveal pf check\");\n        }\n\n        LibGameUtils.revertIfBadSnarkPerlinFlags(\n            [_input[4], _input[5], _input[6], _input[7], _input[8]],\n            false\n        );\n\n        return true;\n    }\n\n    function revealLocation(\n        uint256[2] memory _a,\n        uint256[2][2] memory _b,\n        uint256[2] memory _c,\n        uint256[9] memory _input\n    ) public onlyWhitelisted returns (uint256) {\n        require(checkRevealProof(_a, _b, _c, _input), \"Failed reveal pf check\");\n\n        if (!gs().planetsExtendedInfo[_input[0]].isInitialized) {\n            LibPlanet.initializePlanetWithDefaults(_input[0], _input[1], false);\n        }\n\n        LibPlanet.revealLocation(\n            _input[0],\n            _input[1],\n            _input[2],\n            _input[3],\n            msg.sender != LibDiamond.contractOwner()\n        );\n        emit LocationRevealed(msg.sender, _input[0], _input[2], _input[3]);\n    }\n\n    function initializePlayer(\n        uint256[2] memory _a,\n        uint256[2][2] memory _b,\n        uint256[2] memory _c,\n        uint256[8] memory _input\n    ) public onlyWhitelisted returns (uint256) {\n        LibPlanet.initializePlanet(_a, _b, _c, _input, true);\n\n        uint256 _location = _input[0];\n        uint256 _perlin = _input[1];\n        uint256 _radius = _input[2];\n\n        require(LibPlanet.checkPlayerInit(_location, _perlin, _radius));\n\n        // Initialize player data\n        gs().playerIds.push(msg.sender);\n        gs().players[msg.sender] = Player(\n            true,\n            msg.sender,\n            block.timestamp,\n            _location,\n            0,\n            0,\n            0,\n            gameConstants().SPACE_JUNK_LIMIT,\n            false\n        );\n\n        LibGameUtils.updateWorldRadius();\n        emit PlayerInitialized(msg.sender, _location);\n        return _location;\n    }\n\n    function upgradePlanet(uint256 _location, uint256 _branch)\n        public\n        notPaused\n        returns (uint256, uint256)\n    {\n        // _branch specifies which of the three upgrade branches player is leveling up\n        // 0 improves silver production and capacity\n        // 1 improves population\n        // 2 improves range\n        refreshPlanet(_location);\n        LibPlanet.upgradePlanet(_location, _branch);\n        return (_location, _branch);\n    }\n\n    function transferPlanet(uint256 _location, address _player) public notPaused {\n        require(gameConstants().PLANET_TRANSFER_ENABLED, \"planet transferring is disabled\");\n\n        require(\n            gs().planetsExtendedInfo[_location].isInitialized == true,\n            \"Planet is not initialized\"\n        );\n\n        refreshPlanet(_location);\n\n        require(\n            gs().planets[_location].owner == msg.sender,\n            \"Only owner account can perform that operation on planet.\"\n        );\n\n        require(_player != msg.sender, \"Cannot transfer planet to self\");\n\n        require(\n            gs().players[_player].isInitialized,\n            \"Can only transfer ownership to initialized players\"\n        );\n\n        require(\n            !gs().planetsExtendedInfo[_location].destroyed,\n            \"can't transfer a destroyed planet\"\n        );\n\n        gs().planets[_location].owner = _player;\n\n        emit PlanetTransferred(msg.sender, _location, _player);\n    }\n\n    function buyHat(uint256 _location) public payable notPaused {\n        require(\n            gs().planetsExtendedInfo[_location].isInitialized == true,\n            \"Planet is not initialized\"\n        );\n        refreshPlanet(_location);\n\n        require(\n            gs().planets[_location].owner == msg.sender,\n            \"Only owner account can perform that operation on planet.\"\n        );\n\n        uint256 cost = (1 << gs().planetsExtendedInfo[_location].hatLevel) * 1 ether;\n\n        require(msg.value == cost, \"Wrong value sent\");\n\n        gs().planetsExtendedInfo[_location].hatLevel += 1;\n        emit PlanetHatBought(msg.sender, _location, gs().planetsExtendedInfo[_location].hatLevel);\n    }\n\n    // withdraw silver\n    function withdrawSilver(uint256 locationId, uint256 amount) public notPaused {\n        refreshPlanet(locationId);\n        LibPlanet.withdrawSilver(locationId, amount);\n        emit PlanetSilverWithdrawn(msg.sender, locationId, amount);\n    }\n}\n",
  "sourcePath": "/home/terra/opensource/tosca-chain/smart-contract-example/contracts/facets/DFCoreFacet.sol",
  "compiler": {
    "name": "solc",
    "version": "0.8.13+commit.abaa5c0e.Emscripten.clang"
  },
  "schemaVersion": "3.4.7",
  "updatedAt": "2022-04-30T15:27:25.764Z",
  "devdoc": {
    "kind": "dev",
    "methods": {},
    "version": 1
  },
  "userdoc": {
    "kind": "user",
    "methods": {
      "refreshPlanet(uint256)": {
        "notice": "Game Mechanics ///"
      }
    },
    "version": 1
  }
}