{
  "contractName": "DFGetterFacet",
  "abi": [
    {
      "inputs": [],
      "name": "adminAddress",
      "outputs": [
        {
          "internalType": "address",
          "name": "",
          "type": "address"
        }
      ],
      "stateMutability": "view",
      "type": "function"
    },
    {
      "inputs": [],
      "name": "paused",
      "outputs": [
        {
          "internalType": "bool",
          "name": "",
          "type": "bool"
        }
      ],
      "stateMutability": "view",
      "type": "function"
    },
    {
      "inputs": [],
      "name": "TOKEN_MINT_END_TIMESTAMP",
      "outputs": [
        {
          "internalType": "uint256",
          "name": "",
          "type": "uint256"
        }
      ],
      "stateMutability": "view",
      "type": "function"
    },
    {
      "inputs": [],
      "name": "getSnarkConstants",
      "outputs": [
        {
          "components": [
            {
              "internalType": "bool",
              "name": "DISABLE_ZK_CHECKS",
              "type": "bool"
            },
            {
              "internalType": "uint256",
              "name": "PLANETHASH_KEY",
              "type": "uint256"
            },
            {
              "internalType": "uint256",
              "name": "SPACETYPE_KEY",
              "type": "uint256"
            },
            {
              "internalType": "uint256",
              "name": "BIOMEBASE_KEY",
              "type": "uint256"
            },
            {
              "internalType": "bool",
              "name": "PERLIN_MIRROR_X",
              "type": "bool"
            },
            {
              "internalType": "bool",
              "name": "PERLIN_MIRROR_Y",
              "type": "bool"
            },
            {
              "internalType": "uint256",
              "name": "PERLIN_LENGTH_SCALE",
              "type": "uint256"
            }
          ],
          "internalType": "struct SnarkConstants",
          "name": "",
          "type": "tuple"
        }
      ],
      "stateMutability": "pure",
      "type": "function"
    },
    {
      "inputs": [],
      "name": "getGameConstants",
      "outputs": [
        {
          "components": [
            {
              "internalType": "bool",
              "name": "ADMIN_CAN_ADD_PLANETS",
              "type": "bool"
            },
            {
              "internalType": "bool",
              "name": "WORLD_RADIUS_LOCKED",
              "type": "bool"
            },
            {
              "internalType": "uint256",
              "name": "WORLD_RADIUS_MIN",
              "type": "uint256"
            },
            {
              "internalType": "uint256",
              "name": "MAX_NATURAL_PLANET_LEVEL",
              "type": "uint256"
            },
            {
              "internalType": "uint256",
              "name": "TIME_FACTOR_HUNDREDTHS",
              "type": "uint256"
            },
            {
              "internalType": "uint256",
              "name": "PERLIN_THRESHOLD_1",
              "type": "uint256"
            },
            {
              "internalType": "uint256",
              "name": "PERLIN_THRESHOLD_2",
              "type": "uint256"
            },
            {
              "internalType": "uint256",
              "name": "PERLIN_THRESHOLD_3",
              "type": "uint256"
            },
            {
              "internalType": "uint256",
              "name": "INIT_PERLIN_MIN",
              "type": "uint256"
            },
            {
              "internalType": "uint256",
              "name": "INIT_PERLIN_MAX",
              "type": "uint256"
            },
            {
              "internalType": "uint256",
              "name": "SPAWN_RIM_AREA",
              "type": "uint256"
            },
            {
              "internalType": "uint256",
              "name": "BIOME_THRESHOLD_1",
              "type": "uint256"
            },
            {
              "internalType": "uint256",
              "name": "BIOME_THRESHOLD_2",
              "type": "uint256"
            },
            {
              "internalType": "uint256[10]",
              "name": "PLANET_LEVEL_THRESHOLDS",
              "type": "uint256[10]"
            },
            {
              "internalType": "uint256",
              "name": "PLANET_RARITY",
              "type": "uint256"
            },
            {
              "internalType": "bool",
              "name": "PLANET_TRANSFER_ENABLED",
              "type": "bool"
            },
            {
              "internalType": "uint256",
              "name": "PHOTOID_ACTIVATION_DELAY",
              "type": "uint256"
            },
            {
              "internalType": "uint256",
              "name": "LOCATION_REVEAL_COOLDOWN",
              "type": "uint256"
            },
            {
              "internalType": "uint8[5][10][4]",
              "name": "PLANET_TYPE_WEIGHTS",
              "type": "uint8[5][10][4]"
            },
            {
              "internalType": "uint256",
              "name": "SILVER_SCORE_VALUE",
              "type": "uint256"
            },
            {
              "internalType": "uint256[6]",
              "name": "ARTIFACT_POINT_VALUES",
              "type": "uint256[6]"
            },
            {
              "internalType": "bool",
              "name": "SPACE_JUNK_ENABLED",
              "type": "bool"
            },
            {
              "internalType": "uint256",
              "name": "SPACE_JUNK_LIMIT",
              "type": "uint256"
            },
            {
              "internalType": "uint256[10]",
              "name": "PLANET_LEVEL_JUNK",
              "type": "uint256[10]"
            },
            {
              "internalType": "uint256",
              "name": "ABANDON_SPEED_CHANGE_PERCENT",
              "type": "uint256"
            },
            {
              "internalType": "uint256",
              "name": "ABANDON_RANGE_CHANGE_PERCENT",
              "type": "uint256"
            },
            {
              "internalType": "uint256",
              "name": "GAME_START_BLOCK",
              "type": "uint256"
            },
            {
              "internalType": "bool",
              "name": "CAPTURE_ZONES_ENABLED",
              "type": "bool"
            },
            {
              "internalType": "uint256",
              "name": "CAPTURE_ZONE_COUNT",
              "type": "uint256"
            },
            {
              "internalType": "uint256",
              "name": "CAPTURE_ZONE_CHANGE_BLOCK_INTERVAL",
              "type": "uint256"
            },
            {
              "internalType": "uint256",
              "name": "CAPTURE_ZONE_RADIUS",
              "type": "uint256"
            },
            {
              "internalType": "uint256[10]",
              "name": "CAPTURE_ZONE_PLANET_LEVEL_SCORE",
              "type": "uint256[10]"
            },
            {
              "internalType": "uint256",
              "name": "CAPTURE_ZONE_HOLD_BLOCKS_REQUIRED",
              "type": "uint256"
            },
            {
              "internalType": "uint256",
              "name": "CAPTURE_ZONES_PER_5000_WORLD_RADIUS",
              "type": "uint256"
            }
          ],
          "internalType": "struct GameConstants",
          "name": "",
          "type": "tuple"
        }
      ],
      "stateMutability": "pure",
      "type": "function"
    },
    {
      "inputs": [],
      "name": "planetLevelsCount",
      "outputs": [
        {
          "internalType": "uint256",
          "name": "",
          "type": "uint256"
        }
      ],
      "stateMutability": "view",
      "type": "function"
    },
    {
      "inputs": [],
      "name": "worldRadius",
      "outputs": [
        {
          "internalType": "uint256",
          "name": "",
          "type": "uint256"
        }
      ],
      "stateMutability": "view",
      "type": "function"
    },
    {
      "inputs": [],
      "name": "planetEventsCount",
      "outputs": [
        {
          "internalType": "uint256",
          "name": "",
          "type": "uint256"
        }
      ],
      "stateMutability": "view",
      "type": "function"
    },
    {
      "inputs": [
        {
          "internalType": "uint256",
          "name": "level",
          "type": "uint256"
        }
      ],
      "name": "planetDefaultStats",
      "outputs": [
        {
          "components": [
            {
              "internalType": "string",
              "name": "label",
              "type": "string"
            },
            {
              "internalType": "uint256",
              "name": "populationCap",
              "type": "uint256"
            },
            {
              "internalType": "uint256",
              "name": "populationGrowth",
              "type": "uint256"
            },
            {
              "internalType": "uint256",
              "name": "range",
              "type": "uint256"
            },
            {
              "internalType": "uint256",
              "name": "speed",
              "type": "uint256"
            },
            {
              "internalType": "uint256",
              "name": "defense",
              "type": "uint256"
            },
            {
              "internalType": "uint256",
              "name": "silverGrowth",
              "type": "uint256"
            },
            {
              "internalType": "uint256",
              "name": "silverCap",
              "type": "uint256"
            },
            {
              "internalType": "uint256",
              "name": "barbarianPercentage",
              "type": "uint256"
            }
          ],
          "internalType": "struct PlanetDefaultStats",
          "name": "",
          "type": "tuple"
        }
      ],
      "stateMutability": "view",
      "type": "function"
    },
    {
      "inputs": [
        {
          "internalType": "uint256",
          "name": "idx",
          "type": "uint256"
        }
      ],
      "name": "planetIds",
      "outputs": [
        {
          "internalType": "uint256",
          "name": "",
          "type": "uint256"
        }
      ],
      "stateMutability": "view",
      "type": "function"
    },
    {
      "inputs": [
        {
          "internalType": "uint256",
          "name": "idx",
          "type": "uint256"
        }
      ],
      "name": "revealedPlanetIds",
      "outputs": [
        {
          "internalType": "uint256",
          "name": "",
          "type": "uint256"
        }
      ],
      "stateMutability": "view",
      "type": "function"
    },
    {
      "inputs": [
        {
          "internalType": "uint256",
          "name": "idx",
          "type": "uint256"
        }
      ],
      "name": "playerIds",
      "outputs": [
        {
          "internalType": "address",
          "name": "",
          "type": "address"
        }
      ],
      "stateMutability": "view",
      "type": "function"
    },
    {
      "inputs": [
        {
          "internalType": "uint256",
          "name": "key",
          "type": "uint256"
        }
      ],
      "name": "planets",
      "outputs": [
        {
          "components": [
            {
              "internalType": "address",
              "name": "owner",
              "type": "address"
            },
            {
              "internalType": "uint256",
              "name": "range",
              "type": "uint256"
            },
            {
              "internalType": "uint256",
              "name": "speed",
              "type": "uint256"
            },
            {
              "internalType": "uint256",
              "name": "defense",
              "type": "uint256"
            },
            {
              "internalType": "uint256",
              "name": "population",
              "type": "uint256"
            },
            {
              "internalType": "uint256",
              "name": "populationCap",
              "type": "uint256"
            },
            {
              "internalType": "uint256",
              "name": "populationGrowth",
              "type": "uint256"
            },
            {
              "internalType": "uint256",
              "name": "silverCap",
              "type": "uint256"
            },
            {
              "internalType": "uint256",
              "name": "silverGrowth",
              "type": "uint256"
            },
            {
              "internalType": "uint256",
              "name": "silver",
              "type": "uint256"
            },
            {
              "internalType": "uint256",
              "name": "planetLevel",
              "type": "uint256"
            },
            {
              "internalType": "enum PlanetType",
              "name": "planetType",
              "type": "uint8"
            },
            {
              "internalType": "bool",
              "name": "isHomePlanet",
              "type": "bool"
            }
          ],
          "internalType": "struct Planet",
          "name": "",
          "type": "tuple"
        }
      ],
      "stateMutability": "view",
      "type": "function"
    },
    {
      "inputs": [
        {
          "internalType": "uint256",
          "name": "key",
          "type": "uint256"
        }
      ],
      "name": "revealedCoords",
      "outputs": [
        {
          "components": [
            {
              "internalType": "uint256",
              "name": "locationId",
              "type": "uint256"
            },
            {
              "internalType": "uint256",
              "name": "x",
              "type": "uint256"
            },
            {
              "internalType": "uint256",
              "name": "y",
              "type": "uint256"
            },
            {
              "internalType": "address",
              "name": "revealer",
              "type": "address"
            }
          ],
          "internalType": "struct RevealedCoords",
          "name": "",
          "type": "tuple"
        }
      ],
      "stateMutability": "view",
      "type": "function"
    },
    {
      "inputs": [
        {
          "internalType": "uint256",
          "name": "key",
          "type": "uint256"
        }
      ],
      "name": "planetsExtendedInfo",
      "outputs": [
        {
          "components": [
            {
              "internalType": "bool",
              "name": "isInitialized",
              "type": "bool"
            },
            {
              "internalType": "uint256",
              "name": "createdAt",
              "type": "uint256"
            },
            {
              "internalType": "uint256",
              "name": "lastUpdated",
              "type": "uint256"
            },
            {
              "internalType": "uint256",
              "name": "perlin",
              "type": "uint256"
            },
            {
              "internalType": "enum SpaceType",
              "name": "spaceType",
              "type": "uint8"
            },
            {
              "internalType": "uint256",
              "name": "upgradeState0",
              "type": "uint256"
            },
            {
              "internalType": "uint256",
              "name": "upgradeState1",
              "type": "uint256"
            },
            {
              "internalType": "uint256",
              "name": "upgradeState2",
              "type": "uint256"
            },
            {
              "internalType": "uint256",
              "name": "hatLevel",
              "type": "uint256"
            },
            {
              "internalType": "bool",
              "name": "hasTriedFindingArtifact",
              "type": "bool"
            },
            {
              "internalType": "uint256",
              "name": "prospectedBlockNumber",
              "type": "uint256"
            },
            {
              "internalType": "bool",
              "name": "destroyed",
              "type": "bool"
            },
            {
              "internalType": "uint256",
              "name": "spaceJunk",
              "type": "uint256"
            }
          ],
          "internalType": "struct PlanetExtendedInfo",
          "name": "",
          "type": "tuple"
        }
      ],
      "stateMutability": "view",
      "type": "function"
    },
    {
      "inputs": [
        {
          "internalType": "uint256",
          "name": "key",
          "type": "uint256"
        }
      ],
      "name": "planetsExtendedInfo2",
      "outputs": [
        {
          "components": [
            {
              "internalType": "bool",
              "name": "isInitialized",
              "type": "bool"
            },
            {
              "internalType": "uint256",
              "name": "pausers",
              "type": "uint256"
            },
            {
              "internalType": "address",
              "name": "invader",
              "type": "address"
            },
            {
              "internalType": "uint256",
              "name": "invadeStartBlock",
              "type": "uint256"
            },
            {
              "internalType": "address",
              "name": "capturer",
              "type": "address"
            }
          ],
          "internalType": "struct PlanetExtendedInfo2",
          "name": "",
          "type": "tuple"
        }
      ],
      "stateMutability": "view",
      "type": "function"
    },
    {
      "inputs": [
        {
          "internalType": "uint256",
          "name": "key",
          "type": "uint256"
        }
      ],
      "name": "artifactIdToPlanetId",
      "outputs": [
        {
          "internalType": "uint256",
          "name": "",
          "type": "uint256"
        }
      ],
      "stateMutability": "view",
      "type": "function"
    },
    {
      "inputs": [
        {
          "internalType": "uint256",
          "name": "key",
          "type": "uint256"
        }
      ],
      "name": "artifactIdToVoyageId",
      "outputs": [
        {
          "internalType": "uint256",
          "name": "",
          "type": "uint256"
        }
      ],
      "stateMutability": "view",
      "type": "function"
    },
    {
      "inputs": [
        {
          "internalType": "uint256",
          "name": "key",
          "type": "uint256"
        }
      ],
      "name": "planetEvents",
      "outputs": [
        {
          "components": [
            {
              "internalType": "uint256",
              "name": "id",
              "type": "uint256"
            },
            {
              "internalType": "enum PlanetEventType",
              "name": "eventType",
              "type": "uint8"
            },
            {
              "internalType": "uint256",
              "name": "timeTrigger",
              "type": "uint256"
            },
            {
              "internalType": "uint256",
              "name": "timeAdded",
              "type": "uint256"
            }
          ],
          "internalType": "struct PlanetEventMetadata[]",
          "name": "",
          "type": "tuple[]"
        }
      ],
      "stateMutability": "view",
      "type": "function"
    },
    {
      "inputs": [
        {
          "internalType": "address",
          "name": "key",
          "type": "address"
        }
      ],
      "name": "players",
      "outputs": [
        {
          "components": [
            {
              "internalType": "bool",
              "name": "isInitialized",
              "type": "bool"
            },
            {
              "internalType": "address",
              "name": "player",
              "type": "address"
            },
            {
              "internalType": "uint256",
              "name": "initTimestamp",
              "type": "uint256"
            },
            {
              "internalType": "uint256",
              "name": "homePlanetId",
              "type": "uint256"
            },
            {
              "internalType": "uint256",
              "name": "lastRevealTimestamp",
              "type": "uint256"
            },
            {
              "internalType": "uint256",
              "name": "score",
              "type": "uint256"
            },
            {
              "internalType": "uint256",
              "name": "spaceJunk",
              "type": "uint256"
            },
            {
              "internalType": "uint256",
              "name": "spaceJunkLimit",
              "type": "uint256"
            },
            {
              "internalType": "bool",
              "name": "claimedShips",
              "type": "bool"
            }
          ],
          "internalType": "struct Player",
          "name": "",
          "type": "tuple"
        }
      ],
      "stateMutability": "view",
      "type": "function"
    },
    {
      "inputs": [
        {
          "internalType": "uint256",
          "name": "key",
          "type": "uint256"
        }
      ],
      "name": "planetArrivals",
      "outputs": [
        {
          "components": [
            {
              "internalType": "uint256",
              "name": "id",
              "type": "uint256"
            },
            {
              "internalType": "address",
              "name": "player",
              "type": "address"
            },
            {
              "internalType": "uint256",
              "name": "fromPlanet",
              "type": "uint256"
            },
            {
              "internalType": "uint256",
              "name": "toPlanet",
              "type": "uint256"
            },
            {
              "internalType": "uint256",
              "name": "popArriving",
              "type": "uint256"
            },
            {
              "internalType": "uint256",
              "name": "silverMoved",
              "type": "uint256"
            },
            {
              "internalType": "uint256",
              "name": "departureTime",
              "type": "uint256"
            },
            {
              "internalType": "uint256",
              "name": "arrivalTime",
              "type": "uint256"
            },
            {
              "internalType": "enum ArrivalType",
              "name": "arrivalType",
              "type": "uint8"
            },
            {
              "internalType": "uint256",
              "name": "carriedArtifactId",
              "type": "uint256"
            },
            {
              "internalType": "uint256",
              "name": "distance",
              "type": "uint256"
            }
          ],
          "internalType": "struct ArrivalData",
          "name": "",
          "type": "tuple"
        }
      ],
      "stateMutability": "view",
      "type": "function"
    },
    {
      "inputs": [
        {
          "internalType": "uint256",
          "name": "key",
          "type": "uint256"
        }
      ],
      "name": "planetArtifacts",
      "outputs": [
        {
          "internalType": "uint256[]",
          "name": "",
          "type": "uint256[]"
        }
      ],
      "stateMutability": "view",
      "type": "function"
    },
    {
      "inputs": [],
      "name": "getNPlanets",
      "outputs": [
        {
          "internalType": "uint256",
          "name": "",
          "type": "uint256"
        }
      ],
      "stateMutability": "view",
      "type": "function"
    },
    {
      "inputs": [],
      "name": "getNRevealedPlanets",
      "outputs": [
        {
          "internalType": "uint256",
          "name": "",
          "type": "uint256"
        }
      ],
      "stateMutability": "view",
      "type": "function"
    },
    {
      "inputs": [],
      "name": "getNPlayers",
      "outputs": [
        {
          "internalType": "uint256",
          "name": "",
          "type": "uint256"
        }
      ],
      "stateMutability": "view",
      "type": "function"
    },
    {
      "inputs": [
        {
          "internalType": "uint256",
          "name": "locationId",
          "type": "uint256"
        }
      ],
      "name": "getPlanetEventsCount",
      "outputs": [
        {
          "internalType": "uint256",
          "name": "",
          "type": "uint256"
        }
      ],
      "stateMutability": "view",
      "type": "function"
    },
    {
      "inputs": [
        {
          "internalType": "uint256",
          "name": "locationId",
          "type": "uint256"
        },
        {
          "internalType": "uint256",
          "name": "idx",
          "type": "uint256"
        }
      ],
      "name": "getPlanetEvent",
      "outputs": [
        {
          "components": [
            {
              "internalType": "uint256",
              "name": "id",
              "type": "uint256"
            },
            {
              "internalType": "enum PlanetEventType",
              "name": "eventType",
              "type": "uint8"
            },
            {
              "internalType": "uint256",
              "name": "timeTrigger",
              "type": "uint256"
            },
            {
              "internalType": "uint256",
              "name": "timeAdded",
              "type": "uint256"
            }
          ],
          "internalType": "struct PlanetEventMetadata",
          "name": "",
          "type": "tuple"
        }
      ],
      "stateMutability": "view",
      "type": "function"
    },
    {
      "inputs": [
        {
          "internalType": "uint256",
          "name": "arrivalId",
          "type": "uint256"
        }
      ],
      "name": "getPlanetArrival",
      "outputs": [
        {
          "components": [
            {
              "internalType": "uint256",
              "name": "id",
              "type": "uint256"
            },
            {
              "internalType": "address",
              "name": "player",
              "type": "address"
            },
            {
              "internalType": "uint256",
              "name": "fromPlanet",
              "type": "uint256"
            },
            {
              "internalType": "uint256",
              "name": "toPlanet",
              "type": "uint256"
            },
            {
              "internalType": "uint256",
              "name": "popArriving",
              "type": "uint256"
            },
            {
              "internalType": "uint256",
              "name": "silverMoved",
              "type": "uint256"
            },
            {
              "internalType": "uint256",
              "name": "departureTime",
              "type": "uint256"
            },
            {
              "internalType": "uint256",
              "name": "arrivalTime",
              "type": "uint256"
            },
            {
              "internalType": "enum ArrivalType",
              "name": "arrivalType",
              "type": "uint8"
            },
            {
              "internalType": "uint256",
              "name": "carriedArtifactId",
              "type": "uint256"
            },
            {
              "internalType": "uint256",
              "name": "distance",
              "type": "uint256"
            }
          ],
          "internalType": "struct ArrivalData",
          "name": "",
          "type": "tuple"
        }
      ],
      "stateMutability": "view",
      "type": "function"
    },
    {
      "inputs": [
        {
          "internalType": "uint256",
          "name": "locationId",
          "type": "uint256"
        }
      ],
      "name": "getRevealedCoords",
      "outputs": [
        {
          "components": [
            {
              "internalType": "uint256",
              "name": "locationId",
              "type": "uint256"
            },
            {
              "internalType": "uint256",
              "name": "x",
              "type": "uint256"
            },
            {
              "internalType": "uint256",
              "name": "y",
              "type": "uint256"
            },
            {
              "internalType": "address",
              "name": "revealer",
              "type": "address"
            }
          ],
          "internalType": "struct RevealedCoords",
          "name": "",
          "type": "tuple"
        }
      ],
      "stateMutability": "view",
      "type": "function"
    },
    {
      "inputs": [],
      "name": "getUpgrades",
      "outputs": [
        {
          "components": [
            {
              "internalType": "uint256",
              "name": "popCapMultiplier",
              "type": "uint256"
            },
            {
              "internalType": "uint256",
              "name": "popGroMultiplier",
              "type": "uint256"
            },
            {
              "internalType": "uint256",
              "name": "rangeMultiplier",
              "type": "uint256"
            },
            {
              "internalType": "uint256",
              "name": "speedMultiplier",
              "type": "uint256"
            },
            {
              "internalType": "uint256",
              "name": "defMultiplier",
              "type": "uint256"
            }
          ],
          "internalType": "struct Upgrade[4][3]",
          "name": "",
          "type": "tuple[4][3]"
        }
      ],
      "stateMutability": "pure",
      "type": "function"
    },
    {
      "inputs": [],
      "name": "getTypeWeights",
      "outputs": [
        {
          "internalType": "uint8[5][10][4]",
          "name": "",
          "type": "uint8[5][10][4]"
        }
      ],
      "stateMutability": "view",
      "type": "function"
    },
    {
      "inputs": [
        {
          "internalType": "address",
          "name": "playerId",
          "type": "address"
        }
      ],
      "name": "getPlayerSpaceJunkLimit",
      "outputs": [
        {
          "internalType": "uint256",
          "name": "",
          "type": "uint256"
        }
      ],
      "stateMutability": "view",
      "type": "function"
    },
    {
      "inputs": [],
      "name": "getArtifactPointValues",
      "outputs": [
        {
          "internalType": "uint256[6]",
          "name": "",
          "type": "uint256[6]"
        }
      ],
      "stateMutability": "view",
      "type": "function"
    },
    {
      "inputs": [],
      "name": "getRevealCooldown",
      "outputs": [
        {
          "internalType": "uint256",
          "name": "",
          "type": "uint256"
        }
      ],
      "stateMutability": "view",
      "type": "function"
    },
    {
      "inputs": [],
      "name": "getDefaultStats",
      "outputs": [
        {
          "components": [
            {
              "internalType": "string",
              "name": "label",
              "type": "string"
            },
            {
              "internalType": "uint256",
              "name": "populationCap",
              "type": "uint256"
            },
            {
              "internalType": "uint256",
              "name": "populationGrowth",
              "type": "uint256"
            },
            {
              "internalType": "uint256",
              "name": "range",
              "type": "uint256"
            },
            {
              "internalType": "uint256",
              "name": "speed",
              "type": "uint256"
            },
            {
              "internalType": "uint256",
              "name": "defense",
              "type": "uint256"
            },
            {
              "internalType": "uint256",
              "name": "silverGrowth",
              "type": "uint256"
            },
            {
              "internalType": "uint256",
              "name": "silverCap",
              "type": "uint256"
            },
            {
              "internalType": "uint256",
              "name": "barbarianPercentage",
              "type": "uint256"
            }
          ],
          "internalType": "struct PlanetDefaultStats[]",
          "name": "",
          "type": "tuple[]"
        }
      ],
      "stateMutability": "pure",
      "type": "function"
    },
    {
      "inputs": [],
      "name": "getPlanetLevelThresholds",
      "outputs": [
        {
          "internalType": "uint256[]",
          "name": "",
          "type": "uint256[]"
        }
      ],
      "stateMutability": "view",
      "type": "function"
    },
    {
      "inputs": [],
      "name": "getCumulativeRarities",
      "outputs": [
        {
          "internalType": "uint256[]",
          "name": "",
          "type": "uint256[]"
        }
      ],
      "stateMutability": "view",
      "type": "function"
    },
    {
      "inputs": [
        {
          "internalType": "uint256",
          "name": "startIdx",
          "type": "uint256"
        },
        {
          "internalType": "uint256",
          "name": "endIdx",
          "type": "uint256"
        }
      ],
      "name": "bulkGetPlanetIds",
      "outputs": [
        {
          "internalType": "uint256[]",
          "name": "ret",
          "type": "uint256[]"
        }
      ],
      "stateMutability": "view",
      "type": "function"
    },
    {
      "inputs": [
        {
          "internalType": "uint256",
          "name": "startIdx",
          "type": "uint256"
        },
        {
          "internalType": "uint256",
          "name": "endIdx",
          "type": "uint256"
        }
      ],
      "name": "bulkGetRevealedPlanetIds",
      "outputs": [
        {
          "internalType": "uint256[]",
          "name": "ret",
          "type": "uint256[]"
        }
      ],
      "stateMutability": "view",
      "type": "function"
    },
    {
      "inputs": [
        {
          "internalType": "uint256[]",
          "name": "ids",
          "type": "uint256[]"
        }
      ],
      "name": "bulkGetPlanetsByIds",
      "outputs": [
        {
          "components": [
            {
              "internalType": "address",
              "name": "owner",
              "type": "address"
            },
            {
              "internalType": "uint256",
              "name": "range",
              "type": "uint256"
            },
            {
              "internalType": "uint256",
              "name": "speed",
              "type": "uint256"
            },
            {
              "internalType": "uint256",
              "name": "defense",
              "type": "uint256"
            },
            {
              "internalType": "uint256",
              "name": "population",
              "type": "uint256"
            },
            {
              "internalType": "uint256",
              "name": "populationCap",
              "type": "uint256"
            },
            {
              "internalType": "uint256",
              "name": "populationGrowth",
              "type": "uint256"
            },
            {
              "internalType": "uint256",
              "name": "silverCap",
              "type": "uint256"
            },
            {
              "internalType": "uint256",
              "name": "silverGrowth",
              "type": "uint256"
            },
            {
              "internalType": "uint256",
              "name": "silver",
              "type": "uint256"
            },
            {
              "internalType": "uint256",
              "name": "planetLevel",
              "type": "uint256"
            },
            {
              "internalType": "enum PlanetType",
              "name": "planetType",
              "type": "uint8"
            },
            {
              "internalType": "bool",
              "name": "isHomePlanet",
              "type": "bool"
            }
          ],
          "internalType": "struct Planet[]",
          "name": "ret",
          "type": "tuple[]"
        }
      ],
      "stateMutability": "view",
      "type": "function"
    },
    {
      "inputs": [
        {
          "internalType": "uint256[]",
          "name": "ids",
          "type": "uint256[]"
        }
      ],
      "name": "bulkGetRevealedCoordsByIds",
      "outputs": [
        {
          "components": [
            {
              "internalType": "uint256",
              "name": "locationId",
              "type": "uint256"
            },
            {
              "internalType": "uint256",
              "name": "x",
              "type": "uint256"
            },
            {
              "internalType": "uint256",
              "name": "y",
              "type": "uint256"
            },
            {
              "internalType": "address",
              "name": "revealer",
              "type": "address"
            }
          ],
          "internalType": "struct RevealedCoords[]",
          "name": "ret",
          "type": "tuple[]"
        }
      ],
      "stateMutability": "view",
      "type": "function"
    },
    {
      "inputs": [
        {
          "internalType": "uint256[]",
          "name": "ids",
          "type": "uint256[]"
        }
      ],
      "name": "bulkGetPlanetArrivalsByIds",
      "outputs": [
        {
          "components": [
            {
              "internalType": "uint256",
              "name": "id",
              "type": "uint256"
            },
            {
              "internalType": "address",
              "name": "player",
              "type": "address"
            },
            {
              "internalType": "uint256",
              "name": "fromPlanet",
              "type": "uint256"
            },
            {
              "internalType": "uint256",
              "name": "toPlanet",
              "type": "uint256"
            },
            {
              "internalType": "uint256",
              "name": "popArriving",
              "type": "uint256"
            },
            {
              "internalType": "uint256",
              "name": "silverMoved",
              "type": "uint256"
            },
            {
              "internalType": "uint256",
              "name": "departureTime",
              "type": "uint256"
            },
            {
              "internalType": "uint256",
              "name": "arrivalTime",
              "type": "uint256"
            },
            {
              "internalType": "enum ArrivalType",
              "name": "arrivalType",
              "type": "uint8"
            },
            {
              "internalType": "uint256",
              "name": "carriedArtifactId",
              "type": "uint256"
            },
            {
              "internalType": "uint256",
              "name": "distance",
              "type": "uint256"
            }
          ],
          "internalType": "struct ArrivalData[][]",
          "name": "",
          "type": "tuple[][]"
        }
      ],
      "stateMutability": "view",
      "type": "function"
    },
    {
      "inputs": [
        {
          "internalType": "uint256[]",
          "name": "ids",
          "type": "uint256[]"
        }
      ],
      "name": "bulkGetPlanetsExtendedInfoByIds",
      "outputs": [
        {
          "components": [
            {
              "internalType": "bool",
              "name": "isInitialized",
              "type": "bool"
            },
            {
              "internalType": "uint256",
              "name": "createdAt",
              "type": "uint256"
            },
            {
              "internalType": "uint256",
              "name": "lastUpdated",
              "type": "uint256"
            },
            {
              "internalType": "uint256",
              "name": "perlin",
              "type": "uint256"
            },
            {
              "internalType": "enum SpaceType",
              "name": "spaceType",
              "type": "uint8"
            },
            {
              "internalType": "uint256",
              "name": "upgradeState0",
              "type": "uint256"
            },
            {
              "internalType": "uint256",
              "name": "upgradeState1",
              "type": "uint256"
            },
            {
              "internalType": "uint256",
              "name": "upgradeState2",
              "type": "uint256"
            },
            {
              "internalType": "uint256",
              "name": "hatLevel",
              "type": "uint256"
            },
            {
              "internalType": "bool",
              "name": "hasTriedFindingArtifact",
              "type": "bool"
            },
            {
              "internalType": "uint256",
              "name": "prospectedBlockNumber",
              "type": "uint256"
            },
            {
              "internalType": "bool",
              "name": "destroyed",
              "type": "bool"
            },
            {
              "internalType": "uint256",
              "name": "spaceJunk",
              "type": "uint256"
            }
          ],
          "internalType": "struct PlanetExtendedInfo[]",
          "name": "ret",
          "type": "tuple[]"
        }
      ],
      "stateMutability": "view",
      "type": "function"
    },
    {
      "inputs": [
        {
          "internalType": "uint256[]",
          "name": "ids",
          "type": "uint256[]"
        }
      ],
      "name": "bulkGetPlanetsExtendedInfo2ByIds",
      "outputs": [
        {
          "components": [
            {
              "internalType": "bool",
              "name": "isInitialized",
              "type": "bool"
            },
            {
              "internalType": "uint256",
              "name": "pausers",
              "type": "uint256"
            },
            {
              "internalType": "address",
              "name": "invader",
              "type": "address"
            },
            {
              "internalType": "uint256",
              "name": "invadeStartBlock",
              "type": "uint256"
            },
            {
              "internalType": "address",
              "name": "capturer",
              "type": "address"
            }
          ],
          "internalType": "struct PlanetExtendedInfo2[]",
          "name": "ret",
          "type": "tuple[]"
        }
      ],
      "stateMutability": "view",
      "type": "function"
    },
    {
      "inputs": [
        {
          "internalType": "uint256[]",
          "name": "ids",
          "type": "uint256[]"
        }
      ],
      "name": "bulkGetPlanetsDataByIds",
      "outputs": [
        {
          "components": [
            {
              "components": [
                {
                  "internalType": "address",
                  "name": "owner",
                  "type": "address"
                },
                {
                  "internalType": "uint256",
                  "name": "range",
                  "type": "uint256"
                },
                {
                  "internalType": "uint256",
                  "name": "speed",
                  "type": "uint256"
                },
                {
                  "internalType": "uint256",
                  "name": "defense",
                  "type": "uint256"
                },
                {
                  "internalType": "uint256",
                  "name": "population",
                  "type": "uint256"
                },
                {
                  "internalType": "uint256",
                  "name": "populationCap",
                  "type": "uint256"
                },
                {
                  "internalType": "uint256",
                  "name": "populationGrowth",
                  "type": "uint256"
                },
                {
                  "internalType": "uint256",
                  "name": "silverCap",
                  "type": "uint256"
                },
                {
                  "internalType": "uint256",
                  "name": "silverGrowth",
                  "type": "uint256"
                },
                {
                  "internalType": "uint256",
                  "name": "silver",
                  "type": "uint256"
                },
                {
                  "internalType": "uint256",
                  "name": "planetLevel",
                  "type": "uint256"
                },
                {
                  "internalType": "enum PlanetType",
                  "name": "planetType",
                  "type": "uint8"
                },
                {
                  "internalType": "bool",
                  "name": "isHomePlanet",
                  "type": "bool"
                }
              ],
              "internalType": "struct Planet",
              "name": "planet",
              "type": "tuple"
            },
            {
              "components": [
                {
                  "internalType": "bool",
                  "name": "isInitialized",
                  "type": "bool"
                },
                {
                  "internalType": "uint256",
                  "name": "createdAt",
                  "type": "uint256"
                },
                {
                  "internalType": "uint256",
                  "name": "lastUpdated",
                  "type": "uint256"
                },
                {
                  "internalType": "uint256",
                  "name": "perlin",
                  "type": "uint256"
                },
                {
                  "internalType": "enum SpaceType",
                  "name": "spaceType",
                  "type": "uint8"
                },
                {
                  "internalType": "uint256",
                  "name": "upgradeState0",
                  "type": "uint256"
                },
                {
                  "internalType": "uint256",
                  "name": "upgradeState1",
                  "type": "uint256"
                },
                {
                  "internalType": "uint256",
                  "name": "upgradeState2",
                  "type": "uint256"
                },
                {
                  "internalType": "uint256",
                  "name": "hatLevel",
                  "type": "uint256"
                },
                {
                  "internalType": "bool",
                  "name": "hasTriedFindingArtifact",
                  "type": "bool"
                },
                {
                  "internalType": "uint256",
                  "name": "prospectedBlockNumber",
                  "type": "uint256"
                },
                {
                  "internalType": "bool",
                  "name": "destroyed",
                  "type": "bool"
                },
                {
                  "internalType": "uint256",
                  "name": "spaceJunk",
                  "type": "uint256"
                }
              ],
              "internalType": "struct PlanetExtendedInfo",
              "name": "info",
              "type": "tuple"
            },
            {
              "components": [
                {
                  "internalType": "bool",
                  "name": "isInitialized",
                  "type": "bool"
                },
                {
                  "internalType": "uint256",
                  "name": "pausers",
                  "type": "uint256"
                },
                {
                  "internalType": "address",
                  "name": "invader",
                  "type": "address"
                },
                {
                  "internalType": "uint256",
                  "name": "invadeStartBlock",
                  "type": "uint256"
                },
                {
                  "internalType": "address",
                  "name": "capturer",
                  "type": "address"
                }
              ],
              "internalType": "struct PlanetExtendedInfo2",
              "name": "info2",
              "type": "tuple"
            },
            {
              "components": [
                {
                  "internalType": "uint256",
                  "name": "locationId",
                  "type": "uint256"
                },
                {
                  "internalType": "uint256",
                  "name": "x",
                  "type": "uint256"
                },
                {
                  "internalType": "uint256",
                  "name": "y",
                  "type": "uint256"
                },
                {
                  "internalType": "address",
                  "name": "revealer",
                  "type": "address"
                }
              ],
              "internalType": "struct RevealedCoords",
              "name": "revealedCoords",
              "type": "tuple"
            }
          ],
          "internalType": "struct PlanetData[]",
          "name": "ret",
          "type": "tuple[]"
        }
      ],
      "stateMutability": "view",
      "type": "function"
    },
    {
      "inputs": [
        {
          "internalType": "uint256[]",
          "name": "ids",
          "type": "uint256[]"
        }
      ],
      "name": "bulkGetVoyagesByIds",
      "outputs": [
        {
          "components": [
            {
              "internalType": "uint256",
              "name": "id",
              "type": "uint256"
            },
            {
              "internalType": "address",
              "name": "player",
              "type": "address"
            },
            {
              "internalType": "uint256",
              "name": "fromPlanet",
              "type": "uint256"
            },
            {
              "internalType": "uint256",
              "name": "toPlanet",
              "type": "uint256"
            },
            {
              "internalType": "uint256",
              "name": "popArriving",
              "type": "uint256"
            },
            {
              "internalType": "uint256",
              "name": "silverMoved",
              "type": "uint256"
            },
            {
              "internalType": "uint256",
              "name": "departureTime",
              "type": "uint256"
            },
            {
              "internalType": "uint256",
              "name": "arrivalTime",
              "type": "uint256"
            },
            {
              "internalType": "enum ArrivalType",
              "name": "arrivalType",
              "type": "uint8"
            },
            {
              "internalType": "uint256",
              "name": "carriedArtifactId",
              "type": "uint256"
            },
            {
              "internalType": "uint256",
              "name": "distance",
              "type": "uint256"
            }
          ],
          "internalType": "struct ArrivalData[]",
          "name": "ret",
          "type": "tuple[]"
        }
      ],
      "stateMutability": "view",
      "type": "function"
    },
    {
      "inputs": [
        {
          "internalType": "uint256",
          "name": "startIdx",
          "type": "uint256"
        },
        {
          "internalType": "uint256",
          "name": "endIdx",
          "type": "uint256"
        }
      ],
      "name": "bulkGetPlanets",
      "outputs": [
        {
          "components": [
            {
              "internalType": "address",
              "name": "owner",
              "type": "address"
            },
            {
              "internalType": "uint256",
              "name": "range",
              "type": "uint256"
            },
            {
              "internalType": "uint256",
              "name": "speed",
              "type": "uint256"
            },
            {
              "internalType": "uint256",
              "name": "defense",
              "type": "uint256"
            },
            {
              "internalType": "uint256",
              "name": "population",
              "type": "uint256"
            },
            {
              "internalType": "uint256",
              "name": "populationCap",
              "type": "uint256"
            },
            {
              "internalType": "uint256",
              "name": "populationGrowth",
              "type": "uint256"
            },
            {
              "internalType": "uint256",
              "name": "silverCap",
              "type": "uint256"
            },
            {
              "internalType": "uint256",
              "name": "silverGrowth",
              "type": "uint256"
            },
            {
              "internalType": "uint256",
              "name": "silver",
              "type": "uint256"
            },
            {
              "internalType": "uint256",
              "name": "planetLevel",
              "type": "uint256"
            },
            {
              "internalType": "enum PlanetType",
              "name": "planetType",
              "type": "uint8"
            },
            {
              "internalType": "bool",
              "name": "isHomePlanet",
              "type": "bool"
            }
          ],
          "internalType": "struct Planet[]",
          "name": "ret",
          "type": "tuple[]"
        }
      ],
      "stateMutability": "view",
      "type": "function"
    },
    {
      "inputs": [
        {
          "internalType": "uint256",
          "name": "startIdx",
          "type": "uint256"
        },
        {
          "internalType": "uint256",
          "name": "endIdx",
          "type": "uint256"
        }
      ],
      "name": "bulkGetPlanetsExtendedInfo",
      "outputs": [
        {
          "components": [
            {
              "internalType": "bool",
              "name": "isInitialized",
              "type": "bool"
            },
            {
              "internalType": "uint256",
              "name": "createdAt",
              "type": "uint256"
            },
            {
              "internalType": "uint256",
              "name": "lastUpdated",
              "type": "uint256"
            },
            {
              "internalType": "uint256",
              "name": "perlin",
              "type": "uint256"
            },
            {
              "internalType": "enum SpaceType",
              "name": "spaceType",
              "type": "uint8"
            },
            {
              "internalType": "uint256",
              "name": "upgradeState0",
              "type": "uint256"
            },
            {
              "internalType": "uint256",
              "name": "upgradeState1",
              "type": "uint256"
            },
            {
              "internalType": "uint256",
              "name": "upgradeState2",
              "type": "uint256"
            },
            {
              "internalType": "uint256",
              "name": "hatLevel",
              "type": "uint256"
            },
            {
              "internalType": "bool",
              "name": "hasTriedFindingArtifact",
              "type": "bool"
            },
            {
              "internalType": "uint256",
              "name": "prospectedBlockNumber",
              "type": "uint256"
            },
            {
              "internalType": "bool",
              "name": "destroyed",
              "type": "bool"
            },
            {
              "internalType": "uint256",
              "name": "spaceJunk",
              "type": "uint256"
            }
          ],
          "internalType": "struct PlanetExtendedInfo[]",
          "name": "ret",
          "type": "tuple[]"
        }
      ],
      "stateMutability": "view",
      "type": "function"
    },
    {
      "inputs": [
        {
          "internalType": "uint256",
          "name": "startIdx",
          "type": "uint256"
        },
        {
          "internalType": "uint256",
          "name": "endIdx",
          "type": "uint256"
        }
      ],
      "name": "bulkGetPlayerIds",
      "outputs": [
        {
          "internalType": "address[]",
          "name": "ret",
          "type": "address[]"
        }
      ],
      "stateMutability": "view",
      "type": "function"
    },
    {
      "inputs": [
        {
          "internalType": "uint256",
          "name": "startIdx",
          "type": "uint256"
        },
        {
          "internalType": "uint256",
          "name": "endIdx",
          "type": "uint256"
        }
      ],
      "name": "bulkGetPlayers",
      "outputs": [
        {
          "components": [
            {
              "internalType": "bool",
              "name": "isInitialized",
              "type": "bool"
            },
            {
              "internalType": "address",
              "name": "player",
              "type": "address"
            },
            {
              "internalType": "uint256",
              "name": "initTimestamp",
              "type": "uint256"
            },
            {
              "internalType": "uint256",
              "name": "homePlanetId",
              "type": "uint256"
            },
            {
              "internalType": "uint256",
              "name": "lastRevealTimestamp",
              "type": "uint256"
            },
            {
              "internalType": "uint256",
              "name": "score",
              "type": "uint256"
            },
            {
              "internalType": "uint256",
              "name": "spaceJunk",
              "type": "uint256"
            },
            {
              "internalType": "uint256",
              "name": "spaceJunkLimit",
              "type": "uint256"
            },
            {
              "internalType": "bool",
              "name": "claimedShips",
              "type": "bool"
            }
          ],
          "internalType": "struct Player[]",
          "name": "ret",
          "type": "tuple[]"
        }
      ],
      "stateMutability": "view",
      "type": "function"
    },
    {
      "inputs": [
        {
          "internalType": "uint256",
          "name": "_location",
          "type": "uint256"
        }
      ],
      "name": "getPlanetArrivals",
      "outputs": [
        {
          "components": [
            {
              "internalType": "uint256",
              "name": "id",
              "type": "uint256"
            },
            {
              "internalType": "address",
              "name": "player",
              "type": "address"
            },
            {
              "internalType": "uint256",
              "name": "fromPlanet",
              "type": "uint256"
            },
            {
              "internalType": "uint256",
              "name": "toPlanet",
              "type": "uint256"
            },
            {
              "internalType": "uint256",
              "name": "popArriving",
              "type": "uint256"
            },
            {
              "internalType": "uint256",
              "name": "silverMoved",
              "type": "uint256"
            },
            {
              "internalType": "uint256",
              "name": "departureTime",
              "type": "uint256"
            },
            {
              "internalType": "uint256",
              "name": "arrivalTime",
              "type": "uint256"
            },
            {
              "internalType": "enum ArrivalType",
              "name": "arrivalType",
              "type": "uint8"
            },
            {
              "internalType": "uint256",
              "name": "carriedArtifactId",
              "type": "uint256"
            },
            {
              "internalType": "uint256",
              "name": "distance",
              "type": "uint256"
            }
          ],
          "internalType": "struct ArrivalData[]",
          "name": "ret",
          "type": "tuple[]"
        }
      ],
      "stateMutability": "view",
      "type": "function"
    },
    {
      "inputs": [
        {
          "internalType": "uint256",
          "name": "startIdx",
          "type": "uint256"
        },
        {
          "internalType": "uint256",
          "name": "endIdx",
          "type": "uint256"
        }
      ],
      "name": "bulkGetPlanetArrivals",
      "outputs": [
        {
          "components": [
            {
              "internalType": "uint256",
              "name": "id",
              "type": "uint256"
            },
            {
              "internalType": "address",
              "name": "player",
              "type": "address"
            },
            {
              "internalType": "uint256",
              "name": "fromPlanet",
              "type": "uint256"
            },
            {
              "internalType": "uint256",
              "name": "toPlanet",
              "type": "uint256"
            },
            {
              "internalType": "uint256",
              "name": "popArriving",
              "type": "uint256"
            },
            {
              "internalType": "uint256",
              "name": "silverMoved",
              "type": "uint256"
            },
            {
              "internalType": "uint256",
              "name": "departureTime",
              "type": "uint256"
            },
            {
              "internalType": "uint256",
              "name": "arrivalTime",
              "type": "uint256"
            },
            {
              "internalType": "enum ArrivalType",
              "name": "arrivalType",
              "type": "uint8"
            },
            {
              "internalType": "uint256",
              "name": "carriedArtifactId",
              "type": "uint256"
            },
            {
              "internalType": "uint256",
              "name": "distance",
              "type": "uint256"
            }
          ],
          "internalType": "struct ArrivalData[][]",
          "name": "",
          "type": "tuple[][]"
        }
      ],
      "stateMutability": "view",
      "type": "function"
    },
    {
      "inputs": [
        {
          "internalType": "uint256",
          "name": "artifactId",
          "type": "uint256"
        }
      ],
      "name": "getArtifactById",
      "outputs": [
        {
          "components": [
            {
              "components": [
                {
                  "internalType": "bool",
                  "name": "isInitialized",
                  "type": "bool"
                },
                {
                  "internalType": "uint256",
                  "name": "id",
                  "type": "uint256"
                },
                {
                  "internalType": "uint256",
                  "name": "planetDiscoveredOn",
                  "type": "uint256"
                },
                {
                  "internalType": "enum ArtifactRarity",
                  "name": "rarity",
                  "type": "uint8"
                },
                {
                  "internalType": "enum Biome",
                  "name": "planetBiome",
                  "type": "uint8"
                },
                {
                  "internalType": "uint256",
                  "name": "mintedAtTimestamp",
                  "type": "uint256"
                },
                {
                  "internalType": "address",
                  "name": "discoverer",
                  "type": "address"
                },
                {
                  "internalType": "enum ArtifactType",
                  "name": "artifactType",
                  "type": "uint8"
                },
                {
                  "internalType": "uint256",
                  "name": "activations",
                  "type": "uint256"
                },
                {
                  "internalType": "uint256",
                  "name": "lastActivated",
                  "type": "uint256"
                },
                {
                  "internalType": "uint256",
                  "name": "lastDeactivated",
                  "type": "uint256"
                },
                {
                  "internalType": "uint256",
                  "name": "wormholeTo",
                  "type": "uint256"
                },
                {
                  "internalType": "address",
                  "name": "controller",
                  "type": "address"
                }
              ],
              "internalType": "struct Artifact",
              "name": "artifact",
              "type": "tuple"
            },
            {
              "components": [
                {
                  "internalType": "uint256",
                  "name": "popCapMultiplier",
                  "type": "uint256"
                },
                {
                  "internalType": "uint256",
                  "name": "popGroMultiplier",
                  "type": "uint256"
                },
                {
                  "internalType": "uint256",
                  "name": "rangeMultiplier",
                  "type": "uint256"
                },
                {
                  "internalType": "uint256",
                  "name": "speedMultiplier",
                  "type": "uint256"
                },
                {
                  "internalType": "uint256",
                  "name": "defMultiplier",
                  "type": "uint256"
                }
              ],
              "internalType": "struct Upgrade",
              "name": "upgrade",
              "type": "tuple"
            },
            {
              "components": [
                {
                  "internalType": "uint256",
                  "name": "popCapMultiplier",
                  "type": "uint256"
                },
                {
                  "internalType": "uint256",
                  "name": "popGroMultiplier",
                  "type": "uint256"
                },
                {
                  "internalType": "uint256",
                  "name": "rangeMultiplier",
                  "type": "uint256"
                },
                {
                  "internalType": "uint256",
                  "name": "speedMultiplier",
                  "type": "uint256"
                },
                {
                  "internalType": "uint256",
                  "name": "defMultiplier",
                  "type": "uint256"
                }
              ],
              "internalType": "struct Upgrade",
              "name": "timeDelayedUpgrade",
              "type": "tuple"
            },
            {
              "internalType": "address",
              "name": "owner",
              "type": "address"
            },
            {
              "internalType": "uint256",
              "name": "locationId",
              "type": "uint256"
            },
            {
              "internalType": "uint256",
              "name": "voyageId",
              "type": "uint256"
            }
          ],
          "internalType": "struct ArtifactWithMetadata",
          "name": "ret",
          "type": "tuple"
        }
      ],
      "stateMutability": "view",
      "type": "function"
    },
    {
      "inputs": [
        {
          "internalType": "uint256",
          "name": "locationId",
          "type": "uint256"
        }
      ],
      "name": "getArtifactsOnPlanet",
      "outputs": [
        {
          "components": [
            {
              "components": [
                {
                  "internalType": "bool",
                  "name": "isInitialized",
                  "type": "bool"
                },
                {
                  "internalType": "uint256",
                  "name": "id",
                  "type": "uint256"
                },
                {
                  "internalType": "uint256",
                  "name": "planetDiscoveredOn",
                  "type": "uint256"
                },
                {
                  "internalType": "enum ArtifactRarity",
                  "name": "rarity",
                  "type": "uint8"
                },
                {
                  "internalType": "enum Biome",
                  "name": "planetBiome",
                  "type": "uint8"
                },
                {
                  "internalType": "uint256",
                  "name": "mintedAtTimestamp",
                  "type": "uint256"
                },
                {
                  "internalType": "address",
                  "name": "discoverer",
                  "type": "address"
                },
                {
                  "internalType": "enum ArtifactType",
                  "name": "artifactType",
                  "type": "uint8"
                },
                {
                  "internalType": "uint256",
                  "name": "activations",
                  "type": "uint256"
                },
                {
                  "internalType": "uint256",
                  "name": "lastActivated",
                  "type": "uint256"
                },
                {
                  "internalType": "uint256",
                  "name": "lastDeactivated",
                  "type": "uint256"
                },
                {
                  "internalType": "uint256",
                  "name": "wormholeTo",
                  "type": "uint256"
                },
                {
                  "internalType": "address",
                  "name": "controller",
                  "type": "address"
                }
              ],
              "internalType": "struct Artifact",
              "name": "artifact",
              "type": "tuple"
            },
            {
              "components": [
                {
                  "internalType": "uint256",
                  "name": "popCapMultiplier",
                  "type": "uint256"
                },
                {
                  "internalType": "uint256",
                  "name": "popGroMultiplier",
                  "type": "uint256"
                },
                {
                  "internalType": "uint256",
                  "name": "rangeMultiplier",
                  "type": "uint256"
                },
                {
                  "internalType": "uint256",
                  "name": "speedMultiplier",
                  "type": "uint256"
                },
                {
                  "internalType": "uint256",
                  "name": "defMultiplier",
                  "type": "uint256"
                }
              ],
              "internalType": "struct Upgrade",
              "name": "upgrade",
              "type": "tuple"
            },
            {
              "components": [
                {
                  "internalType": "uint256",
                  "name": "popCapMultiplier",
                  "type": "uint256"
                },
                {
                  "internalType": "uint256",
                  "name": "popGroMultiplier",
                  "type": "uint256"
                },
                {
                  "internalType": "uint256",
                  "name": "rangeMultiplier",
                  "type": "uint256"
                },
                {
                  "internalType": "uint256",
                  "name": "speedMultiplier",
                  "type": "uint256"
                },
                {
                  "internalType": "uint256",
                  "name": "defMultiplier",
                  "type": "uint256"
                }
              ],
              "internalType": "struct Upgrade",
              "name": "timeDelayedUpgrade",
              "type": "tuple"
            },
            {
              "internalType": "address",
              "name": "owner",
              "type": "address"
            },
            {
              "internalType": "uint256",
              "name": "locationId",
              "type": "uint256"
            },
            {
              "internalType": "uint256",
              "name": "voyageId",
              "type": "uint256"
            }
          ],
          "internalType": "struct ArtifactWithMetadata[]",
          "name": "ret",
          "type": "tuple[]"
        }
      ],
      "stateMutability": "view",
      "type": "function"
    },
    {
      "inputs": [
        {
          "internalType": "uint256[]",
          "name": "planetIds",
          "type": "uint256[]"
        }
      ],
      "name": "bulkGetPlanetArtifacts",
      "outputs": [
        {
          "components": [
            {
              "components": [
                {
                  "internalType": "bool",
                  "name": "isInitialized",
                  "type": "bool"
                },
                {
                  "internalType": "uint256",
                  "name": "id",
                  "type": "uint256"
                },
                {
                  "internalType": "uint256",
                  "name": "planetDiscoveredOn",
                  "type": "uint256"
                },
                {
                  "internalType": "enum ArtifactRarity",
                  "name": "rarity",
                  "type": "uint8"
                },
                {
                  "internalType": "enum Biome",
                  "name": "planetBiome",
                  "type": "uint8"
                },
                {
                  "internalType": "uint256",
                  "name": "mintedAtTimestamp",
                  "type": "uint256"
                },
                {
                  "internalType": "address",
                  "name": "discoverer",
                  "type": "address"
                },
                {
                  "internalType": "enum ArtifactType",
                  "name": "artifactType",
                  "type": "uint8"
                },
                {
                  "internalType": "uint256",
                  "name": "activations",
                  "type": "uint256"
                },
                {
                  "internalType": "uint256",
                  "name": "lastActivated",
                  "type": "uint256"
                },
                {
                  "internalType": "uint256",
                  "name": "lastDeactivated",
                  "type": "uint256"
                },
                {
                  "internalType": "uint256",
                  "name": "wormholeTo",
                  "type": "uint256"
                },
                {
                  "internalType": "address",
                  "name": "controller",
                  "type": "address"
                }
              ],
              "internalType": "struct Artifact",
              "name": "artifact",
              "type": "tuple"
            },
            {
              "components": [
                {
                  "internalType": "uint256",
                  "name": "popCapMultiplier",
                  "type": "uint256"
                },
                {
                  "internalType": "uint256",
                  "name": "popGroMultiplier",
                  "type": "uint256"
                },
                {
                  "internalType": "uint256",
                  "name": "rangeMultiplier",
                  "type": "uint256"
                },
                {
                  "internalType": "uint256",
                  "name": "speedMultiplier",
                  "type": "uint256"
                },
                {
                  "internalType": "uint256",
                  "name": "defMultiplier",
                  "type": "uint256"
                }
              ],
              "internalType": "struct Upgrade",
              "name": "upgrade",
              "type": "tuple"
            },
            {
              "components": [
                {
                  "internalType": "uint256",
                  "name": "popCapMultiplier",
                  "type": "uint256"
                },
                {
                  "internalType": "uint256",
                  "name": "popGroMultiplier",
                  "type": "uint256"
                },
                {
                  "internalType": "uint256",
                  "name": "rangeMultiplier",
                  "type": "uint256"
                },
                {
                  "internalType": "uint256",
                  "name": "speedMultiplier",
                  "type": "uint256"
                },
                {
                  "internalType": "uint256",
                  "name": "defMultiplier",
                  "type": "uint256"
                }
              ],
              "internalType": "struct Upgrade",
              "name": "timeDelayedUpgrade",
              "type": "tuple"
            },
            {
              "internalType": "address",
              "name": "owner",
              "type": "address"
            },
            {
              "internalType": "uint256",
              "name": "locationId",
              "type": "uint256"
            },
            {
              "internalType": "uint256",
              "name": "voyageId",
              "type": "uint256"
            }
          ],
          "internalType": "struct ArtifactWithMetadata[][]",
          "name": "",
          "type": "tuple[][]"
        }
      ],
      "stateMutability": "view",
      "type": "function"
    },
    {
      "inputs": [
        {
          "internalType": "uint256[]",
          "name": "ids",
          "type": "uint256[]"
        }
      ],
      "name": "bulkGetArtifactsByIds",
      "outputs": [
        {
          "components": [
            {
              "components": [
                {
                  "internalType": "bool",
                  "name": "isInitialized",
                  "type": "bool"
                },
                {
                  "internalType": "uint256",
                  "name": "id",
                  "type": "uint256"
                },
                {
                  "internalType": "uint256",
                  "name": "planetDiscoveredOn",
                  "type": "uint256"
                },
                {
                  "internalType": "enum ArtifactRarity",
                  "name": "rarity",
                  "type": "uint8"
                },
                {
                  "internalType": "enum Biome",
                  "name": "planetBiome",
                  "type": "uint8"
                },
                {
                  "internalType": "uint256",
                  "name": "mintedAtTimestamp",
                  "type": "uint256"
                },
                {
                  "internalType": "address",
                  "name": "discoverer",
                  "type": "address"
                },
                {
                  "internalType": "enum ArtifactType",
                  "name": "artifactType",
                  "type": "uint8"
                },
                {
                  "internalType": "uint256",
                  "name": "activations",
                  "type": "uint256"
                },
                {
                  "internalType": "uint256",
                  "name": "lastActivated",
                  "type": "uint256"
                },
                {
                  "internalType": "uint256",
                  "name": "lastDeactivated",
                  "type": "uint256"
                },
                {
                  "internalType": "uint256",
                  "name": "wormholeTo",
                  "type": "uint256"
                },
                {
                  "internalType": "address",
                  "name": "controller",
                  "type": "address"
                }
              ],
              "internalType": "struct Artifact",
              "name": "artifact",
              "type": "tuple"
            },
            {
              "components": [
                {
                  "internalType": "uint256",
                  "name": "popCapMultiplier",
                  "type": "uint256"
                },
                {
                  "internalType": "uint256",
                  "name": "popGroMultiplier",
                  "type": "uint256"
                },
                {
                  "internalType": "uint256",
                  "name": "rangeMultiplier",
                  "type": "uint256"
                },
                {
                  "internalType": "uint256",
                  "name": "speedMultiplier",
                  "type": "uint256"
                },
                {
                  "internalType": "uint256",
                  "name": "defMultiplier",
                  "type": "uint256"
                }
              ],
              "internalType": "struct Upgrade",
              "name": "upgrade",
              "type": "tuple"
            },
            {
              "components": [
                {
                  "internalType": "uint256",
                  "name": "popCapMultiplier",
                  "type": "uint256"
                },
                {
                  "internalType": "uint256",
                  "name": "popGroMultiplier",
                  "type": "uint256"
                },
                {
                  "internalType": "uint256",
                  "name": "rangeMultiplier",
                  "type": "uint256"
                },
                {
                  "internalType": "uint256",
                  "name": "speedMultiplier",
                  "type": "uint256"
                },
                {
                  "internalType": "uint256",
                  "name": "defMultiplier",
                  "type": "uint256"
                }
              ],
              "internalType": "struct Upgrade",
              "name": "timeDelayedUpgrade",
              "type": "tuple"
            },
            {
              "internalType": "address",
              "name": "owner",
              "type": "address"
            },
            {
              "internalType": "uint256",
              "name": "locationId",
              "type": "uint256"
            },
            {
              "internalType": "uint256",
              "name": "voyageId",
              "type": "uint256"
            }
          ],
          "internalType": "struct ArtifactWithMetadata[]",
          "name": "ret",
          "type": "tuple[]"
        }
      ],
      "stateMutability": "view",
      "type": "function"
    },
    {
      "inputs": [
        {
          "internalType": "uint256",
          "name": "startIdx",
          "type": "uint256"
        },
        {
          "internalType": "uint256",
          "name": "endIdx",
          "type": "uint256"
        }
      ],
      "name": "bulkGetArtifacts",
      "outputs": [
        {
          "components": [
            {
              "components": [
                {
                  "internalType": "bool",
                  "name": "isInitialized",
                  "type": "bool"
                },
                {
                  "internalType": "uint256",
                  "name": "id",
                  "type": "uint256"
                },
                {
                  "internalType": "uint256",
                  "name": "planetDiscoveredOn",
                  "type": "uint256"
                },
                {
                  "internalType": "enum ArtifactRarity",
                  "name": "rarity",
                  "type": "uint8"
                },
                {
                  "internalType": "enum Biome",
                  "name": "planetBiome",
                  "type": "uint8"
                },
                {
                  "internalType": "uint256",
                  "name": "mintedAtTimestamp",
                  "type": "uint256"
                },
                {
                  "internalType": "address",
                  "name": "discoverer",
                  "type": "address"
                },
                {
                  "internalType": "enum ArtifactType",
                  "name": "artifactType",
                  "type": "uint8"
                },
                {
                  "internalType": "uint256",
                  "name": "activations",
                  "type": "uint256"
                },
                {
                  "internalType": "uint256",
                  "name": "lastActivated",
                  "type": "uint256"
                },
                {
                  "internalType": "uint256",
                  "name": "lastDeactivated",
                  "type": "uint256"
                },
                {
                  "internalType": "uint256",
                  "name": "wormholeTo",
                  "type": "uint256"
                },
                {
                  "internalType": "address",
                  "name": "controller",
                  "type": "address"
                }
              ],
              "internalType": "struct Artifact",
              "name": "artifact",
              "type": "tuple"
            },
            {
              "components": [
                {
                  "internalType": "uint256",
                  "name": "popCapMultiplier",
                  "type": "uint256"
                },
                {
                  "internalType": "uint256",
                  "name": "popGroMultiplier",
                  "type": "uint256"
                },
                {
                  "internalType": "uint256",
                  "name": "rangeMultiplier",
                  "type": "uint256"
                },
                {
                  "internalType": "uint256",
                  "name": "speedMultiplier",
                  "type": "uint256"
                },
                {
                  "internalType": "uint256",
                  "name": "defMultiplier",
                  "type": "uint256"
                }
              ],
              "internalType": "struct Upgrade",
              "name": "upgrade",
              "type": "tuple"
            },
            {
              "components": [
                {
                  "internalType": "uint256",
                  "name": "popCapMultiplier",
                  "type": "uint256"
                },
                {
                  "internalType": "uint256",
                  "name": "popGroMultiplier",
                  "type": "uint256"
                },
                {
                  "internalType": "uint256",
                  "name": "rangeMultiplier",
                  "type": "uint256"
                },
                {
                  "internalType": "uint256",
                  "name": "speedMultiplier",
                  "type": "uint256"
                },
                {
                  "internalType": "uint256",
                  "name": "defMultiplier",
                  "type": "uint256"
                }
              ],
              "internalType": "struct Upgrade",
              "name": "timeDelayedUpgrade",
              "type": "tuple"
            },
            {
              "internalType": "address",
              "name": "owner",
              "type": "address"
            },
            {
              "internalType": "uint256",
              "name": "locationId",
              "type": "uint256"
            },
            {
              "internalType": "uint256",
              "name": "voyageId",
              "type": "uint256"
            }
          ],
          "internalType": "struct ArtifactWithMetadata[]",
          "name": "ret",
          "type": "tuple[]"
        }
      ],
      "stateMutability": "view",
      "type": "function"
    }
  ],
  "bytecode": "0x60806040523480156200001157600080fd5b506184b280620000226000396000f3fe608060405234801561001057600080fd5b50600436106103835760003560e01c806380cd44d5116101de578063d3a3f5511161010f578063ec935da2116100ad578063f9231d921161007c578063f9231d9214610c58578063fa37ca4514610c88578063fb9b90c214610cb8578063fc6f946814610cd657610383565b8063ec935da214610b98578063edb7ffe414610bc8578063f1e28ee014610bf8578063f6d5775a14610c2857610383565b8063dac40ae7116100e9578063dac40ae714610ad8578063dacb613514610b08578063e2eb41ff14610b38578063e654848a14610b6857610383565b8063d3a3f55114610a5a578063d4cc63e714610a8a578063da40b31114610aa857610383565b8063ad4890911161017c578063bdc56af511610156578063bdc56af5146109be578063c012b112146109dc578063c68b812614610a0c578063ccf738e914610a2a57610383565b8063ad48909114610940578063b5549e6414610970578063bb4908f2146109a057610383565b806390960189116101b85780639096018914610880578063975de613146108b057806398f94a8e146108e0578063aaca42e91461091057610383565b806380cd44d514610814578063865e1d3c146108445780638a05b3291461086257610383565b80634743be23116102b85780635c975abb116102565780636c7ffeec116102305780636c7ffeec14610754578063745297cc1461078457806376af38b4146107b457806378622ae6146107e457610383565b80635c975abb146106fa57806363ffb9ee14610718578063695bd00c1461073657610383565b806352b07fb81161029257806352b07fb81461064c57806354113a1e1461067c578063542df7c7146106ac5780635633aacd146106ca57610383565b80634743be23146105e05780634d618eb1146106105780634eb0e9591461062e57610383565b806326c1e750116103255780633f9d7c49116102ff5780633f9d7c491461052057806340a727881461055057806345510f221461058057806346d7789d146105b057610383565b806326c1e750146104905780632a9b1a32146104c05780633ee52a91146104f057610383565b80630e1d2115116103615780630e1d2115146103f4578063138314791461042457806319519983146104425780631a3971c61461046057610383565b806304d74a391461038857806305b86be5146103b857806308d2e95a146103d6575b600080fd5b6103a2600480360381019061039d91906152ba565b610cf4565b6040516103af9190615556565b60405180910390f35b6103c0610edd565b6040516103cd9190615627565b60405180910390f35b6103de610f3e565b6040516103eb9190615869565b60405180910390f35b61040e6004803603810190610409919061588b565b611086565b60405161041b919061594e565b60405180910390f35b61042c611130565b6040516104399190615978565b60405180910390f35b61044a611143565b6040516104579190615b84565b60405180910390f35b61047a6004803603810190610475919061588b565b61122a565b6040516104879190615978565b60405180910390f35b6104aa60048036038101906104a5919061588b565b611250565b6040516104b79190615cf3565b60405180910390f35b6104da60048036038101906104d5919061588b565b611397565b6040516104e79190615978565b60405180910390f35b61050a6004803603810190610505919061588b565b6113c8565b6040516105179190615978565b60405180910390f35b61053a60048036038101906105359190615d74565b6113f1565b604051610547919061605c565b60405180910390f35b61056a600480360381019061056591906152ba565b6114b4565b604051610577919061605c565b60405180910390f35b61059a60048036038101906105959190615d74565b611598565b6040516105a7919061634f565b60405180910390f35b6105ca60048036038101906105c59190615d74565b611a9d565b6040516105d79190616420565b60405180910390f35b6105fa60048036038101906105f59190615d74565b611bf2565b60405161060791906164f1565b60405180910390f35b610618611dae565b60405161062591906165a1565b60405180910390f35b610636611e47565b6040516106439190615978565b60405180910390f35b6106666004803603810190610661919061588b565b611e5a565b604051610673919061669d565b60405180910390f35b61069660048036038101906106919190615d74565b611f7c565b6040516106a39190616af7565b60405180910390f35b6106b46120af565b6040516106c19190616f47565b60405180910390f35b6106e460048036038101906106df919061588b565b612433565b6040516106f191906170af565b60405180910390f35b610702612507565b60405161070f91906170e0565b60405180910390f35b610720612527565b60405161072d9190615627565b60405180910390f35b61073e612588565b60405161074b9190617234565b60405180910390f35b61076e600480360381019061076991906152ba565b61264a565b60405161077b91906173b7565b60405180910390f35b61079e60048036038101906107999190615d74565b612861565b6040516107ab9190617448565b60405180910390f35b6107ce60048036038101906107c9919061588b565b612a2e565b6040516107db919061669d565b60405180910390f35b6107fe60048036038101906107f99190615d74565b612b50565b60405161080b9190615556565b60405180910390f35b61082e60048036038101906108299190617496565b612d18565b60405161083b9190615978565b60405180910390f35b61084c612d6d565b6040516108599190615978565b60405180910390f35b61086a612d80565b6040516108779190615978565b60405180910390f35b61089a6004803603810190610895919061588b565b612d96565b6040516108a79190617532565b60405180910390f35b6108ca60048036038101906108c591906152ba565b612ec5565b6040516108d79190617604565b60405180910390f35b6108fa60048036038101906108f59190615d74565b6130d8565b6040516109079190617604565b60405180910390f35b61092a600480360381019061092591906152ba565b6132ca565b6040516109379190615627565b60405180910390f35b61095a6004803603810190610955919061588b565b61339c565b6040516109679190615978565b60405180910390f35b61098a6004803603810190610985919061588b565b6133cd565b60405161099791906176eb565b60405180910390f35b6109a86134f2565b6040516109b59190615978565b60405180910390f35b6109c6613505565b6040516109d3919061776f565b60405180910390f35b6109f660048036038101906109f1919061588b565b613559565b604051610a039190617799565b60405180910390f35b610a146135aa565b604051610a219190615978565b60405180910390f35b610a446004803603810190610a3f919061588b565b6135c0565b604051610a5191906178bf565b60405180910390f35b610a746004803603810190610a6f919061588b565b6136dd565b604051610a819190615627565b60405180910390f35b610a92613751565b604051610a9f9190615978565b60405180910390f35b610ac26004803603810190610abd919061588b565b613767565b604051610acf9190615978565b60405180910390f35b610af26004803603810190610aed91906152ba565b61378d565b604051610aff9190617930565b60405180910390f35b610b226004803603810190610b1d919061588b565b61383d565b604051610b2f9190617448565b60405180910390f35b610b526004803603810190610b4d9190617496565b613aa8565b604051610b5f9190617a02565b60405180910390f35b610b826004803603810190610b7d9190617b5c565b613bd3565b604051610b8f9190617532565b60405180910390f35b610bb26004803603810190610bad91906152ba565b613f65565b604051610bbf9190617532565b60405180910390f35b610be26004803603810190610bdd919061588b565b6142f5565b604051610bef919061594e565b60405180910390f35b610c126004803603810190610c0d919061588b565b61439f565b604051610c1f9190617c0d565b60405180910390f35b610c426004803603810190610c3d91906152ba565b6144b0565b604051610c4f9190617cd7565b60405180910390f35b610c726004803603810190610c6d919061588b565b6145d0565b604051610c7f9190617d7a565b60405180910390f35b610ca26004803603810190610c9d91906152ba565b6148bb565b604051610caf9190615627565b60405180910390f35b610cc061498d565b604051610ccd9190615978565b60405180910390f35b610cde6149a0565b604051610ceb9190617799565b60405180910390f35b60608282610d029190617dc5565b67ffffffffffffffff811115610d1b57610d1a617a1e565b5b604051908082528060200260200182016040528015610d5457816020015b610d41614b3b565b815260200190600190039081610d395790505b50905060008390505b82811015610ed657610d6d6149af565b600e016000610d7a6149af565b6006018381548110610d8f57610d8e617df9565b5b90600052602060002001548152602001908152602001600020604051806101a00160405290816000820160009054906101000a900460ff161515151581526020016001820154815260200160028201548152602001600382015481526020016004820160009054906101000a900460ff166003811115610e1257610e11615350565b5b6003811115610e2457610e23615350565b5b8152602001600582015481526020016006820154815260200160078201548152602001600882015481526020016009820160009054906101000a900460ff16151515158152602001600a8201548152602001600b820160009054906101000a900460ff16151515158152602001600c82015481525050828583610ea79190617dc5565b81518110610eb857610eb7617df9565b5b60200260200101819052508080610ece90617e28565b915050610d5d565b5092915050565b6060610ee76149af565b600301805480602002602001604051908101604052809291908181526020018280548015610f3457602002820191906000526020600020905b815481526020019060010190808311610f20575b5050505050905090565b6060610f486149be565b805480602002602001604051908101604052809291908181526020016000905b8282101561107d578382906000526020600020906009020160405180610120016040529081600082018054610f9c90617e9f565b80601f0160208091040260200160405190810160405280929190818152602001828054610fc890617e9f565b80156110155780601f10610fea57610100808354040283529160200191611015565b820191906000526020600020905b815481529060010190602001808311610ff857829003601f168201915b505050505081526020016001820154815260200160028201548152602001600382015481526020016004820154815260200160058201548152602001600682015481526020016007820154815260200160088201548152505081526020019060010190610f68565b50505050905090565b61108e614bbb565b6110966149af565b600d0160008381526020019081526020016000206040518060800160405290816000820154815260200160018201548152602001600282015481526020016003820160009054906101000a900473ffffffffffffffffffffffffffffffffffffffff1673ffffffffffffffffffffffffffffffffffffffff1673ffffffffffffffffffffffffffffffffffffffff16815250509050919050565b600061113a6149af565b60010154905090565b61114b614bf9565b6111536149cd565b601a01600480602002604051908101604052809291906000905b82821015611221578382600a0201600a80602002604051908101604052809291906000905b8282101561120e578382016005806020026040519081016040528092919082600580156111fa576020028201916000905b82829054906101000a900460ff1660ff16815260200190600101906020826000010492830192600103820291508084116111c35790505b505050505081526020019060010190611192565b505050508152602001906001019061116d565b50505050905090565b60006112346149af565b6011016000838152602001908152602001600020549050919050565b611258614c26565b6112606149af565b600c016000838152602001908152602001600020604051806101a00160405290816000820160009054906101000a900473ffffffffffffffffffffffffffffffffffffffff1673ffffffffffffffffffffffffffffffffffffffff1673ffffffffffffffffffffffffffffffffffffffff168152602001600182015481526020016002820154815260200160038201548152602001600482015481526020016005820154815260200160068201548152602001600782015481526020016008820154815260200160098201548152602001600a8201548152602001600b820160009054906101000a900460ff16600481111561135f5761135e615350565b5b600481111561137157611370615350565b5b8152602001600b820160019054906101000a900460ff1615151515815250509050919050565b60006113a16149af565b60070182815481106113b6576113b5617df9565b5b90600052602060002001549050919050565b60006113d26149af565b6013016000838152602001908152602001600020805490509050919050565b606060008383905067ffffffffffffffff81111561141257611411617a1e565b5b60405190808252806020026020018201604052801561144557816020015b60608152602001906001900390816114305790505b50905060005b848490508110156114a95761147885858381811061146c5761146b617df9565b5b9050602002013561383d565b82828151811061148b5761148a617df9565b5b602002602001018190525080806114a190617e28565b91505061144b565b508091505092915050565b6060600083836114c49190617dc5565b67ffffffffffffffff8111156114dd576114dc617a1e565b5b60405190808252806020026020018201604052801561151057816020015b60608152602001906001900390816114fb5790505b50905060008490505b8381101561158d5761155161152c6149af565b600601828154811061154157611540617df9565b5b906000526020600020015461383d565b82868361155e9190617dc5565b8151811061156f5761156e617df9565b5b6020026020010181905250808061158590617e28565b915050611519565b508091505092915050565b60608282905067ffffffffffffffff8111156115b7576115b6617a1e565b5b6040519080825280602002602001820160405280156115f057816020015b6115dd614cb8565b8152602001906001900390816115d55790505b50905060005b83839050811015611a965760405180608001604052806116146149af565b600c01600087878681811061162c5761162b617df9565b5b905060200201358152602001908152602001600020604051806101a00160405290816000820160009054906101000a900473ffffffffffffffffffffffffffffffffffffffff1673ffffffffffffffffffffffffffffffffffffffff1673ffffffffffffffffffffffffffffffffffffffff168152602001600182015481526020016002820154815260200160038201548152602001600482015481526020016005820154815260200160068201548152602001600782015481526020016008820154815260200160098201548152602001600a8201548152602001600b820160009054906101000a900460ff16600481111561172c5761172b615350565b5b600481111561173e5761173d615350565b5b8152602001600b820160019054906101000a900460ff161515151581525050815260200161176a6149af565b600e01600087878681811061178257611781617df9565b5b905060200201358152602001908152602001600020604051806101a00160405290816000820160009054906101000a900460ff161515151581526020016001820154815260200160028201548152602001600382015481526020016004820160009054906101000a900460ff16600381111561180157611800615350565b5b600381111561181357611812615350565b5b8152602001600582015481526020016006820154815260200160078201548152602001600882015481526020016009820160009054906101000a900460ff16151515158152602001600a8201548152602001600b820160009054906101000a900460ff16151515158152602001600c8201548152505081526020016118966149af565b600f0160008787868181106118ae576118ad617df9565b5b9050602002013581526020019081526020016000206040518060a00160405290816000820160009054906101000a900460ff16151515158152602001600182015481526020016002820160009054906101000a900473ffffffffffffffffffffffffffffffffffffffff1673ffffffffffffffffffffffffffffffffffffffff1673ffffffffffffffffffffffffffffffffffffffff168152602001600382015481526020016004820160009054906101000a900473ffffffffffffffffffffffffffffffffffffffff1673ffffffffffffffffffffffffffffffffffffffff1673ffffffffffffffffffffffffffffffffffffffff168152505081526020016119b66149af565b600d0160008787868181106119ce576119cd617df9565b5b9050602002013581526020019081526020016000206040518060800160405290816000820154815260200160018201548152602001600282015481526020016003820160009054906101000a900473ffffffffffffffffffffffffffffffffffffffff1673ffffffffffffffffffffffffffffffffffffffff1673ffffffffffffffffffffffffffffffffffffffff1681525050815250828281518110611a7857611a77617df9565b5b60200260200101819052508080611a8e90617e28565b9150506115f6565b5092915050565b60608282905067ffffffffffffffff811115611abc57611abb617a1e565b5b604051908082528060200260200182016040528015611af557816020015b611ae2614bbb565b815260200190600190039081611ada5790505b50905060005b83839050811015611beb57611b0e6149af565b600d016000858584818110611b2657611b25617df9565b5b9050602002013581526020019081526020016000206040518060800160405290816000820154815260200160018201548152602001600282015481526020016003820160009054906101000a900473ffffffffffffffffffffffffffffffffffffffff1673ffffffffffffffffffffffffffffffffffffffff1673ffffffffffffffffffffffffffffffffffffffff1681525050828281518110611bcd57611bcc617df9565b5b60200260200101819052508080611be390617e28565b915050611afb565b5092915050565b60608282905067ffffffffffffffff811115611c1157611c10617a1e565b5b604051908082528060200260200182016040528015611c4a57816020015b611c37614cf8565b815260200190600190039081611c2f5790505b50905060005b83839050811015611da757611c636149af565b600f016000858584818110611c7b57611c7a617df9565b5b9050602002013581526020019081526020016000206040518060a00160405290816000820160009054906101000a900460ff16151515158152602001600182015481526020016002820160009054906101000a900473ffffffffffffffffffffffffffffffffffffffff1673ffffffffffffffffffffffffffffffffffffffff1673ffffffffffffffffffffffffffffffffffffffff168152602001600382015481526020016004820160009054906101000a900473ffffffffffffffffffffffffffffffffffffffff1673ffffffffffffffffffffffffffffffffffffffff1673ffffffffffffffffffffffffffffffffffffffff1681525050828281518110611d8957611d88617df9565b5b60200260200101819052508080611d9f90617e28565b915050611c50565b5092915050565b611db6614d55565b611dbe6149dc565b6040518060e00160405290816000820160009054906101000a900460ff161515151581526020016001820154815260200160028201548152602001600382015481526020016004820160009054906101000a900460ff161515151581526020016004820160019054906101000a900460ff16151515158152602001600582015481525050905090565b6000611e516149af565b60090154905090565b611e62614d98565b611e6a6149af565b601401600083815260200190815260200160002060405180610160016040529081600082015481526020016001820160009054906101000a900473ffffffffffffffffffffffffffffffffffffffff1673ffffffffffffffffffffffffffffffffffffffff1673ffffffffffffffffffffffffffffffffffffffff1681526020016002820154815260200160038201548152602001600482015481526020016005820154815260200160068201548152602001600782015481526020016008820160009054906101000a900460ff166003811115611f4b57611f4a615350565b5b6003811115611f5d57611f5c615350565b5b815260200160098201548152602001600a820154815250509050919050565b606060008383905067ffffffffffffffff811115611f9d57611f9c617a1e565b5b604051908082528060200260200182016040528015611fd057816020015b6060815260200190600190039081611fbb5790505b50905060005b848490508110156120a4576000611feb6149af565b601501600087878581811061200357612002617df9565b5b90506020020135815260200190815260200160002080548060200260200160405190810160405280929190818152602001828054801561206257602002820191906000526020600020905b81548152602001906001019080831161204e575b5050505050905061207281613bd3565b83838151811061208557612084617df9565b5b602002602001018190525050808061209c90617e28565b915050611fd6565b508091505092915050565b6120b7614e1a565b6120bf6149cd565b604051806104400160405290816000820160009054906101000a900460ff161515151581526020016000820160019054906101000a900460ff16151515158152602001600182015481526020016002820154815260200160038201548152602001600482015481526020016005820154815260200160068201548152602001600782015481526020016008820154815260200160098201548152602001600a8201548152602001600b8201548152602001600c8201600a806020026040519081016040528092919082600a80156121ab576020028201915b815481526020019060010190808311612197575b50505050508152602001601682015481526020016017820160009054906101000a900460ff161515151581526020016018820154815260200160198201548152602001601a8201600480602002604051908101604052809291906000905b828210156122bd578382600a0201600a80602002604051908101604052809291906000905b828210156122aa57838201600580602002604051908101604052809291908260058015612296576020028201916000905b82829054906101000a900460ff1660ff168152602001906001019060208260000104928301926001038202915080841161225f5790505b50505050508152602001906001019061222e565b5050505081526020019060010190612209565b505050508152602001604282015481526020016043820160068060200260405190810160405280929190826006801561230b576020028201915b8154815260200190600101908083116122f7575b505050505081526020016049820160009054906101000a900460ff16151515158152602001604a8201548152602001604b8201600a806020026040519081016040528092919082600a8015612375576020028201915b815481526020019060010190808311612361575b505050505081526020016055820154815260200160568201548152602001605782015481526020016058820160009054906101000a900460ff1615151515815260200160598201548152602001605a8201548152602001605b8201548152602001605c8201600a806020026040519081016040528092919082600a8015612411576020028201915b8154815260200190600101908083116123fd575b5050505050815260200160668201548152602001606782015481525050905090565b606061243d6149af565b6013016000838152602001908152602001600020805480602002602001604051908101604052809291908181526020016000905b828210156124fc5783829060005260206000209060040201604051806080016040529081600082015481526020016001820160009054906101000a900460ff1660008111156124c3576124c2615350565b5b60008111156124d5576124d4615350565b5b81526020016002820154815260200160038201548152505081526020019060010190612471565b505050509050919050565b60006125116149af565b60000160149054906101000a900460ff16905090565b60606125316149af565b60040180548060200260200160405190810160405280929190818152602001828054801561257e57602002820191906000526020600020905b81548152602001906001019080831161256a575b5050505050905090565b612590614f3d565b6125986149eb565b600380602002604051908101604052809291906000905b8282101561264157838260140201600480602002604051908101604052809291906000905b8282101561262e578382600502016040518060a001604052908160008201548152602001600182015481526020016002820154815260200160038201548152602001600482015481525050815260200190600101906125d4565b50505050815260200190600101906125af565b50505050905090565b606082826126589190617dc5565b67ffffffffffffffff81111561267157612670617a1e565b5b6040519080825280602002602001820160405280156126aa57816020015b612697614f6a565b81526020019060019003908161268f5790505b50905060008390505b8281101561285a576126c36149af565b60120160006126d06149af565b60080183815481106126e5576126e4617df9565b5b9060005260206000200160009054906101000a900473ffffffffffffffffffffffffffffffffffffffff1673ffffffffffffffffffffffffffffffffffffffff1673ffffffffffffffffffffffffffffffffffffffff168152602001908152602001600020604051806101200160405290816000820160009054906101000a900460ff161515151581526020016000820160019054906101000a900473ffffffffffffffffffffffffffffffffffffffff1673ffffffffffffffffffffffffffffffffffffffff1673ffffffffffffffffffffffffffffffffffffffff1681526020016001820154815260200160028201548152602001600382015481526020016004820154815260200160058201548152602001600682015481526020016007820160009054906101000a900460ff16151515158152505082858361282b9190617dc5565b8151811061283c5761283b617df9565b5b6020026020010181905250808061285290617e28565b9150506126b3565b5092915050565b60608282905067ffffffffffffffff8111156128805761287f617a1e565b5b6040519080825280602002602001820160405280156128b957816020015b6128a6614d98565b81526020019060019003908161289e5790505b50905060005b83839050811015612a27576128d26149af565b60140160008585848181106128ea576128e9617df9565b5b90506020020135815260200190815260200160002060405180610160016040529081600082015481526020016001820160009054906101000a900473ffffffffffffffffffffffffffffffffffffffff1673ffffffffffffffffffffffffffffffffffffffff1673ffffffffffffffffffffffffffffffffffffffff1681526020016002820154815260200160038201548152602001600482015481526020016005820154815260200160068201548152602001600782015481526020016008820160009054906101000a900460ff1660038111156129cc576129cb615350565b5b60038111156129de576129dd615350565b5b815260200160098201548152602001600a82015481525050828281518110612a0957612a08617df9565b5b60200260200101819052508080612a1f90617e28565b9150506128bf565b5092915050565b612a36614d98565b612a3e6149af565b601401600083815260200190815260200160002060405180610160016040529081600082015481526020016001820160009054906101000a900473ffffffffffffffffffffffffffffffffffffffff1673ffffffffffffffffffffffffffffffffffffffff1673ffffffffffffffffffffffffffffffffffffffff1681526020016002820154815260200160038201548152602001600482015481526020016005820154815260200160068201548152602001600782015481526020016008820160009054906101000a900460ff166003811115612b1f57612b1e615350565b5b6003811115612b3157612b30615350565b5b815260200160098201548152602001600a820154815250509050919050565b60608282905067ffffffffffffffff811115612b6f57612b6e617a1e565b5b604051908082528060200260200182016040528015612ba857816020015b612b95614b3b565b815260200190600190039081612b8d5790505b50905060005b83839050811015612d1157612bc16149af565b600e016000858584818110612bd957612bd8617df9565b5b905060200201358152602001908152602001600020604051806101a00160405290816000820160009054906101000a900460ff161515151581526020016001820154815260200160028201548152602001600382015481526020016004820160009054906101000a900460ff166003811115612c5857612c57615350565b5b6003811115612c6a57612c69615350565b5b8152602001600582015481526020016006820154815260200160078201548152602001600882015481526020016009820160009054906101000a900460ff16151515158152602001600a8201548152602001600b820160009054906101000a900460ff16151515158152602001600c82015481525050828281518110612cf357612cf2617df9565b5b60200260200101819052508080612d0990617e28565b915050612bae565b5092915050565b6000612d226149af565b60120160008373ffffffffffffffffffffffffffffffffffffffff1673ffffffffffffffffffffffffffffffffffffffff168152602001908152602001600020600601549050919050565b6000612d776149cd565b60190154905090565b6000612d8a6149af565b60080180549050905090565b60606000612da26149af565b6015016000848152602001908152602001600020805480602002602001604051908101604052809291908181526020018280548015612e0057602002820191906000526020600020905b815481526020019060010190808311612dec575b50505050509050805167ffffffffffffffff811115612e2257612e21617a1e565b5b604051908082528060200260200182016040528015612e5b57816020015b612e48614fd0565b815260200190600190039081612e405790505b50915060005b8151811015612ebe57612e8d828281518110612e8057612e7f617df9565b5b60200260200101516145d0565b838281518110612ea057612e9f617df9565b5b60200260200101819052508080612eb690617e28565b915050612e61565b5050919050565b60608282612ed39190617dc5565b67ffffffffffffffff811115612eec57612eeb617a1e565b5b604051908082528060200260200182016040528015612f2557816020015b612f12614c26565b815260200190600190039081612f0a5790505b50905060008390505b828110156130d157612f3e6149af565b600c016000612f4b6149af565b6006018381548110612f6057612f5f617df9565b5b90600052602060002001548152602001908152602001600020604051806101a00160405290816000820160009054906101000a900473ffffffffffffffffffffffffffffffffffffffff1673ffffffffffffffffffffffffffffffffffffffff1673ffffffffffffffffffffffffffffffffffffffff168152602001600182015481526020016002820154815260200160038201548152602001600482015481526020016005820154815260200160068201548152602001600782015481526020016008820154815260200160098201548152602001600a8201548152602001600b820160009054906101000a900460ff16600481111561306457613063615350565b5b600481111561307657613075615350565b5b8152602001600b820160019054906101000a900460ff1615151515815250508285836130a29190617dc5565b815181106130b3576130b2617df9565b5b602002602001018190525080806130c990617e28565b915050612f2e565b5092915050565b60608282905067ffffffffffffffff8111156130f7576130f6617a1e565b5b60405190808252806020026020018201604052801561313057816020015b61311d614c26565b8152602001906001900390816131155790505b50905060005b838390508110156132c3576131496149af565b600c01600085858481811061316157613160617df9565b5b905060200201358152602001908152602001600020604051806101a00160405290816000820160009054906101000a900473ffffffffffffffffffffffffffffffffffffffff1673ffffffffffffffffffffffffffffffffffffffff1673ffffffffffffffffffffffffffffffffffffffff168152602001600182015481526020016002820154815260200160038201548152602001600482015481526020016005820154815260200160068201548152602001600782015481526020016008820154815260200160098201548152602001600a8201548152602001600b820160009054906101000a900460ff16600481111561326157613260615350565b5b600481111561327357613272615350565b5b8152602001600b820160019054906101000a900460ff1615151515815250508282815181106132a5576132a4617df9565b5b602002602001018190525080806132bb90617e28565b915050613136565b5092915050565b606082826132d89190617dc5565b67ffffffffffffffff8111156132f1576132f0617a1e565b5b60405190808252806020026020018201604052801561331f5781602001602082028036833780820191505090505b50905060008390505b82811015613395576133386149af565b600601818154811061334d5761334c617df9565b5b90600052602060002001548285836133659190617dc5565b8151811061337657613375617df9565b5b602002602001018181525050808061338d90617e28565b915050613328565b5092915050565b60006133a66149af565b60060182815481106133bb576133ba617df9565b5b90600052602060002001549050919050565b6133d561502e565b6133dd6149be565b82815481106133ef576133ee617df9565b5b90600052602060002090600902016040518061012001604052908160008201805461341990617e9f565b80601f016020809104026020016040519081016040528092919081815260200182805461344590617e9f565b80156134925780601f1061346757610100808354040283529160200191613492565b820191906000526020600020905b81548152906001019060200180831161347557829003601f168201915b50505050508152602001600182015481526020016002820154815260200160038201548152602001600482015481526020016005820154815260200160068201548152602001600782015481526020016008820154815250509050919050565b60006134fc6149af565b600a0154905090565b61350d61507a565b6135156149cd565b60430160068060200260405190810160405280929190826006801561354f576020028201915b81548152602001906001019080831161353b575b5050505050905090565b60006135636149af565b600801828154811061357857613577617df9565b5b9060005260206000200160009054906101000a900473ffffffffffffffffffffffffffffffffffffffff169050919050565b60006135b46149af565b60060180549050905090565b6135c8614b3b565b6135d06149af565b600e016000838152602001908152602001600020604051806101a00160405290816000820160009054906101000a900460ff161515151581526020016001820154815260200160028201548152602001600382015481526020016004820160009054906101000a900460ff16600381111561364e5761364d615350565b5b60038111156136605761365f615350565b5b8152602001600582015481526020016006820154815260200160078201548152602001600882015481526020016009820160009054906101000a900460ff16151515158152602001600a8201548152602001600b820160009054906101000a900460ff16151515158152602001600c820154815250509050919050565b60606136e76149af565b601501600083815260200190815260200160002080548060200260200160405190810160405280929190818152602001828054801561374557602002820191906000526020600020905b815481526020019060010190808311613731575b50505050509050919050565b600061375b6149af565b60070180549050905090565b60006137716149af565b6010016000838152602001908152602001600020549050919050565b61379561509c565b61379d6149af565b601301600084815260200190815260200160002082815481106137c3576137c2617df9565b5b9060005260206000209060040201604051806080016040529081600082015481526020016001820160009054906101000a900460ff16600081111561380b5761380a615350565b5b600081111561381d5761381c615350565b5b815260200160028201548152602001600382015481525050905092915050565b60606000805b61384c846113c8565b8110156138af5760008081111561386657613865615350565b5b613870858361378d565b60200151600081111561388657613885615350565b5b0361389b576001826138989190617ed0565b91505b6001816138a89190617ed0565b9050613843565b508067ffffffffffffffff8111156138ca576138c9617a1e565b5b60405190808252806020026020018201604052801561390357816020015b6138f0614d98565b8152602001906001900390816138e85790505b50915060005b613912846113c8565b811015613aa1576000613925858361378d565b905060008081111561393a57613939615350565b5b8160200151600081111561395157613950615350565b5b03613a8c5761395e6149af565b60140160008260000151815260200190815260200160002060405180610160016040529081600082015481526020016001820160009054906101000a900473ffffffffffffffffffffffffffffffffffffffff1673ffffffffffffffffffffffffffffffffffffffff1673ffffffffffffffffffffffffffffffffffffffff1681526020016002820154815260200160038201548152602001600482015481526020016005820154815260200160068201548152602001600782015481526020016008820160009054906101000a900460ff166003811115613a4357613a42615350565b5b6003811115613a5557613a54615350565b5b815260200160098201548152602001600a82015481525050848381518110613a8057613a7f617df9565b5b60200260200101819052505b50600181613a9a9190617ed0565b9050613909565b5050919050565b613ab0614f6a565b613ab86149af565b60120160008373ffffffffffffffffffffffffffffffffffffffff1673ffffffffffffffffffffffffffffffffffffffff168152602001908152602001600020604051806101200160405290816000820160009054906101000a900460ff161515151581526020016000820160019054906101000a900473ffffffffffffffffffffffffffffffffffffffff1673ffffffffffffffffffffffffffffffffffffffff1673ffffffffffffffffffffffffffffffffffffffff1681526020016001820154815260200160028201548152602001600382015481526020016004820154815260200160058201548152602001600682015481526020016007820160009054906101000a900460ff1615151515815250509050919050565b6060815167ffffffffffffffff811115613bf057613bef617a1e565b5b604051908082528060200260200182016040528015613c2957816020015b613c16614fd0565b815260200190600190039081613c0e5790505b50905060005b8251811015613f5f5760003073ffffffffffffffffffffffffffffffffffffffff16638465ad44858481518110613c6957613c68617df9565b5b60200260200101516040518263ffffffff1660e01b8152600401613c8d9190615978565b6101a060405180830381865afa158015613cab573d6000803e3d6000fd5b505050506040513d601f19601f82011682018060405250810190613ccf9190618128565b905060003073ffffffffffffffffffffffffffffffffffffffff16636352211e83602001516040518263ffffffff1660e01b8152600401613d109190615978565b602060405180830381865afa925050508015613d4a57506040513d601f19601f82011682018060405250810190613d479190618156565b60015b613db657613d56618190565b806308c379a003613d7b5750613d6a6181b2565b80613d755750613d7d565b50613db1565b505b3d8060008114613da9576040519150601f19603f3d011682016040523d82523d6000602084013e613dae565b606091505b50505b613dbb565b809150505b6040518060c0016040528083815260200173__LibGameUtils__________________________631ec2b886856040518263ffffffff1660e01b8152600401613e0391906183a7565b60a060405180830381865af4158015613e20573d6000803e3d6000fd5b505050506040513d601f19601f82011682018060405250810190613e44919061844f565b815260200173__LibGameUtils__________________________6329fa32f7856040518263ffffffff1660e01b8152600401613e8091906183a7565b60a060405180830381865af4158015613e9d573d6000803e3d6000fd5b505050506040513d601f19601f82011682018060405250810190613ec1919061844f565b81526020018273ffffffffffffffffffffffffffffffffffffffff168152602001613eea6149af565b601001600085602001518152602001908152602001600020548152602001613f106149af565b60110160008560200151815260200190815260200160002054815250848481518110613f3f57613f3e617df9565b5b602002602001018190525050508080613f5790617e28565b915050613c2f565b50919050565b60608282613f739190617dc5565b67ffffffffffffffff811115613f8c57613f8b617a1e565b5b604051908082528060200260200182016040528015613fc557816020015b613fb2614fd0565b815260200190600190039081613faa5790505b50905060008390505b828110156142ee5760003073ffffffffffffffffffffffffffffffffffffffff16630be72d83836040518263ffffffff1660e01b81526004016140119190615978565b6101a060405180830381865afa15801561402f573d6000803e3d6000fd5b505050506040513d601f19601f820116820180604052508101906140539190618128565b905060003073ffffffffffffffffffffffffffffffffffffffff16636352211e83602001516040518263ffffffff1660e01b81526004016140949190615978565b602060405180830381865afa9250505080156140ce57506040513d601f19601f820116820180604052508101906140cb9190618156565b60015b61413a576140da618190565b806308c379a0036140ff57506140ee6181b2565b806140f95750614101565b50614135565b505b3d806000811461412d576040519150601f19603f3d011682016040523d82523d6000602084013e614132565b606091505b50505b61413f565b809150505b6040518060c0016040528083815260200173__LibGameUtils__________________________631ec2b886856040518263ffffffff1660e01b815260040161418791906183a7565b60a060405180830381865af41580156141a4573d6000803e3d6000fd5b505050506040513d601f19601f820116820180604052508101906141c8919061844f565b815260200173__LibGameUtils__________________________6329fa32f7856040518263ffffffff1660e01b815260040161420491906183a7565b60a060405180830381865af4158015614221573d6000803e3d6000fd5b505050506040513d601f19601f82011682018060405250810190614245919061844f565b81526020018273ffffffffffffffffffffffffffffffffffffffff16815260200161426e6149af565b6010016000856020015181526020019081526020016000205481526020016142946149af565b601101600085602001518152602001908152602001600020548152508487856142bd9190617dc5565b815181106142ce576142cd617df9565b5b6020026020010181905250505080806142e690617e28565b915050613fce565b5092915050565b6142fd614bbb565b6143056149af565b600d0160008381526020019081526020016000206040518060800160405290816000820154815260200160018201548152602001600282015481526020016003820160009054906101000a900473ffffffffffffffffffffffffffffffffffffffff1673ffffffffffffffffffffffffffffffffffffffff1673ffffffffffffffffffffffffffffffffffffffff16815250509050919050565b6143a7614cf8565b6143af6149af565b600f0160008381526020019081526020016000206040518060a00160405290816000820160009054906101000a900460ff16151515158152602001600182015481526020016002820160009054906101000a900473ffffffffffffffffffffffffffffffffffffffff1673ffffffffffffffffffffffffffffffffffffffff1673ffffffffffffffffffffffffffffffffffffffff168152602001600382015481526020016004820160009054906101000a900473ffffffffffffffffffffffffffffffffffffffff1673ffffffffffffffffffffffffffffffffffffffff1673ffffffffffffffffffffffffffffffffffffffff16815250509050919050565b606082826144be9190617dc5565b67ffffffffffffffff8111156144d7576144d6617a1e565b5b6040519080825280602002602001820160405280156145055781602001602082028036833780820191505090505b50905060008390505b828110156145c95761451e6149af565b600801818154811061453357614532617df9565b5b9060005260206000200160009054906101000a900473ffffffffffffffffffffffffffffffffffffffff1682858361456b9190617dc5565b8151811061457c5761457b617df9565b5b602002602001019073ffffffffffffffffffffffffffffffffffffffff16908173ffffffffffffffffffffffffffffffffffffffff168152505080806145c190617e28565b91505061450e565b5092915050565b6145d8614fd0565b60003073ffffffffffffffffffffffffffffffffffffffff16638465ad44846040518263ffffffff1660e01b81526004016146139190615978565b6101a060405180830381865afa158015614631573d6000803e3d6000fd5b505050506040513d601f19601f820116820180604052508101906146559190618128565b905060003073ffffffffffffffffffffffffffffffffffffffff16636352211e83602001516040518263ffffffff1660e01b81526004016146969190615978565b602060405180830381865afa9250505080156146d057506040513d601f19601f820116820180604052508101906146cd9190618156565b60015b61473c576146dc618190565b806308c379a00361470157506146f06181b2565b806146fb5750614703565b50614737565b505b3d806000811461472f576040519150601f19603f3d011682016040523d82523d6000602084013e614734565b606091505b50505b614741565b809150505b6040518060c0016040528083815260200173__LibGameUtils__________________________631ec2b886856040518263ffffffff1660e01b815260040161478991906183a7565b60a060405180830381865af41580156147a6573d6000803e3d6000fd5b505050506040513d601f19601f820116820180604052508101906147ca919061844f565b815260200173__LibGameUtils__________________________6329fa32f7856040518263ffffffff1660e01b815260040161480691906183a7565b60a060405180830381865af4158015614823573d6000803e3d6000fd5b505050506040513d601f19601f82011682018060405250810190614847919061844f565b81526020018273ffffffffffffffffffffffffffffffffffffffff1681526020016148706149af565b6010016000856020015181526020019081526020016000205481526020016148966149af565b6011016000856020015181526020019081526020016000205481525092505050919050565b606082826148c99190617dc5565b67ffffffffffffffff8111156148e2576148e1617a1e565b5b6040519080825280602002602001820160405280156149105781602001602082028036833780820191505090505b50905060008390505b82811015614986576149296149af565b600701818154811061493e5761493d617df9565b5b90600052602060002001548285836149569190617dc5565b8151811061496757614966617df9565b5b602002602001018181525050808061497e90617e28565b915050614919565b5092915050565b60006149976149af565b60020154905090565b60006149aa6149fa565b905090565b60006149b9614a2d565b905090565b60006149c8614a5a565b905090565b60006149d7614a87565b905090565b60006149e6614ab4565b905090565b60006149f5614ae1565b905090565b6000614a04614b0e565b60040160009054906101000a900473ffffffffffffffffffffffffffffffffffffffff16905090565b6000807fcb7f1a525606efcbba7baaf9b0b55c468d0fd558cbf767967f538834dfa1232e90508091505090565b6000807fc8b32c67c130c3ffee82ae8b12efdcc4a3964d2cf86dd6ece89dca12a93c024490508091505090565b6000807f5fb65bb339c6bd3f2609a7342e6cb046e09f3e40f45242a5971904b021b5bb5390508091505090565b6000807f2849cb27302bb32c0c7252ab45487d42296bcddad804f932e0b0589e515a937490508091505090565b6000807fb997f4d26de83b05e27fc6c6b9d295ba414ad9dfbfc3edc3b418ee775927d06890508091505090565b6000807fc8fcad8db84d3cc18b4c41d551ea0ee66dd599cde068d998e57d5e09332c131c90508091505090565b604051806101a0016040528060001515815260200160008152602001600081526020016000815260200160006003811115614b7957614b78615350565b5b81526020016000815260200160008152602001600081526020016000815260200160001515815260200160008152602001600015158152602001600081525090565b6040518060800160405280600081526020016000815260200160008152602001600073ffffffffffffffffffffffffffffffffffffffff1681525090565b60405180608001604052806004905b614c106150d5565b815260200190600190039081614c085790505090565b604051806101a00160405280600073ffffffffffffffffffffffffffffffffffffffff1681526020016000815260200160008152602001600081526020016000815260200160008152602001600081526020016000815260200160008152602001600081526020016000815260200160006004811115614ca957614ca8615350565b5b81526020016000151581525090565b6040518060800160405280614ccb614c26565b8152602001614cd8614b3b565b8152602001614ce5614cf8565b8152602001614cf2614bbb565b81525090565b6040518060a0016040528060001515815260200160008152602001600073ffffffffffffffffffffffffffffffffffffffff16815260200160008152602001600073ffffffffffffffffffffffffffffffffffffffff1681525090565b6040518060e00160405280600015158152602001600081526020016000815260200160008152602001600015158152602001600015158152602001600081525090565b60405180610160016040528060008152602001600073ffffffffffffffffffffffffffffffffffffffff16815260200160008152602001600081526020016000815260200160008152602001600081526020016000815260200160006003811115614e0657614e05615350565b5b815260200160008152602001600081525090565b6040518061044001604052806000151581526020016000151581526020016000815260200160008152602001600081526020016000815260200160008152602001600081526020016000815260200160008152602001600081526020016000815260200160008152602001614e8d615103565b8152602001600081526020016000151581526020016000815260200160008152602001614eb8614bf9565b815260200160008152602001614ecc61507a565b815260200160001515815260200160008152602001614ee9615103565b8152602001600081526020016000815260200160008152602001600015158152602001600081526020016000815260200160008152602001614f29615103565b815260200160008152602001600081525090565b60405180606001604052806003905b614f54615126565b815260200190600190039081614f4c5790505090565b604051806101200160405280600015158152602001600073ffffffffffffffffffffffffffffffffffffffff1681526020016000815260200160008152602001600081526020016000815260200160008152602001600081526020016000151581525090565b6040518060c00160405280614fe3615153565b8152602001614ff061521f565b8152602001614ffd61521f565b8152602001600073ffffffffffffffffffffffffffffffffffffffff16815260200160008152602001600081525090565b6040518061012001604052806060815260200160008152602001600081526020016000815260200160008152602001600081526020016000815260200160008152602001600081525090565b6040518060c00160405280600690602082028036833780820191505090505090565b6040518060800160405280600081526020016000808111156150c1576150c0615350565b5b815260200160008152602001600081525090565b604051806101400160405280600a905b6150ed61524e565b8152602001906001900390816150e55790505090565b604051806101400160405280600a90602082028036833780820191505090505090565b60405180608001604052806004905b61513d61521f565b8152602001906001900390816151355790505090565b604051806101a0016040528060001515815260200160008152602001600081526020016000600581111561518a57615189615350565b5b81526020016000600a8111156151a3576151a2615350565b5b815260200160008152602001600073ffffffffffffffffffffffffffffffffffffffff1681526020016000600e8111156151e0576151df615350565b5b815260200160008152602001600081526020016000815260200160008152602001600073ffffffffffffffffffffffffffffffffffffffff1681525090565b6040518060a0016040528060008152602001600081526020016000815260200160008152602001600081525090565b6040518060a00160405280600590602082028036833780820191505090505090565b6000604051905090565b600080fd5b600080fd5b6000819050919050565b61529781615284565b81146152a257600080fd5b50565b6000813590506152b48161528e565b92915050565b600080604083850312156152d1576152d061527a565b5b60006152df858286016152a5565b92505060206152f0858286016152a5565b9150509250929050565b600081519050919050565b600082825260208201905092915050565b6000819050602082019050919050565b60008115159050919050565b61533b81615326565b82525050565b61534a81615284565b82525050565b7f4e487b7100000000000000000000000000000000000000000000000000000000600052602160045260246000fd5b600481106153905761538f615350565b5b50565b60008190506153a18261537f565b919050565b60006153b182615393565b9050919050565b6153c1816153a6565b82525050565b6101a0820160008201516153de6000850182615332565b5060208201516153f16020850182615341565b5060408201516154046040850182615341565b5060608201516154176060850182615341565b50608082015161542a60808501826153b8565b5060a082015161543d60a0850182615341565b5060c082015161545060c0850182615341565b5060e082015161546360e0850182615341565b50610100820151615478610100850182615341565b5061012082015161548d610120850182615332565b506101408201516154a2610140850182615341565b506101608201516154b7610160850182615332565b506101808201516154cc610180850182615341565b50505050565b60006154de83836153c7565b6101a08301905092915050565b6000602082019050919050565b6000615503826152fa565b61550d8185615305565b935061551883615316565b8060005b8381101561554957815161553088826154d2565b975061553b836154eb565b92505060018101905061551c565b5085935050505092915050565b6000602082019050818103600083015261557081846154f8565b905092915050565b600081519050919050565b600082825260208201905092915050565b6000819050602082019050919050565b60006155b08383615341565b60208301905092915050565b6000602082019050919050565b60006155d482615578565b6155de8185615583565b93506155e983615594565b8060005b8381101561561a57815161560188826155a4565b975061560c836155bc565b9250506001810190506155ed565b5085935050505092915050565b6000602082019050818103600083015261564181846155c9565b905092915050565b600081519050919050565b600082825260208201905092915050565b6000819050602082019050919050565b600081519050919050565b600082825260208201905092915050565b60005b838110156156af578082015181840152602081019050615694565b838111156156be576000848401525b50505050565b6000601f19601f8301169050919050565b60006156e082615675565b6156ea8185615680565b93506156fa818560208601615691565b615703816156c4565b840191505092915050565b600061012083016000830151848203600086015261572c82826156d5565b91505060208301516157416020860182615341565b5060408301516157546040860182615341565b5060608301516157676060860182615341565b50608083015161577a6080860182615341565b5060a083015161578d60a0860182615341565b5060c08301516157a060c0860182615341565b5060e08301516157b360e0860182615341565b506101008301516157c8610100860182615341565b508091505092915050565b60006157df838361570e565b905092915050565b6000602082019050919050565b60006157ff82615649565b6158098185615654565b93508360208202850161581b85615665565b8060005b85811015615857578484038952815161583885826157d3565b9450615843836157e7565b925060208a0199505060018101905061581f565b50829750879550505050505092915050565b6000602082019050818103600083015261588381846157f4565b905092915050565b6000602082840312156158a1576158a061527a565b5b60006158af848285016152a5565b91505092915050565b600073ffffffffffffffffffffffffffffffffffffffff82169050919050565b60006158e3826158b8565b9050919050565b6158f3816158d8565b82525050565b60808201600082015161590f6000850182615341565b5060208201516159226020850182615341565b5060408201516159356040850182615341565b50606082015161594860608501826158ea565b50505050565b600060808201905061596360008301846158f9565b92915050565b61597281615284565b82525050565b600060208201905061598d6000830184615969565b92915050565b600060049050919050565b600081905092915050565b6000819050919050565b6000600a9050919050565b600081905092915050565b6000819050919050565b600060059050919050565b600081905092915050565b6000819050919050565b600060ff82169050919050565b615a09816159f3565b82525050565b6000615a1b8383615a00565b60208301905092915050565b6000602082019050919050565b615a3d816159d3565b615a4781846159de565b9250615a52826159e9565b8060005b83811015615a83578151615a6a8782615a0f565b9650615a7583615a27565b925050600181019050615a56565b505050505050565b6000615a978383615a34565b60a08301905092915050565b6000602082019050919050565b615ab9816159b3565b615ac381846159be565b9250615ace826159c9565b8060005b83811015615aff578151615ae68782615a8b565b9650615af183615aa3565b925050600181019050615ad2565b505050505050565b6000615b138383615ab0565b6106408301905092915050565b6000602082019050919050565b615b3681615993565b615b40818461599e565b9250615b4b826159a9565b8060005b83811015615b7c578151615b638782615b07565b9650615b6e83615b20565b925050600181019050615b4f565b505050505050565b600061190082019050615b9a6000830184615b2d565b92915050565b60058110615bb157615bb0615350565b5b50565b6000819050615bc282615ba0565b919050565b6000615bd282615bb4565b9050919050565b615be281615bc7565b82525050565b6101a082016000820151615bff60008501826158ea565b506020820151615c126020850182615341565b506040820151615c256040850182615341565b506060820151615c386060850182615341565b506080820151615c4b6080850182615341565b5060a0820151615c5e60a0850182615341565b5060c0820151615c7160c0850182615341565b5060e0820151615c8460e0850182615341565b50610100820151615c99610100850182615341565b50610120820151615cae610120850182615341565b50610140820151615cc3610140850182615341565b50610160820151615cd8610160850182615bd9565b50610180820151615ced610180850182615332565b50505050565b60006101a082019050615d096000830184615be8565b92915050565b600080fd5b600080fd5b600080fd5b60008083601f840112615d3457615d33615d0f565b5b8235905067ffffffffffffffff811115615d5157615d50615d14565b5b602083019150836020820283011115615d6d57615d6c615d19565b5b9250929050565b60008060208385031215615d8b57615d8a61527a565b5b600083013567ffffffffffffffff811115615da957615da861527f565b5b615db585828601615d1e565b92509250509250929050565b600081519050919050565b600082825260208201905092915050565b6000819050602082019050919050565b600081519050919050565b600082825260208201905092915050565b6000819050602082019050919050565b60048110615e2a57615e29615350565b5b50565b6000819050615e3b82615e19565b919050565b6000615e4b82615e2d565b9050919050565b615e5b81615e40565b82525050565b61016082016000820151615e786000850182615341565b506020820151615e8b60208501826158ea565b506040820151615e9e6040850182615341565b506060820151615eb16060850182615341565b506080820151615ec46080850182615341565b5060a0820151615ed760a0850182615341565b5060c0820151615eea60c0850182615341565b5060e0820151615efd60e0850182615341565b50610100820151615f12610100850182615e52565b50610120820151615f27610120850182615341565b50610140820151615f3c610140850182615341565b50505050565b6000615f4e8383615e61565b6101608301905092915050565b6000602082019050919050565b6000615f7382615ded565b615f7d8185615df8565b9350615f8883615e09565b8060005b83811015615fb9578151615fa08882615f42565b9750615fab83615f5b565b925050600181019050615f8c565b5085935050505092915050565b6000615fd28383615f68565b905092915050565b6000602082019050919050565b6000615ff282615dc1565b615ffc8185615dcc565b93508360208202850161600e85615ddd565b8060005b8581101561604a578484038952815161602b8582615fc6565b945061603683615fda565b925060208a01995050600181019050616012565b50829750879550505050505092915050565b600060208201905081810360008301526160768184615fe7565b905092915050565b600081519050919050565b600082825260208201905092915050565b6000819050602082019050919050565b6101a0820160008201516160c160008501826158ea565b5060208201516160d46020850182615341565b5060408201516160e76040850182615341565b5060608201516160fa6060850182615341565b50608082015161610d6080850182615341565b5060a082015161612060a0850182615341565b5060c082015161613360c0850182615341565b5060e082015161614660e0850182615341565b5061010082015161615b610100850182615341565b50610120820151616170610120850182615341565b50610140820151616185610140850182615341565b5061016082015161619a610160850182615bd9565b506101808201516161af610180850182615332565b50505050565b60a0820160008201516161cb6000850182615332565b5060208201516161de6020850182615341565b5060408201516161f160408501826158ea565b5060608201516162046060850182615341565b50608082015161621760808501826158ea565b50505050565b6080820160008201516162336000850182615341565b5060208201516162466020850182615341565b5060408201516162596040850182615341565b50606082015161626c60608501826158ea565b50505050565b6104608201600082015161628960008501826160aa565b50602082015161629d6101a08501826153c7565b5060408201516162b16103408501826161b5565b5060608201516162c56103e085018261621d565b50505050565b60006162d78383616272565b6104608301905092915050565b6000602082019050919050565b60006162fc8261607e565b6163068185616089565b93506163118361609a565b8060005b8381101561634257815161632988826162cb565b9750616334836162e4565b925050600181019050616315565b5085935050505092915050565b6000602082019050818103600083015261636981846162f1565b905092915050565b600081519050919050565b600082825260208201905092915050565b6000819050602082019050919050565b60006163a9838361621d565b60808301905092915050565b6000602082019050919050565b60006163cd82616371565b6163d7818561637c565b93506163e28361638d565b8060005b838110156164135781516163fa888261639d565b9750616405836163b5565b9250506001810190506163e6565b5085935050505092915050565b6000602082019050818103600083015261643a81846163c2565b905092915050565b600081519050919050565b600082825260208201905092915050565b6000819050602082019050919050565b600061647a83836161b5565b60a08301905092915050565b6000602082019050919050565b600061649e82616442565b6164a8818561644d565b93506164b38361645e565b8060005b838110156164e45781516164cb888261646e565b97506164d683616486565b9250506001810190506164b7565b5085935050505092915050565b6000602082019050818103600083015261650b8184616493565b905092915050565b60e0820160008201516165296000850182615332565b50602082015161653c6020850182615341565b50604082015161654f6040850182615341565b5060608201516165626060850182615341565b5060808201516165756080850182615332565b5060a082015161658860a0850182615332565b5060c082015161659b60c0850182615341565b50505050565b600060e0820190506165b66000830184616513565b92915050565b610160820160008201516165d36000850182615341565b5060208201516165e660208501826158ea565b5060408201516165f96040850182615341565b50606082015161660c6060850182615341565b50608082015161661f6080850182615341565b5060a082015161663260a0850182615341565b5060c082015161664560c0850182615341565b5060e082015161665860e0850182615341565b5061010082015161666d610100850182615e52565b50610120820151616682610120850182615341565b50610140820151616697610140850182615341565b50505050565b6000610160820190506166b360008301846165bc565b92915050565b600081519050919050565b600082825260208201905092915050565b6000819050602082019050919050565b600081519050919050565b600082825260208201905092915050565b6000819050602082019050919050565b6006811061672257616721615350565b5b50565b600081905061673382616711565b919050565b600061674382616725565b9050919050565b61675381616738565b82525050565b600b811061676a57616769615350565b5b50565b600081905061677b82616759565b919050565b600061678b8261676d565b9050919050565b61679b81616780565b82525050565b600f81106167b2576167b1615350565b5b50565b60008190506167c3826167a1565b919050565b60006167d3826167b5565b9050919050565b6167e3816167c8565b82525050565b6101a0820160008201516168006000850182615332565b5060208201516168136020850182615341565b5060408201516168266040850182615341565b506060820151616839606085018261674a565b50608082015161684c6080850182616792565b5060a082015161685f60a0850182615341565b5060c082015161687260c08501826158ea565b5060e082015161688560e08501826167da565b5061010082015161689a610100850182615341565b506101208201516168af610120850182615341565b506101408201516168c4610140850182615341565b506101608201516168d9610160850182615341565b506101808201516168ee6101808501826158ea565b50505050565b60a08201600082015161690a6000850182615341565b50602082015161691d6020850182615341565b5060408201516169306040850182615341565b5060608201516169436060850182615341565b5060808201516169566080850182615341565b50505050565b6103408201600082015161697360008501826167e9565b5060208201516169876101a08501826168f4565b50604082015161699b6102408501826168f4565b5060608201516169af6102e08501826158ea565b5060808201516169c3610300850182615341565b5060a08201516169d7610320850182615341565b50505050565b60006169e9838361695c565b6103408301905092915050565b6000602082019050919050565b6000616a0e826166e5565b616a1881856166f0565b9350616a2383616701565b8060005b83811015616a54578151616a3b88826169dd565b9750616a46836169f6565b925050600181019050616a27565b5085935050505092915050565b6000616a6d8383616a03565b905092915050565b6000602082019050919050565b6000616a8d826166b9565b616a9781856166c4565b935083602082028501616aa9856166d5565b8060005b85811015616ae55784840389528151616ac68582616a61565b9450616ad183616a75565b925060208a01995050600181019050616aad565b50829750879550505050505092915050565b60006020820190508181036000830152616b118184616a82565b905092915050565b6000600a9050919050565b600081905092915050565b6000819050919050565b6000602082019050919050565b616b4f81616b19565b616b598184616b24565b9250616b6482616b2f565b8060005b83811015616b95578151616b7c87826155a4565b9650616b8783616b39565b925050600181019050616b68565b505050505050565b600081905092915050565b616bb181615993565b616bbb8184616b9d565b9250616bc6826159a9565b8060005b83811015616bf7578151616bde8782615b07565b9650616be983615b20565b925050600181019050616bca565b505050505050565b600060069050919050565b600081905092915050565b6000819050919050565b6000602082019050919050565b616c3581616bff565b616c3f8184616c0a565b9250616c4a82616c15565b8060005b83811015616c7b578151616c6287826155a4565b9650616c6d83616c1f565b925050600181019050616c4e565b505050505050565b61212082016000820151616c9a6000850182615332565b506020820151616cad6020850182615332565b506040820151616cc06040850182615341565b506060820151616cd36060850182615341565b506080820151616ce66080850182615341565b5060a0820151616cf960a0850182615341565b5060c0820151616d0c60c0850182615341565b5060e0820151616d1f60e0850182615341565b50610100820151616d34610100850182615341565b50610120820151616d49610120850182615341565b50610140820151616d5e610140850182615341565b50610160820151616d73610160850182615341565b50610180820151616d88610180850182615341565b506101a0820151616d9d6101a0850182616b46565b506101c0820151616db26102e0850182615341565b506101e0820151616dc7610300850182615332565b50610200820151616ddc610320850182615341565b50610220820151616df1610340850182615341565b50610240820151616e06610360850182616ba8565b50610260820151616e1b611c60850182615341565b50610280820151616e30611c80850182616c2c565b506102a0820151616e45611d40850182615332565b506102c0820151616e5a611d60850182615341565b506102e0820151616e6f611d80850182616b46565b50610300820151616e84611ec0850182615341565b50610320820151616e99611ee0850182615341565b50610340820151616eae611f00850182615341565b50610360820151616ec3611f20850182615332565b50610380820151616ed8611f40850182615341565b506103a0820151616eed611f60850182615341565b506103c0820151616f02611f80850182615341565b506103e0820151616f17611fa0850182616b46565b50610400820151616f2c6120e0850182615341565b50610420820151616f41612100850182615341565b50505050565b600061212082019050616f5d6000830184616c83565b92915050565b600081519050919050565b600082825260208201905092915050565b6000819050602082019050919050565b60018110616fa057616f9f615350565b5b50565b6000819050616fb182616f8f565b919050565b6000616fc182616fa3565b9050919050565b616fd181616fb6565b82525050565b608082016000820151616fed6000850182615341565b5060208201516170006020850182616fc8565b5060408201516170136040850182615341565b5060608201516170266060850182615341565b50505050565b60006170388383616fd7565b60808301905092915050565b6000602082019050919050565b600061705c82616f63565b6170668185616f6e565b935061707183616f7f565b8060005b838110156170a2578151617089888261702c565b975061709483617044565b925050600181019050617075565b5085935050505092915050565b600060208201905081810360008301526170c98184617051565b905092915050565b6170da81615326565b82525050565b60006020820190506170f560008301846170d1565b92915050565b600060039050919050565b600081905092915050565b6000819050919050565b600060049050919050565b600081905092915050565b6000819050919050565b600061714783836168f4565b60a08301905092915050565b6000602082019050919050565b6171698161711b565b6171738184617126565b925061717e82617131565b8060005b838110156171af578151617196878261713b565b96506171a183617153565b925050600181019050617182565b505050505050565b60006171c38383617160565b6102808301905092915050565b6000602082019050919050565b6171e6816170fb565b6171f08184617106565b92506171fb82617111565b8060005b8381101561722c57815161721387826171b7565b965061721e836171d0565b9250506001810190506171ff565b505050505050565b60006107808201905061724a60008301846171dd565b92915050565b600081519050919050565b600082825260208201905092915050565b6000819050602082019050919050565b610120820160008201516172936000850182615332565b5060208201516172a660208501826158ea565b5060408201516172b96040850182615341565b5060608201516172cc6060850182615341565b5060808201516172df6080850182615341565b5060a08201516172f260a0850182615341565b5060c082015161730560c0850182615341565b5060e082015161731860e0850182615341565b5061010082015161732d610100850182615332565b50505050565b600061733f838361727c565b6101208301905092915050565b6000602082019050919050565b600061736482617250565b61736e818561725b565b93506173798361726c565b8060005b838110156173aa5781516173918882617333565b975061739c8361734c565b92505060018101905061737d565b5085935050505092915050565b600060208201905081810360008301526173d18184617359565b905092915050565b600082825260208201905092915050565b60006173f582615ded565b6173ff81856173d9565b935061740a83615e09565b8060005b8381101561743b5781516174228882615f42565b975061742d83615f5b565b92505060018101905061740e565b5085935050505092915050565b6000602082019050818103600083015261746281846173ea565b905092915050565b617473816158d8565b811461747e57600080fd5b50565b6000813590506174908161746a565b92915050565b6000602082840312156174ac576174ab61527a565b5b60006174ba84828501617481565b91505092915050565b600082825260208201905092915050565b60006174df826166e5565b6174e981856174c3565b93506174f483616701565b8060005b8381101561752557815161750c88826169dd565b9750617517836169f6565b9250506001810190506174f8565b5085935050505092915050565b6000602082019050818103600083015261754c81846174d4565b905092915050565b600081519050919050565b600082825260208201905092915050565b6000819050602082019050919050565b600061758c83836160aa565b6101a08301905092915050565b6000602082019050919050565b60006175b182617554565b6175bb818561755f565b93506175c683617570565b8060005b838110156175f75781516175de8882617580565b97506175e983617599565b9250506001810190506175ca565b5085935050505092915050565b6000602082019050818103600083015261761e81846175a6565b905092915050565b600061012083016000830151848203600086015261764482826156d5565b91505060208301516176596020860182615341565b50604083015161766c6040860182615341565b50606083015161767f6060860182615341565b5060808301516176926080860182615341565b5060a08301516176a560a0860182615341565b5060c08301516176b860c0860182615341565b5060e08301516176cb60e0860182615341565b506101008301516176e0610100860182615341565b508091505092915050565b600060208201905081810360008301526177058184617626565b905092915050565b600081905092915050565b61772181616bff565b61772b818461770d565b925061773682616c15565b8060005b8381101561776757815161774e87826155a4565b965061775983616c1f565b92505060018101905061773a565b505050505050565b600060c0820190506177846000830184617718565b92915050565b617793816158d8565b82525050565b60006020820190506177ae600083018461778a565b92915050565b6101a0820160008201516177cb6000850182615332565b5060208201516177de6020850182615341565b5060408201516177f16040850182615341565b5060608201516178046060850182615341565b50608082015161781760808501826153b8565b5060a082015161782a60a0850182615341565b5060c082015161783d60c0850182615341565b5060e082015161785060e0850182615341565b50610100820151617865610100850182615341565b5061012082015161787a610120850182615332565b5061014082015161788f610140850182615341565b506101608201516178a4610160850182615332565b506101808201516178b9610180850182615341565b50505050565b60006101a0820190506178d560008301846177b4565b92915050565b6080820160008201516178f16000850182615341565b5060208201516179046020850182616fc8565b5060408201516179176040850182615341565b50606082015161792a6060850182615341565b50505050565b600060808201905061794560008301846178db565b92915050565b610120820160008201516179626000850182615332565b50602082015161797560208501826158ea565b5060408201516179886040850182615341565b50606082015161799b6060850182615341565b5060808201516179ae6080850182615341565b5060a08201516179c160a0850182615341565b5060c08201516179d460c0850182615341565b5060e08201516179e760e0850182615341565b506101008201516179fc610100850182615332565b50505050565b600061012082019050617a18600083018461794b565b92915050565b7f4e487b7100000000000000000000000000000000000000000000000000000000600052604160045260246000fd5b617a56826156c4565b810181811067ffffffffffffffff82111715617a7557617a74617a1e565b5b80604052505050565b6000617a88615270565b9050617a948282617a4d565b919050565b600067ffffffffffffffff821115617ab457617ab3617a1e565b5b602082029050602081019050919050565b6000617ad8617ad384617a99565b617a7e565b90508083825260208201905060208402830185811115617afb57617afa615d19565b5b835b81811015617b245780617b1088826152a5565b845260208401935050602081019050617afd565b5050509392505050565b600082601f830112617b4357617b42615d0f565b5b8135617b53848260208601617ac5565b91505092915050565b600060208284031215617b7257617b7161527a565b5b600082013567ffffffffffffffff811115617b9057617b8f61527f565b5b617b9c84828501617b2e565b91505092915050565b60a082016000820151617bbb6000850182615332565b506020820151617bce6020850182615341565b506040820151617be160408501826158ea565b506060820151617bf46060850182615341565b506080820151617c0760808501826158ea565b50505050565b600060a082019050617c226000830184617ba5565b92915050565b600081519050919050565b600082825260208201905092915050565b6000819050602082019050919050565b6000617c6083836158ea565b60208301905092915050565b6000602082019050919050565b6000617c8482617c28565b617c8e8185617c33565b9350617c9983617c44565b8060005b83811015617cca578151617cb18882617c54565b9750617cbc83617c6c565b925050600181019050617c9d565b5085935050505092915050565b60006020820190508181036000830152617cf18184617c79565b905092915050565b61034082016000820151617d1060008501826167e9565b506020820151617d246101a08501826168f4565b506040820151617d386102408501826168f4565b506060820151617d4c6102e08501826158ea565b506080820151617d60610300850182615341565b5060a0820151617d74610320850182615341565b50505050565b600061034082019050617d906000830184617cf9565b92915050565b7f4e487b7100000000000000000000000000000000000000000000000000000000600052601160045260246000fd5b6000617dd082615284565b9150617ddb83615284565b925082821015617dee57617ded617d96565b5b828203905092915050565b7f4e487b7100000000000000000000000000000000000000000000000000000000600052603260045260246000fd5b6000617e3382615284565b91507fffffffffffffffffffffffffffffffffffffffffffffffffffffffffffffffff8203617e6557617e64617d96565b5b600182019050919050565b7f4e487b7100000000000000000000000000000000000000000000000000000000600052602260045260246000fd5b60006002820490506001821680617eb757607f821691505b602082108103617eca57617ec9617e70565b5b50919050565b6000617edb82615284565b9150617ee683615284565b9250827fffffffffffffffffffffffffffffffffffffffffffffffffffffffffffffffff03821115617f1b57617f1a617d96565b5b828201905092915050565b600080fd5b617f3481615326565b8114617f3f57600080fd5b50565b600081519050617f5181617f2b565b92915050565b600081519050617f668161528e565b92915050565b60068110617f7957600080fd5b50565b600081519050617f8b81617f6c565b92915050565b600b8110617f9e57600080fd5b50565b600081519050617fb081617f91565b92915050565b600081519050617fc58161746a565b92915050565b600f8110617fd857600080fd5b50565b600081519050617fea81617fcb565b92915050565b60006101a0828403121561800757618006617f26565b5b6180126101a0617a7e565b9050600061802284828501617f42565b600083015250602061803684828501617f57565b602083015250604061804a84828501617f57565b604083015250606061805e84828501617f7c565b606083015250608061807284828501617fa1565b60808301525060a061808684828501617f57565b60a08301525060c061809a84828501617fb6565b60c08301525060e06180ae84828501617fdb565b60e0830152506101006180c384828501617f57565b610100830152506101206180d984828501617f57565b610120830152506101406180ef84828501617f57565b6101408301525061016061810584828501617f57565b6101608301525061018061811b84828501617fb6565b6101808301525092915050565b60006101a0828403121561813f5761813e61527a565b5b600061814d84828501617ff0565b91505092915050565b60006020828403121561816c5761816b61527a565b5b600061817a84828501617fb6565b91505092915050565b60008160e01c9050919050565b600060033d11156181af5760046000803e6181ac600051618183565b90505b90565b600060443d1061823f576181c4615270565b60043d036004823e80513d602482011167ffffffffffffffff821117156181ec57505061823f565b808201805167ffffffffffffffff81111561820a575050505061823f565b80602083010160043d03850181111561822757505050505061823f565b61823682602001850186617a4d565b82955050505050505b90565b61824b81615326565b82525050565b61825a81615284565b82525050565b61826981616738565b82525050565b61827881616780565b82525050565b618287816158d8565b82525050565b618296816167c8565b82525050565b6101a0820160008201516182b36000850182618242565b5060208201516182c66020850182618251565b5060408201516182d96040850182618251565b5060608201516182ec6060850182618260565b5060808201516182ff608085018261826f565b5060a082015161831260a0850182618251565b5060c082015161832560c085018261827e565b5060e082015161833860e085018261828d565b5061010082015161834d610100850182618251565b50610120820151618362610120850182618251565b50610140820151618377610140850182618251565b5061016082015161838c610160850182618251565b506101808201516183a161018085018261827e565b50505050565b60006101a0820190506183bd600083018461829c565b92915050565b600060a082840312156183d9576183d8617f26565b5b6183e360a0617a7e565b905060006183f384828501617f57565b600083015250602061840784828501617f57565b602083015250604061841b84828501617f57565b604083015250606061842f84828501617f57565b606083015250608061844384828501617f57565b60808301525092915050565b600060a082840312156184655761846461527a565b5b6000618473848285016183c3565b9150509291505056fea26469706673582212203f057a711e3836cbc3daa1682ca456e0a2a1ee9e8f14074dc597427de84b2fc064736f6c634300080d0033",
  "immutableReferences": {},
  "source": "// SPDX-License-Identifier: GPL-3.0\npragma solidity ^0.8.0;\n\n// External contract imports\nimport {DFArtifactFacet} from \"./DFArtifactFacet.sol\";\n\n// Library imports\nimport {LibDiamond} from \"../vendor/libraries/LibDiamond.sol\";\nimport {LibGameUtils} from \"../libraries/LibGameUtils.sol\";\n\n// Storage imports\nimport {WithStorage, SnarkConstants, GameConstants} from \"../libraries/LibStorage.sol\";\n\n// Type imports\nimport {\n    RevealedCoords,\n    ArrivalData,\n    Planet,\n    PlanetExtendedInfo,\n    PlanetExtendedInfo2,\n    PlanetEventType,\n    PlanetEventMetadata,\n    PlanetDefaultStats,\n    PlanetData,\n    Player,\n    ArtifactWithMetadata,\n    Upgrade,\n    Artifact\n} from \"../DFTypes.sol\";\n\ncontract DFGetterFacet is WithStorage {\n    // FIRST-LEVEL GETTERS - mirrors the solidity autogenerated toplevel getters, but for GameStorage\n    // OMMITTED:\n    // - whitelist (it's a contract)\n    // - tokens (it's a contract)\n\n    function adminAddress() public view returns (address) {\n        return LibDiamond.contractOwner();\n    }\n\n    function paused() public view returns (bool) {\n        return gs().paused;\n    }\n\n    function TOKEN_MINT_END_TIMESTAMP() public view returns (uint256) {\n        return gs().TOKEN_MINT_END_TIMESTAMP;\n    }\n\n    function getSnarkConstants() public pure returns (SnarkConstants memory) {\n        return snarkConstants();\n    }\n\n    function getGameConstants() public pure returns (GameConstants memory) {\n        return gameConstants();\n    }\n\n    function planetLevelsCount() public view returns (uint256) {\n        return gs().planetLevelsCount;\n    }\n\n    function worldRadius() public view returns (uint256) {\n        return gs().worldRadius;\n    }\n\n    function planetEventsCount() public view returns (uint256) {\n        return gs().planetEventsCount;\n    }\n\n    function planetDefaultStats(uint256 level) public view returns (PlanetDefaultStats memory) {\n        return planetDefaultStats()[level];\n    }\n\n    function planetIds(uint256 idx) public view returns (uint256) {\n        return gs().planetIds[idx];\n    }\n\n    function revealedPlanetIds(uint256 idx) public view returns (uint256) {\n        return gs().revealedPlanetIds[idx];\n    }\n\n    function playerIds(uint256 idx) public view returns (address) {\n        return gs().playerIds[idx];\n    }\n\n    function planets(uint256 key) public view returns (Planet memory) {\n        return gs().planets[key];\n    }\n\n    function revealedCoords(uint256 key) public view returns (RevealedCoords memory) {\n        return gs().revealedCoords[key];\n    }\n\n    function planetsExtendedInfo(uint256 key) public view returns (PlanetExtendedInfo memory) {\n        return gs().planetsExtendedInfo[key];\n    }\n\n    function planetsExtendedInfo2(uint256 key) public view returns (PlanetExtendedInfo2 memory) {\n        return gs().planetsExtendedInfo2[key];\n    }\n\n    function artifactIdToPlanetId(uint256 key) public view returns (uint256) {\n        return gs().artifactIdToPlanetId[key];\n    }\n\n    function artifactIdToVoyageId(uint256 key) public view returns (uint256) {\n        return gs().artifactIdToVoyageId[key];\n    }\n\n    function planetEvents(uint256 key) public view returns (PlanetEventMetadata[] memory) {\n        return gs().planetEvents[key];\n    }\n\n    function players(address key) public view returns (Player memory) {\n        return gs().players[key];\n    }\n\n    function planetArrivals(uint256 key) public view returns (ArrivalData memory) {\n        return gs().planetArrivals[key];\n    }\n\n    function planetArtifacts(uint256 key) public view returns (uint256[] memory) {\n        return gs().planetArtifacts[key];\n    }\n\n    // ADDITIONAL UTILITY GETTERS\n\n    function getNPlanets() public view returns (uint256) {\n        return gs().planetIds.length;\n    }\n\n    function getNRevealedPlanets() public view returns (uint256) {\n        return gs().revealedPlanetIds.length;\n    }\n\n    function getNPlayers() public view returns (uint256) {\n        return gs().playerIds.length;\n    }\n\n    function getPlanetEventsCount(uint256 locationId) public view returns (uint256) {\n        return gs().planetEvents[locationId].length;\n    }\n\n    function getPlanetEvent(uint256 locationId, uint256 idx)\n        public\n        view\n        returns (PlanetEventMetadata memory)\n    {\n        return gs().planetEvents[locationId][idx];\n    }\n\n    function getPlanetArrival(uint256 arrivalId) public view returns (ArrivalData memory) {\n        return gs().planetArrivals[arrivalId];\n    }\n\n    function getRevealedCoords(uint256 locationId) public view returns (RevealedCoords memory) {\n        return gs().revealedCoords[locationId];\n    }\n\n    function getUpgrades() public pure returns (Upgrade[4][3] memory) {\n        return upgrades();\n    }\n\n    function getTypeWeights() public view returns (uint8[5][10][4] memory) {\n        return gameConstants().PLANET_TYPE_WEIGHTS;\n    }\n\n    function getPlayerSpaceJunkLimit(address playerId) public view returns (uint256) {\n        return gs().players[playerId].spaceJunkLimit;\n    }\n\n    function getArtifactPointValues() public view returns (uint256[6] memory) {\n        return gameConstants().ARTIFACT_POINT_VALUES;\n    }\n\n    function getRevealCooldown() public view returns (uint256) {\n        return gameConstants().LOCATION_REVEAL_COOLDOWN;\n    }\n\n    function getDefaultStats() public pure returns (PlanetDefaultStats[] memory) {\n        return planetDefaultStats();\n    }\n\n    function getPlanetLevelThresholds() public view returns (uint256[] memory) {\n        return gs().planetLevelThresholds;\n    }\n\n    function getCumulativeRarities() public view returns (uint256[] memory) {\n        return gs().cumulativeRarities;\n    }\n\n    function bulkGetPlanetIds(uint256 startIdx, uint256 endIdx)\n        public\n        view\n        returns (uint256[] memory ret)\n    {\n        // return slice of planetIds array from startIdx through endIdx - 1\n        ret = new uint256[](endIdx - startIdx);\n        for (uint256 i = startIdx; i < endIdx; i++) {\n            ret[i - startIdx] = gs().planetIds[i];\n        }\n    }\n\n    function bulkGetRevealedPlanetIds(uint256 startIdx, uint256 endIdx)\n        public\n        view\n        returns (uint256[] memory ret)\n    {\n        // return slice of revealedPlanetIds array from startIdx through endIdx - 1\n        ret = new uint256[](endIdx - startIdx);\n        for (uint256 i = startIdx; i < endIdx; i++) {\n            ret[i - startIdx] = gs().revealedPlanetIds[i];\n        }\n    }\n\n    function bulkGetPlanetsByIds(uint256[] calldata ids) public view returns (Planet[] memory ret) {\n        ret = new Planet[](ids.length);\n\n        for (uint256 i = 0; i < ids.length; i++) {\n            ret[i] = gs().planets[ids[i]];\n        }\n    }\n\n    function bulkGetRevealedCoordsByIds(uint256[] calldata ids)\n        public\n        view\n        returns (RevealedCoords[] memory ret)\n    {\n        ret = new RevealedCoords[](ids.length);\n\n        for (uint256 i = 0; i < ids.length; i++) {\n            ret[i] = gs().revealedCoords[ids[i]];\n        }\n    }\n\n    function bulkGetPlanetArrivalsByIds(uint256[] calldata ids)\n        public\n        view\n        returns (ArrivalData[][] memory)\n    {\n        ArrivalData[][] memory ret = new ArrivalData[][](ids.length);\n\n        for (uint256 i = 0; i < ids.length; i++) {\n            ret[i] = getPlanetArrivals(ids[i]);\n        }\n\n        return ret;\n    }\n\n    function bulkGetPlanetsExtendedInfoByIds(uint256[] calldata ids)\n        public\n        view\n        returns (PlanetExtendedInfo[] memory ret)\n    {\n        ret = new PlanetExtendedInfo[](ids.length);\n\n        for (uint256 i = 0; i < ids.length; i++) {\n            ret[i] = gs().planetsExtendedInfo[ids[i]];\n        }\n    }\n\n    function bulkGetPlanetsExtendedInfo2ByIds(uint256[] calldata ids)\n        public\n        view\n        returns (PlanetExtendedInfo2[] memory ret)\n    {\n        ret = new PlanetExtendedInfo2[](ids.length);\n\n        for (uint256 i = 0; i < ids.length; i++) {\n            ret[i] = gs().planetsExtendedInfo2[ids[i]];\n        }\n    }\n\n    function bulkGetPlanetsDataByIds(uint256[] calldata ids)\n        public\n        view\n        returns (PlanetData[] memory ret)\n    {\n        ret = new PlanetData[](ids.length);\n        for (uint256 i = 0; i < ids.length; i++) {\n            ret[i] = PlanetData({\n                planet: gs().planets[ids[i]],\n                info: gs().planetsExtendedInfo[ids[i]],\n                info2: gs().planetsExtendedInfo2[ids[i]],\n                revealedCoords: gs().revealedCoords[ids[i]]\n            });\n        }\n    }\n\n    function bulkGetVoyagesByIds(uint256[] calldata ids)\n        public\n        view\n        returns (ArrivalData[] memory ret)\n    {\n        ret = new ArrivalData[](ids.length);\n        for (uint256 i = 0; i < ids.length; i++) {\n            ret[i] = gs().planetArrivals[ids[i]];\n        }\n    }\n\n    function bulkGetPlanets(uint256 startIdx, uint256 endIdx)\n        public\n        view\n        returns (Planet[] memory ret)\n    {\n        // return array of planets corresponding to planetIds[startIdx] through planetIds[endIdx - 1]\n        ret = new Planet[](endIdx - startIdx);\n        for (uint256 i = startIdx; i < endIdx; i++) {\n            ret[i - startIdx] = gs().planets[gs().planetIds[i]];\n        }\n    }\n\n    function bulkGetPlanetsExtendedInfo(uint256 startIdx, uint256 endIdx)\n        public\n        view\n        returns (PlanetExtendedInfo[] memory ret)\n    {\n        // return array of planets corresponding to planetIds[startIdx] through planetIds[endIdx - 1]\n        ret = new PlanetExtendedInfo[](endIdx - startIdx);\n        for (uint256 i = startIdx; i < endIdx; i++) {\n            ret[i - startIdx] = gs().planetsExtendedInfo[gs().planetIds[i]];\n        }\n    }\n\n    function bulkGetPlayerIds(uint256 startIdx, uint256 endIdx)\n        public\n        view\n        returns (address[] memory ret)\n    {\n        // return slice of players array from startIdx through endIdx - 1\n        ret = new address[](endIdx - startIdx);\n        for (uint256 i = startIdx; i < endIdx; i++) {\n            ret[i - startIdx] = gs().playerIds[i];\n        }\n    }\n\n    function bulkGetPlayers(uint256 startIdx, uint256 endIdx)\n        public\n        view\n        returns (Player[] memory ret)\n    {\n        // return array of planets corresponding to planetIds[startIdx] through planetIds[endIdx - 1]\n        ret = new Player[](endIdx - startIdx);\n        for (uint256 i = startIdx; i < endIdx; i++) {\n            ret[i - startIdx] = gs().players[gs().playerIds[i]];\n        }\n    }\n\n    function getPlanetArrivals(uint256 _location) public view returns (ArrivalData[] memory ret) {\n        uint256 arrivalCount = 0;\n        for (uint256 i = 0; i < getPlanetEventsCount(_location); i += 1) {\n            if (getPlanetEvent(_location, i).eventType == PlanetEventType.ARRIVAL) {\n                arrivalCount += 1;\n            }\n        }\n        ret = new ArrivalData[](arrivalCount);\n\n        for (uint256 i = 0; i < getPlanetEventsCount(_location); i += 1) {\n            PlanetEventMetadata memory arrivalEvent = getPlanetEvent(_location, i);\n\n            if (arrivalEvent.eventType == PlanetEventType.ARRIVAL) {\n                ret[i] = gs().planetArrivals[arrivalEvent.id];\n            }\n        }\n    }\n\n    function bulkGetPlanetArrivals(uint256 startIdx, uint256 endIdx)\n        public\n        view\n        returns (ArrivalData[][] memory)\n    {\n        // return array of planets corresponding to planetIds[startIdx] through planetIds[endIdx - 1]\n\n        ArrivalData[][] memory ret = new ArrivalData[][](endIdx - startIdx);\n\n        for (uint256 i = startIdx; i < endIdx; i++) {\n            ret[i - startIdx] = getPlanetArrivals(gs().planetIds[i]);\n        }\n\n        return ret;\n    }\n\n    function getArtifactById(uint256 artifactId)\n        public\n        view\n        returns (ArtifactWithMetadata memory ret)\n    {\n        Artifact memory artifact = DFArtifactFacet(address(this)).getArtifact(artifactId);\n\n        address owner;\n\n        try DFArtifactFacet(address(this)).ownerOf(artifact.id) returns (address addr) {\n            owner = addr;\n        } catch Error(string memory) {\n            // artifact is probably burned / owned by 0x0, so owner is 0x0\n        } catch (bytes memory) {\n            // this shouldn't happen\n        }\n\n        ret = ArtifactWithMetadata({\n            artifact: artifact,\n            upgrade: LibGameUtils._getUpgradeForArtifact(artifact),\n            timeDelayedUpgrade: LibGameUtils.timeDelayUpgrade(artifact),\n            owner: owner,\n            locationId: gs().artifactIdToPlanetId[artifact.id],\n            voyageId: gs().artifactIdToVoyageId[artifact.id]\n        });\n    }\n\n    function getArtifactsOnPlanet(uint256 locationId)\n        public\n        view\n        returns (ArtifactWithMetadata[] memory ret)\n    {\n        uint256[] memory artifactIds = gs().planetArtifacts[locationId];\n        ret = new ArtifactWithMetadata[](artifactIds.length);\n        for (uint256 i = 0; i < artifactIds.length; i++) {\n            ret[i] = getArtifactById(artifactIds[i]);\n        }\n        return ret;\n    }\n\n    function bulkGetPlanetArtifacts(uint256[] calldata planetIds)\n        public\n        view\n        returns (ArtifactWithMetadata[][] memory)\n    {\n        ArtifactWithMetadata[][] memory ret = new ArtifactWithMetadata[][](planetIds.length);\n\n        for (uint256 i = 0; i < planetIds.length; i++) {\n            uint256[] memory planetOwnedArtifactIds = gs().planetArtifacts[planetIds[i]];\n            ret[i] = bulkGetArtifactsByIds(planetOwnedArtifactIds);\n        }\n\n        return ret;\n    }\n\n    function bulkGetArtifactsByIds(uint256[] memory ids)\n        public\n        view\n        returns (ArtifactWithMetadata[] memory ret)\n    {\n        ret = new ArtifactWithMetadata[](ids.length);\n\n        for (uint256 i = 0; i < ids.length; i++) {\n            Artifact memory artifact = DFArtifactFacet(address(this)).getArtifact(ids[i]);\n\n            address owner;\n\n            try DFArtifactFacet(address(this)).ownerOf(artifact.id) returns (address addr) {\n                owner = addr;\n            } catch Error(string memory) {\n                // artifact is probably burned or owned by 0x0, so owner is 0x0\n            } catch (bytes memory) {\n                // this shouldn't happen\n            }\n\n            ret[i] = ArtifactWithMetadata({\n                artifact: artifact,\n                upgrade: LibGameUtils._getUpgradeForArtifact(artifact),\n                timeDelayedUpgrade: LibGameUtils.timeDelayUpgrade(artifact),\n                owner: owner,\n                locationId: gs().artifactIdToPlanetId[artifact.id],\n                voyageId: gs().artifactIdToVoyageId[artifact.id]\n            });\n        }\n    }\n\n    /**\n     * Get a group or artifacts based on their index, fetch all between startIdx & endIdx.\n     Indexes are assigned to artifacts based on the order in which they are minted.\n     * index 0 would be the first Artifact minted, etc.\n     * @param startIdx index of the first element to get\n     * @param endIdx index of the last element to get\n     */\n    function bulkGetArtifacts(uint256 startIdx, uint256 endIdx)\n        public\n        view\n        returns (ArtifactWithMetadata[] memory ret)\n    {\n        ret = new ArtifactWithMetadata[](endIdx - startIdx);\n\n        for (uint256 i = startIdx; i < endIdx; i++) {\n            Artifact memory artifact = DFArtifactFacet(address(this)).getArtifactAtIndex(i);\n            address owner = address(0);\n\n            try DFArtifactFacet(address(this)).ownerOf(artifact.id) returns (address addr) {\n                owner = addr;\n            } catch Error(string memory) {\n                // artifact is probably burned or owned by 0x0, so owner is 0x0\n            } catch (bytes memory) {\n                // this shouldn't happen\n            }\n            ret[i - startIdx] = ArtifactWithMetadata({\n                artifact: artifact,\n                upgrade: LibGameUtils._getUpgradeForArtifact(artifact),\n                timeDelayedUpgrade: LibGameUtils.timeDelayUpgrade(artifact),\n                owner: owner,\n                locationId: gs().artifactIdToPlanetId[artifact.id],\n                voyageId: gs().artifactIdToVoyageId[artifact.id]\n            });\n        }\n    }\n}\n",
  "sourcePath": "/home/terra/opensource/tosca-chain/smart-contract-example/contracts/facets/DFGetterFacet.sol",
  "compiler": {
    "name": "solc",
    "version": "0.8.13+commit.abaa5c0e.Emscripten.clang"
  },
  "schemaVersion": "3.4.7",
  "updatedAt": "2022-04-30T15:27:25.780Z",
  "devdoc": {
    "kind": "dev",
    "methods": {
      "bulkGetArtifacts(uint256,uint256)": {
        "params": {
          "endIdx": "index of the last element to get",
          "startIdx": "index of the first element to get"
        }
      }
    },
    "version": 1
  },
  "userdoc": {
    "kind": "user",
    "methods": {
      "bulkGetArtifacts(uint256,uint256)": {
        "notice": "Get a group or artifacts based on their index, fetch all between startIdx & endIdx. Indexes are assigned to artifacts based on the order in which they are minted. index 0 would be the first Artifact minted, etc."
      }
    },
    "version": 1
  }
}