{
  "contractName": "DFInitialize",
  "abi": [
    {
      "inputs": [
        {
          "internalType": "bool",
          "name": "whitelistEnabled",
          "type": "bool"
        },
        {
          "internalType": "string",
          "name": "artifactBaseURI",
          "type": "string"
        },
        {
          "components": [
            {
              "internalType": "bool",
              "name": "START_PAUSED",
              "type": "bool"
            },
            {
              "internalType": "bool",
              "name": "ADMIN_CAN_ADD_PLANETS",
              "type": "bool"
            },
            {
              "internalType": "uint256",
              "name": "LOCATION_REVEAL_COOLDOWN",
              "type": "uint256"
            },
            {
              "internalType": "uint256",
              "name": "TOKEN_MINT_END_TIMESTAMP",
              "type": "uint256"
            },
            {
              "internalType": "bool",
              "name": "WORLD_RADIUS_LOCKED",
              "type": "bool"
            },
            {
              "internalType": "uint256",
              "name": "WORLD_RADIUS_MIN",
              "type": "uint256"
            },
            {
              "internalType": "bool",
              "name": "DISABLE_ZK_CHECKS",
              "type": "bool"
            },
            {
              "internalType": "uint256",
              "name": "PLANETHASH_KEY",
              "type": "uint256"
            },
            {
              "internalType": "uint256",
              "name": "SPACETYPE_KEY",
              "type": "uint256"
            },
            {
              "internalType": "uint256",
              "name": "BIOMEBASE_KEY",
              "type": "uint256"
            },
            {
              "internalType": "bool",
              "name": "PERLIN_MIRROR_X",
              "type": "bool"
            },
            {
              "internalType": "bool",
              "name": "PERLIN_MIRROR_Y",
              "type": "bool"
            },
            {
              "internalType": "uint256",
              "name": "PERLIN_LENGTH_SCALE",
              "type": "uint256"
            },
            {
              "internalType": "uint256",
              "name": "MAX_NATURAL_PLANET_LEVEL",
              "type": "uint256"
            },
            {
              "internalType": "uint256",
              "name": "TIME_FACTOR_HUNDREDTHS",
              "type": "uint256"
            },
            {
              "internalType": "uint256",
              "name": "PERLIN_THRESHOLD_1",
              "type": "uint256"
            },
            {
              "internalType": "uint256",
              "name": "PERLIN_THRESHOLD_2",
              "type": "uint256"
            },
            {
              "internalType": "uint256",
              "name": "PERLIN_THRESHOLD_3",
              "type": "uint256"
            },
            {
              "internalType": "uint256",
              "name": "INIT_PERLIN_MIN",
              "type": "uint256"
            },
            {
              "internalType": "uint256",
              "name": "INIT_PERLIN_MAX",
              "type": "uint256"
            },
            {
              "internalType": "uint256",
              "name": "SPAWN_RIM_AREA",
              "type": "uint256"
            },
            {
              "internalType": "uint256",
              "name": "BIOME_THRESHOLD_1",
              "type": "uint256"
            },
            {
              "internalType": "uint256",
              "name": "BIOME_THRESHOLD_2",
              "type": "uint256"
            },
            {
              "internalType": "uint256[10]",
              "name": "PLANET_LEVEL_THRESHOLDS",
              "type": "uint256[10]"
            },
            {
              "internalType": "uint256",
              "name": "PLANET_RARITY",
              "type": "uint256"
            },
            {
              "internalType": "bool",
              "name": "PLANET_TRANSFER_ENABLED",
              "type": "bool"
            },
            {
              "internalType": "uint8[5][10][4]",
              "name": "PLANET_TYPE_WEIGHTS",
              "type": "uint8[5][10][4]"
            },
            {
              "internalType": "uint256",
              "name": "SILVER_SCORE_VALUE",
              "type": "uint256"
            },
            {
              "internalType": "uint256[6]",
              "name": "ARTIFACT_POINT_VALUES",
              "type": "uint256[6]"
            },
            {
              "internalType": "uint256",
              "name": "PHOTOID_ACTIVATION_DELAY",
              "type": "uint256"
            },
            {
              "internalType": "bool",
              "name": "SPACE_JUNK_ENABLED",
              "type": "bool"
            },
            {
              "internalType": "uint256",
              "name": "SPACE_JUNK_LIMIT",
              "type": "uint256"
            },
            {
              "internalType": "uint256[10]",
              "name": "PLANET_LEVEL_JUNK",
              "type": "uint256[10]"
            },
            {
              "internalType": "uint256",
              "name": "ABANDON_SPEED_CHANGE_PERCENT",
              "type": "uint256"
            },
            {
              "internalType": "uint256",
              "name": "ABANDON_RANGE_CHANGE_PERCENT",
              "type": "uint256"
            },
            {
              "internalType": "bool",
              "name": "CAPTURE_ZONES_ENABLED",
              "type": "bool"
            },
            {
              "internalType": "uint256",
              "name": "CAPTURE_ZONE_COUNT",
              "type": "uint256"
            },
            {
              "internalType": "uint256",
              "name": "CAPTURE_ZONE_CHANGE_BLOCK_INTERVAL",
              "type": "uint256"
            },
            {
              "internalType": "uint256",
              "name": "CAPTURE_ZONE_RADIUS",
              "type": "uint256"
            },
            {
              "internalType": "uint256[10]",
              "name": "CAPTURE_ZONE_PLANET_LEVEL_SCORE",
              "type": "uint256[10]"
            },
            {
              "internalType": "uint256",
              "name": "CAPTURE_ZONE_HOLD_BLOCKS_REQUIRED",
              "type": "uint256"
            },
            {
              "internalType": "uint256",
              "name": "CAPTURE_ZONES_PER_5000_WORLD_RADIUS",
              "type": "uint256"
            }
          ],
          "internalType": "struct InitArgs",
          "name": "initArgs",
          "type": "tuple"
        }
      ],
      "name": "init",
      "outputs": [],
      "stateMutability": "nonpayable",
      "type": "function"
    },
    {
      "inputs": [],
      "name": "initializeDefaults",
      "outputs": [],
      "stateMutability": "nonpayable",
      "type": "function"
    },
    {
      "inputs": [],
      "name": "initializeUpgrades",
      "outputs": [],
      "stateMutability": "nonpayable",
      "type": "function"
    }
  ],
  "bytecode": "0x608060405234801561001057600080fd5b50612fb5806100206000396000f3fe608060405234801561001057600080fd5b50600436106100415760003560e01c806357e20bfd146100465780639f2e9d0e14610050578063f40fac831461006c575b600080fd5b61004e610076565b005b61006a60048036038101906100659190612d12565b610bba565b005b610074611718565b005b6000610080611ebb565b9050806040518061012001604052806040518060400160405280600881526020017f41737465726f69640000000000000000000000000000000000000000000000008152508152602001620186a081526020016101a1815260200160638152602001604b81526020016101908152602001600081526020016000815260200160008152509080600181540180825580915050600190039060005260206000209060090201600090919091909150600082015181600001908051906020019061014992919061207d565b506020820151816001015560408201518160020155606082015181600301556080820151816004015560a0820151816005015560c0820151816006015560e0820151816007015561010082015181600801555050806040518061012001604052806040518060400160405280600b81526020017f42726f776e204477617266000000000000000000000000000000000000000000815250815260200162061a808152602001610341815260200160b18152602001604b8152602001610190815260200160388152602001620186a0815260200160018152509080600181540180825580915050600190039060005260206000209060090201600090919091909150600082015181600001908051906020019061026692919061207d565b506020820151816001015560408201518160020155606082015181600301556080820151816004015560a0820151816005015560c0820151816006015560e0820151816007015561010082015181600801555050806040518061012001604052806040518060400160405280600981526020017f5265642044776172660000000000000000000000000000000000000000000000815250815260200162186a0081526020016104e2815260200161013b8152602001604b815260200161012c815260200160a781526020016207a120815260200160028152509080600181540180825580915050600190039060005260206000209060090201600090919091909150600082015181600001908051906020019061038492919061207d565b506020820151816001015560408201518160020155606082015181600301556080820151816004015560a0820151816005015560c0820151816006015560e0820151816007015561010082015181600801555050806040518061012001604052806040518060400160405280600b81526020017f57686974652044776172660000000000000000000000000000000000000000008152508152602001625b8d808152602001610683815260200161024f8152602001604b815260200161012c81526020016101a18152602001622625a081526020016003815250908060018154018082558091505060019003906000526020600020906009020160009091909190915060008201518160000190805190602001906104a392919061207d565b506020820151816001015560408201518160020155606082015181600301556080820151816004015560a0820151816005015560c0820151816006015560e0820151816007015561010082015181600801555050806040518061012001604052806040518060400160405280600b81526020017f59656c6c6f772053746172000000000000000000000000000000000000000000815250815260200163017d7840815260200161082381526020016104018152602001604b815260200161012c8152602001610341815260200162b71b0081526020016004815250908060018154018082558091505060019003906000526020600020906009020160009091909190915060008201518160000190805190602001906105c392919061207d565b506020820151816001015560408201518160020155606082015181600301556080820151816004015560a0820151816005015560c0820151816006015560e0820151816007015561010082015181600801555050806040518061012001604052806040518060400160405280600981526020017f426c75652053746172000000000000000000000000000000000000000000000081525081526020016305f5e10081526020016109c481526020016106c68152602001604b815260200160c8815260200161068381526020016302faf08081526020016005815250908060018154018082558091505060019003906000526020600020906009020160009091909190915060008201518160000190805190602001906106e392919061207d565b506020820151816001015560408201518160020155606082015181600301556080820151816004015560a0820151816005015560c0820151816006015560e0820151816007015561010082015181600801555050806040518061012001604052806040518060400160405280600581526020017f4769616e7400000000000000000000000000000000000000000000000000000081525081526020016311e1a3008152602001610b658152602001610b168152602001604b815260200160c88152602001610ada81526020016305f5e100815260200160078152509080600181540180825580915050600190039060005260206000209060090201600090919091909150600082015181600001908051906020019061080392919061207d565b506020820151816001015560408201518160020155606082015181600301556080820151816004015560a0820151816005015560c0820151816006015560e0820151816007015561010082015181600801555050806040518061012001604052806040518060400160405280600a81526020017f53757065726769616e74000000000000000000000000000000000000000000008152508152602001631dcd65008152602001610d05815260200161113e8152602001604b815260200160c88152602001610ada8152602001630bebc2008152602001600a8152509080600181540180825580915050600190039060005260206000209060090201600090919091909150600082015181600001908051906020019061092392919061207d565b506020820151816001015560408201518160020155606082015181600301556080820151816004015560a0820151816005015560c0820151816006015560e0820151816007015561010082015181600801555050806040518061012001604052806040518060400160405280600a81526020017f556e6c6162656c6564310000000000000000000000000000000000000000000081525081526020016329b927008152602001610ea681526020016118a28152602001604b815260200160c88152602001610ada81526020016311e1a3008152602001601481525090806001815401808255809150506001900390600052602060002090600902016000909190919091506000820151816000019080519060200190610a4392919061207d565b506020820151816001015560408201518160020155606082015181600301556080820151816004015560a0820151816005015560c0820151816006015560e0820151816007015561010082015181600801555050806040518061012001604052806040518060400160405280600a81526020017f556e6c6162656c656432000000000000000000000000000000000000000000008152508152602001632faf08008152602001611047815260200161227d8152602001604b815260200160c88152602001610ada81526020016317d784008152602001601981525090806001815401808255809150506001900390600052602060002090600902016000909190919091506000820151816000019080519060200190610b6392919061207d565b506020820151816001015560408201518160020155606082015181600301556080820151816004015560a0820151816005015560c0820151816006015560e082015181600701556101008201518160080155505050565b6000610bc4611eca565b905060018160030160007f01ffc9a7000000000000000000000000000000000000000000000000000000007bffffffffffffffffffffffffffffffffffffffffffffffffffffffff19167bffffffffffffffffffffffffffffffffffffffffffffffffffffffff1916815260200190815260200160002060006101000a81548160ff02191690831515021790555060018160030160007f1f931c1c000000000000000000000000000000000000000000000000000000007bffffffffffffffffffffffffffffffffffffffffffffffffffffffff19167bffffffffffffffffffffffffffffffffffffffffffffffffffffffff1916815260200190815260200160002060006101000a81548160ff02191690831515021790555060018160030160007f48e2b093000000000000000000000000000000000000000000000000000000007bffffffffffffffffffffffffffffffffffffffffffffffffffffffff19167bffffffffffffffffffffffffffffffffffffffffffffffffffffffff1916815260200190815260200160002060006101000a81548160ff02191690831515021790555060018160030160007f7f5828d0000000000000000000000000000000000000000000000000000000007bffffffffffffffffffffffffffffffffffffffffffffffffffffffff19167bffffffffffffffffffffffffffffffffffffffffffffffffffffffff1916815260200190815260200160002060006101000a81548160ff02191690831515021790555060018160030160007f80ac58cd000000000000000000000000000000000000000000000000000000007bffffffffffffffffffffffffffffffffffffffffffffffffffffffff19167bffffffffffffffffffffffffffffffffffffffffffffffffffffffff1916815260200190815260200160002060006101000a81548160ff02191690831515021790555060018160030160007f5b5e139f000000000000000000000000000000000000000000000000000000007bffffffffffffffffffffffffffffffffffffffffffffffffffffffff19167bffffffffffffffffffffffffffffffffffffffffffffffffffffffff1916815260200190815260200160002060006101000a81548160ff02191690831515021790555060018160030160007f780e9d63000000000000000000000000000000000000000000000000000000007bffffffffffffffffffffffffffffffffffffffffffffffffffffffff19167bffffffffffffffffffffffffffffffffffffffffffffffffffffffff1916815260200190815260200160002060006101000a81548160ff02191690831515021790555060405180602001604052806000815250610fb2611ef7565b6000019080519060200190610fc892919061207d565b5060405180602001604052806000815250610fe1611ef7565b6001019080519060200190610ff792919061207d565b5082611001611ef7565b600201908051906020019061101792919061207d565b5030611021611f24565b60000160006101000a81548173ffffffffffffffffffffffffffffffffffffffff021916908373ffffffffffffffffffffffffffffffffffffffff1602179055508361106b611f33565b60000160006101000a81548160ff02191690831515021790555066b1a2bc2ec50000611095611f33565b6001018190555060006110a6611f33565b60050160006101000a81548160ff021916908315150217905550662386f26fc100006110d0611f33565b60060181905550600a6110e1611f24565b60020181905550816102e001516110f6611f24565b60030190600a611107929190612103565b508160c00151611115611f42565b60000160006101000a81548160ff0219169083151502179055508160e0015161113c611f42565b60010181905550816101000151611151611f42565b60020181905550816101200151611166611f42565b6003018190555081610140015161117b611f42565b60040160006101000a81548160ff0219169083151502179055508161016001516111a3611f42565b60040160016101000a81548160ff0219169083151502179055508161018001516111cb611f42565b6005018190555081602001516111df611f51565b60000160006101000a81548160ff0219169083151502179055508160800151611206611f51565b60000160016101000a81548160ff0219169083151502179055508160a0015161122d611f51565b60010181905550816101a00151611242611f51565b60020181905550816101c00151611257611f51565b60030181905550816101e0015161126c611f51565b60040181905550816102000151611281611f51565b60050181905550816102200151611296611f51565b600601819055508161024001516112ab611f51565b600701819055508161026001516112c0611f51565b600801819055508161028001516112d5611f51565b60090181905550816102a001516112ea611f51565b600a0181905550816102c001516112ff611f51565b600b0181905550816103000151611314611f51565b60160181905550816103200151611329611f51565b60170160006101000a81548160ff021916908315150217905550816103a00151611351611f51565b601801819055508160400151611365611f51565b6019018190555081610340015161137a611f51565b601a0190600461138b929190612150565b5081610360015161139a611f51565b604201819055508161038001516113af611f51565b6043019060066113c09291906121a1565b50816103c001516113cf611f51565b60490160006101000a81548160ff021916908315150217905550816103e001516113f7611f51565b604a018190555081610400015161140c611f51565b604b0190600a61141d9291906121e1565b5081610420015161142c611f51565b60550181905550816104400151611441611f51565b6056018190555043611451611f51565b60570181905550816104600151611466611f51565b60580160006101000a81548160ff02191690831515021790555081610480015161148e611f51565b60590181905550816104a001516114a3611f51565b605a0181905550816104c001516114b8611f51565b605b0181905550816104e001516114cd611f51565b605c0190600a6114de9291906121e1565b508161050001516114ed611f51565b60660181905550816105200151611502611f51565b60670181905550816104a001514361151a9190612db1565b611522611f24565b601701819055508160a00151611536611f24565b60090181905550816000015161154a611f24565b60000160146101000a81548160ff0219169083151502179055508160600151611571611f24565b60010181905550611580610076565b611588611718565b604051806101400160405280600060ff168152602001600060ff168152602001600060ff168152602001600060ff168152602001600060ff168152602001600060ff168152602001600060ff168152602001600060ff168152602001600060ff168152602001600060ff168152506115fe611f24565b60050190600a61160f929190612221565b5060005b61161b611f24565b600301805490508110156116b557611631611f24565b600401836103000151611642611f24565b600301838154811061165757611656612e07565b5b906000526020600020015463010000006116719190612e65565b61167b9190612e96565b90806001815401808255809150506001900390600052602060002001600090919091909150556001816116ae9190612db1565b9050611613565b5073__LibGameUtils__________________________63eaae46536040518163ffffffff1660e01b815260040160006040518083038186803b1580156116fa57600080fd5b505af415801561170e573d6000803e3d6000fd5b5050505050505050565b6000611722611f60565b90506040518060a00160405280607881526020016078815260200160648152602001606481526020016078815250816000600281111561176557611764612ef0565b5b6003811061177657611775612e07565b5b6014020160006004811061178d5761178c612e07565b5b6005020160008201518160000155602082015181600101556040820151816002015560608201518160030155608082015181600401559050506040518060a00160405280607881526020016078815260200160648152602001606481526020016078815250816000600281111561180757611806612ef0565b5b6003811061181857611817612e07565b5b6014020160016004811061182f5761182e612e07565b5b6005020160008201518160000155602082015181600101556040820151816002015560608201518160030155608082015181600401559050506040518060a0016040528060788152602001607881526020016064815260200160648152602001607881525081600060028111156118a9576118a8612ef0565b5b600381106118ba576118b9612e07565b5b601402016002600481106118d1576118d0612e07565b5b6005020160008201518160000155602082015181600101556040820151816002015560608201518160030155608082015181600401559050506040518060a00160405280607881526020016078815260200160648152602001606481526020016078815250816000600281111561194b5761194a612ef0565b5b6003811061195c5761195b612e07565b5b6014020160036004811061197357611972612e07565b5b6005020160008201518160000155602082015181600101556040820151816002015560608201518160030155608082015181600401559050506040518060a001604052806078815260200160788152602001607d815260200160648152602001606481525081600160028111156119ed576119ec612ef0565b5b600381106119fe576119fd612e07565b5b60140201600060048110611a1557611a14612e07565b5b6005020160008201518160000155602082015181600101556040820151816002015560608201518160030155608082015181600401559050506040518060a001604052806078815260200160788152602001607d81526020016064815260200160648152508160016002811115611a8f57611a8e612ef0565b5b60038110611aa057611a9f612e07565b5b60140201600160048110611ab757611ab6612e07565b5b6005020160008201518160000155602082015181600101556040820151816002015560608201518160030155608082015181600401559050506040518060a001604052806078815260200160788152602001607d81526020016064815260200160648152508160016002811115611b3157611b30612ef0565b5b60038110611b4257611b41612e07565b5b60140201600260048110611b5957611b58612e07565b5b6005020160008201518160000155602082015181600101556040820151816002015560608201518160030155608082015181600401559050506040518060a001604052806078815260200160788152602001607d81526020016064815260200160648152508160016002811115611bd357611bd2612ef0565b5b60038110611be457611be3612e07565b5b60140201600360048110611bfb57611bfa612e07565b5b6005020160008201518160000155602082015181600101556040820151816002015560608201518160030155608082015181600401559050506040518060a0016040528060788152602001607881526020016064815260200160af8152602001606481525081600280811115611c7457611c73612ef0565b5b60038110611c8557611c84612e07565b5b60140201600060048110611c9c57611c9b612e07565b5b6005020160008201518160000155602082015181600101556040820151816002015560608201518160030155608082015181600401559050506040518060a0016040528060788152602001607881526020016064815260200160af8152602001606481525081600280811115611d1557611d14612ef0565b5b60038110611d2657611d25612e07565b5b60140201600160048110611d3d57611d3c612e07565b5b6005020160008201518160000155602082015181600101556040820151816002015560608201518160030155608082015181600401559050506040518060a0016040528060788152602001607881526020016064815260200160af8152602001606481525081600280811115611db657611db5612ef0565b5b60038110611dc757611dc6612e07565b5b60140201600260048110611dde57611ddd612e07565b5b6005020160008201518160000155602082015181600101556040820151816002015560608201518160030155608082015181600401559050506040518060a0016040528060788152602001607881526020016064815260200160af8152602001606481525081600280811115611e5757611e56612ef0565b5b60038110611e6857611e67612e07565b5b60140201600360048110611e7f57611e7e612e07565b5b60050201600082015181600001556020820151816001015560408201518160020155606082015181600301556080820151816004015590505050565b6000611ec5611f6f565b905090565b6000807fc8fcad8db84d3cc18b4c41d551ea0ee66dd599cde068d998e57d5e09332c131c90508091505090565b6000807f99574a7094154bb123ae6ae102096f0bf9679b85a5cd1e727aaa0ae5f132e6b190508091505090565b6000611f2e611f9c565b905090565b6000611f3d611fc9565b905090565b6000611f4c611ff6565b905090565b6000611f5b612023565b905090565b6000611f6a612050565b905090565b6000807fc8b32c67c130c3ffee82ae8b12efdcc4a3964d2cf86dd6ece89dca12a93c024490508091505090565b6000807fcb7f1a525606efcbba7baaf9b0b55c468d0fd558cbf767967f538834dfa1232e90508091505090565b6000807f69a2c502475bdd85d96bf3a0299d27e0c75b294faa4041a1d71dc144ef660eba90508091505090565b6000807f2849cb27302bb32c0c7252ab45487d42296bcddad804f932e0b0589e515a937490508091505090565b6000807f5fb65bb339c6bd3f2609a7342e6cb046e09f3e40f45242a5971904b021b5bb5390508091505090565b6000807fb997f4d26de83b05e27fc6c6b9d295ba414ad9dfbfc3edc3b418ee775927d06890508091505090565b82805461208990612f4e565b90600052602060002090601f0160209004810192826120ab57600085556120f2565b82601f106120c457805160ff19168380011785556120f2565b828001600101855582156120f2579182015b828111156120f15782518255916020019190600101906120d6565b5b5090506120ff9190612273565b5090565b82805482825590600052602060002090810192821561213f579160200282015b8281111561213e578251825591602001919060010190612123565b5b50905061214c9190612273565b5090565b826004600a028101928215612190579160200282015b8281111561218f5782518290600a61217f929190612290565b50916020019190600a0190612166565b5b50905061219d91906122de565b5090565b82600681019282156121d0579160200282015b828111156121cf5782518255916020019190600101906121b4565b5b5090506121dd9190612273565b5090565b82600a8101928215612210579160200282015b8281111561220f5782518255916020019190600101906121f4565b5b50905061221d9190612273565b5090565b828054828255906000526020600020908101928215612262579160200282015b82811115612261578251829060ff16905591602001919060010190612241565b5b50905061226f9190612273565b5090565b5b8082111561228c576000816000905550600101612274565b5090565b82600a81019282156122cd579160200282015b828111156122cc578251829060056122bc929190612302565b50916020019190600101906122a3565b5b5090506122da919061239c565b5090565b5b808211156122fe57600081816122f591906123c0565b50600a016122df565b5090565b826005601f0160209004810192821561238b5791602002820160005b8382111561235c57835183826101000a81548160ff021916908360ff160217905550926020019260010160208160000104928301926001030261231e565b80156123895782816101000a81549060ff021916905560010160208160000104928301926001030261235c565b505b5090506123989190612273565b5090565b5b808211156123bc57600081816123b391906123d3565b5060010161239d565b5090565b5080600a01906123d0919061239c565b50565b5060009055565b6000604051905090565b600080fd5b600080fd5b60008115159050919050565b612403816123ee565b811461240e57600080fd5b50565b600081359050612420816123fa565b92915050565b600080fd5b600080fd5b6000601f19601f8301169050919050565b7f4e487b7100000000000000000000000000000000000000000000000000000000600052604160045260246000fd5b61247982612430565b810181811067ffffffffffffffff8211171561249857612497612441565b5b80604052505050565b60006124ab6123da565b90506124b78282612470565b919050565b600067ffffffffffffffff8211156124d7576124d6612441565b5b6124e082612430565b9050602081019050919050565b82818337600083830152505050565b600061250f61250a846124bc565b6124a1565b90508281526020810184848401111561252b5761252a61242b565b5b6125368482856124ed565b509392505050565b600082601f83011261255357612552612426565b5b81356125638482602086016124fc565b91505092915050565b600080fd5b6000819050919050565b61258481612571565b811461258f57600080fd5b50565b6000813590506125a18161257b565b92915050565b600067ffffffffffffffff8211156125c2576125c1612441565b5b602082029050919050565b600080fd5b60006125e56125e0846125a7565b6124a1565b905080602084028301858111156125ff576125fe6125cd565b5b835b8181101561262857806126148882612592565b845260208401935050602081019050612601565b5050509392505050565b600082601f83011261264757612646612426565b5b600a6126548482856125d2565b91505092915050565b600067ffffffffffffffff82111561267857612677612441565b5b602082029050919050565b600067ffffffffffffffff82111561269e5761269d612441565b5b602082029050919050565b600067ffffffffffffffff8211156126c4576126c3612441565b5b602082029050919050565b600060ff82169050919050565b6126e5816126cf565b81146126f057600080fd5b50565b600081359050612702816126dc565b92915050565b600061271b612716846126a9565b6124a1565b90508060208402830185811115612735576127346125cd565b5b835b8181101561275e578061274a88826126f3565b845260208401935050602081019050612737565b5050509392505050565b600082601f83011261277d5761277c612426565b5b600561278a848285612708565b91505092915050565b60006127a66127a184612683565b6124a1565b90508060a084028301858111156127c0576127bf6125cd565b5b835b818110156127e957806127d58882612768565b84526020840193505060a0810190506127c2565b5050509392505050565b600082601f83011261280857612807612426565b5b600a612815848285612793565b91505092915050565b600061283161282c8461265d565b6124a1565b905080610640840283018581111561284c5761284b6125cd565b5b835b81811015612876578061286188826127f3565b8452602084019350506106408101905061284e565b5050509392505050565b600082601f83011261289557612894612426565b5b60046128a284828561281e565b91505092915050565b600067ffffffffffffffff8211156128c6576128c5612441565b5b602082029050919050565b60006128e46128df846128ab565b6124a1565b905080602084028301858111156128fe576128fd6125cd565b5b835b8181101561292757806129138882612592565b845260208401935050602081019050612900565b5050509392505050565b600082601f83011261294657612945612426565b5b60066129538482856128d1565b91505092915050565b600061222082840312156129735761297261256c565b5b61297e6105406124a1565b9050600061298e84828501612411565b60008301525060206129a284828501612411565b60208301525060406129b684828501612592565b60408301525060606129ca84828501612592565b60608301525060806129de84828501612411565b60808301525060a06129f284828501612592565b60a08301525060c0612a0684828501612411565b60c08301525060e0612a1a84828501612592565b60e083015250610100612a2f84828501612592565b61010083015250610120612a4584828501612592565b61012083015250610140612a5b84828501612411565b61014083015250610160612a7184828501612411565b61016083015250610180612a8784828501612592565b610180830152506101a0612a9d84828501612592565b6101a0830152506101c0612ab384828501612592565b6101c0830152506101e0612ac984828501612592565b6101e083015250610200612adf84828501612592565b61020083015250610220612af584828501612592565b61022083015250610240612b0b84828501612592565b61024083015250610260612b2184828501612592565b61026083015250610280612b3784828501612592565b610280830152506102a0612b4d84828501612592565b6102a0830152506102c0612b6384828501612592565b6102c0830152506102e0612b7984828501612632565b6102e083015250610420612b8f84828501612592565b61030083015250610440612ba584828501612411565b61032083015250610460612bbb84828501612880565b61034083015250611d60612bd184828501612592565b61036083015250611d80612be784828501612931565b61038083015250611e40612bfd84828501612592565b6103a083015250611e60612c1384828501612411565b6103c083015250611e80612c2984828501612592565b6103e083015250611ea0612c3f84828501612632565b61040083015250611fe0612c5584828501612592565b61042083015250612000612c6b84828501612592565b61044083015250612020612c8184828501612411565b61046083015250612040612c9784828501612592565b61048083015250612060612cad84828501612592565b6104a083015250612080612cc384828501612592565b6104c0830152506120a0612cd984828501612632565b6104e0830152506121e0612cef84828501612592565b61050083015250612200612d0584828501612592565b6105208301525092915050565b60008060006122608486031215612d2c57612d2b6123e4565b5b6000612d3a86828701612411565b935050602084013567ffffffffffffffff811115612d5b57612d5a6123e9565b5b612d678682870161253e565b9250506040612d788682870161295c565b9150509250925092565b7f4e487b7100000000000000000000000000000000000000000000000000000000600052601160045260246000fd5b6000612dbc82612571565b9150612dc783612571565b9250827fffffffffffffffffffffffffffffffffffffffffffffffffffffffffffffffff03821115612dfc57612dfb612d82565b5b828201905092915050565b7f4e487b7100000000000000000000000000000000000000000000000000000000600052603260045260246000fd5b7f4e487b7100000000000000000000000000000000000000000000000000000000600052601260045260246000fd5b6000612e7082612571565b9150612e7b83612571565b925082612e8b57612e8a612e36565b5b828204905092915050565b6000612ea182612571565b9150612eac83612571565b9250817fffffffffffffffffffffffffffffffffffffffffffffffffffffffffffffffff0483118215151615612ee557612ee4612d82565b5b828202905092915050565b7f4e487b7100000000000000000000000000000000000000000000000000000000600052602160045260246000fd5b7f4e487b7100000000000000000000000000000000000000000000000000000000600052602260045260246000fd5b60006002820490506001821680612f6657607f821691505b602082108103612f7957612f78612f1f565b5b5091905056fea2646970667358221220e739e252f81ba676e07a21307736ebe48e0e484a5b890cb10f20f0a7f763917f64736f6c634300080d0033",
  "immutableReferences": {},
  "source": "// SPDX-License-Identifier: GPL-3.0 AND MIT\n/**\n * Customized version of DiamondInit.sol\n *\n * Vendored on November 16, 2021 from:\n * https://github.com/mudgen/diamond-3-hardhat/blob/7feb995/contracts/upgradeInitializers/DiamondInit.sol\n */\npragma solidity ^0.8.0;\n\n/******************************************************************************\\\n* Author: Nick Mudge <nick@perfectabstractions.com> (https://twitter.com/mudgen)\n* EIP-2535 Diamonds: https://eips.ethereum.org/EIPS/eip-2535\n*\n* Implementation of a diamond.\n/******************************************************************************/\n\n// It is expected that this contract is customized in order to deploy a diamond with data\n// from a deployment script. The init function is used to initialize state variables\n// of the diamond. Add parameters to the init function if you need to.\n\n// Interface imports\nimport {IDiamondLoupe} from \"./vendor/interfaces/IDiamondLoupe.sol\";\nimport {IDiamondCut} from \"./vendor/interfaces/IDiamondCut.sol\";\nimport {IERC173} from \"./vendor/interfaces/IERC173.sol\";\nimport {IERC165} from \"@solidstate/contracts/introspection/IERC165.sol\";\nimport {IERC721} from \"@solidstate/contracts/token/ERC721/IERC721.sol\";\nimport {IERC721Metadata} from \"@solidstate/contracts/token/ERC721/metadata/IERC721Metadata.sol\";\nimport {\n    IERC721Enumerable\n} from \"@solidstate/contracts/token/ERC721/enumerable/IERC721Enumerable.sol\";\n\n// Inherited storage\nimport {\n    ERC721MetadataStorage\n} from \"@solidstate/contracts/token/ERC721/metadata/ERC721MetadataStorage.sol\";\n\n// Library imports\nimport {LibDiamond} from \"./vendor/libraries/LibDiamond.sol\";\nimport {WithStorage} from \"./libraries/LibStorage.sol\";\nimport {LibGameUtils} from \"./libraries/LibGameUtils.sol\";\n\n// Type imports\nimport {PlanetDefaultStats, Upgrade, UpgradeBranch} from \"./DFTypes.sol\";\n\nstruct InitArgs {\n    bool START_PAUSED;\n    bool ADMIN_CAN_ADD_PLANETS;\n    uint256 LOCATION_REVEAL_COOLDOWN;\n    uint256 TOKEN_MINT_END_TIMESTAMP;\n    bool WORLD_RADIUS_LOCKED;\n    uint256 WORLD_RADIUS_MIN;\n    // SNARK keys and perlin params\n    bool DISABLE_ZK_CHECKS;\n    uint256 PLANETHASH_KEY;\n    uint256 SPACETYPE_KEY;\n    uint256 BIOMEBASE_KEY;\n    bool PERLIN_MIRROR_X;\n    bool PERLIN_MIRROR_Y;\n    uint256 PERLIN_LENGTH_SCALE; // must be a power of two up to 8192\n    // Game config\n    uint256 MAX_NATURAL_PLANET_LEVEL;\n    uint256 TIME_FACTOR_HUNDREDTHS; // speedup/slowdown game\n    uint256 PERLIN_THRESHOLD_1;\n    uint256 PERLIN_THRESHOLD_2;\n    uint256 PERLIN_THRESHOLD_3;\n    uint256 INIT_PERLIN_MIN;\n    uint256 INIT_PERLIN_MAX;\n    uint256 SPAWN_RIM_AREA;\n    uint256 BIOME_THRESHOLD_1;\n    uint256 BIOME_THRESHOLD_2;\n    uint256[10] PLANET_LEVEL_THRESHOLDS;\n    uint256 PLANET_RARITY;\n    bool PLANET_TRANSFER_ENABLED;\n    uint8[5][10][4] PLANET_TYPE_WEIGHTS; // spaceType (enum 0-3) -> planetLevel (0-7) -> planetType (enum 0-4)\n    uint256 SILVER_SCORE_VALUE;\n    uint256[6] ARTIFACT_POINT_VALUES;\n    uint256 PHOTOID_ACTIVATION_DELAY;\n    // Space Junk\n    bool SPACE_JUNK_ENABLED;\n    /**\n        Total amount of space junk a player can take on.\n        This can be overridden at runtime by updating\n        this value for a specific player in storage.\n    */\n    uint256 SPACE_JUNK_LIMIT;\n    /**\n        The amount of junk that each level of planet\n        gives the player when moving to it for the\n        first time.\n    */\n    uint256[10] PLANET_LEVEL_JUNK;\n    /**\n        The speed boost a movement receives when abandoning\n        a planet.\n    */\n    uint256 ABANDON_SPEED_CHANGE_PERCENT;\n    /**\n        The range boost a movement receives when abandoning\n        a planet.\n    */\n    uint256 ABANDON_RANGE_CHANGE_PERCENT;\n    // Capture Zones\n    bool CAPTURE_ZONES_ENABLED;\n    uint256 CAPTURE_ZONE_COUNT;\n    uint256 CAPTURE_ZONE_CHANGE_BLOCK_INTERVAL;\n    uint256 CAPTURE_ZONE_RADIUS;\n    uint256[10] CAPTURE_ZONE_PLANET_LEVEL_SCORE;\n    uint256 CAPTURE_ZONE_HOLD_BLOCKS_REQUIRED;\n    uint256 CAPTURE_ZONES_PER_5000_WORLD_RADIUS;\n}\n\ncontract DFInitialize is WithStorage {\n    using ERC721MetadataStorage for ERC721MetadataStorage.Layout;\n\n    // You can add parameters to this function in order to pass in\n    // data to set initialize state variables\n    function init(\n        bool whitelistEnabled,\n        string memory artifactBaseURI,\n        InitArgs memory initArgs\n    ) external {\n        // adding ERC165 data\n        LibDiamond.DiamondStorage storage ds = LibDiamond.diamondStorage();\n        ds.supportedInterfaces[type(IERC165).interfaceId] = true;\n        ds.supportedInterfaces[type(IDiamondCut).interfaceId] = true;\n        ds.supportedInterfaces[type(IDiamondLoupe).interfaceId] = true;\n        ds.supportedInterfaces[type(IERC173).interfaceId] = true;\n        ds.supportedInterfaces[type(IERC721).interfaceId] = true;\n        ds.supportedInterfaces[type(IERC721Metadata).interfaceId] = true;\n        ds.supportedInterfaces[type(IERC721Enumerable).interfaceId] = true;\n\n        // Setup the ERC721 metadata\n        // TODO(#1925): Add name and symbol for the artifact tokens\n        ERC721MetadataStorage.layout().name = \"\";\n        ERC721MetadataStorage.layout().symbol = \"\";\n        ERC721MetadataStorage.layout().baseURI = artifactBaseURI;\n\n        gs().diamondAddress = address(this);\n\n        ws().enabled = whitelistEnabled;\n        ws().drip = 0.05 ether;\n        ws().relayerRewardsEnabled = false;\n        ws().relayerReward = 0.01 ether;\n\n        gs().planetLevelsCount = 10;\n        gs().planetLevelThresholds = initArgs.PLANET_LEVEL_THRESHOLDS;\n\n        snarkConstants().DISABLE_ZK_CHECKS = initArgs.DISABLE_ZK_CHECKS;\n        snarkConstants().PLANETHASH_KEY = initArgs.PLANETHASH_KEY;\n        snarkConstants().SPACETYPE_KEY = initArgs.SPACETYPE_KEY;\n        snarkConstants().BIOMEBASE_KEY = initArgs.BIOMEBASE_KEY;\n        snarkConstants().PERLIN_MIRROR_X = initArgs.PERLIN_MIRROR_X;\n        snarkConstants().PERLIN_MIRROR_Y = initArgs.PERLIN_MIRROR_Y;\n        snarkConstants().PERLIN_LENGTH_SCALE = initArgs.PERLIN_LENGTH_SCALE;\n\n        gameConstants().ADMIN_CAN_ADD_PLANETS = initArgs.ADMIN_CAN_ADD_PLANETS;\n        gameConstants().WORLD_RADIUS_LOCKED = initArgs.WORLD_RADIUS_LOCKED;\n        gameConstants().WORLD_RADIUS_MIN = initArgs.WORLD_RADIUS_MIN;\n        gameConstants().MAX_NATURAL_PLANET_LEVEL = initArgs.MAX_NATURAL_PLANET_LEVEL;\n        gameConstants().TIME_FACTOR_HUNDREDTHS = initArgs.TIME_FACTOR_HUNDREDTHS;\n        gameConstants().PERLIN_THRESHOLD_1 = initArgs.PERLIN_THRESHOLD_1;\n        gameConstants().PERLIN_THRESHOLD_2 = initArgs.PERLIN_THRESHOLD_2;\n        gameConstants().PERLIN_THRESHOLD_3 = initArgs.PERLIN_THRESHOLD_3;\n        gameConstants().INIT_PERLIN_MIN = initArgs.INIT_PERLIN_MIN;\n        gameConstants().INIT_PERLIN_MAX = initArgs.INIT_PERLIN_MAX;\n        gameConstants().SPAWN_RIM_AREA = initArgs.SPAWN_RIM_AREA;\n        gameConstants().BIOME_THRESHOLD_1 = initArgs.BIOME_THRESHOLD_1;\n        gameConstants().BIOME_THRESHOLD_2 = initArgs.BIOME_THRESHOLD_2;\n        gameConstants().PLANET_RARITY = initArgs.PLANET_RARITY;\n        gameConstants().PLANET_TRANSFER_ENABLED = initArgs.PLANET_TRANSFER_ENABLED;\n        gameConstants().PHOTOID_ACTIVATION_DELAY = initArgs.PHOTOID_ACTIVATION_DELAY;\n        gameConstants().LOCATION_REVEAL_COOLDOWN = initArgs.LOCATION_REVEAL_COOLDOWN;\n        gameConstants().PLANET_TYPE_WEIGHTS = initArgs.PLANET_TYPE_WEIGHTS;\n        gameConstants().SILVER_SCORE_VALUE = initArgs.SILVER_SCORE_VALUE;\n        gameConstants().ARTIFACT_POINT_VALUES = initArgs.ARTIFACT_POINT_VALUES;\n        // Space Junk\n        gameConstants().SPACE_JUNK_ENABLED = initArgs.SPACE_JUNK_ENABLED;\n        gameConstants().SPACE_JUNK_LIMIT = initArgs.SPACE_JUNK_LIMIT;\n        gameConstants().PLANET_LEVEL_JUNK = initArgs.PLANET_LEVEL_JUNK;\n        gameConstants().ABANDON_SPEED_CHANGE_PERCENT = initArgs.ABANDON_SPEED_CHANGE_PERCENT;\n        gameConstants().ABANDON_RANGE_CHANGE_PERCENT = initArgs.ABANDON_RANGE_CHANGE_PERCENT;\n        // Capture Zones\n        gameConstants().GAME_START_BLOCK = block.number;\n        gameConstants().CAPTURE_ZONES_ENABLED = initArgs.CAPTURE_ZONES_ENABLED;\n        gameConstants().CAPTURE_ZONE_COUNT = initArgs.CAPTURE_ZONE_COUNT;\n        gameConstants().CAPTURE_ZONE_CHANGE_BLOCK_INTERVAL = initArgs\n            .CAPTURE_ZONE_CHANGE_BLOCK_INTERVAL;\n        gameConstants().CAPTURE_ZONE_RADIUS = initArgs.CAPTURE_ZONE_RADIUS;\n        gameConstants().CAPTURE_ZONE_PLANET_LEVEL_SCORE = initArgs.CAPTURE_ZONE_PLANET_LEVEL_SCORE;\n        gameConstants().CAPTURE_ZONE_HOLD_BLOCKS_REQUIRED = initArgs\n            .CAPTURE_ZONE_HOLD_BLOCKS_REQUIRED;\n        gameConstants().CAPTURE_ZONES_PER_5000_WORLD_RADIUS = initArgs\n            .CAPTURE_ZONES_PER_5000_WORLD_RADIUS;\n\n        gs().nextChangeBlock = block.number + initArgs.CAPTURE_ZONE_CHANGE_BLOCK_INTERVAL;\n\n        gs().worldRadius = initArgs.WORLD_RADIUS_MIN; // will be overridden by `LibGameUtils.updateWorldRadius()` if !WORLD_RADIUS_LOCKED\n\n        gs().paused = initArgs.START_PAUSED;\n        gs().TOKEN_MINT_END_TIMESTAMP = initArgs.TOKEN_MINT_END_TIMESTAMP;\n\n        initializeDefaults();\n        initializeUpgrades();\n\n        gs().initializedPlanetCountByLevel = [0, 0, 0, 0, 0, 0, 0, 0, 0, 0];\n        for (uint256 i = 0; i < gs().planetLevelThresholds.length; i += 1) {\n            gs().cumulativeRarities.push(\n                (2**24 / gs().planetLevelThresholds[i]) * initArgs.PLANET_RARITY\n            );\n        }\n\n        LibGameUtils.updateWorldRadius();\n    }\n\n    function initializeDefaults() public {\n        PlanetDefaultStats[] storage planetDefaultStats = planetDefaultStats();\n\n        planetDefaultStats.push(\n            PlanetDefaultStats({\n                label: \"Asteroid\",\n                populationCap: 100000,\n                populationGrowth: 417,\n                range: 99,\n                speed: 75,\n                defense: 400,\n                silverGrowth: 0,\n                silverCap: 0,\n                barbarianPercentage: 0\n            })\n        );\n\n        planetDefaultStats.push(\n            PlanetDefaultStats({\n                label: \"Brown Dwarf\",\n                populationCap: 400000,\n                populationGrowth: 833,\n                range: 177,\n                speed: 75,\n                defense: 400,\n                silverGrowth: 56,\n                silverCap: 100000,\n                barbarianPercentage: 1\n            })\n        );\n\n        planetDefaultStats.push(\n            PlanetDefaultStats({\n                label: \"Red Dwarf\",\n                populationCap: 1600000,\n                populationGrowth: 1250,\n                range: 315,\n                speed: 75,\n                defense: 300,\n                silverGrowth: 167,\n                silverCap: 500000,\n                barbarianPercentage: 2\n            })\n        );\n\n        planetDefaultStats.push(\n            PlanetDefaultStats({\n                label: \"White Dwarf\",\n                populationCap: 6000000,\n                populationGrowth: 1667,\n                range: 591,\n                speed: 75,\n                defense: 300,\n                silverGrowth: 417,\n                silverCap: 2500000,\n                barbarianPercentage: 3\n            })\n        );\n\n        planetDefaultStats.push(\n            PlanetDefaultStats({\n                label: \"Yellow Star\",\n                populationCap: 25000000,\n                populationGrowth: 2083,\n                range: 1025,\n                speed: 75,\n                defense: 300,\n                silverGrowth: 833,\n                silverCap: 12000000,\n                barbarianPercentage: 4\n            })\n        );\n\n        planetDefaultStats.push(\n            PlanetDefaultStats({\n                label: \"Blue Star\",\n                populationCap: 100000000,\n                populationGrowth: 2500,\n                range: 1734,\n                speed: 75,\n                defense: 200,\n                silverGrowth: 1667,\n                silverCap: 50000000,\n                barbarianPercentage: 5\n            })\n        );\n\n        planetDefaultStats.push(\n            PlanetDefaultStats({\n                label: \"Giant\",\n                populationCap: 300000000,\n                populationGrowth: 2917,\n                range: 2838,\n                speed: 75,\n                defense: 200,\n                silverGrowth: 2778,\n                silverCap: 100000000,\n                barbarianPercentage: 7\n            })\n        );\n\n        planetDefaultStats.push(\n            PlanetDefaultStats({\n                label: \"Supergiant\",\n                populationCap: 500000000,\n                populationGrowth: 3333,\n                range: 4414,\n                speed: 75,\n                defense: 200,\n                silverGrowth: 2778,\n                silverCap: 200000000,\n                barbarianPercentage: 10\n            })\n        );\n\n        planetDefaultStats.push(\n            PlanetDefaultStats({\n                label: \"Unlabeled1\",\n                populationCap: 700000000,\n                populationGrowth: 3750,\n                range: 6306,\n                speed: 75,\n                defense: 200,\n                silverGrowth: 2778,\n                silverCap: 300000000,\n                barbarianPercentage: 20\n            })\n        );\n\n        planetDefaultStats.push(\n            PlanetDefaultStats({\n                label: \"Unlabeled2\",\n                populationCap: 800000000,\n                populationGrowth: 4167,\n                range: 8829,\n                speed: 75,\n                defense: 200,\n                silverGrowth: 2778,\n                silverCap: 400000000,\n                barbarianPercentage: 25\n            })\n        );\n    }\n\n    function initializeUpgrades() public {\n        Upgrade[4][3] storage upgrades = upgrades();\n\n        // defense\n        upgrades[uint256(UpgradeBranch.DEFENSE)][0] = Upgrade({\n            popCapMultiplier: 120,\n            popGroMultiplier: 120,\n            rangeMultiplier: 100,\n            speedMultiplier: 100,\n            defMultiplier: 120\n        });\n        upgrades[uint256(UpgradeBranch.DEFENSE)][1] = Upgrade({\n            popCapMultiplier: 120,\n            popGroMultiplier: 120,\n            rangeMultiplier: 100,\n            speedMultiplier: 100,\n            defMultiplier: 120\n        });\n        upgrades[uint256(UpgradeBranch.DEFENSE)][2] = Upgrade({\n            popCapMultiplier: 120,\n            popGroMultiplier: 120,\n            rangeMultiplier: 100,\n            speedMultiplier: 100,\n            defMultiplier: 120\n        });\n        upgrades[uint256(UpgradeBranch.DEFENSE)][3] = Upgrade({\n            popCapMultiplier: 120,\n            popGroMultiplier: 120,\n            rangeMultiplier: 100,\n            speedMultiplier: 100,\n            defMultiplier: 120\n        });\n\n        // range\n        upgrades[uint256(UpgradeBranch.RANGE)][0] = Upgrade({\n            popCapMultiplier: 120,\n            popGroMultiplier: 120,\n            rangeMultiplier: 125,\n            speedMultiplier: 100,\n            defMultiplier: 100\n        });\n        upgrades[uint256(UpgradeBranch.RANGE)][1] = Upgrade({\n            popCapMultiplier: 120,\n            popGroMultiplier: 120,\n            rangeMultiplier: 125,\n            speedMultiplier: 100,\n            defMultiplier: 100\n        });\n        upgrades[uint256(UpgradeBranch.RANGE)][2] = Upgrade({\n            popCapMultiplier: 120,\n            popGroMultiplier: 120,\n            rangeMultiplier: 125,\n            speedMultiplier: 100,\n            defMultiplier: 100\n        });\n        upgrades[uint256(UpgradeBranch.RANGE)][3] = Upgrade({\n            popCapMultiplier: 120,\n            popGroMultiplier: 120,\n            rangeMultiplier: 125,\n            speedMultiplier: 100,\n            defMultiplier: 100\n        });\n\n        // speed\n        upgrades[uint256(UpgradeBranch.SPEED)][0] = Upgrade({\n            popCapMultiplier: 120,\n            popGroMultiplier: 120,\n            rangeMultiplier: 100,\n            speedMultiplier: 175,\n            defMultiplier: 100\n        });\n        upgrades[uint256(UpgradeBranch.SPEED)][1] = Upgrade({\n            popCapMultiplier: 120,\n            popGroMultiplier: 120,\n            rangeMultiplier: 100,\n            speedMultiplier: 175,\n            defMultiplier: 100\n        });\n        upgrades[uint256(UpgradeBranch.SPEED)][2] = Upgrade({\n            popCapMultiplier: 120,\n            popGroMultiplier: 120,\n            rangeMultiplier: 100,\n            speedMultiplier: 175,\n            defMultiplier: 100\n        });\n        upgrades[uint256(UpgradeBranch.SPEED)][3] = Upgrade({\n            popCapMultiplier: 120,\n            popGroMultiplier: 120,\n            rangeMultiplier: 100,\n            speedMultiplier: 175,\n            defMultiplier: 100\n        });\n    }\n}\n",
  "sourcePath": "/home/terra/opensource/tosca-chain/smart-contract-example/contracts/DFInitialize.sol",
  "compiler": {
    "name": "solc",
    "version": "0.8.13+commit.abaa5c0e.Emscripten.clang"
  },
  "schemaVersion": "3.4.7",
  "updatedAt": "2022-04-30T15:27:25.673Z",
  "devdoc": {
    "kind": "dev",
    "methods": {},
    "version": 1
  },
  "userdoc": {
    "kind": "user",
    "methods": {},
    "version": 1
  }
}