{
  "contractName": "Verifier",
  "abi": [
    {
      "inputs": [
        {
          "internalType": "uint256[2]",
          "name": "a",
          "type": "uint256[2]"
        },
        {
          "internalType": "uint256[2][2]",
          "name": "b",
          "type": "uint256[2][2]"
        },
        {
          "internalType": "uint256[2]",
          "name": "c",
          "type": "uint256[2]"
        },
        {
          "internalType": "uint256[8]",
          "name": "input",
          "type": "uint256[8]"
        }
      ],
      "name": "verifyInitProof",
      "outputs": [
        {
          "internalType": "bool",
          "name": "",
          "type": "bool"
        }
      ],
      "stateMutability": "view",
      "type": "function"
    },
    {
      "inputs": [
        {
          "internalType": "uint256[2]",
          "name": "a",
          "type": "uint256[2]"
        },
        {
          "internalType": "uint256[2][2]",
          "name": "b",
          "type": "uint256[2][2]"
        },
        {
          "internalType": "uint256[2]",
          "name": "c",
          "type": "uint256[2]"
        },
        {
          "internalType": "uint256[10]",
          "name": "input",
          "type": "uint256[10]"
        }
      ],
      "name": "verifyMoveProof",
      "outputs": [
        {
          "internalType": "bool",
          "name": "",
          "type": "bool"
        }
      ],
      "stateMutability": "view",
      "type": "function"
    },
    {
      "inputs": [
        {
          "internalType": "uint256[2]",
          "name": "a",
          "type": "uint256[2]"
        },
        {
          "internalType": "uint256[2][2]",
          "name": "b",
          "type": "uint256[2][2]"
        },
        {
          "internalType": "uint256[2]",
          "name": "c",
          "type": "uint256[2]"
        },
        {
          "internalType": "uint256[7]",
          "name": "input",
          "type": "uint256[7]"
        }
      ],
      "name": "verifyBiomebaseProof",
      "outputs": [
        {
          "internalType": "bool",
          "name": "",
          "type": "bool"
        }
      ],
      "stateMutability": "view",
      "type": "function"
    },
    {
      "inputs": [
        {
          "internalType": "uint256[2]",
          "name": "a",
          "type": "uint256[2]"
        },
        {
          "internalType": "uint256[2][2]",
          "name": "b",
          "type": "uint256[2][2]"
        },
        {
          "internalType": "uint256[2]",
          "name": "c",
          "type": "uint256[2]"
        },
        {
          "internalType": "uint256[9]",
          "name": "input",
          "type": "uint256[9]"
        }
      ],
      "name": "verifyRevealProof",
      "outputs": [
        {
          "internalType": "bool",
          "name": "",
          "type": "bool"
        }
      ],
      "stateMutability": "view",
      "type": "function"
    },
    {
      "inputs": [
        {
          "internalType": "uint256[2]",
          "name": "a",
          "type": "uint256[2]"
        },
        {
          "internalType": "uint256[2][2]",
          "name": "b",
          "type": "uint256[2][2]"
        },
        {
          "internalType": "uint256[2]",
          "name": "c",
          "type": "uint256[2]"
        },
        {
          "internalType": "uint256[2]",
          "name": "input",
          "type": "uint256[2]"
        }
      ],
      "name": "verifyWhitelistProof",
      "outputs": [
        {
          "internalType": "bool",
          "name": "",
          "type": "bool"
        }
      ],
      "stateMutability": "view",
      "type": "function"
    }
  ],
  "bytecode": "0x6140ce610053600b82828239805160001a607314610046577f4e487b7100000000000000000000000000000000000000000000000000000000600052600060045260246000fd5b30600052607381538281f3fe73000000000000000000000000000000000000000030146080604052600436106100615760003560e01c80633f1884bf146100665780634bdf7672146100965780637e0bb909146100c65780639e1f3678146100f6578063d20293f014610126575b600080fd5b610080600480360381019061007b919061370e565b610156565b60405161008d9190613792565b60405180910390f35b6100b060048036038101906100ab919061385e565b61021b565b6040516100bd9190613792565b60405180910390f35b6100e060048036038101906100db9190613978565b6102e0565b6040516100ed9190613792565b60405180910390f35b610110600480360381019061010b9190613a92565b6103a5565b60405161011d9190613792565b60405180910390f35b610140600480360381019061013b9190613bac565b61046a565b60405161014d9190613792565b60405180910390f35b600080600267ffffffffffffffff811115610174576101736134f6565b5b6040519080825280602002602001820160405280156101a25781602001602082028036833780820191505090505b50905060005b60028110156101fb578381600281106101c4576101c3613c15565b5b60200201518282815181106101dc576101db613c15565b5b60200260200101818152505080806101f390613c73565b9150506101a8565b506102108686868461020b61052f565b6109ab565b915050949350505050565b600080600867ffffffffffffffff811115610239576102386134f6565b5b6040519080825280602002602001820160405280156102675781602001602082028036833780820191505090505b50905060005b60088110156102c05783816008811061028957610288613c15565b5b60200201518282815181106102a1576102a0613c15565b5b60200260200101818152505080806102b890613c73565b91505061026d565b506102d5868686846102d0610b7f565b6109ab565b915050949350505050565b600080600a67ffffffffffffffff8111156102fe576102fd6134f6565b5b60405190808252806020026020018201604052801561032c5781602001602082028036833780820191505090505b50905060005b600a811015610385578381600a811061034e5761034d613c15565b5b602002015182828151811061036657610365613c15565b5b602002602001018181525050808061037d90613c73565b915050610332565b5061039a868686846103956112cb565b6109ab565b915050949350505050565b600080600767ffffffffffffffff8111156103c3576103c26134f6565b5b6040519080825280602002602001820160405280156103f15781602001602082028036833780820191505090505b50905060005b600781101561044a5783816007811061041357610412613c15565b5b602002015182828151811061042b5761042a613c15565b5b602002602001018181525050808061044290613c73565b9150506103f7565b5061045f8686868461045a611b07565b6109ab565b915050949350505050565b600080600967ffffffffffffffff811115610488576104876134f6565b5b6040519080825280602002602001820160405280156104b65781602001602082028036833780820191505090505b50905060005b600981101561050f578381600981106104d8576104d7613c15565b5b60200201518282815181106104f0576104ef613c15565b5b602002602001018181525050808061050790613c73565b9150506104bc565b506105248686868461051f6121db565b6109ab565b915050949350505050565b61053761338f565b60405180604001604052807f2b6d4650a4a9984dd255a254717ce985d4a2625229fa63ba1268f0c8f97af9eb81526020017f22f3991d50b793a3660fa6ad8ce156ac3eb478b77e8b0b74ffdf4be654c5610d8152508160000181905250604051806040016040528060405180604001604052807f0e27d2438600b41133385b48fc242556e81b44ab4d0ee9a3376da7315876c2ba81526020017f074f8374c9ddae90032fb99308af80e087027dac3ec8f203bd7ee80d8b54bb44815250815260200160405180604001604052807f218374fdb8b41d2b36cdf8b50c9a925631381f50fa6b9ad5d281a172ad21293181526020017f0b04b6269c1b07424f6a6985dfab0cefd704a35cae92e15048f533f4c5da412b8152508152508160200181905250604051806040016040528060405180604001604052807f198e9393920d483a7260bfb731fb5d25f1aa493335a9e71297e485b7aef312c281526020017f1800deef121f1e76426a00665e5c4479674322d4f75edadd46debd5cd992f6ed815250815260200160405180604001604052807f090689d0585ff075ec9e99ad690c3395bc4b313370b38ef355acdadcd122975b81526020017f12c85ea5db8c6deb4aab71808dcb408fe3d1e7690c43d37b4ce6cc0166fa7daa8152508152508160400181905250604051806040016040528060405180604001604052807f0d206813c50a0e753af4563bd09d1b95f33ee2719fb6561770b7fb467663adec81526020017f2ca4e78a6b0ba11fbe7ebd301d1f3bb1ec5355bf0cb0f3c20e150ca25c9f9c13815250815260200160405180604001604052807f2d58d395eac0727edd091e20d29ab069c777aa213107195e0e39e291a17f67d681526020017f0aab223e1aab70faa8d77f204c57a88a2363ba8e87c5a2ae1e0eb0846d67deb08152508152508160600181905250600367ffffffffffffffff8111156107fe576107fd6134f6565b5b60405190808252806020026020018201604052801561083757816020015b6108246133d6565b81526020019060019003908161081c5790505b50816080018190525060405180604001604052807f25c8a85f040c40225542d2ac42ffb36df95b4a746ca92a0cab1e2d7d33f11f1681526020017f214f0af6fc01d65edc5cab92e8a04201bc8c0f4a387719b50ee061d1fe3d131181525081608001516000815181106108ad576108ac613c15565b5b602002602001018190525060405180604001604052807f13b4ffed4bd84d53c7b55d6324b2e7ee0c1ca19fa26057e5942d9ed4f2abbd0b81526020017f2f4697758b94e62920b155cf9670dfaf7f2cac5733a082112652ce0b8605166d815250816080015160018151811061092557610924613c15565b5b602002602001018190525060405180604001604052807f0cc184fcf98414288232b8f0dbf396bc1579f25b6b958eee6c610095f47d7ba681526020017f2de8c986e4484e39aed1261da63819e07ef4b995e9ac9d9e889c387cb5e8fad2815250816080015160028151811061099d5761099c613c15565b5b602002602001018190525090565b60006109b56133f0565b6040518060400160405280886000600281106109d4576109d3613c15565b5b60200201518152602001886001600281106109f2576109f1613c15565b5b602002015181525081600001819052506040518060400160405280604051806040016040528089600060028110610a2c57610a2b613c15565b5b6020020151600060028110610a4457610a43613c15565b5b6020020151815260200189600060028110610a6257610a61613c15565b5b6020020151600160028110610a7a57610a79613c15565b5b60200201518152508152602001604051806040016040528089600160028110610aa657610aa5613c15565b5b6020020151600060028110610abe57610abd613c15565b5b6020020151815260200189600160028110610adc57610adb613c15565b5b6020020151600160028110610af457610af3613c15565b5b60200201518152508152508160200181905250604051806040016040528086600060028110610b2657610b25613c15565b5b6020020151815260200186600160028110610b4457610b43613c15565b5b602002015181525081604001819052506000610b6185838661299f565b03610b70576001915050610b76565b60009150505b95945050505050565b610b8761338f565b60405180604001604052807f2b6d4650a4a9984dd255a254717ce985d4a2625229fa63ba1268f0c8f97af9eb81526020017f22f3991d50b793a3660fa6ad8ce156ac3eb478b77e8b0b74ffdf4be654c5610d8152508160000181905250604051806040016040528060405180604001604052807f0e27d2438600b41133385b48fc242556e81b44ab4d0ee9a3376da7315876c2ba81526020017f074f8374c9ddae90032fb99308af80e087027dac3ec8f203bd7ee80d8b54bb44815250815260200160405180604001604052807f218374fdb8b41d2b36cdf8b50c9a925631381f50fa6b9ad5d281a172ad21293181526020017f0b04b6269c1b07424f6a6985dfab0cefd704a35cae92e15048f533f4c5da412b8152508152508160200181905250604051806040016040528060405180604001604052807f198e9393920d483a7260bfb731fb5d25f1aa493335a9e71297e485b7aef312c281526020017f1800deef121f1e76426a00665e5c4479674322d4f75edadd46debd5cd992f6ed815250815260200160405180604001604052807f090689d0585ff075ec9e99ad690c3395bc4b313370b38ef355acdadcd122975b81526020017f12c85ea5db8c6deb4aab71808dcb408fe3d1e7690c43d37b4ce6cc0166fa7daa8152508152508160400181905250604051806040016040528060405180604001604052807f20d7299d677d0c39cba46b3e050d3dae39d8d98735e7b4b9da6e59a67c35850781526020017f10b84fa2d4966aa15aea169b5879052c9061ebe3cf7e3ca395b0b68ab819e468815250815260200160405180604001604052807f093ab5fdfdc62110d3b5a3e0774d3bfd73c1cef24d9a3e61acd58f9ae993eada81526020017f0c660a42c720e4f0eab482398d88f8da2d419d5d6fcede10cda872bd338728ab8152508152508160600181905250600967ffffffffffffffff811115610e4e57610e4d6134f6565b5b604051908082528060200260200182016040528015610e8757816020015b610e746133d6565b815260200190600190039081610e6c5790505b50816080018190525060405180604001604052807f0388ca54a67949e3bf09e1c70542e9a3b0e78ccceb6063e28aa7fa445c570da481526020017f272c29cadc0dfc4ccf4500ed5b4f770790d2fc5af327463af138a1fa400303078152508160800151600081518110610efd57610efc613c15565b5b602002602001018190525060405180604001604052807f23429f1d9f76a5a47e2ea59a3749ef279202fe2523ee444bab2c537bad0d4db181526020017f1889de6784e2fdf88e27cad60434840b525941703d77f18a1934532ca4d5ed4e8152508160800151600181518110610f7557610f74613c15565b5b602002602001018190525060405180604001604052807f1d2703f852126d19c0bfd4dd55b4e8f7bd838caca9c75f38527898e0d083029b81526020017f1b558d2179f00baafcb1e03fbfcb3c947c4f8ad4a7201f48149b0473fac531e58152508160800151600281518110610fed57610fec613c15565b5b602002602001018190525060405180604001604052807f2a14d5a8358cf6de3a45743ea0ec9657ad7bc0c521bee6003b8c846b6cef010e81526020017f09120388b08bf15a84f8bf1a298e1075810b8598048255760d69961041bb3d5a815250816080015160038151811061106557611064613c15565b5b602002602001018190525060405180604001604052807f1b44f598fe1c422f7413ba1ba0a64f1be08c83279b9ffe550ebbb321ba7b257381526020017f2ec3c03b5e94169671306499f0bf903f1cf398f32d13a890c276936494d2656781525081608001516004815181106110dd576110dc613c15565b5b602002602001018190525060405180604001604052807f10116925c434ba6378a218606acf6040ce81ee638d4ceb7df7f0bad6f495d26181526020017f17e3cbd2194e473456f227ae217fa0e5c655ce25ce99bcef50c5b933c6ef4b28815250816080015160058151811061115557611154613c15565b5b602002602001018190525060405180604001604052807f01ac1b4053bbe9067aedca4c36798064ce5c234e44be5dffdaddf62f943d925781526020017f032af701208dfe664f64684f2f805114d62e201b8b988b6b7e3151d120b7862181525081608001516006815181106111cd576111cc613c15565b5b602002602001018190525060405180604001604052807f23dde3eb19b79c524fa0b7f9cd854ff9e280f9b26838d5e66701892231e9479d81526020017f0337ab483029702c371c93d2844f84581c44eeefae2e537ff2db99cdb7be9bb7815250816080015160078151811061124557611244613c15565b5b602002602001018190525060405180604001604052807f11d66a47b7d2ca0b7daaca5e97d8594b94c13420b656e65930f775ece2345eaa81526020017f09625aea293d0830a0f294f0de5b26e42635d80757542704670e729b321967a081525081608001516008815181106112bd576112bc613c15565b5b602002602001018190525090565b6112d361338f565b60405180604001604052807f2b6d4650a4a9984dd255a254717ce985d4a2625229fa63ba1268f0c8f97af9eb81526020017f22f3991d50b793a3660fa6ad8ce156ac3eb478b77e8b0b74ffdf4be654c5610d8152508160000181905250604051806040016040528060405180604001604052807f0e27d2438600b41133385b48fc242556e81b44ab4d0ee9a3376da7315876c2ba81526020017f074f8374c9ddae90032fb99308af80e087027dac3ec8f203bd7ee80d8b54bb44815250815260200160405180604001604052807f218374fdb8b41d2b36cdf8b50c9a925631381f50fa6b9ad5d281a172ad21293181526020017f0b04b6269c1b07424f6a6985dfab0cefd704a35cae92e15048f533f4c5da412b8152508152508160200181905250604051806040016040528060405180604001604052807f198e9393920d483a7260bfb731fb5d25f1aa493335a9e71297e485b7aef312c281526020017f1800deef121f1e76426a00665e5c4479674322d4f75edadd46debd5cd992f6ed815250815260200160405180604001604052807f090689d0585ff075ec9e99ad690c3395bc4b313370b38ef355acdadcd122975b81526020017f12c85ea5db8c6deb4aab71808dcb408fe3d1e7690c43d37b4ce6cc0166fa7daa8152508152508160400181905250604051806040016040528060405180604001604052807f1b7dc89303d503b0e35d27cd14e81c1c19768033bee9aee132479e1c39c85b1781526020017f1478b4f07990a285fea8032381c10bcd99ebfe08669885f0fc78a0703e20ac06815250815260200160405180604001604052807f23c7545ea32829be8fdb9faada02282929698411519d96ac5f0d2904fdd343cc81526020017f2774d08fc1e061d27c818f4e56f73f7bb68b812ab89acc8692c74f5b39a40edd8152508152508160600181905250600b67ffffffffffffffff81111561159a576115996134f6565b5b6040519080825280602002602001820160405280156115d357816020015b6115c06133d6565b8152602001906001900390816115b85790505b50816080018190525060405180604001604052807f11d47e60428f05dd9ded5ac5535f8627101f566da62e0b24714df1dd07d5be1781526020017f11779739c4bb18afe323805e3b0e95d5fdbcf51dfeda7b1270ebcf3bb59af90a815250816080015160008151811061164957611648613c15565b5b602002602001018190525060405180604001604052807f12ea8f1e0fddaa0f086daed75433279fc4c2744f790143d1df14ae453c1a640381526020017f206855a15d7843dd457eefdddd86870c8b493b689f67c912d97b4f8104a498a081525081608001516001815181106116c1576116c0613c15565b5b602002602001018190525060405180604001604052807f277c5ad18452d178016fa1c7532aef63439bcf81092732cdbfaab3c060fcd24381526020017f01f67e00e3a00bcf82be9245cb412c51e1aeba4a51ba90aea428100ab853055e815250816080015160028151811061173957611738613c15565b5b602002602001018190525060405180604001604052807f2d47546a9266edbe743a34cfc096ec8f95615265cebf1b7ab97f2be49883fdf581526020017f1591ec6c9f9327966eb86db9397c1c59acfc29c77c5eac48bfd787ad216e28ba81525081608001516003815181106117b1576117b0613c15565b5b602002602001018190525060405180604001604052807f0ae0addcedcbb3c5a1fc51176219c01366809ecd889192d3ea70a8414ce0391a81526020017f2a2640a7834fac092f197e4dd2efe1e173ce58137827e00bff5c09f39763106d815250816080015160048151811061182957611828613c15565b5b602002602001018190525060405180604001604052807f05fde9f18735f291b7cd5aef002d22ff39f6bb15f8c1fb63ec3d95cf6a81ae5581526020017f1522727134938300f80ecd622918f4c27e971a120d6eb0b2b4dd49960a5f049381525081608001516005815181106118a1576118a0613c15565b5b602002602001018190525060405180604001604052807f2312255829885cd3f9d723737ce28d9ce04be740548929b42cab022db12d690d81526020017f1f61e722ab99cc16f17e15cbb6d1a6cae3e377eb6370d11c9b2658acbec723e0815250816080015160068151811061191957611918613c15565b5b602002602001018190525060405180604001604052807f1b51064ae521a7e8d64c2273d40d7b36f08429065d5c7689c59d4a8a4b987ddf81526020017f1d4f6bedf9df78ca93f1e96a641b2b9e456fbaa41b4999d696b8341d12372c2d815250816080015160078151811061199157611990613c15565b5b602002602001018190525060405180604001604052807f2bd36eca424706673a8de53d8bc0319bf1de1a3df61349c6d223e9698d43b40381526020017f10083865852da5c9e0c890e591487f5e3af101f145dbbda0d77338925b720ad88152508160800151600881518110611a0957611a08613c15565b5b602002602001018190525060405180604001604052807f1b5cd7c42f8b90568767ded539758cc7f60fc2424ab7059d73a62c28d6ce057b81526020017f20f4fbec1cc4b98b6492ea78dee796cffbe83a8237217886ad6eb7e62ded0e0d8152508160800151600981518110611a8157611a80613c15565b5b602002602001018190525060405180604001604052807f158f0336387c47a7893edb8f36df3b71895fb0aa1bdad30e56c5c97a3b2f36f881526020017f1e0f7df5e42c1dc0bb7b8d4fa7dd385337e3d7a2259c2814771780d2020f3e9d8152508160800151600a81518110611af957611af8613c15565b5b602002602001018190525090565b611b0f61338f565b60405180604001604052807f2b6d4650a4a9984dd255a254717ce985d4a2625229fa63ba1268f0c8f97af9eb81526020017f22f3991d50b793a3660fa6ad8ce156ac3eb478b77e8b0b74ffdf4be654c5610d8152508160000181905250604051806040016040528060405180604001604052807f0e27d2438600b41133385b48fc242556e81b44ab4d0ee9a3376da7315876c2ba81526020017f074f8374c9ddae90032fb99308af80e087027dac3ec8f203bd7ee80d8b54bb44815250815260200160405180604001604052807f218374fdb8b41d2b36cdf8b50c9a925631381f50fa6b9ad5d281a172ad21293181526020017f0b04b6269c1b07424f6a6985dfab0cefd704a35cae92e15048f533f4c5da412b8152508152508160200181905250604051806040016040528060405180604001604052807f198e9393920d483a7260bfb731fb5d25f1aa493335a9e71297e485b7aef312c281526020017f1800deef121f1e76426a00665e5c4479674322d4f75edadd46debd5cd992f6ed815250815260200160405180604001604052807f090689d0585ff075ec9e99ad690c3395bc4b313370b38ef355acdadcd122975b81526020017f12c85ea5db8c6deb4aab71808dcb408fe3d1e7690c43d37b4ce6cc0166fa7daa8152508152508160400181905250604051806040016040528060405180604001604052807f05c50f5d5fa01e033770ee0e185e0c433731ff6bb1a9be94b80c9fc973ea98d281526020017f2a766f45937104754ca2ddda4ad7240a03a864237b477f48c92b15f3b0e6a467815250815260200160405180604001604052807f2757fe510917e05845c40eef120d62b0844b83715a11d81ac940caa2ba6a00b081526020017f0cc1b196e10d80ca4cbc7ed51fd111638ff036c9c1e121753bc0195416acaa038152508152508160600181905250600867ffffffffffffffff811115611dd657611dd56134f6565b5b604051908082528060200260200182016040528015611e0f57816020015b611dfc6133d6565b815260200190600190039081611df45790505b50816080018190525060405180604001604052807f1808b5f41df20927c2e31ab7872f05a9b53266bad9f243712d3f4215be2f525681526020017f154ea30d45f4d3126a44b202b19cad8a1f68d413f29065bef4b8c67dd63c962e8152508160800151600081518110611e8557611e84613c15565b5b602002602001018190525060405180604001604052807f2a502cf212d4d941315babb7360d776cb2593322938874c5dbab84fe85f1148781526020017f2c3b28608e9e74b2588f39dfc9db2527c5076823c12203f16729e91a7c2b6c0e8152508160800151600181518110611efd57611efc613c15565b5b602002602001018190525060405180604001604052807f2641b89d55b77cb9c44feb3d9b0b376f779fe5b76535c8fc161f0caccb10124281526020017f1792070f7968347285c7682ba26b4726d5d0c499a4736baadd2eb244f21b130c8152508160800151600281518110611f7557611f74613c15565b5b602002602001018190525060405180604001604052807f0b74b8557308f278537e62993c4c53d3485b55be9be63736bc4132e24351dd0481526020017f197aa6be4cd1b3c191015e5893ddb6a4d7c6de3cf68aea478528c6633c99e3158152508160800151600381518110611fed57611fec613c15565b5b602002602001018190525060405180604001604052807f2602de2dd9feec2a5153b85851dfbb3e74cf4682f7c14bbf061e3f096005039881526020017f02de82571291d19d0269986742bbbc511e36fba6fc56d52ccadce084583f5ca7815250816080015160048151811061206557612064613c15565b5b602002602001018190525060405180604001604052807f169a11d1a2bd71a1891881a5768581a529f6605066081ae173ce3d9fe2b6f46181526020017f2446b78dea65300a34fc32695ab92c358283307f92e8b26c64dbc646e4eff6c681525081608001516005815181106120dd576120dc613c15565b5b602002602001018190525060405180604001604052807f241aa1a116dd306e4b43d294554b53138717f5fa2c2ed7c430d5862775393afc81526020017f0292fbac9b1b7d4deee56b68c0c0f709699857f52d63cbf7944ffdbec62f9a94815250816080015160068151811061215557612154613c15565b5b602002602001018190525060405180604001604052807f2b63f37d9d18815cf257cbe860848fb9d8c8800839525f655f450c0ef34016bc81526020017f134a8855103f4fd8be2134eb5dbcd72b7f13c01f3fb52bd34f1b024d9d585eb081525081608001516007815181106121cd576121cc613c15565b5b602002602001018190525090565b6121e361338f565b60405180604001604052807f2b6d4650a4a9984dd255a254717ce985d4a2625229fa63ba1268f0c8f97af9eb81526020017f22f3991d50b793a3660fa6ad8ce156ac3eb478b77e8b0b74ffdf4be654c5610d8152508160000181905250604051806040016040528060405180604001604052807f0e27d2438600b41133385b48fc242556e81b44ab4d0ee9a3376da7315876c2ba81526020017f074f8374c9ddae90032fb99308af80e087027dac3ec8f203bd7ee80d8b54bb44815250815260200160405180604001604052807f218374fdb8b41d2b36cdf8b50c9a925631381f50fa6b9ad5d281a172ad21293181526020017f0b04b6269c1b07424f6a6985dfab0cefd704a35cae92e15048f533f4c5da412b8152508152508160200181905250604051806040016040528060405180604001604052807f198e9393920d483a7260bfb731fb5d25f1aa493335a9e71297e485b7aef312c281526020017f1800deef121f1e76426a00665e5c4479674322d4f75edadd46debd5cd992f6ed815250815260200160405180604001604052807f090689d0585ff075ec9e99ad690c3395bc4b313370b38ef355acdadcd122975b81526020017f12c85ea5db8c6deb4aab71808dcb408fe3d1e7690c43d37b4ce6cc0166fa7daa8152508152508160400181905250604051806040016040528060405180604001604052807f2e5c559a310fe035a724fb1ae65a78b2c673f775ef71300cf54d090ac088f47c81526020017f20b7a28189f2239810d5eb2cd12bd8f51bc63ea67d0067726b793f98dad742bf815250815260200160405180604001604052807f2c7f82d01b6195fc1570145a19e25106855fd7d339a64d630f34e00512f91e8081526020017f18f24668282dff5359f912c29a872bb3f1a68971232dfef3916f10fc5062c63f8152508152508160600181905250600a67ffffffffffffffff8111156124aa576124a96134f6565b5b6040519080825280602002602001820160405280156124e357816020015b6124d06133d6565b8152602001906001900390816124c85790505b50816080018190525060405180604001604052807f19899d303d827c8f12a78f7bc2883a76789e284208c6218ec2d902db68551cf381526020017f2b185f1114cd49324137ee1fcb0748c0c03989dac1abff6ad76aa7fe75f44180815250816080015160008151811061255957612558613c15565b5b602002602001018190525060405180604001604052807f08a8a5bf1a032da649db08a37f407d7d729eaa81f7752b1dae8d981f39e23fa181526020017f21df65e14aef96d66d4bf112a5cc7e1a8215779b52d82b7a36da0e565799d0f281525081608001516001815181106125d1576125d0613c15565b5b602002602001018190525060405180604001604052807f25f196889dafe31c85525f90cef40f60cb76a5b0135f4dbeeb5ad413782bb3c381526020017f2b02241b992b5e928404e8d922279ddbbf1f6057a96303fa9dcb8116948fffa4815250816080015160028151811061264957612648613c15565b5b602002602001018190525060405180604001604052807f27fec9a3c194a366871cddff8acd69cb3a6aa8a6e606adfeb4bd4d1260ee54d681526020017f2b2a6f0f39634df08de8e0edaf140e7005a24f1eaa378179fe1b6b7fa5b40c0581525081608001516003815181106126c1576126c0613c15565b5b602002602001018190525060405180604001604052807f01b276c6357a2e36e52d09e79982552f4b9c839ff7e3d19ea82c27d1372e1ac081526020017f13f3e6ede38daac488b7dace4af0793552c01c827becea9687e13ded4270897c815250816080015160048151811061273957612738613c15565b5b602002602001018190525060405180604001604052807f1ab995dd8fc57ef6564d6dac271db978a87ae8f4566f2f9ebf9b3d12ca4515ea81526020017f08ef020d7e9ec9354c7516aea67e035a77f265b1e5f2e66c053239b3c592311881525081608001516005815181106127b1576127b0613c15565b5b602002602001018190525060405180604001604052807f0525c3c825e2d08260555aeae1a49cec042f5e4375f88f005f6414f06028423b81526020017f2649cc8bcc11ff2a46cb2a72d020dfb126818ddb513df2cc6418cbcb8a04f5eb815250816080015160068151811061282957612828613c15565b5b602002602001018190525060405180604001604052807f012004f6b7b92e1ed30972863743c56ac2fd3c00eadf678ce73fcd212a1348af81526020017f2f71ca8c6cb3a27d44cc0cf45ade84d626bbd74ead1b0fb3d7f680e8523a2ef881525081608001516007815181106128a1576128a0613c15565b5b602002602001018190525060405180604001604052807f244432a1c6a6739fce0da1bc02e7418c979f028264552f5ef3d865fa253bb03481526020017f1b4bab00fae2e8034285256633e3345190ceab9864709103ff13b7399fedcb3b815250816080015160088151811061291957612918613c15565b5b602002602001018190525060405180604001604052807f1935a4349c5f10d45be415bea693945ec019a4f6f71f7f64c25ace95579b760881526020017f281478c698571e7d3bf4ae503a543ae774ce22b5286977d6f4ec413b1a6ad143815250816080015160098151811061299157612990613c15565b5b602002602001018190525090565b6000807f30644e72e131a029b85045b68181585d2833e84879b9709143e1f593f00000019050826080015151600186516129d99190613cbb565b14612a19576040517f08c379a0000000000000000000000000000000000000000000000000000000008152600401612a1090613d6e565b60405180910390fd5b60006040518060400160405280600081526020016000815250905060005b8651811015612b085782878281518110612a5457612a53613c15565b5b602002602001015110612a9c576040517f08c379a0000000000000000000000000000000000000000000000000000000008152600401612a9390613dda565b60405180910390fd5b612af382612aee8760800151600185612ab59190613cbb565b81518110612ac657612ac5613c15565b5b60200260200101518a8581518110612ae157612ae0613c15565b5b6020026020010151612b85565b612c5d565b91508080612b0090613c73565b915050612a37565b50612b32818560800151600081518110612b2557612b24613c15565b5b6020026020010151612c5d565b9050612b68612b448660000151612d5b565b8660200151866000015187602001518589604001518b604001518b60600151612e00565b612b7757600192505050612b7e565b6000925050505b9392505050565b612b8d6133d6565b612b95613423565b836000015181600060038110612bae57612bad613c15565b5b602002018181525050836020015181600160038110612bd057612bcf613c15565b5b6020020181815250508281600260038110612bee57612bed613c15565b5b602002018181525050600060608360808460076107d05a03fa90508060008103612c1457fe5b5080612c55576040517f08c379a0000000000000000000000000000000000000000000000000000000008152600401612c4c90613e46565b60405180910390fd5b505092915050565b612c656133d6565b612c6d613445565b836000015181600060048110612c8657612c85613c15565b5b602002018181525050836020015181600160048110612ca857612ca7613c15565b5b602002018181525050826000015181600260048110612cca57612cc9613c15565b5b602002018181525050826020015181600360048110612cec57612ceb613c15565b5b602002018181525050600060608360c08460066107d05a03fa90508060008103612d1257fe5b5080612d53576040517f08c379a0000000000000000000000000000000000000000000000000000000008152600401612d4a90613eb2565b60405180910390fd5b505092915050565b612d636133d6565b60007f30644e72e131a029b85045b68181585d97816a916871ca8d3c208c16d87cfd47905060008360000151148015612da0575060008360200151145b15612dc4576040518060400160405280600081526020016000815250915050612dfb565b604051806040016040528084600001518152602001828560200151612de99190613f01565b83612df49190613f32565b8152509150505b919050565b600080600467ffffffffffffffff811115612e1e57612e1d6134f6565b5b604051908082528060200260200182016040528015612e5757816020015b612e446133d6565b815260200190600190039081612e3c5790505b5090506000600467ffffffffffffffff811115612e7757612e766134f6565b5b604051908082528060200260200182016040528015612eb057816020015b612e9d613467565b815260200190600190039081612e955790505b5090508a82600081518110612ec857612ec7613c15565b5b60200260200101819052508882600181518110612ee857612ee7613c15565b5b60200260200101819052508682600281518110612f0857612f07613c15565b5b60200260200101819052508482600381518110612f2857612f27613c15565b5b60200260200101819052508981600081518110612f4857612f47613c15565b5b60200260200101819052508781600181518110612f6857612f67613c15565b5b60200260200101819052508581600281518110612f8857612f87613c15565b5b60200260200101819052508381600381518110612fa857612fa7613c15565b5b6020026020010181905250612fbd8282612fcd565b9250505098975050505050505050565b60008151835114613013576040517f08c379a000000000000000000000000000000000000000000000000000000000815260040161300a90613fb2565b60405180910390fd5b60008351905060006006826130289190613fd2565b905060008167ffffffffffffffff811115613046576130456134f6565b5b6040519080825280602002602001820160405280156130745781602001602082028036833780820191505090505b50905060005b838110156132f95786818151811061309557613094613c15565b5b6020026020010151600001518260006006846130b19190613fd2565b6130bb9190613cbb565b815181106130cc576130cb613c15565b5b6020026020010181815250508681815181106130eb576130ea613c15565b5b6020026020010151602001518260016006846131079190613fd2565b6131119190613cbb565b8151811061312257613121613c15565b5b60200260200101818152505085818151811061314157613140613c15565b5b6020026020010151600001516000600281106131605761315f613c15565b5b60200201518260026006846131759190613fd2565b61317f9190613cbb565b815181106131905761318f613c15565b5b6020026020010181815250508581815181106131af576131ae613c15565b5b6020026020010151600001516001600281106131ce576131cd613c15565b5b60200201518260036006846131e39190613fd2565b6131ed9190613cbb565b815181106131fe576131fd613c15565b5b60200260200101818152505085818151811061321d5761321c613c15565b5b60200260200101516020015160006002811061323c5761323b613c15565b5b60200201518260046006846132519190613fd2565b61325b9190613cbb565b8151811061326c5761326b613c15565b5b60200260200101818152505085818151811061328b5761328a613c15565b5b6020026020010151602001516001600281106132aa576132a9613c15565b5b60200201518260056006846132bf9190613fd2565b6132c99190613cbb565b815181106132da576132d9613c15565b5b60200260200101818152505080806132f190613c73565b91505061307a565b5061330261348d565b6000602082602086026020860160086107d05a03fa9050806000810361332457fe5b5080613365576040517f08c379a000000000000000000000000000000000000000000000000000000000815260040161335c90614078565b60405180910390fd5b60008260006001811061337b5761337a613c15565b5b602002015114159550505050505092915050565b6040518060a001604052806133a26133d6565b81526020016133af613467565b81526020016133bc613467565b81526020016133c9613467565b8152602001606081525090565b604051806040016040528060008152602001600081525090565b60405180606001604052806134036133d6565b8152602001613410613467565b815260200161341d6133d6565b81525090565b6040518060600160405280600390602082028036833780820191505090505090565b6040518060800160405280600490602082028036833780820191505090505090565b604051806040016040528061347a6134af565b81526020016134876134af565b81525090565b6040518060200160405280600190602082028036833780820191505090505090565b6040518060400160405280600290602082028036833780820191505090505090565b6000604051905090565b600080fd5b600080fd5b6000601f19601f8301169050919050565b7f4e487b7100000000000000000000000000000000000000000000000000000000600052604160045260246000fd5b61352e826134e5565b810181811067ffffffffffffffff8211171561354d5761354c6134f6565b5b80604052505050565b60006135606134d1565b905061356c8282613525565b919050565b600067ffffffffffffffff82111561358c5761358b6134f6565b5b602082029050919050565b600080fd5b6000819050919050565b6135af8161359c565b81146135ba57600080fd5b50565b6000813590506135cc816135a6565b92915050565b60006135e56135e084613571565b613556565b905080602084028301858111156135ff576135fe613597565b5b835b81811015613628578061361488826135bd565b845260208401935050602081019050613601565b5050509392505050565b600082601f830112613647576136466134e0565b5b60026136548482856135d2565b91505092915050565b600067ffffffffffffffff821115613678576136776134f6565b5b602082029050919050565b60006136966136918461365d565b613556565b905080604084028301858111156136b0576136af613597565b5b835b818110156136d957806136c58882613632565b8452602084019350506040810190506136b2565b5050509392505050565b600082601f8301126136f8576136f76134e0565b5b6002613705848285613683565b91505092915050565b6000806000806101408587031215613729576137286134db565b5b600061373787828801613632565b9450506040613748878288016136e3565b93505060c061375987828801613632565b92505061010061376b87828801613632565b91505092959194509250565b60008115159050919050565b61378c81613777565b82525050565b60006020820190506137a76000830184613783565b92915050565b600067ffffffffffffffff8211156137c8576137c76134f6565b5b602082029050919050565b60006137e66137e1846137ad565b613556565b90508060208402830185811115613800576137ff613597565b5b835b81811015613829578061381588826135bd565b845260208401935050602081019050613802565b5050509392505050565b600082601f830112613848576138476134e0565b5b60086138558482856137d3565b91505092915050565b6000806000806102008587031215613879576138786134db565b5b600061388787828801613632565b9450506040613898878288016136e3565b93505060c06138a987828801613632565b9250506101006138bb87828801613833565b91505092959194509250565b600067ffffffffffffffff8211156138e2576138e16134f6565b5b602082029050919050565b60006139006138fb846138c7565b613556565b9050806020840283018581111561391a57613919613597565b5b835b81811015613943578061392f88826135bd565b84526020840193505060208101905061391c565b5050509392505050565b600082601f830112613962576139616134e0565b5b600a61396f8482856138ed565b91505092915050565b6000806000806102408587031215613993576139926134db565b5b60006139a187828801613632565b94505060406139b2878288016136e3565b93505060c06139c387828801613632565b9250506101006139d58782880161394d565b91505092959194509250565b600067ffffffffffffffff8211156139fc576139fb6134f6565b5b602082029050919050565b6000613a1a613a15846139e1565b613556565b90508060208402830185811115613a3457613a33613597565b5b835b81811015613a5d5780613a4988826135bd565b845260208401935050602081019050613a36565b5050509392505050565b600082601f830112613a7c57613a7b6134e0565b5b6007613a89848285613a07565b91505092915050565b6000806000806101e08587031215613aad57613aac6134db565b5b6000613abb87828801613632565b9450506040613acc878288016136e3565b93505060c0613add87828801613632565b925050610100613aef87828801613a67565b91505092959194509250565b600067ffffffffffffffff821115613b1657613b156134f6565b5b602082029050919050565b6000613b34613b2f84613afb565b613556565b90508060208402830185811115613b4e57613b4d613597565b5b835b81811015613b775780613b6388826135bd565b845260208401935050602081019050613b50565b5050509392505050565b600082601f830112613b9657613b956134e0565b5b6009613ba3848285613b21565b91505092915050565b6000806000806102208587031215613bc757613bc66134db565b5b6000613bd587828801613632565b9450506040613be6878288016136e3565b93505060c0613bf787828801613632565b925050610100613c0987828801613b81565b91505092959194509250565b7f4e487b7100000000000000000000000000000000000000000000000000000000600052603260045260246000fd5b7f4e487b7100000000000000000000000000000000000000000000000000000000600052601160045260246000fd5b6000613c7e8261359c565b91507fffffffffffffffffffffffffffffffffffffffffffffffffffffffffffffffff8203613cb057613caf613c44565b5b600182019050919050565b6000613cc68261359c565b9150613cd18361359c565b9250827fffffffffffffffffffffffffffffffffffffffffffffffffffffffffffffffff03821115613d0657613d05613c44565b5b828201905092915050565b600082825260208201905092915050565b7f76657269666965722d6261642d696e7075740000000000000000000000000000600082015250565b6000613d58601283613d11565b9150613d6382613d22565b602082019050919050565b60006020820190508181036000830152613d8781613d4b565b9050919050565b7f76657269666965722d6774652d736e61726b2d7363616c61722d6669656c6400600082015250565b6000613dc4601f83613d11565b9150613dcf82613d8e565b602082019050919050565b60006020820190508181036000830152613df381613db7565b9050919050565b7f70616972696e672d6d756c2d6661696c65640000000000000000000000000000600082015250565b6000613e30601283613d11565b9150613e3b82613dfa565b602082019050919050565b60006020820190508181036000830152613e5f81613e23565b9050919050565b7f70616972696e672d6164642d6661696c65640000000000000000000000000000600082015250565b6000613e9c601283613d11565b9150613ea782613e66565b602082019050919050565b60006020820190508181036000830152613ecb81613e8f565b9050919050565b7f4e487b7100000000000000000000000000000000000000000000000000000000600052601260045260246000fd5b6000613f0c8261359c565b9150613f178361359c565b925082613f2757613f26613ed2565b5b828206905092915050565b6000613f3d8261359c565b9150613f488361359c565b925082821015613f5b57613f5a613c44565b5b828203905092915050565b7f70616972696e672d6c656e677468732d6661696c656400000000000000000000600082015250565b6000613f9c601683613d11565b9150613fa782613f66565b602082019050919050565b60006020820190508181036000830152613fcb81613f8f565b9050919050565b6000613fdd8261359c565b9150613fe88361359c565b9250817fffffffffffffffffffffffffffffffffffffffffffffffffffffffffffffffff048311821515161561402157614020613c44565b5b828202905092915050565b7f70616972696e672d6f70636f64652d6661696c65640000000000000000000000600082015250565b6000614062601583613d11565b915061406d8261402c565b602082019050919050565b6000602082019050818103600083015261409181614055565b905091905056fea2646970667358221220b2db008f230ece550b1d6f9dc15fe8188ed0f3a4288f49a7c800f90be7dd02ff64736f6c634300080d0033",
  "immutableReferences": {},
  "source": "// SPDX-License-Identifier: MIT\n// THIS FILE IS GENERATED BY HARDHAT-CIRCOM. DO NOT EDIT THIS FILE.\n\n//\n// Copyright 2017 Christian Reitwiessner\n// Permission is hereby granted, free of charge, to any person obtaining a copy of this software and associated documentation files (the \"Software\"), to deal in the Software without restriction, including without limitation the rights to use, copy, modify, merge, publish, distribute, sublicense, and/or sell copies of the Software, and to permit persons to whom the Software is furnished to do so, subject to the following conditions:\n// The above copyright notice and this permission notice shall be included in all copies or substantial portions of the Software.\n// THE SOFTWARE IS PROVIDED \"AS IS\", WITHOUT WARRANTY OF ANY KIND, EXPRESS OR IMPLIED, INCLUDING BUT NOT LIMITED TO THE WARRANTIES OF MERCHANTABILITY, FITNESS FOR A PARTICULAR PURPOSE AND NONINFRINGEMENT. IN NO EVENT SHALL THE AUTHORS OR COPYRIGHT HOLDERS BE LIABLE FOR ANY CLAIM, DAMAGES OR OTHER LIABILITY, WHETHER IN AN ACTION OF CONTRACT, TORT OR OTHERWISE, ARISING FROM, OUT OF OR IN CONNECTION WITH THE SOFTWARE OR THE USE OR OTHER DEALINGS IN THE SOFTWARE.\n//\n// 2019 OKIMS\n//      ported to solidity 0.5\n//      fixed linter warnings\n//      added requiere error messages\n//\npragma solidity ^0.8.0;\n\nlibrary Pairing {\n    struct G1Point {\n        uint256 X;\n        uint256 Y;\n    }\n    // Encoding of field elements is: X[0] * z + X[1]\n    struct G2Point {\n        uint256[2] X;\n        uint256[2] Y;\n    }\n\n    /// @return the generator of G1\n    function P1() internal pure returns (G1Point memory) {\n        return G1Point(1, 2);\n    }\n\n    /// @return the generator of G2\n    function P2() internal pure returns (G2Point memory) {\n        // Original code point\n        return\n            G2Point(\n                [\n                    11559732032986387107991004021392285783925812861821192530917403151452391805634,\n                    10857046999023057135944570762232829481370756359578518086990519993285655852781\n                ],\n                [\n                    4082367875863433681332203403145435568316851327593401208105741076214120093531,\n                    8495653923123431417604973247489272438418190587263600148770280649306958101930\n                ]\n            );\n\n        /*\n        // Changed by Jordi point\n        return G2Point(\n            [10857046999023057135944570762232829481370756359578518086990519993285655852781,\n             11559732032986387107991004021392285783925812861821192530917403151452391805634],\n            [8495653923123431417604973247489272438418190587263600148770280649306958101930,\n             4082367875863433681332203403145435568316851327593401208105741076214120093531]\n        );\n*/\n    }\n\n    /// @return r the negation of p, i.e. p.addition(p.negate()) should be zero.\n    function negate(G1Point memory p) internal pure returns (G1Point memory r) {\n        // The prime q in the base field F_q for G1\n\n\n            uint256 q\n         = 21888242871839275222246405745257275088696311157297823662689037894645226208583;\n        if (p.X == 0 && p.Y == 0) return G1Point(0, 0);\n        return G1Point(p.X, q - (p.Y % q));\n    }\n\n    /// @return r the sum of two points of G1\n    function addition(G1Point memory p1, G1Point memory p2)\n        internal\n        view\n        returns (G1Point memory r)\n    {\n        uint256[4] memory input;\n        input[0] = p1.X;\n        input[1] = p1.Y;\n        input[2] = p2.X;\n        input[3] = p2.Y;\n        bool success;\n        // solium-disable-next-line security/no-inline-assembly\n        assembly {\n            success := staticcall(sub(gas(), 2000), 6, input, 0xc0, r, 0x60)\n            // Use \"invalid\" to make gas estimation work\n            switch success\n                case 0 {\n                    invalid()\n                }\n        }\n        require(success, \"pairing-add-failed\");\n    }\n\n    /// @return r the product of a point on G1 and a scalar, i.e.\n    /// p == p.scalar_mul(1) and p.addition(p) == p.scalar_mul(2) for all points p.\n    function scalar_mul(G1Point memory p, uint256 s)\n        internal\n        view\n        returns (G1Point memory r)\n    {\n        uint256[3] memory input;\n        input[0] = p.X;\n        input[1] = p.Y;\n        input[2] = s;\n        bool success;\n        // solium-disable-next-line security/no-inline-assembly\n        assembly {\n            success := staticcall(sub(gas(), 2000), 7, input, 0x80, r, 0x60)\n            // Use \"invalid\" to make gas estimation work\n            switch success\n                case 0 {\n                    invalid()\n                }\n        }\n        require(success, \"pairing-mul-failed\");\n    }\n\n    /// @return the result of computing the pairing check\n    /// e(p1[0], p2[0]) *  .... * e(p1[n], p2[n]) == 1\n    /// For example pairing([P1(), P1().negate()], [P2(), P2()]) should\n    /// return true.\n    function pairing(G1Point[] memory p1, G2Point[] memory p2)\n        internal\n        view\n        returns (bool)\n    {\n        require(p1.length == p2.length, \"pairing-lengths-failed\");\n        uint256 elements = p1.length;\n        uint256 inputSize = elements * 6;\n        uint256[] memory input = new uint256[](inputSize);\n        for (uint256 i = 0; i < elements; i++) {\n            input[i * 6 + 0] = p1[i].X;\n            input[i * 6 + 1] = p1[i].Y;\n            input[i * 6 + 2] = p2[i].X[0];\n            input[i * 6 + 3] = p2[i].X[1];\n            input[i * 6 + 4] = p2[i].Y[0];\n            input[i * 6 + 5] = p2[i].Y[1];\n        }\n        uint256[1] memory out;\n        bool success;\n        // solium-disable-next-line security/no-inline-assembly\n        assembly {\n            success := staticcall(\n                sub(gas(), 2000),\n                8,\n                add(input, 0x20),\n                mul(inputSize, 0x20),\n                out,\n                0x20\n            )\n            // Use \"invalid\" to make gas estimation work\n            switch success\n                case 0 {\n                    invalid()\n                }\n        }\n        require(success, \"pairing-opcode-failed\");\n        return out[0] != 0;\n    }\n\n    /// Convenience method for a pairing check for two pairs.\n    function pairingProd2(\n        G1Point memory a1,\n        G2Point memory a2,\n        G1Point memory b1,\n        G2Point memory b2\n    ) internal view returns (bool) {\n        G1Point[] memory p1 = new G1Point[](2);\n        G2Point[] memory p2 = new G2Point[](2);\n        p1[0] = a1;\n        p1[1] = b1;\n        p2[0] = a2;\n        p2[1] = b2;\n        return pairing(p1, p2);\n    }\n\n    /// Convenience method for a pairing check for three pairs.\n    function pairingProd3(\n        G1Point memory a1,\n        G2Point memory a2,\n        G1Point memory b1,\n        G2Point memory b2,\n        G1Point memory c1,\n        G2Point memory c2\n    ) internal view returns (bool) {\n        G1Point[] memory p1 = new G1Point[](3);\n        G2Point[] memory p2 = new G2Point[](3);\n        p1[0] = a1;\n        p1[1] = b1;\n        p1[2] = c1;\n        p2[0] = a2;\n        p2[1] = b2;\n        p2[2] = c2;\n        return pairing(p1, p2);\n    }\n\n    /// Convenience method for a pairing check for four pairs.\n    function pairingProd4(\n        G1Point memory a1,\n        G2Point memory a2,\n        G1Point memory b1,\n        G2Point memory b2,\n        G1Point memory c1,\n        G2Point memory c2,\n        G1Point memory d1,\n        G2Point memory d2\n    ) internal view returns (bool) {\n        G1Point[] memory p1 = new G1Point[](4);\n        G2Point[] memory p2 = new G2Point[](4);\n        p1[0] = a1;\n        p1[1] = b1;\n        p1[2] = c1;\n        p1[3] = d1;\n        p2[0] = a2;\n        p2[1] = b2;\n        p2[2] = c2;\n        p2[3] = d2;\n        return pairing(p1, p2);\n    }\n}\n\nlibrary Verifier {\n    using Pairing for *;\n    struct VerifyingKey {\n        Pairing.G1Point alfa1;\n        Pairing.G2Point beta2;\n        Pairing.G2Point gamma2;\n        Pairing.G2Point delta2;\n        Pairing.G1Point[] IC;\n    }\n    struct Proof {\n        Pairing.G1Point A;\n        Pairing.G2Point B;\n        Pairing.G1Point C;\n    }\n\n    function verify(\n        uint256[] memory input,\n        Proof memory proof,\n        VerifyingKey memory vk\n    ) internal view returns (uint256) {\n        uint256 snark_scalar_field = 21888242871839275222246405745257275088548364400416034343698204186575808495617;\n        require(input.length + 1 == vk.IC.length, \"verifier-bad-input\");\n        // Compute the linear combination vk_x\n        Pairing.G1Point memory vk_x = Pairing.G1Point(0, 0);\n        for (uint256 i = 0; i < input.length; i++) {\n            require(input[i] < snark_scalar_field, \"verifier-gte-snark-scalar-field\");\n            vk_x = Pairing.addition(vk_x, Pairing.scalar_mul(vk.IC[i + 1], input[i]));\n        }\n        vk_x = Pairing.addition(vk_x, vk.IC[0]);\n        if (\n            !Pairing.pairingProd4(\n                Pairing.negate(proof.A),\n                proof.B,\n                vk.alfa1,\n                vk.beta2,\n                vk_x,\n                vk.gamma2,\n                proof.C,\n                vk.delta2\n            )\n        ) return 1;\n        return 0;\n    }\n\n    function verifyProof(\n        uint256[2] memory a,\n        uint256[2][2] memory b,\n        uint256[2] memory c,\n        uint256[] memory input,\n        VerifyingKey memory vk\n    ) internal view returns (bool) {\n        Proof memory proof;\n        proof.A = Pairing.G1Point(a[0], a[1]);\n        proof.B = Pairing.G2Point([b[0][0], b[0][1]], [b[1][0], b[1][1]]);\n        proof.C = Pairing.G1Point(c[0], c[1]);\n        if (verify(input, proof, vk) == 0) {\n            return true;\n        } else {\n            return false;\n        }\n    }\n\n   \n      function initVerifyingKey() internal pure returns (VerifyingKey memory vk) {\n        vk.alfa1 = Pairing.G1Point(19642524115522290447760970021746675789341356000653265441069630957431566301675,15809037446102219312954435152879098683824559980020626143453387822004586242317);\n        vk.beta2 = Pairing.G2Point([6402738102853475583969787773506197858266321704623454181848954418090577674938,3306678135584565297353192801602995509515651571902196852074598261262327790404], [15158588411628049902562758796812667714664232742372443470614751812018801551665,4983765881427969364617654516554524254158908221590807345159959200407712579883]);\n        vk.gamma2 = Pairing.G2Point([11559732032986387107991004021392285783925812861821192530917403151452391805634,10857046999023057135944570762232829481370756359578518086990519993285655852781], [4082367875863433681332203403145435568316851327593401208105741076214120093531,8495653923123431417604973247489272438418190587263600148770280649306958101930]);\n        vk.delta2 = Pairing.G2Point([14854170488802329919894816340205521555277266612840771752946805762587272512775,7562655065112325066468321826060607712012450785218005273666303195841270768744], [4174548830687335069945701300213647521130540243497746785422711667615568489178,5608043401397217772312397009473511147026524434002367118511879223448099563691]);\n        vk.IC = new Pairing.G1Point[](9);\n      vk.IC[0] = Pairing.G1Point(1598626181488966834385142702072340632701729613588553898141479831063364046244,17718230806281540722028825298558518558905695159801697318226319873036301566727);\n        vk.IC[1] = Pairing.G1Point(15948659782990752942887133907536447435191600109534617758082114399428869442993,11099101392431127819059666871299914860584228203768799086923186847076507315534);\n        vk.IC[2] = Pairing.G1Point(13186007044390084081960383089914876934734527345381844648722866901270835430043,12363602961009028954516007109103956695133402002489551690760572271217053348325);\n        vk.IC[3] = Pairing.G1Point(19033951188675203289309544100203877456200968413799602644605085592542868603150,4102643274799727974772046308975344678795771407725941358248723363344896703834);\n        vk.IC[4] = Pairing.G1Point(12334287564680926687012264573398090483137523358397833233474322750256715605363,21152252948357751342019470982759350534775883984606520773786839787341259892071);\n        vk.IC[5] = Pairing.G1Point(7267767678980834682497060995607083951430815719518946230330975730812172227169,10805676519882027813209103871655027576122630931197256609570718268993985006376);\n        vk.IC[6] = Pairing.G1Point(756398625131320539711001637394523340428095665700281242919581685489287926359,1432850884206501416882319922791827723541173896617346816668465291785770862113);\n        vk.IC[7] = Pairing.G1Point(16222995936446875092505443491296436794133479486403641167081751292555012163485,1455297279126108200908824339804743093067568793093720522966758475516874759095);\n        vk.IC[8] = Pairing.G1Point(8068157216405939054553967344367105009755284398919359918024675691332040416938,4244594119739321487311315399210137890665530536229170011371323025231638521760);\n\n      }\n\n      function verifyInitProof(\n          uint256[2] memory a,\n          uint256[2][2] memory b,\n          uint256[2] memory c,\n          uint256[8] memory input\n      ) public view returns (bool) {\n          uint256[] memory inputValues = new uint256[](input.length);\n          for (uint256 i = 0; i < input.length; i++) {\n              inputValues[i] = input[i];\n          }\n          return verifyProof(a, b, c, inputValues, initVerifyingKey());\n      }\n      function moveVerifyingKey() internal pure returns (VerifyingKey memory vk) {\n        vk.alfa1 = Pairing.G1Point(19642524115522290447760970021746675789341356000653265441069630957431566301675,15809037446102219312954435152879098683824559980020626143453387822004586242317);\n        vk.beta2 = Pairing.G2Point([6402738102853475583969787773506197858266321704623454181848954418090577674938,3306678135584565297353192801602995509515651571902196852074598261262327790404], [15158588411628049902562758796812667714664232742372443470614751812018801551665,4983765881427969364617654516554524254158908221590807345159959200407712579883]);\n        vk.gamma2 = Pairing.G2Point([11559732032986387107991004021392285783925812861821192530917403151452391805634,10857046999023057135944570762232829481370756359578518086990519993285655852781], [4082367875863433681332203403145435568316851327593401208105741076214120093531,8495653923123431417604973247489272438418190587263600148770280649306958101930]);\n        vk.delta2 = Pairing.G2Point([12434687107630574635021211592932468159986461269501264710178717401526133349143,9259527416970642925672605906435207212097305658129632210481027906881724656646], [16183134564415764862356270430628358602983455736494946416746716156602883457996,17846594793191765310076644463946242533903432386066904362358136253102223003357]);\n        vk.IC = new Pairing.G1Point[](11);\n      vk.IC[0] = Pairing.G1Point(8064762218852569201567881964383943798459495726719027677362252047739918859799,7900616947757657915952559120299591540890558187181385348721244953936618256650);\n        vk.IC[1] = Pairing.G1Point(8556061247853799764634192973076319682650251342352400906905937103291527357443,14658354248235884323085911603049897836973206477075352139978086840326273931424);\n        vk.IC[2] = Pairing.G1Point(17859916936515265335665861239335540034160519722450106790172327819443059872323,887826870530173914427751657299151774196033762816491525136545007145340568926);\n        vk.IC[3] = Pairing.G1Point(20480106947711666879162709980765686932799761697412328231110658390006031449589,9756394385258732791598308246755395469377557064201571467274655910588895340730);\n        vk.IC[4] = Pairing.G1Point(4920102186692094878438825623968860098890598245449368669673372486269459773722,19064726056864740301023513435300567217472123513488342338512944460273092333677);\n        vk.IC[5] = Pairing.G1Point(2710191168790564266250862437568608379965847950984011796794300792128355282517,9559432471545488709552389879449039526790449084859805909849351831418702857363);\n        vk.IC[6] = Pairing.G1Point(15863010689044372753369654039557465991259250089404834292562672178657185589517,14194677709480727006918740702454693746396393844975363928914663696735880553440);\n        vk.IC[7] = Pairing.G1Point(12355604953639735754199115377283941566613544987054244210572452424590105804255,13257398429713375938599226411949469758520327298014602723461184149158519843885);\n        vk.IC[8] = Pairing.G1Point(19823021864735896765663587782696161388753703706877727087982947235869973787651,7251529588625836072570963920695211136351570639519609633567150728437157726936);\n        vk.IC[9] = Pairing.G1Point(12376486006329001511159475325073583673646312685115429372098631204796250326395,14906860542380580131976069450603815490994525690929161283305559525679006813709);\n        vk.IC[10] = Pairing.G1Point(9751251117536677631754672955896710354789606269079338288549961699864225986296,13596757510979300550089102433189162533782862372326519893759974814026799464093);\n\n      }\n\n      function verifyMoveProof(\n          uint256[2] memory a,\n          uint256[2][2] memory b,\n          uint256[2] memory c,\n          uint256[10] memory input\n      ) public view returns (bool) {\n          uint256[] memory inputValues = new uint256[](input.length);\n          for (uint256 i = 0; i < input.length; i++) {\n              inputValues[i] = input[i];\n          }\n          return verifyProof(a, b, c, inputValues, moveVerifyingKey());\n      }\n      function biomebaseVerifyingKey() internal pure returns (VerifyingKey memory vk) {\n        vk.alfa1 = Pairing.G1Point(19642524115522290447760970021746675789341356000653265441069630957431566301675,15809037446102219312954435152879098683824559980020626143453387822004586242317);\n        vk.beta2 = Pairing.G2Point([6402738102853475583969787773506197858266321704623454181848954418090577674938,3306678135584565297353192801602995509515651571902196852074598261262327790404], [15158588411628049902562758796812667714664232742372443470614751812018801551665,4983765881427969364617654516554524254158908221590807345159959200407712579883]);\n        vk.gamma2 = Pairing.G2Point([11559732032986387107991004021392285783925812861821192530917403151452391805634,10857046999023057135944570762232829481370756359578518086990519993285655852781], [4082367875863433681332203403145435568316851327593401208105741076214120093531,8495653923123431417604973247489272438418190587263600148770280649306958101930]);\n        vk.delta2 = Pairing.G2Point([2609739158218451677398669399544286597723402642456942683959502381312098605266,19206395563749250991619419614483299171230611246687272846534578171084139832423], [17795672017668506210076353003787823019780829036247644477846961740758725034160,5769981343297627311638256971275257212639347307302770919330441902980693010947]);\n        vk.IC = new Pairing.G1Point[](8);\n      vk.IC[0] = Pairing.G1Point(10870898939986000468532157640231430092356116495039287249548370970435589722710,9637509233802404751050875244565641105864732921095328155747707264762895963694);\n        vk.IC[1] = Pairing.G1Point(19138797608808993399657283067430257583053688297164578482098293101955262780551,20006287987513927804142618424385437530171110155612987617518879163008364014606);\n        vk.IC[2] = Pairing.G1Point(17304007468441180997716244116520857563533809761218985626293522053908493505090,10661203918282053275945646230942620946002534084451026282622270452943585743628);\n        vk.IC[3] = Pairing.G1Point(5181667818968093211184395989107723147946357135951722771133753482206625520900,11524527376858057226628998684496272859392684007522465415165954702519865828117);\n        vk.IC[4] = Pairing.G1Point(17192955364137903388262743076349494417862980178304217509477182339251823772568,1297765320043384539164468564266822437321156243704102639733266255573124340903);\n        vk.IC[5] = Pairing.G1Point(10223100098263004543650712184609427216924158269417508893671387153093361071201,16408208689150722063534888081513556099136868964465929786411791500332917323462);\n        vk.IC[6] = Pairing.G1Point(16330316096802937034884680265434329009343791504275494295174062987766625024764,1164322360402761791124865688052966126182332573510444462379337183432065129108);\n        vk.IC[7] = Pairing.G1Point(19626050859393228947262712902621918433394532884263841107770577683375588382396,8725631736685333716057959034030692087034116048366612534073131375249589821104);\n\n      }\n\n      function verifyBiomebaseProof(\n          uint256[2] memory a,\n          uint256[2][2] memory b,\n          uint256[2] memory c,\n          uint256[7] memory input\n      ) public view returns (bool) {\n          uint256[] memory inputValues = new uint256[](input.length);\n          for (uint256 i = 0; i < input.length; i++) {\n              inputValues[i] = input[i];\n          }\n          return verifyProof(a, b, c, inputValues, biomebaseVerifyingKey());\n      }\n      function revealVerifyingKey() internal pure returns (VerifyingKey memory vk) {\n        vk.alfa1 = Pairing.G1Point(19642524115522290447760970021746675789341356000653265441069630957431566301675,15809037446102219312954435152879098683824559980020626143453387822004586242317);\n        vk.beta2 = Pairing.G2Point([6402738102853475583969787773506197858266321704623454181848954418090577674938,3306678135584565297353192801602995509515651571902196852074598261262327790404], [15158588411628049902562758796812667714664232742372443470614751812018801551665,4983765881427969364617654516554524254158908221590807345159959200407712579883]);\n        vk.gamma2 = Pairing.G2Point([11559732032986387107991004021392285783925812861821192530917403151452391805634,10857046999023057135944570762232829481370756359578518086990519993285655852781], [4082367875863433681332203403145435568316851327593401208105741076214120093531,8495653923123431417604973247489272438418190587263600148770280649306958101930]);\n        vk.delta2 = Pairing.G2Point([20969531770227962387370967881681379910999036823792803427416531348163444405372,14798465742787663075700303092605018639283123619633135960736305472661752332991], [20127057752468141815598754419412774084710399157564271893692233118245765848704,11283571285984904937269608164590749772277251887653292894392503337436764620351]);\n        vk.IC = new Pairing.G1Point[](10);\n      vk.IC[0] = Pairing.G1Point(11550964137187913352526724844580499338131382138893314699756753981006102732019,19492512945047869932948946467344653872184411292565776553305249475937323729280);\n        vk.IC[1] = Pairing.G1Point(3916477035785360610976006321745916078968774369440543915902405954859488657313,15321034048954067345112787429494548298867833228473430687967681199888641151218);\n        vk.IC[2] = Pairing.G1Point(17162424485303597880607912676313480248024835510544797888250705764698557232067,19453235390127677713226294656715961366017915707222166147386013146796174344100);\n        vk.IC[3] = Pairing.G1Point(18090371915074528950280328905230849072316392894197745679334457442299133449430,19524426570088492708850338768755752233034279721987555793648652517882432064517);\n        vk.IC[4] = Pairing.G1Point(767631375883993792557482575516315588178749917872688074294429711943701764800,9024881774954499373094479803427980260507719201893300903117449305794276264316);\n        vk.IC[5] = Pairing.G1Point(12088035103643715261503541268257878836906149422260983576825564118730422949354,4040793404454834725203304217288744180770767408377168750569518446821652967704);\n        vk.IC[6] = Pairing.G1Point(2328288820829950612851495588333276395021985013772071429590313403196629336635,17318279807071387752527161519317163444818989114365031734312444168421406733803);\n        vk.IC[7] = Pairing.G1Point(508886213136770041992297650970372239109587151166819911780283404042598828207,21459755540335687717195867547576680711316868768415756597122982205242595749624);\n        vk.IC[8] = Pairing.G1Point(16403757598191581045783542370732218264722652182053301183354635728787150188596,12346140666653289251922737241759179245576250396348329174203588462438356208443);\n        vk.IC[9] = Pairing.G1Point(11402597413800839700634162913764544661317059412989909428143599812990631376392,18128684448300585236997388740896244971475725654191963688383260132795174539587);\n\n      }\n\n      function verifyRevealProof(\n          uint256[2] memory a,\n          uint256[2][2] memory b,\n          uint256[2] memory c,\n          uint256[9] memory input\n      ) public view returns (bool) {\n          uint256[] memory inputValues = new uint256[](input.length);\n          for (uint256 i = 0; i < input.length; i++) {\n              inputValues[i] = input[i];\n          }\n          return verifyProof(a, b, c, inputValues, revealVerifyingKey());\n      }\n      function whitelistVerifyingKey() internal pure returns (VerifyingKey memory vk) {\n        vk.alfa1 = Pairing.G1Point(19642524115522290447760970021746675789341356000653265441069630957431566301675,15809037446102219312954435152879098683824559980020626143453387822004586242317);\n        vk.beta2 = Pairing.G2Point([6402738102853475583969787773506197858266321704623454181848954418090577674938,3306678135584565297353192801602995509515651571902196852074598261262327790404], [15158588411628049902562758796812667714664232742372443470614751812018801551665,4983765881427969364617654516554524254158908221590807345159959200407712579883]);\n        vk.gamma2 = Pairing.G2Point([11559732032986387107991004021392285783925812861821192530917403151452391805634,10857046999023057135944570762232829481370756359578518086990519993285655852781], [4082367875863433681332203403145435568316851327593401208105741076214120093531,8495653923123431417604973247489272438418190587263600148770280649306958101930]);\n        vk.delta2 = Pairing.G2Point([5937324452265082694994079059241282955809587298129288028220551683857908477420,20193126291439324067855570349087139332759249767626415139734155586330544806931], [20511021038180955968672836821991916481702435917128211030586041791747308087254,4825495667610898300284773277835226666829724669887302495853279321794443468464]);\n        vk.IC = new Pairing.G1Point[](3);\n      vk.IC[0] = Pairing.G1Point(17090106865544016169649801204752202247083129013270491555521198841473080041238,15065980597515084559860077870742922078916767487317684783582391086408942818065);\n        vk.IC[1] = Pairing.G1Point(8913742937555365648248402998792870367517256074228029563567168738837907881227,21383428510659794652837132325863891590781235269282443805635223826232789767789);\n        vk.IC[2] = Pairing.G1Point(5769673517202855981370378834388169432488818791880269268228263741092764941222,20765377592965078228481490563799127565985878224902794144540908553153853061842);\n\n      }\n\n      function verifyWhitelistProof(\n          uint256[2] memory a,\n          uint256[2][2] memory b,\n          uint256[2] memory c,\n          uint256[2] memory input\n      ) public view returns (bool) {\n          uint256[] memory inputValues = new uint256[](input.length);\n          for (uint256 i = 0; i < input.length; i++) {\n              inputValues[i] = input[i];\n          }\n          return verifyProof(a, b, c, inputValues, whitelistVerifyingKey());\n      }\n}\n",
  "sourcePath": "/home/terra/opensource/tosca-chain/smart-contract-example/contracts/Verifier.sol",
  "compiler": {
    "name": "solc",
    "version": "0.8.13+commit.abaa5c0e.Emscripten.clang"
  },
  "schemaVersion": "3.4.7",
  "updatedAt": "2022-04-30T15:27:25.701Z",
  "devdoc": {
    "kind": "dev",
    "methods": {},
    "version": 1
  },
  "userdoc": {
    "kind": "user",
    "methods": {},
    "version": 1
  }
}