{
  "_format": "hh-sol-artifact-1",
  "contractName": "MockERC721Royalty",
  "sourceName": "contracts/mock/MockERC721.sol",
  "abi": [
    {
      "inputs": [
        {
          "internalType": "string",
          "name": "_name",
          "type": "string"
        },
        {
          "internalType": "string",
          "name": "_symbol",
          "type": "string"
        },
        {
          "internalType": "string",
          "name": "_assetUrl",
          "type": "string"
        }
      ],
      "stateMutability": "nonpayable",
      "type": "constructor"
    },
    {
      "anonymous": false,
      "inputs": [
        {
          "indexed": true,
          "internalType": "address",
          "name": "owner",
          "type": "address"
        },
        {
          "indexed": true,
          "internalType": "address",
          "name": "approved",
          "type": "address"
        },
        {
          "indexed": true,
          "internalType": "uint256",
          "name": "tokenId",
          "type": "uint256"
        }
      ],
      "name": "Approval",
      "type": "event"
    },
    {
      "anonymous": false,
      "inputs": [
        {
          "indexed": true,
          "internalType": "address",
          "name": "owner",
          "type": "address"
        },
        {
          "indexed": true,
          "internalType": "address",
          "name": "operator",
          "type": "address"
        },
        {
          "indexed": false,
          "internalType": "bool",
          "name": "approved",
          "type": "bool"
        }
      ],
      "name": "ApprovalForAll",
      "type": "event"
    },
    {
      "anonymous": false,
      "inputs": [
        {
          "indexed": true,
          "internalType": "address",
          "name": "from",
          "type": "address"
        },
        {
          "indexed": true,
          "internalType": "address",
          "name": "to",
          "type": "address"
        },
        {
          "indexed": true,
          "internalType": "uint256",
          "name": "tokenId",
          "type": "uint256"
        }
      ],
      "name": "Transfer",
      "type": "event"
    },
    {
      "inputs": [
        {
          "internalType": "address",
          "name": "to",
          "type": "address"
        },
        {
          "internalType": "uint256",
          "name": "tokenId",
          "type": "uint256"
        }
      ],
      "name": "approve",
      "outputs": [],
      "stateMutability": "nonpayable",
      "type": "function"
    },
    {
      "inputs": [
        {
          "internalType": "address",
          "name": "owner",
          "type": "address"
        }
      ],
      "name": "balanceOf",
      "outputs": [
        {
          "internalType": "uint256",
          "name": "",
          "type": "uint256"
        }
      ],
      "stateMutability": "view",
      "type": "function"
    },
    {
      "inputs": [
        {
          "internalType": "uint256",
          "name": "tokenId",
          "type": "uint256"
        }
      ],
      "name": "getApproved",
      "outputs": [
        {
          "internalType": "address",
          "name": "",
          "type": "address"
        }
      ],
      "stateMutability": "view",
      "type": "function"
    },
    {
      "inputs": [
        {
          "internalType": "address",
          "name": "owner",
          "type": "address"
        },
        {
          "internalType": "address",
          "name": "operator",
          "type": "address"
        }
      ],
      "name": "isApprovedForAll",
      "outputs": [
        {
          "internalType": "bool",
          "name": "",
          "type": "bool"
        }
      ],
      "stateMutability": "view",
      "type": "function"
    },
    {
      "inputs": [],
      "name": "name",
      "outputs": [
        {
          "internalType": "string",
          "name": "",
          "type": "string"
        }
      ],
      "stateMutability": "view",
      "type": "function"
    },
    {
      "inputs": [
        {
          "internalType": "uint256",
          "name": "tokenId",
          "type": "uint256"
        }
      ],
      "name": "ownerOf",
      "outputs": [
        {
          "internalType": "address",
          "name": "",
          "type": "address"
        }
      ],
      "stateMutability": "view",
      "type": "function"
    },
    {
      "inputs": [
        {
          "internalType": "uint256",
          "name": "",
          "type": "uint256"
        },
        {
          "internalType": "uint256",
          "name": "_salePrice",
          "type": "uint256"
        }
      ],
      "name": "royaltyInfo",
      "outputs": [
        {
          "internalType": "address",
          "name": "receiver",
          "type": "address"
        },
        {
          "internalType": "uint256",
          "name": "royaltyAmount",
          "type": "uint256"
        }
      ],
      "stateMutability": "view",
      "type": "function"
    },
    {
      "inputs": [
        {
          "internalType": "address",
          "name": "from",
          "type": "address"
        },
        {
          "internalType": "address",
          "name": "to",
          "type": "address"
        },
        {
          "internalType": "uint256",
          "name": "tokenId",
          "type": "uint256"
        }
      ],
      "name": "safeTransferFrom",
      "outputs": [],
      "stateMutability": "nonpayable",
      "type": "function"
    },
    {
      "inputs": [
        {
          "internalType": "address",
          "name": "from",
          "type": "address"
        },
        {
          "internalType": "address",
          "name": "to",
          "type": "address"
        },
        {
          "internalType": "uint256",
          "name": "tokenId",
          "type": "uint256"
        },
        {
          "internalType": "bytes",
          "name": "_data",
          "type": "bytes"
        }
      ],
      "name": "safeTransferFrom",
      "outputs": [],
      "stateMutability": "nonpayable",
      "type": "function"
    },
    {
      "inputs": [
        {
          "internalType": "address",
          "name": "operator",
          "type": "address"
        },
        {
          "internalType": "bool",
          "name": "approved",
          "type": "bool"
        }
      ],
      "name": "setApprovalForAll",
      "outputs": [],
      "stateMutability": "nonpayable",
      "type": "function"
    },
    {
      "inputs": [
        {
          "internalType": "bytes4",
          "name": "interfaceId",
          "type": "bytes4"
        }
      ],
      "name": "supportsInterface",
      "outputs": [
        {
          "internalType": "bool",
          "name": "",
          "type": "bool"
        }
      ],
      "stateMutability": "view",
      "type": "function"
    },
    {
      "inputs": [],
      "name": "symbol",
      "outputs": [
        {
          "internalType": "string",
          "name": "",
          "type": "string"
        }
      ],
      "stateMutability": "view",
      "type": "function"
    },
    {
      "inputs": [
        {
          "internalType": "uint256",
          "name": "",
          "type": "uint256"
        }
      ],
      "name": "tokenURI",
      "outputs": [
        {
          "internalType": "string",
          "name": "",
          "type": "string"
        }
      ],
      "stateMutability": "view",
      "type": "function"
    },
    {
      "inputs": [
        {
          "internalType": "address",
          "name": "from",
          "type": "address"
        },
        {
          "internalType": "address",
          "name": "to",
          "type": "address"
        },
        {
          "internalType": "uint256",
          "name": "tokenId",
          "type": "uint256"
        }
      ],
      "name": "transferFrom",
      "outputs": [],
      "stateMutability": "nonpayable",
      "type": "function"
    }
  ],
  "bytecode": "0x60806040523480156200001157600080fd5b506040516200158a3803806200158a833981016040819052620000349162000365565b8282828282816000908051906020019062000051929190620001f2565b50805162000067906001906020840190620001f2565b505081516200007f91506006906020840190620001f2565b506200008d336000620000a6565b6200009a336001620000a6565b5050505050506200045a565b6001600160a01b038216620001025760405162461bcd60e51b815260206004820181905260248201527f4552433732313a206d696e7420746f20746865207a65726f206164647265737360448201526064015b60405180910390fd5b6000818152600260205260409020546001600160a01b031615620001695760405162461bcd60e51b815260206004820152601c60248201527f4552433732313a20746f6b656e20616c7265616479206d696e746564000000006044820152606401620000f9565b6001600160a01b038216600090815260036020526040812080546001929062000194908490620003f6565b909155505060008181526002602052604080822080546001600160a01b0319166001600160a01b03861690811790915590518392907fddf252ad1be2c89b69c2b068fc378daa952ba7f163c4a11628f55a4df523b3ef908290a45050565b82805462000200906200041d565b90600052602060002090601f0160209004810192826200022457600085556200026f565b82601f106200023f57805160ff19168380011785556200026f565b828001600101855582156200026f579182015b828111156200026f57825182559160200191906001019062000252565b506200027d92915062000281565b5090565b5b808211156200027d576000815560010162000282565b634e487b7160e01b600052604160045260246000fd5b600082601f830112620002c057600080fd5b81516001600160401b0380821115620002dd57620002dd62000298565b604051601f8301601f19908116603f0116810190828211818310171562000308576200030862000298565b816040528381526020925086838588010111156200032557600080fd5b600091505b838210156200034957858201830151818301840152908201906200032a565b838211156200035b5760008385830101525b9695505050505050565b6000806000606084860312156200037b57600080fd5b83516001600160401b03808211156200039357600080fd5b620003a187838801620002ae565b94506020860151915080821115620003b857600080fd5b620003c687838801620002ae565b93506040860151915080821115620003dd57600080fd5b50620003ec86828701620002ae565b9150509250925092565b600082198211156200041857634e487b7160e01b600052601160045260246000fd5b500190565b600181811c908216806200043257607f821691505b602082108114156200045457634e487b7160e01b600052602260045260246000fd5b50919050565b611120806200046a6000396000f3fe608060405234801561001057600080fd5b50600436106100ea5760003560e01c80636352211e1161008c578063a22cb46511610066578063a22cb46514610200578063b88d4fde14610213578063c87b56dd14610226578063e985e9c51461023957600080fd5b80636352211e146101c457806370a08231146101d757806395d89b41146101f857600080fd5b8063095ea7b3116100c8578063095ea7b31461015757806323b872dd1461016c5780632a55205a1461017f57806342842e0e146101b157600080fd5b806301ffc9a7146100ef57806306fdde0314610117578063081812fc1461012c575b600080fd5b6101026100fd366004610c97565b610275565b60405190151581526020015b60405180910390f35b61011f6102a0565b60405161010e9190610d08565b61013f61013a366004610d1b565b610332565b6040516001600160a01b03909116815260200161010e565b61016a610165366004610d50565b6103cc565b005b61016a61017a366004610d7a565b6104e2565b61019261018d366004610db6565b610513565b604080516001600160a01b03909316835260208301919091520161010e565b61016a6101bf366004610d7a565b61052a565b61013f6101d2366004610d1b565b610545565b6101ea6101e5366004610dd8565b6105bc565b60405190815260200161010e565b61011f610643565b61016a61020e366004610df3565b610652565b61016a610221366004610e45565b610661565b61011f610234366004610d1b565b610699565b610102610247366004610f21565b6001600160a01b03918216600090815260056020908152604080832093909416825291909152205460ff1690565b600063152a902d60e11b6001600160e01b03198316148061029a575061029a8261072d565b92915050565b6060600080546102af90610f4b565b80601f01602080910402602001604051908101604052809291908181526020018280546102db90610f4b565b80156103285780601f106102fd57610100808354040283529160200191610328565b820191906000526020600020905b81548152906001019060200180831161030b57829003601f168201915b5050505050905090565b6000818152600260205260408120546001600160a01b03166103b05760405162461bcd60e51b815260206004820152602c60248201527f4552433732313a20617070726f76656420717565727920666f72206e6f6e657860448201526b34b9ba32b73a103a37b5b2b760a11b60648201526084015b60405180910390fd5b506000908152600460205260409020546001600160a01b031690565b60006103d782610545565b9050806001600160a01b0316836001600160a01b031614156104455760405162461bcd60e51b815260206004820152602160248201527f4552433732313a20617070726f76616c20746f2063757272656e74206f776e656044820152603960f91b60648201526084016103a7565b336001600160a01b038216148061046157506104618133610247565b6104d35760405162461bcd60e51b815260206004820152603860248201527f4552433732313a20617070726f76652063616c6c6572206973206e6f74206f7760448201527f6e6572206e6f7220617070726f76656420666f7220616c6c000000000000000060648201526084016103a7565b6104dd838361077d565b505050565b6104ec33826107eb565b6105085760405162461bcd60e51b81526004016103a790610f86565b6104dd8383836108e2565b306000610521600a84610fed565b90509250929050565b6104dd83838360405180602001604052806000815250610661565b6000818152600260205260408120546001600160a01b03168061029a5760405162461bcd60e51b815260206004820152602960248201527f4552433732313a206f776e657220717565727920666f72206e6f6e657869737460448201526832b73a103a37b5b2b760b91b60648201526084016103a7565b60006001600160a01b0382166106275760405162461bcd60e51b815260206004820152602a60248201527f4552433732313a2062616c616e636520717565727920666f7220746865207a65604482015269726f206164647265737360b01b60648201526084016103a7565b506001600160a01b031660009081526003602052604090205490565b6060600180546102af90610f4b565b61065d338383610a7e565b5050565b61066b33836107eb565b6106875760405162461bcd60e51b81526004016103a790610f86565b61069384848484610b4d565b50505050565b6060600680546106a890610f4b565b80601f01602080910402602001604051908101604052809291908181526020018280546106d490610f4b565b80156107215780601f106106f657610100808354040283529160200191610721565b820191906000526020600020905b81548152906001019060200180831161070457829003601f168201915b50505050509050919050565b60006001600160e01b031982166380ac58cd60e01b148061075e57506001600160e01b03198216635b5e139f60e01b145b8061029a57506301ffc9a760e01b6001600160e01b031983161461029a565b600081815260046020526040902080546001600160a01b0319166001600160a01b03841690811790915581906107b282610545565b6001600160a01b03167f8c5be1e5ebec7d5bd14f71427d1e84f3dd0314c0f7b2291e5b200ac8c7c3b92560405160405180910390a45050565b6000818152600260205260408120546001600160a01b03166108645760405162461bcd60e51b815260206004820152602c60248201527f4552433732313a206f70657261746f7220717565727920666f72206e6f6e657860448201526b34b9ba32b73a103a37b5b2b760a11b60648201526084016103a7565b600061086f83610545565b9050806001600160a01b0316846001600160a01b031614806108aa5750836001600160a01b031661089f84610332565b6001600160a01b0316145b806108da57506001600160a01b0380821660009081526005602090815260408083209388168352929052205460ff165b949350505050565b826001600160a01b03166108f582610545565b6001600160a01b0316146109595760405162461bcd60e51b815260206004820152602560248201527f4552433732313a207472616e736665722066726f6d20696e636f72726563742060448201526437bbb732b960d91b60648201526084016103a7565b6001600160a01b0382166109bb5760405162461bcd60e51b8152602060048201526024808201527f4552433732313a207472616e7366657220746f20746865207a65726f206164646044820152637265737360e01b60648201526084016103a7565b6109c660008261077d565b6001600160a01b03831660009081526003602052604081208054600192906109ef90849061100f565b90915550506001600160a01b0382166000908152600360205260408120805460019290610a1d908490611026565b909155505060008181526002602052604080822080546001600160a01b0319166001600160a01b0386811691821790925591518493918716917fddf252ad1be2c89b69c2b068fc378daa952ba7f163c4a11628f55a4df523b3ef91a4505050565b816001600160a01b0316836001600160a01b03161415610ae05760405162461bcd60e51b815260206004820152601960248201527f4552433732313a20617070726f766520746f2063616c6c65720000000000000060448201526064016103a7565b6001600160a01b03838116600081815260056020908152604080832094871680845294825291829020805460ff191686151590811790915591519182527f17307eab39ab6107e8899845ad3d59bd9653f200f220920489ca2b5937696c31910160405180910390a3505050565b610b588484846108e2565b610b6484848484610b80565b6106935760405162461bcd60e51b81526004016103a79061103e565b60006001600160a01b0384163b15610c7357604051630a85bd0160e11b81526001600160a01b0385169063150b7a0290610bc4903390899088908890600401611090565b6020604051808303816000875af1925050508015610bff575060408051601f3d908101601f19168201909252610bfc918101906110cd565b60015b610c59573d808015610c2d576040519150601f19603f3d011682016040523d82523d6000602084013e610c32565b606091505b508051610c515760405162461bcd60e51b81526004016103a79061103e565b805181602001fd5b6001600160e01b031916630a85bd0160e11b1490506108da565b506001949350505050565b6001600160e01b031981168114610c9457600080fd5b50565b600060208284031215610ca957600080fd5b8135610cb481610c7e565b9392505050565b6000815180845260005b81811015610ce157602081850181015186830182015201610cc5565b81811115610cf3576000602083870101525b50601f01601f19169290920160200192915050565b602081526000610cb46020830184610cbb565b600060208284031215610d2d57600080fd5b5035919050565b80356001600160a01b0381168114610d4b57600080fd5b919050565b60008060408385031215610d6357600080fd5b610d6c83610d34565b946020939093013593505050565b600080600060608486031215610d8f57600080fd5b610d9884610d34565b9250610da660208501610d34565b9150604084013590509250925092565b60008060408385031215610dc957600080fd5b50508035926020909101359150565b600060208284031215610dea57600080fd5b610cb482610d34565b60008060408385031215610e0657600080fd5b610e0f83610d34565b915060208301358015158114610e2457600080fd5b809150509250929050565b634e487b7160e01b600052604160045260246000fd5b60008060008060808587031215610e5b57600080fd5b610e6485610d34565b9350610e7260208601610d34565b925060408501359150606085013567ffffffffffffffff80821115610e9657600080fd5b818701915087601f830112610eaa57600080fd5b813581811115610ebc57610ebc610e2f565b604051601f8201601f19908116603f01168101908382118183101715610ee457610ee4610e2f565b816040528281528a6020848701011115610efd57600080fd5b82602086016020830137600060208483010152809550505050505092959194509250565b60008060408385031215610f3457600080fd5b610f3d83610d34565b915061052160208401610d34565b600181811c90821680610f5f57607f821691505b60208210811415610f8057634e487b7160e01b600052602260045260246000fd5b50919050565b60208082526031908201527f4552433732313a207472616e736665722063616c6c6572206973206e6f74206f6040820152701ddb995c881b9bdc88185c1c1c9bdd9959607a1b606082015260800190565b634e487b7160e01b600052601160045260246000fd5b60008261100a57634e487b7160e01b600052601260045260246000fd5b500490565b60008282101561102157611021610fd7565b500390565b6000821982111561103957611039610fd7565b500190565b60208082526032908201527f4552433732313a207472616e7366657220746f206e6f6e20455243373231526560408201527131b2b4bb32b91034b6b83632b6b2b73a32b960711b606082015260800190565b6001600160a01b03858116825284166020820152604081018390526080606082018190526000906110c390830184610cbb565b9695505050505050565b6000602082840312156110df57600080fd5b8151610cb481610c7e56fea2646970667358221220126566b133f391bc9549d1c4bb3b187597a013cb8e17d3813207df1ed98c511064736f6c634300080b0033",
  "linkReferences": {},
  "deployedLinkReferences": {}
}