{
  "_format": "hh-sol-artifact-1",
  "contractName": "PiSwapRegistry",
  "sourceName": "contracts/PiSwapRegistry.sol",
  "abi": [
    {
      "anonymous": false,
      "inputs": [
        {
          "indexed": true,
          "internalType": "address",
          "name": "account",
          "type": "address"
        },
        {
          "indexed": true,
          "internalType": "address",
          "name": "operator",
          "type": "address"
        },
        {
          "indexed": false,
          "internalType": "bool",
          "name": "approved",
          "type": "bool"
        }
      ],
      "name": "ApprovalForAll",
      "type": "event"
    },
    {
      "anonymous": false,
      "inputs": [
        {
          "indexed": true,
          "internalType": "address",
          "name": "oldBeneficiary",
          "type": "address"
        },
        {
          "indexed": true,
          "internalType": "address",
          "name": "newBeneficiary",
          "type": "address"
        }
      ],
      "name": "BeneficiaryUpdated",
      "type": "event"
    },
    {
      "anonymous": false,
      "inputs": [
        {
          "indexed": true,
          "internalType": "address",
          "name": "sender",
          "type": "address"
        },
        {
          "indexed": false,
          "internalType": "uint256",
          "name": "amount",
          "type": "uint256"
        }
      ],
      "name": "Deposit",
      "type": "event"
    },
    {
      "anonymous": false,
      "inputs": [
        {
          "indexed": true,
          "internalType": "uint256",
          "name": "feeBefore",
          "type": "uint256"
        },
        {
          "indexed": true,
          "internalType": "uint256",
          "name": "feeAfter",
          "type": "uint256"
        }
      ],
      "name": "FeeUpdated",
      "type": "event"
    },
    {
      "anonymous": false,
      "inputs": [
        {
          "indexed": true,
          "internalType": "address",
          "name": "market",
          "type": "address"
        },
        {
          "indexed": true,
          "internalType": "address",
          "name": "tokenAddress",
          "type": "address"
        },
        {
          "indexed": true,
          "internalType": "uint256",
          "name": "tokenId",
          "type": "uint256"
        }
      ],
      "name": "MarketCreated",
      "type": "event"
    },
    {
      "anonymous": false,
      "inputs": [
        {
          "indexed": true,
          "internalType": "uint256",
          "name": "lengthBefore",
          "type": "uint256"
        },
        {
          "indexed": true,
          "internalType": "uint256",
          "name": "lengthAfter",
          "type": "uint256"
        }
      ],
      "name": "OracleLengthUpdated",
      "type": "event"
    },
    {
      "anonymous": false,
      "inputs": [
        {
          "indexed": true,
          "internalType": "address",
          "name": "currentOwner",
          "type": "address"
        },
        {
          "indexed": true,
          "internalType": "address",
          "name": "proposedOwner",
          "type": "address"
        }
      ],
      "name": "OwnershipProposed",
      "type": "event"
    },
    {
      "anonymous": false,
      "inputs": [
        {
          "indexed": true,
          "internalType": "address",
          "name": "previousOwner",
          "type": "address"
        },
        {
          "indexed": true,
          "internalType": "address",
          "name": "newOwner",
          "type": "address"
        }
      ],
      "name": "OwnershipTransferred",
      "type": "event"
    },
    {
      "anonymous": false,
      "inputs": [
        {
          "indexed": true,
          "internalType": "address",
          "name": "operator",
          "type": "address"
        },
        {
          "indexed": true,
          "internalType": "address",
          "name": "from",
          "type": "address"
        },
        {
          "indexed": true,
          "internalType": "address",
          "name": "to",
          "type": "address"
        },
        {
          "indexed": false,
          "internalType": "uint256[]",
          "name": "ids",
          "type": "uint256[]"
        },
        {
          "indexed": false,
          "internalType": "uint256[]",
          "name": "values",
          "type": "uint256[]"
        }
      ],
      "name": "TransferBatch",
      "type": "event"
    },
    {
      "anonymous": false,
      "inputs": [
        {
          "indexed": true,
          "internalType": "address",
          "name": "operator",
          "type": "address"
        },
        {
          "indexed": true,
          "internalType": "address",
          "name": "from",
          "type": "address"
        },
        {
          "indexed": true,
          "internalType": "address",
          "name": "to",
          "type": "address"
        },
        {
          "indexed": false,
          "internalType": "uint256",
          "name": "id",
          "type": "uint256"
        },
        {
          "indexed": false,
          "internalType": "uint256",
          "name": "value",
          "type": "uint256"
        }
      ],
      "name": "TransferSingle",
      "type": "event"
    },
    {
      "anonymous": false,
      "inputs": [
        {
          "indexed": false,
          "internalType": "string",
          "name": "value",
          "type": "string"
        },
        {
          "indexed": true,
          "internalType": "uint256",
          "name": "id",
          "type": "uint256"
        }
      ],
      "name": "URI",
      "type": "event"
    },
    {
      "anonymous": false,
      "inputs": [
        {
          "indexed": true,
          "internalType": "address",
          "name": "implementation",
          "type": "address"
        }
      ],
      "name": "Upgraded",
      "type": "event"
    },
    {
      "anonymous": false,
      "inputs": [
        {
          "indexed": true,
          "internalType": "address",
          "name": "sender",
          "type": "address"
        },
        {
          "indexed": true,
          "internalType": "address",
          "name": "to",
          "type": "address"
        },
        {
          "indexed": false,
          "internalType": "uint256",
          "name": "amount",
          "type": "uint256"
        }
      ],
      "name": "Withdrawal",
      "type": "event"
    },
    {
      "inputs": [],
      "name": "WETH",
      "outputs": [
        {
          "internalType": "address",
          "name": "",
          "type": "address"
        }
      ],
      "stateMutability": "view",
      "type": "function"
    },
    {
      "inputs": [
        {
          "internalType": "address",
          "name": "account",
          "type": "address"
        },
        {
          "internalType": "uint256",
          "name": "id",
          "type": "uint256"
        }
      ],
      "name": "balanceOf",
      "outputs": [
        {
          "internalType": "uint256",
          "name": "",
          "type": "uint256"
        }
      ],
      "stateMutability": "view",
      "type": "function"
    },
    {
      "inputs": [
        {
          "internalType": "address[]",
          "name": "accounts",
          "type": "address[]"
        },
        {
          "internalType": "uint256[]",
          "name": "ids",
          "type": "uint256[]"
        }
      ],
      "name": "balanceOfBatch",
      "outputs": [
        {
          "internalType": "uint256[]",
          "name": "",
          "type": "uint256[]"
        }
      ],
      "stateMutability": "view",
      "type": "function"
    },
    {
      "inputs": [],
      "name": "beneficiary",
      "outputs": [
        {
          "internalType": "address",
          "name": "",
          "type": "address"
        }
      ],
      "stateMutability": "view",
      "type": "function"
    },
    {
      "inputs": [
        {
          "internalType": "address",
          "name": "from",
          "type": "address"
        },
        {
          "internalType": "uint256",
          "name": "amount",
          "type": "uint256"
        },
        {
          "internalType": "enum TokenType",
          "name": "tokenType",
          "type": "uint8"
        }
      ],
      "name": "burn",
      "outputs": [],
      "stateMutability": "nonpayable",
      "type": "function"
    },
    {
      "inputs": [],
      "name": "claimOwnership",
      "outputs": [],
      "stateMutability": "nonpayable",
      "type": "function"
    },
    {
      "inputs": [
        {
          "internalType": "address",
          "name": "tokenAddress",
          "type": "address"
        },
        {
          "internalType": "uint256",
          "name": "tokenId",
          "type": "uint256"
        }
      ],
      "name": "createMarket",
      "outputs": [
        {
          "internalType": "address",
          "name": "market",
          "type": "address"
        }
      ],
      "stateMutability": "nonpayable",
      "type": "function"
    },
    {
      "inputs": [],
      "name": "decimals",
      "outputs": [
        {
          "internalType": "uint8",
          "name": "",
          "type": "uint8"
        }
      ],
      "stateMutability": "view",
      "type": "function"
    },
    {
      "inputs": [
        {
          "internalType": "uint256",
          "name": "amount",
          "type": "uint256"
        }
      ],
      "name": "deposit",
      "outputs": [],
      "stateMutability": "nonpayable",
      "type": "function"
    },
    {
      "inputs": [
        {
          "internalType": "uint256",
          "name": "id",
          "type": "uint256"
        }
      ],
      "name": "exists",
      "outputs": [
        {
          "internalType": "bool",
          "name": "",
          "type": "bool"
        }
      ],
      "stateMutability": "view",
      "type": "function"
    },
    {
      "inputs": [],
      "name": "fee",
      "outputs": [
        {
          "internalType": "uint256",
          "name": "",
          "type": "uint256"
        }
      ],
      "stateMutability": "view",
      "type": "function"
    },
    {
      "inputs": [
        {
          "internalType": "address",
          "name": "tokenAddress",
          "type": "address"
        },
        {
          "internalType": "uint256",
          "name": "tokenId",
          "type": "uint256"
        }
      ],
      "name": "getMarketForNFT",
      "outputs": [
        {
          "internalType": "address",
          "name": "market",
          "type": "address"
        }
      ],
      "stateMutability": "view",
      "type": "function"
    },
    {
      "inputs": [],
      "name": "implementation",
      "outputs": [
        {
          "internalType": "address",
          "name": "",
          "type": "address"
        }
      ],
      "stateMutability": "view",
      "type": "function"
    },
    {
      "inputs": [
        {
          "internalType": "address",
          "name": "_owner",
          "type": "address"
        },
        {
          "internalType": "address",
          "name": "_beneficiary",
          "type": "address"
        },
        {
          "internalType": "address",
          "name": "_marketImplementation",
          "type": "address"
        },
        {
          "internalType": "address",
          "name": "_weth",
          "type": "address"
        },
        {
          "internalType": "string",
          "name": "_uri",
          "type": "string"
        }
      ],
      "name": "initialize",
      "outputs": [],
      "stateMutability": "nonpayable",
      "type": "function"
    },
    {
      "inputs": [
        {
          "internalType": "address",
          "name": "account",
          "type": "address"
        },
        {
          "internalType": "address",
          "name": "operator",
          "type": "address"
        }
      ],
      "name": "isApprovedForAll",
      "outputs": [
        {
          "internalType": "bool",
          "name": "",
          "type": "bool"
        }
      ],
      "stateMutability": "view",
      "type": "function"
    },
    {
      "inputs": [
        {
          "internalType": "address",
          "name": "tokenAddress",
          "type": "address"
        },
        {
          "internalType": "uint256",
          "name": "tokenId",
          "type": "uint256"
        }
      ],
      "name": "marketExists",
      "outputs": [
        {
          "internalType": "bool",
          "name": "",
          "type": "bool"
        }
      ],
      "stateMutability": "view",
      "type": "function"
    },
    {
      "inputs": [
        {
          "internalType": "address",
          "name": "to",
          "type": "address"
        },
        {
          "internalType": "uint256",
          "name": "amount",
          "type": "uint256"
        },
        {
          "internalType": "enum TokenType",
          "name": "tokenType",
          "type": "uint8"
        }
      ],
      "name": "mint",
      "outputs": [],
      "stateMutability": "nonpayable",
      "type": "function"
    },
    {
      "inputs": [],
      "name": "oracleLength",
      "outputs": [
        {
          "internalType": "uint256",
          "name": "",
          "type": "uint256"
        }
      ],
      "stateMutability": "view",
      "type": "function"
    },
    {
      "inputs": [],
      "name": "owner",
      "outputs": [
        {
          "internalType": "address",
          "name": "",
          "type": "address"
        }
      ],
      "stateMutability": "view",
      "type": "function"
    },
    {
      "inputs": [
        {
          "internalType": "address payable",
          "name": "_newOwner",
          "type": "address"
        }
      ],
      "name": "proposeOwner",
      "outputs": [],
      "stateMutability": "nonpayable",
      "type": "function"
    },
    {
      "inputs": [
        {
          "internalType": "address",
          "name": "from",
          "type": "address"
        },
        {
          "internalType": "address",
          "name": "to",
          "type": "address"
        },
        {
          "internalType": "uint256[]",
          "name": "ids",
          "type": "uint256[]"
        },
        {
          "internalType": "uint256[]",
          "name": "amounts",
          "type": "uint256[]"
        },
        {
          "internalType": "bytes",
          "name": "data",
          "type": "bytes"
        }
      ],
      "name": "safeBatchTransferFrom",
      "outputs": [],
      "stateMutability": "nonpayable",
      "type": "function"
    },
    {
      "inputs": [
        {
          "internalType": "address",
          "name": "from",
          "type": "address"
        },
        {
          "internalType": "address",
          "name": "to",
          "type": "address"
        },
        {
          "internalType": "uint256",
          "name": "id",
          "type": "uint256"
        },
        {
          "internalType": "uint256",
          "name": "amount",
          "type": "uint256"
        },
        {
          "internalType": "bytes",
          "name": "data",
          "type": "bytes"
        }
      ],
      "name": "safeTransferFrom",
      "outputs": [],
      "stateMutability": "nonpayable",
      "type": "function"
    },
    {
      "inputs": [
        {
          "internalType": "address",
          "name": "operator",
          "type": "address"
        },
        {
          "internalType": "bool",
          "name": "approved",
          "type": "bool"
        }
      ],
      "name": "setApprovalForAll",
      "outputs": [],
      "stateMutability": "nonpayable",
      "type": "function"
    },
    {
      "inputs": [
        {
          "internalType": "address",
          "name": "newBeneficiary",
          "type": "address"
        }
      ],
      "name": "setBeneficiary",
      "outputs": [],
      "stateMutability": "nonpayable",
      "type": "function"
    },
    {
      "inputs": [
        {
          "internalType": "uint256",
          "name": "newFee",
          "type": "uint256"
        }
      ],
      "name": "setFee",
      "outputs": [],
      "stateMutability": "nonpayable",
      "type": "function"
    },
    {
      "inputs": [
        {
          "internalType": "uint256",
          "name": "newOracleLength",
          "type": "uint256"
        }
      ],
      "name": "setOracleLength",
      "outputs": [],
      "stateMutability": "nonpayable",
      "type": "function"
    },
    {
      "inputs": [
        {
          "internalType": "string",
          "name": "newUri",
          "type": "string"
        }
      ],
      "name": "setURI",
      "outputs": [],
      "stateMutability": "nonpayable",
      "type": "function"
    },
    {
      "inputs": [
        {
          "internalType": "bytes4",
          "name": "interfaceId",
          "type": "bytes4"
        }
      ],
      "name": "supportsInterface",
      "outputs": [
        {
          "internalType": "bool",
          "name": "",
          "type": "bool"
        }
      ],
      "stateMutability": "view",
      "type": "function"
    },
    {
      "inputs": [
        {
          "internalType": "uint256",
          "name": "id",
          "type": "uint256"
        }
      ],
      "name": "totalSupply",
      "outputs": [
        {
          "internalType": "uint256",
          "name": "",
          "type": "uint256"
        }
      ],
      "stateMutability": "view",
      "type": "function"
    },
    {
      "inputs": [
        {
          "internalType": "address",
          "name": "newImplementation",
          "type": "address"
        }
      ],
      "name": "upgradeTo",
      "outputs": [],
      "stateMutability": "nonpayable",
      "type": "function"
    },
    {
      "inputs": [
        {
          "internalType": "uint256",
          "name": "",
          "type": "uint256"
        }
      ],
      "name": "uri",
      "outputs": [
        {
          "internalType": "string",
          "name": "",
          "type": "string"
        }
      ],
      "stateMutability": "view",
      "type": "function"
    },
    {
      "inputs": [
        {
          "internalType": "uint256",
          "name": "amount",
          "type": "uint256"
        },
        {
          "internalType": "address",
          "name": "to",
          "type": "address"
        }
      ],
      "name": "withdraw",
      "outputs": [],
      "stateMutability": "nonpayable",
      "type": "function"
    }
  ],
  "bytecode": "0x608060405234801561001057600080fd5b506138de806100206000396000f3fe60806040523480156200001157600080fd5b5060043610620002175760003560e01c80634f558e791162000125578063ad5c464811620000af578063ddca3f43116200007a578063ddca3f4314620004f5578063e985e9c51462000500578063f242432a1462000517578063fcf6fc1e146200052e57600080fd5b8063ad5c4648146200048f578063b5ed298a14620004a4578063b6b55f2514620004bb578063bd85b03914620004d257600080fd5b806379adafb411620000f057806379adafb414620004385780638da5cb5b146200044f5780639007438c1462000461578063a22cb465146200047857600080fd5b80634f558e7914620003d35780635c60da1b14620003f85780636112e8ac146200040a57806369fe0e2d146200042157600080fd5b80632eb2c2d611620001a75780633659cfe611620001725780633659cfe6146200037757806338af3eed146200038e5780634e1273f414620003a35780634e71e0c814620003c957600080fd5b80632eb2c2d614620002fd5780632fb3b3611462000314578063313ce567146200032b57806334b62dd9146200034757600080fd5b80630e89341c11620001e85780630e89341c146200029e5780631b1355a114620002c45780631c31f71014620002cf5780632241328b14620002e657600080fd5b8062f714ce146200021c578062fdd58e146200023557806301ffc9a7146200025f57806302fe53051462000287575b600080fd5b620002336200022d366004620029e7565b62000545565b005b6200024c6200024636600462002a1a565b620005b1565b6040519081526020015b60405180910390f35b620002766200027036600462002a60565b6200064e565b604051901515815260200162000256565b620002336200029836600462002acc565b620006a1565b620002b5620002af36600462002b12565b6200071c565b60405162000256919062002b89565b6200024c6101355481565b62000233620002e036600462002b9e565b620007b8565b62000233620002f736600462002bbe565b6200084c565b620002336200030e36600462002d69565b6200098f565b620002336200032536600462002e25565b62000a2d565b62000334601281565b60405160ff909116815260200162000256565b6200035e6200035836600462002a1a565b62000b91565b6040516001600160a01b03909116815260200162000256565b620002336200038836600462002b9e565b62000f7f565b610131546200035e906001600160a01b031681565b620003ba620003b436600462002ebf565b62000ff7565b60405162000256919062002fd8565b6200023362001136565b62000276620003e436600462002b12565b600090815260fe6020526040902054151590565b6067546001600160a01b03166200035e565b620002336200041b36600462002bbe565b620011fe565b620002336200043236600462002b12565b620012ba565b6200035e6200044936600462002a1a565b62001335565b6033546001600160a01b03166200035e565b620002766200047236600462002a1a565b620013ef565b620002336200048936600462002ffc565b6200141a565b610130546200035e906001600160a01b031681565b62000233620004b536600462002b9e565b62001427565b62000233620004cc36600462002b12565b620014af565b6200024c620004e336600462002b12565b600090815260fe602052604090205490565b6200024c6101345481565b62000276620005113660046200302f565b62001520565b620002336200052836600462003062565b6200157e565b620002336200053f36600462002b12565b6200160c565b620005533360008462001687565b610130546200056d906001600160a01b031682846200180e565b6040518281526001600160a01b0382169033907f2717ead6b9200dd235aad468c9809ea400fe33ac69b5bfaa6d3e90fc922b63989060200160405180910390a35050565b60006001600160a01b038316620006235760405162461bcd60e51b815260206004820152602b60248201527f455243313135353a2062616c616e636520717565727920666f7220746865207a60448201526a65726f206164647265737360a81b60648201526084015b60405180910390fd5b50600081815260cc602090815260408083206001600160a01b03861684529091529020545b92915050565b60006001600160e01b03198216636cdb3d1360e11b14806200068057506001600160e01b031982166303a24d0760e21b145b806200064857506301ffc9a760e01b6001600160e01b031983161462000648565b6033546001600160a01b0316336001600160a01b031614620006d75760405162461bcd60e51b81526004016200061a90620030d3565b6200071882828080601f0160208091040260200160405190810160405280939291908181526020018383808284376000920191909152506200187892505050565b5050565b606060ce80546200072d90620030fe565b80601f01602080910402602001604051908101604052809291908181526020018280546200075b90620030fe565b8015620007ac5780601f106200078057610100808354040283529160200191620007ac565b820191906000526020600020905b8154815290600101906020018083116200078e57829003601f168201915b50505050509050919050565b6033546001600160a01b0316336001600160a01b031614620007ee5760405162461bcd60e51b81526004016200061a90620030d3565b610131546040516001600160a01b038084169216907fe72eaf6addaa195f3c83095031dd08f3a96808dcf047babed1fe4e4f69d6c62290600090a361013180546001600160a01b0319166001600160a01b0392909216919091179055565b62000873335b6001600160a01b039081166000908152610132602052604090205416151590565b620008c36040518060400160405280600981526020016836b4b73a17b13ab93760b91b8152506040518060400160405280600b81526020016a13d3931657d3505492d15560aa1b8152506200188d565b90620008e45760405162461bcd60e51b81526004016200061a919062002b89565b50600082116200093460405180604001604052806004815260200163313ab93760e11b8152506040518060400160405280600b81526020016a414d4f554e545f5a45524f60a81b8152506200188d565b90620009555760405162461bcd60e51b81526004016200061a919062002b89565b5060006200097a335b83600381111562000973576200097362003135565b90620018bb565b90506200098984828562001687565b50505050565b6001600160a01b038516331480620009ae5750620009ae853362001520565b62000a175760405162461bcd60e51b815260206004820152603260248201527f455243313135353a207472616e736665722063616c6c6572206973206e6f74206044820152711bdddb995c881b9bdc88185c1c1c9bdd995960721b60648201526084016200061a565b62000a26858585858562001919565b5050505050565b600054610100900460ff1662000a4a5760005460ff161562000a4e565b303b155b62000ab35760405162461bcd60e51b815260206004820152602e60248201527f496e697469616c697a61626c653a20636f6e747261637420697320616c72656160448201526d191e481a5b9a5d1a585b1a5e995960921b60648201526084016200061a565b600054610100900460ff1615801562000ad6576000805461ffff19166101011790555b62000ae18762001b21565b62000aec8562001b63565b62000b2d83838080601f01602080910402602001604051908101604052809392919081815260200183838082843760009201919091525062001b9892505050565b62000b3762001bcd565b61013180546001600160a01b038089166001600160a01b031992831617909255603261013455603c61013555610130805492871692909116919091179055801562000b88576000805461ff00191690555b50505050505050565b600062000b9f8383620013ef565b1562000bf56040518060400160405280600c81526020016b18dc99585d1953585c9ad95d60a21b8152506040518060400160405280600d81526020016c4d41524b45545f45584953545360981b8152506200188d565b9062000c165760405162461bcd60e51b81526004016200061a919062002b89565b50306001600160a01b0316836001600160a01b0316141562000c7c6040518060400160405280600c81526020016b18dc99585d1953585c9ad95d60a21b815250604051806040016040528060078152602001661253959053125160ca1b8152506200188d565b9062000c9d5760405162461bcd60e51b81526004016200061a919062002b89565b50604080518082019091526001600160a01b038416815260208101839052600062000cc88562001bf9565b9050600081600181111562000ce15762000ce162003135565b141562000d77576040516331a9108f60e11b8152600481018590526000906001600160a01b03871690636352211e90602401602060405180830381865afa15801562000d31573d6000803e3d6000fd5b505050506040513d601f19601f8201168201806040525081019062000d5791906200314b565b6001600160a01b0316141562000d715762000d716200316b565b62000dfe565b62000d83858562001d7d565b62000ddb6040518060400160405280600c81526020016b18dc99585d1953585c9ad95d60a21b8152506040518060400160405280601081526020016f1393d397d1561254d511539517d3919560821b8152506200188d565b9062000dfc5760405162461bcd60e51b81526004016200061a919062002b89565b505b6040516bffffffffffffffffffffffff19606087901b166020820152603481018590524660548201526000906074016040516020818303038152906040528051906020012090508060405162000e54906200291d565b8190604051809103906000f590508015801562000e75573d6000803e3d6000fd5b506001600160a01b038781166000908152610133602090815260408083208a84529091529081902080546001600160a01b03191692841692831790555163b49dc74160e01b81529195509063b49dc7419062000eda9089908990879060040162003181565b600060405180830381600087803b15801562000ef557600080fd5b505af115801562000f0a573d6000803e3d6000fd5b505050506001600160a01b03848116600081815261013260209081526040808320885181546001600160a01b031916908716178155918801516001909201919091555188938a1692917fab80d4f237153664013aad30815c82af95ab8234bfb2d63a6518a3656e4d3a8c91a450505092915050565b6033546001600160a01b0316336001600160a01b03161462000fb55760405162461bcd60e51b81526004016200061a90620030d3565b62000fc08162001e30565b6040516001600160a01b038216907fbc7cd75a20ee27fd9adebab32041f755214dbc6bffa90cc0225b39da2e5c2d3b90600090a250565b606081518351146200105e5760405162461bcd60e51b815260206004820152602960248201527f455243313135353a206163636f756e747320616e6420696473206c656e677468604482015268040dad2e6dac2e8c6d60bb1b60648201526084016200061a565b6000835167ffffffffffffffff8111156200107d576200107d62002c08565b604051908082528060200260200182016040528015620010a7578160200160208202803683370190505b50905060005b84518110156200112e57620010fb858281518110620010d057620010d0620031b9565b6020026020010151858381518110620010ed57620010ed620031b9565b6020026020010151620005b1565b828281518110620011105762001110620031b9565b60209081029190910101526200112681620031e5565b9050620010ad565b509392505050565b6034546001600160a01b0316336001600160a01b0316146200119b5760405162461bcd60e51b815260206004820152601960248201527f4f776e65643a206e6f742070726f706f736564206f776e65720000000000000060448201526064016200061a565b6034546033546040516001600160a01b0392831692909116907f8be0079c531659141344cd1fd0a4f28419497f9722a3daafe3b4186f6b6457e090600090a3603454603380546001600160a01b0319166001600160a01b03909216919091179055565b620012093362000852565b620012596040518060400160405280600981526020016836b4b73a17b13ab93760b91b8152506040518060400160405280600b81526020016a13d3931657d3505492d15560aa1b8152506200188d565b906200127a5760405162461bcd60e51b81526004016200061a919062002b89565b50600082116200128e576200128e6200316b565b60006200129b336200095e565b9050620009898482856040518060200160405280600081525062001ec7565b6033546001600160a01b0316336001600160a01b031614620012f05760405162461bcd60e51b81526004016200061a90620030d3565b60c8811115620012ff57600080fd5b610134546040518291907f528d9479e9f9889a87a3c30c7f7ba537e5e59c4c85a37733b16e57c62df6130290600090a361013455565b6000620013438383620013ef565b620013a36040518060400160405280600f81526020016e19d95d13585c9ad95d119bdc939195608a1b8152506040518060400160405280601581526020017413505492d15517d113d154d7d393d517d1561254d5605a1b8152506200188d565b90620013c45760405162461bcd60e51b81526004016200061a919062002b89565b50506001600160a01b0391821660009081526101336020908152604080832093835292905220541690565b6001600160a01b03918216600090815261013360209081526040808320938352929052205416151590565b6200071833838362001fe5565b6033546001600160a01b0316336001600160a01b0316146200145d5760405162461bcd60e51b81526004016200061a90620030d3565b603480546001600160a01b0319166001600160a01b03838116918217909255603354604051919216907fb51454ce8c7f26becd312a46c4815553887f2ec876a0b8dc813b87f62edf6f8090600090a350565b620014ca33610130546001600160a01b0316903084620020c8565b620014e8336000836040518060200160405280600081525062001ec7565b60405181815233907fe1fffcc4923d04b559f4d29a8bfc6cda04eb5b0d3c460751c2402c5c5cc9109c9060200160405180910390a250565b6001600160a01b0380821660009081526101326020526040812054909116156200154d5750600162000648565b6001600160a01b03808416600090815260cd602090815260408083209386168352929052205460ff165b9392505050565b6001600160a01b0385163314806200159d57506200159d853362001520565b620015fd5760405162461bcd60e51b815260206004820152602960248201527f455243313135353a2063616c6c6572206973206e6f74206f776e6572206e6f7260448201526808185c1c1c9bdd995960ba1b60648201526084016200061a565b62000a26858585858562002102565b6033546001600160a01b0316336001600160a01b031614620016425760405162461bcd60e51b81526004016200061a90620030d3565b60058110156200165157600080fd5b610135546040518291907faac6955cc7efbbb5f128eda6f8cd3e32b254620ddc8880761e40575296cff79690600090a361013555565b6001600160a01b038316620016eb5760405162461bcd60e51b815260206004820152602360248201527f455243313135353a206275726e2066726f6d20746865207a65726f206164647260448201526265737360e81b60648201526084016200061a565b336200172081856000620016ff8762002227565b6200170a8762002227565b6040518060200160405280600081525062002275565b600083815260cc602090815260408083206001600160a01b038816845290915290205482811015620017a15760405162461bcd60e51b8152602060048201526024808201527f455243313135353a206275726e20616d6f756e7420657863656564732062616c604482015263616e636560e01b60648201526084016200061a565b600084815260cc602090815260408083206001600160a01b03898116808652918452828520888703905582518981529384018890529092908616917fc3d58168c5ae7397731d063d5bbf3d657854427343f4c083240f7aacaa2d0f62910160405180910390a45050505050565b6040516001600160a01b0383166024820152604481018290526200187390849063a9059cbb60e01b906064015b60408051601f198184030181529190526020810180516001600160e01b03166001600160e01b0319909316929092179091526200239b565b505050565b8051620007189060ce9060208401906200292b565b60608282604051602001620018a492919062003203565b604051602081830303815290604052905092915050565b600080836003811115620018d357620018d362003135565b1415620018e35750600062000648565b468284604051602001620018fa939291906200325f565b60408051601f1981840301815291905280516020909101209392505050565b81518351146200197d5760405162461bcd60e51b815260206004820152602860248201527f455243313135353a2069647320616e6420616d6f756e7473206c656e677468206044820152670dad2e6dac2e8c6d60c31b60648201526084016200061a565b6001600160a01b038416620019a65760405162461bcd60e51b81526004016200061a90620032a4565b33620019b781878787878762002275565b60005b845181101562001aaf576000858281518110620019db57620019db620031b9565b602002602001015190506000858381518110620019fc57620019fc620031b9565b602090810291909101810151600084815260cc835260408082206001600160a01b038e16835290935291909120549091508181101562001a505760405162461bcd60e51b81526004016200061a90620032e9565b600083815260cc602090815260408083206001600160a01b038e8116855292528083208585039055908b1682528120805484929062001a9190849062003333565b925050819055505050508062001aa790620031e5565b9050620019ba565b50846001600160a01b0316866001600160a01b0316826001600160a01b03167f4a39dc06d4c0dbc64b70af90fd698a233a518aa5d07e595d983b8c0526c8f7fb878760405162001b019291906200334e565b60405180910390a462001b1981878787878762002474565b505050505050565b600054610100900460ff1662001b4b5760405162461bcd60e51b81526004016200061a9062003380565b62001b5562001bcd565b62001b6081620025e4565b50565b600054610100900460ff1662001b8d5760405162461bcd60e51b81526004016200061a9062003380565b62001b60816200265a565b600054610100900460ff1662001bc25760405162461bcd60e51b81526004016200061a9062003380565b62001b60816200268f565b600054610100900460ff1662001bf75760405162461bcd60e51b81526004016200061a9062003380565b565b6040516301ffc9a760e01b81526380ac58cd60e01b600482015260009082906001600160a01b038216906301ffc9a790602401602060405180830381865afa15801562001c4a573d6000803e3d6000fd5b505050506040513d601f19601f8201168201806040525081019062001c709190620033cb565b1562001c7f5750600092915050565b6040516301ffc9a760e01b8152636cdb3d1360e11b60048201526001600160a01b038216906301ffc9a790602401602060405180830381865afa15801562001ccb573d6000803e3d6000fd5b505050506040513d601f19601f8201168201806040525081019062001cf19190620033cb565b1562001d005750600192915050565b62001d5c6040518060400160405280600c81526020016b18dc99585d1953585c9ad95d60a21b81525060405180604001604052806014815260200173155394d5541413d495115117d0d3d395149050d560621b8152506200188d565b60405162461bcd60e51b81526004016200061a919062002b89565b50919050565b60405163bd85b03960e01b8152600481018290526000906001600160a01b0384169063bd85b03990602401602060405180830381865afa92505050801562001de4575060408051601f3d908101601f1916820190925262001de191810190620033eb565b60015b62001e26573d80801562001e15576040519150601f19603f3d011682016040523d82523d6000602084013e62001e1a565b606091505b50600191505062000648565b1515905062000648565b6001600160a01b0381163b62001ea55760405162461bcd60e51b815260206004820152603360248201527f426561636f6e5570677261646561626c653a20696d706c656d656e746174696f6044820152721b881a5cc81b9bdd08184818dbdb9d1c9858dd606a1b60648201526084016200061a565b606780546001600160a01b0319166001600160a01b0392909216919091179055565b6001600160a01b03841662001f295760405162461bcd60e51b815260206004820152602160248201527f455243313135353a206d696e7420746f20746865207a65726f206164647265736044820152607360f81b60648201526084016200061a565b3362001f4f8160008762001f3d8862002227565b62001f488862002227565b8762002275565b600084815260cc602090815260408083206001600160a01b03891684529091528120805485929062001f8390849062003333565b909155505060408051858152602081018590526001600160a01b0380881692600092918516917fc3d58168c5ae7397731d063d5bbf3d657854427343f4c083240f7aacaa2d0f62910160405180910390a462000a2681600087878787620026c4565b816001600160a01b0316836001600160a01b031614156200205b5760405162461bcd60e51b815260206004820152602960248201527f455243313135353a2073657474696e6720617070726f76616c20737461747573604482015268103337b91039b2b63360b91b60648201526084016200061a565b6001600160a01b03838116600081815260cd6020908152604080832094871680845294825291829020805460ff191686151590811790915591519182527f17307eab39ab6107e8899845ad3d59bd9653f200f220920489ca2b5937696c31910160405180910390a3505050565b6040516001600160a01b0380851660248301528316604482015260648101829052620009899085906323b872dd60e01b906084016200183b565b6001600160a01b0384166200212b5760405162461bcd60e51b81526004016200061a90620032a4565b336200213e81878762001f3d8862002227565b600084815260cc602090815260408083206001600160a01b038a16845290915290205483811015620021845760405162461bcd60e51b81526004016200061a90620032e9565b600085815260cc602090815260408083206001600160a01b038b8116855292528083208785039055908816825281208054869290620021c590849062003333565b909155505060408051868152602081018690526001600160a01b03808916928a821692918616917fc3d58168c5ae7397731d063d5bbf3d657854427343f4c083240f7aacaa2d0f62910160405180910390a462000b88828888888888620026c4565b60408051600180825281830190925260609160009190602080830190803683370190505090508281600081518110620022645762002264620031b9565b602090810291909101015292915050565b6001600160a01b038516620023095760005b83518110156200230757828181518110620022a657620022a6620031b9565b602002602001015160fe6000868481518110620022c757620022c7620031b9565b602002602001015181526020019081526020016000206000828254620022ee919062003333565b90915550620022ff905081620031e5565b905062002287565b505b6001600160a01b03841662001b195760005b835181101562000b88578281815181106200233a576200233a620031b9565b602002602001015160fe60008684815181106200235b576200235b620031b9565b60200260200101518152602001908152602001600020600082825462002382919062003405565b9091555062002393905081620031e5565b90506200231b565b6000620023f2826040518060400160405280602081526020017f5361666545524332303a206c6f772d6c6576656c2063616c6c206661696c6564815250856001600160a01b03166200278b9092919063ffffffff16565b805190915015620018735780806020019051810190620024139190620033cb565b620018735760405162461bcd60e51b815260206004820152602a60248201527f5361666545524332303a204552433230206f7065726174696f6e20646964206e6044820152691bdd081cdd58d8d9595960b21b60648201526084016200061a565b6001600160a01b0384163b1562001b195760405163bc197c8160e01b81526001600160a01b0385169063bc197c8190620024bb90899089908890889088906004016200341f565b6020604051808303816000875af1925050508015620024f9575060408051601f3d908101601f19168201909252620024f69181019062003483565b60015b620025b15762002508620034a3565b806308c379a0141562002549575062002520620034c0565b806200252d57506200254b565b8060405162461bcd60e51b81526004016200061a919062002b89565b505b60405162461bcd60e51b815260206004820152603460248201527f455243313135353a207472616e7366657220746f206e6f6e20455243313135356044820152732932b1b2b4bb32b91034b6b83632b6b2b73a32b960611b60648201526084016200061a565b6001600160e01b0319811663bc197c8160e01b1462000b885760405162461bcd60e51b81526004016200061a9062003550565b600054610100900460ff166200260e5760405162461bcd60e51b81526004016200061a9062003380565b603380546001600160a01b0319166001600160a01b0383169081179091556040516000907f8be0079c531659141344cd1fd0a4f28419497f9722a3daafe3b4186f6b6457e0908290a350565b600054610100900460ff16620026845760405162461bcd60e51b81526004016200061a9062003380565b62001b608162001e30565b600054610100900460ff16620026b95760405162461bcd60e51b81526004016200061a9062003380565b62001b608162001878565b6001600160a01b0384163b1562001b195760405163f23a6e6160e01b81526001600160a01b0385169063f23a6e61906200270b908990899088908890889060040162003598565b6020604051808303816000875af192505050801562002749575060408051601f3d908101601f19168201909252620027469181019062003483565b60015b620027585762002508620034a3565b6001600160e01b0319811663f23a6e6160e01b1462000b885760405162461bcd60e51b81526004016200061a9062003550565b60606200279c8484600085620027a4565b949350505050565b606082471015620028075760405162461bcd60e51b815260206004820152602660248201527f416464726573733a20696e73756666696369656e742062616c616e636520666f6044820152651c8818d85b1b60d21b60648201526084016200061a565b6001600160a01b0385163b620028605760405162461bcd60e51b815260206004820152601d60248201527f416464726573733a2063616c6c20746f206e6f6e2d636f6e747261637400000060448201526064016200061a565b600080866001600160a01b031685876040516200287e9190620035d4565b60006040518083038185875af1925050503d8060008114620028bd576040519150601f19603f3d011682016040523d82523d6000602084013e620028c2565b606091505b5091509150620028d4828286620028df565b979650505050505050565b60608315620028f057508162001577565b825115620029015782518084602001fd5b8160405162461bcd60e51b81526004016200061a919062002b89565b6102b680620035f383390190565b8280546200293990620030fe565b90600052602060002090601f0160209004810192826200295d5760008555620029a8565b82601f106200297857805160ff1916838001178555620029a8565b82800160010185558215620029a8579182015b82811115620029a85782518255916020019190600101906200298b565b50620029b6929150620029ba565b5090565b5b80821115620029b65760008155600101620029bb565b6001600160a01b038116811462001b6057600080fd5b60008060408385031215620029fb57600080fd5b82359150602083013562002a0f81620029d1565b809150509250929050565b6000806040838503121562002a2e57600080fd5b823562002a3b81620029d1565b946020939093013593505050565b6001600160e01b03198116811462001b6057600080fd5b60006020828403121562002a7357600080fd5b8135620015778162002a49565b60008083601f84011262002a9357600080fd5b50813567ffffffffffffffff81111562002aac57600080fd5b60208301915083602082850101111562002ac557600080fd5b9250929050565b6000806020838503121562002ae057600080fd5b823567ffffffffffffffff81111562002af857600080fd5b62002b068582860162002a80565b90969095509350505050565b60006020828403121562002b2557600080fd5b5035919050565b60005b8381101562002b4957818101518382015260200162002b2f565b83811115620009895750506000910152565b6000815180845262002b7581602086016020860162002b2c565b601f01601f19169290920160200192915050565b60208152600062001577602083018462002b5b565b60006020828403121562002bb157600080fd5b81356200157781620029d1565b60008060006060848603121562002bd457600080fd5b833562002be181620029d1565b92506020840135915060408401356004811062002bfd57600080fd5b809150509250925092565b634e487b7160e01b600052604160045260246000fd5b601f8201601f1916810167ffffffffffffffff8111828210171562002c475762002c4762002c08565b6040525050565b600067ffffffffffffffff82111562002c6b5762002c6b62002c08565b5060051b60200190565b600082601f83011262002c8757600080fd5b8135602062002c968262002c4e565b60405162002ca5828262002c1e565b83815260059390931b850182019282810191508684111562002cc657600080fd5b8286015b8481101562002ce3578035835291830191830162002cca565b509695505050505050565b600082601f83011262002d0057600080fd5b813567ffffffffffffffff81111562002d1d5762002d1d62002c08565b60405162002d36601f8301601f19166020018262002c1e565b81815284602083860101111562002d4c57600080fd5b816020850160208301376000918101602001919091529392505050565b600080600080600060a0868803121562002d8257600080fd5b853562002d8f81620029d1565b9450602086013562002da181620029d1565b9350604086013567ffffffffffffffff8082111562002dbf57600080fd5b62002dcd89838a0162002c75565b9450606088013591508082111562002de457600080fd5b62002df289838a0162002c75565b9350608088013591508082111562002e0957600080fd5b5062002e188882890162002cee565b9150509295509295909350565b60008060008060008060a0878903121562002e3f57600080fd5b863562002e4c81620029d1565b9550602087013562002e5e81620029d1565b9450604087013562002e7081620029d1565b9350606087013562002e8281620029d1565b9250608087013567ffffffffffffffff81111562002e9f57600080fd5b62002ead89828a0162002a80565b979a9699509497509295939492505050565b6000806040838503121562002ed357600080fd5b823567ffffffffffffffff8082111562002eec57600080fd5b818501915085601f83011262002f0157600080fd5b8135602062002f108262002c4e565b60405162002f1f828262002c1e565b83815260059390931b850182019282810191508984111562002f4057600080fd5b948201945b8386101562002f6b57853562002f5b81620029d1565b8252948201949082019062002f45565b9650508601359250508082111562002f8257600080fd5b5062002f918582860162002c75565b9150509250929050565b600081518084526020808501945080840160005b8381101562002fcd5781518752958201959082019060010162002faf565b509495945050505050565b60208152600062001577602083018462002f9b565b801515811462001b6057600080fd5b600080604083850312156200301057600080fd5b82356200301d81620029d1565b9150602083013562002a0f8162002fed565b600080604083850312156200304357600080fd5b82356200305081620029d1565b9150602083013562002a0f81620029d1565b600080600080600060a086880312156200307b57600080fd5b85356200308881620029d1565b945060208601356200309a81620029d1565b93506040860135925060608601359150608086013567ffffffffffffffff811115620030c557600080fd5b62002e188882890162002cee565b60208082526011908201527027bbb732b21d1027a7262cafa7aba722a960791b604082015260600190565b600181811c908216806200311357607f821691505b6020821081141562001d7757634e487b7160e01b600052602260045260246000fd5b634e487b7160e01b600052602160045260246000fd5b6000602082840312156200315e57600080fd5b81516200157781620029d1565b634e487b7160e01b600052600160045260246000fd5b6001600160a01b0384168152602081018390526060810160028310620031ab57620031ab62003135565b826040830152949350505050565b634e487b7160e01b600052603260045260246000fd5b634e487b7160e01b600052601160045260246000fd5b6000600019821415620031fc57620031fc620031cf565b5060010190565b6e50695377617052656769737472792360881b8152600083516200322f81600f85016020880162002b2c565b6101d160f51b600f9184019182015283516200325381601184016020880162002b2c565b01601101949350505050565b8381526bffffffffffffffffffffffff198360601b1660208201526000600483106200328f576200328f62003135565b5060f89190911b603482015260350192915050565b60208082526025908201527f455243313135353a207472616e7366657220746f20746865207a65726f206164604082015264647265737360d81b606082015260800190565b6020808252602a908201527f455243313135353a20696e73756666696369656e742062616c616e636520666f60408201526939103a3930b739b332b960b11b606082015260800190565b60008219821115620033495762003349620031cf565b500190565b60408152600062003363604083018562002f9b565b828103602084015262003377818562002f9b565b95945050505050565b6020808252602b908201527f496e697469616c697a61626c653a20636f6e7472616374206973206e6f74206960408201526a6e697469616c697a696e6760a81b606082015260800190565b600060208284031215620033de57600080fd5b8151620015778162002fed565b600060208284031215620033fe57600080fd5b5051919050565b6000828210156200341a576200341a620031cf565b500390565b6001600160a01b0386811682528516602082015260a0604082018190526000906200344d9083018662002f9b565b828103606084015262003461818662002f9b565b9050828103608084015262003477818562002b5b565b98975050505050505050565b6000602082840312156200349657600080fd5b8151620015778162002a49565b600060033d1115620034bd5760046000803e5060005160e01c5b90565b600060443d1015620034cf5790565b6040516003193d81016004833e81513d67ffffffffffffffff81602484011181841117156200350057505050505090565b8285019150815181811115620035195750505050505090565b843d8701016020828501011115620035345750505050505090565b620035456020828601018762002c1e565b509095945050505050565b60208082526028908201527f455243313135353a204552433131353552656365697665722072656a656374656040820152676420746f6b656e7360c01b606082015260800190565b6001600160a01b03868116825285166020820152604081018490526060810183905260a060808201819052600090620028d49083018462002b5b565b60008251620035e881846020870162002b2c565b919091019291505056fe60a060405234801561001057600080fd5b503360808190523b6100775760405162461bcd60e51b815260206004820152602560248201527f455243313936373a206e657720626561636f6e206973206e6f74206120636f6e6044820152641d1c9858dd60da1b60648201526084015b60405180910390fd5b6100e46080516001600160a01b0316635c60da1b6040518163ffffffff1660e01b8152600401602060405180830381865afa1580156100ba573d6000803e3d6000fd5b505050506040513d601f19601f820116820180604052508101906100de919061014e565b3b151590565b6101495760405162461bcd60e51b815260206004820152603060248201527f455243313936373a20626561636f6e20696d706c656d656e746174696f6e206960448201526f1cc81b9bdd08184818dbdb9d1c9858dd60821b606482015260840161006e565b61017e565b60006020828403121561016057600080fd5b81516001600160a01b038116811461017757600080fd5b9392505050565b60805161011e61019860003960006014015261011e6000f3fe6080604052348015600f57600080fd5b5060957f00000000000000000000000000000000000000000000000000000000000000006001600160a01b0316635c60da1b6040518163ffffffff1660e01b8152600401602060405180830381865afa158015606f573d6000803e3d6000fd5b505050506040513d601f19601f820116820180604052508101906091919060ba565b6097565b005b3660008037600080366000845af43d6000803e80801560b5573d6000f35b3d6000fd5b60006020828403121560cb57600080fd5b81516001600160a01b038116811460e157600080fd5b939250505056fea2646970667358221220cacf6bd885403f2067c118a295136a2a641efd96144ce8f65bf447eb6407c6c564736f6c634300080b0033a2646970667358221220d827dbc377a83a61f1882497e587386030fa0d83215afa3a9177e16b8eacb7d264736f6c634300080b0033",
  "linkReferences": {},
  "deployedLinkReferences": {}
}