{
  "_format": "hh-sol-artifact-1",
  "contractName": "PiSwapMarket",
  "sourceName": "contracts/PiSwapMarket.sol",
  "abi": [
    {
      "anonymous": false,
      "inputs": [
        {
          "indexed": true,
          "internalType": "address",
          "name": "sender",
          "type": "address"
        },
        {
          "indexed": true,
          "internalType": "address",
          "name": "to",
          "type": "address"
        },
        {
          "indexed": false,
          "internalType": "uint256",
          "name": "amountIn",
          "type": "uint256"
        },
        {
          "indexed": false,
          "internalType": "uint256",
          "name": "amountOut",
          "type": "uint256"
        }
      ],
      "name": "Burned",
      "type": "event"
    },
    {
      "anonymous": false,
      "inputs": [
        {
          "indexed": true,
          "internalType": "address",
          "name": "sender",
          "type": "address"
        },
        {
          "indexed": true,
          "internalType": "address",
          "name": "to",
          "type": "address"
        },
        {
          "indexed": false,
          "internalType": "uint256",
          "name": "liquidityMinted",
          "type": "uint256"
        },
        {
          "indexed": false,
          "internalType": "uint256",
          "name": "amountEth",
          "type": "uint256"
        },
        {
          "indexed": false,
          "internalType": "uint256",
          "name": "amountBull",
          "type": "uint256"
        },
        {
          "indexed": false,
          "internalType": "uint256",
          "name": "amountBear",
          "type": "uint256"
        }
      ],
      "name": "LiquidityAdded",
      "type": "event"
    },
    {
      "anonymous": false,
      "inputs": [
        {
          "indexed": true,
          "internalType": "address",
          "name": "sender",
          "type": "address"
        },
        {
          "indexed": true,
          "internalType": "address",
          "name": "to",
          "type": "address"
        },
        {
          "indexed": false,
          "internalType": "uint256",
          "name": "liquidityBurned",
          "type": "uint256"
        },
        {
          "indexed": false,
          "internalType": "uint256",
          "name": "amountEth",
          "type": "uint256"
        },
        {
          "indexed": false,
          "internalType": "uint256",
          "name": "amountBull",
          "type": "uint256"
        },
        {
          "indexed": false,
          "internalType": "uint256",
          "name": "amountBear",
          "type": "uint256"
        }
      ],
      "name": "LiquidityRemoved",
      "type": "event"
    },
    {
      "anonymous": false,
      "inputs": [
        {
          "indexed": true,
          "internalType": "address",
          "name": "sender",
          "type": "address"
        },
        {
          "indexed": true,
          "internalType": "address",
          "name": "to",
          "type": "address"
        },
        {
          "indexed": false,
          "internalType": "uint256",
          "name": "amountIn",
          "type": "uint256"
        },
        {
          "indexed": false,
          "internalType": "uint256",
          "name": "amountOut",
          "type": "uint256"
        }
      ],
      "name": "Minted",
      "type": "event"
    },
    {
      "anonymous": false,
      "inputs": [
        {
          "indexed": true,
          "internalType": "address",
          "name": "sender",
          "type": "address"
        },
        {
          "indexed": true,
          "internalType": "address",
          "name": "to",
          "type": "address"
        },
        {
          "indexed": false,
          "internalType": "uint256",
          "name": "price",
          "type": "uint256"
        },
        {
          "indexed": false,
          "internalType": "uint256",
          "name": "amount",
          "type": "uint256"
        }
      ],
      "name": "NFTPurchased",
      "type": "event"
    },
    {
      "anonymous": false,
      "inputs": [
        {
          "indexed": true,
          "internalType": "address",
          "name": "sender",
          "type": "address"
        },
        {
          "indexed": true,
          "internalType": "address",
          "name": "to",
          "type": "address"
        },
        {
          "indexed": false,
          "internalType": "uint256",
          "name": "price",
          "type": "uint256"
        },
        {
          "indexed": false,
          "internalType": "uint256",
          "name": "amount",
          "type": "uint256"
        }
      ],
      "name": "NFTSold",
      "type": "event"
    },
    {
      "anonymous": false,
      "inputs": [
        {
          "indexed": false,
          "internalType": "uint256",
          "name": "price",
          "type": "uint256"
        },
        {
          "indexed": false,
          "internalType": "uint256",
          "name": "timestamp",
          "type": "uint256"
        }
      ],
      "name": "PriceRegistered",
      "type": "event"
    },
    {
      "anonymous": false,
      "inputs": [
        {
          "indexed": true,
          "internalType": "address",
          "name": "receiver",
          "type": "address"
        },
        {
          "indexed": false,
          "internalType": "uint256",
          "name": "amount",
          "type": "uint256"
        }
      ],
      "name": "RoyaltyPaid",
      "type": "event"
    },
    {
      "anonymous": false,
      "inputs": [
        {
          "indexed": true,
          "internalType": "address",
          "name": "sender",
          "type": "address"
        },
        {
          "indexed": true,
          "internalType": "address",
          "name": "to",
          "type": "address"
        },
        {
          "indexed": false,
          "internalType": "enum TokenType",
          "name": "tokenIn",
          "type": "uint8"
        },
        {
          "indexed": false,
          "internalType": "enum TokenType",
          "name": "tokenOut",
          "type": "uint8"
        },
        {
          "indexed": false,
          "internalType": "uint256",
          "name": "amountIn",
          "type": "uint256"
        },
        {
          "indexed": false,
          "internalType": "uint256",
          "name": "amountOut",
          "type": "uint256"
        }
      ],
      "name": "Swapped",
      "type": "event"
    },
    {
      "inputs": [
        {
          "components": [
            {
              "internalType": "uint256",
              "name": "amountEth",
              "type": "uint256"
            },
            {
              "internalType": "uint256",
              "name": "minLiquidity",
              "type": "uint256"
            },
            {
              "internalType": "uint256",
              "name": "maxBull",
              "type": "uint256"
            },
            {
              "internalType": "uint256",
              "name": "maxBear",
              "type": "uint256"
            },
            {
              "internalType": "bool",
              "name": "useWeth",
              "type": "bool"
            },
            {
              "internalType": "address",
              "name": "to",
              "type": "address"
            },
            {
              "internalType": "uint256",
              "name": "deadline",
              "type": "uint256"
            },
            {
              "internalType": "bytes",
              "name": "userData",
              "type": "bytes"
            }
          ],
          "internalType": "struct Arguments.AddLiquidity",
          "name": "args",
          "type": "tuple"
        }
      ],
      "name": "addLiquidity",
      "outputs": [
        {
          "internalType": "uint256",
          "name": "liquidityMinted",
          "type": "uint256"
        },
        {
          "internalType": "uint256",
          "name": "amountBull",
          "type": "uint256"
        },
        {
          "internalType": "uint256",
          "name": "amountBear",
          "type": "uint256"
        }
      ],
      "stateMutability": "nonpayable",
      "type": "function"
    },
    {
      "inputs": [
        {
          "components": [
            {
              "internalType": "uint256",
              "name": "amount",
              "type": "uint256"
            },
            {
              "internalType": "enum SwapKind",
              "name": "kind",
              "type": "uint8"
            },
            {
              "internalType": "bool",
              "name": "useWeth",
              "type": "bool"
            },
            {
              "internalType": "address",
              "name": "to",
              "type": "address"
            },
            {
              "internalType": "uint256",
              "name": "slippage",
              "type": "uint256"
            },
            {
              "internalType": "uint256",
              "name": "deadline",
              "type": "uint256"
            },
            {
              "internalType": "bytes",
              "name": "userData",
              "type": "bytes"
            }
          ],
          "internalType": "struct Arguments.Burn",
          "name": "args",
          "type": "tuple"
        }
      ],
      "name": "burn",
      "outputs": [
        {
          "internalType": "uint256",
          "name": "amountIn",
          "type": "uint256"
        },
        {
          "internalType": "uint256",
          "name": "amountOut",
          "type": "uint256"
        }
      ],
      "stateMutability": "nonpayable",
      "type": "function"
    },
    {
      "inputs": [
        {
          "internalType": "uint256",
          "name": "amountOut",
          "type": "uint256"
        }
      ],
      "name": "burnInGivenOut",
      "outputs": [
        {
          "internalType": "uint256",
          "name": "amountIn",
          "type": "uint256"
        }
      ],
      "stateMutability": "view",
      "type": "function"
    },
    {
      "inputs": [
        {
          "internalType": "uint256",
          "name": "amountIn",
          "type": "uint256"
        }
      ],
      "name": "burnOutGivenIn",
      "outputs": [
        {
          "internalType": "uint256",
          "name": "amountOut",
          "type": "uint256"
        }
      ],
      "stateMutability": "view",
      "type": "function"
    },
    {
      "inputs": [
        {
          "components": [
            {
              "internalType": "uint256",
              "name": "amount",
              "type": "uint256"
            },
            {
              "internalType": "bool",
              "name": "useWeth",
              "type": "bool"
            },
            {
              "internalType": "address",
              "name": "to",
              "type": "address"
            },
            {
              "internalType": "uint256",
              "name": "slippage",
              "type": "uint256"
            },
            {
              "internalType": "uint256",
              "name": "deadline",
              "type": "uint256"
            },
            {
              "internalType": "bytes",
              "name": "userData",
              "type": "bytes"
            }
          ],
          "internalType": "struct Arguments.NFTSwap",
          "name": "args",
          "type": "tuple"
        }
      ],
      "name": "buyNFT",
      "outputs": [
        {
          "internalType": "bool",
          "name": "",
          "type": "bool"
        }
      ],
      "stateMutability": "nonpayable",
      "type": "function"
    },
    {
      "inputs": [],
      "name": "depositedEth",
      "outputs": [
        {
          "internalType": "uint256",
          "name": "",
          "type": "uint256"
        }
      ],
      "stateMutability": "view",
      "type": "function"
    },
    {
      "inputs": [
        {
          "internalType": "uint256",
          "name": "index",
          "type": "uint256"
        }
      ],
      "name": "getOracleEntry",
      "outputs": [
        {
          "internalType": "uint256",
          "name": "price",
          "type": "uint256"
        },
        {
          "internalType": "uint256",
          "name": "timestamp",
          "type": "uint256"
        }
      ],
      "stateMutability": "view",
      "type": "function"
    },
    {
      "inputs": [
        {
          "internalType": "enum TokenType",
          "name": "tokenType",
          "type": "uint8"
        }
      ],
      "name": "getReserve",
      "outputs": [
        {
          "internalType": "uint256",
          "name": "reserve",
          "type": "uint256"
        }
      ],
      "stateMutability": "view",
      "type": "function"
    },
    {
      "inputs": [
        {
          "internalType": "address",
          "name": "tokenAddress",
          "type": "address"
        },
        {
          "internalType": "uint256",
          "name": "tokenId",
          "type": "uint256"
        },
        {
          "internalType": "enum NFTType",
          "name": "nftType",
          "type": "uint8"
        }
      ],
      "name": "initialize",
      "outputs": [],
      "stateMutability": "nonpayable",
      "type": "function"
    },
    {
      "inputs": [],
      "name": "lockedEth",
      "outputs": [
        {
          "internalType": "uint256",
          "name": "",
          "type": "uint256"
        }
      ],
      "stateMutability": "view",
      "type": "function"
    },
    {
      "inputs": [
        {
          "components": [
            {
              "internalType": "uint256",
              "name": "amount",
              "type": "uint256"
            },
            {
              "internalType": "enum SwapKind",
              "name": "kind",
              "type": "uint8"
            },
            {
              "internalType": "bool",
              "name": "useWeth",
              "type": "bool"
            },
            {
              "internalType": "address",
              "name": "to",
              "type": "address"
            },
            {
              "internalType": "uint256",
              "name": "slippage",
              "type": "uint256"
            },
            {
              "internalType": "uint256",
              "name": "deadline",
              "type": "uint256"
            },
            {
              "internalType": "bytes",
              "name": "userData",
              "type": "bytes"
            }
          ],
          "internalType": "struct Arguments.Mint",
          "name": "args",
          "type": "tuple"
        }
      ],
      "name": "mint",
      "outputs": [
        {
          "internalType": "uint256",
          "name": "amountIn",
          "type": "uint256"
        },
        {
          "internalType": "uint256",
          "name": "amountOut",
          "type": "uint256"
        }
      ],
      "stateMutability": "nonpayable",
      "type": "function"
    },
    {
      "inputs": [
        {
          "internalType": "uint256",
          "name": "amountOut",
          "type": "uint256"
        }
      ],
      "name": "mintInGivenOut",
      "outputs": [
        {
          "internalType": "uint256",
          "name": "amountIn",
          "type": "uint256"
        }
      ],
      "stateMutability": "view",
      "type": "function"
    },
    {
      "inputs": [
        {
          "internalType": "uint256",
          "name": "amountIn",
          "type": "uint256"
        }
      ],
      "name": "mintOutGivenIn",
      "outputs": [
        {
          "internalType": "uint256",
          "name": "amountOut",
          "type": "uint256"
        }
      ],
      "stateMutability": "view",
      "type": "function"
    },
    {
      "inputs": [],
      "name": "nftValue",
      "outputs": [
        {
          "internalType": "uint256",
          "name": "",
          "type": "uint256"
        }
      ],
      "stateMutability": "view",
      "type": "function"
    },
    {
      "inputs": [],
      "name": "nftValueAccumulated",
      "outputs": [
        {
          "internalType": "uint256",
          "name": "",
          "type": "uint256"
        }
      ],
      "stateMutability": "view",
      "type": "function"
    },
    {
      "inputs": [
        {
          "internalType": "uint256",
          "name": "amount",
          "type": "uint256"
        }
      ],
      "name": "nftValueAvg",
      "outputs": [
        {
          "internalType": "uint256",
          "name": "",
          "type": "uint256"
        }
      ],
      "stateMutability": "view",
      "type": "function"
    },
    {
      "inputs": [
        {
          "internalType": "address",
          "name": "",
          "type": "address"
        },
        {
          "internalType": "address",
          "name": "",
          "type": "address"
        },
        {
          "internalType": "uint256[]",
          "name": "",
          "type": "uint256[]"
        },
        {
          "internalType": "uint256[]",
          "name": "",
          "type": "uint256[]"
        },
        {
          "internalType": "bytes",
          "name": "",
          "type": "bytes"
        }
      ],
      "name": "onERC1155BatchReceived",
      "outputs": [
        {
          "internalType": "bytes4",
          "name": "",
          "type": "bytes4"
        }
      ],
      "stateMutability": "nonpayable",
      "type": "function"
    },
    {
      "inputs": [
        {
          "internalType": "address",
          "name": "",
          "type": "address"
        },
        {
          "internalType": "address",
          "name": "",
          "type": "address"
        },
        {
          "internalType": "uint256",
          "name": "tokenId",
          "type": "uint256"
        },
        {
          "internalType": "uint256",
          "name": "value",
          "type": "uint256"
        },
        {
          "internalType": "bytes",
          "name": "",
          "type": "bytes"
        }
      ],
      "name": "onERC1155Received",
      "outputs": [
        {
          "internalType": "bytes4",
          "name": "",
          "type": "bytes4"
        }
      ],
      "stateMutability": "nonpayable",
      "type": "function"
    },
    {
      "inputs": [
        {
          "internalType": "address",
          "name": "",
          "type": "address"
        },
        {
          "internalType": "address",
          "name": "",
          "type": "address"
        },
        {
          "internalType": "uint256",
          "name": "tokenId",
          "type": "uint256"
        },
        {
          "internalType": "bytes",
          "name": "",
          "type": "bytes"
        }
      ],
      "name": "onERC721Received",
      "outputs": [
        {
          "internalType": "bytes4",
          "name": "",
          "type": "bytes4"
        }
      ],
      "stateMutability": "nonpayable",
      "type": "function"
    },
    {
      "inputs": [],
      "name": "oracleLength",
      "outputs": [
        {
          "internalType": "uint256",
          "name": "",
          "type": "uint256"
        }
      ],
      "stateMutability": "view",
      "type": "function"
    },
    {
      "inputs": [],
      "name": "registry",
      "outputs": [
        {
          "internalType": "address",
          "name": "",
          "type": "address"
        }
      ],
      "stateMutability": "view",
      "type": "function"
    },
    {
      "inputs": [
        {
          "components": [
            {
              "internalType": "uint256",
              "name": "amountLiquidity",
              "type": "uint256"
            },
            {
              "internalType": "uint256",
              "name": "minEth",
              "type": "uint256"
            },
            {
              "internalType": "uint256",
              "name": "minBull",
              "type": "uint256"
            },
            {
              "internalType": "uint256",
              "name": "minBear",
              "type": "uint256"
            },
            {
              "internalType": "bool",
              "name": "useWeth",
              "type": "bool"
            },
            {
              "internalType": "address",
              "name": "to",
              "type": "address"
            },
            {
              "internalType": "uint256",
              "name": "deadline",
              "type": "uint256"
            },
            {
              "internalType": "bytes",
              "name": "userData",
              "type": "bytes"
            }
          ],
          "internalType": "struct Arguments.RemoveLiquidity",
          "name": "args",
          "type": "tuple"
        }
      ],
      "name": "removeLiquidity",
      "outputs": [
        {
          "internalType": "uint256",
          "name": "amountEth",
          "type": "uint256"
        },
        {
          "internalType": "uint256",
          "name": "amountBull",
          "type": "uint256"
        },
        {
          "internalType": "uint256",
          "name": "amountBear",
          "type": "uint256"
        }
      ],
      "stateMutability": "nonpayable",
      "type": "function"
    },
    {
      "inputs": [
        {
          "components": [
            {
              "internalType": "uint256",
              "name": "amount",
              "type": "uint256"
            },
            {
              "internalType": "bool",
              "name": "useWeth",
              "type": "bool"
            },
            {
              "internalType": "address",
              "name": "to",
              "type": "address"
            },
            {
              "internalType": "uint256",
              "name": "slippage",
              "type": "uint256"
            },
            {
              "internalType": "uint256",
              "name": "deadline",
              "type": "uint256"
            },
            {
              "internalType": "bytes",
              "name": "userData",
              "type": "bytes"
            }
          ],
          "internalType": "struct Arguments.NFTSwap",
          "name": "args",
          "type": "tuple"
        }
      ],
      "name": "sellNFT",
      "outputs": [
        {
          "internalType": "bool",
          "name": "",
          "type": "bool"
        }
      ],
      "stateMutability": "nonpayable",
      "type": "function"
    },
    {
      "inputs": [
        {
          "internalType": "bytes4",
          "name": "interfaceId",
          "type": "bytes4"
        }
      ],
      "name": "supportsInterface",
      "outputs": [
        {
          "internalType": "bool",
          "name": "",
          "type": "bool"
        }
      ],
      "stateMutability": "view",
      "type": "function"
    },
    {
      "inputs": [
        {
          "components": [
            {
              "internalType": "uint256",
              "name": "amount",
              "type": "uint256"
            },
            {
              "internalType": "enum TokenType",
              "name": "tokenIn",
              "type": "uint8"
            },
            {
              "internalType": "enum TokenType",
              "name": "tokenOut",
              "type": "uint8"
            },
            {
              "internalType": "enum SwapKind",
              "name": "kind",
              "type": "uint8"
            },
            {
              "internalType": "bool",
              "name": "useWeth",
              "type": "bool"
            },
            {
              "internalType": "address",
              "name": "to",
              "type": "address"
            },
            {
              "internalType": "uint256",
              "name": "slippage",
              "type": "uint256"
            },
            {
              "internalType": "uint256",
              "name": "deadline",
              "type": "uint256"
            },
            {
              "internalType": "bytes",
              "name": "userData",
              "type": "bytes"
            }
          ],
          "internalType": "struct Arguments.Swap",
          "name": "args",
          "type": "tuple"
        }
      ],
      "name": "swap",
      "outputs": [
        {
          "internalType": "uint256",
          "name": "amountIn",
          "type": "uint256"
        },
        {
          "internalType": "uint256",
          "name": "amountOut",
          "type": "uint256"
        }
      ],
      "stateMutability": "nonpayable",
      "type": "function"
    },
    {
      "inputs": [],
      "name": "swapEnabled",
      "outputs": [
        {
          "internalType": "bool",
          "name": "",
          "type": "bool"
        }
      ],
      "stateMutability": "view",
      "type": "function"
    },
    {
      "inputs": [
        {
          "internalType": "uint256",
          "name": "amountOut",
          "type": "uint256"
        },
        {
          "internalType": "enum TokenType",
          "name": "tokenIn",
          "type": "uint8"
        },
        {
          "internalType": "enum TokenType",
          "name": "tokenOut",
          "type": "uint8"
        }
      ],
      "name": "swapInGivenOut",
      "outputs": [
        {
          "internalType": "uint256",
          "name": "amountIn",
          "type": "uint256"
        }
      ],
      "stateMutability": "view",
      "type": "function"
    },
    {
      "inputs": [
        {
          "internalType": "uint256",
          "name": "amountIn",
          "type": "uint256"
        },
        {
          "internalType": "enum TokenType",
          "name": "tokenIn",
          "type": "uint8"
        },
        {
          "internalType": "enum TokenType",
          "name": "tokenOut",
          "type": "uint8"
        }
      ],
      "name": "swapOutGivenIn",
      "outputs": [
        {
          "internalType": "uint256",
          "name": "amountOut",
          "type": "uint256"
        }
      ],
      "stateMutability": "view",
      "type": "function"
    },
    {
      "inputs": [],
      "name": "underlyingNFT",
      "outputs": [
        {
          "internalType": "address",
          "name": "tokenAddress",
          "type": "address"
        },
        {
          "internalType": "uint256",
          "name": "tokenId",
          "type": "uint256"
        },
        {
          "internalType": "enum NFTType",
          "name": "nftType",
          "type": "uint8"
        }
      ],
      "stateMutability": "view",
      "type": "function"
    }
  ],
  "bytecode": "0x608060405234801561001057600080fd5b5061565e80620000216000396000f3fe608060405234801561001057600080fd5b50600436106101cf5760003560e01c80636faf372b11610104578063bf010c91116100a2578063e5fca39611610071578063e5fca396146103fa578063eaef85571461040d578063ee0d688d14610420578063f23a6e611461043357600080fd5b8063bf010c9114610395578063c7433c75146103c1578063cad70786146103d4578063e0bc203d146103e757600080fd5b806397fb92e8116100de57806397fb92e814610347578063a8845ab91461035a578063b49dc7411461036d578063bc197c811461038257600080fd5b80636faf372b14610310578063799ed051146103185780637b1039991461032b57600080fd5b8063345fbbe211610171578063660b27f51161014b578063660b27f5146102e557806369a12f64146102ed5780636b28b2ae146102f55780636ddd17131461030857600080fd5b8063345fbbe2146102b757806351530a6f146102ca5780635bf9c17e146102d257600080fd5b8063150b7a02116101ad578063150b7a02146102525780631b1355a11461027e5780631ce616c9146102915780632dc0779e146102a457600080fd5b806301ffc9a7146101d457806304266d85146101fc57806313521cdf1461022a575b600080fd5b6101e76101e2366004614b65565b610446565b60405190151581526020015b60405180910390f35b61020f61020a366004614ba2565b61047d565b604080519384526020840192909252908201526060016101f3565b61023d610238366004614be9565b6108ca565b604080519283526020830191909152016101f3565b610265610260366004614cea565b610e1e565b6040516001600160e01b031990911681526020016101f3565b610130545b6040519081526020016101f3565b61028361029f366004614d65565b610fdb565b61023d6102b2366004614be9565b611027565b6102836102c5366004614d65565b611547565b6102836115ed565b6101e76102e0366004614da1565b6116ea565b610283611cb8565b610283611e1b565b6101e7610303366004614da1565b611e6e565b6101e76121df565b6102836121f8565b61023d610326366004614ddc565b612283565b61012d546040516001600160a01b0390911681526020016101f3565b610283610355366004614ddc565b6122e2565b61023d610368366004614df5565b612375565b61038061037b366004614e3e565b612cd8565b005b610265610390366004614ef5565b612f4e565b61012f5461012e546001600160a01b03821691600160a01b900460ff166040516101f393929190614fb9565b6102836103cf366004614ddc565b612fd6565b6102836103e2366004614ddc565b613062565b6102836103f5366004614ddc565b613070565b610283610408366004614fee565b6130fc565b61028361041b366004614ddc565b6131d7565b61020f61042e366004614ba2565b613263565b610265610441366004615009565b61392f565b60006001600160e01b03198216630271189760e51b148061047757506301ffc9a760e01b6001600160e01b03198316145b92915050565b60008060008360c001356040518060400160405280600f81526020016e72656d6f76654c697175696469747960881b8152508142106104db82604051806040016040528060078152602001661156141254915160ca1b815250613c57565b906105025760405162461bcd60e51b81526004016104f9919061509e565b60405180910390fd5b50600260335414156105265760405162461bcd60e51b81526004016104f9906150d1565b600260335561012d546000906001600160a01b031663bd85b03961054b60035b613c83565b6040518263ffffffff1660e01b815260040161056991815260200190565b602060405180830381865afa158015610586573d6000803e3d6000fd5b505050506040513d601f19601f820116820180604052508101906105aa9190615108565b9050600081116105b957600080fd5b8087356105c660006130fc565b6105d09190615137565b6105da919061516c565b95508087356105e960016130fc565b6105f39190615137565b6105fd919061516c565b945080873561060c60026130fc565b6106169190615137565b610620919061516c565b93508660200135861015801561063a575086604001358510155b801561064a575086606001358410155b61069b6040518060400160405280600f81526020016e72656d6f76654c697175696469747960881b81525060405180604001604052806008815260200167534c49505041474560c01b815250613c57565b906106b95760405162461bcd60e51b81526004016104f9919061509e565b5061012d54604051632241328b60e01b81526001600160a01b0390911690632241328b906106f19033908b35906003906004016151a2565b600060405180830381600087803b15801561070b57600080fd5b505af115801561071f573d6000803e3d6000fd5b5050505061075160008789608001602081019061073c91906151d4565b61074c60c08c0160a08d016151f1565b613c8f565b61012d546001600160a01b031663f242432a3061077460c08b0160a08c016151f1565b61077e6001613c83565b896040518563ffffffff1660e01b815260040161079e949392919061520e565b600060405180830381600087803b1580156107b857600080fd5b505af11580156107cc573d6000803e3d6000fd5b505061012d546001600160a01b0316915063f242432a9050306107f560c08b0160a08c016151f1565b6107ff6002613c83565b886040518563ffffffff1660e01b815260040161081f949392919061520e565b600060405180830381600087803b15801561083957600080fd5b505af115801561084d573d6000803e3d6000fd5b506108629250505060c0880160a089016151f1565b604080518935815260208101899052908101879052606081018690526001600160a01b03919091169033907fed4bf6033840f814e4b30ab2065b330fd4a914745c4b6b5b3df89332d83bcc84906080015b60405180910390a350506001603355509193909250565b6000808260a00135604051806040016040528060048152602001631b5a5b9d60e21b81525081421061091b82604051806040016040528060078152602001661156141254915160ca1b815250613c57565b906109395760405162461bcd60e51b81526004016104f9919061509e565b506002603354141561095d5760405162461bcd60e51b81526004016104f9906150d1565b6002603355600061098d6109776040880160208901615246565b600181111561098857610988614fa3565b613d9d565b15610a9d5761012d546040805163ddca3f4360e01b8152905188359750612710926001600160a01b03169163ddca3f439160048083019260209291908290030181865afa1580156109e2573d6000803e3d6000fd5b505050506040513d601f19601f82011682018060405250810190610a069190615108565b610a109087615137565b610a1a919061516c565b9050610a296103cf8287615263565b93508560800135841015610a79604051806040016040528060048152602001631b5a5b9d60e21b81525060405180604001604052806008815260200167534c49505041474560c01b815250613c57565b90610a975760405162461bcd60e51b81526004016104f9919061509e565b50610bc5565b853593506000610aac856122e2565b905061012d60009054906101000a90046001600160a01b03166001600160a01b031663ddca3f436040518163ffffffff1660e01b8152600401602060405180830381865afa158015610b02573d6000803e3d6000fd5b505050506040513d601f19601f82011682018060405250810190610b269190615108565b610b3290612710615263565b610b3e82612710615137565b610b48919061516c565b9550610b548187615263565b91508660800135861115610ba4604051806040016040528060048152602001631b5a5b9d60e21b81525060405180604001604052806008815260200167534c49505041474560c01b815250613c57565b90610bc25760405162461bcd60e51b81526004016104f9919061509e565b50505b610be0600086610bdb60608a0160408b016151d4565b613db9565b8015610cbd5761012d54604080516338af3eed60e01b815290516001600160a01b039092169162f714ce91849184916338af3eed9160048083019260209291908290030181865afa158015610c39573d6000803e3d6000fd5b505050506040513d601f19601f82011682018060405250810190610c5d919061527a565b6040516001600160e01b031960e085901b16815260048101929092526001600160a01b03166024820152604401600060405180830381600087803b158015610ca457600080fd5b505af1158015610cb8573d6000803e3d6000fd5b505050505b61012d546001600160a01b0316636112e8ac610cdf6080890160608a016151f1565b8660016040518463ffffffff1660e01b8152600401610d00939291906151a2565b600060405180830381600087803b158015610d1a57600080fd5b505af1158015610d2e573d6000803e3d6000fd5b505061012d546001600160a01b03169150636112e8ac9050610d566080890160608a016151f1565b8660026040518463ffffffff1660e01b8152600401610d77939291906151a2565b600060405180830381600087803b158015610d9157600080fd5b505af1158015610da5573d6000803e3d6000fd5b50610dba9250505060808701606088016151f1565b6001600160a01b0316336001600160a01b03167f03f17d66ad3bf18e9412eb06582908831508cdb9b8da9cddb1431f645a5b86328787604051610e07929190918252602082015260400190565b60405180910390a350506001603355509092909150565b60008061012f54600160a01b900460ff166001811115610e4057610e40614fa3565b14610e9b6040518060400160405280601081526020016f1bdb915490cdcc8c549958d95a5d995960821b8152506040518060400160405280601081526020016f494e56414c49445f4e46545f5459504560801b815250613c57565b90610eb95760405162461bcd60e51b81526004016104f9919061509e565b5061012f54604080518082018252601081526f1bdb915490cdcc8c549958d95a5d995960821b602080830191909152825180840190935260148352731253959053125117d3919517d0d3d395149050d560621b908301526001600160a01b03909216331491610f2791613c57565b90610f455760405162461bcd60e51b81526004016104f9919061509e565b5061012e600001548314610fa96040518060400160405280601081526020016f1bdb915490cdcc8c549958d95a5d995960821b8152506040518060400160405280601081526020016f1253959053125117d513d2d15397d25160821b815250613c57565b90610fc75760405162461bcd60e51b81526004016104f9919061509e565b50630a85bd0160e11b90505b949350505050565b6000806000610fea8585613f15565b90925090506000610ffb8388615297565b6110058489615137565b61100f919061516c565b905061101c838383614065565b979650505050505050565b6000808260a0013560405180604001604052806004815260200163313ab93760e11b81525081421061107882604051806040016040528060078152602001661156141254915160ca1b815250613c57565b906110965760405162461bcd60e51b81526004016104f9919061509e565b50600260335414156110ba5760405162461bcd60e51b81526004016104f9906150d1565b600260335560006110d46109776040880160208901615246565b156111fa578535945060006110e8866131d7565b905061271061012d60009054906101000a90046001600160a01b03166001600160a01b031663ddca3f436040518163ffffffff1660e01b8152600401602060405180830381865afa158015611141573d6000803e3d6000fd5b505050506040513d601f19601f820116820180604052508101906111659190615108565b61116f9083615137565b611179919061516c565b91506111858282615263565b945086608001358510156111d560405180604001604052806004815260200163313ab93760e11b81525060405180604001604052806008815260200167534c49505041474560c01b815250613c57565b906111f35760405162461bcd60e51b81526004016104f9919061509e565b5050611317565b61012d546040805163ddca3f4360e01b81529051883596506000926001600160a01b03169163ddca3f439160048083019260209291908290030181865afa158015611249573d6000803e3d6000fd5b505050506040513d601f19601f8201168201806040525081019061126d9190615108565b61127990612710615263565b61128586612710615137565b61128f919061516c565b905061129b8582615263565b91506112a681613070565b955086608001358611156112f660405180604001604052806004815260200163313ab93760e11b81525060405180604001604052806008815260200167534c49505041474560c01b815250613c57565b906113145760405162461bcd60e51b81526004016104f9919061509e565b50505b61012d546001600160a01b0316632241328b338760016040518463ffffffff1660e01b815260040161134b939291906151a2565b600060405180830381600087803b15801561136557600080fd5b505af1158015611379573d6000803e3d6000fd5b505061012d54604051632241328b60e01b81526001600160a01b039091169250632241328b91506113b390339089906002906004016151a2565b600060405180830381600087803b1580156113cd57600080fd5b505af11580156113e1573d6000803e3d6000fd5b50505050806000146114c45761012d54604080516338af3eed60e01b815290516001600160a01b039092169162f714ce91849184916338af3eed9160048083019260209291908290030181865afa158015611440573d6000803e3d6000fd5b505050506040513d601f19601f82011682018060405250810190611464919061527a565b6040516001600160e01b031960e085901b16815260048101929092526001600160a01b03166024820152604401600060405180830381600087803b1580156114ab57600080fd5b505af11580156114bf573d6000803e3d6000fd5b505050505b6114ea6000856114da60608a0160408b016151d4565b61074c60808b0160608c016151f1565b6114fa60808701606088016151f1565b6001600160a01b0316336001600160a01b03167f8cbfdd0f15f678ea4039ef0f30ce1494d591556082bee7c244bfd664efad36c78787604051610e07929190918252602082015260400190565b60008060006115568585613f15565b915091506000611567838389614096565b90508083116115b0604051806040016040528060048152602001630737761760e41b8152506040518060400160405280600681526020016526a0ac2fa4a760d11b815250613c57565b906115ce5760405162461bcd60e51b81526004016104f9919061509e565b506115d98184615263565b6115e38483615137565b61101c919061516c565b6101305461012d5460408051631b1355a160e01b815290516000939284926001600160a01b0390911691631b1355a1916004808201926020929091908290030181865afa158015611642573d6000803e3d6000fd5b505050506040513d601f19601f820116820180604052508101906116669190615108565b9050808210156116bb604051806040016040528060068152602001656f7261636c6560d01b8152506040518060400160405280600f81526020016e1393d517d253925512505312569151608a1b815250613c57565b906116d95760405162461bcd60e51b81526004016104f9919061509e565b506116e381613062565b9250505090565b60008160800135604051806040016040528060078152602001661cd95b1b13919560ca1b81525081421061173d82604051806040016040528060078152602001661156141254915160ca1b815250613c57565b9061175b5760405162461bcd60e51b81526004016104f9919061509e565b506002603354141561177f5760405162461bcd60e51b81526004016104f9906150d1565b6002603355600061178e6115ed565b9050600061179d863583615137565b90506117aa828735614100565b611801604051806040016040528060078152602001661cd95b1b13919560ca1b81525060405180604001604052806016815260200175494e53554646494349454e545f4c495155494449545960501b815250613c57565b9061181f5760405162461bcd60e51b81526004016104f9919061509e565b5061012f546001600160a01b0316600061012f54600160a01b900460ff16600181111561184e5761184e614fa3565b14156119575786600001356001146118ab604051806040016040528060078152602001661cd95b1b13919560ca1b8152506040518060400160405280600e81526020016d1253959053125117d05353d5539560921b815250613c57565b906118c95760405162461bcd60e51b81526004016104f9919061509e565b50806001600160a01b03811663b88d4fde3361012e5460405160e084901b6001600160e01b03191681526001600160a01b0390921660048301523060248301526044820152608060648201526000608482015260a401600060405180830381600087803b15801561193957600080fd5b505af115801561194d573d6000803e3d6000fd5b5050505050611a38565b60008760000135116119ae604051806040016040528060078152602001661cd95b1b13919560ca1b8152506040518060400160405280600e81526020016d1253959053125117d05353d5539560921b815250613c57565b906119cc5760405162461bcd60e51b81526004016104f9919061509e565b5061012e54604051637921219560e11b815282916001600160a01b0383169163f242432a91611a0491339130918e359060040161520e565b600060405180830381600087803b158015611a1e57600080fd5b505af1158015611a32573d6000803e3d6000fd5b50505050505b600080611a448361411d565b15611b8b5761012e5460405163152a902d60e11b81526004810191909152602481018590526001600160a01b03841690632a55205a906044016040805180830381865afa158015611a99573d6000803e3d6000fd5b505050506040513d601f19601f82011682018060405250810190611abd91906152af565b9092509050611acd600a8561516c565b811115611ae257611adf600a8561516c565b90505b61012d54604051627b8a6760e11b8152600481018390526001600160a01b0384811660248301529091169062f714ce90604401600060405180830381600087803b158015611b2f57600080fd5b505af1158015611b43573d6000803e3d6000fd5b50505050816001600160a01b03167fbc86de696edc3350c664d50abf25f24e7e1251f1469ad925b25fe36927270d4382604051611b8291815260200190565b60405180910390a25b6060890135611b9a8286615263565b1015611be5604051806040016040528060078152602001661cd95b1b13919560ca1b81525060405180604001604052806008815260200167534c49505041474560c01b815250613c57565b90611c035760405162461bcd60e51b81526004016104f9919061509e565b50836101316000828254611c1791906152dd565b90915550611c4c90506000611c2c8387615263565b611c3c60408d0160208e016151d4565b61074c60608e0160408f016151f1565b611c5c60608a0160408b016151f1565b604080518781528b35602082015281516001600160a01b03939093169233927ff6ccc0cf89c21c54724ea6ef2ec01da8fe33a1cebe06607e160fd78483eba302928290030190a360019750505050505050506001603355919050565b61012d5460009081906001600160a01b031663bd85b039611cd96003613c83565b6040518263ffffffff1660e01b8152600401611cf791815260200190565b602060405180830381865afa158015611d14573d6000803e3d6000fd5b505050506040513d601f19601f82011682018060405250810190611d389190615108565b905080611d4757600091505090565b600081611d5460036130fc565b611d6690670de0b6b3a7640000615137565b611d70919061516c565b9050670de0b6b3a7640000811115611d8a57611d8a61531c565b80611d985760009250505090565b600080611da760006001613f15565b90925090506000670de0b6b3a7640000611dc18585615137565b611dcb919061516c565b90506000670de0b6b3a7640000611de28685615137565b611dec919061516c565b9050600061013154611dfe84846141c4565b611e089190615332565b9050600081121561101c5761101c61531c565b6101305460009080611e3457611e2f61426e565b611e68565b610130611e42600183615263565b81548110611e5257611e52615373565b6000918252602090912001546001600160d81b03165b91505090565b6000816080013560405180604001604052806006815260200165189d5e53919560d21b815250814210611ec082604051806040016040528060078152602001661156141254915160ca1b815250613c57565b90611ede5760405162461bcd60e51b81526004016104f9919061509e565b5060026033541415611f025760405162461bcd60e51b81526004016104f9906150d1565b60026033556000611f116115ed565b90508460600135811115611f6360405180604001604052806006815260200165189d5e53919560d21b81525060405180604001604052806008815260200167534c49505041474560c01b815250613c57565b90611f815760405162461bcd60e51b81526004016104f9919061509e565b50611fa26000611f92873584615137565b610bdb6040890160208a016151d4565b600061012f54600160a01b900460ff166001811115611fc357611fc3614fa3565b14156120e157846000013560011461201f60405180604001604052806006815260200165189d5e53919560d21b8152506040518060400160405280600e81526020016d1253959053125117d05353d5539560921b815250613c57565b9061203d5760405162461bcd60e51b81526004016104f9919061509e565b5061012f546001600160a01b03168063b88d4fde3061206260608a0160408b016151f1565b61012e5460405160e085901b6001600160e01b03191681526001600160a01b0393841660048201529290911660248301526044820152608060648201526000608482015260a401600060405180830381600087803b1580156120c357600080fd5b505af11580156120d7573d6000803e3d6000fd5b5050505050612154565b61012f546001600160a01b03168063f242432a303361012e546040516001600160e01b031960e086901b168152612120939291908c359060040161520e565b600060405180830381600087803b15801561213a57600080fd5b505af115801561214e573d6000803e3d6000fd5b50505050505b61215f853582615137565b61013160008282546121719190615332565b90915550612187905060608601604087016151f1565b604080518381528735602082015281516001600160a01b03939093169233927f84a34755616a04d6e547597ec5933d7ca8cf181bb354026be7e93e147edf0ab7928290030190a3600193505050506001603355919050565b60006121f36121ec6115ed565b6001614100565b905090565b61012d5460009081906001600160a01b031663bd85b0396122196001613c83565b6040518263ffffffff1660e01b815260040161223791815260200190565b602060405180830381865afa158015612254573d6000803e3d6000fd5b505050506040513d601f19601f820116820180604052508101906122789190615108565b9050611e68816142d3565b6000806000610130848154811061229c5761229c615373565b6000918252602091829020604080518082019091529101546001600160d81b038116808352600160d81b90910464ffffffffff1691909201819052909590945092505050565b61012d5460009081906001600160a01b031663bd85b0396123036001613c83565b6040518263ffffffff1660e01b815260040161232191815260200190565b602060405180830381865afa15801561233e573d6000803e3d6000fd5b505050506040513d601f19601f820116820180604052508101906123629190615108565b905061236e818461433f565b9392505050565b6000808260e00135604051806040016040528060048152602001630737761760e41b8152508142106123c682604051806040016040528060078152602001661156141254915160ca1b815250613c57565b906123e45760405162461bcd60e51b81526004016104f9919061509e565b506123f56040860160208701614fee565b6124056060870160408801614fee565b600382600381111561241957612419614fa3565b141580156124395750600381600381111561243657612436614fa3565b14155b61248b604051806040016040528060048152602001630737761760e41b8152506040518060400160405280601481526020017304c49515549444954595f544f4b454e5f535741560641b815250613c57565b906124a95760405162461bcd60e51b81526004016104f9919061509e565b508060038111156124bc576124bc614fa3565b8260038111156124ce576124ce614fa3565b1415612520604051806040016040528060048152602001630737761760e41b81525060405180604001604052806012815260200171115455505317d513d2d15397d25397d3d55560721b815250613c57565b9061253e5760405162461bcd60e51b81526004016104f9919061509e565b5060008082600381111561255457612554614fa3565b84600381111561256657612566614fa3565b1061258b578261258685600381111561258157612581614fa3565b614407565b6125a1565b836125a184600381111561258157612581614fa3565b915091506125bf8260038111156125ba576125ba614fa3565b61446e565b15612a135760006125d08383613f15565b509050600260335414156125f65760405162461bcd60e51b81526004016104f9906150d1565b600260335560408051808201825260048152630737761760e41b6020808301919091528251808401909352600b83526a414d4f554e545f5a45524f60a81b908301528b351515916126479190613c57565b906126655760405162461bcd60e51b81526004016104f9919061509e565b5061266e614483565b61268161097760808c0160608d01615246565b1561272257893598506126ae8961269e60408d0160208e01614fee565b61029f60608e0160408f01614fee565b97508960c001358810156126fe604051806040016040528060048152602001630737761760e41b81525060405180604001604052806008815260200167534c49505041474560c01b815250613c57565b9061271c5760405162461bcd60e51b81526004016104f9919061509e565b506127ba565b8935975061274a8861273a60408d0160208e01614fee565b6102c560608e0160408f01614fee565b98508960c0013589111561279a604051806040016040528060048152602001630737761760e41b81525060405180604001604052806008815260200167534c49505041474560c01b815250613c57565b906127b85760405162461bcd60e51b81526004016104f9919061509e565b505b6127de6127cd60408c0160208d01614fee565b8a610bdb60a08e0160808f016151d4565b6128156127f160608c0160408d01614fee565b8961280260a08e0160808f016151d4565b8d60a001602081019061074c91906151f1565b61282560c08b0160a08c016151f1565b6001600160a01b0316337f9456f929346a281ab02a7a715fdb80b1e46cfed183bf6054b5322d9986f32de661286060408e0160208f01614fee565b8d60400160208101906128739190614fee565b8d8d6040516128859493929190615389565b60405180910390a36001603355600061289e8484613f15565b509050818110156128b1576128b161531c565b600060026128bf8484615263565b6128c9919061516c565b6128d39084615297565b90506000670de0b6b3a7640000826128eb8583615137565b6128f5919061516c565b6128ff9190615263565b61012d54909150600090670de0b6b3a76400009083906001600160a01b031663bd85b03961292d6003613c83565b6040518263ffffffff1660e01b815260040161294b91815260200190565b602060405180830381865afa158015612968573d6000803e3d6000fd5b505050506040513d601f19601f8201168201806040525081019061298c9190615108565b6129969190615137565b6129a0919061516c565b61012d54604051631844ba2b60e21b81529192506001600160a01b031690636112e8ac906129d790309085906003906004016151a2565b600060405180830381600087803b1580156129f157600080fd5b505af1158015612a05573d6000803e3d6000fd5b505050505050505050612ccd565b60026033541415612a365760405162461bcd60e51b81526004016104f9906150d1565b600260335560408051808201825260048152630737761760e41b6020808301919091528251808401909352600b83526a414d4f554e545f5a45524f60a81b908301528a35151591612a879190613c57565b90612aa55760405162461bcd60e51b81526004016104f9919061509e565b50612aae614483565b612ac161097760808b0160608c01615246565b15612b625788359750612aee88612ade60408c0160208d01614fee565b61029f60608d0160408e01614fee565b96508860c00135871015612b3e604051806040016040528060048152602001630737761760e41b81525060405180604001604052806008815260200167534c49505041474560c01b815250613c57565b90612b5c5760405162461bcd60e51b81526004016104f9919061509e565b50612bfa565b88359650612b8a87612b7a60408c0160208d01614fee565b6102c560608d0160408e01614fee565b97508860c00135881115612bda604051806040016040528060048152602001630737761760e41b81525060405180604001604052806008815260200167534c49505041474560c01b815250613c57565b90612bf85760405162461bcd60e51b81526004016104f9919061509e565b505b612c1e612c0d60408b0160208c01614fee565b89610bdb60a08d0160808e016151d4565b612c52612c3160608b0160408c01614fee565b88612c4260a08d0160808e016151d4565b61074c60c08e0160a08f016151f1565b612c6260c08a0160a08b016151f1565b6001600160a01b0316337f9456f929346a281ab02a7a715fdb80b1e46cfed183bf6054b5322d9986f32de6612c9d60408d0160208e01614fee565b612cad60608e0160408f01614fee565b8c8c604051612cbf9493929190615389565b60405180910390a360016033555b505050505050915091565b600054610100900460ff16612cf35760005460ff1615612cf7565b303b155b612d5a5760405162461bcd60e51b815260206004820152602e60248201527f496e697469616c697a61626c653a20636f6e747261637420697320616c72656160448201526d191e481a5b9a5d1a585b1a5e995960921b60648201526084016104f9565b600054610100900460ff16158015612d7c576000805461ffff19166101011790555b612d8461456e565b612d8c61456e565b612d94614597565b61012d80546001600160a01b03191633179055604080516060810182528481526001600160a01b0386166020820152908101836001811115612dd857612dd8614fa3565b9052805161012e908155602082015161012f80546001600160a01b039092166001600160a01b03198316811782556040850151926001600160a81b03191617600160a01b836001811115612e2e57612e2e614fa3565b0217905550905050600061012d60009054906101000a90046001600160a01b03166001600160a01b031663ad5c46486040518163ffffffff1660e01b8152600401602060405180830381865afa158015612e8c573d6000803e3d6000fd5b505050506040513d601f19601f82011682018060405250810190612eb0919061527a565b90506001600160a01b03811663095ea7b3336040516001600160e01b031960e084901b1681526001600160a01b03909116600482015260001960248201526044016020604051808303816000875af1158015612f10573d6000803e3d6000fd5b505050506040513d601f19601f82011682018060405250810190612f3491906153b6565b50508015612f48576000805461ff00191690555b50505050565b6000612fbd604051806040016040528060168152602001751bdb915490cc4c4d4d50985d18da149958d95a5d995960521b8152506040518060400160405280601981526020017f42415443485f5452414e534645525f444953414c4c4f57454400000000000000815250613c57565b60405162461bcd60e51b81526004016104f9919061509e565b61012d5460009081906001600160a01b031663bd85b039612ff76001613c83565b6040518263ffffffff1660e01b815260040161301591815260200190565b602060405180830381865afa158015613032573d6000803e3d6000fd5b505050506040513d601f19601f820116820180604052508101906130569190615108565b905061236e81846145c6565b6000610477610130836145fd565b61012d5460009081906001600160a01b031663bd85b0396130916001613c83565b6040518263ffffffff1660e01b81526004016130af91815260200190565b602060405180830381865afa1580156130cc573d6000803e3d6000fd5b505050506040513d601f19601f820116820180604052508101906130f09190615108565b905061236e81846146c5565b61012d546000906001600160a01b031662fdd58e3061312685600381111561054657610546614fa3565b6040516001600160e01b031960e085901b1681526001600160a01b0390921660048301526024820152604401602060405180830381865afa15801561316f573d6000803e3d6000fd5b505050506040513d601f19601f820116820180604052508101906131939190615108565b90506131aa8260038111156125ba576125ba614fa3565b156131d2576131b76121f8565b6131c19082615263565b9050610131548161047791906152dd565b919050565b61012d5460009081906001600160a01b031663bd85b0396131f86001613c83565b6040518263ffffffff1660e01b815260040161321691815260200190565b602060405180830381865afa158015613233573d6000803e3d6000fd5b505050506040513d601f19601f820116820180604052508101906132579190615108565b905061236e8184614787565b60008060008360c001356040518060400160405280600c81526020016b6164644c697175696469747960a01b8152508142106132be82604051806040016040528060078152602001661156141254915160ca1b815250613c57565b906132dc5760405162461bcd60e51b81526004016104f9919061509e565b50600260335414156133005760405162461bcd60e51b81526004016104f9906150d1565b600260335561012d546000906001600160a01b031663bd85b0396133246003613c83565b6040518263ffffffff1660e01b815260040161334291815260200190565b602060405180830381865afa15801561335f573d6000803e3d6000fd5b505050506040513d601f19601f820116820180604052508101906133839190615108565b9050801561369857600061339760016130fc565b905060006133a560006130fc565b905060006133b360026130fc565b6133bd9084615297565b90506000826133cd8c3584615137565b6133d7919061516c565b9050816133e48583615137565b6133ee919061516c565b98506133fa8982615263565b975082613408868d35615137565b613412919061516c565b99508a602001358a1015801561342c5750888b6040013510155b801561343c5750878b6060013510155b61348a6040518060400160405280600c81526020016b6164644c697175696469747960a01b81525060405180604001604052806008815260200167534c49505041474560c01b815250613c57565b906134a85760405162461bcd60e51b81526004016104f9919061509e565b506134c660008c600001358d6080016020810190610bdb91906151d4565b61012d546001600160a01b031663f242432a33306134e46001613c83565b8d6040518563ffffffff1660e01b8152600401613504949392919061520e565b600060405180830381600087803b15801561351e57600080fd5b505af1158015613532573d6000803e3d6000fd5b505061012d546001600160a01b0316915063f242432a905033306135566002613c83565b8c6040518563ffffffff1660e01b8152600401613576949392919061520e565b600060405180830381600087803b15801561359057600080fd5b505af11580156135a4573d6000803e3d6000fd5b505061012d546001600160a01b03169150636112e8ac90506135cc60c08e0160a08f016151f1565b8c60036040518463ffffffff1660e01b81526004016135ed939291906151a2565b600060405180830381600087803b15801561360757600080fd5b505af115801561361b573d6000803e3d6000fd5b506136309250505060c08c0160a08d016151f1565b6001600160a01b031633604080518d81528e3560208201529081018c9052606081018b90526001600160a01b0391909116907f30a25bf1a25525514c97be546eb649611ffff0897c941a4bb3e292c04ca425a59060800160405180910390a350505050613920565b86359550604087013594506060870135935085158015906136b857508415155b80156136c357508315155b61371c6040518060400160405280600c81526020016b6164644c697175696469747960a01b81525060405180604001604052806013815260200172125394d551919250d251539517d05353d55395606a1b815250613c57565b9061373a5760405162461bcd60e51b81526004016104f9919061509e565b5061375260008835610bdb60a08b0160808c016151d4565b61012d546001600160a01b031663f242432a33306137706001613c83565b8b604001356040518563ffffffff1660e01b8152600401613794949392919061520e565b600060405180830381600087803b1580156137ae57600080fd5b505af11580156137c2573d6000803e3d6000fd5b505061012d546001600160a01b0316915063f242432a905033306137e66002613c83565b8b606001356040518563ffffffff1660e01b815260040161380a949392919061520e565b600060405180830381600087803b15801561382457600080fd5b505af1158015613838573d6000803e3d6000fd5b505061012d546001600160a01b03169150636112e8ac905061386060c08a0160a08b016151f1565b8860036040518463ffffffff1660e01b8152600401613881939291906151a2565b600060405180830381600087803b15801561389b57600080fd5b505af11580156138af573d6000803e3d6000fd5b506138c49250505060c0880160a089016151f1565b604080518881528935602082015289820135918101919091526060808a0135908201526001600160a01b03919091169033907f30a25bf1a25525514c97be546eb649611ffff0897c941a4bb3e292c04ca425a5906080016108b3565b50506001603355509193909250565b600061394461012d546001600160a01b031690565b6001600160a01b0316336001600160a01b03161415613a98576139676000613c83565b84148061397c57506139796001613c83565b84145b8061398f575061398c6002613c83565b84145b806139a2575061399f6003613c83565b84145b6139fa604051806040016040528060118152602001701bdb915490cc4c4d4d549958d95a5d9959607a1b8152506040518060400160405280600d81526020016c24a72b20a624a22faa27a5a2a760991b815250613c57565b90613a185760405162461bcd60e51b81526004016104f9919061509e565b508260001415613a74604051806040016040528060118152602001701bdb915490cc4c4d4d549958d95a5d9959607a1b8152506040518060400160405280600b81526020016a414d4f554e545f5a45524f60a81b815250613c57565b90613a925760405162461bcd60e51b81526004016104f9919061509e565b50613c45565b600161012f54600160a01b900460ff166001811115613ab957613ab9614fa3565b14613b15604051806040016040528060118152602001701bdb915490cc4c4d4d549958d95a5d9959607a1b8152506040518060400160405280601081526020016f494e56414c49445f4e46545f5459504560801b815250613c57565b90613b335760405162461bcd60e51b81526004016104f9919061509e565b5061012f5460408051808201825260118152701bdb915490cc4c4d4d549958d95a5d9959607a1b602080830191909152825180840190935260148352731253959053125117d3919517d0d3d395149050d560621b908301526001600160a01b03909216331491613ba291613c57565b90613bc05760405162461bcd60e51b81526004016104f9919061509e565b5061012e600001548414613c25604051806040016040528060118152602001701bdb915490cc4c4d4d549958d95a5d9959607a1b8152506040518060400160405280601081526020016f1253959053125117d513d2d15397d25160821b815250613c57565b90613c435760405162461bcd60e51b81526004016104f9919061509e565b505b5063f23a6e6160e01b95945050505050565b60608282604051602001613c6c9291906153d3565b604051602081830303815290604052905092915050565b600061047782306147d6565b613ca48460038111156125ba576125ba614fa3565b8015613cad5750815b15613d1c5761012d54604051627b8a6760e11b8152600481018590526001600160a01b0383811660248301529091169062f714ce90604401600060405180830381600087803b158015613cff57600080fd5b505af1158015613d13573d6000803e3d6000fd5b50505050612f48565b61012d546001600160a01b031663f242432a3083613d4588600381111561054657610546614fa3565b876040518563ffffffff1660e01b8152600401613d65949392919061520e565b600060405180830381600087803b158015613d7f57600080fd5b505af1158015613d93573d6000803e3d6000fd5b5050505050505050565b600080826001811115613db257613db2614fa3565b1492915050565b613dce8360038111156125ba576125ba614fa3565b8015613dd75750805b15613e945761012d54604080516315ab88c960e31b815290516000926001600160a01b03169163ad5c46489160048083019260209291908290030181865afa158015613e27573d6000803e3d6000fd5b505050506040513d601f19601f82011682018060405250810190613e4b919061527a565b9050613e626001600160a01b03821633308661482d565b61012d5460405163b6b55f2560e01b8152600481018590526001600160a01b039091169063b6b55f2590602401613d65565b61012d546001600160a01b031663f242432a3330613ebd87600381111561054657610546614fa3565b866040518563ffffffff1660e01b8152600401613edd949392919061520e565b600060405180830381600087803b158015613ef757600080fd5b505af1158015613f0b573d6000803e3d6000fd5b505050505b505050565b600080613f21846130fc565b9150613f2c836130fc565b9050600082118015613f3e5750600081115b613f8b604051806040016040528060048152602001630737761760e41b8152506040518060400160405280600f81526020016e1393d517d253925512505312569151608a1b815250613c57565b90613fa95760405162461bcd60e51b81526004016104f9919061509e565b50613fbf8460038111156125ba576125ba614fa3565b15614006576000613fde61040885600381111561258157612581614fa3565b9050613fea8183615297565b613ff48285615137565b613ffe919061516c565b92505061405e565b61401b8360038111156125ba576125ba614fa3565b1561405e57600061403a61040886600381111561258157612581614fa3565b90506140468184615297565b6140508284615137565b61405a919061516c565b9150505b9250929050565b6000806140728385615137565b905060006140808487615297565b905061408c818361516c565b9695505050505050565b6000806140a38386615137565b90508284116140f45760405162461bcd60e51b815260206004820152601a60248201527f5069537761704d61726b657423737761703a204d41585f4f555400000000000060448201526064016104f9565b60006140808486615263565b600061410c8284615137565b614114611cb8565b10159392505050565b6040516301ffc9a760e01b815263152a902d60e11b60048201526000906001600160a01b038316906301ffc9a790602401602060405180830381865afa925050508015614187575060408051601f3d908101601f19168201909252614184918101906153b6565b60015b610477573d8080156141b5576040519150601f19603f3d011682016040523d82523d6000602084013e6141ba565b606091505b5060009392505050565b600080806c7e37be2022c0914b26800000008402858502633b9aca008102906141f4906509184e72a00002614887565b676765c793fa10079d601b1b0287670de0b6b3a76400006002890a040201030390506000670de0b6b3a76400008686027406d79f82328ea3da61e066ebb2f88a0000000000000304905080828161424d5761424d615156565b0585019250505060008112156142655761426561531c565b610fd3816142d3565b60008061427b60016130fc565b90506000811161428d5761428d61531c565b670de0b6b3a76400006002826142a360026130fc565b6142b590670de0b6b3a7640000615137565b6142bf919061516c565b6142c9919061550d565b611e68919061516c565b600069021e19e0c9bab24000006142f583676765c793fa10079d601b1b615263565b600161431669021e19e0c9bab2400000676765c793fa10079d601b1b615137565b6143209190615263565b61432a919061516c565b614335906001615297565b6104779190615263565b60008061434b846142d3565b90508261436385676765c793fa10079d601b1b615263565b61436d9190615263565b600161438483676765c793fa10079d601b1b615137565b61439869021e19e0c9bab240000088615137565b6143a28886615137565b6143b68869021e19e0c9bab2400000615137565b6143c08988615137565b6143ca9190615297565b6143d49190615297565b6143de9190615297565b6143e89190615263565b6143f29190615263565b6143fc919061516c565b610fd3906001615297565b6000600182600381111561441d5761441d614fa3565b148061443a5750600282600381111561443857614438614fa3565b145b6144465761444661531c565b600182600381111561445a5761445a614fa3565b14614466576001610477565b600292915050565b600080826003811115613db257613db2614fa3565b610130548015806144ca57504261013061449e600184615263565b815481106144ae576144ae615373565b600091825260209091200154600160d81b900464ffffffffff16105b1561456b5760006144d961426e565b905061453161013082604080518082019091526001600160d81b03918216815264ffffffffff428116602080840191825285546001810187556000968752952092519051909116600160d81b02921691909117910155565b604080518281524260208201527f2e08f3585f6308bbd7c77e2acb09666e238eea4895de89ce18a9bfb6ed2c7c0c910160405180910390a1505b50565b600054610100900460ff166145955760405162461bcd60e51b81526004016104f99061551c565b565b600054610100900460ff166145be5760405162461bcd60e51b81526004016104f99061551c565b6145956148f6565b6000806145d2846142d3565b905060006145e86145e38584615297565b614924565b90506145f48582615263565b95945050505050565b81546000908281101561465d5760405162461bcd60e51b815260206004820152602260248201527f4f7261636c652361766750726963653a20494e53554646494349454e545f4441604482015261544160f01b60648201526084016104f9565b60008061466a8584615263565b90505b828110156146ba5785818154811061468757614687615373565b6000918252602090912001546146a6906001600160d81b031683615297565b9150806146b281615567565b91505061466d565b506145f4848261516c565b60006146dc676765c793fa10079d601b1b83615137565b6146e68484615137565b614705676765c793fa10079d601b1b69021e19e0c9bab2400000615137565b61470f9190615297565b6147199190615263565b6001600261473286676765c793fa10079d601b1b615263565b61473c919061550d565b6147469085615137565b6147509190615263565b61475a919061516c565b614765906001615297565b9050828111156104775760405162461bcd60e51b81526004016104f990615582565b6000828211156147a95760405162461bcd60e51b81526004016104f990615582565b60006147b4846142d3565b905060006147ca6147c58587615263565b6142d3565b90506145f48183615263565b6000808360038111156147eb576147eb614fa3565b14156147f957506000610477565b46828460405160200161480e939291906155ca565b60408051601f1981840301815291905280516020909101209392505050565b604080516001600160a01b0385811660248301528416604482015260648082018490528251808303909101815260849091019091526020810180516001600160e01b03166323b872dd60e01b179052612f4890859061498f565b600060038211156148e857508060006148a160028361516c565b6148ac906001615297565b90505b818110156148e2579050806002816148c7818661516c565b6148d19190615297565b6148db919061516c565b90506148af565b50919050565b81156131d257506001919050565b600054610100900460ff1661491d5760405162461bcd60e51b81526004016104f99061551c565b6001603355565b600061493a69021e19e0c9bab240000083615297565b600161495b69021e19e0c9bab2400000676765c793fa10079d601b1b615137565b6149659190615263565b61496f919061516c565b61497a906001615297565b61047790676765c793fa10079d601b1b615263565b60006149e4826040518060400160405280602081526020017f5361666545524332303a206c6f772d6c6576656c2063616c6c206661696c6564815250856001600160a01b0316614a619092919063ffffffff16565b805190915015613f105780806020019051810190614a0291906153b6565b613f105760405162461bcd60e51b815260206004820152602a60248201527f5361666545524332303a204552433230206f7065726174696f6e20646964206e6044820152691bdd081cdd58d8d9595960b21b60648201526084016104f9565b6060610fd38484600085856001600160a01b0385163b614ac35760405162461bcd60e51b815260206004820152601d60248201527f416464726573733a2063616c6c20746f206e6f6e2d636f6e747261637400000060448201526064016104f9565b600080866001600160a01b03168587604051614adf919061560c565b60006040518083038185875af1925050503d8060008114614b1c576040519150601f19603f3d011682016040523d82523d6000602084013e614b21565b606091505b509150915061101c82828660608315614b3b57508161236e565b825115614b4b5782518084602001fd5b8160405162461bcd60e51b81526004016104f9919061509e565b600060208284031215614b7757600080fd5b81356001600160e01b03198116811461236e57600080fd5b600061010082840312156148e257600080fd5b600060208284031215614bb457600080fd5b813567ffffffffffffffff811115614bcb57600080fd5b610fd384828501614b8f565b600060e082840312156148e257600080fd5b600060208284031215614bfb57600080fd5b813567ffffffffffffffff811115614c1257600080fd5b610fd384828501614bd7565b6001600160a01b038116811461456b57600080fd5b634e487b7160e01b600052604160045260246000fd5b604051601f8201601f1916810167ffffffffffffffff81118282101715614c7257614c72614c33565b604052919050565b600082601f830112614c8b57600080fd5b813567ffffffffffffffff811115614ca557614ca5614c33565b614cb8601f8201601f1916602001614c49565b818152846020838601011115614ccd57600080fd5b816020850160208301376000918101602001919091529392505050565b60008060008060808587031215614d0057600080fd5b8435614d0b81614c1e565b93506020850135614d1b81614c1e565b925060408501359150606085013567ffffffffffffffff811115614d3e57600080fd5b614d4a87828801614c7a565b91505092959194509250565b8035600481106131d257600080fd5b600080600060608486031215614d7a57600080fd5b83359250614d8a60208501614d56565b9150614d9860408501614d56565b90509250925092565b600060208284031215614db357600080fd5b813567ffffffffffffffff811115614dca57600080fd5b820160c0818503121561236e57600080fd5b600060208284031215614dee57600080fd5b5035919050565b600060208284031215614e0757600080fd5b813567ffffffffffffffff811115614e1e57600080fd5b8201610120818503121561236e57600080fd5b6002811061456b57600080fd5b600080600060608486031215614e5357600080fd5b8335614e5e81614c1e565b9250602084013591506040840135614e7581614e31565b809150509250925092565b600082601f830112614e9157600080fd5b8135602067ffffffffffffffff821115614ead57614ead614c33565b8160051b614ebc828201614c49565b9283528481018201928281019087851115614ed657600080fd5b83870192505b8483101561101c57823582529183019190830190614edc565b600080600080600060a08688031215614f0d57600080fd5b8535614f1881614c1e565b94506020860135614f2881614c1e565b9350604086013567ffffffffffffffff80821115614f4557600080fd5b614f5189838a01614e80565b94506060880135915080821115614f6757600080fd5b614f7389838a01614e80565b93506080880135915080821115614f8957600080fd5b50614f9688828901614c7a565b9150509295509295909350565b634e487b7160e01b600052602160045260246000fd5b6001600160a01b0384168152602081018390526060810160028310614fe057614fe0614fa3565b826040830152949350505050565b60006020828403121561500057600080fd5b61236e82614d56565b600080600080600060a0868803121561502157600080fd5b853561502c81614c1e565b9450602086013561503c81614c1e565b93506040860135925060608601359150608086013567ffffffffffffffff81111561506657600080fd5b614f9688828901614c7a565b60005b8381101561508d578181015183820152602001615075565b83811115612f485750506000910152565b60208152600082518060208401526150bd816040850160208701615072565b601f01601f19169190910160400192915050565b6020808252601f908201527f5265656e7472616e637947756172643a207265656e7472616e742063616c6c00604082015260600190565b60006020828403121561511a57600080fd5b5051919050565b634e487b7160e01b600052601160045260246000fd5b600081600019048311821515161561515157615151615121565b500290565b634e487b7160e01b600052601260045260246000fd5b60008261518957634e487b7160e01b600052601260045260246000fd5b500490565b6004811061519e5761519e614fa3565b9052565b6001600160a01b03841681526020810183905260608101610fd3604083018461518e565b801515811461456b57600080fd5b6000602082840312156151e657600080fd5b813561236e816151c6565b60006020828403121561520357600080fd5b813561236e81614c1e565b6001600160a01b0394851681529290931660208301526040820152606081019190915260a06080820181905260009082015260c00190565b60006020828403121561525857600080fd5b813561236e81614e31565b60008282101561527557615275615121565b500390565b60006020828403121561528c57600080fd5b815161236e81614c1e565b600082198211156152aa576152aa615121565b500190565b600080604083850312156152c257600080fd5b82516152cd81614c1e565b6020939093015192949293505050565b60008083128015600160ff1b8501841216156152fb576152fb615121565b6001600160ff1b038401831381161561531657615316615121565b50500390565b634e487b7160e01b600052600160045260246000fd5b600080821280156001600160ff1b038490038513161561535457615354615121565b600160ff1b839003841281161561536d5761536d615121565b50500190565b634e487b7160e01b600052603260045260246000fd5b60808101615397828761518e565b6153a4602083018661518e565b60408201939093526060015292915050565b6000602082840312156153c857600080fd5b815161236e816151c6565b6c5069537761704d61726b65742360981b8152600083516153fb81600d850160208801615072565b6101d160f51b600d91840191820152835161541d81600f840160208801615072565b01600f01949350505050565b600181815b8085111561546457816000190482111561544a5761544a615121565b8085161561545757918102915b93841c939080029061542e565b509250929050565b60008261547b57506001610477565b8161548857506000610477565b816001811461549e57600281146154a8576154c4565b6001915050610477565b60ff8411156154b9576154b9615121565b50506001821b610477565b5060208310610133831016604e8410600b84101617156154e7575081810a610477565b6154f18383615429565b806000190482111561550557615505615121565b029392505050565b600061236e60ff84168361546c565b6020808252602b908201527f496e697469616c697a61626c653a20636f6e7472616374206973206e6f74206960408201526a6e697469616c697a696e6760a81b606082015260800190565b600060001982141561557b5761557b615121565b5060010190565b60208082526028908201527f5069537761704d61726b6574236275726e3a20414d4f554e545f455843454544604082015267535f535550504c5960c01b606082015260800190565b8381526bffffffffffffffffffffffff198360601b1660208201526000600483106155f7576155f7614fa3565b5060f89190911b603482015260350192915050565b6000825161561e818460208701615072565b919091019291505056fea264697066735822122002ce8688661333e0458623c525523cdc3a551186f7f216beb288672ad64f1f1364736f6c634300080b0033",
  "linkReferences": {},
  "deployedLinkReferences": {}
}