{
  "_format": "hh-sol-artifact-1",
  "contractName": "HookERC721VaultFactory",
  "sourceName": "contracts/HookERC721VaultFactory.sol",
  "abi": [
    {
      "inputs": [
        {
          "internalType": "address",
          "name": "hookProtocolAddress",
          "type": "address"
        },
        {
          "internalType": "address",
          "name": "beaconAddress",
          "type": "address"
        },
        {
          "internalType": "address",
          "name": "multiBeaconAddress",
          "type": "address"
        }
      ],
      "stateMutability": "nonpayable",
      "type": "constructor"
    },
    {
      "anonymous": false,
      "inputs": [
        {
          "indexed": false,
          "internalType": "address",
          "name": "nftAddress",
          "type": "address"
        },
        {
          "indexed": false,
          "internalType": "address",
          "name": "vaultAddress",
          "type": "address"
        }
      ],
      "name": "ERC721MultiVaultCreated",
      "type": "event"
    },
    {
      "anonymous": false,
      "inputs": [
        {
          "indexed": false,
          "internalType": "address",
          "name": "nftAddress",
          "type": "address"
        },
        {
          "indexed": false,
          "internalType": "uint256",
          "name": "tokenId",
          "type": "uint256"
        },
        {
          "indexed": false,
          "internalType": "address",
          "name": "vaultAddress",
          "type": "address"
        }
      ],
      "name": "ERC721VaultCreated",
      "type": "event"
    },
    {
      "inputs": [],
      "name": "ALLOWLISTER_ROLE",
      "outputs": [
        {
          "internalType": "bytes32",
          "name": "",
          "type": "bytes32"
        }
      ],
      "stateMutability": "view",
      "type": "function"
    },
    {
      "inputs": [],
      "name": "CALL_UPGRADER",
      "outputs": [
        {
          "internalType": "bytes32",
          "name": "",
          "type": "bytes32"
        }
      ],
      "stateMutability": "view",
      "type": "function"
    },
    {
      "inputs": [],
      "name": "COLLECTION_CONF",
      "outputs": [
        {
          "internalType": "bytes32",
          "name": "",
          "type": "bytes32"
        }
      ],
      "stateMutability": "view",
      "type": "function"
    },
    {
      "inputs": [],
      "name": "MARKET_CONF",
      "outputs": [
        {
          "internalType": "bytes32",
          "name": "",
          "type": "bytes32"
        }
      ],
      "stateMutability": "view",
      "type": "function"
    },
    {
      "inputs": [],
      "name": "PAUSER_ROLE",
      "outputs": [
        {
          "internalType": "bytes32",
          "name": "",
          "type": "bytes32"
        }
      ],
      "stateMutability": "view",
      "type": "function"
    },
    {
      "inputs": [],
      "name": "VAULT_UPGRADER",
      "outputs": [
        {
          "internalType": "bytes32",
          "name": "",
          "type": "bytes32"
        }
      ],
      "stateMutability": "view",
      "type": "function"
    },
    {
      "inputs": [
        {
          "internalType": "address",
          "name": "nftAddress",
          "type": "address"
        },
        {
          "internalType": "uint256",
          "name": "tokenId",
          "type": "uint256"
        }
      ],
      "name": "findOrCreateVault",
      "outputs": [
        {
          "internalType": "contract IHookERC721Vault",
          "name": "",
          "type": "address"
        }
      ],
      "stateMutability": "nonpayable",
      "type": "function"
    },
    {
      "inputs": [
        {
          "internalType": "address",
          "name": "",
          "type": "address"
        }
      ],
      "name": "getMultiVault",
      "outputs": [
        {
          "internalType": "contract IHookERC721Vault",
          "name": "",
          "type": "address"
        }
      ],
      "stateMutability": "view",
      "type": "function"
    },
    {
      "inputs": [
        {
          "internalType": "address",
          "name": "",
          "type": "address"
        },
        {
          "internalType": "uint256",
          "name": "",
          "type": "uint256"
        }
      ],
      "name": "getVault",
      "outputs": [
        {
          "internalType": "contract IHookERC721Vault",
          "name": "",
          "type": "address"
        }
      ],
      "stateMutability": "view",
      "type": "function"
    },
    {
      "inputs": [
        {
          "internalType": "address",
          "name": "nftAddress",
          "type": "address"
        }
      ],
      "name": "makeMultiVault",
      "outputs": [
        {
          "internalType": "contract IHookERC721Vault",
          "name": "",
          "type": "address"
        }
      ],
      "stateMutability": "nonpayable",
      "type": "function"
    },
    {
      "inputs": [
        {
          "internalType": "address",
          "name": "nftAddress",
          "type": "address"
        },
        {
          "internalType": "uint256",
          "name": "tokenId",
          "type": "uint256"
        }
      ],
      "name": "makeSoloVault",
      "outputs": [
        {
          "internalType": "contract IHookERC721Vault",
          "name": "",
          "type": "address"
        }
      ],
      "stateMutability": "nonpayable",
      "type": "function"
    }
  ],
  "bytecode": "0x60e06040523480156200001157600080fd5b5060405162001753380380620017538339810160408190526200003491620001c8565b6200004a836200019c60201b620008cd1760201c565b6200009c5760405162461bcd60e51b815260206004820181905260248201527f686f6f6b2070726f746f636f6c206d757374206265206120636f6e747261637460448201526064015b60405180910390fd5b620000b2826200019c60201b620008cd1760201c565b6200010a5760405162461bcd60e51b815260206004820152602160248201527f626561636f6e2061646472657373206d757374206265206120636f6e747261636044820152601d60fa1b606482015260840162000093565b62000120816200019c60201b620008cd1760201c565b6200017e5760405162461bcd60e51b815260206004820152602760248201527f6d756c746920626561636f6e2061646472657373206d757374206265206120636044820152661bdb9d1c9858dd60ca1b606482015260840162000093565b6001600160a01b0392831660805290821660a0521660c05262000212565b6001600160a01b03163b151590565b80516001600160a01b0381168114620001c357600080fd5b919050565b600080600060608486031215620001de57600080fd5b620001e984620001ab565b9250620001f960208501620001ab565b91506200020960408501620001ab565b90509250925092565b60805160a05160c0516114fc6200025760003960006106e60152600061032b01526000818161034e0152818161049501528181610538015261070801526114fc6000f3fe608060405234801561001057600080fd5b50600436106100995760003560e01c80630bc0d3fa1461009e5780630d5e67ec146100c7578063435b51de146100fc5780636fe76da61461010f578063a34fd3fb14610138578063acca68381461015f578063b6f3fa3f14610174578063bb31173a14610187578063d99d13f5146101ae578063e63ab1e9146101df578063f23c19e814610206575b600080fd5b6100b16100ac366004610a32565b61022d565b6040516100be9190610a5c565b60405180910390f35b6100ee7f945438d5e976f17e0d00cb2997cf8951c55e12977d86234d6738d1865abe006e81565b6040519081526020016100be565b6100b161010a366004610a70565b61047b565b6100b161011d366004610a70565b6001602052600090815260409020546001600160a01b031681565b6100ee7f657f307dfada290937bc821a25e2da10feb07809ba9560b816723e8b47fe379a81565b6100ee6000805160206114a783398151915281565b6100b1610182366004610a32565b610826565b6100ee7ff7e0191f3657a6da7569740b1cdeac8c3425bcbfd257d4fdc6d2241598f4de8b81565b6100b16101bc366004610a32565b60006020818152928152604080822090935290815220546001600160a01b031681565b6100ee7f65d7a28e3265b37a6474929f336521b332c1681b933f6cb9f3376673440d862a81565b6100ee7f8de11a8d956993287a5b6a74c069984045abc1b621d651081c4c77c05c3cb7af81565b6001600160a01b03828116600090815260208181526040808320858452909152812054909116156102b45760405162461bcd60e51b815260206004820152602660248201527f6d616b655661756c742d61207661756c742063616e6e6f7420616c726561647960448201526508195e1a5cdd60d21b60648201526084015b60405180910390fd5b604080516001600160a01b038516602080830191909152818301859052825180830384018152606090920190925280519101206000906103189082905b60405161030060208201610a09565b601f1982820381018352601f909101166040526108dc565b9050806001600160a01b0316637fe8e72c7f000000000000000000000000000000000000000000000000000000000000000086867f000000000000000000000000000000000000000000000000000000000000000060405160240161037f93929190610a8b565b60408051601f198184030181529181526020820180516001600160e01b031663c350a1b560e01b1790525160e084901b6001600160e01b03191681526103c9929190600401610aae565b600060405180830381600087803b1580156103e357600080fd5b505af11580156103f7573d6000803e3d6000fd5b505050506001600160a01b038481166000908152602081815260408083208784529091529081902080546001600160a01b031916928416929092179091555181907fec1cb694178d064cbb440cc15ed37f43d60f55db3e5c1aa3b16f3da853812e579061046990879087908590610a8b565b60405180910390a19150505b92915050565b604051632474521560e21b81526000906001600160a01b037f000000000000000000000000000000000000000000000000000000000000000016906391d14854906104da906000805160206114a7833981519152903390600401610b13565b602060405180830381865afa1580156104f7573d6000803e3d6000fd5b505050506040513d601f19601f8201168201806040525081019061051b9190610b2a565b806105bf5750604051632474521560e21b81526001600160a01b037f000000000000000000000000000000000000000000000000000000000000000016906391d148549061057e906000805160206114a783398151915290600090600401610b13565b602060405180830381865afa15801561059b573d6000803e3d6000fd5b505050506040513d601f19601f820116820180604052508101906105bf9190610b2a565b6106495760405162461bcd60e51b815260206004820152604f60248201527f6d616b654d756c74695661756c742d4f6e6c79206163636f756e74732077697460448201527f682074686520414c4c4f574c495354455220726f6c652063616e206d616b652060648201526e6e6577206d756c74695661756c747360881b608482015260a4016102ab565b6001600160a01b0382811660009081526001602052604090205416156106c35760405162461bcd60e51b815260206004820152602960248201527f6d616b654d756c74695661756c742d7661756c742063616e6e6f7420616c726560448201526818591e48195e1a5cdd60ba1b60648201526084016102ab565b60006106d360006102f1856109d9565b9050806001600160a01b0316637fe8e72c7f0000000000000000000000000000000000000000000000000000000000000000857f0000000000000000000000000000000000000000000000000000000000000000604051602401610738929190610b4c565b60408051601f198184030181529181526020820180516001600160e01b031663485cc95560e01b1790525160e084901b6001600160e01b0319168152610782929190600401610aae565b600060405180830381600087803b15801561079c57600080fd5b505af11580156107b0573d6000803e3d6000fd5b505050506001600160a01b038381166000908152600160205260409081902080546001600160a01b031916928416929092179091555181907f4576e6da87b352d9168729d519d6b20717c930bc4aca52cd876b1c797227acc7906108179086908490610b4c565b60405180910390a19392505050565b6001600160a01b038281166000908152600160205260408120549091161561086957506001600160a01b0380831660009081526001602052604090205416610475565b6001600160a01b0383811660009081526020818152604080832086845290915290205416156108bc57506001600160a01b0380831660009081526020818152604080832085845290915290205416610475565b6108c6838361022d565b9392505050565b6001600160a01b03163b151590565b60008347101561092e5760405162461bcd60e51b815260206004820152601d60248201527f437265617465323a20696e73756666696369656e742062616c616e636500000060448201526064016102ab565b815161097c5760405162461bcd60e51b815260206004820181905260248201527f437265617465323a2062797465636f6465206c656e677468206973207a65726f60448201526064016102ab565b8282516020840186f590506001600160a01b0381166108c65760405162461bcd60e51b8152602060048201526019602482015278437265617465323a204661696c6564206f6e206465706c6f7960381b60448201526064016102ab565b6000816040516020016109ec9190610a5c565b604051602081830303815290604052805190602001209050919050565b61094080610b6783390190565b80356001600160a01b0381168114610a2d57600080fd5b919050565b60008060408385031215610a4557600080fd5b610a4e83610a16565b946020939093013593505050565b6001600160a01b0391909116815260200190565b600060208284031215610a8257600080fd5b6108c682610a16565b6001600160a01b0393841681526020810192909252909116604082015260600190565b60018060a01b038316815260006020604081840152835180604085015260005b81811015610aea57858101830151858201606001528201610ace565b81811115610afc576000606083870101525b50601f01601f191692909201606001949350505050565b9182526001600160a01b0316602082015260400190565b600060208284031215610b3c57600080fd5b815180151581146108c657600080fd5b6001600160a01b039283168152911660208201526040019056fe608060405234801561001057600080fd5b50610920806100206000396000f3fe6080604052600436106100225760003560e01c80637fe8e72c1461003957610031565b366100315761002f610059565b005b61002f610059565b34801561004557600080fd5b5061002f610054366004610696565b61006b565b61006961006461016f565b6101f6565b565b6000610077600161021a565b905080156100af57600161009f61009c82600080516020610884833981519152610759565b90565b805460ff19169115159190911790555b6100da60017fa3f0ad74e5423aebfd80d3ef4346578335a9a72aeaee59ff6cb3582b35133d51610759565b600080516020610864833981519152146100f6576100f661077e565b610102838360006102ee565b801561016a57600061012661009c6001600080516020610884833981519152610759565b805460ff1916911515919091179055604051600181527f7f26b83ff96e1f2b6a682f133852f6798a09c465da95921460cefb38474024989060200160405180910390a15b505050565b6000610190600080516020610864833981519152546001600160a01b031690565b6001600160a01b0316635c60da1b6040518163ffffffff1660e01b8152600401602060405180830381865afa1580156101cd573d6000803e3d6000fd5b505050506040513d601f19601f820116820180604052508101906101f19190610794565b905090565b3660008037600080366000845af43d6000803e808015610215573d6000f35b3d6000fd5b600061023861009c6001600080516020610884833981519152610759565b5460ff1615610287578160ff16600114801561025a5750610258306103ae565b155b61027f5760405162461bcd60e51b8152600401610276906107b1565b60405180910390fd5b506000919050565b60ff82166102a761009c60016000805160206108a4833981519152610759565b54106102c55760405162461bcd60e51b8152600401610276906107b1565b60ff82166102e561009c60016000805160206108a4833981519152610759565b55506001919050565b6102f7836103bd565b6040516001600160a01b038416907f1cf3b03a6cf19fa2baba4df148e9dcabedea7f8a5c07840e207e5c089be95d3e90600090a26000825111806103385750805b1561016a576103a8836001600160a01b0316635c60da1b6040518163ffffffff1660e01b8152600401602060405180830381865afa15801561037e573d6000803e3d6000fd5b505050506040513d601f19601f820116820180604052508101906103a29190610794565b8361051e565b50505050565b6001600160a01b03163b151590565b6103c6816103ae565b6104205760405162461bcd60e51b815260206004820152602560248201527f455243313936373a206e657720626561636f6e206973206e6f74206120636f6e6044820152641d1c9858dd60da1b6064820152608401610276565b61048a816001600160a01b0316635c60da1b6040518163ffffffff1660e01b8152600401602060405180830381865afa158015610461573d6000803e3d6000fd5b505050506040513d601f19601f820116820180604052508101906104859190610794565b6103ae565b6104ef5760405162461bcd60e51b815260206004820152603060248201527f455243313936373a20626561636f6e20696d706c656d656e746174696f6e206960448201526f1cc81b9bdd08184818dbdb9d1c9858dd60821b6064820152608401610276565b60008051602061086483398151915280546001600160a01b0319166001600160a01b0392909216919091179055565b606061054383836040518060600160405280602781526020016108c46027913961054a565b9392505050565b6060600080856001600160a01b0316856040516105679190610814565b600060405180830381855af49150503d80600081146105a2576040519150601f19603f3d011682016040523d82523d6000602084013e6105a7565b606091505b50915091506105b8868383876105c2565b9695505050505050565b6060831561062c578251610625576105d9856103ae565b6106255760405162461bcd60e51b815260206004820152601d60248201527f416464726573733a2063616c6c20746f206e6f6e2d636f6e74726163740000006044820152606401610276565b5081610636565b610636838361063e565b949350505050565b81511561064e5781518083602001fd5b8060405162461bcd60e51b81526004016102769190610830565b6001600160a01b038116811461067d57600080fd5b50565b634e487b7160e01b600052604160045260246000fd5b600080604083850312156106a957600080fd5b82356106b481610668565b915060208301356001600160401b03808211156106d057600080fd5b818501915085601f8301126106e457600080fd5b8135818111156106f6576106f6610680565b604051601f8201601f19908116603f0116810190838211818310171561071e5761071e610680565b8160405282815288602084870101111561073757600080fd5b8260208601602083013760006020848301015280955050505050509250929050565b60008282101561077957634e487b7160e01b600052601160045260246000fd5b500390565b634e487b7160e01b600052600160045260246000fd5b6000602082840312156107a657600080fd5b815161054381610668565b6020808252601f908201527f636f6e747261637420697320616c726561647920696e697469616c697a656400604082015260600190565b60005b838110156108035781810151838201526020016107eb565b838111156103a85750506000910152565b600082516108268184602087016107e8565b9190910192915050565b602081526000825180602084015261084f8160408501602087016107e8565b601f01601f1916919091016040019291505056fea3f0ad74e5423aebfd80d3ef4346578335a9a72aeaee59ff6cb3582b35133d50ba701f97ffd09be973ab0487da5ef9921c2bd0aad55202b3c0b41745a8ecda29021cb2f443fd62c4cb6b5d341f5eb8cd045222fc4183f8753d3725ac19741805416464726573733a206c6f772d6c6576656c2064656c65676174652063616c6c206661696c6564a264697066735822122009955b6ada921fc085d4f4fe3b022185c5005d517a55e2ffef85913ba1dcd80a64736f6c634300080a0033fba4f6dd992a27a814ee807eb2f9332d6d01312041726966a540cf4a4a891553a2646970667358221220d25856f3a1f0c24d38b2d0942f31c885986287a040fe94db2727dd9635cf987564736f6c634300080a0033",
  "linkReferences": {},
  "deployedLinkReferences": {}
}