{
  "_format": "hh-sol-artifact-1",
  "contractName": "HookUpgradeableBeacon",
  "sourceName": "contracts/HookUpgradeableBeacon.sol",
  "abi": [
    {
      "inputs": [
        {
          "internalType": "address",
          "name": "implementation_",
          "type": "address"
        },
        {
          "internalType": "address",
          "name": "hookProtocol",
          "type": "address"
        },
        {
          "internalType": "bytes32",
          "name": "upgraderRole",
          "type": "bytes32"
        }
      ],
      "stateMutability": "nonpayable",
      "type": "constructor"
    },
    {
      "anonymous": false,
      "inputs": [
        {
          "indexed": true,
          "internalType": "address",
          "name": "implementation",
          "type": "address"
        }
      ],
      "name": "Upgraded",
      "type": "event"
    },
    {
      "inputs": [],
      "name": "ALLOWLISTER_ROLE",
      "outputs": [
        {
          "internalType": "bytes32",
          "name": "",
          "type": "bytes32"
        }
      ],
      "stateMutability": "view",
      "type": "function"
    },
    {
      "inputs": [],
      "name": "CALL_UPGRADER",
      "outputs": [
        {
          "internalType": "bytes32",
          "name": "",
          "type": "bytes32"
        }
      ],
      "stateMutability": "view",
      "type": "function"
    },
    {
      "inputs": [],
      "name": "COLLECTION_CONF",
      "outputs": [
        {
          "internalType": "bytes32",
          "name": "",
          "type": "bytes32"
        }
      ],
      "stateMutability": "view",
      "type": "function"
    },
    {
      "inputs": [],
      "name": "MARKET_CONF",
      "outputs": [
        {
          "internalType": "bytes32",
          "name": "",
          "type": "bytes32"
        }
      ],
      "stateMutability": "view",
      "type": "function"
    },
    {
      "inputs": [],
      "name": "PAUSER_ROLE",
      "outputs": [
        {
          "internalType": "bytes32",
          "name": "",
          "type": "bytes32"
        }
      ],
      "stateMutability": "view",
      "type": "function"
    },
    {
      "inputs": [],
      "name": "VAULT_UPGRADER",
      "outputs": [
        {
          "internalType": "bytes32",
          "name": "",
          "type": "bytes32"
        }
      ],
      "stateMutability": "view",
      "type": "function"
    },
    {
      "inputs": [],
      "name": "implementation",
      "outputs": [
        {
          "internalType": "address",
          "name": "",
          "type": "address"
        }
      ],
      "stateMutability": "view",
      "type": "function"
    },
    {
      "inputs": [
        {
          "internalType": "address",
          "name": "newImplementation",
          "type": "address"
        }
      ],
      "name": "upgradeTo",
      "outputs": [],
      "stateMutability": "nonpayable",
      "type": "function"
    }
  ],
  "bytecode": "0x608060405234801561001057600080fd5b506040516106c63803806106c683398101604081905261002f91610260565b6100428261018e60201b6102ed1760201c565b6100ad5760405162461bcd60e51b815260206004820152603160248201527f5570677261646561626c65426561636f6e3a20686f6f6b50726f746f636f6c206044820152701a5cc81b9bdd08184818dbdb9d1c9858dd607a1b60648201526084015b60405180910390fd5b7f945438d5e976f17e0d00cb2997cf8951c55e12977d86234d6738d1865abe006e8114806100fa57507f657f307dfada290937bc821a25e2da10feb07809ba9560b816723e8b47fe379a81145b61015b5760405162461bcd60e51b815260206004820152602c60248201527f757067726164657220726f6c65206d757374206265207661756c74206f72206360448201526b30b636103ab833b930b232b960a11b60648201526084016100a4565b6101648361019d565b600180546001600160a01b0319166001600160a01b0393909316929092179091556002555061029c565b6001600160a01b03163b151590565b6101b08161018e60201b6102ed1760201c565b6102225760405162461bcd60e51b815260206004820152603760248201527f486f6f6b5570677261646561626c65426561636f6e3a20696d706c656d656e7460448201527f6174696f6e206973206e6f74206120636f6e747261637400000000000000000060648201526084016100a4565b600080546001600160a01b0319166001600160a01b0392909216919091179055565b80516001600160a01b038116811461025b57600080fd5b919050565b60008060006060848603121561027557600080fd5b61027e84610244565b925061028c60208501610244565b9150604084015190509250925092565b61041b806102ab6000396000f3fe608060405234801561001057600080fd5b50600436106100785760003560e01c80630d5e67ec1461007d5780633659cfe6146100b75780635c60da1b146100cc578063a34fd3fb146100e7578063acca68381461010e578063bb31173a14610135578063e63ab1e91461015c578063f23c19e814610183575b600080fd5b6100a47f945438d5e976f17e0d00cb2997cf8951c55e12977d86234d6738d1865abe006e81565b6040519081526020015b60405180910390f35b6100ca6100c5366004610393565b6101aa565b005b6000546040516001600160a01b0390911681526020016100ae565b6100a47f657f307dfada290937bc821a25e2da10feb07809ba9560b816723e8b47fe379a81565b6100a47ffba4f6dd992a27a814ee807eb2f9332d6d01312041726966a540cf4a4a89155381565b6100a47ff7e0191f3657a6da7569740b1cdeac8c3425bcbfd257d4fdc6d2241598f4de8b81565b6100a47f65d7a28e3265b37a6474929f336521b332c1681b933f6cb9f3376673440d862a81565b6100a47f8de11a8d956993287a5b6a74c069984045abc1b621d651081c4c77c05c3cb7af81565b600154600254604051632474521560e21b815260048101919091523360248201526001600160a01b03909116906391d1485490604401602060405180830381865afa1580156101fd573d6000803e3d6000fd5b505050506040513d601f19601f8201168201806040525081019061022191906103c3565b6102ad5760405162461bcd60e51b815260206004820152604c60248201527f486f6f6b5570677261646561626c65426561636f6e3a2063616c6c657220646f60448201527f6573206e6f74206861766520746865207265717569726564207570677261646560648201526b207065726d697373696f6e7360a01b608482015260a4015b60405180910390fd5b6102b6816102fc565b6040516001600160a01b038216907fbc7cd75a20ee27fd9adebab32041f755214dbc6bffa90cc0225b39da2e5c2d3b90600090a250565b6001600160a01b03163b151590565b610305816102ed565b6103715760405162461bcd60e51b815260206004820152603760248201527f486f6f6b5570677261646561626c65426561636f6e3a20696d706c656d656e74604482015276185d1a5bdb881a5cc81b9bdd08184818dbdb9d1c9858dd604a1b60648201526084016102a4565b600080546001600160a01b0319166001600160a01b0392909216919091179055565b6000602082840312156103a557600080fd5b81356001600160a01b03811681146103bc57600080fd5b9392505050565b6000602082840312156103d557600080fd5b815180151581146103bc57600080fdfea26469706673582212208a2853ad80f01603e23c2a7ee7808f18ff593b568f15c50703a9d7c98ae9843264736f6c634300080a0033",
  "linkReferences": {},
  "deployedLinkReferences": {}
}