{
  "_format": "hh-sol-artifact-1",
  "contractName": "Beacon",
  "sourceName": "contracts/VersionAware.sol",
  "abi": [
    {
      "inputs": [],
      "stateMutability": "nonpayable",
      "type": "constructor"
    },
    {
      "inputs": [],
      "name": "getContractNameWithVersion",
      "outputs": [
        {
          "internalType": "uint256",
          "name": "",
          "type": "uint256"
        }
      ],
      "stateMutability": "view",
      "type": "function"
    },
    {
      "inputs": [],
      "name": "implementation",
      "outputs": [
        {
          "internalType": "address",
          "name": "adrr",
          "type": "address"
        }
      ],
      "stateMutability": "view",
      "type": "function"
    },
    {
      "inputs": [],
      "name": "versionAwareContract",
      "outputs": [
        {
          "internalType": "uint256",
          "name": "",
          "type": "uint256"
        }
      ],
      "stateMutability": "view",
      "type": "function"
    }
  ],
  "bytecode": "0x6080604052348015600f57600080fd5b50600160005560a3806100236000396000f3fe6080604052348015600f57600080fd5b5060043610603c5760003560e01c80635c60da1b1460415780639ac5baa3146054578063d281e340146065575b600080fd5b6040513081526020015b60405180910390f35b6000545b604051908152602001604b565b60586000548156fea2646970667358221220e03964c6261344462f8a0f3f06a26cddd84d087b964b941cff1a1924e955015e64736f6c63430008120033",
  "linkReferences": {},
  "deployedLinkReferences": {}
}