{
  "contractName": "Admin",
  "abi": [
    {
      "constant": false,
      "inputs": [],
      "name": "renounceOwnership",
      "outputs": [],
      "payable": false,
      "stateMutability": "nonpayable",
      "type": "function"
    },
    {
      "constant": true,
      "inputs": [],
      "name": "owner",
      "outputs": [
        {
          "name": "",
          "type": "address"
        }
      ],
      "payable": false,
      "stateMutability": "view",
      "type": "function"
    },
    {
      "constant": true,
      "inputs": [],
      "name": "isOwner",
      "outputs": [
        {
          "name": "",
          "type": "bool"
        }
      ],
      "payable": false,
      "stateMutability": "view",
      "type": "function"
    },
    {
      "constant": false,
      "inputs": [
        {
          "name": "newOwner",
          "type": "address"
        }
      ],
      "name": "transferOwnership",
      "outputs": [],
      "payable": false,
      "stateMutability": "nonpayable",
      "type": "function"
    },
    {
      "anonymous": false,
      "inputs": [
        {
          "indexed": true,
          "name": "previousOwner",
          "type": "address"
        },
        {
          "indexed": true,
          "name": "newOwner",
          "type": "address"
        }
      ],
      "name": "OwnershipTransferred",
      "type": "event"
    },
    {
      "constant": false,
      "inputs": [
        {
          "name": "marketId",
          "type": "uint256"
        },
        {
          "name": "recipient",
          "type": "address"
        }
      ],
      "name": "ownerWithdrawExcessTokens",
      "outputs": [
        {
          "name": "",
          "type": "uint256"
        }
      ],
      "payable": false,
      "stateMutability": "nonpayable",
      "type": "function"
    },
    {
      "constant": false,
      "inputs": [
        {
          "name": "token",
          "type": "address"
        },
        {
          "name": "recipient",
          "type": "address"
        }
      ],
      "name": "ownerWithdrawUnsupportedTokens",
      "outputs": [
        {
          "name": "",
          "type": "uint256"
        }
      ],
      "payable": false,
      "stateMutability": "nonpayable",
      "type": "function"
    },
    {
      "constant": false,
      "inputs": [
        {
          "name": "token",
          "type": "address"
        },
        {
          "name": "priceOracle",
          "type": "address"
        },
        {
          "name": "interestSetter",
          "type": "address"
        },
        {
          "components": [
            {
              "name": "value",
              "type": "uint256"
            }
          ],
          "name": "marginPremium",
          "type": "tuple"
        },
        {
          "components": [
            {
              "name": "value",
              "type": "uint256"
            }
          ],
          "name": "spreadPremium",
          "type": "tuple"
        }
      ],
      "name": "ownerAddMarket",
      "outputs": [],
      "payable": false,
      "stateMutability": "nonpayable",
      "type": "function"
    },
    {
      "constant": false,
      "inputs": [
        {
          "name": "marketId",
          "type": "uint256"
        },
        {
          "name": "isClosing",
          "type": "bool"
        }
      ],
      "name": "ownerSetIsClosing",
      "outputs": [],
      "payable": false,
      "stateMutability": "nonpayable",
      "type": "function"
    },
    {
      "constant": false,
      "inputs": [
        {
          "name": "marketId",
          "type": "uint256"
        },
        {
          "name": "priceOracle",
          "type": "address"
        }
      ],
      "name": "ownerSetPriceOracle",
      "outputs": [],
      "payable": false,
      "stateMutability": "nonpayable",
      "type": "function"
    },
    {
      "constant": false,
      "inputs": [
        {
          "name": "marketId",
          "type": "uint256"
        },
        {
          "name": "interestSetter",
          "type": "address"
        }
      ],
      "name": "ownerSetInterestSetter",
      "outputs": [],
      "payable": false,
      "stateMutability": "nonpayable",
      "type": "function"
    },
    {
      "constant": false,
      "inputs": [
        {
          "name": "marketId",
          "type": "uint256"
        },
        {
          "components": [
            {
              "name": "value",
              "type": "uint256"
            }
          ],
          "name": "marginPremium",
          "type": "tuple"
        }
      ],
      "name": "ownerSetMarginPremium",
      "outputs": [],
      "payable": false,
      "stateMutability": "nonpayable",
      "type": "function"
    },
    {
      "constant": false,
      "inputs": [
        {
          "name": "marketId",
          "type": "uint256"
        },
        {
          "components": [
            {
              "name": "value",
              "type": "uint256"
            }
          ],
          "name": "spreadPremium",
          "type": "tuple"
        }
      ],
      "name": "ownerSetSpreadPremium",
      "outputs": [],
      "payable": false,
      "stateMutability": "nonpayable",
      "type": "function"
    },
    {
      "constant": false,
      "inputs": [
        {
          "components": [
            {
              "name": "value",
              "type": "uint256"
            }
          ],
          "name": "ratio",
          "type": "tuple"
        }
      ],
      "name": "ownerSetMarginRatio",
      "outputs": [],
      "payable": false,
      "stateMutability": "nonpayable",
      "type": "function"
    },
    {
      "constant": false,
      "inputs": [
        {
          "components": [
            {
              "name": "value",
              "type": "uint256"
            }
          ],
          "name": "spread",
          "type": "tuple"
        }
      ],
      "name": "ownerSetLiquidationSpread",
      "outputs": [],
      "payable": false,
      "stateMutability": "nonpayable",
      "type": "function"
    },
    {
      "constant": false,
      "inputs": [
        {
          "components": [
            {
              "name": "value",
              "type": "uint256"
            }
          ],
          "name": "earningsRate",
          "type": "tuple"
        }
      ],
      "name": "ownerSetEarningsRate",
      "outputs": [],
      "payable": false,
      "stateMutability": "nonpayable",
      "type": "function"
    },
    {
      "constant": false,
      "inputs": [
        {
          "components": [
            {
              "name": "value",
              "type": "uint256"
            }
          ],
          "name": "minBorrowedValue",
          "type": "tuple"
        }
      ],
      "name": "ownerSetMinBorrowedValue",
      "outputs": [],
      "payable": false,
      "stateMutability": "nonpayable",
      "type": "function"
    },
    {
      "constant": false,
      "inputs": [
        {
          "name": "operator",
          "type": "address"
        },
        {
          "name": "approved",
          "type": "bool"
        }
      ],
      "name": "ownerSetGlobalOperator",
      "outputs": [],
      "payable": false,
      "stateMutability": "nonpayable",
      "type": "function"
    }
  ],
  "bytecode": "0x60806040819052600b8054600160a060020a031916331790819055600160a060020a0316906000907f8be0079c531659141344cd1fd0a4f28419497f9722a3daafe3b4186f6b6457e0908290a36001600c55610fb4806100606000396000f3fe608060405234801561001057600080fd5b5060043610610138576000357c0100000000000000000000000000000000000000000000000000000000900480638da5cb5b116100cf578063c0bb72b71161009e578063ef6957d011610083578063ef6957d014610258578063f2901ae21461026b578063f2fde38b1461027e57610138565b8063c0bb72b714610232578063e8e72f751461024557610138565b80638da5cb5b146101e25780638f32d59b146101f75780638f6bc6591461020c578063982f323c1461021f57610138565b80633063bce21161010b5780633063bce2146101a1578063387a498a146101b45780634be87414146101c7578063715018a6146101da57610138565b8063042069d61461013d578063121fb72f146101525780632a560845146101655780632e822af31461018e575b600080fd5b61015061014b366004610d2c565b610291565b005b610150610160366004610cfc565b610345565b610178610173366004610ba3565b6103b6565b6040516101859190610f0e565b60405180910390f35b61015061019c366004610c82565b610490565b6101506101af366004610c82565b610541565b6101506101c2366004610c82565b6105b0565b6101506101d5366004610d2c565b61061f565b610150610690565b6101ea610710565b6040516101859190610da1565b6101ff61072c565b6040516101859190610db5565b61017861021a366004610cbe565b61074a565b61015061022d366004610c0d565b6107bd565b610150610240366004610c82565b61087a565b610150610253366004610cfc565b6108e9565b610150610266366004610cdd565b61095a565b610150610279366004610bdd565b6109cb565b61015061028c366004610b7d565b610a3c565b61029961072c565b6102a257600080fd5b600c8054600101908190556040517f8854ab3e00000000000000000000000000000000000000000000000000000000815273__AdminImpl_____________________________90638854ab3e906103029060009087908790600401610ee6565b60006040518083038186803b15801561031a57600080fd5b505af415801561032e573d6000803e3d6000fd5b50505050600c54811461034057600080fd5b505050565b61034d61072c565b61035657600080fd5b600c8054600101908190556040517faa92e34800000000000000000000000000000000000000000000000000000000815273__AdminImpl_____________________________9063aa92e348906103029060009087908790600401610ebe565b60006103c061072c565b6103c957600080fd5b600c8054600101908190556040517fdd32998a00000000000000000000000000000000000000000000000000000000815273__AdminImpl_____________________________9063dd32998a906104299060009088908890600401610dc3565b60206040518083038186803b15801561044157600080fd5b505af4158015610455573d6000803e3d6000fd5b505050506040513d601f19601f820116820180604052506104799190810190610ca0565b9150600c54811461048957600080fd5b5092915050565b61049861072c565b6104a157600080fd5b600c8054600101908190556040517ff9cacc4c00000000000000000000000000000000000000000000000000000000815273__AdminImpl_____________________________9063f9cacc4c906104ff906000908690600401610e6d565b60006040518083038186803b15801561051757600080fd5b505af415801561052b573d6000803e3d6000fd5b50505050600c54811461053d57600080fd5b5050565b61054961072c565b61055257600080fd5b600c8054600101908190556040517f0f44e6bc00000000000000000000000000000000000000000000000000000000815273__AdminImpl_____________________________90630f44e6bc906104ff906000908690600401610e6d565b6105b861072c565b6105c157600080fd5b600c8054600101908190556040517f311401d000000000000000000000000000000000000000000000000000000000815273__AdminImpl_____________________________9063311401d0906104ff906000908690600401610e6d565b61062761072c565b61063057600080fd5b600c8054600101908190556040517f7335079b00000000000000000000000000000000000000000000000000000000815273__AdminImpl_____________________________90637335079b906103029060009087908790600401610ee6565b61069861072c565b6106a157600080fd5b600b5460405160009173ffffffffffffffffffffffffffffffffffffffff16907f8be0079c531659141344cd1fd0a4f28419497f9722a3daafe3b4186f6b6457e0908390a3600b80547fffffffffffffffffffffffff0000000000000000000000000000000000000000169055565b600b5473ffffffffffffffffffffffffffffffffffffffff1690565b600b5473ffffffffffffffffffffffffffffffffffffffff16331490565b600061075461072c565b61075d57600080fd5b600c8054600101908190556040517fb25328e000000000000000000000000000000000000000000000000000000000815273__AdminImpl_____________________________9063b25328e0906104299060009088908890600401610e88565b6107c561072c565b6107ce57600080fd5b600c8054600101908190556040517f48d0648400000000000000000000000000000000000000000000000000000000815273__AdminImpl_____________________________906348d0648490610834906000908a908a908a908a908a90600401610e13565b60006040518083038186803b15801561084c57600080fd5b505af4158015610860573d6000803e3d6000fd5b50505050600c54811461087257600080fd5b505050505050565b61088261072c565b61088b57600080fd5b600c8054600101908190556040517f54dd351600000000000000000000000000000000000000000000000000000000815273__AdminImpl_____________________________906354dd3516906104ff906000908690600401610e6d565b6108f161072c565b6108fa57600080fd5b600c8054600101908190556040517f8c5dabd100000000000000000000000000000000000000000000000000000000815273__AdminImpl_____________________________90638c5dabd1906103029060009087908790600401610ebe565b61096261072c565b61096b57600080fd5b600c8054600101908190556040517f10c87b0600000000000000000000000000000000000000000000000000000000815273__AdminImpl_____________________________906310c87b06906103029060009087908790600401610ea3565b6109d361072c565b6109dc57600080fd5b600c8054600101908190556040517fe80f802400000000000000000000000000000000000000000000000000000000815273__AdminImpl_____________________________9063e80f8024906103029060009087908790600401610deb565b610a4461072c565b610a4d57600080fd5b610a5681610a59565b50565b73ffffffffffffffffffffffffffffffffffffffff8116610a7957600080fd5b600b5460405173ffffffffffffffffffffffffffffffffffffffff8084169216907f8be0079c531659141344cd1fd0a4f28419497f9722a3daafe3b4186f6b6457e090600090a3600b80547fffffffffffffffffffffffff00000000000000000000000000000000000000001673ffffffffffffffffffffffffffffffffffffffff92909216919091179055565b6000610b138235610f43565b9392505050565b6000610b138235610f4e565b6000610b138235610f6f565b600060208284031215610b4457600080fd5b610b4e6020610f1c565b90506000610b5c8484610b65565b82525092915050565b6000610b138235610f6c565b6000610b138251610f6c565b600060208284031215610b8f57600080fd5b6000610b9b8484610b07565b949350505050565b60008060408385031215610bb657600080fd5b6000610bc28585610b07565b9250506020610bd385828601610b07565b9150509250929050565b60008060408385031215610bf057600080fd5b6000610bfc8585610b07565b9250506020610bd385828601610b1a565b600080600080600060a08688031215610c2557600080fd5b6000610c318888610b07565b9550506020610c4288828901610b26565b9450506040610c5388828901610b26565b9350506060610c6488828901610b32565b9250506080610c7588828901610b32565b9150509295509295909350565b600060208284031215610c9457600080fd5b6000610b9b8484610b32565b600060208284031215610cb257600080fd5b6000610b9b8484610b71565b60008060408385031215610cd157600080fd5b6000610bc28585610b65565b60008060408385031215610cf057600080fd5b6000610bfc8585610b65565b60008060408385031215610d0f57600080fd5b6000610d1b8585610b65565b9250506020610bd385828601610b26565b60008060408385031215610d3f57600080fd5b6000610d4b8585610b65565b9250506020610bd385828601610b32565b610d6581610f43565b82525050565b610d6581610f4e565b610d6581610f6f565b80516020830190610d8e8482610d98565b50505050565b9052565b610d6581610f6c565b60208101610daf8284610d5c565b92915050565b60208101610daf8284610d6b565b60608101610dd18286610d94565b610dde6020830185610d5c565b610b9b6040830184610d5c565b60608101610df98286610d94565b610e066020830185610d5c565b610b9b6040830184610d6b565b60c08101610e218289610d94565b610e2e6020830188610d5c565b610e3b6040830187610d74565b610e486060830186610d74565b610e556080830185610d7d565b610e6260a0830184610d7d565b979650505050505050565b60408101610e7b8285610d94565b610b136020830184610d7d565b60608101610e968286610d94565b610dde6020830185610d98565b60608101610eb18286610d94565b610e066020830185610d98565b60608101610ecc8286610d94565b610ed96020830185610d98565b610b9b6040830184610d74565b60608101610ef48286610d94565b610f016020830185610d98565b610b9b6040830184610d7d565b60208101610daf8284610d98565b60405181810167ffffffffffffffff81118282101715610f3b57600080fd5b604052919050565b6000610daf82610f53565b151590565b73ffffffffffffffffffffffffffffffffffffffff1690565b90565b6000610daf82610f4356fea265627a7a72305820ad12f4853042f53d4a531fc2190acb9b2cbe8e584f248efe205d36d4e45961ab6c6578706572696d656e74616cf50037",
  "source": "/*\n\n    Copyright 2019 dYdX Trading Inc.\n\n    Licensed under the Apache License, Version 2.0 (the \"License\");\n    you may not use this file except in compliance with the License.\n    You may obtain a copy of the License at\n\n    http://www.apache.org/licenses/LICENSE-2.0\n\n    Unless required by applicable law or agreed to in writing, software\n    distributed under the License is distributed on an \"AS IS\" BASIS,\n    WITHOUT WARRANTIES OR CONDITIONS OF ANY KIND, either express or implied.\n    See the License for the specific language governing permissions and\n    limitations under the License.\n\n*/\n\npragma solidity 0.5.7;\npragma experimental ABIEncoderV2;\n\nimport { Ownable } from \"openzeppelin-solidity/contracts/ownership/Ownable.sol\";\nimport { ReentrancyGuard } from \"openzeppelin-solidity/contracts/utils/ReentrancyGuard.sol\";\nimport { State } from \"./State.sol\";\nimport { AdminImpl } from \"./impl/AdminImpl.sol\";\nimport { IInterestSetter } from \"./interfaces/IInterestSetter.sol\";\nimport { IPriceOracle } from \"./interfaces/IPriceOracle.sol\";\nimport { Decimal } from \"./lib/Decimal.sol\";\nimport { Interest } from \"./lib/Interest.sol\";\nimport { Monetary } from \"./lib/Monetary.sol\";\nimport { Token } from \"./lib/Token.sol\";\n\n\n/**\n * @title Admin\n * @author dYdX\n *\n * Public functions that allow the privileged owner address to manage Solo\n */\ncontract Admin is\n    State,\n    Ownable,\n    ReentrancyGuard\n{\n    // ============ Token Functions ============\n\n    /**\n     * Withdraw an ERC20 token for which there is an associated market. Only excess tokens can be\n     * withdrawn. The number of excess tokens is calculated by taking the current number of tokens\n     * held in Solo, adding the number of tokens owed to Solo by borrowers, and subtracting the\n     * number of tokens owed to suppliers by Solo.\n     */\n    function ownerWithdrawExcessTokens(\n        uint256 marketId,\n        address recipient\n    )\n        public\n        onlyOwner\n        nonReentrant\n        returns (uint256)\n    {\n        return AdminImpl.ownerWithdrawExcessTokens(\n            g_state,\n            marketId,\n            recipient\n        );\n    }\n\n    /**\n     * Withdraw an ERC20 token for which there is no associated market.\n     */\n    function ownerWithdrawUnsupportedTokens(\n        address token,\n        address recipient\n    )\n        public\n        onlyOwner\n        nonReentrant\n        returns (uint256)\n    {\n        return AdminImpl.ownerWithdrawUnsupportedTokens(\n            g_state,\n            token,\n            recipient\n        );\n    }\n\n    // ============ Market Functions ============\n\n    /**\n     * Add a new market to Solo. Must be for a previously-unsupported ERC20 token.\n     */\n    function ownerAddMarket(\n        address token,\n        IPriceOracle priceOracle,\n        IInterestSetter interestSetter,\n        Decimal.D256 memory marginPremium,\n        Decimal.D256 memory spreadPremium\n    )\n        public\n        onlyOwner\n        nonReentrant\n    {\n        AdminImpl.ownerAddMarket(\n            g_state,\n            token,\n            priceOracle,\n            interestSetter,\n            marginPremium,\n            spreadPremium\n        );\n    }\n\n    /**\n     * Set (or unset) the status of a market to \"closing\". The borrowedValue of a market cannot\n     * increase while its status is \"closing\".\n     */\n    function ownerSetIsClosing(\n        uint256 marketId,\n        bool isClosing\n    )\n        public\n        onlyOwner\n        nonReentrant\n    {\n        AdminImpl.ownerSetIsClosing(\n            g_state,\n            marketId,\n            isClosing\n        );\n    }\n\n    /**\n     * Set the price oracle for a market.\n     */\n    function ownerSetPriceOracle(\n        uint256 marketId,\n        IPriceOracle priceOracle\n    )\n        public\n        onlyOwner\n        nonReentrant\n    {\n        AdminImpl.ownerSetPriceOracle(\n            g_state,\n            marketId,\n            priceOracle\n        );\n    }\n\n    /**\n     * Set the interest-setter for a market.\n     */\n    function ownerSetInterestSetter(\n        uint256 marketId,\n        IInterestSetter interestSetter\n    )\n        public\n        onlyOwner\n        nonReentrant\n    {\n        AdminImpl.ownerSetInterestSetter(\n            g_state,\n            marketId,\n            interestSetter\n        );\n    }\n\n    /**\n     * Set a premium on the minimum margin-ratio for a market. This makes it so that any positions\n     * that include this market require a higher collateralization to avoid being liquidated.\n     */\n    function ownerSetMarginPremium(\n        uint256 marketId,\n        Decimal.D256 memory marginPremium\n    )\n        public\n        onlyOwner\n        nonReentrant\n    {\n        AdminImpl.ownerSetMarginPremium(\n            g_state,\n            marketId,\n            marginPremium\n        );\n    }\n\n    /**\n     * Set a premium on the liquidation spread for a market. This makes it so that any liquidations\n     * that include this market have a higher spread than the global default.\n     */\n    function ownerSetSpreadPremium(\n        uint256 marketId,\n        Decimal.D256 memory spreadPremium\n    )\n        public\n        onlyOwner\n        nonReentrant\n    {\n        AdminImpl.ownerSetSpreadPremium(\n            g_state,\n            marketId,\n            spreadPremium\n        );\n    }\n\n    // ============ Risk Functions ============\n\n    /**\n     * Set the global minimum margin-ratio that every position must maintain to prevent being\n     * liquidated.\n     */\n    function ownerSetMarginRatio(\n        Decimal.D256 memory ratio\n    )\n        public\n        onlyOwner\n        nonReentrant\n    {\n        AdminImpl.ownerSetMarginRatio(\n            g_state,\n            ratio\n        );\n    }\n\n    /**\n     * Set the global liquidation spread. This is the spread between oracle prices that incentivizes\n     * the liquidation of risky positions.\n     */\n    function ownerSetLiquidationSpread(\n        Decimal.D256 memory spread\n    )\n        public\n        onlyOwner\n        nonReentrant\n    {\n        AdminImpl.ownerSetLiquidationSpread(\n            g_state,\n            spread\n        );\n    }\n\n    /**\n     * Set the global earnings-rate variable that determines what percentage of the interest paid\n     * by borrowers gets passed-on to suppliers.\n     */\n    function ownerSetEarningsRate(\n        Decimal.D256 memory earningsRate\n    )\n        public\n        onlyOwner\n        nonReentrant\n    {\n        AdminImpl.ownerSetEarningsRate(\n            g_state,\n            earningsRate\n        );\n    }\n\n    /**\n     * Set the global minimum-borrow value which is the minimum value of any new borrow on Solo.\n     */\n    function ownerSetMinBorrowedValue(\n        Monetary.Value memory minBorrowedValue\n    )\n        public\n        onlyOwner\n        nonReentrant\n    {\n        AdminImpl.ownerSetMinBorrowedValue(\n            g_state,\n            minBorrowedValue\n        );\n    }\n\n    // ============ Global Operator Functions ============\n\n    /**\n     * Approve (or disapprove) an address that is permissioned to be an operator for all accounts in\n     * Solo. Intended only to approve smart-contracts.\n     */\n    function ownerSetGlobalOperator(\n        address operator,\n        bool approved\n    )\n        public\n        onlyOwner\n        nonReentrant\n    {\n        AdminImpl.ownerSetGlobalOperator(\n            g_state,\n            operator,\n            approved\n        );\n    }\n}\n",
  "sourcePath": "/home/terra/opensource/solo/contracts/protocol/Admin.sol",
  "compiler": {
    "name": "solc",
    "version": "0.5.7+commit.6da8b019.Linux.g++"
  },
  "schemaVersion": "3.4.7",
  "updatedAt": "2022-04-29T09:51:29.265Z",
  "devdoc": {
    "author": "dYdX * Public functions that allow the privileged owner address to manage Solo",
    "methods": {
      "isOwner()": {
        "return": "true if `msg.sender` is the owner of the contract."
      },
      "owner()": {
        "return": "the address of the owner."
      },
      "renounceOwnership()": {
        "details": "Allows the current owner to relinquish control of the contract."
      },
      "transferOwnership(address)": {
        "details": "Allows the current owner to transfer control of the contract to a newOwner.",
        "params": {
          "newOwner": "The address to transfer ownership to."
        }
      }
    },
    "title": "Admin"
  },
  "userdoc": {
    "methods": {
      "ownerAddMarket(address,address,address,(uint256),(uint256))": {
        "notice": "Add a new market to Solo. Must be for a previously-unsupported ERC20 token."
      },
      "ownerSetEarningsRate((uint256))": {
        "notice": "Set the global earnings-rate variable that determines what percentage of the interest paid by borrowers gets passed-on to suppliers."
      },
      "ownerSetGlobalOperator(address,bool)": {
        "notice": "Approve (or disapprove) an address that is permissioned to be an operator for all accounts in Solo. Intended only to approve smart-contracts."
      },
      "ownerSetInterestSetter(uint256,address)": {
        "notice": "Set the interest-setter for a market."
      },
      "ownerSetIsClosing(uint256,bool)": {
        "notice": "Set (or unset) the status of a market to \"closing\". The borrowedValue of a market cannot increase while its status is \"closing\"."
      },
      "ownerSetLiquidationSpread((uint256))": {
        "notice": "Set the global liquidation spread. This is the spread between oracle prices that incentivizes the liquidation of risky positions."
      },
      "ownerSetMarginPremium(uint256,(uint256))": {
        "notice": "Set a premium on the minimum margin-ratio for a market. This makes it so that any positions that include this market require a higher collateralization to avoid being liquidated."
      },
      "ownerSetMarginRatio((uint256))": {
        "notice": "Set the global minimum margin-ratio that every position must maintain to prevent being liquidated."
      },
      "ownerSetMinBorrowedValue((uint256))": {
        "notice": "Set the global minimum-borrow value which is the minimum value of any new borrow on Solo."
      },
      "ownerSetPriceOracle(uint256,address)": {
        "notice": "Set the price oracle for a market."
      },
      "ownerSetSpreadPremium(uint256,(uint256))": {
        "notice": "Set a premium on the liquidation spread for a market. This makes it so that any liquidations that include this market have a higher spread than the global default."
      },
      "ownerWithdrawExcessTokens(uint256,address)": {
        "notice": "Withdraw an ERC20 token for which there is an associated market. Only excess tokens can be withdrawn. The number of excess tokens is calculated by taking the current number of tokens held in Solo, adding the number of tokens owed to Solo by borrowers, and subtracting the number of tokens owed to suppliers by Solo."
      },
      "ownerWithdrawUnsupportedTokens(address,address)": {
        "notice": "Withdraw an ERC20 token for which there is no associated market."
      },
      "renounceOwnership()": {
        "notice": "Renouncing to ownership will leave the contract without an owner. It will not be possible to call the functions with the `onlyOwner` modifier anymore."
      }
    }
  }
}