{
  "contractName": "CanonicalOrders",
  "abi": [
    {
      "constant": true,
      "inputs": [],
      "name": "g_taker",
      "outputs": [
        {
          "name": "",
          "type": "address"
        }
      ],
      "payable": false,
      "stateMutability": "view",
      "type": "function"
    },
    {
      "constant": true,
      "inputs": [],
      "name": "g_fillArgs",
      "outputs": [
        {
          "name": "price",
          "type": "uint256"
        },
        {
          "name": "fee",
          "type": "uint128"
        },
        {
          "name": "isNegativeFee",
          "type": "bool"
        }
      ],
      "payable": false,
      "stateMutability": "view",
      "type": "function"
    },
    {
      "constant": true,
      "inputs": [],
      "name": "SOLO_MARGIN",
      "outputs": [
        {
          "name": "",
          "type": "address"
        }
      ],
      "payable": false,
      "stateMutability": "view",
      "type": "function"
    },
    {
      "constant": false,
      "inputs": [],
      "name": "renounceOwnership",
      "outputs": [],
      "payable": false,
      "stateMutability": "nonpayable",
      "type": "function"
    },
    {
      "constant": true,
      "inputs": [],
      "name": "owner",
      "outputs": [
        {
          "name": "",
          "type": "address"
        }
      ],
      "payable": false,
      "stateMutability": "view",
      "type": "function"
    },
    {
      "constant": true,
      "inputs": [],
      "name": "isOwner",
      "outputs": [
        {
          "name": "",
          "type": "bool"
        }
      ],
      "payable": false,
      "stateMutability": "view",
      "type": "function"
    },
    {
      "constant": true,
      "inputs": [
        {
          "name": "",
          "type": "bytes32"
        }
      ],
      "name": "g_status",
      "outputs": [
        {
          "name": "",
          "type": "uint8"
        }
      ],
      "payable": false,
      "stateMutability": "view",
      "type": "function"
    },
    {
      "constant": true,
      "inputs": [
        {
          "name": "",
          "type": "bytes32"
        }
      ],
      "name": "g_filledAmount",
      "outputs": [
        {
          "name": "",
          "type": "uint256"
        }
      ],
      "payable": false,
      "stateMutability": "view",
      "type": "function"
    },
    {
      "constant": true,
      "inputs": [],
      "name": "EIP712_DOMAIN_HASH",
      "outputs": [
        {
          "name": "",
          "type": "bytes32"
        }
      ],
      "payable": false,
      "stateMutability": "view",
      "type": "function"
    },
    {
      "constant": false,
      "inputs": [
        {
          "name": "newOwner",
          "type": "address"
        }
      ],
      "name": "transferOwnership",
      "outputs": [],
      "payable": false,
      "stateMutability": "nonpayable",
      "type": "function"
    },
    {
      "constant": true,
      "inputs": [],
      "name": "g_isOperational",
      "outputs": [
        {
          "name": "",
          "type": "bool"
        }
      ],
      "payable": false,
      "stateMutability": "view",
      "type": "function"
    },
    {
      "inputs": [
        {
          "name": "soloMargin",
          "type": "address"
        },
        {
          "name": "taker",
          "type": "address"
        },
        {
          "name": "chainId",
          "type": "uint256"
        }
      ],
      "payable": false,
      "stateMutability": "nonpayable",
      "type": "constructor"
    },
    {
      "anonymous": false,
      "inputs": [
        {
          "indexed": false,
          "name": "operational",
          "type": "bool"
        }
      ],
      "name": "LogContractStatusSet",
      "type": "event"
    },
    {
      "anonymous": false,
      "inputs": [
        {
          "indexed": false,
          "name": "taker",
          "type": "address"
        }
      ],
      "name": "LogTakerSet",
      "type": "event"
    },
    {
      "anonymous": false,
      "inputs": [
        {
          "indexed": true,
          "name": "orderHash",
          "type": "bytes32"
        },
        {
          "indexed": true,
          "name": "canceler",
          "type": "address"
        },
        {
          "indexed": false,
          "name": "baseMarket",
          "type": "uint256"
        },
        {
          "indexed": false,
          "name": "quoteMarket",
          "type": "uint256"
        }
      ],
      "name": "LogCanonicalOrderCanceled",
      "type": "event"
    },
    {
      "anonymous": false,
      "inputs": [
        {
          "indexed": true,
          "name": "orderHash",
          "type": "bytes32"
        },
        {
          "indexed": true,
          "name": "approver",
          "type": "address"
        },
        {
          "indexed": false,
          "name": "baseMarket",
          "type": "uint256"
        },
        {
          "indexed": false,
          "name": "quoteMarket",
          "type": "uint256"
        }
      ],
      "name": "LogCanonicalOrderApproved",
      "type": "event"
    },
    {
      "anonymous": false,
      "inputs": [
        {
          "indexed": true,
          "name": "orderHash",
          "type": "bytes32"
        },
        {
          "indexed": true,
          "name": "orderMaker",
          "type": "address"
        },
        {
          "indexed": false,
          "name": "fillAmount",
          "type": "uint256"
        },
        {
          "indexed": false,
          "name": "triggerPrice",
          "type": "uint256"
        },
        {
          "indexed": false,
          "name": "orderFlags",
          "type": "bytes32"
        },
        {
          "components": [
            {
              "name": "price",
              "type": "uint256"
            },
            {
              "name": "fee",
              "type": "uint128"
            },
            {
              "name": "isNegativeFee",
              "type": "bool"
            }
          ],
          "indexed": false,
          "name": "fill",
          "type": "tuple"
        }
      ],
      "name": "LogCanonicalOrderFilled",
      "type": "event"
    },
    {
      "anonymous": false,
      "inputs": [
        {
          "indexed": true,
          "name": "previousOwner",
          "type": "address"
        },
        {
          "indexed": true,
          "name": "newOwner",
          "type": "address"
        }
      ],
      "name": "OwnershipTransferred",
      "type": "event"
    },
    {
      "constant": false,
      "inputs": [],
      "name": "shutDown",
      "outputs": [],
      "payable": false,
      "stateMutability": "nonpayable",
      "type": "function"
    },
    {
      "constant": false,
      "inputs": [],
      "name": "startUp",
      "outputs": [],
      "payable": false,
      "stateMutability": "nonpayable",
      "type": "function"
    },
    {
      "constant": false,
      "inputs": [
        {
          "name": "taker",
          "type": "address"
        }
      ],
      "name": "setTakerAddress",
      "outputs": [],
      "payable": false,
      "stateMutability": "nonpayable",
      "type": "function"
    },
    {
      "constant": false,
      "inputs": [
        {
          "components": [
            {
              "name": "flags",
              "type": "bytes32"
            },
            {
              "name": "baseMarket",
              "type": "uint256"
            },
            {
              "name": "quoteMarket",
              "type": "uint256"
            },
            {
              "name": "amount",
              "type": "uint256"
            },
            {
              "name": "limitPrice",
              "type": "uint256"
            },
            {
              "name": "triggerPrice",
              "type": "uint256"
            },
            {
              "name": "limitFee",
              "type": "uint256"
            },
            {
              "name": "makerAccountOwner",
              "type": "address"
            },
            {
              "name": "makerAccountNumber",
              "type": "uint256"
            },
            {
              "name": "expiration",
              "type": "uint256"
            }
          ],
          "name": "order",
          "type": "tuple"
        }
      ],
      "name": "cancelOrder",
      "outputs": [],
      "payable": false,
      "stateMutability": "nonpayable",
      "type": "function"
    },
    {
      "constant": false,
      "inputs": [
        {
          "components": [
            {
              "name": "flags",
              "type": "bytes32"
            },
            {
              "name": "baseMarket",
              "type": "uint256"
            },
            {
              "name": "quoteMarket",
              "type": "uint256"
            },
            {
              "name": "amount",
              "type": "uint256"
            },
            {
              "name": "limitPrice",
              "type": "uint256"
            },
            {
              "name": "triggerPrice",
              "type": "uint256"
            },
            {
              "name": "limitFee",
              "type": "uint256"
            },
            {
              "name": "makerAccountOwner",
              "type": "address"
            },
            {
              "name": "makerAccountNumber",
              "type": "uint256"
            },
            {
              "name": "expiration",
              "type": "uint256"
            }
          ],
          "name": "order",
          "type": "tuple"
        }
      ],
      "name": "approveOrder",
      "outputs": [],
      "payable": false,
      "stateMutability": "nonpayable",
      "type": "function"
    },
    {
      "constant": false,
      "inputs": [
        {
          "name": "inputMarketId",
          "type": "uint256"
        },
        {
          "name": "outputMarketId",
          "type": "uint256"
        },
        {
          "components": [
            {
              "name": "owner",
              "type": "address"
            },
            {
              "name": "number",
              "type": "uint256"
            }
          ],
          "name": "makerAccount",
          "type": "tuple"
        },
        {
          "components": [
            {
              "name": "owner",
              "type": "address"
            },
            {
              "name": "number",
              "type": "uint256"
            }
          ],
          "name": "takerAccount",
          "type": "tuple"
        },
        {
          "components": [
            {
              "name": "sign",
              "type": "bool"
            },
            {
              "name": "value",
              "type": "uint128"
            }
          ],
          "name": "oldInputPar",
          "type": "tuple"
        },
        {
          "components": [
            {
              "name": "sign",
              "type": "bool"
            },
            {
              "name": "value",
              "type": "uint128"
            }
          ],
          "name": "newInputPar",
          "type": "tuple"
        },
        {
          "components": [
            {
              "name": "sign",
              "type": "bool"
            },
            {
              "name": "value",
              "type": "uint256"
            }
          ],
          "name": "inputWei",
          "type": "tuple"
        },
        {
          "name": "data",
          "type": "bytes"
        }
      ],
      "name": "getTradeCost",
      "outputs": [
        {
          "components": [
            {
              "name": "sign",
              "type": "bool"
            },
            {
              "name": "denomination",
              "type": "uint8"
            },
            {
              "name": "ref",
              "type": "uint8"
            },
            {
              "name": "value",
              "type": "uint256"
            }
          ],
          "name": "",
          "type": "tuple"
        }
      ],
      "payable": false,
      "stateMutability": "nonpayable",
      "type": "function"
    },
    {
      "constant": false,
      "inputs": [
        {
          "name": "",
          "type": "address"
        },
        {
          "components": [
            {
              "name": "owner",
              "type": "address"
            },
            {
              "name": "number",
              "type": "uint256"
            }
          ],
          "name": "accountInfo",
          "type": "tuple"
        },
        {
          "name": "data",
          "type": "bytes"
        }
      ],
      "name": "callFunction",
      "outputs": [],
      "payable": false,
      "stateMutability": "nonpayable",
      "type": "function"
    },
    {
      "constant": true,
      "inputs": [
        {
          "name": "orderHashes",
          "type": "bytes32[]"
        }
      ],
      "name": "getOrderStates",
      "outputs": [
        {
          "components": [
            {
              "name": "orderStatus",
              "type": "uint8"
            },
            {
              "name": "filledAmount",
              "type": "uint256"
            }
          ],
          "name": "",
          "type": "tuple[]"
        }
      ],
      "payable": false,
      "stateMutability": "view",
      "type": "function"
    }
  ],
  "bytecode": "0x60806040523480156200001157600080fd5b5060405160608062003f358339810180604052620000339190810190620001e3565b60008054600160a060020a03191633178082556040518592600160a060020a039290921691907f8be0079c531659141344cd1fd0a4f28419497f9722a3daafe3b4186f6b6457e0908290a360018054600160a060020a0319908116600160a060020a039384161782556003805460ff191690921790915560088054909116918416919091179055604051620000cb90602001620003b5565b60408051601f1981840301815282825280516020918201208383018352600f84527f43616e6f6e6963616c4f726465727300000000000000000000000000000000009382019390935281518083018352600381527f312e3100000000000000000000000000000000000000000000000000000000009082015290516200019b92917f78063c762590c382f592b86ecf864b854a8cf20c2c1c2021c353cf405c34e526917f722c0e0c80487266e8c6a45e3a1a803aab23378a9c32e6ebe029d4fad7bfc96591869130910162000409565b6040516020818303038152906040528051906020012060028190555050505062000480565b6000620001ce825162000464565b9392505050565b6000620001ce825162000471565b600080600060608486031215620001f957600080fd5b6000620002078686620001c0565b93505060206200021a86828701620001c0565b92505060406200022d86828701620001d5565b9150509250925092565b620002428162000464565b82525050565b620002428162000471565b600062000262600c836200045f565b7f737472696e67206e616d652c00000000000000000000000000000000000000008152600c0192915050565b60006200029d6019836200045f565b7f6164647265737320766572696679696e67436f6e747261637400000000000000815260190192915050565b6000620002d86010836200045f565b7f75696e7432353620636861696e49642c00000000000000000000000000000000815260100192915050565b6000620003136001836200045f565b7f2900000000000000000000000000000000000000000000000000000000000000815260010192915050565b60006200034e600f836200045f565b7f737472696e672076657273696f6e2c00000000000000000000000000000000008152600f0192915050565b600062000389600d836200045f565b7f454950373132446f6d61696e28000000000000000000000000000000000000008152600d0192915050565b6000620003c2826200037a565b9150620003cf8262000253565b9150620003dc826200033f565b9150620003e982620002c9565b9150620003f6826200028e565b9150620004038262000304565b92915050565b60a0810162000419828862000248565b62000428602083018762000248565b62000437604083018662000248565b62000446606083018562000248565b62000455608083018462000237565b9695505050505050565b919050565b6000620004038262000474565b90565b600160a060020a031690565b613aa580620004906000396000f3fe608060405234801561001057600080fd5b506004361061016e576000357c0100000000000000000000000000000000000000000000000000000000900480638da5cb5b116100ea578063e168f1621161009e578063f2fde38b11610083578063f2fde38b146102b5578063f4bed5c2146102c8578063f72ac9cb146102db5761016e565b8063e168f1621461028d578063e306f779146102ad5761016e565b8063ae9c1f3b116100cf578063ae9c1f3b1461023a578063b1da6c5d1461025a578063bf6814681461027a5761016e565b80638da5cb5b1461021d5780638f32d59b146102255761016e565b806330e4a78411610141578063715018a611610126578063715018a6146101ef5780637e13608a146101f75780638b4187131461020a5761016e565b806330e4a784146101c7578063448f7065146101cf5761016e565b8063011448c014610173578063053058291461019157806310b9e583146101a85780631b1fe68a146101b2575b600080fd5b61017b6102e3565b6040516101889190613733565b60405180910390f35b6101996102ff565b60405161018893929190613815565b6101b0610333565b005b6101ba6103a7565b60405161018891906137bf565b6101b06103c3565b6101e26101dd366004612eec565b610430565b60405161018891906137ec565b6101b0610561565b6101b0610205366004612e5f565b6105e1565b6101b0610218366004612d1e565b6105ee565b61017b6107a8565b61022d6107c4565b6040516101889190613752565b61024d610248366004612d83565b6107e2565b6040516101889190613741565b61026d610268366004612db8565b6108ba565b60405161018891906137cd565b6101b0610288366004612e5f565b6108cf565b6102a061029b366004612db8565b6108d9565b6040516101889190613760565b6102a06108eb565b6101b06102c3366004612d00565b6108f1565b6101b06102d6366004612d00565b61090b565b61022d610997565b60085473ffffffffffffffffffffffffffffffffffffffff1681565b6006546007546fffffffffffffffffffffffffffffffff811690700100000000000000000000000000000000900460ff1683565b61033b6107c4565b61034457600080fd5b600380547fffffffffffffffffffffffffffffffffffffffffffffffffffffffffffffff001690556040517fb1d9c58e15575cc8f39116b6f52b62a2084f451e18538555102a4fc6960e6c579061039d90600090613752565b60405180910390a1565b60015473ffffffffffffffffffffffffffffffffffffffff1681565b6103cb6107c4565b6103d457600080fd5b600380547fffffffffffffffffffffffffffffffffffffffffffffffffffffffffffffff001660019081179091556040517fb1d9c58e15575cc8f39116b6f52b62a2084f451e18538555102a4fc6960e6c579161039d91613752565b610438612764565b60015433906104a19073ffffffffffffffffffffffffffffffffffffffff1682147f4f6e6c79536f6c6f0000000000000000000000000000000000000000000000007f4f6e6c7920536f6c6f2063616e2063616c6c2066756e6374696f6e0000000000846109a0565b6003546104f29060ff167f43616e6f6e6963616c4f726465727300000000000000000000000000000000007f436f6e7472616374206973206e6f74206f7065726174696f6e616c0000000000610aa5565b6104fa61278e565b61050384610af4565b905061050f8185610c84565b61051d818a8a8e8e8a610dce565b610525612764565b6105318c8c8885611274565b905061054082600001516113bb565b15610552576105528888838d8f6113c4565b9b9a5050505050505050505050565b6105696107c4565b61057257600080fd5b6000805460405173ffffffffffffffffffffffffffffffffffffffff909116907f8be0079c531659141344cd1fd0a4f28419497f9722a3daafe3b4186f6b6457e0908390a3600080547fffffffffffffffffffffffff0000000000000000000000000000000000000000169055565b6105eb3382611587565b50565b60015433906106579073ffffffffffffffffffffffffffffffffffffffff1682147f4f6e6c79536f6c6f0000000000000000000000000000000000000000000000007f4f6e6c7920536f6c6f2063616e2063616c6c2066756e6374696f6e0000000000846109a0565b60008280602001905161066d9190810190612dd6565b9050600281600281111561067d57fe5b14156107385761068b6127bc565b8380602001905161069f9190810190612df4565b80516006556020810151600780546040909301511515700100000000000000000000000000000000027fffffffffffffffffffffffffffffff00ffffffffffffffffffffffffffffffff6fffffffffffffffffffffffffffffffff9093167fffffffffffffffffffffffffffffffff00000000000000000000000000000000909416939093179190911691909117905591506107a19050565b6107406127dc565b838060200190516107549190810190612e2e565b9092509050600082600281111561076757fe5b141561077e57845161077990826116ad565b61079f565b600182600281111561078c57fe5b1461079357fe5b845161079f9082611587565b505b5050505050565b60005473ffffffffffffffffffffffffffffffffffffffff1690565b60005473ffffffffffffffffffffffffffffffffffffffff16331490565b606060008251905060608160405190808252806020026020018201604052801561082657816020015b610813612848565b81526020019060019003908161080b5790505b50905060005b828110156108b057600085828151811061084257fe5b60209081029190910181015160408051808201825260008381526005909452922054909250819060ff16600281111561087757fe5b8152600083815260046020908152604090912054910152835184908490811061089c57fe5b60209081029190910101525060010161082c565b509150505b919050565b60056020526000908152604090205460ff1681565b6105eb33826116ad565b60046020526000908152604090205481565b60025481565b6108f96107c4565b61090257600080fd5b6105eb8161182d565b6109136107c4565b61091c57600080fd5b600880547fffffffffffffffffffffffff00000000000000000000000000000000000000001673ffffffffffffffffffffffffffffffffffffffff83161790556040517fd08ef86981c8f6d29e221404bfda674d1714579efc9d97735a81c9a61a475c529061098c908390613733565b60405180910390a150565b60035460ff1681565b83610a9f576109ae836118da565b7f3a200000000000000000000000000000000000000000000000000000000000006109d8846118da565b7f203c000000000000000000000000000000000000000000000000000000000000610a02856119d5565b604051610a389594939291907f3e0000000000000000000000000000000000000000000000000000000000000090602001613595565b604080517fffffffffffffffffffffffffffffffffffffffffffffffffffffffffffffffe0818403018152908290527f08c379a0000000000000000000000000000000000000000000000000000000008252610a96916004016137db565b60405180910390fd5b50505050565b82610aef57610ab3826118da565b7f3a20000000000000000000000000000000000000000000000000000000000000610add836118da565b604051602001610a389392919061356d565b505050565b610afc61278e565b610b596101a083511480610b12575082516101e2145b7f43616e6f6e6963616c4f726465727300000000000000000000000000000000007f43616e6e6f74207061727365206f726465722066726f6d206461746100000000610aa5565b610b6161278e565b82806020019051610b759190810190612e7e565b6020830181905290825251610c1b576040805160608082018352600680548352600780546fffffffffffffffffffffffffffffffff811660208087019190915260ff7001000000000000000000000000000000008304161515868801528781019590955285519384018652600080855294840185905292909401839052919091557fffffffffffffffffffffffffffffff00000000000000000000000000000000001690555b602081015151610c6e9015157f43616e6f6e6963616c4f726465727300000000000000000000000000000000007f46696c6c41726773206c6f61646564207072696365206973207a65726f000000610aa5565b8051610c7990611b88565b604082015292915050565b604080830151600090815260056020529081205460ff1690816002811115610ca857fe5b1415610d5a576060610cb983611c4b565b90506000610ccb856040015183611ce8565b9050610d538173ffffffffffffffffffffffffffffffffffffffff16866000015160e0015173ffffffffffffffffffffffffffffffffffffffff16147f43616e6f6e6963616c4f726465727300000000000000000000000000000000007f4f7264657220696e76616c6964207369676e61747572650000000000000000008860400151611f1b565b5050610aef565b610db96002826002811115610d6b57fe5b14157f43616e6f6e6963616c4f726465727300000000000000000000000000000000007f4f726465722063616e63656c65640000000000000000000000000000000000008660400151611f1b565b6001816002811115610dc757fe5b14610aef57fe5b610dd66127bc565b5060208601518651600090610dea90611f7d565b610dfd5787516080015182511015610e08565b875160800151825111155b9050610e55817f43616e6f6e6963616c4f726465727300000000000000000000000000000000007f46696c6c20696e76616c69642070726963650000000000000000000000000000610aa5565b6000610e648960000151611f86565b610e9857885160c0015160208401516fffffffffffffffffffffffffffffffff16111580610e93575082604001515b610ec4565b885160c0015160208401516fffffffffffffffffffffffffffffffff1610801590610ec4575082604001515b9050610f11817f43616e6f6e6963616c4f726465727300000000000000000000000000000000007f46696c6c20696e76616c69642066656500000000000000000000000000000000610aa5565b885160a0015115610fad5788516020810151604090910151600091610f3591611f8f565b9050610fab610f478b60000151611f7d565b610f59578a5160a00151821115610f63565b8a5160a001518210155b7f43616e6f6e6963616c4f726465727300000000000000000000000000000000007f4f7264657220747269676765725072696365206e6f742074726967676572656484612127565b505b88516101200151611016901580610fca5750895161012001514211155b7f43616e6f6e6963616c4f726465727300000000000000000000000000000000007f4f726465722065787069726564000000000000000000000000000000000000008c60400151611f1b565b885160e00151885161109e9173ffffffffffffffffffffffffffffffffffffffff918216911614801561105257508951610100015160208a0151145b7f43616e6f6e6963616c4f726465727300000000000000000000000000000000007f4f72646572206d616b6572206163636f756e74206d69736d61746368000000008c60400151611f1b565b600854875160408b01516111149273ffffffffffffffffffffffffffffffffffffffff928316921691909114907f43616e6f6e6963616c4f72646572730000000000000000000000000000000000907f4f726465722074616b6572206d69736d6174636800000000000000000000000090611f1b565b88516020015161119a9086148015611130575089516040015187145b8061114e57508951604001518614801561114e575089516020015187145b7f43616e6f6e6963616c4f726465727300000000000000000000000000000000007f4d61726b6574206d69736d6174636800000000000000000000000000000000008c60400151611f1b565b6111f36111a685612189565b157f43616e6f6e6963616c4f726465727300000000000000000000000000000000007f496e707574576569206973207a65726f000000000000000000000000000000008c60400151611f1b565b6112696112038a60000151611f7d565b1515878b600001516020015114151514151585600001511515147f43616e6f6e6963616c4f726465727300000000000000000000000000000000007f496e707574576569207369676e206d69736d61746368000000000000000000008c60400151611f1b565b505050505050505050565b61127c612764565b6020808301519081015190516000916112b691906fffffffffffffffffffffffffffffffff16670de0b6b3a764000063ffffffff61219116565b9050600083602001516040015115156112d28560000151611f7d565b1515146112f4576020840151516112ef908363ffffffff6121b116565b61130a565b60208401515161130a908363ffffffff6121c316565b905060008088866000015160400151141561134757602087015161133d90670de0b6b3a76400008563ffffffff61219116565b915081905061137d565b855160400151881461135557fe5b60208701516113739084670de0b6b3a764000063ffffffff61219116565b9150866020015190505b61138786826121d8565b604080516080810190915287511581526020810160008152602001600081526020019290925250925050505b949350505050565b51600216151590565b61145f6113d0856122e4565b80611418575085602001516fffffffffffffffffffffffffffffffff1685602001516fffffffffffffffffffffffffffffffff16111580156114185750855185511515901515145b7f43616e6f6e6963616c4f726465727300000000000000000000000000000000007f696e7075744d61726b6574206e6f742064656372656173656400000000000000610aa5565b61146761285a565b6001546040517fc190c2ec00000000000000000000000000000000000000000000000000000000815273ffffffffffffffffffffffffffffffffffffffff9091169063c190c2ec906114bf90869086906004016137fa565b604080518083038186803b1580156114d657600080fd5b505afa1580156114ea573d6000803e3d6000fd5b505050506040513d601f19601f8201168201806040525061150e9190810190612ece565b905061079f84606001516000148061154057508160200151856060015111158015611540575081518551151590151514155b7f43616e6f6e6963616c4f726465727300000000000000000000000000000000007f6f75747075744d61726b6574206e6f7420646563726561736564000000000000610aa5565b6116048160e0015173ffffffffffffffffffffffffffffffffffffffff168373ffffffffffffffffffffffffffffffffffffffff16147f43616e6f6e6963616c4f726465727300000000000000000000000000000000007f43616e63656c6572206d757374206265206d616b657200000000000000000000610aa5565b600061160f82611b88565b600081815260056020526040902080549192506002917fffffffffffffffffffffffffffffffffffffffffffffffffffffffffffffff001660018302179055508273ffffffffffffffffffffffffffffffffffffffff16817f470a77d150d73acf42d459182993d0e8861612a92531443f9154291def5f3566846020015185604001516040516116a092919061383d565b60405180910390a3505050565b61172a8160e0015173ffffffffffffffffffffffffffffffffffffffff168373ffffffffffffffffffffffffffffffffffffffff16147f43616e6f6e6963616c4f726465727300000000000000000000000000000000007f417070726f766572206d757374206265206d616b657200000000000000000000610aa5565b600061173582611b88565b90506117a3600260008381526005602052604090205460ff16600281111561175957fe5b14157f43616e6f6e6963616c4f726465727300000000000000000000000000000000007f43616e6e6f7420617070726f76652063616e63656c6564206f7264657200000084611f1b565b60008181526005602090815260409182902080547fffffffffffffffffffffffffffffffffffffffffffffffffffffffffffffff0016600117905583015183820151915173ffffffffffffffffffffffffffffffffffffffff86169284927f617b2bc8722441b08524a4dadaa39d62f81972e5889151c21d97978afc712f17926116a0929061383d565b73ffffffffffffffffffffffffffffffffffffffff811661184d57600080fd5b6000805460405173ffffffffffffffffffffffffffffffffffffffff808516939216917f8be0079c531659141344cd1fd0a4f28419497f9722a3daafe3b4186f6b6457e091a3600080547fffffffffffffffffffffffff00000000000000000000000000000000000000001673ffffffffffffffffffffffffffffffffffffffff92909216919091179055565b606080826040516020016118ee9190613558565b604080517fffffffffffffffffffffffffffffffffffffffffffffffffffffffffffffffe0818403018152919052905060205b80156119be5781517fffffffffffffffffffffffffffffffffffffffffffffffffffffffffffffffff9091019082908290811061195a57fe5b6020910101517f010000000000000000000000000000000000000000000000000000000000000090819004027fff0000000000000000000000000000000000000000000000000000000000000016156119b957600101815290506108b5565b611921565b505060408051600081526020810190915292915050565b60408051602a808252606082810190935273ffffffffffffffffffffffffffffffffffffffff841691839160208201818038833901905050905060307f01000000000000000000000000000000000000000000000000000000000000000281600081518110611a4057fe5b60200101907effffffffffffffffffffffffffffffffffffffffffffffffffffffffffffff1916908160001a90535060787f01000000000000000000000000000000000000000000000000000000000000000281600181518110611aa057fe5b60200101907effffffffffffffffffffffffffffffffffffffffffffffffffffffffffffff1916908160001a90535060005b60148110156108b05760028102611aeb600f85166122fe565b838260290381518110611afa57fe5b60200101907effffffffffffffffffffffffffffffffffffffffffffffffffffffffffffff1916908160001a905350601090930492611b3b600f85166122fe565b838260280381518110611b4a57fe5b60200101907effffffffffffffffffffffffffffffffffffffffffffffffffffffffffffff1916908160001a90535050601090920491600101611ad2565b600080604051602001611b9a906136af565b6040516020818303038152906040528051906020012083604051602001611bc292919061376e565b604080517fffffffffffffffffffffffffffffffffffffffffffffffffffffffffffffffe0818403018152908290528051602091820120600254909350611c2d927f190100000000000000000000000000000000000000000000000000000000000092859101613521565b60405160208183030381529060405280519060200120915050919050565b6060611ca060426101a0018351147f43616e6f6e6963616c4f726465727300000000000000000000000000000000007f43616e6e6f74207061727365207369676e61747572652066726f6d2064617461610aa5565b604080516042808252608082019092526060916020820181803883395050506101c084015160208201526101e084015160408201526101e29093015160428401525090919050565b6000611d3960428351147f54797065645369676e61747572650000000000000000000000000000000000007f496e76616c6964207369676e6174757265206c656e6774680000000000000000610aa5565b602082015160408301516060840151600081901a9060011a611d9f600382107f54797065645369676e61747572650000000000000000000000000000000000007f496e76616c6964207369676e6174757265207479706500000000000000000000610aa5565b60008160ff166003811115611db057fe5b9050600080826003811115611dc157fe5b1415611dce575087611ebd565b6001826003811115611ddc57fe5b1415611e47576040518060400160405280601c81526020017f19457468657265756d205369676e6564204d6573736167653a0a33320000000081525089604051602001611e2a92919061368d565b604051602081830303815290604052805190602001209050611ebd565b6002826003811115611e5557fe5b14611e5c57fe5b6040518060400160405280601b81526020017f19457468657265756d205369676e6564204d6573736167653a0a20000000000081525089604051602001611ea492919061368d565b6040516020818303038152906040528051906020012090505b60018185888860405160008152602001604052604051611ee0949392919061378a565b6020604051602081039080840390855afa158015611f02573d6000803e3d6000fd5b5050506020604051035196505050505050505b92915050565b83610a9f57611f29836118da565b7f3a20000000000000000000000000000000000000000000000000000000000000611f53846118da565b7f203c000000000000000000000000000000000000000000000000000000000000610a028561235e565b51600116151590565b51600416151590565b6000611f99612871565b6001546040517f8928378e00000000000000000000000000000000000000000000000000000000815273ffffffffffffffffffffffffffffffffffffffff90911690638928378e90611fef908790600401613760565b60206040518083038186803b15801561200757600080fd5b505afa15801561201b573d6000803e3d6000fd5b505050506040513d601f19601f8201168201806040525061203f9190810190612eb0565b9050612049612871565b6001546040517f8928378e00000000000000000000000000000000000000000000000000000000815273ffffffffffffffffffffffffffffffffffffffff90911690638928378e9061209f908790600401613760565b60206040518083038186803b1580156120b757600080fd5b505afa1580156120cb573d6000803e3d6000fd5b505050506040513d601f19601f820116820180604052506120ef9190810190612eb0565b8051835191925061211e9161211290670de0b6b3a764000063ffffffff6124fd16565b9063ffffffff61252416565b95945050505050565b83610a9f57612135836118da565b7f3a2000000000000000000000000000000000000000000000000000000000000061215f846118da565b7f203c000000000000000000000000000000000000000000000000000000000000610a0285612546565b602001511590565b60006121a782612112868663ffffffff6124fd16565b90505b9392505050565b6000828201838110156121aa57600080fd5b6000828211156121d257600080fd5b50900390565b6040808301516000908152600460205290812054906121fd828463ffffffff6121b116565b905061225c8460000151606001518211157f43616e6f6e6963616c4f726465727300000000000000000000000000000000007f43616e6e6f74206f76657266696c6c206f72646572000000000000000000000087604001518688612674565b6040808501805160009081526004602090815290839020849055865160e0810151925160a0820151915192890151945173ffffffffffffffffffffffffffffffffffffffff9094169490937f7be266734f0c132a415c32a35b76cbf3d8a02fa3d88628b286dcf713f53f1e2d936122d6938a939092613858565b60405180910390a350505050565b602001516fffffffffffffffffffffffffffffffff161590565b6000600a82101561233557507f010000000000000000000000000000000000000000000000000000000000000060308201026108b5565b506057017f01000000000000000000000000000000000000000000000000000000000000000290565b604080516042808252608082019092526060918391839160208201818038833901905050905060307f010000000000000000000000000000000000000000000000000000000000000002816000815181106123b557fe5b60200101907effffffffffffffffffffffffffffffffffffffffffffffffffffffffffffff1916908160001a90535060787f0100000000000000000000000000000000000000000000000000000000000000028160018151811061241557fe5b60200101907effffffffffffffffffffffffffffffffffffffffffffffffffffffffffffff1916908160001a90535060005b60208110156108b05760028102612460600f85166122fe565b83826041038151811061246f57fe5b60200101907effffffffffffffffffffffffffffffffffffffffffffffffffffffffffffff1916908160001a9053506010909304926124b0600f85166122fe565b8382604003815181106124bf57fe5b60200101907effffffffffffffffffffffffffffffffffffffffffffffffffffffffffffff1916908160001a90535050601090920491600101612447565b60008261250c57506000611f15565b8282028284828161251957fe5b04146121aa57600080fd5b600080821161253257600080fd5b600082848161253d57fe5b04949350505050565b606081612587575060408051808201909152600181527f300000000000000000000000000000000000000000000000000000000000000060208201526108b5565b8160005b811561259f57600101600a8204915061258b565b6060816040519080825280601f01601f1916602001820160405280156125cc576020820181803883390190505b508593509050815b801561266b577fffffffffffffffffffffffffffffffffffffffffffffffffffffffffffffffff01600a84066030017f01000000000000000000000000000000000000000000000000000000000000000282828151811061263157fe5b60200101907effffffffffffffffffffffffffffffffffffffffffffffffffffffffffffff1916908160001a905350600a840493506125d4565b50949350505050565b8561079f57612682856118da565b7f3a200000000000000000000000000000000000000000000000000000000000006126ac866118da565b7f203c0000000000000000000000000000000000000000000000000000000000006126d68761235e565b7f2c2000000000000000000000000000000000000000000000000000000000000061270088612546565b7f2c2000000000000000000000000000000000000000000000000000000000000061272a89612546565b604051610a38999897969594939291907f3e00000000000000000000000000000000000000000000000000000000000000906020016135f3565b604080516080810190915260008082526020820190815260200160005b8152602001600081525090565b604051806101c001604052806127a26127dc565b81526020016127af6127bc565b8152600060209091015290565b604080516060810182526000808252602082018190529181019190915290565b60405180610140016040528060008019168152602001600081526020016000815260200160008152602001600081526020016000815260200160008152602001600073ffffffffffffffffffffffffffffffffffffffff16815260200160008152602001600081525090565b60408051808201909152806000612781565b604080518082019091526000808252602082015290565b6040518060200160405280600081525090565b60006121aa823561392e565b60006121aa825161392e565b600082601f8301126128ad57600080fd5b81356128c06128bb826138b4565b61388d565b915081818352602084019350602081019050838560208402820111156128e557600080fd5b60005b8381101561291157816128fb8882612933565b84525060209283019291909101906001016128e8565b5050505092915050565b60006121aa8235613939565b60006121aa8251613939565b60006121aa8235613988565b60006121aa8251613988565b600082601f83011261295c57600080fd5b813561296a6128bb826138d5565b9150808252602083016020830185838301111561298657600080fd5b612991838284613a0b565b50505092915050565b60006121aa82516139db565b6000606082840312156129b857600080fd5b6129c2606061388d565b905060006129d0848461293f565b82525060206129e184848301612cf4565b60208301525060406129f584828501612927565b60408301525092915050565b600060408284031215612a1357600080fd5b612a1d604061388d565b90506000612a2b8484612884565b8252506020612a3c84848301612933565b60208301525092915050565b60006101408284031215612a5b57600080fd5b612a6661014061388d565b90506000612a74848461293f565b8252506020612a858484830161293f565b6020830152506040612a998482850161293f565b6040830152506060612aad8482850161293f565b6060830152506080612ac18482850161293f565b60808301525060a0612ad58482850161293f565b60a08301525060c0612ae98482850161293f565b60c08301525060e0612afd84828501612890565b60e083015250610100612b128482850161293f565b61010083015250610120612b288482850161293f565b6101208301525092915050565b60006101408284031215612b4857600080fd5b612b5361014061388d565b90506000612b618484612933565b8252506020612b7284848301612933565b6020830152506040612b8684828501612933565b6040830152506060612b9a84828501612933565b6060830152506080612bae84828501612933565b60808301525060a0612bc284828501612933565b60a08301525060c0612bd684828501612933565b60c08301525060e0612bea84828501612884565b60e083015250610100612bff84828501612933565b61010083015250610120612b2884828501612933565b600060408284031215612c2757600080fd5b612c31604061388d565b90506000612c3f848461291b565b8252506020612a3c84848301612ce8565b600060208284031215612c6257600080fd5b612c6c602061388d565b90506000612c7a848461293f565b82525092915050565b600060408284031215612c9557600080fd5b612c9f604061388d565b90506000612a2b848461291b565b600060408284031215612cbf57600080fd5b612cc9604061388d565b90506000612cd78484612927565b8252506020612a3c8484830161293f565b60006121aa82356139a7565b60006121aa82516139a7565b600060208284031215612d1257600080fd5b60006113b38484612884565b600080600060808486031215612d3357600080fd5b6000612d3f8686612884565b9350506020612d5086828701612a01565b925050606084013567ffffffffffffffff811115612d6d57600080fd5b612d798682870161294b565b9150509250925092565b600060208284031215612d9557600080fd5b813567ffffffffffffffff811115612dac57600080fd5b6113b38482850161289c565b600060208284031215612dca57600080fd5b60006113b38484612933565b600060208284031215612de857600080fd5b60006113b3848461299a565b60008060808385031215612e0757600080fd5b6000612e13858561299a565b9250506020612e24858286016129a6565b9150509250929050565b6000806101608385031215612e4257600080fd5b6000612e4e858561299a565b9250506020612e2485828601612a48565b60006101408284031215612e7257600080fd5b60006113b38484612b35565b6000806101a08385031215612e9257600080fd5b6000612e9e8585612a48565b925050610140612e24858286016129a6565b600060208284031215612ec257600080fd5b60006113b38484612c50565b600060408284031215612ee057600080fd5b60006113b38484612cad565b6000806000806000806000806101a0898b031215612f0957600080fd5b6000612f158b8b612933565b9850506020612f268b828c01612933565b9750506040612f378b828c01612a01565b9650506080612f488b828c01612a01565b95505060c0612f598b828c01612c15565b945050610100612f6b8b828c01612c15565b935050610140612f7d8b828c01612c83565b92505061018089013567ffffffffffffffff811115612f9b57600080fd5b612fa78b828c0161294b565b9150509295985092959890939650565b6000612fc3838361343d565b505060400190565b612fd48161392e565b82525050565b6000612fe582613921565b612fef8185613925565b9350612ffa8361391b565b60005b8281101561302557613010868351612fb7565b955061301b8261391b565b9150600101612ffd565b5093949350505050565b612fd481613939565b612fd46130448261393e565b613988565b612fd461304482613963565b612fd481613988565b612fd461304482613988565b600061307582613921565b61307f81856108b5565b935061308f818560208601613a17565b9290920192915050565b612fd4816139ea565b612fd4816139f5565b612fd481613a00565b60006130bf82613921565b6130c98185613925565b93506130d9818560208601613a17565b6130e281613a43565b9093019392505050565b60006130f96014836108b5565b7f75696e743235362071756f74654d61726b65742c000000000000000000000000815260140192915050565b6000613132600f836108b5565b7f75696e7432353620616d6f756e742c00000000000000000000000000000000008152600f0192915050565b600061316b601b836108b5565b7f75696e74323536206d616b65724163636f756e744e756d6265722c00000000008152601b0192915050565b60006131a46015836108b5565b7f75696e74323536207472696767657250726963652c0000000000000000000000815260150192915050565b60006131dd6013836108b5565b7f75696e7432353620626173654d61726b65742c00000000000000000000000000815260130192915050565b6000613216601a836108b5565b7f61646472657373206d616b65724163636f756e744f776e65722c0000000000008152601a0192915050565b600061324f6001836108b5565b7f2900000000000000000000000000000000000000000000000000000000000000815260010192915050565b6000613288600e836108b5565b7f6279746573333220666c6167732c0000000000000000000000000000000000008152600e0192915050565b60006132c16013836108b5565b7f75696e74323536206c696d697450726963652c00000000000000000000000000815260130192915050565b60006132fa6012836108b5565b7f75696e743235362065787069726174696f6e0000000000000000000000000000815260120192915050565b6000613333600f836108b5565b7f43616e6f6e6963616c4f726465722800000000000000000000000000000000008152600f0192915050565b600061336c6011836108b5565b7f75696e74323536206c696d69744665652c000000000000000000000000000000815260110192915050565b805160808301906133a9848261302f565b5060208201516133bc60208501826130a2565b5060408201516133cf60408501826130a2565b506060820151610a9f6060850182613055565b805160608301906133f38482613055565b506020820151613406602085018261350f565b506040820151610a9f604085018261302f565b8051604083019061342a8482612fcb565b506020820151610a9f6020850182613055565b8051604083019061342a84826130ab565b80516101408301906134608482613055565b5060208201516134736020850182613055565b5060408201516134866040850182613055565b5060608201516134996060850182613055565b5060808201516134ac6080850182613055565b5060a08201516134bf60a0850182613055565b5060c08201516134d260c0850182613055565b5060e08201516134e560e0850182612fcb565b506101008201516134fa610100850182613055565b50610120820151610a9f610120850182613055565b612fd4816139a7565b612fd4816139d5565b600061352d8286613049565b60028201915061353d828561305e565b60208201915061354d828461305e565b506020019392505050565b6000613564828461305e565b50602001919050565b6000613579828661306a565b91506135858285613049565b60028201915061211e828461306a565b60006135a1828961306a565b91506135ad8288613049565b6002820191506135bd828761306a565b91506135c98286613049565b6002820191506135d9828561306a565b91506135e58284613038565b506001019695505050505050565b60006135ff828d61306a565b915061360b828c613049565b60028201915061361b828b61306a565b9150613627828a613049565b600282019150613637828961306a565b91506136438288613049565b600282019150613653828761306a565b915061365f8286613049565b60028201915061366f828561306a565b915061367b8284613038565b506001019a9950505050505050505050565b6000613699828561306a565b91506136a5828461305e565b5060200192915050565b60006136ba82613326565b91506136c58261327b565b91506136d0826131d0565b91506136db826130ec565b91506136e682613125565b91506136f1826132b4565b91506136fc82613197565b91506137078261335f565b915061371282613209565b915061371d8261315e565b9150613728826132ed565b9150611f1582613242565b60208101611f158284612fcb565b602080825281016121aa8184612fda565b60208101611f15828461302f565b60208101611f158284613055565b610160810161377d8285613055565b6121aa602083018461344e565b608081016137988287613055565b6137a56020830186613518565b6137b26040830185613055565b61211e6060830184613055565b60208101611f158284613099565b60208101611f1582846130ab565b602080825281016121aa81846130b4565b60808101611f158284613398565b606081016138088285613419565b6121aa6040830184613055565b606081016138238286613055565b613830602083018561350f565b6113b3604083018461302f565b6040810161384b8285613055565b6121aa6020830184613055565b60c081016138668287613055565b6138736020830186613055565b6138806040830185613055565b61211e60608301846133e2565b60405181810167ffffffffffffffff811182821017156138ac57600080fd5b604052919050565b600067ffffffffffffffff8211156138cb57600080fd5b5060209081020190565b600067ffffffffffffffff8211156138ec57600080fd5b506020601f919091017fffffffffffffffffffffffffffffffffffffffffffffffffffffffffffffffe0160190565b60200190565b5190565b90815260200190565b6000611f15826139bc565b151590565b7fff000000000000000000000000000000000000000000000000000000000000001690565b7fffff0000000000000000000000000000000000000000000000000000000000001690565b90565b60006002821061399757fe5b5090565b60006003821061399757fe5b6fffffffffffffffffffffffffffffffff1690565b73ffffffffffffffffffffffffffffffffffffffff1690565b60ff1690565b60006003821061399757600080fd5b6000611f158261392e565b6000611f158261398b565b6000611f158261399b565b82818337506000910152565b60005b83811015613a32578181015183820152602001613a1a565b83811115610a9f5750506000910152565b601f017fffffffffffffffffffffffffffffffffffffffffffffffffffffffffffffffe0169056fea265627a7a7230582088412d488c1cfe57584ab75abf86ff03157dc6d5386fb43ccefee05c6fb3d7a56c6578706572696d656e74616cf50037",
  "source": "/*\n\n    Copyright 2019 dYdX Trading Inc.\n\n    Licensed under the Apache License, Version 2.0 (the \"License\");\n    you may not use this file except in compliance with the License.\n    You may obtain a copy of the License at\n\n    http://www.apache.org/licenses/LICENSE-2.0\n\n    Unless required by applicable law or agreed to in writing, software\n    distributed under the License is distributed on an \"AS IS\" BASIS,\n    WITHOUT WARRANTIES OR CONDITIONS OF ANY KIND, either express or implied.\n    See the License for the specific language governing permissions and\n    limitations under the License.\n\n*/\n\npragma solidity 0.5.7;\npragma experimental ABIEncoderV2;\n\nimport { SafeMath } from \"openzeppelin-solidity/contracts/math/SafeMath.sol\";\nimport { Ownable } from \"openzeppelin-solidity/contracts/ownership/Ownable.sol\";\nimport { IAutoTrader } from \"../../protocol/interfaces/IAutoTrader.sol\";\nimport { ICallee } from \"../../protocol/interfaces/ICallee.sol\";\nimport { Account } from \"../../protocol/lib/Account.sol\";\nimport { Math } from \"../../protocol/lib/Math.sol\";\nimport { Monetary } from \"../../protocol/lib/Monetary.sol\";\nimport { Require } from \"../../protocol/lib/Require.sol\";\nimport { Types } from \"../../protocol/lib/Types.sol\";\nimport { OnlySolo } from \"../helpers/OnlySolo.sol\";\nimport { TypedSignature } from \"../lib/TypedSignature.sol\";\n\n\n/**\n * @title CanonicalOrders\n * @author dYdX\n *\n * Allows for Canonical Orders to be used with dYdX\n */\ncontract CanonicalOrders is\n    Ownable,\n    OnlySolo,\n    IAutoTrader,\n    ICallee\n{\n    using Math for uint256;\n    using SafeMath for uint256;\n    using Types for Types.Par;\n    using Types for Types.Wei;\n\n    // ============ Constants ============\n\n    bytes32 constant private FILE = \"CanonicalOrders\";\n\n    // EIP191 header for EIP712 prefix\n    bytes2 constant private EIP191_HEADER = 0x1901;\n\n    // EIP712 Domain Name value\n    string constant private EIP712_DOMAIN_NAME = \"CanonicalOrders\";\n\n    // EIP712 Domain Version value\n    string constant private EIP712_DOMAIN_VERSION = \"1.1\";\n\n    // Hash of the EIP712 Domain Separator Schema\n    /* solium-disable-next-line indentation */\n    bytes32 constant private EIP712_DOMAIN_SEPARATOR_SCHEMA_HASH = keccak256(abi.encodePacked(\n        \"EIP712Domain(\",\n        \"string name,\",\n        \"string version,\",\n        \"uint256 chainId,\",\n        \"address verifyingContract\",\n        \")\"\n    ));\n\n    // Hash of the EIP712 CanonicalOrder struct\n    /* solium-disable-next-line indentation */\n    bytes32 constant private EIP712_ORDER_STRUCT_SCHEMA_HASH = keccak256(abi.encodePacked(\n        \"CanonicalOrder(\",\n        \"bytes32 flags,\",\n        \"uint256 baseMarket,\",\n        \"uint256 quoteMarket,\",\n        \"uint256 amount,\",\n        \"uint256 limitPrice,\",\n        \"uint256 triggerPrice,\",\n        \"uint256 limitFee,\",\n        \"address makerAccountOwner,\",\n        \"uint256 makerAccountNumber,\",\n        \"uint256 expiration\",\n        \")\"\n    ));\n\n    // Number of bytes in an Order struct plus number of bytes in a FillArgs struct\n    uint256 constant private NUM_ORDER_AND_FILL_BYTES = 416;\n\n    // Number of bytes in a typed signature\n    uint256 constant private NUM_SIGNATURE_BYTES = 66;\n\n    // The number of decimal places of precision in the price ratio of a triggerPrice\n    uint256 constant private PRICE_BASE = 10 ** 18;\n\n    // Bitmasks for the order.flag argument\n    bytes32 constant private IS_BUY_FLAG = bytes32(uint256(1));\n    bytes32 constant private IS_DECREASE_ONLY_FLAG = bytes32(uint256(1 << 1));\n    bytes32 constant private IS_NEGATIVE_FEE_FLAG = bytes32(uint256(1 << 2));\n\n    // ============ Enums ============\n\n    enum OrderStatus {\n        Null,\n        Approved,\n        Canceled\n    }\n\n    enum CallFunctionType {\n        Approve,\n        Cancel,\n        SetFillArgs\n    }\n\n    // ============ Structs ============\n\n    struct Order {\n        bytes32 flags; // salt, negativeFee, decreaseOnly, isBuy\n        uint256 baseMarket;\n        uint256 quoteMarket;\n        uint256 amount;\n        uint256 limitPrice;\n        uint256 triggerPrice;\n        uint256 limitFee;\n        address makerAccountOwner;\n        uint256 makerAccountNumber;\n        uint256 expiration;\n    }\n\n    struct FillArgs {\n        uint256 price;\n        uint128 fee;\n        bool isNegativeFee;\n    }\n\n    struct OrderInfo {\n        Order order;\n        FillArgs fill;\n        bytes32 orderHash;\n    }\n\n    struct OrderQueryOutput {\n        OrderStatus orderStatus;\n        uint256 filledAmount;\n    }\n\n    // ============ Events ============\n\n    event LogContractStatusSet(\n        bool operational\n    );\n\n    event LogTakerSet(\n        address taker\n    );\n\n    event LogCanonicalOrderCanceled(\n        bytes32 indexed orderHash,\n        address indexed canceler,\n        uint256 baseMarket,\n        uint256 quoteMarket\n    );\n\n    event LogCanonicalOrderApproved(\n        bytes32 indexed orderHash,\n        address indexed approver,\n        uint256 baseMarket,\n        uint256 quoteMarket\n    );\n\n    event LogCanonicalOrderFilled(\n        bytes32 indexed orderHash,\n        address indexed orderMaker,\n        uint256 fillAmount,\n        uint256 triggerPrice,\n        bytes32 orderFlags,\n        FillArgs fill\n    );\n\n    // ============ Immutable Storage ============\n\n    // Hash of the EIP712 Domain Separator data\n    bytes32 public EIP712_DOMAIN_HASH;\n\n    // ============ Mutable Storage ============\n\n    // true if this contract can process orders\n    bool public g_isOperational;\n\n    // order hash => filled amount (in baseAmount)\n    mapping (bytes32 => uint256) public g_filledAmount;\n\n    // order hash => status\n    mapping (bytes32 => OrderStatus) public g_status;\n\n    // stored fillArgs\n    FillArgs public g_fillArgs;\n\n    // required taker address\n    address public g_taker;\n\n    // ============ Constructor ============\n\n    constructor (\n        address soloMargin,\n        address taker,\n        uint256 chainId\n    )\n        public\n        OnlySolo(soloMargin)\n    {\n        g_isOperational = true;\n        g_taker = taker;\n\n        /* solium-disable-next-line indentation */\n        EIP712_DOMAIN_HASH = keccak256(abi.encode(\n            EIP712_DOMAIN_SEPARATOR_SCHEMA_HASH,\n            keccak256(bytes(EIP712_DOMAIN_NAME)),\n            keccak256(bytes(EIP712_DOMAIN_VERSION)),\n            chainId,\n            address(this)\n        ));\n    }\n\n    // ============ Admin Functions ============\n\n    /**\n     * The owner can shut down the exchange.\n     */\n    function shutDown()\n        external\n        onlyOwner\n    {\n        g_isOperational = false;\n        emit LogContractStatusSet(false);\n    }\n\n    /**\n     * The owner can start back up the exchange.\n     */\n    function startUp()\n        external\n        onlyOwner\n    {\n        g_isOperational = true;\n        emit LogContractStatusSet(true);\n    }\n\n    /**\n     * The owner can set the taker address.\n     */\n    function setTakerAddress(\n        address taker\n    )\n        external\n        onlyOwner\n    {\n        g_taker = taker;\n        emit LogTakerSet(taker);\n    }\n\n    // ============ External Functions ============\n\n    /**\n     * Cancels an order.\n     *\n     * @param  order  The order to cancel\n     */\n    function cancelOrder(\n        Order memory order\n    )\n        public\n    {\n        cancelOrderInternal(msg.sender, order);\n    }\n\n    /**\n     * Approves an order. Cannot already be canceled.\n     *\n     * @param  order  The order to approve\n     */\n    function approveOrder(\n        Order memory order\n    )\n        public\n    {\n        approveOrderInternal(msg.sender, order);\n    }\n\n    // ============ Only-Solo Functions ============\n\n    /**\n     * Allows traders to make trades approved by this smart contract. The active trader's account is\n     * the takerAccount and the passive account (for which this contract approves trades\n     * on-behalf-of) is the makerAccount.\n     *\n     * @param  inputMarketId   The market for which the trader specified the original amount\n     * @param  outputMarketId  The market for which the trader wants the resulting amount specified\n     * @param  makerAccount    The account for which this contract is making trades\n     * @param  takerAccount    The account requesting the trade\n     * @param  oldInputPar     The par balance of the makerAccount for inputMarketId pre-trade\n     * @param  newInputPar     The par balance of the makerAccount for inputMarketId post-trade\n     * @param  inputWei        The change in token amount for the makerAccount for the inputMarketId\n     * @param  data            Arbitrary data passed in by the trader\n     * @return                 The AssetAmount for the makerAccount for the outputMarketId\n     */\n    function getTradeCost(\n        uint256 inputMarketId,\n        uint256 outputMarketId,\n        Account.Info memory makerAccount,\n        Account.Info memory takerAccount,\n        Types.Par memory oldInputPar,\n        Types.Par memory newInputPar,\n        Types.Wei memory inputWei,\n        bytes memory data\n    )\n        public\n        onlySolo(msg.sender)\n        returns (Types.AssetAmount memory)\n    {\n        Require.that(\n            g_isOperational,\n            FILE,\n            \"Contract is not operational\"\n        );\n\n        OrderInfo memory orderInfo = getOrderInfo(data);\n\n        verifySignature(orderInfo, data);\n\n        verifyOrderInfo(\n            orderInfo,\n            makerAccount,\n            takerAccount,\n            inputMarketId,\n            outputMarketId,\n            inputWei\n        );\n\n        Types.AssetAmount memory assetAmount = getOutputAssetAmount(\n            inputMarketId,\n            outputMarketId,\n            inputWei,\n            orderInfo\n        );\n\n        if (isDecreaseOnly(orderInfo.order)) {\n            verifyDecreaseOnly(\n                oldInputPar,\n                newInputPar,\n                assetAmount,\n                makerAccount,\n                outputMarketId\n            );\n        }\n\n        return assetAmount;\n    }\n\n    /**\n     * Allows users to send this contract arbitrary data.\n     *\n     *  param  sender       (unused)\n     * @param  accountInfo  The account from which the data is being sent\n     * @param  data         Arbitrary data given by the sender\n     */\n    function callFunction(\n        address /* sender */,\n        Account.Info memory accountInfo,\n        bytes memory data\n    )\n        public\n        onlySolo(msg.sender)\n    {\n        CallFunctionType cft = abi.decode(data, (CallFunctionType));\n\n        if (cft == CallFunctionType.SetFillArgs) {\n            FillArgs memory fillArgs;\n            (cft, fillArgs) = abi.decode(data, (CallFunctionType, FillArgs));\n            g_fillArgs = fillArgs;\n        } else {\n            Order memory order;\n            (cft, order) = abi.decode(data, (CallFunctionType, Order));\n            if (cft == CallFunctionType.Approve) {\n                approveOrderInternal(accountInfo.owner, order);\n            } else {\n                assert(cft == CallFunctionType.Cancel);\n                cancelOrderInternal(accountInfo.owner, order);\n            }\n        }\n    }\n\n    // ============ Getters ============\n\n    /**\n     * Returns the status and the filled amount of several orders.\n     */\n    function getOrderStates(\n        bytes32[] memory orderHashes\n    )\n        public\n        view\n        returns(OrderQueryOutput[] memory)\n    {\n        uint256 numOrders = orderHashes.length;\n        OrderQueryOutput[] memory output = new OrderQueryOutput[](numOrders);\n\n        // for each order\n        for (uint256 i = 0; i < numOrders; i++) {\n            bytes32 orderHash = orderHashes[i];\n            output[i] = OrderQueryOutput({\n                orderStatus: g_status[orderHash],\n                filledAmount: g_filledAmount[orderHash]\n            });\n        }\n        return output;\n    }\n\n    // ============ Private Storage Functions ============\n\n    /**\n     * Cancels an order as long as it is not already canceled.\n     */\n    function cancelOrderInternal(\n        address canceler,\n        Order memory order\n    )\n        private\n    {\n        Require.that(\n            canceler == order.makerAccountOwner,\n            FILE,\n            \"Canceler must be maker\"\n        );\n        bytes32 orderHash = getOrderHash(order);\n        g_status[orderHash] = OrderStatus.Canceled;\n        emit LogCanonicalOrderCanceled(\n            orderHash,\n            canceler,\n            order.baseMarket,\n            order.quoteMarket\n        );\n    }\n\n    /**\n     * Approves an order as long as it is not already approved or canceled.\n     */\n    function approveOrderInternal(\n        address approver,\n        Order memory order\n    )\n        private\n    {\n        Require.that(\n            approver == order.makerAccountOwner,\n            FILE,\n            \"Approver must be maker\"\n        );\n        bytes32 orderHash = getOrderHash(order);\n        Require.that(\n            g_status[orderHash] != OrderStatus.Canceled,\n            FILE,\n            \"Cannot approve canceled order\",\n            orderHash\n        );\n        g_status[orderHash] = OrderStatus.Approved;\n        emit LogCanonicalOrderApproved(\n            orderHash,\n            approver,\n            order.baseMarket,\n            order.quoteMarket\n        );\n    }\n\n    // ============ Private Helper Functions ============\n\n    /**\n     * Parses the order, verifies that it is not expired or canceled, and verifies the signature.\n     */\n    function getOrderInfo(\n        bytes memory data\n    )\n        private\n        returns (OrderInfo memory)\n    {\n        Require.that(\n            (\n                data.length == NUM_ORDER_AND_FILL_BYTES ||\n                data.length == NUM_ORDER_AND_FILL_BYTES + NUM_SIGNATURE_BYTES\n            ),\n            FILE,\n            \"Cannot parse order from data\"\n        );\n\n        // load orderInfo from calldata\n        OrderInfo memory orderInfo;\n        (\n            orderInfo.order,\n            orderInfo.fill\n        ) = abi.decode(data, (Order, FillArgs));\n\n        // load fillArgs from storage if price is zero\n        if (orderInfo.fill.price == 0) {\n            orderInfo.fill = g_fillArgs;\n            g_fillArgs = FillArgs({\n                price: 0,\n                fee: 0,\n                isNegativeFee: false\n            });\n        }\n        Require.that(\n            orderInfo.fill.price != 0,\n            FILE,\n            \"FillArgs loaded price is zero\"\n        );\n\n        orderInfo.orderHash = getOrderHash(orderInfo.order);\n\n        return orderInfo;\n    }\n\n    function verifySignature(\n        OrderInfo memory orderInfo,\n        bytes memory data\n    )\n        private\n        view\n    {\n        OrderStatus orderStatus = g_status[orderInfo.orderHash];\n\n        // verify valid signature or is pre-approved\n        if (orderStatus == OrderStatus.Null) {\n            bytes memory signature = parseSignature(data);\n            address signer = TypedSignature.recover(orderInfo.orderHash, signature);\n            Require.that(\n                orderInfo.order.makerAccountOwner == signer,\n                FILE,\n                \"Order invalid signature\",\n                orderInfo.orderHash\n            );\n        } else {\n            Require.that(\n                orderStatus != OrderStatus.Canceled,\n                FILE,\n                \"Order canceled\",\n                orderInfo.orderHash\n            );\n            assert(orderStatus == OrderStatus.Approved);\n        }\n    }\n\n    /**\n     * Verifies that the order is still fillable for the particular accounts and markets specified.\n     */\n    function verifyOrderInfo(\n        OrderInfo memory orderInfo,\n        Account.Info memory makerAccount,\n        Account.Info memory takerAccount,\n        uint256 inputMarketId,\n        uint256 outputMarketId,\n        Types.Wei memory inputWei\n    )\n        private\n        view\n    {\n        // verify fill price\n        FillArgs memory fill = orderInfo.fill;\n        bool validPrice = isBuy(orderInfo.order)\n            ? fill.price <= orderInfo.order.limitPrice\n            : fill.price >= orderInfo.order.limitPrice;\n        Require.that(\n            validPrice,\n            FILE,\n            \"Fill invalid price\"\n        );\n\n        // verify fill fee\n        bool validFee = isNegativeLimitFee(orderInfo.order)\n            ? (fill.fee >= orderInfo.order.limitFee) && fill.isNegativeFee\n            : (fill.fee <= orderInfo.order.limitFee) || fill.isNegativeFee;\n        Require.that(\n            validFee,\n            FILE,\n            \"Fill invalid fee\"\n        );\n\n        // verify triggerPrice\n        if (orderInfo.order.triggerPrice > 0) {\n            uint256 currentPrice = getCurrentPrice(\n                orderInfo.order.baseMarket,\n                orderInfo.order.quoteMarket\n            );\n            Require.that(\n                isBuy(orderInfo.order)\n                    ? currentPrice >= orderInfo.order.triggerPrice\n                    : currentPrice <= orderInfo.order.triggerPrice,\n                FILE,\n                \"Order triggerPrice not triggered\",\n                currentPrice\n            );\n        }\n\n        // verify expriy\n        Require.that(\n            orderInfo.order.expiration == 0 || orderInfo.order.expiration >= block.timestamp,\n            FILE,\n            \"Order expired\",\n            orderInfo.orderHash\n        );\n\n        // verify maker\n        Require.that(\n            makerAccount.owner == orderInfo.order.makerAccountOwner &&\n            makerAccount.number == orderInfo.order.makerAccountNumber,\n            FILE,\n            \"Order maker account mismatch\",\n            orderInfo.orderHash\n        );\n\n        // verify taker\n        Require.that(\n            takerAccount.owner == g_taker,\n            FILE,\n            \"Order taker mismatch\",\n            orderInfo.orderHash\n        );\n\n        // verify markets\n        Require.that(\n            (\n                orderInfo.order.baseMarket == outputMarketId &&\n                orderInfo.order.quoteMarket == inputMarketId\n            ) || (\n                orderInfo.order.quoteMarket == outputMarketId &&\n                orderInfo.order.baseMarket == inputMarketId\n            ),\n            FILE,\n            \"Market mismatch\",\n            orderInfo.orderHash\n        );\n\n        // verify inputWei is non-zero\n        Require.that(\n            !inputWei.isZero(),\n            FILE,\n            \"InputWei is zero\",\n            orderInfo.orderHash\n        );\n\n        // verify inputWei is positive if-and-only-if:\n        // 1) inputMarket is the baseMarket and the order is a buy order\n        // 2) inputMarket is the quoteMarket and the order is a sell order\n        Require.that(\n            inputWei.sign ==\n                ((orderInfo.order.baseMarket == inputMarketId) == isBuy(orderInfo.order)),\n            FILE,\n            \"InputWei sign mismatch\",\n            orderInfo.orderHash\n        );\n    }\n\n    /**\n     * Verifies that the order is decreasing the size of the maker's position.\n     */\n    function verifyDecreaseOnly(\n        Types.Par memory oldInputPar,\n        Types.Par memory newInputPar,\n        Types.AssetAmount memory assetAmount,\n        Account.Info memory makerAccount,\n        uint256 outputMarketId\n    )\n        private\n        view\n    {\n        // verify that the balance of inputMarketId is not increased\n        Require.that(\n            newInputPar.isZero()\n            || (newInputPar.value <= oldInputPar.value && newInputPar.sign == oldInputPar.sign),\n            FILE,\n            \"inputMarket not decreased\"\n        );\n\n        // verify that the balance of outputMarketId is not increased\n        Types.Wei memory oldOutputWei = SOLO_MARGIN.getAccountWei(makerAccount, outputMarketId);\n        Require.that(\n            assetAmount.value == 0\n            || (assetAmount.value <= oldOutputWei.value && assetAmount.sign != oldOutputWei.sign),\n            FILE,\n            \"outputMarket not decreased\"\n        );\n    }\n\n    /**\n     * Returns the AssetAmount for the outputMarketId given the order and the inputs. Updates the\n     * filled amount of the order in storage.\n     */\n    function getOutputAssetAmount(\n        uint256 inputMarketId,\n        uint256 outputMarketId,\n        Types.Wei memory inputWei,\n        OrderInfo memory orderInfo\n    )\n        private\n        returns (Types.AssetAmount memory)\n    {\n        uint256 fee = orderInfo.fill.price.getPartial(orderInfo.fill.fee, PRICE_BASE);\n        uint256 adjustedPrice = (isBuy(orderInfo.order) == orderInfo.fill.isNegativeFee)\n            ? orderInfo.fill.price.sub(fee)\n            : orderInfo.fill.price.add(fee);\n\n        uint256 outputAmount;\n        uint256 fillAmount;\n        if (orderInfo.order.quoteMarket == inputMarketId) {\n            outputAmount = inputWei.value.getPartial(PRICE_BASE, adjustedPrice);\n            fillAmount = outputAmount;\n        } else {\n            assert(orderInfo.order.quoteMarket == outputMarketId);\n            outputAmount = inputWei.value.getPartial(adjustedPrice, PRICE_BASE);\n            fillAmount = inputWei.value;\n        }\n\n        updateFilledAmount(orderInfo, fillAmount);\n\n        return Types.AssetAmount({\n            sign: !inputWei.sign,\n            denomination: Types.AssetDenomination.Wei,\n            ref: Types.AssetReference.Delta,\n            value: outputAmount\n        });\n    }\n\n    /**\n     * Increases the stored filled amount of the order by fillAmount.\n     * Returns the new total filled amount.\n     */\n    function updateFilledAmount(\n        OrderInfo memory orderInfo,\n        uint256 fillAmount\n    )\n        private\n    {\n        uint256 oldFilledAmount = g_filledAmount[orderInfo.orderHash];\n        uint256 totalFilledAmount = oldFilledAmount.add(fillAmount);\n        Require.that(\n            totalFilledAmount <= orderInfo.order.amount,\n            FILE,\n            \"Cannot overfill order\",\n            orderInfo.orderHash,\n            oldFilledAmount,\n            fillAmount\n        );\n\n        g_filledAmount[orderInfo.orderHash] = totalFilledAmount;\n\n        emit LogCanonicalOrderFilled(\n            orderInfo.orderHash,\n            orderInfo.order.makerAccountOwner,\n            fillAmount,\n            orderInfo.order.triggerPrice,\n            orderInfo.order.flags,\n            orderInfo.fill\n        );\n    }\n\n    /**\n     * Returns the current price of baseMarket divided by the current price of quoteMarket. This\n     * value is multiplied by 10^18.\n     */\n    function getCurrentPrice(\n        uint256 baseMarket,\n        uint256 quoteMarket\n    )\n        private\n        view\n        returns (uint256)\n    {\n        Monetary.Price memory basePrice = SOLO_MARGIN.getMarketPrice(baseMarket);\n        Monetary.Price memory quotePrice = SOLO_MARGIN.getMarketPrice(quoteMarket);\n        return basePrice.value.mul(PRICE_BASE).div(quotePrice.value);\n    }\n\n    // ============ Private Parsing Functions ============\n\n    /**\n     * Returns the EIP712 hash of an order.\n     */\n    function getOrderHash(\n        Order memory order\n    )\n        private\n        view\n        returns (bytes32)\n    {\n        // compute the overall signed struct hash\n        /* solium-disable-next-line indentation */\n        bytes32 structHash = keccak256(abi.encode(\n            EIP712_ORDER_STRUCT_SCHEMA_HASH,\n            order\n        ));\n\n        // compute eip712 compliant hash\n        /* solium-disable-next-line indentation */\n        return keccak256(abi.encodePacked(\n            EIP191_HEADER,\n            EIP712_DOMAIN_HASH,\n            structHash\n        ));\n    }\n\n    /**\n     * Parses out a signature from call data.\n     */\n    function parseSignature(\n        bytes memory data\n    )\n        private\n        pure\n        returns (bytes memory)\n    {\n        Require.that(\n            data.length == NUM_ORDER_AND_FILL_BYTES + NUM_SIGNATURE_BYTES,\n            FILE,\n            \"Cannot parse signature from data\"\n        );\n\n        bytes memory signature = new bytes(NUM_SIGNATURE_BYTES);\n\n        uint256 sigOffset = NUM_ORDER_AND_FILL_BYTES;\n        /* solium-disable-next-line security/no-inline-assembly */\n        assembly {\n            let sigStart := add(data, sigOffset)\n            mstore(add(signature, 0x020), mload(add(sigStart, 0x20)))\n            mstore(add(signature, 0x040), mload(add(sigStart, 0x40)))\n            mstore(add(signature, 0x042), mload(add(sigStart, 0x42)))\n        }\n\n        return signature;\n    }\n\n    /**\n     * Returns true if the order is a buy order.\n     */\n    function isBuy(\n        Order memory order\n    )\n        private\n        pure\n        returns (bool)\n    {\n        return (order.flags & IS_BUY_FLAG) != bytes32(0);\n    }\n\n    /**\n     * Returns true if the order is a decrease-only order.\n     */\n    function isDecreaseOnly(\n        Order memory order\n    )\n        private\n        pure\n        returns (bool)\n    {\n        return (order.flags & IS_DECREASE_ONLY_FLAG) != bytes32(0);\n    }\n\n    /**\n     * Returns true if the order's limitFee is negative.\n     */\n    function isNegativeLimitFee(\n        Order memory order\n    )\n        private\n        pure\n        returns (bool)\n    {\n        return (order.flags & IS_NEGATIVE_FEE_FLAG) != bytes32(0);\n    }\n}\n",
  "sourcePath": "/home/terra/opensource/solo/contracts/external/traders/CanonicalOrders.sol",
  "compiler": {
    "name": "solc",
    "version": "0.5.7+commit.6da8b019.Linux.g++"
  },
  "schemaVersion": "3.4.7",
  "updatedAt": "2022-04-29T09:51:29.189Z",
  "devdoc": {
    "author": "dYdX * Allows for Canonical Orders to be used with dYdX",
    "methods": {
      "approveOrder((bytes32,uint256,uint256,uint256,uint256,uint256,uint256,address,uint256,uint256))": {
        "params": {
          "order": "The order to approve"
        }
      },
      "callFunction(address,(address,uint256),bytes)": {
        "params": {
          "accountInfo": "The account from which the data is being sent",
          "data": "Arbitrary data given by the sender"
        }
      },
      "cancelOrder((bytes32,uint256,uint256,uint256,uint256,uint256,uint256,address,uint256,uint256))": {
        "params": {
          "order": "The order to cancel"
        }
      },
      "getTradeCost(uint256,uint256,(address,uint256),(address,uint256),(bool,uint128),(bool,uint128),(bool,uint256),bytes)": {
        "params": {
          "data": "Arbitrary data passed in by the trader",
          "inputMarketId": "The market for which the trader specified the original amount",
          "inputWei": "The change in token amount for the makerAccount for the inputMarketId",
          "makerAccount": "The account for which this contract is making trades",
          "newInputPar": "The par balance of the makerAccount for inputMarketId post-trade",
          "oldInputPar": "The par balance of the makerAccount for inputMarketId pre-trade",
          "outputMarketId": "The market for which the trader wants the resulting amount specified",
          "takerAccount": "The account requesting the trade"
        },
        "return": "The AssetAmount for the makerAccount for the outputMarketId"
      },
      "isOwner()": {
        "return": "true if `msg.sender` is the owner of the contract."
      },
      "owner()": {
        "return": "the address of the owner."
      },
      "renounceOwnership()": {
        "details": "Allows the current owner to relinquish control of the contract."
      },
      "transferOwnership(address)": {
        "details": "Allows the current owner to transfer control of the contract to a newOwner.",
        "params": {
          "newOwner": "The address to transfer ownership to."
        }
      }
    },
    "title": "CanonicalOrders"
  },
  "userdoc": {
    "methods": {
      "approveOrder((bytes32,uint256,uint256,uint256,uint256,uint256,uint256,address,uint256,uint256))": {
        "notice": "Approves an order. Cannot already be canceled."
      },
      "callFunction(address,(address,uint256),bytes)": {
        "notice": "Allows users to send this contract arbitrary data.     *  param  sender       (unused)"
      },
      "cancelOrder((bytes32,uint256,uint256,uint256,uint256,uint256,uint256,address,uint256,uint256))": {
        "notice": "Cancels an order."
      },
      "getOrderStates(bytes32[])": {
        "notice": "Returns the status and the filled amount of several orders."
      },
      "getTradeCost(uint256,uint256,(address,uint256),(address,uint256),(bool,uint128),(bool,uint128),(bool,uint256),bytes)": {
        "notice": "Allows traders to make trades approved by this smart contract. The active trader's account is the takerAccount and the passive account (for which this contract approves trades on-behalf-of) is the makerAccount."
      },
      "renounceOwnership()": {
        "notice": "Renouncing to ownership will leave the contract without an owner. It will not be possible to call the functions with the `onlyOwner` modifier anymore."
      },
      "setTakerAddress(address)": {
        "notice": "The owner can set the taker address."
      },
      "shutDown()": {
        "notice": "The owner can shut down the exchange."
      },
      "startUp()": {
        "notice": "The owner can start back up the exchange."
      }
    }
  }
}