{
  "contractName": "DelayedMultiSig",
  "abi": [
    {
      "constant": true,
      "inputs": [
        {
          "name": "",
          "type": "uint256"
        }
      ],
      "name": "owners",
      "outputs": [
        {
          "name": "",
          "type": "address"
        }
      ],
      "payable": false,
      "stateMutability": "view",
      "type": "function"
    },
    {
      "constant": false,
      "inputs": [
        {
          "name": "owner",
          "type": "address"
        }
      ],
      "name": "removeOwner",
      "outputs": [],
      "payable": false,
      "stateMutability": "nonpayable",
      "type": "function"
    },
    {
      "constant": false,
      "inputs": [
        {
          "name": "transactionId",
          "type": "uint256"
        }
      ],
      "name": "revokeConfirmation",
      "outputs": [],
      "payable": false,
      "stateMutability": "nonpayable",
      "type": "function"
    },
    {
      "constant": true,
      "inputs": [
        {
          "name": "",
          "type": "address"
        }
      ],
      "name": "isOwner",
      "outputs": [
        {
          "name": "",
          "type": "bool"
        }
      ],
      "payable": false,
      "stateMutability": "view",
      "type": "function"
    },
    {
      "constant": true,
      "inputs": [
        {
          "name": "",
          "type": "uint256"
        },
        {
          "name": "",
          "type": "address"
        }
      ],
      "name": "confirmations",
      "outputs": [
        {
          "name": "",
          "type": "bool"
        }
      ],
      "payable": false,
      "stateMutability": "view",
      "type": "function"
    },
    {
      "constant": true,
      "inputs": [],
      "name": "secondsTimeLocked",
      "outputs": [
        {
          "name": "",
          "type": "uint32"
        }
      ],
      "payable": false,
      "stateMutability": "view",
      "type": "function"
    },
    {
      "constant": true,
      "inputs": [
        {
          "name": "pending",
          "type": "bool"
        },
        {
          "name": "executed",
          "type": "bool"
        }
      ],
      "name": "getTransactionCount",
      "outputs": [
        {
          "name": "",
          "type": "uint256"
        }
      ],
      "payable": false,
      "stateMutability": "view",
      "type": "function"
    },
    {
      "constant": false,
      "inputs": [
        {
          "name": "owner",
          "type": "address"
        }
      ],
      "name": "addOwner",
      "outputs": [],
      "payable": false,
      "stateMutability": "nonpayable",
      "type": "function"
    },
    {
      "constant": true,
      "inputs": [
        {
          "name": "transactionId",
          "type": "uint256"
        }
      ],
      "name": "isConfirmed",
      "outputs": [
        {
          "name": "",
          "type": "bool"
        }
      ],
      "payable": false,
      "stateMutability": "view",
      "type": "function"
    },
    {
      "constant": true,
      "inputs": [
        {
          "name": "transactionId",
          "type": "uint256"
        }
      ],
      "name": "getConfirmationCount",
      "outputs": [
        {
          "name": "",
          "type": "uint256"
        }
      ],
      "payable": false,
      "stateMutability": "view",
      "type": "function"
    },
    {
      "constant": true,
      "inputs": [
        {
          "name": "",
          "type": "uint256"
        }
      ],
      "name": "transactions",
      "outputs": [
        {
          "name": "destination",
          "type": "address"
        },
        {
          "name": "value",
          "type": "uint256"
        },
        {
          "name": "data",
          "type": "bytes"
        },
        {
          "name": "executed",
          "type": "bool"
        }
      ],
      "payable": false,
      "stateMutability": "view",
      "type": "function"
    },
    {
      "constant": true,
      "inputs": [],
      "name": "getOwners",
      "outputs": [
        {
          "name": "",
          "type": "address[]"
        }
      ],
      "payable": false,
      "stateMutability": "view",
      "type": "function"
    },
    {
      "constant": true,
      "inputs": [
        {
          "name": "from",
          "type": "uint256"
        },
        {
          "name": "to",
          "type": "uint256"
        },
        {
          "name": "pending",
          "type": "bool"
        },
        {
          "name": "executed",
          "type": "bool"
        }
      ],
      "name": "getTransactionIds",
      "outputs": [
        {
          "name": "",
          "type": "uint256[]"
        }
      ],
      "payable": false,
      "stateMutability": "view",
      "type": "function"
    },
    {
      "constant": true,
      "inputs": [
        {
          "name": "transactionId",
          "type": "uint256"
        }
      ],
      "name": "getConfirmations",
      "outputs": [
        {
          "name": "",
          "type": "address[]"
        }
      ],
      "payable": false,
      "stateMutability": "view",
      "type": "function"
    },
    {
      "constant": true,
      "inputs": [],
      "name": "transactionCount",
      "outputs": [
        {
          "name": "",
          "type": "uint256"
        }
      ],
      "payable": false,
      "stateMutability": "view",
      "type": "function"
    },
    {
      "constant": false,
      "inputs": [
        {
          "name": "_required",
          "type": "uint256"
        }
      ],
      "name": "changeRequirement",
      "outputs": [],
      "payable": false,
      "stateMutability": "nonpayable",
      "type": "function"
    },
    {
      "constant": false,
      "inputs": [
        {
          "name": "destination",
          "type": "address"
        },
        {
          "name": "value",
          "type": "uint256"
        },
        {
          "name": "data",
          "type": "bytes"
        }
      ],
      "name": "submitTransaction",
      "outputs": [
        {
          "name": "",
          "type": "uint256"
        }
      ],
      "payable": false,
      "stateMutability": "nonpayable",
      "type": "function"
    },
    {
      "constant": true,
      "inputs": [
        {
          "name": "",
          "type": "uint256"
        }
      ],
      "name": "confirmationTimes",
      "outputs": [
        {
          "name": "",
          "type": "uint256"
        }
      ],
      "payable": false,
      "stateMutability": "view",
      "type": "function"
    },
    {
      "constant": true,
      "inputs": [],
      "name": "MAX_OWNER_COUNT",
      "outputs": [
        {
          "name": "",
          "type": "uint256"
        }
      ],
      "payable": false,
      "stateMutability": "view",
      "type": "function"
    },
    {
      "constant": true,
      "inputs": [],
      "name": "required",
      "outputs": [
        {
          "name": "",
          "type": "uint256"
        }
      ],
      "payable": false,
      "stateMutability": "view",
      "type": "function"
    },
    {
      "constant": false,
      "inputs": [
        {
          "name": "owner",
          "type": "address"
        },
        {
          "name": "newOwner",
          "type": "address"
        }
      ],
      "name": "replaceOwner",
      "outputs": [],
      "payable": false,
      "stateMutability": "nonpayable",
      "type": "function"
    },
    {
      "inputs": [
        {
          "name": "_owners",
          "type": "address[]"
        },
        {
          "name": "_required",
          "type": "uint256"
        },
        {
          "name": "_secondsTimeLocked",
          "type": "uint32"
        }
      ],
      "payable": false,
      "stateMutability": "nonpayable",
      "type": "constructor"
    },
    {
      "anonymous": false,
      "inputs": [
        {
          "indexed": true,
          "name": "transactionId",
          "type": "uint256"
        },
        {
          "indexed": false,
          "name": "confirmationTime",
          "type": "uint256"
        }
      ],
      "name": "ConfirmationTimeSet",
      "type": "event"
    },
    {
      "anonymous": false,
      "inputs": [
        {
          "indexed": false,
          "name": "secondsTimeLocked",
          "type": "uint32"
        }
      ],
      "name": "TimeLockChange",
      "type": "event"
    },
    {
      "anonymous": false,
      "inputs": [
        {
          "indexed": true,
          "name": "sender",
          "type": "address"
        },
        {
          "indexed": true,
          "name": "transactionId",
          "type": "uint256"
        }
      ],
      "name": "Confirmation",
      "type": "event"
    },
    {
      "anonymous": false,
      "inputs": [
        {
          "indexed": true,
          "name": "sender",
          "type": "address"
        },
        {
          "indexed": true,
          "name": "transactionId",
          "type": "uint256"
        }
      ],
      "name": "Revocation",
      "type": "event"
    },
    {
      "anonymous": false,
      "inputs": [
        {
          "indexed": true,
          "name": "transactionId",
          "type": "uint256"
        }
      ],
      "name": "Submission",
      "type": "event"
    },
    {
      "anonymous": false,
      "inputs": [
        {
          "indexed": true,
          "name": "transactionId",
          "type": "uint256"
        }
      ],
      "name": "Execution",
      "type": "event"
    },
    {
      "anonymous": false,
      "inputs": [
        {
          "indexed": true,
          "name": "transactionId",
          "type": "uint256"
        }
      ],
      "name": "ExecutionFailure",
      "type": "event"
    },
    {
      "anonymous": false,
      "inputs": [
        {
          "indexed": true,
          "name": "owner",
          "type": "address"
        }
      ],
      "name": "OwnerAddition",
      "type": "event"
    },
    {
      "anonymous": false,
      "inputs": [
        {
          "indexed": true,
          "name": "owner",
          "type": "address"
        }
      ],
      "name": "OwnerRemoval",
      "type": "event"
    },
    {
      "anonymous": false,
      "inputs": [
        {
          "indexed": false,
          "name": "required",
          "type": "uint256"
        }
      ],
      "name": "RequirementChange",
      "type": "event"
    },
    {
      "constant": false,
      "inputs": [
        {
          "name": "_secondsTimeLocked",
          "type": "uint32"
        }
      ],
      "name": "changeTimeLock",
      "outputs": [],
      "payable": false,
      "stateMutability": "nonpayable",
      "type": "function"
    },
    {
      "constant": false,
      "inputs": [
        {
          "name": "transactionId",
          "type": "uint256"
        }
      ],
      "name": "confirmTransaction",
      "outputs": [],
      "payable": false,
      "stateMutability": "nonpayable",
      "type": "function"
    },
    {
      "constant": false,
      "inputs": [
        {
          "name": "transactionId",
          "type": "uint256"
        }
      ],
      "name": "executeTransaction",
      "outputs": [],
      "payable": false,
      "stateMutability": "nonpayable",
      "type": "function"
    },
    {
      "constant": false,
      "inputs": [
        {
          "name": "transactionIds",
          "type": "uint256[]"
        }
      ],
      "name": "executeMultipleTransactions",
      "outputs": [],
      "payable": false,
      "stateMutability": "nonpayable",
      "type": "function"
    }
  ],
  "bytecode": "0x60806040523480156200001157600080fd5b5060405162002269380380620022698339810180604052620000379190810190620002d0565b8282815181603282111580156200004e5750818111155b80156200005a57508015155b80156200006657508115155b6200007057600080fd5b60005b84518110156200014257600260008683815181106200008e57fe5b602090810291909101810151600160a060020a031682528101919091526040016000205460ff16158015620000ea57506000600160a060020a0316858281518110620000d657fe5b6020026020010151600160a060020a031614155b620000f457600080fd5b6001600260008784815181106200010757fe5b602090810291909101810151600160a060020a03168252810191909152604001600020805460ff191691151591909117905560010162000073565b5083516200015890600390602087019062000182565b505050600455506006805463ffffffff191663ffffffff9290921691909117905550620003ab9050565b828054828255906000526020600020908101928215620001da579160200282015b82811115620001da5782518254600160a060020a031916600160a060020a03909116178255602090920191600190910190620001a3565b50620001e8929150620001ec565b5090565b6200021391905b80821115620001e8578054600160a060020a0319168155600101620001f3565b90565b600062000224825162000383565b9392505050565b600082601f8301126200023d57600080fd5b8151620002546200024e8262000362565b6200033b565b915081818352602084019350602081019050838560208402820111156200027a57600080fd5b60005b83811015620002aa578162000293888262000216565b84525060209283019291909101906001016200027d565b5050505092915050565b600062000224825162000213565b6000620002248251620003a2565b600080600060608486031215620002e657600080fd5b83516001604060020a03811115620002fd57600080fd5b6200030b868287016200022b565b93505060206200031e86828701620002b4565b92505060406200033186828701620002c2565b9150509250925092565b6040518181016001604060020a03811182821017156200035a57600080fd5b604052919050565b60006001604060020a038211156200037957600080fd5b5060209081020190565b6000620003908262000396565b92915050565b600160a060020a031690565b63ffffffff1690565b611eae80620003bb6000396000f3fe608060405234801561001057600080fd5b50600436106101c0576000357c010000000000000000000000000000000000000000000000000000000090048063a029b36b1161010b578063c01a8c84116100b4578063d74f8edd1161008e578063d74f8edd1461039c578063dc8452cd146103a4578063e20056e6146103ac578063ee22610b146103bf576101c0565b8063c01a8c8414610363578063c642747414610376578063d38f2d8214610389576101c0565b8063b5dc40c3116100e5578063b5dc40c314610335578063b77bf60014610348578063ba51a6df14610350576101c0565b8063a029b36b146102ed578063a0e67e2b14610300578063a8abe69a14610315576101c0565b8063547415251161016d57806380bc148f1161014757806380bc148f146102a45780638b51d13f146102b75780639ace38c2146102ca576101c0565b8063547415251461025e5780637065cb481461027e578063784547a714610291576101c0565b80632f54bf6e1161019e5780632f54bf6e146102165780633411c81c1461023657806337bd78a014610249576101c0565b8063025e7c27146101c5578063173825d9146101ee57806320ea8d8614610203575b600080fd5b6101d86101d33660046119a5565b6103d2565b6040516101e59190611c67565b60405180910390f35b6102016101fc366004611883565b610406565b005b6102016102113660046119a5565b610634565b610229610224366004611883565b6106ea565b6040516101e59190611cd3565b6102296102443660046119c3565b6106ff565b61025161071f565b6040516101e59190611d2f565b61027161026c366004611975565b61072b565b6040516101e59190611d21565b61020161028c366004611883565b61079b565b61022961029f3660046119a5565b6108ee565b6102016102b2366004611940565b610982565b6102716102c53660046119a5565b6109d3565b6102dd6102d83660046119a5565b610a51565b6040516101e59493929190611c75565b6102016102fb366004611a43565b610b3a565b610308610bb1565b6040516101e59190611cb1565b6103286103233660046119e2565b610c21565b6040516101e59190611cc2565b6103086103433660046119a5565b610d52565b610271610f10565b61020161035e3660046119a5565b610f16565b6102016103713660046119a5565b610f98565b6102716103843660046118db565b6110c6565b6102716103973660046119a5565b6110e7565b6102716110f9565b6102716110fe565b6102016103ba3660046118a1565b611104565b6102016103cd3660046119a5565b61130b565b600381815481106103df57fe5b60009182526020909120015473ffffffffffffffffffffffffffffffffffffffff16905081565b33301461041257600080fd5b73ffffffffffffffffffffffffffffffffffffffff8116600090815260026020526040902054819060ff1661044657600080fd5b73ffffffffffffffffffffffffffffffffffffffff82166000908152600260205260408120805460ff191690555b6003547fffffffffffffffffffffffffffffffffffffffffffffffffffffffffffffffff018110156105a4578273ffffffffffffffffffffffffffffffffffffffff16600382815481106104c457fe5b60009182526020909120015473ffffffffffffffffffffffffffffffffffffffff16141561059c57600380547fffffffffffffffffffffffffffffffffffffffffffffffffffffffffffffffff810190811061051c57fe5b6000918252602090912001546003805473ffffffffffffffffffffffffffffffffffffffff909216918390811061054f57fe5b9060005260206000200160006101000a81548173ffffffffffffffffffffffffffffffffffffffff021916908373ffffffffffffffffffffffffffffffffffffffff1602179055506105a4565b600101610474565b50600380547fffffffffffffffffffffffffffffffffffffffffffffffffffffffffffffffff01906105d690826116c2565b5060035460045411156105ef576003546105ef90610f16565b60405173ffffffffffffffffffffffffffffffffffffffff8316907f8001553a916ef2f495d26a907cc54d96ed840d7bda71e73194bf5a9df7a76b9090600090a25050565b3360008181526002602052604090205460ff1661065057600080fd5b60008281526001602090815260408083203380855292529091205483919060ff1661067a57600080fd5b600084815260208190526040902060030154849060ff161561069b57600080fd5b6000858152600160209081526040808320338085529252808320805460ff191690555187927ff6a317157440607f36269043eb55f1287a5a19ba2216afeab88cd46cbcfb88e991a35050505050565b60026020526000908152604090205460ff1681565b600160209081526000928352604080842090915290825290205460ff1681565b60065463ffffffff1681565b600080805b60055481101561079157848015610759575060008181526020819052604090206003015460ff16155b8061077d575083801561077d575060008181526020819052604090206003015460ff165b15610789576001820191505b600101610730565b5090505b92915050565b3330146107a757600080fd5b73ffffffffffffffffffffffffffffffffffffffff8116600090815260026020526040902054819060ff16156107dc57600080fd5b8173ffffffffffffffffffffffffffffffffffffffff81166107fd57600080fd5b6003805490506001016004546032821115801561081a5750818111155b801561082557508015155b801561083057508115155b61083957600080fd5b73ffffffffffffffffffffffffffffffffffffffff8516600081815260026020526040808220805460ff1916600190811790915560038054918201815583527fc2575a0e9e593c00f959f8c92f12db2869c3395a3b0502d05e2516446f71f85b0180547fffffffffffffffffffffffff00000000000000000000000000000000000000001684179055517ff39e6e1eb0edcf53c221607b54b00cd28f3196fed0a24994dc308b8f611b682d9190a25050505050565b600080805b60035481101561097a576000848152600160205260408120600380549192918490811061091c57fe5b600091825260208083209091015473ffffffffffffffffffffffffffffffffffffffff16835282019290925260400190205460ff161561095d576001820191505b6004548214156109725760019250505061097d565b6001016108f3565b50505b919050565b3360008181526002602052604090205460ff1661099e57600080fd5b60005b82518110156109ce576109c68382815181106109b957fe5b602002602001015161130b565b6001016109a1565b505050565b600080805b600354811015610a4a5760008481526001602052604081206003805491929184908110610a0157fe5b600091825260208083209091015473ffffffffffffffffffffffffffffffffffffffff16835282019290925260400190205460ff1615610a42576001820191505b6001016109d8565b5092915050565b60006020818152918152604090819020805460018083015460028085018054875161010095821615959095027fffffffffffffffffffffffffffffffffffffffffffffffffffffffffffffffff011691909104601f810188900488028401880190965285835273ffffffffffffffffffffffffffffffffffffffff90931695909491929190830182828015610b275780601f10610afc57610100808354040283529160200191610b27565b820191906000526020600020905b815481529060010190602001808311610b0a57829003601f168201915b5050506003909301549192505060ff1684565b333014610b4657600080fd5b600680547fffffffffffffffffffffffffffffffffffffffffffffffffffffffff000000001663ffffffff83161790556040517f8b01775fda0a3eb53a1e7b3a734cd346761d446aeb72745e17951c0f0ec2b16490610ba6908390611d2f565b60405180910390a150565b60606003805480602002602001604051908101604052809291908181526020018280548015610c1657602002820191906000526020600020905b815473ffffffffffffffffffffffffffffffffffffffff168152600190910190602001808311610beb575b505050505090505b90565b606080600554604051908082528060200260200182016040528015610c50578160200160208202803883390190505b5090506000805b600554811015610cd157858015610c80575060008181526020819052604090206003015460ff16155b80610ca45750848015610ca4575060008181526020819052604090206003015460ff165b15610cc95780838381518110610cb657fe5b6020026020010181815250506001820191505b600101610c57565b6060888803604051908082528060200260200182016040528015610cff578160200160208202803883390190505b5090508891505b87821015610d4657838281518110610d1a57fe5b6020026020010151818a840381518110610d3057fe5b6020908102919091010152600190910190610d06565b98975050505050505050565b606080600380549050604051908082528060200260200182016040528015610d84578160200160208202803883390190505b5090506000805b600354811015610e7b5760008581526001602052604081206003805491929184908110610db457fe5b600091825260208083209091015473ffffffffffffffffffffffffffffffffffffffff16835282019290925260400190205460ff1615610e735760038181548110610dfb57fe5b9060005260206000200160009054906101000a900473ffffffffffffffffffffffffffffffffffffffff16838381518110610e3257fe5b602002602001019073ffffffffffffffffffffffffffffffffffffffff16908173ffffffffffffffffffffffffffffffffffffffff16815250506001820191505b600101610d8b565b606082604051908082528060200260200182016040528015610ea7578160200160208202803883390190505b509050600091505b82821015610f0757838281518110610ec357fe5b6020026020010151818381518110610ed757fe5b73ffffffffffffffffffffffffffffffffffffffff90921660209283029190910190910152600190910190610eaf565b95945050505050565b60055481565b333014610f2257600080fd5b6003548160328211801590610f375750818111155b8015610f4257508015155b8015610f4d57508115155b610f5657600080fd5b60048390556040517fa3f1ee9126a074d9326c682f561767f710e927faa811f7a99829d49dc421797a90610f8b908590611d21565b60405180910390a1505050565b3360008181526002602052604090205460ff16610fb457600080fd5b600082815260208190526040902054829073ffffffffffffffffffffffffffffffffffffffff16610fe457600080fd5b60008381526001602090815260408083203380855292529091205484919060ff161561100f57600080fd5b84611019816108ee565b15611059576040517f08c379a000000000000000000000000000000000000000000000000000000000815260040161105090611d11565b60405180910390fd5b6000868152600160208181526040808420338086529252808420805460ff1916909317909255905188927f4a504a94899432a9846e1aa406dceb1bcfd538bb839071d49d1e5e23f5be30ef91a36110af866108ee565b156110be576110be8642611540565b505050505050565b6000806110d485858561158f565b90506110df81610f98565b949350505050565b60076020526000908152604090205481565b603281565b60045481565b33301461111057600080fd5b73ffffffffffffffffffffffffffffffffffffffff8216600090815260026020526040902054829060ff1661114457600080fd5b73ffffffffffffffffffffffffffffffffffffffff8216600090815260026020526040902054829060ff161561117957600080fd5b8273ffffffffffffffffffffffffffffffffffffffff811661119a57600080fd5b60005b600354811015611256578573ffffffffffffffffffffffffffffffffffffffff16600382815481106111cb57fe5b60009182526020909120015473ffffffffffffffffffffffffffffffffffffffff16141561124e57846003828154811061120157fe5b9060005260206000200160006101000a81548173ffffffffffffffffffffffffffffffffffffffff021916908373ffffffffffffffffffffffffffffffffffffffff160217905550611256565b60010161119d565b5073ffffffffffffffffffffffffffffffffffffffff808616600081815260026020526040808220805460ff1990811690915593881682528082208054909416600117909355915190917f8001553a916ef2f495d26a907cc54d96ed840d7bda71e73194bf5a9df7a76b9091a260405173ffffffffffffffffffffffffffffffffffffffff8516907ff39e6e1eb0edcf53c221607b54b00cd28f3196fed0a24994dc308b8f611b682d90600090a25050505050565b3360008181526002602052604090205460ff1661132757600080fd5b600082815260208190526040902060030154829060ff161561134857600080fd5b82611352816108ee565b611388576040517f08c379a000000000000000000000000000000000000000000000000000000000815260040161105090611cf1565b600654600085815260076020526040902054859163ffffffff16014210156113dc576040517f08c379a000000000000000000000000000000000000000000000000000000000815260040161105090611d01565b600085815260208181526040808320600381018054600160ff19909116811790915581548183015460028085018054875161010096821615969096027fffffffffffffffffffffffffffffffffffffffffffffffffffffffffffffffff011691909104601f81018890048802850188019096528584529396956114d39573ffffffffffffffffffffffffffffffffffffffff909316949193919083908301828280156114c95780601f1061149e576101008083540402835291602001916114c9565b820191906000526020600020905b8154815290600101906020018083116114ac57829003601f168201915b505050505061169f565b90508061150c576040517f08c379a000000000000000000000000000000000000000000000000000000000815260040161105090611ce1565b60405187907f33e13ecb54c3076d8e8bb8c2881800a4d972b792045ffae98fdf46df365fed7590600090a250505050505050565b600082815260076020526040908190208290555182907f0b237afe65f1514fd7ea3f923ea4fe792bdd07000a912b6cd1602a8e7f573c8d90611583908490611d21565b60405180910390a25050565b60008373ffffffffffffffffffffffffffffffffffffffff81166115b257600080fd5b6005546040805160808101825273ffffffffffffffffffffffffffffffffffffffff8881168252602080830189815283850189815260006060860181905287815280845295909520845181547fffffffffffffffffffffffff0000000000000000000000000000000000000000169416939093178355516001830155925180519293919261164692600285019201906116e6565b50606091909101516003909101805460ff191691151591909117905560058054600101905560405181907fc0ba8fe4b176c1714197d43b9cc6bcf797a4a7461c5fe8d0ef6e184ae7601e5190600090a295945050505050565b6000806040516020840160008287838a8c6187965a03f198975050505050505050565b8154818355818111156109ce576000838152602090206109ce918101908301611764565b828054600181600116156101000203166002900490600052602060002090601f016020900481019282601f1061172757805160ff1916838001178555611754565b82800160010185558215611754579182015b82811115611754578251825591602001919060010190611739565b50611760929150611764565b5090565b610c1e91905b80821115611760576000815560010161176a565b600061178a8235611dde565b9392505050565b600082601f8301126117a257600080fd5b81356117b56117b082611d64565b611d3d565b915081818352602084019350602081019050838560208402820111156117da57600080fd5b60005b8381101561180657816117f0888261186b565b84525060209283019291909101906001016117dd565b5050505092915050565b600061178a8235611de9565b600082601f83011261182d57600080fd5b813561183b6117b082611d85565b9150808252602083016020830185838301111561185757600080fd5b611862838284611e10565b50505092915050565b600061178a8235610c1e565b600061178a8235611e07565b60006020828403121561189557600080fd5b60006110df848461177e565b600080604083850312156118b457600080fd5b60006118c0858561177e565b92505060206118d18582860161177e565b9150509250929050565b6000806000606084860312156118f057600080fd5b60006118fc868661177e565b935050602061190d8682870161186b565b925050604084013567ffffffffffffffff81111561192a57600080fd5b6119368682870161181c565b9150509250925092565b60006020828403121561195257600080fd5b813567ffffffffffffffff81111561196957600080fd5b6110df84828501611791565b6000806040838503121561198857600080fd5b60006119948585611810565b92505060206118d185828601611810565b6000602082840312156119b757600080fd5b60006110df848461186b565b600080604083850312156119d657600080fd5b60006118c0858561186b565b600080600080608085870312156119f857600080fd5b6000611a04878761186b565b9450506020611a158782880161186b565b9350506040611a2687828801611810565b9250506060611a3787828801611810565b91505092959194509250565b600060208284031215611a5557600080fd5b60006110df8484611877565b6000611a6d8383611a81565b505060200190565b6000611a6d8383611c55565b611a8a81611dde565b82525050565b6000611a9b82611dd1565b611aa58185611dd5565b9350611ab083611dcb565b60005b82811015611adb57611ac6868351611a61565b9550611ad182611dcb565b9150600101611ab3565b5093949350505050565b6000611af082611dd1565b611afa8185611dd5565b9350611b0583611dcb565b60005b82811015611adb57611b1b868351611a75565b9550611b2682611dcb565b9150600101611b08565b611a8a81611de9565b6000611b4482611dd1565b611b4e8185611dd5565b9350611b5e818560208601611e1c565b611b6781611e4c565b9093019392505050565b6000611b7e600b83611dd5565b7f54585f5245564552544544000000000000000000000000000000000000000000815260200192915050565b6000611bb7601683611dd5565b7f54585f4e4f545f46554c4c595f434f4e4649524d454400000000000000000000815260200192915050565b6000611bf0601483611dd5565b7f54494d455f4c4f434b5f494e434f4d504c455445000000000000000000000000815260200192915050565b6000611c29601283611dd5565b7f54585f46554c4c595f434f4e4649524d45440000000000000000000000000000815260200192915050565b611a8a81610c1e565b611a8a81611e07565b602081016107958284611a81565b60808101611c838287611a81565b611c906020830186611c55565b8181036040830152611ca28185611b39565b9050610f076060830184611b30565b6020808252810161178a8184611a90565b6020808252810161178a8184611ae5565b602081016107958284611b30565b6020808252810161079581611b71565b6020808252810161079581611baa565b6020808252810161079581611be3565b6020808252810161079581611c1c565b602081016107958284611c55565b602081016107958284611c5e565b60405181810167ffffffffffffffff81118282101715611d5c57600080fd5b604052919050565b600067ffffffffffffffff821115611d7b57600080fd5b5060209081020190565b600067ffffffffffffffff821115611d9c57600080fd5b506020601f919091017fffffffffffffffffffffffffffffffffffffffffffffffffffffffffffffffe0160190565b60200190565b5190565b90815260200190565b600061079582611dee565b151590565b73ffffffffffffffffffffffffffffffffffffffff1690565b63ffffffff1690565b82818337506000910152565b60005b83811015611e37578181015183820152602001611e1f565b83811115611e46576000848401525b50505050565b601f017fffffffffffffffffffffffffffffffffffffffffffffffffffffffffffffffe0169056fea265627a7a723058207cfe430c69b565ce92f8dd17d5b39fadc2ed1f8d6b9b1d17b34eb3fd5a5b861f6c6578706572696d656e74616cf50037",
  "source": "/*\n\n    Copyright 2019 dYdX Trading Inc.\n\n    Licensed under the Apache License, Version 2.0 (the \"License\");\n    you may not use this file except in compliance with the License.\n    You may obtain a copy of the License at\n\n    http://www.apache.org/licenses/LICENSE-2.0\n\n    Unless required by applicable law or agreed to in writing, software\n    distributed under the License is distributed on an \"AS IS\" BASIS,\n    WITHOUT WARRANTIES OR CONDITIONS OF ANY KIND, either express or implied.\n    See the License for the specific language governing permissions and\n    limitations under the License.\n\n*/\n\npragma solidity 0.5.7;\npragma experimental ABIEncoderV2;\n\nimport { MultiSig } from \"./MultiSig.sol\";\n\n\n/**\n * @title DelayedMultiSig\n * @author dYdX\n *\n * Multi-Signature Wallet with delay in execution.\n * Allows multiple parties to execute a transaction after a time lock has passed.\n * Adapted from Amir Bandeali's MultiSigWalletWithTimeLock contract.\n\n * Logic Changes:\n *  - Only owners can execute transactions\n *  - Require that each transaction succeeds\n *  - Added function to execute multiple transactions within the same Ethereum transaction\n */\ncontract DelayedMultiSig is\n    MultiSig\n{\n    // ============ Events ============\n\n    event ConfirmationTimeSet(uint256 indexed transactionId, uint256 confirmationTime);\n    event TimeLockChange(uint32 secondsTimeLocked);\n\n    // ============ Storage ============\n\n    uint32 public secondsTimeLocked;\n    mapping (uint256 => uint256) public confirmationTimes;\n\n    // ============ Modifiers ============\n\n    modifier notFullyConfirmed(\n        uint256 transactionId\n    ) {\n        require(\n            !isConfirmed(transactionId),\n            \"TX_FULLY_CONFIRMED\"\n        );\n        _;\n    }\n\n    modifier fullyConfirmed(\n        uint256 transactionId\n    ) {\n        require(\n            isConfirmed(transactionId),\n            \"TX_NOT_FULLY_CONFIRMED\"\n        );\n        _;\n    }\n\n    modifier pastTimeLock(\n        uint256 transactionId\n    ) {\n        require(\n            block.timestamp >= confirmationTimes[transactionId] + secondsTimeLocked,\n            \"TIME_LOCK_INCOMPLETE\"\n        );\n        _;\n    }\n\n    // ============ Constructor ============\n\n    /**\n     * Contract constructor sets initial owners, required number of confirmations, and time lock.\n     *\n     * @param  _owners             List of initial owners.\n     * @param  _required           Number of required confirmations.\n     * @param  _secondsTimeLocked  Duration needed after a transaction is confirmed and before it\n     *                             becomes executable, in seconds.\n     */\n    constructor (\n        address[] memory _owners,\n        uint256 _required,\n        uint32 _secondsTimeLocked\n    )\n        public\n        MultiSig(_owners, _required)\n    {\n        secondsTimeLocked = _secondsTimeLocked;\n    }\n\n    // ============ Wallet-Only Functions ============\n\n    /**\n     * Changes the duration of the time lock for transactions.\n     *\n     * @param  _secondsTimeLocked  Duration needed after a transaction is confirmed and before it\n     *                             becomes executable, in seconds.\n     */\n    function changeTimeLock(\n        uint32 _secondsTimeLocked\n    )\n        public\n        onlyWallet\n    {\n        secondsTimeLocked = _secondsTimeLocked;\n        emit TimeLockChange(_secondsTimeLocked);\n    }\n\n    // ============ Admin Functions ============\n\n    /**\n     * Allows an owner to confirm a transaction.\n     * Overrides the function in MultiSig.\n     *\n     * @param  transactionId  Transaction ID.\n     */\n    function confirmTransaction(\n        uint256 transactionId\n    )\n        public\n        ownerExists(msg.sender)\n        transactionExists(transactionId)\n        notConfirmed(transactionId, msg.sender)\n        notFullyConfirmed(transactionId)\n    {\n        confirmations[transactionId][msg.sender] = true;\n        emit Confirmation(msg.sender, transactionId);\n        if (isConfirmed(transactionId)) {\n            setConfirmationTime(transactionId, block.timestamp);\n        }\n    }\n\n    /**\n     * Allows an owner to execute a confirmed transaction.\n     * Overrides the function in MultiSig.\n     *\n     * @param  transactionId  Transaction ID.\n     */\n    function executeTransaction(\n        uint256 transactionId\n    )\n        public\n        ownerExists(msg.sender)\n        notExecuted(transactionId)\n        fullyConfirmed(transactionId)\n        pastTimeLock(transactionId)\n    {\n        Transaction storage txn = transactions[transactionId];\n        txn.executed = true;\n        bool success = externalCall(\n            txn.destination,\n            txn.value,\n            txn.data.length,\n            txn.data\n        );\n        require(\n            success,\n            \"TX_REVERTED\"\n        );\n        emit Execution(transactionId);\n    }\n\n    /**\n     * Allows an owner to execute multiple confirmed transactions.\n     *\n     * @param  transactionIds  List of transaction IDs.\n     */\n    function executeMultipleTransactions(\n        uint256[] memory transactionIds\n    )\n        public\n        ownerExists(msg.sender)\n    {\n        for (uint256 i = 0; i < transactionIds.length; i++) {\n            executeTransaction(transactionIds[i]);\n        }\n    }\n\n    // ============ Helper Functions ============\n\n    /**\n     * Sets the time of when a submission first passed.\n     */\n    function setConfirmationTime(\n        uint256 transactionId,\n        uint256 confirmationTime\n    )\n        internal\n    {\n        confirmationTimes[transactionId] = confirmationTime;\n        emit ConfirmationTimeSet(transactionId, confirmationTime);\n    }\n}\n",
  "sourcePath": "/home/terra/opensource/solo/contracts/external/multisig/DelayedMultiSig.sol",
  "compiler": {
    "name": "solc",
    "version": "0.5.7+commit.6da8b019.Linux.g++"
  },
  "schemaVersion": "3.4.7",
  "updatedAt": "2022-04-29T09:51:29.132Z",
  "devdoc": {
    "author": "dYdX * Multi-Signature Wallet with delay in execution. Allows multiple parties to execute a transaction after a time lock has passed. Adapted from Amir Bandeali's MultiSigWalletWithTimeLock contract. Logic Changes: - Only owners can execute transactions - Require that each transaction succeeds - Added function to execute multiple transactions within the same Ethereum transaction",
    "methods": {
      "addOwner(address)": {
        "params": {
          "owner": "Address of new owner."
        }
      },
      "changeRequirement(uint256)": {
        "params": {
          "_required": "Number of required confirmations."
        }
      },
      "changeTimeLock(uint32)": {
        "params": {
          "_secondsTimeLocked": "Duration needed after a transaction is confirmed and before it                            becomes executable, in seconds."
        }
      },
      "confirmTransaction(uint256)": {
        "params": {
          "transactionId": "Transaction ID."
        }
      },
      "constructor": {
        "params": {
          "_owners": "List of initial owners.",
          "_required": "Number of required confirmations.",
          "_secondsTimeLocked": "Duration needed after a transaction is confirmed and before it                            becomes executable, in seconds."
        }
      },
      "executeMultipleTransactions(uint256[])": {
        "params": {
          "transactionIds": "List of transaction IDs."
        }
      },
      "executeTransaction(uint256)": {
        "params": {
          "transactionId": "Transaction ID."
        }
      },
      "getConfirmationCount(uint256)": {
        "params": {
          "transactionId": "Transaction ID."
        },
        "return": "Number of confirmations."
      },
      "getConfirmations(uint256)": {
        "params": {
          "transactionId": "Transaction ID."
        },
        "return": "Array of owner addresses."
      },
      "getOwners()": {
        "return": "Array of owner addresses."
      },
      "getTransactionCount(bool,bool)": {
        "params": {
          "executed": "Include executed transactions.",
          "pending": "Include pending transactions."
        },
        "return": "Total number of transactions after filters are applied."
      },
      "getTransactionIds(uint256,uint256,bool,bool)": {
        "params": {
          "executed": "Include executed transactions.",
          "from": "Index start position of transaction array.",
          "pending": "Include pending transactions.",
          "to": "Index end position of transaction array."
        },
        "return": "Array of transaction IDs."
      },
      "isConfirmed(uint256)": {
        "params": {
          "transactionId": "Transaction ID."
        },
        "return": "Confirmation status."
      },
      "removeOwner(address)": {
        "params": {
          "owner": "Address of owner."
        }
      },
      "replaceOwner(address,address)": {
        "params": {
          "newOwner": "Address of new owner.",
          "owner": "Address of owner to be replaced."
        }
      },
      "revokeConfirmation(uint256)": {
        "params": {
          "transactionId": "Transaction ID."
        }
      },
      "submitTransaction(address,uint256,bytes)": {
        "params": {
          "data": "Transaction data payload.",
          "destination": "Transaction target address.",
          "value": "Transaction ether value."
        },
        "return": "Transaction ID."
      }
    },
    "title": "DelayedMultiSig"
  },
  "userdoc": {
    "methods": {
      "addOwner(address)": {
        "notice": "Allows to add a new owner. Transaction has to be sent by wallet."
      },
      "changeRequirement(uint256)": {
        "notice": "Allows to change the number of required confirmations. Transaction has to be sent by wallet."
      },
      "changeTimeLock(uint32)": {
        "notice": "Changes the duration of the time lock for transactions."
      },
      "confirmTransaction(uint256)": {
        "notice": "Allows an owner to confirm a transaction. Overrides the function in MultiSig."
      },
      "constructor": "Contract constructor sets initial owners, required number of confirmations, and time lock.",
      "executeMultipleTransactions(uint256[])": {
        "notice": "Allows an owner to execute multiple confirmed transactions."
      },
      "executeTransaction(uint256)": {
        "notice": "Allows an owner to execute a confirmed transaction. Overrides the function in MultiSig."
      },
      "getConfirmationCount(uint256)": {
        "notice": "Returns number of confirmations of a transaction."
      },
      "getConfirmations(uint256)": {
        "notice": "Returns array with owner addresses, which confirmed transaction."
      },
      "getOwners()": {
        "notice": "Returns array of owners."
      },
      "getTransactionCount(bool,bool)": {
        "notice": "Returns total number of transactions after filers are applied."
      },
      "getTransactionIds(uint256,uint256,bool,bool)": {
        "notice": "Returns list of transaction IDs in defined range."
      },
      "isConfirmed(uint256)": {
        "notice": "Returns the confirmation status of a transaction."
      },
      "removeOwner(address)": {
        "notice": "Allows to remove an owner. Transaction has to be sent by wallet."
      },
      "replaceOwner(address,address)": {
        "notice": "Allows to replace an owner with a new owner. Transaction has to be sent by wallet."
      },
      "revokeConfirmation(uint256)": {
        "notice": "Allows an owner to revoke a confirmation for a transaction."
      },
      "submitTransaction(address,uint256,bytes)": {
        "notice": "Allows an owner to submit and confirm a transaction."
      }
    }
  }
}