{
  "contractName": "DoubleExponentInterestSetter",
  "abi": [
    {
      "inputs": [
        {
          "components": [
            {
              "name": "maxAPR",
              "type": "uint128"
            },
            {
              "name": "coefficients",
              "type": "uint128"
            }
          ],
          "name": "params",
          "type": "tuple"
        }
      ],
      "payable": false,
      "stateMutability": "nonpayable",
      "type": "constructor"
    },
    {
      "constant": true,
      "inputs": [
        {
          "name": "",
          "type": "address"
        },
        {
          "name": "borrowWei",
          "type": "uint256"
        },
        {
          "name": "supplyWei",
          "type": "uint256"
        }
      ],
      "name": "getInterestRate",
      "outputs": [
        {
          "components": [
            {
              "name": "value",
              "type": "uint256"
            }
          ],
          "name": "",
          "type": "tuple"
        }
      ],
      "payable": false,
      "stateMutability": "view",
      "type": "function"
    },
    {
      "constant": true,
      "inputs": [],
      "name": "getMaxAPR",
      "outputs": [
        {
          "name": "",
          "type": "uint256"
        }
      ],
      "payable": false,
      "stateMutability": "view",
      "type": "function"
    },
    {
      "constant": true,
      "inputs": [],
      "name": "getCoefficients",
      "outputs": [
        {
          "name": "",
          "type": "uint256[]"
        }
      ],
      "payable": false,
      "stateMutability": "view",
      "type": "function"
    }
  ],
  "bytecode": "0x608060405234801561001057600080fd5b50604051604080610691833981018060405261002f9190810190610142565b60208101516000906001608060020a03165b801561005b57610100810691909101906101009004610041565b506064811461009f576040517f08c379a0000000000000000000000000000000000000000000000000000000008152600401610096906101a1565b60405180910390fd5b508051600080546020909301516001608060020a03908116700100000000000000000000000000000000029281166001608060020a0319909416939093179092161790556101f3565b6000604082840312156100fa57600080fd5b61010460406101b7565b90506000610112848461012f565b82525060206101238484830161012f565b60208301525092915050565b600061013b82516101e7565b9392505050565b60006040828403121561015457600080fd5b600061016084846100e8565b949350505050565b6000610175601c836101de565b7f436f656666696369656e7473206d7573742073756d20746f2031303000000000815260200192915050565b602080825281016101b181610168565b92915050565b60405181810167ffffffffffffffff811182821017156101d657600080fd5b604052919050565b90815260200190565b6001608060020a031690565b61048f806102026000396000f3fe608060405234801561001057600080fd5b506004361061005d577c010000000000000000000000000000000000000000000000000000000060003504631e68607a8114610062578063afd4c8d614610080578063e8177dcf14610095575b600080fd5b61006a6100b5565b6040516100779190610413565b60405180910390f35b6100886100cd565b60405161007791906103f4565b6100a86100a3366004610318565b61015c565b6040516100779190610405565b6000546fffffffffffffffffffffffffffffffff1690565b604080516010808252610220820190925260609182919060208201610200803883395050600080549293509170010000000000000000000000000000000090046fffffffffffffffffffffffffffffffff1690505b801561015457610100810683838151811061013957fe5b60209081029190910101526001909101906101009004610122565b508152905090565b6101646102d6565b8261017e575060408051602081019091526000815261029f565b6101866102e9565b50604080518082019091526000546fffffffffffffffffffffffffffffffff8082168084527001000000000000000000000000000000009092041660208301528385106101f25760405180602001604052806301e1338083816101e557fe5b048152509250505061029f565b60208201516101006fffffffffffffffffffffffffffffffff8216049060ff16670de0b6b3a7640000908102906000908790610234908a63ffffffff6102a616565b8161023b57fe5b0490505b60ff8316801561025e57818102830192508381141561025e5750610278565b5061010090920491670de0b6b3a76400009080020461023f565b6040805160208101909152806b0a3098c68eb9427db8000000848702049052955050505050505b9392505050565b6000826102b5575060006102d0565b828202828482816102c257fe5b04146102cd57600080fd5b90505b92915050565b6040518060200160405280600081525090565b604080518082019091526000808252602082015290565b600061029f8235610437565b600061029f8235610434565b60008060006060848603121561032d57600080fd5b60006103398686610300565b935050602061034a8682870161030c565b925050604061035b8682870161030c565b9150509250925092565b600061037183836103e5565b505060200190565b600061038482610427565b61038e818561042b565b935061039983610421565b60005b828110156103c4576103af868351610365565b95506103ba82610421565b915060010161039c565b5093949350505050565b805160208301906103df84826103e5565b50505050565b6103ee81610434565b82525050565b6020808252810161029f8184610379565b602081016102d082846103ce565b602081016102d082846103e5565b60200190565b5190565b90815260200190565b90565b600073ffffffffffffffffffffffffffffffffffffffff82166102d056fea265627a7a7230582039c87e3d3720fe0961cde1180f4113e6496c7126f19df11771d1e84c5dca1f4c6c6578706572696d656e74616cf50037",
  "source": "/*\n\n    Copyright 2019 dYdX Trading Inc.\n\n    Licensed under the Apache License, Version 2.0 (the \"License\");\n    you may not use this file except in compliance with the License.\n    You may obtain a copy of the License at\n\n    http://www.apache.org/licenses/LICENSE-2.0\n\n    Unless required by applicable law or agreed to in writing, software\n    distributed under the License is distributed on an \"AS IS\" BASIS,\n    WITHOUT WARRANTIES OR CONDITIONS OF ANY KIND, either express or implied.\n    See the License for the specific language governing permissions and\n    limitations under the License.\n\n*/\n\npragma solidity 0.5.7;\npragma experimental ABIEncoderV2;\n\nimport { SafeMath } from \"openzeppelin-solidity/contracts/math/SafeMath.sol\";\nimport { IInterestSetter } from \"../../protocol/interfaces/IInterestSetter.sol\";\nimport { Interest } from \"../../protocol/lib/Interest.sol\";\nimport { Math } from \"../../protocol/lib/Math.sol\";\n\n\n/**\n * @title DoubleExponentInterestSetter\n * @author dYdX\n *\n * Interest setter that sets interest based on a polynomial of the usage percentage of the market.\n * Interest = C_0 + C_1 * U^(2^0) + C_2 * U^(2^1) + C_3 * U^(2^2) ...\n */\ncontract DoubleExponentInterestSetter is\n    IInterestSetter\n{\n    using Math for uint256;\n    using SafeMath for uint256;\n\n    // ============ Constants ============\n\n    uint256 constant PERCENT = 100;\n\n    uint256 constant BASE = 10 ** 18;\n\n    uint256 constant SECONDS_IN_A_YEAR = 60 * 60 * 24 * 365;\n\n    uint256 constant BYTE = 8;\n\n    // ============ Structs ============\n\n    struct PolyStorage {\n        uint128 maxAPR;\n        uint128 coefficients;\n    }\n\n    // ============ Storage ============\n\n    PolyStorage g_storage;\n\n    // ============ Constructor ============\n\n    constructor(\n        PolyStorage memory params\n    )\n        public\n    {\n        // verify that all coefficients add up to 100%\n        uint256 sumOfCoefficients = 0;\n        for (\n            uint256 coefficients = params.coefficients;\n            coefficients != 0;\n            coefficients >>= BYTE\n        ) {\n            sumOfCoefficients += coefficients % 256;\n        }\n        require(\n            sumOfCoefficients == PERCENT,\n            \"Coefficients must sum to 100\"\n        );\n\n        // store the params\n        g_storage = params;\n    }\n\n    // ============ Public Functions ============\n\n    /**\n     * Get the interest rate given some borrowed and supplied amounts. The interest function is a\n     * polynomial function of the utilization (borrowWei / supplyWei) of the market.\n     *\n     *   - If borrowWei > supplyWei then the utilization is considered to be equal to 1.\n     *   - If both are zero, then the utilization is considered to be equal to 0.\n     *\n     * @return The interest rate per second (times 10 ** 18)\n     */\n    function getInterestRate(\n        address /* token */,\n        uint256 borrowWei,\n        uint256 supplyWei\n    )\n        external\n        view\n        returns (Interest.Rate memory)\n    {\n        if (borrowWei == 0) {\n            return Interest.Rate({\n                value: 0\n            });\n        }\n\n        PolyStorage memory s = g_storage;\n        uint256 maxAPR = s.maxAPR;\n\n        if (borrowWei >= supplyWei) {\n            return Interest.Rate({\n                value: maxAPR / SECONDS_IN_A_YEAR\n            });\n        }\n\n        // process the first coefficient\n        uint256 coefficients = s.coefficients;\n        uint256 result = uint8(coefficients) * BASE;\n        coefficients >>= BYTE;\n\n        // initialize polynomial as the utilization\n        // no safeDiv since supplyWei must be non-zero at this point\n        uint256 polynomial = BASE.mul(borrowWei) / supplyWei;\n\n        // for each non-zero coefficient...\n        while (true) {\n            // gets the lowest-order byte\n            uint256 coefficient = uint256(uint8(coefficients));\n\n            // if non-zero, add to result\n            if (coefficient != 0) {\n                // no safeAdd since there are at most 16 coefficients\n                // no safeMul since (coefficient < 256 && polynomial <= 10**18)\n                result += coefficient * polynomial;\n\n                // break if this is the last non-zero coefficient\n                if (coefficient == coefficients) {\n                    break;\n                }\n            }\n\n            // double the order of the polynomial term\n            // no safeMul since polynomial <= 10^18\n            // no safeDiv since the divisor is a non-zero constant\n            polynomial = polynomial * polynomial / BASE;\n\n            // move to next coefficient\n            coefficients >>= BYTE;\n        }\n\n        // normalize the result\n        // no safeMul since result fits within 72 bits and maxAPR fits within 128 bits\n        // no safeDiv since the divisor is a non-zero constant\n        return Interest.Rate({\n            value: result * maxAPR / (SECONDS_IN_A_YEAR * BASE * PERCENT)\n        });\n    }\n\n    /**\n     * Get the maximum APR that this interestSetter will return. The actual APY may be higher\n     * depending on how often the interest is compounded.\n     *\n     * @return The maximum APR\n     */\n    function getMaxAPR()\n        external\n        view\n        returns (uint256)\n    {\n        return g_storage.maxAPR;\n    }\n\n    /**\n     * Get all of the coefficients of the interest calculation, starting from the coefficient for\n     * the first-order utilization variable.\n     *\n     * @return The coefficients\n     */\n    function getCoefficients()\n        external\n        view\n        returns (uint256[] memory)\n    {\n        // allocate new array with maximum of 16 coefficients\n        uint256[] memory result = new uint256[](16);\n\n        // add the coefficients to the array\n        uint256 numCoefficients = 0;\n        for (\n            uint256 coefficients = g_storage.coefficients;\n            coefficients != 0;\n            coefficients >>= BYTE\n        ) {\n            result[numCoefficients] = coefficients % 256;\n            numCoefficients++;\n        }\n\n        // modify result.length to match numCoefficients\n        /* solium-disable-next-line security/no-inline-assembly */\n        assembly {\n            mstore(result, numCoefficients)\n        }\n\n        return result;\n    }\n}\n",
  "sourcePath": "/home/terra/opensource/solo/contracts/external/interestsetters/DoubleExponentInterestSetter.sol",
  "compiler": {
    "name": "solc",
    "version": "0.5.7+commit.6da8b019.Linux.g++"
  },
  "schemaVersion": "3.4.7",
  "updatedAt": "2022-04-29T09:51:29.092Z",
  "devdoc": {
    "author": "dYdX * Interest setter that sets interest based on a polynomial of the usage percentage of the market. Interest = C_0 + C_1 * U^(2^0) + C_2 * U^(2^1) + C_3 * U^(2^2) ...",
    "methods": {
      "getCoefficients()": {
        "return": "The coefficients"
      },
      "getInterestRate(address,uint256,uint256)": {
        "return": "The interest rate per second (times 10 ** 18)"
      },
      "getMaxAPR()": {
        "return": "The maximum APR"
      }
    },
    "title": "DoubleExponentInterestSetter"
  },
  "userdoc": {
    "methods": {
      "getCoefficients()": {
        "notice": "Get all of the coefficients of the interest calculation, starting from the coefficient for the first-order utilization variable."
      },
      "getInterestRate(address,uint256,uint256)": {
        "notice": "Get the interest rate given some borrowed and supplied amounts. The interest function is a polynomial function of the utilization (borrowWei / supplyWei) of the market.     *   - If borrowWei > supplyWei then the utilization is considered to be equal to 1.  - If both are zero, then the utilization is considered to be equal to 0."
      },
      "getMaxAPR()": {
        "notice": "Get the maximum APR that this interestSetter will return. The actual APY may be higher depending on how often the interest is compounded."
      }
    }
  }
}