{
  "contractName": "ErroringToken",
  "abi": [
    {
      "constant": true,
      "inputs": [],
      "name": "name",
      "outputs": [
        {
          "name": "",
          "type": "string"
        }
      ],
      "payable": false,
      "stateMutability": "pure",
      "type": "function"
    },
    {
      "constant": false,
      "inputs": [
        {
          "name": "who",
          "type": "address"
        },
        {
          "name": "amount",
          "type": "uint256"
        }
      ],
      "name": "issueTo",
      "outputs": [],
      "payable": false,
      "stateMutability": "nonpayable",
      "type": "function"
    },
    {
      "constant": true,
      "inputs": [],
      "name": "totalSupply",
      "outputs": [
        {
          "name": "",
          "type": "uint256"
        }
      ],
      "payable": false,
      "stateMutability": "view",
      "type": "function"
    },
    {
      "constant": true,
      "inputs": [],
      "name": "decimals",
      "outputs": [
        {
          "name": "",
          "type": "uint8"
        }
      ],
      "payable": false,
      "stateMutability": "pure",
      "type": "function"
    },
    {
      "constant": true,
      "inputs": [
        {
          "name": "who",
          "type": "address"
        }
      ],
      "name": "balanceOf",
      "outputs": [
        {
          "name": "",
          "type": "uint256"
        }
      ],
      "payable": false,
      "stateMutability": "view",
      "type": "function"
    },
    {
      "constant": true,
      "inputs": [],
      "name": "symbol",
      "outputs": [
        {
          "name": "",
          "type": "string"
        }
      ],
      "payable": false,
      "stateMutability": "pure",
      "type": "function"
    },
    {
      "constant": false,
      "inputs": [
        {
          "name": "amount",
          "type": "uint256"
        }
      ],
      "name": "issue",
      "outputs": [],
      "payable": false,
      "stateMutability": "nonpayable",
      "type": "function"
    },
    {
      "constant": true,
      "inputs": [
        {
          "name": "owner",
          "type": "address"
        },
        {
          "name": "spender",
          "type": "address"
        }
      ],
      "name": "allowance",
      "outputs": [
        {
          "name": "",
          "type": "uint256"
        }
      ],
      "payable": false,
      "stateMutability": "view",
      "type": "function"
    },
    {
      "anonymous": false,
      "inputs": [
        {
          "indexed": false,
          "name": "token",
          "type": "address"
        },
        {
          "indexed": false,
          "name": "from",
          "type": "address"
        },
        {
          "indexed": false,
          "name": "to",
          "type": "address"
        },
        {
          "indexed": false,
          "name": "value",
          "type": "uint256"
        }
      ],
      "name": "Transfer",
      "type": "event"
    },
    {
      "anonymous": false,
      "inputs": [
        {
          "indexed": false,
          "name": "token",
          "type": "address"
        },
        {
          "indexed": false,
          "name": "owner",
          "type": "address"
        },
        {
          "indexed": false,
          "name": "spender",
          "type": "address"
        },
        {
          "indexed": false,
          "name": "value",
          "type": "uint256"
        }
      ],
      "name": "Approval",
      "type": "event"
    },
    {
      "anonymous": false,
      "inputs": [
        {
          "indexed": false,
          "name": "token",
          "type": "address"
        },
        {
          "indexed": false,
          "name": "owner",
          "type": "address"
        },
        {
          "indexed": false,
          "name": "value",
          "type": "uint256"
        }
      ],
      "name": "Issue",
      "type": "event"
    },
    {
      "constant": false,
      "inputs": [
        {
          "name": "",
          "type": "address"
        },
        {
          "name": "",
          "type": "uint256"
        }
      ],
      "name": "transfer",
      "outputs": [
        {
          "name": "",
          "type": "bool"
        }
      ],
      "payable": false,
      "stateMutability": "nonpayable",
      "type": "function"
    },
    {
      "constant": false,
      "inputs": [
        {
          "name": "",
          "type": "address"
        },
        {
          "name": "",
          "type": "address"
        },
        {
          "name": "",
          "type": "uint256"
        }
      ],
      "name": "transferFrom",
      "outputs": [
        {
          "name": "",
          "type": "bool"
        }
      ],
      "payable": false,
      "stateMutability": "nonpayable",
      "type": "function"
    },
    {
      "constant": false,
      "inputs": [
        {
          "name": "",
          "type": "address"
        },
        {
          "name": "",
          "type": "uint256"
        }
      ],
      "name": "approve",
      "outputs": [
        {
          "name": "",
          "type": "bool"
        }
      ],
      "payable": false,
      "stateMutability": "nonpayable",
      "type": "function"
    }
  ],
  "bytecode": "0x608060405234801561001057600080fd5b5061062a806100206000396000f3fe608060405234801561001057600080fd5b50600436106100e6576000357c010000000000000000000000000000000000000000000000000000000090048063313ce5671161009e578063a9059cbb11610078578063a9059cbb14610109578063cc872b6614610196578063dd62ed3e146101a9576100e6565b8063313ce5671461016657806370a082311461017b57806395d89b411461018e576100e6565b80631207f0c1116100cf5780631207f0c11461012957806318160ddd1461013e57806323b872dd14610153576100e6565b806306fdde03146100eb578063095ea7b314610109575b600080fd5b6100f36101bc565b604051610100919061052c565b60405180910390f35b61011c610117366004610446565b6101f3565b604051610100919061051e565b61013c610137366004610446565b6101fc565b005b6101466102b0565b604051610100919061053d565b61011c6101613660046103f9565b6102b6565b61016e6102bf565b604051610100919061054b565b610146610189366004610399565b6102c4565b6100f36102ec565b61013c6101a4366004610476565b610323565b6101466101b73660046103bf565b610330565b60408051808201909152600a81527f5465737420546f6b656e00000000000000000000000000000000000000000000602082015290565b60005b92915050565b60005461020f908263ffffffff61036816565b600090815573ffffffffffffffffffffffffffffffffffffffff8316815260016020526040902054610247908263ffffffff61036816565b73ffffffffffffffffffffffffffffffffffffffff83166000908152600160205260409081902091909155517f4b2682685b046a3dae8e75ff49b82fa703e366056a43c6a791411011134f4f5d906102a4903090859085906104f6565b60405180910390a15050565b60005490565b60009392505050565b601290565b73ffffffffffffffffffffffffffffffffffffffff1660009081526001602052604090205490565b60408051808201909152600481527f5445535400000000000000000000000000000000000000000000000000000000602082015290565b61032d33826101fc565b50565b73ffffffffffffffffffffffffffffffffffffffff918216600090815260026020908152604080832093909416825291909152205490565b60008282018381101561037a57600080fd5b9392505050565b600061037a8235610566565b600061037a823561058f565b6000602082840312156103ab57600080fd5b60006103b78484610381565b949350505050565b600080604083850312156103d257600080fd5b60006103de8585610381565b92505060206103ef85828601610381565b9150509250929050565b60008060006060848603121561040e57600080fd5b600061041a8686610381565b935050602061042b86828701610381565b925050604061043c8682870161038d565b9150509250925092565b6000806040838503121561045957600080fd5b60006104658585610381565b92505060206103ef8582860161038d565b60006020828403121561048857600080fd5b60006103b7848461038d565b61049d81610566565b82525050565b61049d81610571565b60006104b782610559565b6104c1818561055d565b93506104d1818560208601610598565b6104da816105c8565b9093019392505050565b61049d8161058f565b61049d81610592565b606081016105048286610494565b6105116020830185610494565b6103b760408301846104e4565b602081016101f682846104a3565b6020808252810161037a81846104ac565b602081016101f682846104e4565b602081016101f682846104ed565b5190565b90815260200190565b60006101f682610576565b151590565b73ffffffffffffffffffffffffffffffffffffffff1690565b90565b60ff1690565b60005b838110156105b357818101518382015260200161059b565b838111156105c2576000848401525b50505050565b601f017fffffffffffffffffffffffffffffffffffffffffffffffffffffffffffffffe0169056fea265627a7a723058205fe3ad3709c37442cc4aa37e19472f31162b66228368655f23e4239e1570e51e6c6578706572696d656e74616cf50037",
  "source": "/*\n\n    Copyright 2019 dYdX Trading Inc.\n\n    Licensed under the Apache License, Version 2.0 (the \"License\");\n    you may not use this file except in compliance with the License.\n    You may obtain a copy of the License at\n\n    http://www.apache.org/licenses/LICENSE-2.0\n\n    Unless required by applicable law or agreed to in writing, software\n    distributed under the License is distributed on an \"AS IS\" BASIS,\n    WITHOUT WARRANTIES OR CONDITIONS OF ANY KIND, either express or implied.\n    See the License for the specific language governing permissions and\n    limitations under the License.\n\n*/\n\npragma solidity 0.5.7;\npragma experimental ABIEncoderV2;\n\nimport { TestToken } from \"./TestToken.sol\";\n\n\ncontract ErroringToken is TestToken {\n\n    function transfer(address, uint256) public returns (bool) {\n        return false;\n    }\n\n    function transferFrom(address, address, uint256) public returns (bool) {\n        return false;\n    }\n\n    function approve(address, uint256) public returns (bool) {\n        return false;\n    }\n}\n",
  "sourcePath": "/home/terra/opensource/solo/contracts/testing/ErroringToken.sol",
  "compiler": {
    "name": "solc",
    "version": "0.5.7+commit.6da8b019.Linux.g++"
  },
  "schemaVersion": "3.4.7",
  "updatedAt": "2022-04-29T09:51:29.376Z",
  "devdoc": {
    "methods": {}
  },
  "userdoc": {
    "methods": {}
  }
}