{
  "contractName": "ExpiryV2",
  "abi": [
    {
      "constant": true,
      "inputs": [
        {
          "name": "",
          "type": "address"
        },
        {
          "name": "",
          "type": "address"
        }
      ],
      "name": "g_approvedSender",
      "outputs": [
        {
          "name": "",
          "type": "uint32"
        }
      ],
      "payable": false,
      "stateMutability": "view",
      "type": "function"
    },
    {
      "constant": true,
      "inputs": [],
      "name": "SOLO_MARGIN",
      "outputs": [
        {
          "name": "",
          "type": "address"
        }
      ],
      "payable": false,
      "stateMutability": "view",
      "type": "function"
    },
    {
      "constant": false,
      "inputs": [],
      "name": "renounceOwnership",
      "outputs": [],
      "payable": false,
      "stateMutability": "nonpayable",
      "type": "function"
    },
    {
      "constant": true,
      "inputs": [],
      "name": "owner",
      "outputs": [
        {
          "name": "",
          "type": "address"
        }
      ],
      "payable": false,
      "stateMutability": "view",
      "type": "function"
    },
    {
      "constant": true,
      "inputs": [],
      "name": "isOwner",
      "outputs": [
        {
          "name": "",
          "type": "bool"
        }
      ],
      "payable": false,
      "stateMutability": "view",
      "type": "function"
    },
    {
      "constant": true,
      "inputs": [],
      "name": "g_expiryRampTime",
      "outputs": [
        {
          "name": "",
          "type": "uint256"
        }
      ],
      "payable": false,
      "stateMutability": "view",
      "type": "function"
    },
    {
      "constant": false,
      "inputs": [
        {
          "name": "newOwner",
          "type": "address"
        }
      ],
      "name": "transferOwnership",
      "outputs": [],
      "payable": false,
      "stateMutability": "nonpayable",
      "type": "function"
    },
    {
      "inputs": [
        {
          "name": "soloMargin",
          "type": "address"
        },
        {
          "name": "expiryRampTime",
          "type": "uint256"
        }
      ],
      "payable": false,
      "stateMutability": "nonpayable",
      "type": "constructor"
    },
    {
      "anonymous": false,
      "inputs": [
        {
          "indexed": false,
          "name": "owner",
          "type": "address"
        },
        {
          "indexed": false,
          "name": "number",
          "type": "uint256"
        },
        {
          "indexed": false,
          "name": "marketId",
          "type": "uint256"
        },
        {
          "indexed": false,
          "name": "time",
          "type": "uint32"
        }
      ],
      "name": "ExpirySet",
      "type": "event"
    },
    {
      "anonymous": false,
      "inputs": [
        {
          "indexed": false,
          "name": "expiryRampTime",
          "type": "uint256"
        }
      ],
      "name": "LogExpiryRampTimeSet",
      "type": "event"
    },
    {
      "anonymous": false,
      "inputs": [
        {
          "indexed": false,
          "name": "approver",
          "type": "address"
        },
        {
          "indexed": false,
          "name": "sender",
          "type": "address"
        },
        {
          "indexed": false,
          "name": "minTimeDelta",
          "type": "uint32"
        }
      ],
      "name": "LogSenderApproved",
      "type": "event"
    },
    {
      "anonymous": false,
      "inputs": [
        {
          "indexed": true,
          "name": "previousOwner",
          "type": "address"
        },
        {
          "indexed": true,
          "name": "newOwner",
          "type": "address"
        }
      ],
      "name": "OwnershipTransferred",
      "type": "event"
    },
    {
      "constant": false,
      "inputs": [
        {
          "name": "newExpiryRampTime",
          "type": "uint256"
        }
      ],
      "name": "ownerSetExpiryRampTime",
      "outputs": [],
      "payable": false,
      "stateMutability": "nonpayable",
      "type": "function"
    },
    {
      "constant": false,
      "inputs": [
        {
          "name": "sender",
          "type": "address"
        },
        {
          "name": "minTimeDelta",
          "type": "uint32"
        }
      ],
      "name": "approveSender",
      "outputs": [],
      "payable": false,
      "stateMutability": "nonpayable",
      "type": "function"
    },
    {
      "constant": false,
      "inputs": [
        {
          "name": "",
          "type": "address"
        },
        {
          "components": [
            {
              "name": "owner",
              "type": "address"
            },
            {
              "name": "number",
              "type": "uint256"
            }
          ],
          "name": "account",
          "type": "tuple"
        },
        {
          "name": "data",
          "type": "bytes"
        }
      ],
      "name": "callFunction",
      "outputs": [],
      "payable": false,
      "stateMutability": "nonpayable",
      "type": "function"
    },
    {
      "constant": false,
      "inputs": [
        {
          "name": "inputMarketId",
          "type": "uint256"
        },
        {
          "name": "outputMarketId",
          "type": "uint256"
        },
        {
          "components": [
            {
              "name": "owner",
              "type": "address"
            },
            {
              "name": "number",
              "type": "uint256"
            }
          ],
          "name": "makerAccount",
          "type": "tuple"
        },
        {
          "components": [
            {
              "name": "owner",
              "type": "address"
            },
            {
              "name": "number",
              "type": "uint256"
            }
          ],
          "name": "",
          "type": "tuple"
        },
        {
          "components": [
            {
              "name": "sign",
              "type": "bool"
            },
            {
              "name": "value",
              "type": "uint128"
            }
          ],
          "name": "oldInputPar",
          "type": "tuple"
        },
        {
          "components": [
            {
              "name": "sign",
              "type": "bool"
            },
            {
              "name": "value",
              "type": "uint128"
            }
          ],
          "name": "newInputPar",
          "type": "tuple"
        },
        {
          "components": [
            {
              "name": "sign",
              "type": "bool"
            },
            {
              "name": "value",
              "type": "uint256"
            }
          ],
          "name": "inputWei",
          "type": "tuple"
        },
        {
          "name": "data",
          "type": "bytes"
        }
      ],
      "name": "getTradeCost",
      "outputs": [
        {
          "components": [
            {
              "name": "sign",
              "type": "bool"
            },
            {
              "name": "denomination",
              "type": "uint8"
            },
            {
              "name": "ref",
              "type": "uint8"
            },
            {
              "name": "value",
              "type": "uint256"
            }
          ],
          "name": "",
          "type": "tuple"
        }
      ],
      "payable": false,
      "stateMutability": "nonpayable",
      "type": "function"
    },
    {
      "constant": true,
      "inputs": [
        {
          "components": [
            {
              "name": "owner",
              "type": "address"
            },
            {
              "name": "number",
              "type": "uint256"
            }
          ],
          "name": "account",
          "type": "tuple"
        },
        {
          "name": "marketId",
          "type": "uint256"
        }
      ],
      "name": "getExpiry",
      "outputs": [
        {
          "name": "",
          "type": "uint32"
        }
      ],
      "payable": false,
      "stateMutability": "view",
      "type": "function"
    },
    {
      "constant": true,
      "inputs": [
        {
          "name": "heldMarketId",
          "type": "uint256"
        },
        {
          "name": "owedMarketId",
          "type": "uint256"
        },
        {
          "name": "expiry",
          "type": "uint32"
        }
      ],
      "name": "getSpreadAdjustedPrices",
      "outputs": [
        {
          "components": [
            {
              "name": "value",
              "type": "uint256"
            }
          ],
          "name": "",
          "type": "tuple"
        },
        {
          "components": [
            {
              "name": "value",
              "type": "uint256"
            }
          ],
          "name": "",
          "type": "tuple"
        }
      ],
      "payable": false,
      "stateMutability": "view",
      "type": "function"
    }
  ],
  "bytecode": "0x60806040523480156200001157600080fd5b5060405160408062002b2f8339810180604052620000339190810190620000cb565b60008054600160a060020a03191633178082556040518492600160a060020a039290921691907f8be0079c531659141344cd1fd0a4f28419497f9722a3daafe3b4186f6b6457e0908290a360018054600160a060020a031916600160a060020a0392909216919091179055600455506200012c565b6000620000b682516200010a565b9392505050565b6000620000b6825162000129565b60008060408385031215620000df57600080fd5b6000620000ed8585620000a8565b92505060206200010085828601620000bd565b9150509250929050565b600062000117826200011d565b92915050565b600160a060020a031690565b90565b6129f3806200013c6000396000f3fe608060405234801561001057600080fd5b50600436106100fc576000357c0100000000000000000000000000000000000000000000000000000000900480638b418713116100a9578063b139654211610083578063b1396542146101cc578063d8862484146101ed578063f2fde38b14610202578063f64e654c14610215576100fc565b80638b4187131461018f5780638da5cb5b146101a25780638f32d59b146101b7576100fc565b806320bed572116100da57806320bed57214610152578063448f706514610167578063715018a614610187576100fc565b80630bce846a146101015780631b1fe68a1461012a5780631be7dd831461013f575b600080fd5b61011461010f366004612096565b610228565b60405161012191906127e7565b60405180910390f35b61013261024b565b604051610121919061275b565b61011461014d366004612219565b610267565b610165610160366004612135565b6102b1565b005b61017a6101753660046122a3565b6102c0565b604051610121919061277a565b6101656104e1565b61016561019d3660046120d0565b610561565b6101aa61061a565b60405161012191906126e2565b6101bf610636565b604051610121919061274d565b6101df6101da36600461236e565b610654565b6040516101219291906127a3565b6101f56108ed565b60405161012191906127be565b610165610210366004612078565b6108f3565b610165610223366004612285565b610910565b600360209081526000928352604080842090915290825290205463ffffffff1681565b60015473ffffffffffffffffffffffffffffffffffffffff1681565b815173ffffffffffffffffffffffffffffffffffffffff166000908152600260209081526040808320828601518452825280832084845290915290205463ffffffff165b92915050565b6102bc33838361095d565b5050565b6102c8611c7a565b60015433906103319073ffffffffffffffffffffffffffffffffffffffff1682147f4f6e6c79536f6c6f0000000000000000000000000000000000000000000000007f4f6e6c7920536f6c6f2063616e2063616c6c2066756e6374696f6e0000000000846109fe565b61033a84610b03565b1561036c57604080516080810190915260018082526020820190815260200160008152602001600081525091506104d4565b6000808480602001905161038391908101906123b1565b9150915060006103938b84610267565b90506103f58163ffffffff16600014157f45787069727956320000000000000000000000000000000000000000000000007f457870697279206e6f74207365740000000000000000000000000000000000008e600001518f6020015188610b0f565b61045d610400610c07565b63ffffffff168263ffffffff1611157f45787069727956320000000000000000000000000000000000000000000000007f426f72726f77206e6f74207965742065787069726564000000000000000000008463ffffffff16610c17565b6104be8263ffffffff168263ffffffff1611157f45787069727956320000000000000000000000000000000000000000000000007f4578706972792070617374206d617845787069727900000000000000000000008463ffffffff16610c17565b6104ce8d8d8d8c8c8c8988610c79565b94505050505b5098975050505050505050565b6104e9610636565b6104f257600080fd5b6000805460405173ffffffffffffffffffffffffffffffffffffffff909116907f8be0079c531659141344cd1fd0a4f28419497f9722a3daafe3b4186f6b6457e0908390a3600080547fffffffffffffffffffffffff0000000000000000000000000000000000000000169055565b60015433906105ca9073ffffffffffffffffffffffffffffffffffffffff1682147f4f6e6c79536f6c6f0000000000000000000000000000000000000000000000007f4f6e6c7920536f6c6f2063616e2063616c6c2066756e6374696f6e0000000000846109fe565b6000828060200190516105e09190810190612165565b905060008160018111156105f057fe5b1415610607578351610602908461105d565b610613565b835161061390846112bc565b5050505050565b60005473ffffffffffffffffffffffffffffffffffffffff1690565b60005473ffffffffffffffffffffffffffffffffffffffff16331490565b61065c611ca3565b610664611ca3565b61066c611ca3565b6001546040517fd24c48bc00000000000000000000000000000000000000000000000000000000815273ffffffffffffffffffffffffffffffffffffffff9091169063d24c48bc906106c490899089906004016127cc565b60206040518083038186803b1580156106dc57600080fd5b505afa1580156106f0573d6000803e3d6000fd5b505050506040513d601f19601f8201168201806040525061071491908101906121fb565b9050600061073e8563ffffffff1661072a610c07565b63ffffffff1661130790919063ffffffff16565b905060045481101561075e5761075b82600001518260045461131c565b82525b610766611ca3565b6001546040517f8928378e00000000000000000000000000000000000000000000000000000000815273ffffffffffffffffffffffffffffffffffffffff90911690638928378e906107bc908b906004016127be565b60206040518083038186803b1580156107d457600080fd5b505afa1580156107e8573d6000803e3d6000fd5b505050506040513d601f19601f8201168201806040525061080c91908101906121fb565b9050610816611ca3565b6001546040517f8928378e00000000000000000000000000000000000000000000000000000000815273ffffffffffffffffffffffffffffffffffffffff90911690638928378e9061086c908b906004016127be565b60206040518083038186803b15801561088457600080fd5b505afa158015610898573d6000803e3d6000fd5b505050506040513d601f19601f820116820180604052506108bc91908101906121fb565b90506108dd6108cf826000015186611348565b82519063ffffffff61136116565b8152909890975095505050505050565b60045481565b6108fb610636565b61090457600080fd5b61090d81611373565b50565b610918610636565b61092157600080fd5b7fd08f204a092297d87c6a408c8d66cb1b189734e8284e655f896717b45a93a5368160405161095091906127be565b60405180910390a1600455565b73ffffffffffffffffffffffffffffffffffffffff8381166000908152600360209081526040808320938616835292905281902080547fffffffffffffffffffffffffffffffffffffffffffffffffffffffff000000001663ffffffff8416179055517f6d39d55c693043fe0327fddb80edde3a40fb0419a6299d29592cc2f11e728b9c906109f1908590859085906126f0565b60405180910390a1505050565b83610afd57610a0c83611420565b7f3a20000000000000000000000000000000000000000000000000000000000000610a3684611420565b7f203c000000000000000000000000000000000000000000000000000000000000610a608561151f565b604051610a969594939291907f3e000000000000000000000000000000000000000000000000000000000000009060200161256e565b604080517fffffffffffffffffffffffffffffffffffffffffffffffffffffffffffffffe0818403018152908290527f08c379a0000000000000000000000000000000000000000000000000000000008252610af491600401612769565b60405180910390fd5b50505050565b6020810151155b919050565b85610bff57610b1d85611420565b7f3a20000000000000000000000000000000000000000000000000000000000000610b4786611420565b7f203c000000000000000000000000000000000000000000000000000000000000610b718761151f565b7f2c20000000000000000000000000000000000000000000000000000000000000610b9b886116d2565b7f2c20000000000000000000000000000000000000000000000000000000000000610bc5896116d2565b604051610a96999897969594939291907f3e0000000000000000000000000000000000000000000000000000000000000090602001612648565b505050505050565b6000610c1242611800565b905090565b83610afd57610c2583611420565b7f3a20000000000000000000000000000000000000000000000000000000000000610c4f84611420565b7f203c000000000000000000000000000000000000000000000000000000000000610a60856116d2565b610c81611c7a565b610c89611c7a565b610c91611cb6565b6001546040517fc190c2ec00000000000000000000000000000000000000000000000000000000815273ffffffffffffffffffffffffffffffffffffffff9091169063c190c2ec90610ce9908c908e90600401612788565b604080518083038186803b158015610d0057600080fd5b505afa158015610d14573d6000803e3d6000fd5b505050506040513d601f19601f82011682018060405250610d389190810190612267565b9050610d4386611856565b15610e9657610d96858c147f45787069727956320000000000000000000000000000000000000000000000007f696e7075744d61726b6574206d69736d617463680000000000000000000000008e610c17565b610e01610da28861186c565b157f45787069727956320000000000000000000000000000000000000000000000007f426f72726f77732063616e6e6f74206265206f766572706169640000000000008a602001516fffffffffffffffffffffffffffffffff16610c17565b610e0a88611894565b610e1057fe5b610e69610e1c82611856565b7f45787069727956320000000000000000000000000000000000000000000000007f436f6c6c61746572616c206d75737420626520706f73697469766500000000008d85602001516118bd565b610e75868b8d87611981565b9150610e80876119f8565b15610e9157610e9189866000611a12565b610fe1565b610ee4858b147f45787069727956320000000000000000000000000000000000000000000000007f6f75747075744d61726b6574206d69736d6174636800000000000000000000008d610c17565b610f4f610ef088611894565b157f45787069727956320000000000000000000000000000000000000000000000007f436f6c6c61746572616c2063616e6e6f74206265206f766572757365640000008a602001516fffffffffffffffffffffffffffffffff16610c17565b610f588861186c565b610f5e57fe5b610fb7610f6a82611ab5565b7f45787069727956320000000000000000000000000000000000000000000000007f426f72726f7773206d757374206265206e6567617469766500000000000000008d85602001516118bd565b610fc3868c8c87611acc565b9150806020015182606001511415610fe157610fe189866000611a12565b6020810151606083015161103e9180821115917f4578706972795632000000000000000000000000000000000000000000000000917f6f75747075744d61726b657420746f6f20736d616c6c0000000000000000000091906118bd565b805182511515901515141561104f57fe5b509998505050505050505050565b60006060828060200190516110759190810190612183565b9092509050600082600181111561108857fe5b1461108f57fe5b60005b8151811015610613576110a3611ccd565b8282815181106110af57fe5b602002602001015190508573ffffffffffffffffffffffffffffffffffffffff1681600001516000015173ffffffffffffffffffffffffffffffffffffffff161461115a5780515173ffffffffffffffffffffffffffffffffffffffff9081166000908152600360209081526040808320938a168352929052205463ffffffff1680158061114c57508063ffffffff16826040015163ffffffff16105b156111585750506112b4565b505b604081015163ffffffff161580159061121f5750600154815160208301516040517f47d1b53c00000000000000000000000000000000000000000000000000000000815261121f9373ffffffffffffffffffffffffffffffffffffffff16926347d1b53c926111cb92600401612788565b604080518083038186803b1580156111e257600080fd5b505afa1580156111f6573d6000803e3d6000fd5b505050506040513d601f19601f8201168201806040525061121a9190810190612249565b611894565b1561129e57806060015180611249575061124181600001518260200151610267565b63ffffffff16155b1561129957600061128261127d836040015163ffffffff16611269610c07565b63ffffffff1661136190919063ffffffff16565b611800565b90506112978260000151836020015183611a12565b505b6112b2565b6112b2816000015182602001516000611a12565b505b600101611092565b60006112c6611cb6565b828060200190516112da91908101906121cb565b909250905060018260018111156112ed57fe5b146112f457fe5b610afd848260000151836020015161095d565b60008282111561131657600080fd5b50900390565b600061133e82611332868663ffffffff611b2916565b9063ffffffff611b5016565b90505b9392505050565b6000611341838360000151670de0b6b3a764000061131c565b60008282018381101561134157600080fd5b73ffffffffffffffffffffffffffffffffffffffff811661139357600080fd5b6000805460405173ffffffffffffffffffffffffffffffffffffffff808516939216917f8be0079c531659141344cd1fd0a4f28419497f9722a3daafe3b4186f6b6457e091a3600080547fffffffffffffffffffffffff00000000000000000000000000000000000000001673ffffffffffffffffffffffffffffffffffffffff92909216919091179055565b606080826040516020016114349190612528565b604080517fffffffffffffffffffffffffffffffffffffffffffffffffffffffffffffffe0818403018152919052905060205b80156115045781517fffffffffffffffffffffffffffffffffffffffffffffffffffffffffffffffff909101908290829081106114a057fe5b6020910101517f010000000000000000000000000000000000000000000000000000000000000090819004027fff0000000000000000000000000000000000000000000000000000000000000016156114ff5760010181529050610b0a565b611467565b5060408051600080825260208201909252905b509392505050565b60408051602a808252606082810190935273ffffffffffffffffffffffffffffffffffffffff841691839160208201818038833901905050905060307f0100000000000000000000000000000000000000000000000000000000000000028160008151811061158a57fe5b60200101907effffffffffffffffffffffffffffffffffffffffffffffffffffffffffffff1916908160001a90535060787f010000000000000000000000000000000000000000000000000000000000000002816001815181106115ea57fe5b60200101907effffffffffffffffffffffffffffffffffffffffffffffffffffffffffffff1916908160001a90535060005b60148110156115175760028102611635600f8516611b72565b83826029038151811061164457fe5b60200101907effffffffffffffffffffffffffffffffffffffffffffffffffffffffffffff1916908160001a905350601090930492611685600f8516611b72565b83826028038151811061169457fe5b60200101907effffffffffffffffffffffffffffffffffffffffffffffffffffffffffffff1916908160001a9053505060109092049160010161161c565b606081611713575060408051808201909152600181527f30000000000000000000000000000000000000000000000000000000000000006020820152610b0a565b8160005b811561172b57600101600a82049150611717565b6060816040519080825280601f01601f191660200182016040528015611758576020820181803883390190505b508593509050815b80156117f7577fffffffffffffffffffffffffffffffffffffffffffffffffffffffffffffffff01600a84066030017f0100000000000000000000000000000000000000000000000000000000000000028282815181106117bd57fe5b60200101907effffffffffffffffffffffffffffffffffffffffffffffffffffffffffffff1916908160001a905350600a84049350611760565b50949350505050565b6000816102ab63ffffffff821682147f4d617468000000000000000000000000000000000000000000000000000000007f556e73616665206361737420746f2075696e7433320000000000000000000000611bd2565b805160009080156102ab57505060200151151590565b805160009080156102ab575050602001516fffffffffffffffffffffffffffffffff16151590565b80516000901580156102ab575050602001516fffffffffffffffffffffffffffffffff16151590565b84610613576118cb84611420565b7f3a200000000000000000000000000000000000000000000000000000000000006118f585611420565b7f203c00000000000000000000000000000000000000000000000000000000000061191f866116d2565b7f2c20000000000000000000000000000000000000000000000000000000000000611949876116d2565b604051610a9697969594939291907f3e00000000000000000000000000000000000000000000000000000000000000906020016125cc565b611989611c7a565b611991611ca3565b611999611ca3565b6119a4868686610654565b9150915060006119c188602001518360000151856000015161131c565b604080516080810190915260008082529192509060208201905b81526020016000815260200191909152925050505b949350505050565b602001516fffffffffffffffffffffffffffffffff161590565b825173ffffffffffffffffffffffffffffffffffffffff166000908152600260209081526040808320828701805185529083528184208685529092529182902080547fffffffffffffffffffffffffffffffffffffffffffffffffffffffff000000001663ffffffff85161790558451905191517ecee2201664da23900ada76f5e96bcae576e5d7253b36f10dc1b379597d521b926109f1929186908690612718565b80516000901580156102ab57505060200151151590565b611ad4611c7a565b611adc611ca3565b611ae4611ca3565b611aef868686610654565b915091506000611b0c886020015184600001518460000151611c21565b6040805160808101909152600181529091506020810160006119db565b600082611b38575060006102ab565b82820282848281611b4557fe5b041461134157600080fd5b6000808211611b5e57600080fd5b6000828481611b6957fe5b04949350505050565b6000600a821015611ba957507f01000000000000000000000000000000000000000000000000000000000000006030820102610b0a565b506057017f01000000000000000000000000000000000000000000000000000000000000000290565b82611c1c57611be082611420565b7f3a20000000000000000000000000000000000000000000000000000000000000611c0a83611420565b604051602001610a969392919061253d565b505050565b6000831580611c2e575082155b15611c4557611c3e600083611b50565b9050611341565b61133e6001611c6e8461133283611c628a8a63ffffffff611b2916565b9063ffffffff61130716565b9063ffffffff61136116565b604080516080810190915260008082526020820190815260200160008152602001600081525090565b6040518060200160405280600081525090565b604080518082019091526000808252602082015290565b6040518060a00160405280611ce0611cb6565b81526000602082018190526040820181905260609091015290565b60006113418235612890565b60006113418251612890565b600082601f830112611d2457600080fd5b8151611d37611d328261281c565b6127f5565b915081818352602084019350602081019050838560a0840282011115611d5c57600080fd5b60005b83811015611d8a5781611d728882611f6d565b84525060209092019160a09190910190600101611d5f565b5050505092915050565b6000611341823561289b565b6000611341825161289b565b600082601f830112611dbd57600080fd5b8135611dcb611d328261283d565b91508082526020830160208301858383011115611de757600080fd5b611df2838284612959565b50505092915050565b6000611341825161291f565b600060208284031215611e1957600080fd5b611e2360206127f5565b90506000611e318484612054565b82525092915050565b600060408284031215611e4c57600080fd5b611e5660406127f5565b90506000611e648484611d07565b8252506020611e7584848301612054565b60208301525092915050565b600060408284031215611e9357600080fd5b611e9d60406127f5565b90506000611eab8484611cfb565b8252506020611e7584848301612048565b600060408284031215611ece57600080fd5b611ed860406127f5565b90506000611ee68484611d94565b8252506020611e7584848301612030565b600060408284031215611f0957600080fd5b611f1360406127f5565b90506000611f218484611da0565b8252506020611e758484830161203c565b600060408284031215611f4457600080fd5b611f4e60406127f5565b90506000611f5c8484611d07565b8252506020611e758484830161206c565b600060a08284031215611f7f57600080fd5b611f8960806127f5565b90506000611f978484611e3a565b8252506040611fa884848301612054565b6020830152506060611fbc8482850161206c565b6040830152506080611fd084828501611da0565b60608301525092915050565b600060408284031215611fee57600080fd5b611ff860406127f5565b90506000611eab8484611d94565b60006040828403121561201857600080fd5b61202260406127f5565b90506000611e648484611da0565b6000611341823561292e565b6000611341825161292e565b600061134182356128ea565b600061134182516128ea565b60006113418235612916565b60006113418251612916565b60006020828403121561208a57600080fd5b60006119f08484611cfb565b600080604083850312156120a957600080fd5b60006120b58585611cfb565b92505060206120c685828601611cfb565b9150509250929050565b6000806000608084860312156120e557600080fd5b60006120f18686611cfb565b935050602061210286828701611e81565b925050606084013567ffffffffffffffff81111561211f57600080fd5b61212b86828701611dac565b9150509250925092565b6000806040838503121561214857600080fd5b60006121548585611cfb565b92505060206120c685828601612060565b60006020828403121561217757600080fd5b60006119f08484611dfb565b6000806040838503121561219657600080fd5b60006121a28585611dfb565b925050602083015167ffffffffffffffff8111156121bf57600080fd5b6120c685828601611d13565b600080606083850312156121de57600080fd5b60006121ea8585611dfb565b92505060206120c685828601611f32565b60006020828403121561220d57600080fd5b60006119f08484611e07565b6000806060838503121561222c57600080fd5b60006122388585611e81565b92505060406120c685828601612048565b60006040828403121561225b57600080fd5b60006119f08484611ef7565b60006040828403121561227957600080fd5b60006119f08484612006565b60006020828403121561229757600080fd5b60006119f08484612048565b6000806000806000806000806101a0898b0312156122c057600080fd5b60006122cc8b8b612048565b98505060206122dd8b828c01612048565b97505060406122ee8b828c01611e81565b96505060806122ff8b828c01611e81565b95505060c06123108b828c01611ebc565b9450506101006123228b828c01611ebc565b9350506101406123348b828c01611fdc565b92505061018089013567ffffffffffffffff81111561235257600080fd5b61235e8b828c01611dac565b9150509295985092959890939650565b60008060006060848603121561238357600080fd5b600061238f8686612048565b93505060206123a086828701612048565b925050604061212b86828701612060565b600080604083850312156123c457600080fd5b60006123d08585612054565b92505060206120c68582860161206c565b6123ea81612890565b82525050565b6123ea8161289b565b6123ea612405826128a0565b6128ea565b6123ea612405826128c5565b6123ea612405826128ea565b600061242d82612883565b6124378185610b0a565b9350612447818560208601612965565b9290920192915050565b6123ea81612943565b6123ea8161294e565b600061246e82612883565b6124788185612887565b9350612488818560208601612965565b61249181612991565b9093019392505050565b805160808301906124ac84826123f0565b5060208201516124bf602085018261245a565b5060408201516124d2604085018261245a565b506060820151610afd6060850182612516565b805160408301906124f684826123e1565b506020820151610afd6020850182612516565b80516020830190610afd84825b6123ea816128ea565b6123ea81612916565b60006125348284612416565b50602001919050565b60006125498286612422565b9150612555828561240a565b6002820191506125658284612422565b95945050505050565b600061257a8289612422565b9150612586828861240a565b6002820191506125968287612422565b91506125a2828661240a565b6002820191506125b28285612422565b91506125be82846123f9565b506001019695505050505050565b60006125d8828b612422565b91506125e4828a61240a565b6002820191506125f48289612422565b9150612600828861240a565b6002820191506126108287612422565b915061261c828661240a565b60028201915061262c8285612422565b915061263882846123f9565b5060010198975050505050505050565b6000612654828d612422565b9150612660828c61240a565b600282019150612670828b612422565b915061267c828a61240a565b60028201915061268c8289612422565b9150612698828861240a565b6002820191506126a88287612422565b91506126b4828661240a565b6002820191506126c48285612422565b91506126d082846123f9565b506001019a9950505050505050505050565b602081016102ab82846123e1565b606081016126fe82866123e1565b61270b60208301856123e1565b6119f0604083018461251f565b6080810161272682876123e1565b6127336020830186612516565b6127406040830185612516565b612565606083018461251f565b602081016102ab82846123f0565b602081016102ab8284612451565b602080825281016113418184612463565b608081016102ab828461249b565b6060810161279682856124e5565b6113416040830184612516565b604081016127b18285612509565b6113416020830184612509565b602081016102ab8284612516565b604081016127da8285612516565b6113416020830184612516565b602081016102ab828461251f565b60405181810167ffffffffffffffff8111828210171561281457600080fd5b604052919050565b600067ffffffffffffffff82111561283357600080fd5b5060209081020190565b600067ffffffffffffffff82111561285457600080fd5b506020601f919091017fffffffffffffffffffffffffffffffffffffffffffffffffffffffffffffffe0160190565b5190565b90815260200190565b60006102ab826128fd565b151590565b7fff000000000000000000000000000000000000000000000000000000000000001690565b7fffff0000000000000000000000000000000000000000000000000000000000001690565b90565b6000600282106128f957fe5b5090565b73ffffffffffffffffffffffffffffffffffffffff1690565b63ffffffff1690565b6000600282106128f957600080fd5b6fffffffffffffffffffffffffffffffff1690565b60006102ab82612890565b60006102ab826128ed565b82818337506000910152565b60005b83811015612980578181015183820152602001612968565b83811115610afd5750506000910152565b601f017fffffffffffffffffffffffffffffffffffffffffffffffffffffffffffffffe0169056fea265627a7a72305820157e13fbe57758b41e20bb56422dfd79f860bf13353a9ed0931f3d224646d3a86c6578706572696d656e74616cf50037",
  "source": "/*\n\n    Copyright 2019 dYdX Trading Inc.\n\n    Licensed under the Apache License, Version 2.0 (the \"License\");\n    you may not use this file except in compliance with the License.\n    You may obtain a copy of the License at\n\n    http://www.apache.org/licenses/LICENSE-2.0\n\n    Unless required by applicable law or agreed to in writing, software\n    distributed under the License is distributed on an \"AS IS\" BASIS,\n    WITHOUT WARRANTIES OR CONDITIONS OF ANY KIND, either express or implied.\n    See the License for the specific language governing permissions and\n    limitations under the License.\n\n*/\n\npragma solidity 0.5.7;\npragma experimental ABIEncoderV2;\n\nimport { SafeMath } from \"openzeppelin-solidity/contracts/math/SafeMath.sol\";\nimport { Ownable } from \"openzeppelin-solidity/contracts/ownership/Ownable.sol\";\nimport { IAutoTrader } from \"../../protocol/interfaces/IAutoTrader.sol\";\nimport { ICallee } from \"../../protocol/interfaces/ICallee.sol\";\nimport { Account } from \"../../protocol/lib/Account.sol\";\nimport { Decimal } from \"../../protocol/lib/Decimal.sol\";\nimport { Math } from \"../../protocol/lib/Math.sol\";\nimport { Monetary } from \"../../protocol/lib/Monetary.sol\";\nimport { Require } from \"../../protocol/lib/Require.sol\";\nimport { Time } from \"../../protocol/lib/Time.sol\";\nimport { Types } from \"../../protocol/lib/Types.sol\";\nimport { OnlySolo } from \"../helpers/OnlySolo.sol\";\n\n\n/**\n * @title ExpiryV2\n * @author dYdX\n *\n * Expiry contract that also allows approved senders to set expiry to be 28 days in the future.\n */\ncontract ExpiryV2 is\n    Ownable,\n    OnlySolo,\n    ICallee,\n    IAutoTrader\n{\n    using Math for uint256;\n    using SafeMath for uint32;\n    using SafeMath for uint256;\n    using Types for Types.Par;\n    using Types for Types.Wei;\n\n    // ============ Constants ============\n\n    bytes32 constant FILE = \"ExpiryV2\";\n\n    // ============ Enums ============\n\n    enum CallFunctionType {\n        SetExpiry,\n        SetApproval\n    }\n\n    // ============ Structs ============\n\n    struct SetExpiryArg {\n        Account.Info account;\n        uint256 marketId;\n        uint32 timeDelta;\n        bool forceUpdate;\n    }\n\n    struct SetApprovalArg {\n        address sender;\n        uint32 minTimeDelta;\n    }\n\n    // ============ Events ============\n\n    event ExpirySet(\n        address owner,\n        uint256 number,\n        uint256 marketId,\n        uint32 time\n    );\n\n    event LogExpiryRampTimeSet(\n        uint256 expiryRampTime\n    );\n\n    event LogSenderApproved(\n        address approver,\n        address sender,\n        uint32 minTimeDelta\n    );\n\n    // ============ Storage ============\n\n    // owner => number => market => time\n    mapping (address => mapping (uint256 => mapping (uint256 => uint32))) g_expiries;\n\n    // owner => sender => minimum time delta\n    mapping (address => mapping (address => uint32)) public g_approvedSender;\n\n    // time over which the liquidation ratio goes from zero to maximum\n    uint256 public g_expiryRampTime;\n\n    // ============ Constructor ============\n\n    constructor (\n        address soloMargin,\n        uint256 expiryRampTime\n    )\n        public\n        OnlySolo(soloMargin)\n    {\n        g_expiryRampTime = expiryRampTime;\n    }\n\n    // ============ Admin Functions ============\n\n    function ownerSetExpiryRampTime(\n        uint256 newExpiryRampTime\n    )\n        external\n        onlyOwner\n    {\n        emit LogExpiryRampTimeSet(newExpiryRampTime);\n        g_expiryRampTime = newExpiryRampTime;\n    }\n\n    // ============ Approval Functions ============\n\n    function approveSender(\n        address sender,\n        uint32 minTimeDelta\n    )\n        external\n    {\n        setApproval(msg.sender, sender, minTimeDelta);\n    }\n\n    // ============ Only-Solo Functions ============\n\n    function callFunction(\n        address /* sender */,\n        Account.Info memory account,\n        bytes memory data\n    )\n        public\n        onlySolo(msg.sender)\n    {\n        CallFunctionType callType = abi.decode(data, (CallFunctionType));\n        if (callType == CallFunctionType.SetExpiry) {\n            callFunctionSetExpiry(account.owner, data);\n        } else {\n            callFunctionSetApproval(account.owner, data);\n        }\n    }\n\n    function getTradeCost(\n        uint256 inputMarketId,\n        uint256 outputMarketId,\n        Account.Info memory makerAccount,\n        Account.Info memory /* takerAccount */,\n        Types.Par memory oldInputPar,\n        Types.Par memory newInputPar,\n        Types.Wei memory inputWei,\n        bytes memory data\n    )\n        public\n        onlySolo(msg.sender)\n        returns (Types.AssetAmount memory)\n    {\n        // return zero if input amount is zero\n        if (inputWei.isZero()) {\n            return Types.AssetAmount({\n                sign: true,\n                denomination: Types.AssetDenomination.Par,\n                ref: Types.AssetReference.Delta,\n                value: 0\n            });\n        }\n\n        (uint256 owedMarketId, uint32 maxExpiry) = abi.decode(data, (uint256, uint32));\n\n        uint32 expiry = getExpiry(makerAccount, owedMarketId);\n\n        // validate expiry\n        Require.that(\n            expiry != 0,\n            FILE,\n            \"Expiry not set\",\n            makerAccount.owner,\n            makerAccount.number,\n            owedMarketId\n        );\n        Require.that(\n            expiry <= Time.currentTime(),\n            FILE,\n            \"Borrow not yet expired\",\n            expiry\n        );\n        Require.that(\n            expiry <= maxExpiry,\n            FILE,\n            \"Expiry past maxExpiry\",\n            expiry\n        );\n\n        return getTradeCostInternal(\n            inputMarketId,\n            outputMarketId,\n            makerAccount,\n            oldInputPar,\n            newInputPar,\n            inputWei,\n            owedMarketId,\n            expiry\n        );\n    }\n\n    // ============ Getters ============\n\n    function getExpiry(\n        Account.Info memory account,\n        uint256 marketId\n    )\n        public\n        view\n        returns (uint32)\n    {\n        return g_expiries[account.owner][account.number][marketId];\n    }\n\n    function getSpreadAdjustedPrices(\n        uint256 heldMarketId,\n        uint256 owedMarketId,\n        uint32 expiry\n    )\n        public\n        view\n        returns (\n            Monetary.Price memory,\n            Monetary.Price memory\n        )\n    {\n        Decimal.D256 memory spread = SOLO_MARGIN.getLiquidationSpreadForPair(\n            heldMarketId,\n            owedMarketId\n        );\n\n        uint256 expiryAge = Time.currentTime().sub(expiry);\n\n        if (expiryAge < g_expiryRampTime) {\n            spread.value = Math.getPartial(spread.value, expiryAge, g_expiryRampTime);\n        }\n\n        Monetary.Price memory heldPrice = SOLO_MARGIN.getMarketPrice(heldMarketId);\n        Monetary.Price memory owedPrice = SOLO_MARGIN.getMarketPrice(owedMarketId);\n        owedPrice.value = owedPrice.value.add(Decimal.mul(owedPrice.value, spread));\n\n        return (heldPrice, owedPrice);\n    }\n\n    // ============ Private Functions ============\n\n    function callFunctionSetExpiry(\n        address sender,\n        bytes memory data\n    )\n        private\n    {\n        (\n            CallFunctionType callType,\n            SetExpiryArg[] memory expiries\n        ) = abi.decode(data, (CallFunctionType, SetExpiryArg[]));\n\n        assert(callType == CallFunctionType.SetExpiry);\n\n        for (uint256 i = 0; i < expiries.length; i++) {\n            SetExpiryArg memory exp = expiries[i];\n            if (exp.account.owner != sender) {\n                // don't do anything if sender is not approved for this action\n                uint32 minApprovedTimeDelta = g_approvedSender[exp.account.owner][sender];\n                if (minApprovedTimeDelta == 0 || exp.timeDelta < minApprovedTimeDelta) {\n                    continue;\n                }\n            }\n\n            // if timeDelta is zero, interpret it as unset expiry\n            if (\n                exp.timeDelta != 0 &&\n                SOLO_MARGIN.getAccountPar(exp.account, exp.marketId).isNegative()\n            ) {\n                // only change non-zero values if forceUpdate is true\n                if (exp.forceUpdate || getExpiry(exp.account, exp.marketId) == 0) {\n                    uint32 newExpiryTime = Time.currentTime().add(exp.timeDelta).to32();\n                    setExpiry(exp.account, exp.marketId, newExpiryTime);\n                }\n            } else {\n                // timeDelta is zero or account has non-negative balance\n                setExpiry(exp.account, exp.marketId, 0);\n            }\n        }\n    }\n\n    function callFunctionSetApproval(\n        address sender,\n        bytes memory data\n    )\n        private\n    {\n        (\n            CallFunctionType callType,\n            SetApprovalArg memory approvalArg\n        ) = abi.decode(data, (CallFunctionType, SetApprovalArg));\n        assert(callType == CallFunctionType.SetApproval);\n        setApproval(sender, approvalArg.sender, approvalArg.minTimeDelta);\n    }\n\n    function getTradeCostInternal(\n        uint256 inputMarketId,\n        uint256 outputMarketId,\n        Account.Info memory makerAccount,\n        Types.Par memory oldInputPar,\n        Types.Par memory newInputPar,\n        Types.Wei memory inputWei,\n        uint256 owedMarketId,\n        uint32 expiry\n    )\n        private\n        returns (Types.AssetAmount memory)\n    {\n        Types.AssetAmount memory output;\n        Types.Wei memory maxOutputWei = SOLO_MARGIN.getAccountWei(makerAccount, outputMarketId);\n\n        if (inputWei.isPositive()) {\n            Require.that(\n                inputMarketId == owedMarketId,\n                FILE,\n                \"inputMarket mismatch\",\n                inputMarketId\n            );\n            Require.that(\n                !newInputPar.isPositive(),\n                FILE,\n                \"Borrows cannot be overpaid\",\n                newInputPar.value\n            );\n            assert(oldInputPar.isNegative());\n            Require.that(\n                maxOutputWei.isPositive(),\n                FILE,\n                \"Collateral must be positive\",\n                outputMarketId,\n                maxOutputWei.value\n            );\n            output = owedWeiToHeldWei(\n                inputWei,\n                outputMarketId,\n                inputMarketId,\n                expiry\n            );\n\n            // clear expiry if borrow is fully repaid\n            if (newInputPar.isZero()) {\n                setExpiry(makerAccount, owedMarketId, 0);\n            }\n        } else {\n            Require.that(\n                outputMarketId == owedMarketId,\n                FILE,\n                \"outputMarket mismatch\",\n                outputMarketId\n            );\n            Require.that(\n                !newInputPar.isNegative(),\n                FILE,\n                \"Collateral cannot be overused\",\n                newInputPar.value\n            );\n            assert(oldInputPar.isPositive());\n            Require.that(\n                maxOutputWei.isNegative(),\n                FILE,\n                \"Borrows must be negative\",\n                outputMarketId,\n                maxOutputWei.value\n            );\n            output = heldWeiToOwedWei(\n                inputWei,\n                inputMarketId,\n                outputMarketId,\n                expiry\n            );\n\n            // clear expiry if borrow is fully repaid\n            if (output.value == maxOutputWei.value) {\n                setExpiry(makerAccount, owedMarketId, 0);\n            }\n        }\n\n        Require.that(\n            output.value <= maxOutputWei.value,\n            FILE,\n            \"outputMarket too small\",\n            output.value,\n            maxOutputWei.value\n        );\n        assert(output.sign != maxOutputWei.sign);\n\n        return output;\n    }\n\n    function setExpiry(\n        Account.Info memory account,\n        uint256 marketId,\n        uint32 time\n    )\n        private\n    {\n        g_expiries[account.owner][account.number][marketId] = time;\n        emit ExpirySet(\n            account.owner,\n            account.number,\n            marketId,\n            time\n        );\n    }\n\n    function setApproval(\n        address approver,\n        address sender,\n        uint32 minTimeDelta\n    )\n        private\n    {\n        g_approvedSender[approver][sender] = minTimeDelta;\n        emit LogSenderApproved(approver, sender, minTimeDelta);\n    }\n\n    function heldWeiToOwedWei(\n        Types.Wei memory heldWei,\n        uint256 heldMarketId,\n        uint256 owedMarketId,\n        uint32 expiry\n    )\n        private\n        view\n        returns (Types.AssetAmount memory)\n    {\n        (\n            Monetary.Price memory heldPrice,\n            Monetary.Price memory owedPrice\n        ) = getSpreadAdjustedPrices(\n            heldMarketId,\n            owedMarketId,\n            expiry\n        );\n\n        uint256 owedAmount = Math.getPartialRoundUp(\n            heldWei.value,\n            heldPrice.value,\n            owedPrice.value\n        );\n\n        return Types.AssetAmount({\n            sign: true,\n            denomination: Types.AssetDenomination.Wei,\n            ref: Types.AssetReference.Delta,\n            value: owedAmount\n        });\n    }\n\n    function owedWeiToHeldWei(\n        Types.Wei memory owedWei,\n        uint256 heldMarketId,\n        uint256 owedMarketId,\n        uint32 expiry\n    )\n        private\n        view\n        returns (Types.AssetAmount memory)\n    {\n        (\n            Monetary.Price memory heldPrice,\n            Monetary.Price memory owedPrice\n        ) = getSpreadAdjustedPrices(\n            heldMarketId,\n            owedMarketId,\n            expiry\n        );\n\n        uint256 heldAmount = Math.getPartial(\n            owedWei.value,\n            owedPrice.value,\n            heldPrice.value\n        );\n\n        return Types.AssetAmount({\n            sign: false,\n            denomination: Types.AssetDenomination.Wei,\n            ref: Types.AssetReference.Delta,\n            value: heldAmount\n        });\n    }\n}\n",
  "sourcePath": "/home/terra/opensource/solo/contracts/external/traders/ExpiryV2.sol",
  "compiler": {
    "name": "solc",
    "version": "0.5.7+commit.6da8b019.Linux.g++"
  },
  "schemaVersion": "3.4.7",
  "updatedAt": "2022-04-29T09:51:29.219Z",
  "devdoc": {
    "author": "dYdX * Expiry contract that also allows approved senders to set expiry to be 28 days in the future.",
    "methods": {
      "isOwner()": {
        "return": "true if `msg.sender` is the owner of the contract."
      },
      "owner()": {
        "return": "the address of the owner."
      },
      "renounceOwnership()": {
        "details": "Allows the current owner to relinquish control of the contract."
      },
      "transferOwnership(address)": {
        "details": "Allows the current owner to transfer control of the contract to a newOwner.",
        "params": {
          "newOwner": "The address to transfer ownership to."
        }
      }
    },
    "title": "ExpiryV2"
  },
  "userdoc": {
    "methods": {
      "renounceOwnership()": {
        "notice": "Renouncing to ownership will leave the contract without an owner. It will not be possible to call the functions with the `onlyOwner` modifier anymore."
      }
    }
  }
}