{
  "contractName": "Operation",
  "abi": [
    {
      "constant": false,
      "inputs": [
        {
          "components": [
            {
              "name": "owner",
              "type": "address"
            },
            {
              "name": "number",
              "type": "uint256"
            }
          ],
          "name": "accounts",
          "type": "tuple[]"
        },
        {
          "components": [
            {
              "name": "actionType",
              "type": "uint8"
            },
            {
              "name": "accountId",
              "type": "uint256"
            },
            {
              "components": [
                {
                  "name": "sign",
                  "type": "bool"
                },
                {
                  "name": "denomination",
                  "type": "uint8"
                },
                {
                  "name": "ref",
                  "type": "uint8"
                },
                {
                  "name": "value",
                  "type": "uint256"
                }
              ],
              "name": "amount",
              "type": "tuple"
            },
            {
              "name": "primaryMarketId",
              "type": "uint256"
            },
            {
              "name": "secondaryMarketId",
              "type": "uint256"
            },
            {
              "name": "otherAddress",
              "type": "address"
            },
            {
              "name": "otherAccountId",
              "type": "uint256"
            },
            {
              "name": "data",
              "type": "bytes"
            }
          ],
          "name": "actions",
          "type": "tuple[]"
        }
      ],
      "name": "operate",
      "outputs": [],
      "payable": false,
      "stateMutability": "nonpayable",
      "type": "function"
    }
  ],
  "bytecode": "0x60806040526001600b556108cd806100186000396000f3fe608060405234801561001057600080fd5b5060043610610047577c01000000000000000000000000000000000000000000000000000000006000350463a67a6a45811461004c575b600080fd5b61005f61005a366004610406565b610061565b005b600b8054600101908190556040517fbd76ecfd00000000000000000000000000000000000000000000000000000000815273__OperationImpl_________________________9063bd76ecfd906100c190600090879087906004016106dc565b60006040518083038186803b1580156100d957600080fd5b505af41580156100ed573d6000803e3d6000fd5b50505050600b5481146100ff57600080fd5b505050565b600061011082356107b1565b9392505050565b600082601f83011261012857600080fd5b813561013b61013682610737565b610710565b81815260209384019390925082018360005b8381101561017957813586016101638882610268565b845250602092830192919091019060010161014d565b5050505092915050565b600082601f83011261019457600080fd5b81356101a261013682610737565b915081818352602084019350602081019050838560408402820111156101c757600080fd5b60005b8381101561017957816101dd88826103b3565b845250602090920191604091909101906001016101ca565b600061011082356107c2565b600082601f83011261021257600080fd5b813561022061013682610758565b9150808252602083016020830185838301111561023c57600080fd5b610247838284610833565b50505092915050565b600061011082356107ff565b6000610110823561080e565b6000610160828403121561027b57600080fd5b610286610100610710565b905060006102948484610250565b82525060206102a5848483016103fa565b60208301525060406102b984828501610344565b60408301525060c06102cd848285016103fa565b60608301525060e06102e1848285016103fa565b6080830152506101006102f684828501610104565b60a08301525061012061030b848285016103fa565b60c08301525061014082013567ffffffffffffffff81111561032c57600080fd5b61033884828501610201565b60e08301525092915050565b60006080828403121561035657600080fd5b6103606080610710565b9050600061036e84846101f5565b825250602061037f8484830161025c565b60208301525060406103938482850161025c565b60408301525060606103a7848285016103fa565b60608301525092915050565b6000604082840312156103c557600080fd5b6103cf6040610710565b905060006103dd8484610104565b82525060206103ee848483016103fa565b60208301525092915050565b600061011082356107fc565b6000806040838503121561041957600080fd5b823567ffffffffffffffff81111561043057600080fd5b61043c85828601610183565b925050602083013567ffffffffffffffff81111561045957600080fd5b61046585828601610117565b9150509250929050565b600061011083836105b0565b600061048783836106ab565b505060400190565b610498816107b1565b82525050565b60006104a9826107a4565b6104b381856107a8565b9350836020820285016104c58561079e565b60005b848110156104fc5783830388526104e083835161046f565b92506104eb8261079e565b6020989098019791506001016104c8565b50909695505050505050565b6000610513826107a4565b61051d81856107a8565b93506105288361079e565b60005b828110156105535761053e86835161047b565b95506105498261079e565b915060010161052b565b5093949350505050565b610498816107c2565b6000610571826107a4565b61057b81856107a8565b935061058b81856020860161083f565b6105948161086b565b9093019392505050565b6104988161081d565b61049881610828565b80516000906101608401906105c5858261059e565b5060208301516105d860208601826106d3565b5060408301516105eb604086018261065b565b5060608301516105fe60c08601826106d3565b50608083015161061160e08601826106d3565b5060a083015161062561010086018261048f565b5060c08301516106396101208601826106d3565b5060e08301518482036101408601526106528282610566565b95945050505050565b8051608083019061066c848261055d565b50602082015161067f60208501826105a7565b50604082015161069260408501826105a7565b5060608201516106a560608501826106d3565b50505050565b805160408301906106bc848261048f565b5060208201516106a560208501826106d3565b9052565b610498816107fc565b606081016106ea82866106cf565b81810360208301526106fc8185610508565b90508181036040830152610652818461049e565b60405181810167ffffffffffffffff8111828210171561072f57600080fd5b604052919050565b600067ffffffffffffffff82111561074e57600080fd5b5060209081020190565b600067ffffffffffffffff82111561076f57600080fd5b506020601f919091017fffffffffffffffffffffffffffffffffffffffffffffffffffffffffffffffe0160190565b60200190565b5190565b90815260200190565b60006107bc826107e3565b92915050565b151590565b6000600982106107d357fe5b5090565b6000600282106107d357fe5b73ffffffffffffffffffffffffffffffffffffffff1690565b90565b6000600982106107d357600080fd5b6000600282106107d357600080fd5b60006107bc826107c7565b60006107bc826107d7565b82818337506000910152565b60005b8381101561085a578181015183820152602001610842565b838111156106a55750506000910152565b601f017fffffffffffffffffffffffffffffffffffffffffffffffffffffffffffffffe0169056fea265627a7a72305820dd133168136084b484d6a0936d0c636fa8d559732e616a74258b9bcb53ef95c76c6578706572696d656e74616cf50037",
  "source": "/*\n\n    Copyright 2019 dYdX Trading Inc.\n\n    Licensed under the Apache License, Version 2.0 (the \"License\");\n    you may not use this file except in compliance with the License.\n    You may obtain a copy of the License at\n\n    http://www.apache.org/licenses/LICENSE-2.0\n\n    Unless required by applicable law or agreed to in writing, software\n    distributed under the License is distributed on an \"AS IS\" BASIS,\n    WITHOUT WARRANTIES OR CONDITIONS OF ANY KIND, either express or implied.\n    See the License for the specific language governing permissions and\n    limitations under the License.\n\n*/\n\npragma solidity 0.5.7;\npragma experimental ABIEncoderV2;\n\nimport { ReentrancyGuard } from \"openzeppelin-solidity/contracts/utils/ReentrancyGuard.sol\";\nimport { State } from \"./State.sol\";\nimport { OperationImpl } from \"./impl/OperationImpl.sol\";\nimport { Account } from \"./lib/Account.sol\";\nimport { Actions } from \"./lib/Actions.sol\";\n\n\n/**\n * @title Operation\n * @author dYdX\n *\n * Primary public function for allowing users and contracts to manage accounts within Solo\n */\ncontract Operation is\n    State,\n    ReentrancyGuard\n{\n    // ============ Public Functions ============\n\n    /**\n     * The main entry-point to Solo that allows users and contracts to manage accounts.\n     * Take one or more actions on one or more accounts. The msg.sender must be the owner or\n     * operator of all accounts except for those being liquidated, vaporized, or traded with.\n     * One call to operate() is considered a singular \"operation\". Account collateralization is\n     * ensured only after the completion of the entire operation.\n     *\n     * @param  accounts  A list of all accounts that will be used in this operation. Cannot contain\n     *                   duplicates. In each action, the relevant account will be referred-to by its\n     *                   index in the list.\n     * @param  actions   An ordered list of all actions that will be taken in this operation. The\n     *                   actions will be processed in order.\n     */\n    function operate(\n        Account.Info[] memory accounts,\n        Actions.ActionArgs[] memory actions\n    )\n        public\n        nonReentrant\n    {\n        OperationImpl.operate(\n            g_state,\n            accounts,\n            actions\n        );\n    }\n}\n",
  "sourcePath": "/home/terra/opensource/solo/contracts/protocol/Operation.sol",
  "compiler": {
    "name": "solc",
    "version": "0.5.7+commit.6da8b019.Linux.g++"
  },
  "schemaVersion": "3.4.7",
  "updatedAt": "2022-04-29T09:51:29.276Z",
  "devdoc": {
    "author": "dYdX * Primary public function for allowing users and contracts to manage accounts within Solo",
    "methods": {
      "operate((address,uint256)[],(uint8,uint256,(bool,uint8,uint8,uint256),uint256,uint256,address,uint256,bytes)[])": {
        "params": {
          "accounts": "A list of all accounts that will be used in this operation. Cannot contain                  duplicates. In each action, the relevant account will be referred-to by its                  index in the list.",
          "actions": "An ordered list of all actions that will be taken in this operation. The                  actions will be processed in order."
        }
      }
    },
    "title": "Operation"
  },
  "userdoc": {
    "methods": {
      "operate((address,uint256)[],(uint8,uint256,(bool,uint8,uint8,uint256),uint256,uint256,address,uint256,bytes)[])": {
        "notice": "The main entry-point to Solo that allows users and contracts to manage accounts. Take one or more actions on one or more accounts. The msg.sender must be the owner or operator of all accounts except for those being liquidated, vaporized, or traded with. One call to operate() is considered a singular \"operation\". Account collateralization is ensured only after the completion of the entire operation."
      }
    }
  }
}