{
  "contractName": "TestLib",
  "abi": [
    {
      "constant": true,
      "inputs": [
        {
          "name": "hash",
          "type": "bytes32"
        },
        {
          "name": "signatureWithType",
          "type": "bytes"
        }
      ],
      "name": "TypedSignatureRecover",
      "outputs": [
        {
          "name": "",
          "type": "address"
        }
      ],
      "payable": false,
      "stateMutability": "pure",
      "type": "function"
    },
    {
      "constant": true,
      "inputs": [
        {
          "name": "target",
          "type": "uint256"
        },
        {
          "name": "numerator",
          "type": "uint256"
        },
        {
          "name": "denominator",
          "type": "uint256"
        }
      ],
      "name": "MathGetPartial",
      "outputs": [
        {
          "name": "",
          "type": "uint256"
        }
      ],
      "payable": false,
      "stateMutability": "pure",
      "type": "function"
    },
    {
      "constant": true,
      "inputs": [
        {
          "name": "target",
          "type": "uint256"
        },
        {
          "name": "numerator",
          "type": "uint256"
        },
        {
          "name": "denominator",
          "type": "uint256"
        }
      ],
      "name": "MathGetPartialRoundUp",
      "outputs": [
        {
          "name": "",
          "type": "uint256"
        }
      ],
      "payable": false,
      "stateMutability": "pure",
      "type": "function"
    },
    {
      "constant": true,
      "inputs": [
        {
          "name": "x",
          "type": "uint256"
        }
      ],
      "name": "MathTo128",
      "outputs": [
        {
          "name": "",
          "type": "uint128"
        }
      ],
      "payable": false,
      "stateMutability": "pure",
      "type": "function"
    },
    {
      "constant": true,
      "inputs": [
        {
          "name": "x",
          "type": "uint256"
        }
      ],
      "name": "MathTo96",
      "outputs": [
        {
          "name": "",
          "type": "uint96"
        }
      ],
      "payable": false,
      "stateMutability": "pure",
      "type": "function"
    },
    {
      "constant": true,
      "inputs": [
        {
          "name": "x",
          "type": "uint256"
        }
      ],
      "name": "MathTo32",
      "outputs": [
        {
          "name": "",
          "type": "uint32"
        }
      ],
      "payable": false,
      "stateMutability": "pure",
      "type": "function"
    },
    {
      "constant": true,
      "inputs": [
        {
          "name": "reason",
          "type": "bytes32"
        }
      ],
      "name": "RequireThat0",
      "outputs": [],
      "payable": false,
      "stateMutability": "pure",
      "type": "function"
    },
    {
      "constant": true,
      "inputs": [
        {
          "name": "reason",
          "type": "bytes32"
        },
        {
          "name": "payloadA",
          "type": "uint256"
        }
      ],
      "name": "RequireThat1",
      "outputs": [],
      "payable": false,
      "stateMutability": "pure",
      "type": "function"
    },
    {
      "constant": true,
      "inputs": [
        {
          "name": "reason",
          "type": "bytes32"
        },
        {
          "name": "payloadA",
          "type": "uint256"
        },
        {
          "name": "payloadB",
          "type": "uint256"
        }
      ],
      "name": "RequireThat2",
      "outputs": [],
      "payable": false,
      "stateMutability": "pure",
      "type": "function"
    },
    {
      "constant": true,
      "inputs": [
        {
          "name": "reason",
          "type": "bytes32"
        },
        {
          "name": "payloadA",
          "type": "address"
        }
      ],
      "name": "RequireThatA0",
      "outputs": [],
      "payable": false,
      "stateMutability": "pure",
      "type": "function"
    },
    {
      "constant": true,
      "inputs": [
        {
          "name": "reason",
          "type": "bytes32"
        },
        {
          "name": "payloadA",
          "type": "address"
        },
        {
          "name": "payloadB",
          "type": "uint256"
        }
      ],
      "name": "RequireThatA1",
      "outputs": [],
      "payable": false,
      "stateMutability": "pure",
      "type": "function"
    },
    {
      "constant": true,
      "inputs": [
        {
          "name": "reason",
          "type": "bytes32"
        },
        {
          "name": "payloadA",
          "type": "address"
        },
        {
          "name": "payloadB",
          "type": "uint256"
        },
        {
          "name": "payloadC",
          "type": "uint256"
        }
      ],
      "name": "RequireThatA2",
      "outputs": [],
      "payable": false,
      "stateMutability": "pure",
      "type": "function"
    },
    {
      "constant": true,
      "inputs": [
        {
          "name": "reason",
          "type": "bytes32"
        },
        {
          "name": "payloadA",
          "type": "bytes32"
        }
      ],
      "name": "RequireThatB0",
      "outputs": [],
      "payable": false,
      "stateMutability": "pure",
      "type": "function"
    },
    {
      "constant": true,
      "inputs": [
        {
          "name": "reason",
          "type": "bytes32"
        },
        {
          "name": "payloadA",
          "type": "bytes32"
        },
        {
          "name": "payloadB",
          "type": "uint256"
        },
        {
          "name": "payloadC",
          "type": "uint256"
        }
      ],
      "name": "RequireThatB2",
      "outputs": [],
      "payable": false,
      "stateMutability": "pure",
      "type": "function"
    },
    {
      "constant": true,
      "inputs": [],
      "name": "TimeCurrentTime",
      "outputs": [
        {
          "name": "",
          "type": "uint32"
        }
      ],
      "payable": false,
      "stateMutability": "view",
      "type": "function"
    },
    {
      "constant": true,
      "inputs": [
        {
          "name": "token",
          "type": "address"
        },
        {
          "name": "owner",
          "type": "address"
        }
      ],
      "name": "TokenBalanceOf",
      "outputs": [
        {
          "name": "",
          "type": "uint256"
        }
      ],
      "payable": false,
      "stateMutability": "view",
      "type": "function"
    },
    {
      "constant": true,
      "inputs": [
        {
          "name": "token",
          "type": "address"
        },
        {
          "name": "owner",
          "type": "address"
        },
        {
          "name": "spender",
          "type": "address"
        }
      ],
      "name": "TokenAllowance",
      "outputs": [
        {
          "name": "",
          "type": "uint256"
        }
      ],
      "payable": false,
      "stateMutability": "view",
      "type": "function"
    },
    {
      "constant": false,
      "inputs": [
        {
          "name": "token",
          "type": "address"
        },
        {
          "name": "spender",
          "type": "address"
        },
        {
          "name": "amount",
          "type": "uint256"
        }
      ],
      "name": "TokenApprove",
      "outputs": [],
      "payable": false,
      "stateMutability": "nonpayable",
      "type": "function"
    },
    {
      "constant": false,
      "inputs": [
        {
          "name": "token",
          "type": "address"
        },
        {
          "name": "spender",
          "type": "address"
        }
      ],
      "name": "TokenApproveMax",
      "outputs": [],
      "payable": false,
      "stateMutability": "nonpayable",
      "type": "function"
    },
    {
      "constant": false,
      "inputs": [
        {
          "name": "token",
          "type": "address"
        },
        {
          "name": "to",
          "type": "address"
        },
        {
          "name": "amount",
          "type": "uint256"
        }
      ],
      "name": "TokenTransfer",
      "outputs": [],
      "payable": false,
      "stateMutability": "nonpayable",
      "type": "function"
    },
    {
      "constant": false,
      "inputs": [
        {
          "name": "token",
          "type": "address"
        },
        {
          "name": "from",
          "type": "address"
        },
        {
          "name": "to",
          "type": "address"
        },
        {
          "name": "amount",
          "type": "uint256"
        }
      ],
      "name": "TokenTransferFrom",
      "outputs": [],
      "payable": false,
      "stateMutability": "nonpayable",
      "type": "function"
    },
    {
      "constant": true,
      "inputs": [],
      "name": "TypesZeroPar",
      "outputs": [
        {
          "components": [
            {
              "name": "sign",
              "type": "bool"
            },
            {
              "name": "value",
              "type": "uint128"
            }
          ],
          "name": "",
          "type": "tuple"
        }
      ],
      "payable": false,
      "stateMutability": "pure",
      "type": "function"
    },
    {
      "constant": true,
      "inputs": [
        {
          "components": [
            {
              "name": "sign",
              "type": "bool"
            },
            {
              "name": "value",
              "type": "uint128"
            }
          ],
          "name": "a",
          "type": "tuple"
        },
        {
          "components": [
            {
              "name": "sign",
              "type": "bool"
            },
            {
              "name": "value",
              "type": "uint128"
            }
          ],
          "name": "b",
          "type": "tuple"
        }
      ],
      "name": "TypesParSub",
      "outputs": [
        {
          "components": [
            {
              "name": "sign",
              "type": "bool"
            },
            {
              "name": "value",
              "type": "uint128"
            }
          ],
          "name": "",
          "type": "tuple"
        }
      ],
      "payable": false,
      "stateMutability": "pure",
      "type": "function"
    },
    {
      "constant": true,
      "inputs": [
        {
          "components": [
            {
              "name": "sign",
              "type": "bool"
            },
            {
              "name": "value",
              "type": "uint128"
            }
          ],
          "name": "a",
          "type": "tuple"
        },
        {
          "components": [
            {
              "name": "sign",
              "type": "bool"
            },
            {
              "name": "value",
              "type": "uint128"
            }
          ],
          "name": "b",
          "type": "tuple"
        }
      ],
      "name": "TypesParAdd",
      "outputs": [
        {
          "components": [
            {
              "name": "sign",
              "type": "bool"
            },
            {
              "name": "value",
              "type": "uint128"
            }
          ],
          "name": "",
          "type": "tuple"
        }
      ],
      "payable": false,
      "stateMutability": "pure",
      "type": "function"
    },
    {
      "constant": true,
      "inputs": [
        {
          "components": [
            {
              "name": "sign",
              "type": "bool"
            },
            {
              "name": "value",
              "type": "uint128"
            }
          ],
          "name": "a",
          "type": "tuple"
        },
        {
          "components": [
            {
              "name": "sign",
              "type": "bool"
            },
            {
              "name": "value",
              "type": "uint128"
            }
          ],
          "name": "b",
          "type": "tuple"
        }
      ],
      "name": "TypesParEquals",
      "outputs": [
        {
          "name": "",
          "type": "bool"
        }
      ],
      "payable": false,
      "stateMutability": "pure",
      "type": "function"
    },
    {
      "constant": true,
      "inputs": [
        {
          "components": [
            {
              "name": "sign",
              "type": "bool"
            },
            {
              "name": "value",
              "type": "uint128"
            }
          ],
          "name": "a",
          "type": "tuple"
        }
      ],
      "name": "TypesParNegative",
      "outputs": [
        {
          "components": [
            {
              "name": "sign",
              "type": "bool"
            },
            {
              "name": "value",
              "type": "uint128"
            }
          ],
          "name": "",
          "type": "tuple"
        }
      ],
      "payable": false,
      "stateMutability": "pure",
      "type": "function"
    },
    {
      "constant": true,
      "inputs": [
        {
          "components": [
            {
              "name": "sign",
              "type": "bool"
            },
            {
              "name": "value",
              "type": "uint128"
            }
          ],
          "name": "a",
          "type": "tuple"
        }
      ],
      "name": "TypesParIsNegative",
      "outputs": [
        {
          "name": "",
          "type": "bool"
        }
      ],
      "payable": false,
      "stateMutability": "pure",
      "type": "function"
    },
    {
      "constant": true,
      "inputs": [
        {
          "components": [
            {
              "name": "sign",
              "type": "bool"
            },
            {
              "name": "value",
              "type": "uint128"
            }
          ],
          "name": "a",
          "type": "tuple"
        }
      ],
      "name": "TypesParIsPositive",
      "outputs": [
        {
          "name": "",
          "type": "bool"
        }
      ],
      "payable": false,
      "stateMutability": "pure",
      "type": "function"
    },
    {
      "constant": true,
      "inputs": [
        {
          "components": [
            {
              "name": "sign",
              "type": "bool"
            },
            {
              "name": "value",
              "type": "uint128"
            }
          ],
          "name": "a",
          "type": "tuple"
        }
      ],
      "name": "TypesParIsZero",
      "outputs": [
        {
          "name": "",
          "type": "bool"
        }
      ],
      "payable": false,
      "stateMutability": "pure",
      "type": "function"
    },
    {
      "constant": true,
      "inputs": [],
      "name": "TypesZeroWei",
      "outputs": [
        {
          "components": [
            {
              "name": "sign",
              "type": "bool"
            },
            {
              "name": "value",
              "type": "uint256"
            }
          ],
          "name": "",
          "type": "tuple"
        }
      ],
      "payable": false,
      "stateMutability": "pure",
      "type": "function"
    },
    {
      "constant": true,
      "inputs": [
        {
          "components": [
            {
              "name": "sign",
              "type": "bool"
            },
            {
              "name": "value",
              "type": "uint256"
            }
          ],
          "name": "a",
          "type": "tuple"
        },
        {
          "components": [
            {
              "name": "sign",
              "type": "bool"
            },
            {
              "name": "value",
              "type": "uint256"
            }
          ],
          "name": "b",
          "type": "tuple"
        }
      ],
      "name": "TypesWeiSub",
      "outputs": [
        {
          "components": [
            {
              "name": "sign",
              "type": "bool"
            },
            {
              "name": "value",
              "type": "uint256"
            }
          ],
          "name": "",
          "type": "tuple"
        }
      ],
      "payable": false,
      "stateMutability": "pure",
      "type": "function"
    },
    {
      "constant": true,
      "inputs": [
        {
          "components": [
            {
              "name": "sign",
              "type": "bool"
            },
            {
              "name": "value",
              "type": "uint256"
            }
          ],
          "name": "a",
          "type": "tuple"
        },
        {
          "components": [
            {
              "name": "sign",
              "type": "bool"
            },
            {
              "name": "value",
              "type": "uint256"
            }
          ],
          "name": "b",
          "type": "tuple"
        }
      ],
      "name": "TypesWeiAdd",
      "outputs": [
        {
          "components": [
            {
              "name": "sign",
              "type": "bool"
            },
            {
              "name": "value",
              "type": "uint256"
            }
          ],
          "name": "",
          "type": "tuple"
        }
      ],
      "payable": false,
      "stateMutability": "pure",
      "type": "function"
    },
    {
      "constant": true,
      "inputs": [
        {
          "components": [
            {
              "name": "sign",
              "type": "bool"
            },
            {
              "name": "value",
              "type": "uint256"
            }
          ],
          "name": "a",
          "type": "tuple"
        },
        {
          "components": [
            {
              "name": "sign",
              "type": "bool"
            },
            {
              "name": "value",
              "type": "uint256"
            }
          ],
          "name": "b",
          "type": "tuple"
        }
      ],
      "name": "TypesWeiEquals",
      "outputs": [
        {
          "name": "",
          "type": "bool"
        }
      ],
      "payable": false,
      "stateMutability": "pure",
      "type": "function"
    },
    {
      "constant": true,
      "inputs": [
        {
          "components": [
            {
              "name": "sign",
              "type": "bool"
            },
            {
              "name": "value",
              "type": "uint256"
            }
          ],
          "name": "a",
          "type": "tuple"
        }
      ],
      "name": "TypesWeiNegative",
      "outputs": [
        {
          "components": [
            {
              "name": "sign",
              "type": "bool"
            },
            {
              "name": "value",
              "type": "uint256"
            }
          ],
          "name": "",
          "type": "tuple"
        }
      ],
      "payable": false,
      "stateMutability": "pure",
      "type": "function"
    },
    {
      "constant": true,
      "inputs": [
        {
          "components": [
            {
              "name": "sign",
              "type": "bool"
            },
            {
              "name": "value",
              "type": "uint256"
            }
          ],
          "name": "a",
          "type": "tuple"
        }
      ],
      "name": "TypesWeiIsNegative",
      "outputs": [
        {
          "name": "",
          "type": "bool"
        }
      ],
      "payable": false,
      "stateMutability": "pure",
      "type": "function"
    },
    {
      "constant": true,
      "inputs": [
        {
          "components": [
            {
              "name": "sign",
              "type": "bool"
            },
            {
              "name": "value",
              "type": "uint256"
            }
          ],
          "name": "a",
          "type": "tuple"
        }
      ],
      "name": "TypesWeiIsPositive",
      "outputs": [
        {
          "name": "",
          "type": "bool"
        }
      ],
      "payable": false,
      "stateMutability": "pure",
      "type": "function"
    },
    {
      "constant": true,
      "inputs": [
        {
          "components": [
            {
              "name": "sign",
              "type": "bool"
            },
            {
              "name": "value",
              "type": "uint256"
            }
          ],
          "name": "a",
          "type": "tuple"
        }
      ],
      "name": "TypesWeiIsZero",
      "outputs": [
        {
          "name": "",
          "type": "bool"
        }
      ],
      "payable": false,
      "stateMutability": "pure",
      "type": "function"
    }
  ],
  "bytecode": "0x608060405234801561001057600080fd5b50612a12806100206000396000f3fe608060405234801561001057600080fd5b5060043610610294576000357c01000000000000000000000000000000000000000000000000000000009004806379cfb7d01161017d578063b474633a116100f5578063d42adff4116100a9578063e50cc2051161008e578063e50cc2051461057c578063f60fdc701461058f578063fcdac08c146105a257610294565b8063d42adff414610556578063dde0973d1461056957610294565b8063c1e3cf09116100da578063c1e3cf0914610510578063c276f01314610523578063d0ed88a31461054357610294565b8063b474633a146104ea578063bc0e3880146104fd57610294565b806399ad7dc01161014c578063a03ff1bd11610131578063a03ff1bd146104b1578063a0ea658d146104c4578063ae793bee146104d757610294565b806399ad7dc01461048b5780639cc674201461049e57610294565b806379cfb7d0146104325780637f3a62621461044557806382678d451461045857806383b726ca1461047857610294565b80634384a0d2116102105780635853940f116101df5780635f7d744c116101c45780635f7d744c146103ec578063635a214e146103ff5780636f4667061461041f57610294565b80635853940f146103b95780635e2ff75f146103d957610294565b80634384a0d21461036b57806348598965146103805780634f016c95146103935780635604cbb2146103a657610294565b806324b02fce116102675780632a4e98081161024c5780632a4e9808146103185780632f2617cc1461032b57806342d3116e1461034b57610294565b806324b02fce146102f2578063299c8a471461030557610294565b8063058b2b14146102995780630a861b47146102ae57806320611e3f146102c1578063223dce9f146102d4575b600080fd5b6102ac6102a73660046123ac565b6105aa565b005b6102ac6102bc36600461211e565b6105dd565b6102ac6102cf3660046121a5565b6105eb565b6102dc6105fd565b6040516102e99190612851565b60405180910390f35b6102dc6103003660046123fc565b610612565b6102ac610313366004612206565b61062d565b6102ac610326366004612323565b610638565b61033e61033936600461211e565b610667565b6040516102e9919061287b565b61035e610359366004612356565b610673565b6040516102e99190612791565b6103736105fd565b6040516102e9919061285f565b61037361038e36600461244a565b6106bf565b6102ac6103a13660046122f3565b6106d1565b6102ac6103b436600461228e565b6106fe565b6103cc6103c736600461242c565b61072c565b6040516102e991906127fd565b6103cc6103e736600461242c565b61073f565b6102ac6103fa3660046122f3565b61074a565b61041261040d366004612249565b610777565b6040516102e99190612889565b6102ac61042d3660046122af565b610782565b61033e6104403660046123ac565b6107b1565b61033e6104533660046123ac565b6107be565b61046b610466366004612249565b6107cb565b6040516102e99190612897565b6103cc6104863660046123de565b6107d6565b6103cc6104993660046123de565b6107e1565b6103cc6104ac36600461244a565b6107ec565b6102dc6104bf3660046123de565b6107f8565b6102ac6104d236600461226f565b610809565b6102dc6104e53660046123fc565b610836565b6102ac6104f8366004612249565b610848565b61037361050b36600461242c565b610877565b61033e61051e366004612158565b610888565b610536610531366004612249565b610895565b6040516102e9919061286d565b6102ac610551366004612206565b6108a0565b61037361056436600461244a565b6108ab565b6103cc6105773660046123de565b6108bd565b6103cc61058a36600461242c565b6108c8565b6103cc61059d3660046123fc565b6108d3565b6104126108df565b6105d860007f546573744c6962000000000000000000000000000000000000000000000000008585856108e9565b505050565b6105e78282610a1b565b5050565b6105f784848484610a46565b50505050565b610605612000565b61060d610b62565b905090565b61061a612000565b6106248383610b82565b90505b92915050565b6105d8838383610b9c565b6105f760007f546573744c69620000000000000000000000000000000000000000000000000086868686610c74565b60006106248383610d6c565b60006106b58484848080601f016020809104026020016040519081016040528093929190818152602001838380828437600092019190915250610e1192505050565b90505b9392505050565b6106c7612000565b6106248383611061565b6105e760007f546573744c69620000000000000000000000000000000000000000000000000084846110f3565b6105d860007f546573744c69620000000000000000000000000000000000000000000000000085858561118b565b6000610737826111ed565b90505b919050565b600061073782611204565b6105e760007f546573744c696200000000000000000000000000000000000000000000000000848461120c565b60006107378261126e565b6105f760007f546573744c696200000000000000000000000000000000000000000000000000868686866112c4565b60006106b5848484611326565b60006106b5848484611348565b6000610737826113a1565b6000610737826113ff565b600061073782611419565b60006106248383611441565b610800612000565b6107378261147d565b6105e760007f546573744c69620000000000000000000000000000000000000000000000000084846114b6565b61083e612000565b6106248383611518565b61087460007f546573744c69620000000000000000000000000000000000000000000000000083611642565b50565b61087f612000565b6107378261168c565b60006106b58484846116b3565b60006107378261175a565b6105d88383836117bc565b6108b3612000565b61062483836118c0565b6000610737826118da565b600061073782611903565b60006106248383611919565b600061060d611972565b84610a14576108f78461197d565b7f3a200000000000000000000000000000000000000000000000000000000000006109218561197d565b7f203c00000000000000000000000000000000000000000000000000000000000061094b86611a7c565b7f2c2000000000000000000000000000000000000000000000000000000000000061097587611a7c565b6040516109ad97969594939291907f3e0000000000000000000000000000000000000000000000000000000000000090602001612659565b604080517fffffffffffffffffffffffffffffffffffffffffffffffffffffffffffffffe0818403018152908290527f08c379a0000000000000000000000000000000000000000000000000000000008252610a0b91600401612840565b60405180910390fd5b5050505050565b6105e782827fffffffffffffffffffffffffffffffffffffffffffffffffffffffffffffffff610b9c565b801580610a7e57508273ffffffffffffffffffffffffffffffffffffffff168273ffffffffffffffffffffffffffffffffffffffff16145b15610a88576105f7565b6040517f23b872dd00000000000000000000000000000000000000000000000000000000815273ffffffffffffffffffffffffffffffffffffffff8516906323b872dd90610ade908690869086906004016127ba565b600060405180830381600087803b158015610af857600080fd5b505af1158015610b0c573d6000803e3d6000fd5b505050506105f7610b1b611baa565b7f546f6b656e0000000000000000000000000000000000000000000000000000007f5472616e7366657246726f6d206661696c656400000000000000000000000000611642565b610b6a612000565b50604080518082019091526000808252602082015290565b610b8a612000565b61062483610b978461147d565b611518565b6040517f095ea7b300000000000000000000000000000000000000000000000000000000815273ffffffffffffffffffffffffffffffffffffffff84169063095ea7b390610bf090859085906004016127e2565b600060405180830381600087803b158015610c0a57600080fd5b505af1158015610c1e573d6000803e3d6000fd5b505050506105d8610c2d611baa565b7f546f6b656e0000000000000000000000000000000000000000000000000000007f417070726f7665206661696c6564000000000000000000000000000000000000611642565b85610d6457610c828561197d565b7f3a20000000000000000000000000000000000000000000000000000000000000610cac8661197d565b7f203c000000000000000000000000000000000000000000000000000000000000610cd687611bde565b7f2c20000000000000000000000000000000000000000000000000000000000000610d0088611a7c565b7f2c20000000000000000000000000000000000000000000000000000000000000610d2a89611a7c565b6040516109ad999897969594939291907f3e00000000000000000000000000000000000000000000000000000000000000906020016126d5565b505050505050565b6040517f70a0823100000000000000000000000000000000000000000000000000000000815260009073ffffffffffffffffffffffffffffffffffffffff8416906370a0823190610dc1908590600401612791565b60206040518083038186803b158015610dd957600080fd5b505afa158015610ded573d6000803e3d6000fd5b505050506040513d601f19601f82011682018060405250610624919081019061247a565b6000610e6260428351147f54797065645369676e61747572650000000000000000000000000000000000007f496e76616c6964207369676e6174757265206c656e6774680000000000000000611642565b602082015160408301516060840151600081901a9060011a610ec8600382107f54797065645369676e61747572650000000000000000000000000000000000007f496e76616c6964207369676e6174757265207479706500000000000000000000611642565b60008160ff166003811115610ed957fe5b9050600080826003811115610eea57fe5b1415610ef7575087610fe6565b6001826003811115610f0557fe5b1415610f70576040518060400160405280601c81526020017f19457468657265756d205369676e6564204d6573736167653a0a33320000000081525089604051602001610f5392919061276f565b604051602081830303815290604052805190602001209050610fe6565b6002826003811115610f7e57fe5b14610f8557fe5b6040518060400160405280601b81526020017f19457468657265756d205369676e6564204d6573736167653a0a20000000000081525089604051602001610fcd92919061276f565b6040516020818303038152906040528051906020012090505b60018185888860405160008152602001604052604051611009949392919061280b565b6020604051602081039080840390855afa15801561102b573d6000803e3d6000fd5b50506040517fffffffffffffffffffffffffffffffffffffffffffffffffffffffffffffffe001519a9950505050505050505050565b611069612000565b611071612000565b82518451151590151514156110a4578351151581526020808501519084015161109a9190611d7d565b6020820152610624565b82602001518460200151106110cd578351151581526020808501519084015161109a9190611d8f565b825115158152602080840151908501516110e79190611d8f565b60208201529392505050565b836105f7576111018361197d565b7f3a2000000000000000000000000000000000000000000000000000000000000061112b8461197d565b7f203c00000000000000000000000000000000000000000000000000000000000061115585611a7c565b6040516109ad9594939291907f3e00000000000000000000000000000000000000000000000000000000000000906020016125fb565b84610a14576111998461197d565b7f3a200000000000000000000000000000000000000000000000000000000000006111c38561197d565b7f203c00000000000000000000000000000000000000000000000000000000000061094b86611da4565b805160009015801561073757505060200151151590565b602001511590565b836105f75761121a8361197d565b7f3a200000000000000000000000000000000000000000000000000000000000006112448461197d565b7f203c00000000000000000000000000000000000000000000000000000000000061115585611bde565b60008161073763ffffffff821682147f4d617468000000000000000000000000000000000000000000000000000000007f556e73616665206361737420746f2075696e7433320000000000000000000000611642565b85610d64576112d28561197d565b7f3a200000000000000000000000000000000000000000000000000000000000006112fc8661197d565b7f203c000000000000000000000000000000000000000000000000000000000000610cd687611da4565b60006106b58261133c868663ffffffff611f5716565b9063ffffffff611f7e16565b6000831580611355575082155b1561136c57611365600083611f7e565b90506106b8565b6106b560016113958461133c836113898a8a63ffffffff611f5716565b9063ffffffff611d8f16565b9063ffffffff611d7d16565b6000816107376bffffffffffffffffffffffff821682147f4d617468000000000000000000000000000000000000000000000000000000007f556e73616665206361737420746f2075696e7439360000000000000000000000611642565b602001516fffffffffffffffffffffffffffffffff161590565b80516000908015610737575050602001516fffffffffffffffffffffffffffffffff16151590565b600081602001518360200151141561147457602083015161146457506001610627565b5080518251151590151514610627565b50600092915050565b611485612000565b506040805180820190915281511581526020808301516fffffffffffffffffffffffffffffffff1690820152919050565b836105f7576114c48361197d565b7f3a200000000000000000000000000000000000000000000000000000000000006114ee8461197d565b7f203c00000000000000000000000000000000000000000000000000000000000061115585611da4565b611520612000565b611528612000565b825184511515901515141561158b578351151581526020808501519084015161156f9161156a916fffffffffffffffffffffffffffffffff9182169116611d7d565b61175a565b6fffffffffffffffffffffffffffffffff166020820152610624565b82602001516fffffffffffffffffffffffffffffffff1684602001516fffffffffffffffffffffffffffffffff16106115f1578351151581526020808501519084015161156f9161156a916fffffffffffffffffffffffffffffffff9182169116611d8f565b825115158152602080840151908501516116249161156a916fffffffffffffffffffffffffffffffff9182169116611d8f565b6fffffffffffffffffffffffffffffffff1660208201529392505050565b826105d8576116508261197d565b7f3a2000000000000000000000000000000000000000000000000000000000000061167a8361197d565b6040516020016109ad939291906125ca565b611694612000565b5060408051808201909152815115815260208083015190820152919050565b6040517fdd62ed3e00000000000000000000000000000000000000000000000000000000815260009073ffffffffffffffffffffffffffffffffffffffff85169063dd62ed3e9061170a908690869060040161279f565b60206040518083038186803b15801561172257600080fd5b505afa158015611736573d6000803e3d6000fd5b505050506040513d601f19601f820116820180604052506106b5919081019061247a565b6000816107376fffffffffffffffffffffffffffffffff821682147f4d617468000000000000000000000000000000000000000000000000000000007f556e73616665206361737420746f2075696e7431323800000000000000000000611642565b8015806117de575073ffffffffffffffffffffffffffffffffffffffff821630145b156117e8576105d8565b6040517fa9059cbb00000000000000000000000000000000000000000000000000000000815273ffffffffffffffffffffffffffffffffffffffff84169063a9059cbb9061183c90859085906004016127e2565b600060405180830381600087803b15801561185657600080fd5b505af115801561186a573d6000803e3d6000fd5b505050506105d8611879611baa565b7f546f6b656e0000000000000000000000000000000000000000000000000000007f5472616e73666572206661696c65640000000000000000000000000000000000611642565b6118c8612000565b610624836118d58461168c565b611061565b8051600090158015610737575050602001516fffffffffffffffffffffffffffffffff16151590565b8051600090801561073757505060200151151590565b600081602001516fffffffffffffffffffffffffffffffff1683602001516fffffffffffffffffffffffffffffffff1614156114745760208301516fffffffffffffffffffffffffffffffff1661146457506001610627565b600061060d4261126e565b6060808260405160200161199191906125b5565b604080517fffffffffffffffffffffffffffffffffffffffffffffffffffffffffffffffe0818403018152919052905060205b8015611a615781517fffffffffffffffffffffffffffffffffffffffffffffffffffffffffffffffff909101908290829081106119fd57fe5b6020910101517f010000000000000000000000000000000000000000000000000000000000000090819004027fff000000000000000000000000000000000000000000000000000000000000001615611a5c576001018152905061073a565b6119c4565b5060408051600080825260208201909252905b509392505050565b606081611abd575060408051808201909152600181527f3000000000000000000000000000000000000000000000000000000000000000602082015261073a565b8160005b8115611ad557600101600a82049150611ac1565b6060816040519080825280601f01601f191660200182016040528015611b02576020820181803883390190505b508593509050815b8015611ba1577fffffffffffffffffffffffffffffffffffffffffffffffffffffffffffffffff01600a84066030017f010000000000000000000000000000000000000000000000000000000000000002828281518110611b6757fe5b60200101907effffffffffffffffffffffffffffffffffffffffffffffffffffffffffffff1916908160001a905350600a84049350611b0a565b50949350505050565b6000803d8015611bc15760208114611bca57611bd6565b60019150611bd6565b60206000803e60005191505b501515905090565b604080516042808252608082019092526060918391839160208201818038833901905050905060307f01000000000000000000000000000000000000000000000000000000000000000281600081518110611c3557fe5b60200101907effffffffffffffffffffffffffffffffffffffffffffffffffffffffffffff1916908160001a90535060787f01000000000000000000000000000000000000000000000000000000000000000281600181518110611c9557fe5b60200101907effffffffffffffffffffffffffffffffffffffffffffffffffffffffffffff1916908160001a90535060005b6020811015611a745760028102611ce0600f8516611fa0565b838260410381518110611cef57fe5b60200101907effffffffffffffffffffffffffffffffffffffffffffffffffffffffffffff1916908160001a905350601090930492611d30600f8516611fa0565b838260400381518110611d3f57fe5b60200101907effffffffffffffffffffffffffffffffffffffffffffffffffffffffffffff1916908160001a90535050601090920491600101611cc7565b60008282018381101561062457600080fd5b600082821115611d9e57600080fd5b50900390565b60408051602a808252606082810190935273ffffffffffffffffffffffffffffffffffffffff841691839160208201818038833901905050905060307f01000000000000000000000000000000000000000000000000000000000000000281600081518110611e0f57fe5b60200101907effffffffffffffffffffffffffffffffffffffffffffffffffffffffffffff1916908160001a90535060787f01000000000000000000000000000000000000000000000000000000000000000281600181518110611e6f57fe5b60200101907effffffffffffffffffffffffffffffffffffffffffffffffffffffffffffff1916908160001a90535060005b6014811015611a745760028102611eba600f8516611fa0565b838260290381518110611ec957fe5b60200101907effffffffffffffffffffffffffffffffffffffffffffffffffffffffffffff1916908160001a905350601090930492611f0a600f8516611fa0565b838260280381518110611f1957fe5b60200101907effffffffffffffffffffffffffffffffffffffffffffffffffffffffffffff1916908160001a90535050601090920491600101611ea1565b600082611f6657506000610627565b82820282848281611f7357fe5b041461062457600080fd5b6000808211611f8c57600080fd5b6000828481611f9757fe5b04949350505050565b6000600a821015611fd757507f0100000000000000000000000000000000000000000000000000000000000000603082010261073a565b506057017f01000000000000000000000000000000000000000000000000000000000000000290565b604080518082019091526000808252602082015290565b600061062482356128d9565b600061062482356128e4565b60006106248235612933565b60008083601f84011261204d57600080fd5b50813567ffffffffffffffff81111561206557600080fd5b60208301915083600182028301111561207d57600080fd5b9250929050565b60006040828403121561209657600080fd5b6120a060406128a5565b905060006120ae8484612023565b82525060206120bf84848301612106565b60208301525092915050565b6000604082840312156120dd57600080fd5b6120e760406128a5565b905060006120f58484612023565b82525060206120bf8484830161202f565b60006106248235612936565b60006106248251612933565b6000806040838503121561213157600080fd5b600061213d8585612017565b925050602061214e85828601612017565b9150509250929050565b60008060006060848603121561216d57600080fd5b60006121798686612017565b935050602061218a86828701612017565b925050604061219b86828701612017565b9150509250925092565b600080600080608085870312156121bb57600080fd5b60006121c78787612017565b94505060206121d887828801612017565b93505060406121e987828801612017565b92505060606121fa8782880161202f565b91505092959194509250565b60008060006060848603121561221b57600080fd5b60006122278686612017565b935050602061223886828701612017565b925050604061219b8682870161202f565b60006020828403121561225b57600080fd5b6000612267848461202f565b949350505050565b6000806040838503121561228257600080fd5b600061213d858561202f565b6000806000606084860312156122a357600080fd5b6000612227868661202f565b600080600080608085870312156122c557600080fd5b60006122d1878761202f565b94505060206122e287828801612017565b93505060406121e98782880161202f565b6000806040838503121561230657600080fd5b6000612312858561202f565b925050602061214e8582860161202f565b6000806000806080858703121561233957600080fd5b6000612345878761202f565b94505060206122e28782880161202f565b60008060006040848603121561236b57600080fd5b6000612377868661202f565b935050602084013567ffffffffffffffff81111561239457600080fd5b6123a08682870161203b565b92509250509250925092565b6000806000606084860312156123c157600080fd5b60006123cd868661202f565b93505060206122388682870161202f565b6000604082840312156123f057600080fd5b60006122678484612084565b6000806080838503121561240f57600080fd5b600061241b8585612084565b925050604061214e85828601612084565b60006040828403121561243e57600080fd5b600061226784846120cb565b6000806080838503121561245d57600080fd5b600061246985856120cb565b925050604061214e858286016120cb565b60006020828403121561248c57600080fd5b60006122678484612112565b6124a1816128d9565b82525050565b6124a1816128e4565b6124a16124bc826128e9565b612933565b6124a16124bc8261290e565b6124a181612933565b6124a16124bc82612933565b60006124ed826128cc565b6124f7818561073a565b9350612507818560208601612984565b9290920192915050565b600061251c826128cc565b61252681856128d0565b9350612536818560208601612984565b61253f816129b0565b9093019392505050565b8051604083019061255a84826124a7565b5060208201516105f76020850182612591565b8051604083019061257e84826124a7565b5060208201516105f760208501826124cd565b6124a181612936565b6124a181612964565b6124a18161296d565b6124a181612973565b60006125c182846124d6565b50602001919050565b60006125d682866124e2565b91506125e282856124c1565b6002820191506125f282846124e2565b95945050505050565b600061260782896124e2565b915061261382886124c1565b60028201915061262382876124e2565b915061262f82866124c1565b60028201915061263f82856124e2565b915061264b82846124b0565b506001019695505050505050565b6000612665828b6124e2565b9150612671828a6124c1565b60028201915061268182896124e2565b915061268d82886124c1565b60028201915061269d82876124e2565b91506126a982866124c1565b6002820191506126b982856124e2565b91506126c582846124b0565b5060010198975050505050505050565b60006126e1828d6124e2565b91506126ed828c6124c1565b6002820191506126fd828b6124e2565b9150612709828a6124c1565b60028201915061271982896124e2565b915061272582886124c1565b60028201915061273582876124e2565b915061274182866124c1565b60028201915061275182856124e2565b915061275d82846124b0565b506001019a9950505050505050505050565b600061277b82856124e2565b915061278782846124d6565b5060200192915050565b602081016106278284612498565b604081016127ad8285612498565b6106b86020830184612498565b606081016127c88286612498565b6127d56020830185612498565b61226760408301846124cd565b604081016127f08285612498565b6106b860208301846124cd565b6020810161062782846124a7565b6080810161281982876124cd565b61282660208301866125a3565b61283360408301856124cd565b6125f260608301846124cd565b602080825281016106248184612511565b604081016106278284612549565b60408101610627828461256d565b602081016106278284612591565b6020810161062782846124cd565b60208101610627828461259a565b6020810161062782846125ac565b60405181810167ffffffffffffffff811182821017156128c457600080fd5b604052919050565b5190565b90815260200190565b60006107378261294b565b151590565b7fff000000000000000000000000000000000000000000000000000000000000001690565b7fffff0000000000000000000000000000000000000000000000000000000000001690565b90565b6fffffffffffffffffffffffffffffffff1690565b73ffffffffffffffffffffffffffffffffffffffff1690565b63ffffffff1690565b60ff1690565b6bffffffffffffffffffffffff1690565b60005b8381101561299f578181015183820152602001612987565b838111156105f75750506000910152565b601f017fffffffffffffffffffffffffffffffffffffffffffffffffffffffffffffffe0169056fea265627a7a72305820aa5fa26ec7f54783df2b394cd8eec8c33191340240c66857f30e90147b51bece6c6578706572696d656e74616cf50037",
  "source": "/*\n\n    Copyright 2019 dYdX Trading Inc.\n\n    Licensed under the Apache License, Version 2.0 (the \"License\");\n    you may not use this file except in compliance with the License.\n    You may obtain a copy of the License at\n\n    http://www.apache.org/licenses/LICENSE-2.0\n\n    Unless required by applicable law or agreed to in writing, software\n    distributed under the License is distributed on an \"AS IS\" BASIS,\n    WITHOUT WARRANTIES OR CONDITIONS OF ANY KIND, either express or implied.\n    See the License for the specific language governing permissions and\n    limitations under the License.\n\n*/\n\npragma solidity 0.5.7;\npragma experimental ABIEncoderV2;\n\nimport { TypedSignature } from \"../external/lib/TypedSignature.sol\";\nimport { Math } from \"../protocol/lib/Math.sol\";\nimport { Require } from \"../protocol/lib/Require.sol\";\nimport { Time } from \"../protocol/lib/Time.sol\";\nimport { Token } from \"../protocol/lib/Token.sol\";\nimport { Types } from \"../protocol/lib/Types.sol\";\n\n\n/**\n * @title TestLib\n * @author dYdX\n *\n * Contract for testing pure library functions\n */\ncontract TestLib {\n\n    // ============ Constants ============\n\n    bytes32 constant FILE = \"TestLib\";\n\n    // ============ TypedSignature Functions ============\n\n    function TypedSignatureRecover(\n        bytes32 hash,\n        bytes calldata signatureWithType\n    )\n        external\n        pure\n        returns (address)\n    {\n        return TypedSignature.recover(hash, signatureWithType);\n    }\n\n    // ============ Math Functions ============\n\n    function MathGetPartial(\n        uint256 target,\n        uint256 numerator,\n        uint256 denominator\n    )\n        external\n        pure\n        returns (uint256)\n    {\n        return Math.getPartial(target, numerator, denominator);\n    }\n\n    function MathGetPartialRoundUp(\n        uint256 target,\n        uint256 numerator,\n        uint256 denominator\n    )\n        external\n        pure\n        returns (uint256)\n    {\n        return Math.getPartialRoundUp(target, numerator, denominator);\n    }\n\n    function MathTo128(\n        uint256 x\n    )\n        external\n        pure\n        returns (uint128)\n    {\n        return Math.to128(x);\n    }\n\n    function MathTo96(\n        uint256 x\n    )\n        external\n        pure\n        returns (uint96)\n    {\n        return Math.to96(x);\n    }\n\n    function MathTo32(\n        uint256 x\n    )\n        external\n        pure\n        returns (uint32)\n    {\n        return Math.to32(x);\n    }\n\n    // ============ Require Functions ============\n\n    function RequireThat0(\n        bytes32 reason\n    )\n        external\n        pure\n    {\n        Require.that(\n            false,\n            FILE,\n            reason\n        );\n    }\n\n    function RequireThat1(\n        bytes32 reason,\n        uint256 payloadA\n    )\n        external\n        pure\n    {\n        Require.that(\n            false,\n            FILE,\n            reason,\n            payloadA\n        );\n    }\n\n    function RequireThat2(\n        bytes32 reason,\n        uint256 payloadA,\n        uint256 payloadB\n    )\n        external\n        pure\n    {\n        Require.that(\n            false,\n            FILE,\n            reason,\n            payloadA,\n            payloadB\n        );\n    }\n\n    function RequireThatA0(\n        bytes32 reason,\n        address payloadA\n    )\n        external\n        pure\n    {\n        Require.that(\n            false,\n            FILE,\n            reason,\n            payloadA\n        );\n    }\n\n    function RequireThatA1(\n        bytes32 reason,\n        address payloadA,\n        uint256 payloadB\n    )\n        external\n        pure\n    {\n        Require.that(\n            false,\n            FILE,\n            reason,\n            payloadA,\n            payloadB\n        );\n    }\n\n    function RequireThatA2(\n        bytes32 reason,\n        address payloadA,\n        uint256 payloadB,\n        uint256 payloadC\n    )\n        external\n        pure\n    {\n        Require.that(\n            false,\n            FILE,\n            reason,\n            payloadA,\n            payloadB,\n            payloadC\n        );\n    }\n\n    function RequireThatB0(\n        bytes32 reason,\n        bytes32 payloadA\n    )\n        external\n        pure\n    {\n        Require.that(\n            false,\n            FILE,\n            reason,\n            payloadA\n        );\n    }\n\n    function RequireThatB2(\n        bytes32 reason,\n        bytes32 payloadA,\n        uint256 payloadB,\n        uint256 payloadC\n    )\n        external\n        pure\n    {\n        Require.that(\n            false,\n            FILE,\n            reason,\n            payloadA,\n            payloadB,\n            payloadC\n        );\n    }\n\n    // ============ Time Functions ============\n\n    function TimeCurrentTime()\n        external\n        view\n        returns (uint32)\n    {\n        return Time.currentTime();\n    }\n\n    // ============ Token Functions ============\n\n    function TokenBalanceOf(\n        address token,\n        address owner\n    )\n        external\n        view\n        returns (uint256)\n    {\n        return Token.balanceOf(token, owner);\n    }\n\n    function TokenAllowance(\n        address token,\n        address owner,\n        address spender\n    )\n        external\n        view\n        returns (uint256)\n    {\n        return Token.allowance(token, owner, spender);\n    }\n\n    function TokenApprove(\n        address token,\n        address spender,\n        uint256 amount\n    )\n        external\n    {\n        Token.approve(token, spender, amount);\n    }\n\n    function TokenApproveMax(\n        address token,\n        address spender\n    )\n        external\n    {\n        Token.approveMax(token, spender);\n    }\n\n    function TokenTransfer(\n        address token,\n        address to,\n        uint256 amount\n    )\n        external\n    {\n        Token.transfer(token, to, amount);\n    }\n\n    function TokenTransferFrom(\n        address token,\n        address from,\n        address to,\n        uint256 amount\n    )\n        external\n    {\n        Token.transferFrom(\n            token,\n            from,\n            to,\n            amount\n        );\n    }\n\n    // ============ Types Functions ============\n\n    function TypesZeroPar()\n        external\n        pure\n        returns (Types.Par memory)\n    {\n        return Types.zeroPar();\n    }\n\n    function TypesParSub(\n        Types.Par memory a,\n        Types.Par memory b\n    )\n        public\n        pure\n        returns (Types.Par memory)\n    {\n        return Types.sub(a, b);\n    }\n\n    function TypesParAdd(\n        Types.Par memory a,\n        Types.Par memory b\n    )\n        public\n        pure\n        returns (Types.Par memory)\n    {\n        return Types.add(a, b);\n    }\n\n    function TypesParEquals(\n        Types.Par memory a,\n        Types.Par memory b\n    )\n        public\n        pure\n        returns (bool)\n    {\n        return Types.equals(a, b);\n    }\n\n    function TypesParNegative(\n        Types.Par memory a\n    )\n        public\n        pure\n        returns (Types.Par memory)\n    {\n        return Types.negative(a);\n    }\n\n    function TypesParIsNegative(\n        Types.Par memory a\n    )\n        public\n        pure\n        returns (bool)\n    {\n        return Types.isNegative(a);\n    }\n\n    function TypesParIsPositive(\n        Types.Par memory a\n    )\n        public\n        pure\n        returns (bool)\n    {\n        return Types.isPositive(a);\n    }\n\n    function TypesParIsZero(\n        Types.Par memory a\n    )\n        public\n        pure\n        returns (bool)\n    {\n        return Types.isZero(a);\n    }\n\n    function TypesZeroWei()\n        external\n        pure\n        returns (Types.Wei memory)\n    {\n        return Types.zeroWei();\n    }\n\n    function TypesWeiSub(\n        Types.Wei memory a,\n        Types.Wei memory b\n    )\n        public\n        pure\n        returns (Types.Wei memory)\n    {\n        return Types.sub(a, b);\n    }\n\n    function TypesWeiAdd(\n        Types.Wei memory a,\n        Types.Wei memory b\n    )\n        public\n        pure\n        returns (Types.Wei memory)\n    {\n        return Types.add(a, b);\n    }\n\n    function TypesWeiEquals(\n        Types.Wei memory a,\n        Types.Wei memory b\n    )\n        public\n        pure\n        returns (bool)\n    {\n        return Types.equals(a, b);\n    }\n\n    function TypesWeiNegative(\n        Types.Wei memory a\n    )\n        public\n        pure\n        returns (Types.Wei memory)\n    {\n        return Types.negative(a);\n    }\n\n    function TypesWeiIsNegative(\n        Types.Wei memory a\n    )\n        public\n        pure\n        returns (bool)\n    {\n        return Types.isNegative(a);\n    }\n\n    function TypesWeiIsPositive(\n        Types.Wei memory a\n    )\n        public\n        pure\n        returns (bool)\n    {\n        return Types.isPositive(a);\n    }\n\n    function TypesWeiIsZero(\n        Types.Wei memory a\n    )\n        public\n        pure\n        returns (bool)\n    {\n        return Types.isZero(a);\n    }\n}\n",
  "sourcePath": "/home/terra/opensource/solo/contracts/testing/TestLib.sol",
  "compiler": {
    "name": "solc",
    "version": "0.5.7+commit.6da8b019.Linux.g++"
  },
  "schemaVersion": "3.4.7",
  "updatedAt": "2022-04-29T09:51:29.393Z",
  "devdoc": {
    "author": "dYdX * Contract for testing pure library functions",
    "methods": {},
    "title": "TestLib"
  },
  "userdoc": {
    "methods": {}
  }
}