{
  "contractName": "TestUniswapV2Pair",
  "abi": [
    {
      "constant": true,
      "inputs": [],
      "name": "RESERVE0",
      "outputs": [
        {
          "name": "",
          "type": "uint112"
        }
      ],
      "payable": false,
      "stateMutability": "view",
      "type": "function"
    },
    {
      "constant": true,
      "inputs": [],
      "name": "RESERVE1",
      "outputs": [
        {
          "name": "",
          "type": "uint112"
        }
      ],
      "payable": false,
      "stateMutability": "view",
      "type": "function"
    },
    {
      "constant": true,
      "inputs": [],
      "name": "getReserves",
      "outputs": [
        {
          "name": "reserve0",
          "type": "uint112"
        },
        {
          "name": "reserve1",
          "type": "uint112"
        },
        {
          "name": "blockTimestampLast",
          "type": "uint32"
        }
      ],
      "payable": false,
      "stateMutability": "view",
      "type": "function"
    },
    {
      "constant": false,
      "inputs": [
        {
          "name": "reserve0",
          "type": "uint112"
        },
        {
          "name": "reserve1",
          "type": "uint112"
        }
      ],
      "name": "setReserves",
      "outputs": [],
      "payable": false,
      "stateMutability": "nonpayable",
      "type": "function"
    }
  ],
  "bytecode": "0x6080604052600080547fffffffff0000000000000000000000000000000000000000000000000000000016905534801561003857600080fd5b506102a5806100486000396000f3fe608060405234801561001057600080fd5b5060043610610068577c010000000000000000000000000000000000000000000000000000000060003504630902f1ac811461006d5780631b7a38891461008d57806375ea5f2e146100a25780637ef44b96146100b7575b600080fd5b6100756100bf565b6040516100849392919061021f565b60405180910390f35b6100956100ee565b604051610084919061020b565b6100b56100b03660046101b9565b610104565b005b61009561017e565b600080546dffffffffffffffffffffffffffff808216926e010000000000000000000000000000909204169192565b6000546dffffffffffffffffffffffffffff1681565b600080546dffffffffffffffffffffffffffff9283166e010000000000000000000000000000027fffffffff0000000000000000000000000000ffffffffffffffffffffffffffff949093167fffffffffffffffffffffffffffffffffffff00000000000000000000000000009091161792909216179055565b6000546e01000000000000000000000000000090046dffffffffffffffffffffffffffff1681565b60006101b2823561024f565b9392505050565b600080604083850312156101cc57600080fd5b60006101d885856101a6565b92505060206101e9858286016101a6565b9150509250929050565b6101fc8161024f565b82525050565b6101fc81610262565b6020810161021982846101f3565b92915050565b6060810161022d82866101f3565b61023a60208301856101f3565b6102476040830184610202565b949350505050565b6dffffffffffffffffffffffffffff1690565b63ffffffff169056fea265627a7a72305820b4db6336daa183bc3cc232d68d6752a1762ef423c5ab3272ba45f34c775d3c236c6578706572696d656e74616cf50037",
  "source": "/*\n\n    Copyright 2020 dYdX Trading Inc.\n\n    Licensed under the Apache License, Version 2.0 (the \"License\");\n    you may not use this file except in compliance with the License.\n    You may obtain a copy of the License at\n\n    http://www.apache.org/licenses/LICENSE-2.0\n\n    Unless required by applicable law or agreed to in writing, software\n    distributed under the License is distributed on an \"AS IS\" BASIS,\n    WITHOUT WARRANTIES OR CONDITIONS OF ANY KIND, either express or implied.\n    See the License for the specific language governing permissions and\n    limitations under the License.\n\n*/\n\npragma solidity 0.5.7;\npragma experimental ABIEncoderV2;\n\nimport { IUniswapV2Pair } from \"../external/interfaces/IUniswapV2Pair.sol\";\n\n\n/**\n * @title TestUniswapV2Pair\n * @author dYdX\n *\n * Mock Uniswap V2 pair.\n */\ncontract TestUniswapV2Pair is\n    IUniswapV2Pair\n{\n    uint112 public RESERVE0 = 0;\n    uint112 public RESERVE1 = 0;\n\n    // ============ Getter Functions ============\n\n    function getReserves()\n        external\n        view\n        returns (uint112 reserve0, uint112 reserve1, uint32 blockTimestampLast)\n    {\n        return (RESERVE0, RESERVE1, 0);\n    }\n\n    // ============ Test Data Setter Functions ============\n\n    function setReserves(\n        uint112 reserve0,\n        uint112 reserve1\n    )\n        external\n    {\n        RESERVE0 = reserve0;\n        RESERVE1 = reserve1;\n    }\n}\n",
  "sourcePath": "/home/terra/opensource/solo/contracts/testing/TestUniswapV2Pair.sol",
  "compiler": {
    "name": "solc",
    "version": "0.5.7+commit.6da8b019.Linux.g++"
  },
  "schemaVersion": "3.4.7",
  "updatedAt": "2022-04-29T09:51:29.409Z",
  "devdoc": {
    "author": "dYdX * Mock Uniswap V2 pair.",
    "methods": {},
    "title": "TestUniswapV2Pair"
  },
  "userdoc": {
    "methods": {}
  }
}