{
  "contractName": "TestAutoTrader",
  "abi": [
    {
      "constant": true,
      "inputs": [],
      "name": "requireOldInputPar",
      "outputs": [
        {
          "name": "sign",
          "type": "bool"
        },
        {
          "name": "value",
          "type": "uint128"
        }
      ],
      "payable": false,
      "stateMutability": "view",
      "type": "function"
    },
    {
      "constant": true,
      "inputs": [],
      "name": "requireInputWei",
      "outputs": [
        {
          "name": "sign",
          "type": "bool"
        },
        {
          "name": "value",
          "type": "uint256"
        }
      ],
      "payable": false,
      "stateMutability": "view",
      "type": "function"
    },
    {
      "constant": true,
      "inputs": [],
      "name": "requireMakerAccount",
      "outputs": [
        {
          "name": "owner",
          "type": "address"
        },
        {
          "name": "number",
          "type": "uint256"
        }
      ],
      "payable": false,
      "stateMutability": "view",
      "type": "function"
    },
    {
      "constant": true,
      "inputs": [
        {
          "name": "",
          "type": "uint256"
        }
      ],
      "name": "valid",
      "outputs": [
        {
          "name": "",
          "type": "bool"
        }
      ],
      "payable": false,
      "stateMutability": "view",
      "type": "function"
    },
    {
      "constant": true,
      "inputs": [],
      "name": "requireTakerAccount",
      "outputs": [
        {
          "name": "owner",
          "type": "address"
        },
        {
          "name": "number",
          "type": "uint256"
        }
      ],
      "payable": false,
      "stateMutability": "view",
      "type": "function"
    },
    {
      "constant": true,
      "inputs": [],
      "name": "requireNewInputPar",
      "outputs": [
        {
          "name": "sign",
          "type": "bool"
        },
        {
          "name": "value",
          "type": "uint128"
        }
      ],
      "payable": false,
      "stateMutability": "view",
      "type": "function"
    },
    {
      "constant": true,
      "inputs": [],
      "name": "requireInputMarketId",
      "outputs": [
        {
          "name": "",
          "type": "uint256"
        }
      ],
      "payable": false,
      "stateMutability": "view",
      "type": "function"
    },
    {
      "constant": true,
      "inputs": [
        {
          "name": "",
          "type": "uint256"
        }
      ],
      "name": "data",
      "outputs": [
        {
          "name": "sign",
          "type": "bool"
        },
        {
          "name": "denomination",
          "type": "uint8"
        },
        {
          "name": "ref",
          "type": "uint8"
        },
        {
          "name": "value",
          "type": "uint256"
        }
      ],
      "payable": false,
      "stateMutability": "view",
      "type": "function"
    },
    {
      "constant": true,
      "inputs": [],
      "name": "requireOutputMarketId",
      "outputs": [
        {
          "name": "",
          "type": "uint256"
        }
      ],
      "payable": false,
      "stateMutability": "view",
      "type": "function"
    },
    {
      "anonymous": false,
      "inputs": [
        {
          "indexed": true,
          "name": "input",
          "type": "uint256"
        },
        {
          "components": [
            {
              "name": "sign",
              "type": "bool"
            },
            {
              "name": "denomination",
              "type": "uint8"
            },
            {
              "name": "ref",
              "type": "uint8"
            },
            {
              "name": "value",
              "type": "uint256"
            }
          ],
          "indexed": false,
          "name": "output",
          "type": "tuple"
        }
      ],
      "name": "DataSet",
      "type": "event"
    },
    {
      "anonymous": false,
      "inputs": [
        {
          "indexed": true,
          "name": "input",
          "type": "uint256"
        }
      ],
      "name": "DataDeleted",
      "type": "event"
    },
    {
      "constant": false,
      "inputs": [
        {
          "name": "input",
          "type": "uint256"
        },
        {
          "components": [
            {
              "name": "sign",
              "type": "bool"
            },
            {
              "name": "denomination",
              "type": "uint8"
            },
            {
              "name": "ref",
              "type": "uint8"
            },
            {
              "name": "value",
              "type": "uint256"
            }
          ],
          "name": "output",
          "type": "tuple"
        }
      ],
      "name": "setData",
      "outputs": [],
      "payable": false,
      "stateMutability": "nonpayable",
      "type": "function"
    },
    {
      "constant": false,
      "inputs": [
        {
          "name": "inputMarketId",
          "type": "uint256"
        }
      ],
      "name": "setRequireInputMarketId",
      "outputs": [],
      "payable": false,
      "stateMutability": "nonpayable",
      "type": "function"
    },
    {
      "constant": false,
      "inputs": [
        {
          "name": "outputMarketId",
          "type": "uint256"
        }
      ],
      "name": "setRequireOutputMarketId",
      "outputs": [],
      "payable": false,
      "stateMutability": "nonpayable",
      "type": "function"
    },
    {
      "constant": false,
      "inputs": [
        {
          "components": [
            {
              "name": "owner",
              "type": "address"
            },
            {
              "name": "number",
              "type": "uint256"
            }
          ],
          "name": "account",
          "type": "tuple"
        }
      ],
      "name": "setRequireMakerAccount",
      "outputs": [],
      "payable": false,
      "stateMutability": "nonpayable",
      "type": "function"
    },
    {
      "constant": false,
      "inputs": [
        {
          "components": [
            {
              "name": "owner",
              "type": "address"
            },
            {
              "name": "number",
              "type": "uint256"
            }
          ],
          "name": "account",
          "type": "tuple"
        }
      ],
      "name": "setRequireTakerAccount",
      "outputs": [],
      "payable": false,
      "stateMutability": "nonpayable",
      "type": "function"
    },
    {
      "constant": false,
      "inputs": [
        {
          "components": [
            {
              "name": "sign",
              "type": "bool"
            },
            {
              "name": "value",
              "type": "uint128"
            }
          ],
          "name": "oldInputPar",
          "type": "tuple"
        }
      ],
      "name": "setRequireOldInputPar",
      "outputs": [],
      "payable": false,
      "stateMutability": "nonpayable",
      "type": "function"
    },
    {
      "constant": false,
      "inputs": [
        {
          "components": [
            {
              "name": "sign",
              "type": "bool"
            },
            {
              "name": "value",
              "type": "uint128"
            }
          ],
          "name": "newInputPar",
          "type": "tuple"
        }
      ],
      "name": "setRequireNewInputPar",
      "outputs": [],
      "payable": false,
      "stateMutability": "nonpayable",
      "type": "function"
    },
    {
      "constant": false,
      "inputs": [
        {
          "components": [
            {
              "name": "sign",
              "type": "bool"
            },
            {
              "name": "value",
              "type": "uint256"
            }
          ],
          "name": "inputWei",
          "type": "tuple"
        }
      ],
      "name": "setRequireInputWei",
      "outputs": [],
      "payable": false,
      "stateMutability": "nonpayable",
      "type": "function"
    },
    {
      "constant": false,
      "inputs": [
        {
          "name": "inputMarketId",
          "type": "uint256"
        },
        {
          "name": "outputMarketId",
          "type": "uint256"
        },
        {
          "components": [
            {
              "name": "owner",
              "type": "address"
            },
            {
              "name": "number",
              "type": "uint256"
            }
          ],
          "name": "makerAccount",
          "type": "tuple"
        },
        {
          "components": [
            {
              "name": "owner",
              "type": "address"
            },
            {
              "name": "number",
              "type": "uint256"
            }
          ],
          "name": "takerAccount",
          "type": "tuple"
        },
        {
          "components": [
            {
              "name": "sign",
              "type": "bool"
            },
            {
              "name": "value",
              "type": "uint128"
            }
          ],
          "name": "oldInputPar",
          "type": "tuple"
        },
        {
          "components": [
            {
              "name": "sign",
              "type": "bool"
            },
            {
              "name": "value",
              "type": "uint128"
            }
          ],
          "name": "newInputPar",
          "type": "tuple"
        },
        {
          "components": [
            {
              "name": "sign",
              "type": "bool"
            },
            {
              "name": "value",
              "type": "uint256"
            }
          ],
          "name": "inputWei",
          "type": "tuple"
        },
        {
          "name": "tradeData",
          "type": "bytes"
        }
      ],
      "name": "getTradeCost",
      "outputs": [
        {
          "components": [
            {
              "name": "sign",
              "type": "bool"
            },
            {
              "name": "denomination",
              "type": "uint8"
            },
            {
              "name": "ref",
              "type": "uint8"
            },
            {
              "name": "value",
              "type": "uint256"
            }
          ],
          "name": "",
          "type": "tuple"
        }
      ],
      "payable": false,
      "stateMutability": "nonpayable",
      "type": "function"
    }
  ],
  "bytecode": "0x608060405234801561001057600080fd5b506115d7806100206000396000f3fe608060405234801561001057600080fd5b5060043610610153576000357c010000000000000000000000000000000000000000000000000000000090048063bf8712c5116100cf578063e73af6fa1161009e578063ef28faa911610083578063ef28faa91461028d578063f0ba8440146102a2578063f4d193de146102c557610153565b8063e73af6fa14610272578063e81cb6051461027a57610153565b8063bf8712c514610224578063cd59f0c314610244578063d60463bb14610257578063df9812671461026a57610153565b806348cedc55116101265780636b9d21e51161010b5780636b9d21e5146101e85780636ff94664146101fb5780639ccf73201461021157610153565b806348cedc55146101c25780636645da41146101d557610153565b80630b8bbc2d146101585780630e147b01146101775780633858db2c1461018d578063448f7065146101a2575b600080fd5b6101606102cd565b60405161016e9291906113dd565b60405180910390f35b61017f6102ef565b60405161016e9291906113f8565b6101a061019b366004611109565b6102fe565b005b6101b56101b0366004611161565b610303565b60405161016e9190611417565b6101a06101d03660046110cd565b61081d565b6101a06101e33660046110cd565b610879565b6101a06101f6366004611109565b6108d5565b6102036108da565b60405161016e929190611379565b6101a061021f366004611127565b6108fc565b610237610232366004611109565b61090a565b60405161016e9190611394565b6101a06102523660046110a7565b61091f565b6101a06102653660046110a7565b61096e565b6102036109bd565b6101606109df565b6101a06102883660046110eb565b610a01565b610295610a1d565b60405161016e9190611425565b6102b56102b0366004611109565b610a23565b60405161016e94939291906113a8565b610295610a55565b60085460ff81169061010090046fffffffffffffffffffffffffffffffff1682565b600a54600b5460ff9091169082565b600355565b61030b610ecc565b600254156103625761036289600254147f546573744175746f5472616465720000000000000000000000000000000000007f696e707574206d61726b6574206d69736d617463680000000000000000000000610a5b565b600354156103b9576103b988600354147f546573744175746f5472616465720000000000000000000000000000000000007f6f7574707574206d61726b6574206d69736d6174636800000000000000000000610a5b565b60045473ffffffffffffffffffffffffffffffffffffffff16156104965786516004546104429173ffffffffffffffffffffffffffffffffffffffff9182169116147f546573744175746f5472616465720000000000000000000000000000000000007f6d616b6572206163636f756e74206f776e6572206d69736d6174636800000000610a5b565b602087015160055461049691147f546573744175746f5472616465720000000000000000000000000000000000007f6d616b6572206163636f756e74206e756d626572206d69736d61746368000000610a5b565b60065473ffffffffffffffffffffffffffffffffffffffff161561057357855160065461051f9173ffffffffffffffffffffffffffffffffffffffff9182169116147f546573744175746f5472616465720000000000000000000000000000000000007f74616b6572206163636f756e74206f776e6572206d69736d6174636800000000610a5b565b602086015160075461057391147f546573744175746f5472616465720000000000000000000000000000000000007f74616b6572206163636f756e74206e756d626572206d69736d61746368000000610a5b565b60085461010090046fffffffffffffffffffffffffffffffff161561065b5784516008546105ec91151560ff9091161515147f546573744175746f5472616465720000000000000000000000000000000000007f6f6c64496e707574506172207369676e206d69736d6174636800000000000000610a5b565b602085015160085461065b916fffffffffffffffffffffffffffffffff90811661010090920416147f546573744175746f5472616465720000000000000000000000000000000000007f6f6c64496e7075745061722076616c7565206d69736d61746368000000000000610a5b565b60095461010090046fffffffffffffffffffffffffffffffff16156107435783516009546106d491151560ff9091161515147f546573744175746f5472616465720000000000000000000000000000000000007f6e6577496e707574506172207369676e206d69736d6174636800000000000000610a5b565b6020840151600954610743916fffffffffffffffffffffffffffffffff90811661010090920416147f546573744175746f5472616465720000000000000000000000000000000000007f6e6577496e7075745061722076616c7565206d69736d61746368000000000000610a5b565b600b54156107f9578251600a546107a591151560ff9091161515147f546573744175746f5472616465720000000000000000000000000000000000007f696e707574576569207369676e206d69736d6174636800000000000000000000610a5b565b6020830151600b546107f991147f546573744175746f5472616465720000000000000000000000000000000000007f696e7075745765692076616c7565206d69736d61746368000000000000000000610a5b565b600061080483610b11565b905061080f81610b6e565b9a9950505050505050505050565b8051600880546020909301516fffffffffffffffffffffffffffffffff16610100027fffffffffffffffffffffffffffffff00000000000000000000000000000000ff92151560ff199094169390931791909116919091179055565b8051600980546020909301516fffffffffffffffffffffffffffffffff16610100027fffffffffffffffffffffffffffffff00000000000000000000000000000000ff92151560ff199094169390931791909116919091179055565b600255565b60045460055473ffffffffffffffffffffffffffffffffffffffff9091169082565b6109068282610cd0565b5050565b60016020526000908152604090205460ff1681565b8051600680547fffffffffffffffffffffffff00000000000000000000000000000000000000001673ffffffffffffffffffffffffffffffffffffffff90921691909117905560200151600755565b8051600480547fffffffffffffffffffffffff00000000000000000000000000000000000000001673ffffffffffffffffffffffffffffffffffffffff90921691909117905560200151600555565b60065460075473ffffffffffffffffffffffffffffffffffffffff9091169082565b60095460ff81169061010090046fffffffffffffffffffffffffffffffff1682565b8051600a805460ff191691151591909117905560200151600b55565b60025481565b6000602081905290815260409020805460019091015460ff808316926101008104821692620100009091049091169084565b60035481565b82610b0c57610a6982610dd1565b7f3a20000000000000000000000000000000000000000000000000000000000000610a9383610dd1565b604051602001610aa593929190611348565b604080517fffffffffffffffffffffffffffffffffffffffffffffffffffffffffffffffe0818403018152908290527f08c379a0000000000000000000000000000000000000000000000000000000008252610b0391600401611406565b60405180910390fd5b505050565b6000610b6282516020147f546573744175746f5472616465720000000000000000000000000000000000007f43616c6c206461746120696e76616c6964206c656e6774680000000000000000610a5b565b5060208101515b919050565b610b76610ecc565b600082815260016020526040902054610bd39060ff167f546573744175746f5472616465720000000000000000000000000000000000007f547261646520646f6573206e6f74206578697374000000000000000000000000610a5b565b610bdb610ecc565b60008381526020818152604091829020825160808101909352805460ff808216151585529192840191610100909104166001811115610c1657fe5b6001811115610c2157fe5b8152815460209091019062010000900460ff166001811115610c3f57fe5b6001811115610c4a57fe5b81526001918201546020918201526000868152808252604080822080547fffffffffffffffffffffffffffffffffffffffffffffffffffffffffff000000168155840182905592909152818120805460ff19169055905191925084917fc08afd407b9302167fb675f0504288e953f9807568a5e2b502d47ea8bc6dcbed9190a292915050565b6000828152602081815260409091208251815460ff19169015151780825591830151839282907fffffffffffffffffffffffffffffffffffffffffffffffffffffffffffff00ff16610100836001811115610d2757fe5b02179055506040820151815482907fffffffffffffffffffffffffffffffffffffffffffffffffffffffffff00ffff1662010000836001811115610d6757fe5b02179055506060919091015160019182015560008381526020829052604090819020805460ff19169092179091555182907ff5a75b9133c4ad3380c8fb241cbd49cbc06a972af65c00521cb656776e8eab0f90610dc5908490611417565b60405180910390a25050565b60608082604051602001610de59190611333565b604080517fffffffffffffffffffffffffffffffffffffffffffffffffffffffffffffffe0818403018152919052905060205b8015610eb55781517fffffffffffffffffffffffffffffffffffffffffffffffffffffffffffffffff90910190829082908110610e5157fe5b6020910101517f010000000000000000000000000000000000000000000000000000000000000090819004027fff000000000000000000000000000000000000000000000000000000000000001615610eb05760010181529050610b69565b610e18565b505060408051600081526020810190915292915050565b604080516080810190915260008082526020820190815260200160008152602001600081525090565b6000610f0182356114ad565b9392505050565b6000610f0182356114b8565b600082601f830112610f2557600080fd5b8135610f38610f338261145a565b611433565b91508082526020830160208301858383011115610f5457600080fd5b610f5f83828461153d565b50505092915050565b6000610f018235611523565b600060808284031215610f8657600080fd5b610f906080611433565b90506000610f9e8484610f08565b8252506020610faf84848301610f68565b6020830152506040610fc384828501610f68565b6040830152506060610fd78482850161109b565b60608301525092915050565b600060408284031215610ff557600080fd5b610fff6040611433565b9050600061100d8484610ef5565b825250602061101e8484830161109b565b60208301525092915050565b60006040828403121561103c57600080fd5b6110466040611433565b905060006110548484610f08565b825250602061101e8484830161108f565b60006040828403121561107757600080fd5b6110816040611433565b9050600061100d8484610f08565b6000610f0182356114f5565b6000610f0182356114e2565b6000604082840312156110b957600080fd5b60006110c58484610fe3565b949350505050565b6000604082840312156110df57600080fd5b60006110c5848461102a565b6000604082840312156110fd57600080fd5b60006110c58484611065565b60006020828403121561111b57600080fd5b60006110c5848461109b565b60008060a0838503121561113a57600080fd5b6000611146858561109b565b925050602061115785828601610f74565b9150509250929050565b6000806000806000806000806101a0898b03121561117e57600080fd5b600061118a8b8b61109b565b985050602061119b8b828c0161109b565b97505060406111ac8b828c01610fe3565b96505060806111bd8b828c01610fe3565b95505060c06111ce8b828c0161102a565b9450506101006111e08b828c0161102a565b9350506101406111f28b828c01611065565b92505061018089013567ffffffffffffffff81111561121057600080fd5b61121c8b828c01610f14565b9150509295985092959890939650565b611235816114ad565b82525050565b611235816114b8565b611235611250826114bd565b6114e2565b611235611250826114e2565b600061126c826114a0565b6112768185610b69565b9350611286818560208601611549565b9290920192915050565b61123581611532565b60006112a4826114a0565b6112ae81856114a4565b93506112be818560208601611549565b6112c781611575565b9093019392505050565b805160808301906112e2848261123b565b5060208201516112f56020850182611290565b5060408201516113086040850182611290565b50606082015161131b606085018261132a565b50505050565b611235816114f5565b611235816114e2565b600061133f8284611255565b50602001919050565b60006113548286611261565b91506113608285611244565b6002820191506113708284611261565b95945050505050565b60408101611387828561122c565b610f01602083018461132a565b602081016113a2828461123b565b92915050565b608081016113b6828761123b565b6113c36020830186611290565b6113d06040830185611290565b611370606083018461132a565b604081016113eb828561123b565b610f016020830184611321565b60408101611387828561123b565b60208082528101610f018184611299565b608081016113a282846112d1565b602081016113a2828461132a565b60405181810167ffffffffffffffff8111828210171561145257600080fd5b604052919050565b600067ffffffffffffffff82111561147157600080fd5b506020601f919091017fffffffffffffffffffffffffffffffffffffffffffffffffffffffffffffffe0160190565b5190565b90815260200190565b60006113a28261150a565b151590565b7fffff0000000000000000000000000000000000000000000000000000000000001690565b90565b6000600282106114f157fe5b5090565b6fffffffffffffffffffffffffffffffff1690565b73ffffffffffffffffffffffffffffffffffffffff1690565b6000600282106114f157600080fd5b60006113a2826114e5565b82818337506000910152565b60005b8381101561156457818101518382015260200161154c565b8381111561131b5750506000910152565b601f017fffffffffffffffffffffffffffffffffffffffffffffffffffffffffffffffe0169056fea265627a7a723058202095c4329770e8f1032975bd4b36b1a8cdda721ea8fae970530a06f413e6af8f6c6578706572696d656e74616cf50037",
  "source": "/*\n\n    Copyright 2019 dYdX Trading Inc.\n\n    Licensed under the Apache License, Version 2.0 (the \"License\");\n    you may not use this file except in compliance with the License.\n    You may obtain a copy of the License at\n\n    http://www.apache.org/licenses/LICENSE-2.0\n\n    Unless required by applicable law or agreed to in writing, software\n    distributed under the License is distributed on an \"AS IS\" BASIS,\n    WITHOUT WARRANTIES OR CONDITIONS OF ANY KIND, either express or implied.\n    See the License for the specific language governing permissions and\n    limitations under the License.\n\n*/\n\npragma solidity 0.5.7;\npragma experimental ABIEncoderV2;\n\nimport { IAutoTrader } from \"../protocol/interfaces/IAutoTrader.sol\";\nimport { Account } from \"../protocol/lib/Account.sol\";\nimport { Actions } from \"../protocol/lib/Actions.sol\";\nimport { Math } from \"../protocol/lib/Math.sol\";\nimport { Require } from \"../protocol/lib/Require.sol\";\nimport { Time } from \"../protocol/lib/Time.sol\";\nimport { Types } from \"../protocol/lib/Types.sol\";\n\n\n/**\n * @title TestAutoTrader\n * @author dYdX\n *\n * IAutoTrader for testing\n */\ncontract TestAutoTrader is\n    IAutoTrader\n{\n    // ============ Constants ============\n\n    bytes32 constant FILE = \"TestAutoTrader\";\n\n    // ============ Events ============\n\n    event DataSet(\n        uint256 indexed input,\n        Types.AssetAmount output\n    );\n\n    event DataDeleted(\n        uint256 indexed input\n    );\n\n    // ============ Storage ============\n\n    // input => output\n    mapping (uint256 => Types.AssetAmount) public data;\n    mapping (uint256 => bool) public valid;\n\n    uint256 public requireInputMarketId;\n    uint256 public requireOutputMarketId;\n    Account.Info public requireMakerAccount;\n    Account.Info public requireTakerAccount;\n    Types.Par public requireOldInputPar;\n    Types.Par public requireNewInputPar;\n    Types.Wei public requireInputWei;\n\n    // ============ Testing Functions ============\n\n    function setData(\n        uint256 input,\n        Types.AssetAmount memory output\n    )\n        public\n    {\n        setDataInternal(input, output);\n    }\n\n    function setRequireInputMarketId(\n        uint256 inputMarketId\n    )\n        public\n    {\n        requireInputMarketId = inputMarketId;\n    }\n\n    function setRequireOutputMarketId(\n        uint256 outputMarketId\n    )\n        public\n    {\n        requireOutputMarketId = outputMarketId;\n    }\n\n    function setRequireMakerAccount(\n        Account.Info memory account\n    )\n        public\n    {\n        requireMakerAccount = account;\n    }\n\n    function setRequireTakerAccount(\n        Account.Info memory account\n    )\n        public\n    {\n        requireTakerAccount = account;\n    }\n\n    function setRequireOldInputPar(\n        Types.Par memory oldInputPar\n    )\n        public\n    {\n        requireOldInputPar = oldInputPar;\n    }\n\n    function setRequireNewInputPar(\n        Types.Par memory newInputPar\n    )\n        public\n    {\n        requireNewInputPar = newInputPar;\n    }\n\n    function setRequireInputWei(\n        Types.Wei memory inputWei\n    )\n        public\n    {\n        requireInputWei = inputWei;\n    }\n\n    // ============ AutoTrader Functions ============\n\n    function getTradeCost(\n        uint256 inputMarketId,\n        uint256 outputMarketId,\n        Account.Info memory makerAccount,\n        Account.Info memory takerAccount,\n        Types.Par memory oldInputPar,\n        Types.Par memory newInputPar,\n        Types.Wei memory inputWei,\n        bytes memory tradeData\n    )\n        public\n        returns (Types.AssetAmount memory)\n    {\n        if (requireInputMarketId != 0) {\n            Require.that(\n                requireInputMarketId == inputMarketId,\n                FILE,\n                \"input market mismatch\"\n            );\n        }\n        if (requireOutputMarketId != 0) {\n            Require.that(\n                requireOutputMarketId == outputMarketId,\n                FILE,\n                \"output market mismatch\"\n            );\n        }\n        if (requireMakerAccount.owner != address(0)) {\n            Require.that(\n                requireMakerAccount.owner == makerAccount.owner,\n                FILE,\n                \"maker account owner mismatch\"\n            );\n            Require.that(\n                requireMakerAccount.number == makerAccount.number,\n                FILE,\n                \"maker account number mismatch\"\n            );\n        }\n        if (requireTakerAccount.owner != address(0)) {\n            Require.that(\n                requireTakerAccount.owner == takerAccount.owner,\n                FILE,\n                \"taker account owner mismatch\"\n            );\n            Require.that(\n                requireTakerAccount.number == takerAccount.number,\n                FILE,\n                \"taker account number mismatch\"\n            );\n        }\n        if (requireOldInputPar.value != 0) {\n            Require.that(\n                requireOldInputPar.sign == oldInputPar.sign,\n                FILE,\n                \"oldInputPar sign mismatch\"\n                );\n            Require.that(\n                requireOldInputPar.value == oldInputPar.value,\n                FILE,\n                \"oldInputPar value mismatch\"\n                );\n        }\n        if (requireNewInputPar.value != 0) {\n            Require.that(\n                requireNewInputPar.sign == newInputPar.sign,\n                FILE,\n                \"newInputPar sign mismatch\"\n            );\n            Require.that(\n                requireNewInputPar.value == newInputPar.value,\n                FILE,\n                \"newInputPar value mismatch\"\n            );\n        }\n        if (requireInputWei.value != 0) {\n            Require.that(\n                requireInputWei.sign == inputWei.sign,\n                FILE,\n                \"inputWei sign mismatch\"\n            );\n            Require.that(\n                requireInputWei.value == inputWei.value,\n                FILE,\n                \"inputWei value mismatch\"\n            );\n        }\n\n        uint256 input = parseTradeData(tradeData);\n        return deleteDataInternal(input);\n    }\n\n    // ============ Private Functions ============\n\n    function setDataInternal(\n        uint256 input,\n        Types.AssetAmount memory output\n    )\n        private\n    {\n        data[input] = output;\n        valid[input] = true;\n        emit DataSet(input, output);\n    }\n\n    function deleteDataInternal(\n        uint256 input\n    )\n        private\n        returns (Types.AssetAmount memory)\n    {\n        Require.that(\n            valid[input],\n            FILE,\n            \"Trade does not exist\"\n        );\n        Types.AssetAmount memory output = data[input];\n        delete data[input];\n        delete valid[input];\n        emit DataDeleted(input);\n        return output;\n    }\n\n    function parseTradeData(\n        bytes memory tradeData\n    )\n        private\n        pure\n        returns (uint256)\n    {\n        Require.that(\n            tradeData.length == 32,\n            FILE,\n            \"Call data invalid length\"\n        );\n\n        uint256 input;\n\n        /* solium-disable-next-line security/no-inline-assembly */\n        assembly {\n            input := mload(add(tradeData, 32))\n        }\n\n        return input;\n    }\n}\n",
  "sourcePath": "/home/terra/opensource/solo/contracts/testing/TestAutoTrader.sol",
  "compiler": {
    "name": "solc",
    "version": "0.5.7+commit.6da8b019.Linux.g++"
  },
  "schemaVersion": "3.4.7",
  "updatedAt": "2022-04-29T09:51:29.382Z",
  "devdoc": {
    "author": "dYdX * IAutoTrader for testing",
    "methods": {},
    "title": "TestAutoTrader"
  },
  "userdoc": {
    "methods": {}
  }
}