{
  "contractName": "TestMakerOracle",
  "abi": [
    {
      "constant": true,
      "inputs": [],
      "name": "price",
      "outputs": [
        {
          "name": "",
          "type": "uint256"
        }
      ],
      "payable": false,
      "stateMutability": "view",
      "type": "function"
    },
    {
      "constant": true,
      "inputs": [],
      "name": "valid",
      "outputs": [
        {
          "name": "",
          "type": "bool"
        }
      ],
      "payable": false,
      "stateMutability": "view",
      "type": "function"
    },
    {
      "anonymous": true,
      "inputs": [
        {
          "indexed": true,
          "name": "msgSig",
          "type": "bytes4"
        },
        {
          "indexed": true,
          "name": "msgSender",
          "type": "address"
        },
        {
          "indexed": true,
          "name": "arg1",
          "type": "bytes32"
        },
        {
          "indexed": true,
          "name": "arg2",
          "type": "bytes32"
        },
        {
          "indexed": false,
          "name": "msgValue",
          "type": "uint256"
        },
        {
          "indexed": false,
          "name": "msgData",
          "type": "bytes"
        }
      ],
      "name": "LogNote",
      "type": "event"
    },
    {
      "constant": false,
      "inputs": [
        {
          "name": "_price",
          "type": "uint256"
        },
        {
          "name": "_valid",
          "type": "bool"
        }
      ],
      "name": "setValues",
      "outputs": [],
      "payable": false,
      "stateMutability": "nonpayable",
      "type": "function"
    },
    {
      "constant": true,
      "inputs": [],
      "name": "peek",
      "outputs": [
        {
          "name": "",
          "type": "bytes32"
        },
        {
          "name": "",
          "type": "bool"
        }
      ],
      "payable": false,
      "stateMutability": "view",
      "type": "function"
    },
    {
      "constant": true,
      "inputs": [],
      "name": "read",
      "outputs": [
        {
          "name": "",
          "type": "bytes32"
        }
      ],
      "payable": false,
      "stateMutability": "view",
      "type": "function"
    }
  ],
  "bytecode": "0x608060405234801561001057600080fd5b5061024b806100206000396000f3fe608060405234801561001057600080fd5b5060043610610084576000357c010000000000000000000000000000000000000000000000000000000090048063a035b1fe1161006d578063a035b1fe146100bd578063c1991219146100c5578063e46ce1c0146100da57610084565b806357de26a41461008957806359e02dd7146100a7575b600080fd5b6100916100ef565b60405161009e91906101e0565b60405180910390f35b6100af610108565b60405161009e9291906101ee565b610091610115565b6100cd61011b565b60405161009e91906101cc565b6100ed6100e836600461017a565b610124565b005b60015460009060ff1661010157600080fd5b5060005490565b60005460015460ff169091565b60005481565b60015460ff1681565b600091909155600180547fffffffffffffffffffffffffffffffffffffffffffffffffffffffffffffff0016911515919091179055565b60006101678235610209565b9392505050565b6000610167823561020e565b6000806040838503121561018d57600080fd5b6000610199858561016e565b92505060206101aa8582860161015b565b9150509250929050565b6101bd81610209565b82525050565b6101bd8161020e565b602081016101da82846101b4565b92915050565b602081016101da82846101c3565b604081016101fc82856101c3565b61016760208301846101b4565b151590565b9056fea265627a7a723058201ba0b1434ca1b22c11e38352c4f9215ebf28e8eff0262fd6fd275efd36e46d756c6578706572696d656e74616cf50037",
  "source": "/*\n\n    Copyright 2019 dYdX Trading Inc.\n\n    Licensed under the Apache License, Version 2.0 (the \"License\");\n    you may not use this file except in compliance with the License.\n    You may obtain a copy of the License at\n\n    http://www.apache.org/licenses/LICENSE-2.0\n\n    Unless required by applicable law or agreed to in writing, software\n    distributed under the License is distributed on an \"AS IS\" BASIS,\n    WITHOUT WARRANTIES OR CONDITIONS OF ANY KIND, either express or implied.\n    See the License for the specific language governing permissions and\n    limitations under the License.\n\n*/\n\npragma solidity 0.5.7;\npragma experimental ABIEncoderV2;\n\nimport { IMakerOracle } from \"../external/interfaces/IMakerOracle.sol\";\n\n\ncontract TestMakerOracle is\n    IMakerOracle\n{\n    uint256 public price;\n    bool public valid;\n\n    function setValues(\n        uint256 _price,\n        bool _valid\n    )\n        external\n    {\n        price = _price;\n        valid = _valid;\n    }\n\n    function peek()\n        external\n        view\n        returns (bytes32, bool)\n    {\n        return (bytes32(price), valid);\n    }\n\n    function read()\n        external\n        view\n        returns (bytes32)\n    {\n        require(valid);\n        return bytes32(price);\n    }\n}\n",
  "sourcePath": "/home/terra/opensource/solo/contracts/testing/TestMakerOracle.sol",
  "compiler": {
    "name": "solc",
    "version": "0.5.7+commit.6da8b019.Linux.g++"
  },
  "schemaVersion": "3.4.7",
  "updatedAt": "2022-04-29T09:51:29.397Z",
  "devdoc": {
    "methods": {}
  },
  "userdoc": {
    "methods": {}
  }
}