{
  "_format": "hh-sol-artifact-1",
  "contractName": "Implementation",
  "sourceName": "contracts/Implementation.sol",
  "abi": [
    {
      "anonymous": false,
      "inputs": [
        {
          "indexed": false,
          "internalType": "uint8",
          "name": "version",
          "type": "uint8"
        }
      ],
      "name": "Initialized",
      "type": "event"
    },
    {
      "inputs": [],
      "name": "getContractNameWithVersion",
      "outputs": [
        {
          "internalType": "uint256",
          "name": "",
          "type": "uint256"
        }
      ],
      "stateMutability": "view",
      "type": "function"
    },
    {
      "inputs": [
        {
          "internalType": "uint256",
          "name": "_version",
          "type": "uint256"
        }
      ],
      "name": "initialize",
      "outputs": [],
      "stateMutability": "nonpayable",
      "type": "function"
    },
    {
      "inputs": [],
      "name": "version",
      "outputs": [
        {
          "internalType": "uint256",
          "name": "",
          "type": "uint256"
        }
      ],
      "stateMutability": "view",
      "type": "function"
    }
  ],
  "bytecode": "0x608060405234801561001057600080fd5b506101e0806100206000396000f3fe608060405234801561001057600080fd5b50600436106100415760003560e01c806354fd4d50146100465780639ac5baa314610061578063fe4b84df14610069575b600080fd5b61004f60015481565b60405190815260200160405180910390f35b60015461004f565b61007c610077366004610191565b61007e565b005b600054610100900460ff161580801561009e5750600054600160ff909116105b806100b85750303b1580156100b8575060005460ff166001145b61011f5760405162461bcd60e51b815260206004820152602e60248201527f496e697469616c697a61626c653a20636f6e747261637420697320616c72656160448201526d191e481a5b9a5d1a585b1a5e995960921b606482015260840160405180910390fd5b6000805460ff191660011790558015610142576000805461ff0019166101001790555b6001829055801561018d576000805461ff0019169055604051600181527f7f26b83ff96e1f2b6a682f133852f6798a09c465da95921460cefb38474024989060200160405180910390a15b5050565b6000602082840312156101a357600080fd5b503591905056fea26469706673582212206b458c471c5d8bde78eb54b0ae1d73f9fe98e1f08cfcb59b2e5c06683e06dcfa64736f6c63430008120033",
  "linkReferences": {},
  "deployedLinkReferences": {}
}