{
  "_format": "hh-sol-artifact-1",
  "contractName": "Implementation1",
  "sourceName": "contracts/Implementation1.sol",
  "abi": [
    {
      "anonymous": false,
      "inputs": [
        {
          "indexed": false,
          "internalType": "uint8",
          "name": "version",
          "type": "uint8"
        }
      ],
      "name": "Initialized",
      "type": "event"
    },
    {
      "inputs": [
        {
          "internalType": "uint256",
          "name": "factor",
          "type": "uint256"
        }
      ],
      "name": "add",
      "outputs": [],
      "stateMutability": "nonpayable",
      "type": "function"
    },
    {
      "inputs": [],
      "name": "count",
      "outputs": [
        {
          "internalType": "uint256",
          "name": "",
          "type": "uint256"
        }
      ],
      "stateMutability": "view",
      "type": "function"
    },
    {
      "inputs": [],
      "name": "getContractVersion",
      "outputs": [
        {
          "internalType": "uint256",
          "name": "",
          "type": "uint256"
        }
      ],
      "stateMutability": "pure",
      "type": "function"
    },
    {
      "inputs": [],
      "name": "getCount",
      "outputs": [
        {
          "internalType": "uint256",
          "name": "",
          "type": "uint256"
        }
      ],
      "stateMutability": "view",
      "type": "function"
    },
    {
      "inputs": [
        {
          "internalType": "uint256",
          "name": "initial_count",
          "type": "uint256"
        }
      ],
      "name": "initialize",
      "outputs": [],
      "stateMutability": "nonpayable",
      "type": "function"
    }
  ],
  "bytecode": "0x608060405234801561001057600080fd5b506104ba806100206000396000f3fe608060405234801561001057600080fd5b50600436106100575760003560e01c806306661abd1461005c5780631003e2d21461007a5780638aa1043514610096578063a87d942c146100b4578063fe4b84df146100d2575b600080fd5b6100646100ee565b6040516100719190610298565b60405180910390f35b610094600480360381019061008f91906102e4565b6100f4565b005b61009e61010b565b6040516100ab9190610298565b60405180910390f35b6100bc610114565b6040516100c99190610298565b60405180910390f35b6100ec60048036038101906100e791906102e4565b61011e565b005b60015481565b806001546101029190610340565b60018190555050565b60006001905090565b6000600154905090565b60008060019054906101000a900460ff1615905080801561014f5750600160008054906101000a900460ff1660ff16105b8061017c575061015e3061025c565b15801561017b5750600160008054906101000a900460ff1660ff16145b5b6101bb576040517f08c379a00000000000000000000000000000000000000000000000000000000081526004016101b2906103f7565b60405180910390fd5b60016000806101000a81548160ff021916908360ff16021790555080156101f8576001600060016101000a81548160ff0219169083151502179055505b8160018190555080156102585760008060016101000a81548160ff0219169083151502179055507f7f26b83ff96e1f2b6a682f133852f6798a09c465da95921460cefb3847402498600160405161024f9190610469565b60405180910390a15b5050565b6000808273ffffffffffffffffffffffffffffffffffffffff163b119050919050565b6000819050919050565b6102928161027f565b82525050565b60006020820190506102ad6000830184610289565b92915050565b600080fd5b6102c18161027f565b81146102cc57600080fd5b50565b6000813590506102de816102b8565b92915050565b6000602082840312156102fa576102f96102b3565b5b6000610308848285016102cf565b91505092915050565b7f4e487b7100000000000000000000000000000000000000000000000000000000600052601160045260246000fd5b600061034b8261027f565b91506103568361027f565b925082820190508082111561036e5761036d610311565b5b92915050565b600082825260208201905092915050565b7f496e697469616c697a61626c653a20636f6e747261637420697320616c72656160008201527f647920696e697469616c697a6564000000000000000000000000000000000000602082015250565b60006103e1602e83610374565b91506103ec82610385565b604082019050919050565b60006020820190508181036000830152610410816103d4565b9050919050565b6000819050919050565b600060ff82169050919050565b6000819050919050565b600061045361044e61044984610417565b61042e565b610421565b9050919050565b61046381610438565b82525050565b600060208201905061047e600083018461045a565b9291505056fea2646970667358221220a6194b4f6a14df91eaace4cb109d60e17301fde980f1823be44d57097f5ca9a064736f6c63430008120033",
  "linkReferences": {},
  "deployedLinkReferences": {}
}