{
  "_format": "hh-sol-artifact-1",
  "contractName": "BeaconProxyPatternV1",
  "sourceName": "contracts/BeaconProxyPatternV1.sol",
  "abi": [
    {
      "inputs": [],
      "stateMutability": "nonpayable",
      "type": "constructor"
    },
    {
      "anonymous": false,
      "inputs": [
        {
          "indexed": false,
          "internalType": "uint8",
          "name": "version",
          "type": "uint8"
        }
      ],
      "name": "Initialized",
      "type": "event"
    },
    {
      "inputs": [],
      "name": "getContractNameWithVersion",
      "outputs": [
        {
          "internalType": "string",
          "name": "",
          "type": "string"
        }
      ],
      "stateMutability": "pure",
      "type": "function"
    },
    {
      "inputs": [],
      "name": "initialize",
      "outputs": [],
      "stateMutability": "nonpayable",
      "type": "function"
    },
    {
      "inputs": [],
      "name": "versionAwareContractName",
      "outputs": [
        {
          "internalType": "string",
          "name": "",
          "type": "string"
        }
      ],
      "stateMutability": "view",
      "type": "function"
    }
  ],
  "bytecode": "0x608060405234801561001057600080fd5b5061001f61002460201b60201c565b6101be565b600060019054906101000a900460ff1615610074576040517f08c379a000000000000000000000000000000000000000000000000000000000815260040161006b90610167565b60405180910390fd5b60ff801660008054906101000a900460ff1660ff16146100e25760ff6000806101000a81548160ff021916908360ff1602179055507f7f26b83ff96e1f2b6a682f133852f6798a09c465da95921460cefb384740249860ff6040516100d991906101a3565b60405180910390a15b565b600082825260208201905092915050565b7f496e697469616c697a61626c653a20636f6e747261637420697320696e69746960008201527f616c697a696e6700000000000000000000000000000000000000000000000000602082015250565b60006101516027836100e4565b915061015c826100f5565b604082019050919050565b6000602082019050818103600083015261018081610144565b9050919050565b600060ff82169050919050565b61019d81610187565b82525050565b60006020820190506101b86000830184610194565b92915050565b6107e9806101cd6000396000f3fe608060405234801561001057600080fd5b50600436106100415760003560e01c8063304bd906146100465780638129fc1c146100645780639ac5baa31461006e575b600080fd5b61004e61008c565b60405161005b9190610385565b60405180910390f35b61006c61011a565b005b610076610295565b6040516100839190610385565b60405180910390f35b60018054610099906103d6565b80601f01602080910402602001604051908101604052809291908181526020018280546100c5906103d6565b80156101125780601f106100e757610100808354040283529160200191610112565b820191906000526020600020905b8154815290600101906020018083116100f557829003601f168201915b505050505081565b60008060019054906101000a900460ff1615905080801561014b5750600160008054906101000a900460ff1660ff16105b80610178575061015a306102d2565b1580156101775750600160008054906101000a900460ff1660ff16145b5b6101b7576040517f08c379a00000000000000000000000000000000000000000000000000000000081526004016101ae90610479565b60405180910390fd5b60016000806101000a81548160ff021916908360ff16021790555080156101f4576001600060016101000a81548160ff0219169083151502179055505b6040518060400160405280601881526020017f426561636f6e2050726f7879205061747465726e3a205631000000000000000081525060019081610238919061067e565b5080156102925760008060016101000a81548160ff0219169083151502179055507f7f26b83ff96e1f2b6a682f133852f6798a09c465da95921460cefb384740249860016040516102899190610798565b60405180910390a15b50565b60606040518060400160405280601881526020017f426561636f6e2050726f7879205061747465726e3a2056310000000000000000815250905090565b6000808273ffffffffffffffffffffffffffffffffffffffff163b119050919050565b600081519050919050565b600082825260208201905092915050565b60005b8381101561032f578082015181840152602081019050610314565b60008484015250505050565b6000601f19601f8301169050919050565b6000610357826102f5565b6103618185610300565b9350610371818560208601610311565b61037a8161033b565b840191505092915050565b6000602082019050818103600083015261039f818461034c565b905092915050565b7f4e487b7100000000000000000000000000000000000000000000000000000000600052602260045260246000fd5b600060028204905060018216806103ee57607f821691505b602082108103610401576104006103a7565b5b50919050565b7f496e697469616c697a61626c653a20636f6e747261637420697320616c72656160008201527f647920696e697469616c697a6564000000000000000000000000000000000000602082015250565b6000610463602e83610300565b915061046e82610407565b604082019050919050565b6000602082019050818103600083015261049281610456565b9050919050565b7f4e487b7100000000000000000000000000000000000000000000000000000000600052604160045260246000fd5b60008190508160005260206000209050919050565b60006020601f8301049050919050565b600082821b905092915050565b60006008830261052a7fffffffffffffffffffffffffffffffffffffffffffffffffffffffffffffffff826104ed565b61053486836104ed565b95508019841693508086168417925050509392505050565b6000819050919050565b6000819050919050565b600061057b6105766105718461054c565b610556565b61054c565b9050919050565b6000819050919050565b61059583610560565b6105a96105a182610582565b8484546104fa565b825550505050565b600090565b6105be6105b1565b6105c981848461058c565b505050565b5b818110156105ed576105e26000826105b6565b6001810190506105cf565b5050565b601f82111561063257610603816104c8565b61060c846104dd565b8101602085101561061b578190505b61062f610627856104dd565b8301826105ce565b50505b505050565b600082821c905092915050565b600061065560001984600802610637565b1980831691505092915050565b600061066e8383610644565b9150826002028217905092915050565b610687826102f5565b67ffffffffffffffff8111156106a05761069f610499565b5b6106aa82546103d6565b6106b58282856105f1565b600060209050601f8311600181146106e857600084156106d6578287015190505b6106e08582610662565b865550610748565b601f1984166106f6866104c8565b60005b8281101561071e578489015182556001820191506020850194506020810190506106f9565b8683101561073b5784890151610737601f891682610644565b8355505b6001600288020188555050505b505050505050565b6000819050919050565b600060ff82169050919050565b600061078261077d61077884610750565b610556565b61075a565b9050919050565b61079281610767565b82525050565b60006020820190506107ad6000830184610789565b9291505056fea264697066735822122058b5b911c7b466dd6d19a71fc060c2d4effc46085a5488163ddf4266d98de74c64736f6c63430008120033",
  "linkReferences": {},
  "deployedLinkReferences": {}
}