{"contracts/Implementation2.sol":{"Implementation2":{"abi":[{"anonymous":false,"inputs":[{"indexed":false,"internalType":"uint8","name":"version","type":"uint8"}],"name":"Initialized","type":"event"},{"inputs":[{"internalType":"uint256","name":"factor","type":"uint256"}],"name":"add","outputs":[],"stateMutability":"nonpayable","type":"function"},{"inputs":[],"name":"count","outputs":[{"internalType":"uint256","name":"","type":"uint256"}],"stateMutability":"view","type":"function"},{"inputs":[],"name":"getContractVersion","outputs":[{"internalType":"uint256","name":"","type":"uint256"}],"stateMutability":"pure","type":"function"},{"inputs":[],"name":"getCount","outputs":[{"internalType":"uint256","name":"","type":"uint256"}],"stateMutability":"view","type":"function"},{"inputs":[{"internalType":"uint256","name":"initial_count","type":"uint256"}],"name":"initialize","outputs":[],"stateMutability":"nonpayable","type":"function"},{"inputs":[{"internalType":"uint256","name":"factor","type":"uint256"}],"name":"substract","outputs":[],"stateMutability":"nonpayable","type":"function"}],"evm":{"bytecode":{"linkReferences":{},"object":"608060405234801561001057600080fd5b50610292806100206000396000f3fe608060405234801561001057600080fd5b50600436106100625760003560e01c806306661abd146100675780631003e2d214610082578063693af854146100975780638aa10435146100aa578063a87d942c146100b1578063fe4b84df146100b9575b600080fd5b61007060015481565b60405190815260200160405180910390f35b610095610090366004610201565b6100cc565b005b6100956100a5366004610201565b6100e0565b6002610070565b600154610070565b6100956100c7366004610201565b6100ee565b806001546100da9190610230565b60015550565b806001546100da9190610249565b600054610100900460ff161580801561010e5750600054600160ff909116105b806101285750303b158015610128575060005460ff166001145b61018f5760405162461bcd60e51b815260206004820152602e60248201527f496e697469616c697a61626c653a20636f6e747261637420697320616c72656160448201526d191e481a5b9a5d1a585b1a5e995960921b606482015260840160405180910390fd5b6000805460ff1916600117905580156101b2576000805461ff0019166101001790555b600182905580156101fd576000805461ff0019169055604051600181527f7f26b83ff96e1f2b6a682f133852f6798a09c465da95921460cefb38474024989060200160405180910390a15b5050565b60006020828403121561021357600080fd5b5035919050565b634e487b7160e01b600052601160045260246000fd5b808201808211156102435761024361021a565b92915050565b818103818111156102435761024361021a56fea26469706673582212203b1aa7a5dd1a3906f931da828cf34b653ce8468e294e0c4c9f0fbf0761ad974c64736f6c63430008120033","opcodes":"PUSH1 0x80 PUSH1 0x40 MSTORE CALLVALUE DUP1 ISZERO PUSH2 0x10 JUMPI PUSH1 0x0 DUP1 REVERT JUMPDEST POP PUSH2 0x292 DUP1 PUSH2 0x20 PUSH1 0x0 CODECOPY PUSH1 0x0 RETURN INVALID PUSH1 0x80 PUSH1 0x40 MSTORE CALLVALUE DUP1 ISZERO PUSH2 0x10 JUMPI PUSH1 0x0 DUP1 REVERT JUMPDEST POP PUSH1 0x4 CALLDATASIZE LT PUSH2 0x62 JUMPI PUSH1 0x0 CALLDATALOAD PUSH1 0xE0 SHR DUP1 PUSH4 0x6661ABD EQ PUSH2 0x67 JUMPI DUP1 PUSH4 0x1003E2D2 EQ PUSH2 0x82 JUMPI DUP1 PUSH4 0x693AF854 EQ PUSH2 0x97 JUMPI DUP1 PUSH4 0x8AA10435 EQ PUSH2 0xAA JUMPI DUP1 PUSH4 0xA87D942C EQ PUSH2 0xB1 JUMPI DUP1 PUSH4 0xFE4B84DF EQ PUSH2 0xB9 JUMPI JUMPDEST PUSH1 0x0 DUP1 REVERT JUMPDEST PUSH2 0x70 PUSH1 0x1 SLOAD DUP2 JUMP JUMPDEST PUSH1 0x40 MLOAD SWAP1 DUP2 MSTORE PUSH1 0x20 ADD PUSH1 0x40 MLOAD DUP1 SWAP2 SUB SWAP1 RETURN JUMPDEST PUSH2 0x95 PUSH2 0x90 CALLDATASIZE PUSH1 0x4 PUSH2 0x201 JUMP JUMPDEST PUSH2 0xCC JUMP JUMPDEST STOP JUMPDEST PUSH2 0x95 PUSH2 0xA5 CALLDATASIZE PUSH1 0x4 PUSH2 0x201 JUMP JUMPDEST PUSH2 0xE0 JUMP JUMPDEST PUSH1 0x2 PUSH2 0x70 JUMP JUMPDEST PUSH1 0x1 SLOAD PUSH2 0x70 JUMP JUMPDEST PUSH2 0x95 PUSH2 0xC7 CALLDATASIZE PUSH1 0x4 PUSH2 0x201 JUMP JUMPDEST PUSH2 0xEE JUMP JUMPDEST DUP1 PUSH1 0x1 SLOAD PUSH2 0xDA SWAP2 SWAP1 PUSH2 0x230 JUMP JUMPDEST PUSH1 0x1 SSTORE POP JUMP JUMPDEST DUP1 PUSH1 0x1 SLOAD PUSH2 0xDA SWAP2 SWAP1 PUSH2 0x249 JUMP JUMPDEST PUSH1 0x0 SLOAD PUSH2 0x100 SWAP1 DIV PUSH1 0xFF AND ISZERO DUP1 DUP1 ISZERO PUSH2 0x10E JUMPI POP PUSH1 0x0 SLOAD PUSH1 0x1 PUSH1 0xFF SWAP1 SWAP2 AND LT JUMPDEST DUP1 PUSH2 0x128 JUMPI POP ADDRESS EXTCODESIZE ISZERO DUP1 ISZERO PUSH2 0x128 JUMPI POP PUSH1 0x0 SLOAD PUSH1 0xFF AND PUSH1 0x1 EQ JUMPDEST PUSH2 0x18F JUMPI PUSH1 0x40 MLOAD PUSH3 0x461BCD PUSH1 0xE5 SHL DUP2 MSTORE PUSH1 0x20 PUSH1 0x4 DUP3 ADD MSTORE PUSH1 0x2E PUSH1 0x24 DUP3 ADD MSTORE PUSH32 0x496E697469616C697A61626C653A20636F6E747261637420697320616C726561 PUSH1 0x44 DUP3 ADD MSTORE PUSH14 0x191E481A5B9A5D1A585B1A5E9959 PUSH1 0x92 SHL PUSH1 0x64 DUP3 ADD MSTORE PUSH1 0x84 ADD PUSH1 0x40 MLOAD DUP1 SWAP2 SUB SWAP1 REVERT JUMPDEST PUSH1 0x0 DUP1 SLOAD PUSH1 0xFF NOT AND PUSH1 0x1 OR SWAP1 SSTORE DUP1 ISZERO PUSH2 0x1B2 JUMPI PUSH1 0x0 DUP1 SLOAD PUSH2 0xFF00 NOT AND PUSH2 0x100 OR SWAP1 SSTORE JUMPDEST PUSH1 0x1 DUP3 SWAP1 SSTORE DUP1 ISZERO PUSH2 0x1FD JUMPI PUSH1 0x0 DUP1 SLOAD PUSH2 0xFF00 NOT AND SWAP1 SSTORE PUSH1 0x40 MLOAD PUSH1 0x1 DUP2 MSTORE PUSH32 0x7F26B83FF96E1F2B6A682F133852F6798A09C465DA95921460CEFB3847402498 SWAP1 PUSH1 0x20 ADD PUSH1 0x40 MLOAD DUP1 SWAP2 SUB SWAP1 LOG1 JUMPDEST POP POP JUMP JUMPDEST PUSH1 0x0 PUSH1 0x20 DUP3 DUP5 SUB SLT ISZERO PUSH2 0x213 JUMPI PUSH1 0x0 DUP1 REVERT JUMPDEST POP CALLDATALOAD SWAP2 SWAP1 POP JUMP JUMPDEST PUSH4 0x4E487B71 PUSH1 0xE0 SHL PUSH1 0x0 MSTORE PUSH1 0x11 PUSH1 0x4 MSTORE PUSH1 0x24 PUSH1 0x0 REVERT JUMPDEST DUP1 DUP3 ADD DUP1 DUP3 GT ISZERO PUSH2 0x243 JUMPI PUSH2 0x243 PUSH2 0x21A JUMP JUMPDEST SWAP3 SWAP2 POP POP JUMP JUMPDEST DUP2 DUP2 SUB DUP2 DUP2 GT ISZERO PUSH2 0x243 JUMPI PUSH2 0x243 PUSH2 0x21A JUMP INVALID LOG2 PUSH5 0x6970667358 0x22 SLT KECCAK256 EXTCODESIZE BYTE 0xA7 0xA5 0xDD BYTE CODECOPY MOD 0xF9 BALANCE 0xDA DUP3 DUP13 RETURN 0x4B PUSH6 0x3CE8468E294E 0xC 0x4C SWAP16 0xF 0xBF SMOD PUSH2 0xAD97 0x4C PUSH5 0x736F6C6343 STOP ADDMOD SLT STOP CALLER "},"methodIdentifiers":{"add(uint256)":"1003e2d2","count()":"06661abd","getContractVersion()":"8aa10435","getCount()":"a87d942c","initialize(uint256)":"fe4b84df","substract(uint256)":"693af854"}},"storageLayout":{"storage":[{"astId":876,"contract":"contracts/Implementation2.sol:Implementation2","label":"_initialized","offset":0,"slot":"0","type":"t_uint8"},{"astId":879,"contract":"contracts/Implementation2.sol:Implementation2","label":"_initializing","offset":1,"slot":"0","type":"t_bool"},{"astId":1507,"contract":"contracts/Implementation2.sol:Implementation2","label":"count","offset":0,"slot":"1","type":"t_uint256"}],"types":{"t_bool":{"encoding":"inplace","label":"bool","numberOfBytes":"1"},"t_uint256":{"encoding":"inplace","label":"uint256","numberOfBytes":"32"},"t_uint8":{"encoding":"inplace","label":"uint8","numberOfBytes":"1"}}}}}}