{
  "contractName": "CalleeLocalParams",
  "abi": [
    {
      "inputs": [
        {
          "internalType": "int256",
          "name": "_a",
          "type": "int256"
        },
        {
          "internalType": "string",
          "name": "_b",
          "type": "string"
        },
        {
          "internalType": "address",
          "name": "_c",
          "type": "address"
        }
      ],
      "stateMutability": "nonpayable",
      "type": "constructor"
    },
    {
      "inputs": [],
      "name": "a",
      "outputs": [
        {
          "internalType": "int256",
          "name": "",
          "type": "int256"
        }
      ],
      "stateMutability": "view",
      "type": "function"
    },
    {
      "inputs": [],
      "name": "b",
      "outputs": [
        {
          "internalType": "string",
          "name": "",
          "type": "string"
        }
      ],
      "stateMutability": "view",
      "type": "function"
    },
    {
      "inputs": [],
      "name": "c",
      "outputs": [
        {
          "internalType": "address",
          "name": "",
          "type": "address"
        }
      ],
      "stateMutability": "view",
      "type": "function"
    },
    {
      "inputs": [
        {
          "internalType": "int256",
          "name": "num",
          "type": "int256"
        }
      ],
      "name": "increment",
      "outputs": [
        {
          "internalType": "int256",
          "name": "result",
          "type": "int256"
        }
      ],
      "stateMutability": "pure",
      "type": "function"
    }
  ],
  "bytecode": "0x60806040523480156200001157600080fd5b506040516200092a3803806200092a83398181016040528101906200003791906200038e565b82600081905550816001908051906020019062000056929190620000a1565b5080600260006101000a81548173ffffffffffffffffffffffffffffffffffffffff021916908373ffffffffffffffffffffffffffffffffffffffff1602179055505050506200046d565b828054620000af9062000438565b90600052602060002090601f016020900481019282620000d357600085556200011f565b82601f10620000ee57805160ff19168380011785556200011f565b828001600101855582156200011f579182015b828111156200011e57825182559160200191906001019062000101565b5b5090506200012e919062000132565b5090565b5b808211156200014d57600081600090555060010162000133565b5090565b6000604051905090565b600080fd5b600080fd5b6000819050919050565b6200017a8162000165565b81146200018657600080fd5b50565b6000815190506200019a816200016f565b92915050565b600080fd5b600080fd5b6000601f19601f8301169050919050565b7f4e487b7100000000000000000000000000000000000000000000000000000000600052604160045260246000fd5b620001f582620001aa565b810181811067ffffffffffffffff82111715620002175762000216620001bb565b5b80604052505050565b60006200022c62000151565b90506200023a8282620001ea565b919050565b600067ffffffffffffffff8211156200025d576200025c620001bb565b5b6200026882620001aa565b9050602081019050919050565b60005b838110156200029557808201518184015260208101905062000278565b83811115620002a5576000848401525b50505050565b6000620002c2620002bc846200023f565b62000220565b905082815260208101848484011115620002e157620002e0620001a5565b5b620002ee84828562000275565b509392505050565b600082601f8301126200030e576200030d620001a0565b5b815162000320848260208601620002ab565b91505092915050565b600073ffffffffffffffffffffffffffffffffffffffff82169050919050565b6000620003568262000329565b9050919050565b620003688162000349565b81146200037457600080fd5b50565b60008151905062000388816200035d565b92915050565b600080600060608486031215620003aa57620003a96200015b565b5b6000620003ba8682870162000189565b935050602084015167ffffffffffffffff811115620003de57620003dd62000160565b5b620003ec86828701620002f6565b9250506040620003ff8682870162000377565b9150509250925092565b7f4e487b7100000000000000000000000000000000000000000000000000000000600052602260045260246000fd5b600060028204905060018216806200045157607f821691505b60208210810362000467576200046662000409565b5b50919050565b6104ad806200047d6000396000f3fe608060405234801561001057600080fd5b506004361061004c5760003560e01c80630dbe671f146100515780634df7e3d01461006f578063c03c30031461008d578063c3da42b8146100bd575b600080fd5b6100596100db565b60405161006691906101c4565b60405180910390f35b6100776100e1565b6040516100849190610278565b60405180910390f35b6100a760048036038101906100a291906102cb565b61016f565b6040516100b491906101c4565b60405180910390f35b6100c5610185565b6040516100d29190610339565b60405180910390f35b60005481565b600180546100ee90610383565b80601f016020809104026020016040519081016040528092919081815260200182805461011a90610383565b80156101675780601f1061013c57610100808354040283529160200191610167565b820191906000526020600020905b81548152906001019060200180831161014a57829003601f168201915b505050505081565b600081600161017e91906103e3565b9050919050565b600260009054906101000a900473ffffffffffffffffffffffffffffffffffffffff1681565b6000819050919050565b6101be816101ab565b82525050565b60006020820190506101d960008301846101b5565b92915050565b600081519050919050565b600082825260208201905092915050565b60005b838110156102195780820151818401526020810190506101fe565b83811115610228576000848401525b50505050565b6000601f19601f8301169050919050565b600061024a826101df565b61025481856101ea565b93506102648185602086016101fb565b61026d8161022e565b840191505092915050565b60006020820190508181036000830152610292818461023f565b905092915050565b600080fd5b6102a8816101ab565b81146102b357600080fd5b50565b6000813590506102c58161029f565b92915050565b6000602082840312156102e1576102e061029a565b5b60006102ef848285016102b6565b91505092915050565b600073ffffffffffffffffffffffffffffffffffffffff82169050919050565b6000610323826102f8565b9050919050565b61033381610318565b82525050565b600060208201905061034e600083018461032a565b92915050565b7f4e487b7100000000000000000000000000000000000000000000000000000000600052602260045260246000fd5b6000600282049050600182168061039b57607f821691505b6020821081036103ae576103ad610354565b5b50919050565b7f4e487b7100000000000000000000000000000000000000000000000000000000600052601160045260246000fd5b60006103ee826101ab565b91506103f9836101ab565b9250817f7fffffffffffffffffffffffffffffffffffffffffffffffffffffffffffffff03831360008312151615610434576104336103b4565b5b817f800000000000000000000000000000000000000000000000000000000000000003831260008312161561046c5761046b6103b4565b5b82820190509291505056fea2646970667358221220acb73f4d8095ca4e584c2543fd71400848de05843c9e4bd01a3f92fcd237251564736f6c634300080d0033",
  "immutableReferences": {},
  "source": "// SPDX-License-Identifier: MIT\npragma solidity ^0.8.0;\n\nimport \"./ICallee.sol\";\n\ncontract CalleeLocalParams {\n    int public a;\n    string public b;\n    address public c;\n\n    constructor(int _a, string memory _b, address _c) {\n        a = _a;\n        b = _b;\n        c = _c;\n    }\n\n    function increment(int num) external pure returns(int result){\n        return 1 + num;\n    }\n}\n",
  "sourcePath": "/home/terra/opensource/tosca-chain/smart-contract-example/contracts/CalleeLocalParams.sol",
  "compiler": {
    "name": "solc",
    "version": "0.8.13+commit.abaa5c0e.Emscripten.clang"
  },
  "schemaVersion": "3.4.6",
  "updatedAt": "2022-04-13T12:43:29.586Z",
  "devdoc": {
    "kind": "dev",
    "methods": {},
    "version": 1
  },
  "userdoc": {
    "kind": "user",
    "methods": {},
    "version": 1
  }
}