{
  "_format": "hh-sol-artifact-1",
  "contractName": "Implementation2",
  "sourceName": "contracts/Implementation2.sol",
  "abi": [
    {
      "anonymous": false,
      "inputs": [
        {
          "indexed": false,
          "internalType": "uint8",
          "name": "version",
          "type": "uint8"
        }
      ],
      "name": "Initialized",
      "type": "event"
    },
    {
      "inputs": [
        {
          "internalType": "uint256",
          "name": "factor",
          "type": "uint256"
        }
      ],
      "name": "add",
      "outputs": [],
      "stateMutability": "nonpayable",
      "type": "function"
    },
    {
      "inputs": [],
      "name": "count",
      "outputs": [
        {
          "internalType": "uint256",
          "name": "",
          "type": "uint256"
        }
      ],
      "stateMutability": "view",
      "type": "function"
    },
    {
      "inputs": [],
      "name": "getContractVersion",
      "outputs": [
        {
          "internalType": "uint256",
          "name": "",
          "type": "uint256"
        }
      ],
      "stateMutability": "pure",
      "type": "function"
    },
    {
      "inputs": [],
      "name": "getCount",
      "outputs": [
        {
          "internalType": "uint256",
          "name": "",
          "type": "uint256"
        }
      ],
      "stateMutability": "view",
      "type": "function"
    },
    {
      "inputs": [
        {
          "internalType": "uint256",
          "name": "initial_count",
          "type": "uint256"
        }
      ],
      "name": "initialize",
      "outputs": [],
      "stateMutability": "nonpayable",
      "type": "function"
    },
    {
      "inputs": [
        {
          "internalType": "uint256",
          "name": "factor",
          "type": "uint256"
        }
      ],
      "name": "substract",
      "outputs": [],
      "stateMutability": "nonpayable",
      "type": "function"
    }
  ],
  "bytecode": "0x608060405234801561001057600080fd5b5061052c806100206000396000f3fe608060405234801561001057600080fd5b50600436106100625760003560e01c806306661abd146100675780631003e2d214610085578063693af854146100a15780638aa10435146100bd578063a87d942c146100db578063fe4b84df146100f9575b600080fd5b61006f610115565b60405161007c91906102d6565b60405180910390f35b61009f600480360381019061009a9190610322565b61011b565b005b6100bb60048036038101906100b69190610322565b610132565b005b6100c5610149565b6040516100d291906102d6565b60405180910390f35b6100e3610152565b6040516100f091906102d6565b60405180910390f35b610113600480360381019061010e9190610322565b61015c565b005b60015481565b80600154610129919061037e565b60018190555050565b8060015461014091906103b2565b60018190555050565b60006002905090565b6000600154905090565b60008060019054906101000a900460ff1615905080801561018d5750600160008054906101000a900460ff1660ff16105b806101ba575061019c3061029a565b1580156101b95750600160008054906101000a900460ff1660ff16145b5b6101f9576040517f08c379a00000000000000000000000000000000000000000000000000000000081526004016101f090610469565b60405180910390fd5b60016000806101000a81548160ff021916908360ff1602179055508015610236576001600060016101000a81548160ff0219169083151502179055505b8160018190555080156102965760008060016101000a81548160ff0219169083151502179055507f7f26b83ff96e1f2b6a682f133852f6798a09c465da95921460cefb3847402498600160405161028d91906104db565b60405180910390a15b5050565b6000808273ffffffffffffffffffffffffffffffffffffffff163b119050919050565b6000819050919050565b6102d0816102bd565b82525050565b60006020820190506102eb60008301846102c7565b92915050565b600080fd5b6102ff816102bd565b811461030a57600080fd5b50565b60008135905061031c816102f6565b92915050565b600060208284031215610338576103376102f1565b5b60006103468482850161030d565b91505092915050565b7f4e487b7100000000000000000000000000000000000000000000000000000000600052601160045260246000fd5b6000610389826102bd565b9150610394836102bd565b92508282019050808211156103ac576103ab61034f565b5b92915050565b60006103bd826102bd565b91506103c8836102bd565b92508282039050818111156103e0576103df61034f565b5b92915050565b600082825260208201905092915050565b7f496e697469616c697a61626c653a20636f6e747261637420697320616c72656160008201527f647920696e697469616c697a6564000000000000000000000000000000000000602082015250565b6000610453602e836103e6565b915061045e826103f7565b604082019050919050565b6000602082019050818103600083015261048281610446565b9050919050565b6000819050919050565b600060ff82169050919050565b6000819050919050565b60006104c56104c06104bb84610489565b6104a0565b610493565b9050919050565b6104d5816104aa565b82525050565b60006020820190506104f060008301846104cc565b9291505056fea2646970667358221220b6eec5e8ff3dc4d35cb081da3738c1e24f9b51322ebce350069d189fc88409e064736f6c63430008130033",
  "linkReferences": {},
  "deployedLinkReferences": {}
}