{
  "_format": "hh-sol-artifact-1",
  "contractName": "BeaconProxyPatternV2",
  "sourceName": "contracts/BeaconProxyPatternV2.sol",
  "abi": [
    {
      "inputs": [],
      "stateMutability": "nonpayable",
      "type": "constructor"
    },
    {
      "anonymous": false,
      "inputs": [
        {
          "indexed": false,
          "internalType": "uint8",
          "name": "version",
          "type": "uint8"
        }
      ],
      "name": "Initialized",
      "type": "event"
    },
    {
      "inputs": [],
      "name": "getContractNameWithVersion",
      "outputs": [
        {
          "internalType": "string",
          "name": "",
          "type": "string"
        }
      ],
      "stateMutability": "pure",
      "type": "function"
    },
    {
      "inputs": [],
      "name": "initialize",
      "outputs": [],
      "stateMutability": "nonpayable",
      "type": "function"
    },
    {
      "inputs": [],
      "name": "versionAwareContractName",
      "outputs": [
        {
          "internalType": "string",
          "name": "",
          "type": "string"
        }
      ],
      "stateMutability": "view",
      "type": "function"
    }
  ],
  "bytecode": "0x608060405234801561001057600080fd5b5061001f61002460201b60201c565b6101be565b600060019054906101000a900460ff1615610074576040517f08c379a000000000000000000000000000000000000000000000000000000000815260040161006b90610167565b60405180910390fd5b60ff801660008054906101000a900460ff1660ff16146100e25760ff6000806101000a81548160ff021916908360ff1602179055507f7f26b83ff96e1f2b6a682f133852f6798a09c465da95921460cefb384740249860ff6040516100d991906101a3565b60405180910390a15b565b600082825260208201905092915050565b7f496e697469616c697a61626c653a20636f6e747261637420697320696e69746960008201527f616c697a696e6700000000000000000000000000000000000000000000000000602082015250565b60006101516027836100e4565b915061015c826100f5565b604082019050919050565b6000602082019050818103600083015261018081610144565b9050919050565b600060ff82169050919050565b61019d81610187565b82525050565b60006020820190506101b86000830184610194565b92915050565b61075d806101cd6000396000f3fe608060405234801561001057600080fd5b50600436106100415760003560e01c8063304bd906146100465780638129fc1c146100645780639ac5baa31461006e575b600080fd5b61004e61008c565b60405161005b9190610325565b60405180910390f35b61006c61011a565b005b610076610258565b6040516100839190610325565b60405180910390f35b6001805461009990610376565b80601f01602080910402602001604051908101604052809291908181526020018280546100c590610376565b80156101125780601f106100e757610100808354040283529160200191610112565b820191906000526020600020905b8154815290600101906020018083116100f557829003601f168201915b505050505081565b6002600060019054906101000a900460ff1615801561014b57508060ff1660008054906101000a900460ff1660ff16105b61018a576040517f08c379a000000000000000000000000000000000000000000000000000000000815260040161018190610419565b60405180910390fd5b806000806101000a81548160ff021916908360ff1602179055506001600060016101000a81548160ff0219169083151502179055506040518060400160405280601881526020017f426561636f6e2050726f7879205061747465726e3a205632000000000000000081525060019081610203919061061e565b5060008060016101000a81548160ff0219169083151502179055507f7f26b83ff96e1f2b6a682f133852f6798a09c465da95921460cefb38474024988160405161024d919061070c565b60405180910390a150565b60606040518060400160405280601881526020017f426561636f6e2050726f7879205061747465726e3a2056320000000000000000815250905090565b600081519050919050565b600082825260208201905092915050565b60005b838110156102cf5780820151818401526020810190506102b4565b60008484015250505050565b6000601f19601f8301169050919050565b60006102f782610295565b61030181856102a0565b93506103118185602086016102b1565b61031a816102db565b840191505092915050565b6000602082019050818103600083015261033f81846102ec565b905092915050565b7f4e487b7100000000000000000000000000000000000000000000000000000000600052602260045260246000fd5b6000600282049050600182168061038e57607f821691505b6020821081036103a1576103a0610347565b5b50919050565b7f496e697469616c697a61626c653a20636f6e747261637420697320616c72656160008201527f647920696e697469616c697a6564000000000000000000000000000000000000602082015250565b6000610403602e836102a0565b915061040e826103a7565b604082019050919050565b60006020820190508181036000830152610432816103f6565b9050919050565b7f4e487b7100000000000000000000000000000000000000000000000000000000600052604160045260246000fd5b60008190508160005260206000209050919050565b60006020601f8301049050919050565b600082821b905092915050565b6000600883026104ca7fffffffffffffffffffffffffffffffffffffffffffffffffffffffffffffffff8261048d565b6104d4868361048d565b95508019841693508086168417925050509392505050565b6000819050919050565b6000819050919050565b600061051b610516610511846104ec565b6104f6565b6104ec565b9050919050565b6000819050919050565b61053583610500565b61054961054182610522565b84845461049a565b825550505050565b600090565b61055e610551565b61056981848461052c565b505050565b5b8181101561058d57610582600082610556565b60018101905061056f565b5050565b601f8211156105d2576105a381610468565b6105ac8461047d565b810160208510156105bb578190505b6105cf6105c78561047d565b83018261056e565b50505b505050565b600082821c905092915050565b60006105f5600019846008026105d7565b1980831691505092915050565b600061060e83836105e4565b9150826002028217905092915050565b61062782610295565b67ffffffffffffffff8111156106405761063f610439565b5b61064a8254610376565b610655828285610591565b600060209050601f8311600181146106885760008415610676578287015190505b6106808582610602565b8655506106e8565b601f19841661069686610468565b60005b828110156106be57848901518255600182019150602085019450602081019050610699565b868310156106db57848901516106d7601f8916826105e4565b8355505b6001600288020188555050505b505050505050565b600060ff82169050919050565b610706816106f0565b82525050565b600060208201905061072160008301846106fd565b9291505056fea26469706673582212205801725b1fd906e791e96780648f7b8ff82b0922e040c86aa41845789acb84aa64736f6c63430008120033",
  "linkReferences": {},
  "deployedLinkReferences": {}
}