{
  "contractName": "CallerConstructor",
  "abi": [
    {
      "inputs": [
        {
          "internalType": "address",
          "name": "_newCallee",
          "type": "address"
        },
        {
          "internalType": "int256",
          "name": "_counter",
          "type": "int256"
        }
      ],
      "stateMutability": "nonpayable",
      "type": "constructor"
    },
    {
      "inputs": [],
      "name": "getCallee",
      "outputs": [
        {
          "internalType": "address",
          "name": "",
          "type": "address"
        }
      ],
      "stateMutability": "view",
      "type": "function"
    },
    {
      "inputs": [
        {
          "internalType": "int256",
          "name": "_number",
          "type": "int256"
        }
      ],
      "name": "call",
      "outputs": [
        {
          "internalType": "int256",
          "name": "",
          "type": "int256"
        }
      ],
      "stateMutability": "view",
      "type": "function"
    }
  ],
  "bytecode": "0x608060405234801561001057600080fd5b5060405161042438038061042483398181016040528101906100329190610119565b816000806101000a81548173ffffffffffffffffffffffffffffffffffffffff021916908373ffffffffffffffffffffffffffffffffffffffff160217905550806001819055505050610159565b600080fd5b600073ffffffffffffffffffffffffffffffffffffffff82169050919050565b60006100b082610085565b9050919050565b6100c0816100a5565b81146100cb57600080fd5b50565b6000815190506100dd816100b7565b92915050565b6000819050919050565b6100f6816100e3565b811461010157600080fd5b50565b600081519050610113816100ed565b92915050565b600080604083850312156101305761012f610080565b5b600061013e858286016100ce565b925050602061014f85828601610104565b9150509250929050565b6102bc806101686000396000f3fe608060405234801561001057600080fd5b50600436106100365760003560e01c80631b5852381461003b578063703aaa921461006b575b600080fd5b61005560048036038101906100509190610191565b610089565b60405161006291906101cd565b60405180910390f35b61007361012d565b6040516100809190610229565b60405180910390f35b60008060009054906101000a900473ffffffffffffffffffffffffffffffffffffffff1673ffffffffffffffffffffffffffffffffffffffff1663c03c3003836040518263ffffffff1660e01b81526004016100e591906101cd565b602060405180830381865afa158015610102573d6000803e3d6000fd5b505050506040513d601f19601f820116820180604052508101906101269190610259565b9050919050565b60008060009054906101000a900473ffffffffffffffffffffffffffffffffffffffff16905090565b600080fd5b6000819050919050565b61016e8161015b565b811461017957600080fd5b50565b60008135905061018b81610165565b92915050565b6000602082840312156101a7576101a6610156565b5b60006101b58482850161017c565b91505092915050565b6101c78161015b565b82525050565b60006020820190506101e260008301846101be565b92915050565b600073ffffffffffffffffffffffffffffffffffffffff82169050919050565b6000610213826101e8565b9050919050565b61022381610208565b82525050565b600060208201905061023e600083018461021a565b92915050565b60008151905061025381610165565b92915050565b60006020828403121561026f5761026e610156565b5b600061027d84828501610244565b9150509291505056fea26469706673582212205f2a9a2c8ea002766b431b7322c773c6fdc0a44c930bc72c57609286cbe5ae8b64736f6c634300080d0033",
  "immutableReferences": {},
  "source": "// SPDX-License-Identifier: MIT\npragma solidity ^0.8.0;\n\nimport \"./ICallee.sol\";\n\ncontract CallerConstructor {\n    ICallee private callee;\n    int counter;\n\n    constructor(address _newCallee, int _counter) {\n        callee = ICallee(_newCallee);   \n        counter = _counter;\n    }\n    \n    function getCallee() external view returns(address) {\n        return address(callee);\n    }\n\n    function call(int _number) external view returns(int) {\n        return callee.increment(_number);\n    }\n\n}",
  "sourcePath": "/home/terra/opensource/tosca-chain/smart-contract-example/contracts/CallerConstructorAddress.sol",
  "compiler": {
    "name": "solc",
    "version": "0.8.13+commit.abaa5c0e.Emscripten.clang"
  },
  "schemaVersion": "3.4.7",
  "updatedAt": "2022-04-30T15:27:25.671Z",
  "devdoc": {
    "kind": "dev",
    "methods": {},
    "version": 1
  },
  "userdoc": {
    "kind": "user",
    "methods": {},
    "version": 1
  }
}