{
  "contractName": "Destroy",
  "abi": [
    {
      "inputs": [
        {
          "internalType": "int256",
          "name": "num",
          "type": "int256"
        }
      ],
      "name": "increment",
      "outputs": [
        {
          "internalType": "int256",
          "name": "result",
          "type": "int256"
        }
      ],
      "stateMutability": "pure",
      "type": "function"
    },
    {
      "inputs": [
        {
          "internalType": "address payable",
          "name": "_to",
          "type": "address"
        }
      ],
      "name": "destroySmartContract",
      "outputs": [],
      "stateMutability": "nonpayable",
      "type": "function"
    }
  ],
  "bytecode": "0x608060405234801561001057600080fd5b506102cc806100206000396000f3fe608060405234801561001057600080fd5b50600436106100365760003560e01c806339df43ff1461003b578063c03c300314610057575b600080fd5b61005560048036038101906100509190610119565b610087565b005b610071600480360381019061006c919061017c565b6100a0565b60405161007e91906101b8565b60405180910390f35b8073ffffffffffffffffffffffffffffffffffffffff16ff5b60008160016100af9190610202565b9050919050565b600080fd5b600073ffffffffffffffffffffffffffffffffffffffff82169050919050565b60006100e6826100bb565b9050919050565b6100f6816100db565b811461010157600080fd5b50565b600081359050610113816100ed565b92915050565b60006020828403121561012f5761012e6100b6565b5b600061013d84828501610104565b91505092915050565b6000819050919050565b61015981610146565b811461016457600080fd5b50565b60008135905061017681610150565b92915050565b600060208284031215610192576101916100b6565b5b60006101a084828501610167565b91505092915050565b6101b281610146565b82525050565b60006020820190506101cd60008301846101a9565b92915050565b7f4e487b7100000000000000000000000000000000000000000000000000000000600052601160045260246000fd5b600061020d82610146565b915061021883610146565b9250817f7fffffffffffffffffffffffffffffffffffffffffffffffffffffffffffffff03831360008312151615610253576102526101d3565b5b817f800000000000000000000000000000000000000000000000000000000000000003831260008312161561028b5761028a6101d3565b5b82820190509291505056fea2646970667358221220a109e5a928629d15e681d6b4eb41adacbac75583e91b818a32bd993597c2bf7264736f6c634300080d0033",
  "immutableReferences": {},
  "source": "// SPDX-License-Identifier: MIT\npragma solidity ^0.8.0;\n\ncontract Destroy {\n    function increment(int num) external pure returns(int result){\n        return 1 + num;\n    }\n\n    function destroySmartContract(address payable _to) public {\n        selfdestruct(_to);\n    }\n}\n",
  "sourcePath": "/home/terra/opensource/tosca-chain/smart-contract-example/contracts/Destroy.sol",
  "compiler": {
    "name": "solc",
    "version": "0.8.13+commit.abaa5c0e.Emscripten.clang"
  },
  "schemaVersion": "3.4.6",
  "updatedAt": "2022-04-19T09:32:15.641Z",
  "devdoc": {
    "kind": "dev",
    "methods": {},
    "version": 1
  },
  "userdoc": {
    "kind": "user",
    "methods": {},
    "version": 1
  }
}