{
  "contractName": "DFCaptureFacet",
  "abi": [
    {
      "anonymous": false,
      "inputs": [
        {
          "indexed": false,
          "internalType": "address",
          "name": "player",
          "type": "address"
        },
        {
          "indexed": false,
          "internalType": "uint256",
          "name": "loc",
          "type": "uint256"
        }
      ],
      "name": "PlanetCaptured",
      "type": "event"
    },
    {
      "anonymous": false,
      "inputs": [
        {
          "indexed": false,
          "internalType": "address",
          "name": "player",
          "type": "address"
        },
        {
          "indexed": false,
          "internalType": "uint256",
          "name": "loc",
          "type": "uint256"
        }
      ],
      "name": "PlanetInvaded",
      "type": "event"
    },
    {
      "inputs": [
        {
          "internalType": "uint256[2]",
          "name": "_a",
          "type": "uint256[2]"
        },
        {
          "internalType": "uint256[2][2]",
          "name": "_b",
          "type": "uint256[2][2]"
        },
        {
          "internalType": "uint256[2]",
          "name": "_c",
          "type": "uint256[2]"
        },
        {
          "internalType": "uint256[9]",
          "name": "_input",
          "type": "uint256[9]"
        }
      ],
      "name": "invadePlanet",
      "outputs": [],
      "stateMutability": "nonpayable",
      "type": "function"
    },
    {
      "inputs": [
        {
          "internalType": "uint256",
          "name": "locationId",
          "type": "uint256"
        }
      ],
      "name": "capturePlanet",
      "outputs": [],
      "stateMutability": "nonpayable",
      "type": "function"
    },
    {
      "inputs": [
        {
          "internalType": "uint256",
          "name": "x",
          "type": "uint256"
        },
        {
          "internalType": "uint256",
          "name": "y",
          "type": "uint256"
        }
      ],
      "name": "planetInCaptureZone",
      "outputs": [
        {
          "internalType": "bool",
          "name": "",
          "type": "bool"
        }
      ],
      "stateMutability": "nonpayable",
      "type": "function"
    },
    {
      "inputs": [
        {
          "internalType": "uint256",
          "name": "n",
          "type": "uint256"
        }
      ],
      "name": "getIntFromUInt",
      "outputs": [
        {
          "internalType": "int256",
          "name": "",
          "type": "int256"
        }
      ],
      "stateMutability": "pure",
      "type": "function"
    }
  ],
  "bytecode": "0x608060405234801561001057600080fd5b50613074806100206000396000f3fe608060405234801561001057600080fd5b506004361061004c5760003560e01c80634404a74a14610051578063580c07f51461006d578063b69f62361461009d578063c8941a17146100b9575b600080fd5b61006b60048036038101906100669190611b01565b6100e9565b005b61008760048036038101906100829190611b6a565b6108e9565b6040516100949190611bc5565b60405180910390f35b6100b760048036038101906100b29190611be0565b610a9e565b005b6100d360048036038101906100ce9190611be0565b6112cb565b6040516100e09190611c26565b60405180910390f35b3073ffffffffffffffffffffffffffffffffffffffff16633af32abf336040518263ffffffff1660e01b81526004016101229190611c82565b602060405180830381865afa15801561013f573d6000803e3d6000fd5b505050506040513d601f19601f820116820180604052508101906101639190611cc9565b806101a05750610171611371565b73ffffffffffffffffffffffffffffffffffffffff163373ffffffffffffffffffffffffffffffffffffffff16145b6101df576040517f08c379a00000000000000000000000000000000000000000000000000000000081526004016101d690611d53565b60405180910390fd5b6101e76113a4565b60000160149054906101000a900460ff1615610238576040517f08c379a000000000000000000000000000000000000000000000000000000000815260040161022f90611dbf565b60405180910390fd5b6102406113b3565b60580160009054906101000a900460ff16610290576040517f08c379a000000000000000000000000000000000000000000000000000000000815260040161028790611e2b565b60405180910390fd5b6000816000600981106102a6576102a5611e4b565b5b602002015190503073ffffffffffffffffffffffffffffffffffffffff166349105550868686866040518563ffffffff1660e01b81526004016102ec94939291906120a7565b602060405180830381865afa158015610309573d6000803e3d6000fd5b505050506040513d601f19601f8201168201806040525081019061032d9190611cc9565b506103688260026009811061034557610344611e4b565b5b60200201518360036009811061035e5761035d611e4b565b5b60200201516108e9565b6103a7576040517f08c379a000000000000000000000000000000000000000000000000000000000815260040161039e9061213a565b60405180910390fd5b73__LibPlanet_____________________________633f324cf3826040518263ffffffff1660e01b81526004016103de9190612169565b60006040518083038186803b1580156103f657600080fd5b505af415801561040a573d6000803e3d6000fd5b5050505060006104186113a4565b600c016000838152602001908152602001600020604051806101a00160405290816000820160009054906101000a900473ffffffffffffffffffffffffffffffffffffffff1673ffffffffffffffffffffffffffffffffffffffff1673ffffffffffffffffffffffffffffffffffffffff168152602001600182015481526020016002820154815260200160038201548152602001600482015481526020016005820154815260200160068201548152602001600782015481526020016008820154815260200160098201548152602001600a8201548152602001600b820160009054906101000a900460ff16600481111561051757610516612184565b5b600481111561052957610528612184565b5b8152602001600b820160019054906101000a900460ff161515151581525050905060006105546113a4565b600e016000848152602001908152602001600020604051806101a00160405290816000820160009054906101000a900460ff161515151581526020016001820154815260200160028201548152602001600382015481526020016004820160009054906101000a900460ff1660038111156105d2576105d1612184565b5b60038111156105e4576105e3612184565b5b8152602001600582015481526020016006820154815260200160078201548152602001600882015481526020016009820160009054906101000a900460ff16151515158152602001600a8201548152602001600b820160009054906101000a900460ff16151515158152602001600c82015481525050905060006106666113a4565b600f0160008581526020019081526020016000209050816101600151156106c2576040517f08c379a00000000000000000000000000000000000000000000000000000000081526004016106b9906121ff565b60405180910390fd5b600073ffffffffffffffffffffffffffffffffffffffff168160020160009054906101000a900473ffffffffffffffffffffffffffffffffffffffff1673ffffffffffffffffffffffffffffffffffffffff1614610755576040517f08c379a000000000000000000000000000000000000000000000000000000000815260040161074c9061226b565b60405180910390fd5b600073ffffffffffffffffffffffffffffffffffffffff168160040160009054906101000a900473ffffffffffffffffffffffffffffffffffffffff1673ffffffffffffffffffffffffffffffffffffffff16146107e8576040517f08c379a00000000000000000000000000000000000000000000000000000000081526004016107df906122d7565b60405180910390fd5b3373ffffffffffffffffffffffffffffffffffffffff16836000015173ffffffffffffffffffffffffffffffffffffffff161461085a576040517f08c379a000000000000000000000000000000000000000000000000000000000815260040161085190612369565b60405180910390fd5b338160020160006101000a81548173ffffffffffffffffffffffffffffffffffffffff021916908373ffffffffffffffffffffffffffffffffffffffff1602179055504381600301819055507fc4c98289a1d378612fd24d7e1f2491de6d9d52c8aa776297710b2fd05723e0e733856040516108d7929190612398565b60405180910390a15050505050505050565b60006108f36113c2565b60006108fd6113b3565b605a01546109096113a4565b6017015461091791906123f0565b9050600081409050600061092a866112cb565b90506000610937866112cb565b905060005b6113886109476113a4565b600901546109559190612453565b811015610a8e5760006109666113b3565b60670154826109759190612484565b905060005b6109826113b3565b60670154811015610a79576000818361099b91906124de565b9050600087826040516020016109b2929190612580565b60405160208183030381529060405280519060200120905060008160001c905060006109de828861143f565b9050600081600001518a6109f291906125ac565b9050600082602001518a610a0691906125ac565b90506000610a348283610a199190612640565b8485610a259190612640565b610a2f9190612757565b611552565b9050610a3e6113b3565b605b01548111610a5f5760019e505050505050505050505050505050610a98565b505050505050508080610a71906127eb565b91505061097a565b50508080610a86906127eb565b91505061093c565b5060009450505050505b92915050565b3073ffffffffffffffffffffffffffffffffffffffff16633af32abf336040518263ffffffff1660e01b8152600401610ad79190611c82565b602060405180830381865afa158015610af4573d6000803e3d6000fd5b505050506040513d601f19601f82011682018060405250810190610b189190611cc9565b80610b555750610b26611371565b73ffffffffffffffffffffffffffffffffffffffff163373ffffffffffffffffffffffffffffffffffffffff16145b610b94576040517f08c379a0000000000000000000000000000000000000000000000000000000008152600401610b8b90611d53565b60405180910390fd5b610b9c6113a4565b60000160149054906101000a900460ff1615610bed576040517f08c379a0000000000000000000000000000000000000000000000000000000008152600401610be490611dbf565b60405180910390fd5b610bf56113b3565b60580160009054906101000a900460ff16610c45576040517f08c379a0000000000000000000000000000000000000000000000000000000008152600401610c3c90611e2b565b60405180910390fd5b73__LibPlanet_____________________________633f324cf3826040518263ffffffff1660e01b8152600401610c7c9190612169565b60006040518083038186803b158015610c9457600080fd5b505af4158015610ca8573d6000803e3d6000fd5b505050506000610cb66113a4565b600c016000838152602001908152602001600020604051806101a00160405290816000820160009054906101000a900473ffffffffffffffffffffffffffffffffffffffff1673ffffffffffffffffffffffffffffffffffffffff1673ffffffffffffffffffffffffffffffffffffffff168152602001600182015481526020016002820154815260200160038201548152602001600482015481526020016005820154815260200160068201548152602001600782015481526020016008820154815260200160098201548152602001600a8201548152602001600b820160009054906101000a900460ff166004811115610db557610db4612184565b5b6004811115610dc757610dc6612184565b5b8152602001600b820160019054906101000a900460ff16151515158152505090506000610df26113a4565b600e016000848152602001908152602001600020604051806101a00160405290816000820160009054906101000a900460ff161515151581526020016001820154815260200160028201548152602001600382015481526020016004820160009054906101000a900460ff166003811115610e7057610e6f612184565b5b6003811115610e8257610e81612184565b5b8152602001600582015481526020016006820154815260200160078201548152602001600882015481526020016009820160009054906101000a900460ff16151515158152602001600a8201548152602001600b820160009054906101000a900460ff16151515158152602001600c8201548152505090506000610f046113a4565b600f0160008581526020019081526020016000209050600073ffffffffffffffffffffffffffffffffffffffff168160040160009054906101000a900473ffffffffffffffffffffffffffffffffffffffff1673ffffffffffffffffffffffffffffffffffffffff1614610fad576040517f08c379a0000000000000000000000000000000000000000000000000000000008152600401610fa4906128a5565b60405180910390fd5b81610160015115610ff3576040517f08c379a0000000000000000000000000000000000000000000000000000000008152600401610fea906121ff565b60405180910390fd5b3373ffffffffffffffffffffffffffffffffffffffff16836000015173ffffffffffffffffffffffffffffffffffffffff1614611065576040517f08c379a000000000000000000000000000000000000000000000000000000000815260040161105c90612937565b60405180910390fd5b600073ffffffffffffffffffffffffffffffffffffffff168160020160009054906101000a900473ffffffffffffffffffffffffffffffffffffffff1673ffffffffffffffffffffffffffffffffffffffff16036110f8576040517f08c379a00000000000000000000000000000000000000000000000000000000081526004016110ef906129c9565b60405180910390fd5b604e60648460a0015161110b9190612484565b6111159190612453565b606484608001516111269190612484565b1015611167576040517f08c379a000000000000000000000000000000000000000000000000000000000815260040161115e90612a5b565b60405180910390fd5b436111706113b3565b60660154826003015461118391906124de565b11156111c4576040517f08c379a00000000000000000000000000000000000000000000000000000000081526004016111bb90612aed565b60405180910390fd5b338160040160006101000a81548173ffffffffffffffffffffffffffffffffffffffff021916908373ffffffffffffffffffffffffffffffffffffffff16021790555061120f6113b3565b605c01836101400151600a811061122957611228611e4b565b5b01546112336113a4565b60120160003373ffffffffffffffffffffffffffffffffffffffff1673ffffffffffffffffffffffffffffffffffffffff168152602001908152602001600020600401600082825461128591906124de565b925050819055507f3fada7af0dd5c763c949d065a81c872ff0346bafa4541740de442c98eed0625d33856040516112bd929190612398565b60405180910390a150505050565b6000807f30644e72e131a029b85045b68181585d2833e84879b9709143e1f593f00000019050808310611333576040517f08c379a000000000000000000000000000000000000000000000000000000000815260040161132a90612b7f565b60405180910390fd5b6002816113409190612453565b83111561136757828161135391906123f0565b600061135f91906125ac565b91505061136c565b829150505b919050565b600061137b6115af565b60040160009054906101000a900473ffffffffffffffffffffffffffffffffffffffff16905090565b60006113ae6115dc565b905090565b60006113bd611609565b905090565b60006113cc6113b3565b605a0154905060006113dc6113b3565b60570154436113eb91906123f0565b9050600082826113fb9190612453565b90508260018261140b91906124de565b6114159190612484565b61141d6113b3565b6057015461142b91906124de565b6114336113a4565b60170181905550505050565b6114476117f9565b6000610fff846114579190612b9f565b9050600061028b670de0b6b3a7640000836114729190612484565b61147c9190612453565b9050600062ffffff611000848861149391906123f0565b61149d9190612453565b6114a79190612b9f565b90506000610d1b90506000611388876114c09190612484565b82846114cc9190612453565b6114d691906124de565b905060006114e385611636565b905060006114f086611663565b90506040518060400160405280670de0b6b3a764000084866115129190612640565b61151c9190612bd0565b8152602001670de0b6b3a764000083866115369190612640565b6115409190612bd0565b81525097505050505050505092915050565b600080600260018461156491906124de565b61156e9190612453565b90508291505b818110156115a957809150600281828561158e9190612453565b61159891906124de565b6115a29190612453565b9050611574565b50919050565b6000807fc8fcad8db84d3cc18b4c41d551ea0ee66dd599cde068d998e57d5e09332c131c90508091505090565b6000807fcb7f1a525606efcbba7baaf9b0b55c468d0fd558cbf767967f538834dfa1232e90508091505090565b6000807f5fb65bb339c6bd3f2609a7342e6cb046e09f3e40f45242a5971904b021b5bb5390508091505090565b600061165c6002672b992ddfa23249d68161165457611653612424565b5b048301611663565b9050919050565b6000672b992ddfa23249d6600202672b992ddfa23249d6600202838161168c5761168b612424565b5b06634000000063ffffffff1602816116a7576116a6612424565b5b0491506000600160106001901b0360106008601c030384901c1690506000600160086001901b036008601c0385901c169050600080631000000063ffffffff168616149050600080632000000063ffffffff168716141590508161171057826001610100030392505b60006040518061044001604052806104048152602001612c3b610404913990506000600460ff1660028601029050600081830151905060006001600460080260ff166001901b03600460080260ff1683901c16905060006001600460080260ff166001901b0383169050600060108a84840302901c90506000886117965781830361179a565b8184015b905087156117c8577fffffffffffffffffffffffffffffffffffffffffffffffffffffffffffffffff810290505b637fffffff670de0b6b3a76400008202816117e6576117e5612424565b5b059b505050505050505050505050919050565b604051806040016040528060008152602001600081525090565b6000604051905090565b600080fd5b600080fd5b6000601f19601f8301169050919050565b7f4e487b7100000000000000000000000000000000000000000000000000000000600052604160045260246000fd5b61187082611827565b810181811067ffffffffffffffff8211171561188f5761188e611838565b5b80604052505050565b60006118a2611813565b90506118ae8282611867565b919050565b600067ffffffffffffffff8211156118ce576118cd611838565b5b602082029050919050565b600080fd5b6000819050919050565b6118f1816118de565b81146118fc57600080fd5b50565b60008135905061190e816118e8565b92915050565b6000611927611922846118b3565b611898565b90508060208402830185811115611941576119406118d9565b5b835b8181101561196a578061195688826118ff565b845260208401935050602081019050611943565b5050509392505050565b600082601f83011261198957611988611822565b5b6002611996848285611914565b91505092915050565b600067ffffffffffffffff8211156119ba576119b9611838565b5b602082029050919050565b60006119d86119d38461199f565b611898565b905080604084028301858111156119f2576119f16118d9565b5b835b81811015611a1b5780611a078882611974565b8452602084019350506040810190506119f4565b5050509392505050565b600082601f830112611a3a57611a39611822565b5b6002611a478482856119c5565b91505092915050565b600067ffffffffffffffff821115611a6b57611a6a611838565b5b602082029050919050565b6000611a89611a8484611a50565b611898565b90508060208402830185811115611aa357611aa26118d9565b5b835b81811015611acc5780611ab888826118ff565b845260208401935050602081019050611aa5565b5050509392505050565b600082601f830112611aeb57611aea611822565b5b6009611af8848285611a76565b91505092915050565b6000806000806102208587031215611b1c57611b1b61181d565b5b6000611b2a87828801611974565b9450506040611b3b87828801611a25565b93505060c0611b4c87828801611974565b925050610100611b5e87828801611ad6565b91505092959194509250565b60008060408385031215611b8157611b8061181d565b5b6000611b8f858286016118ff565b9250506020611ba0858286016118ff565b9150509250929050565b60008115159050919050565b611bbf81611baa565b82525050565b6000602082019050611bda6000830184611bb6565b92915050565b600060208284031215611bf657611bf561181d565b5b6000611c04848285016118ff565b91505092915050565b6000819050919050565b611c2081611c0d565b82525050565b6000602082019050611c3b6000830184611c17565b92915050565b600073ffffffffffffffffffffffffffffffffffffffff82169050919050565b6000611c6c82611c41565b9050919050565b611c7c81611c61565b82525050565b6000602082019050611c976000830184611c73565b92915050565b611ca681611baa565b8114611cb157600080fd5b50565b600081519050611cc381611c9d565b92915050565b600060208284031215611cdf57611cde61181d565b5b6000611ced84828501611cb4565b91505092915050565b600082825260208201905092915050565b7f506c61796572206973206e6f742077686974656c697374656400000000000000600082015250565b6000611d3d601983611cf6565b9150611d4882611d07565b602082019050919050565b60006020820190508181036000830152611d6c81611d30565b9050919050565b7f47616d6520697320706175736564000000000000000000000000000000000000600082015250565b6000611da9600e83611cf6565b9150611db482611d73565b602082019050919050565b60006020820190508181036000830152611dd881611d9c565b9050919050565b7f63617074757265207a6f6e6573206172652064697361626c6564000000000000600082015250565b6000611e15601a83611cf6565b9150611e2082611ddf565b602082019050919050565b60006020820190508181036000830152611e4481611e08565b9050919050565b7f4e487b7100000000000000000000000000000000000000000000000000000000600052603260045260246000fd5b600060029050919050565b600081905092915050565b6000819050919050565b611ea3816118de565b82525050565b6000611eb58383611e9a565b60208301905092915050565b6000602082019050919050565b611ed781611e7a565b611ee18184611e85565b9250611eec82611e90565b8060005b83811015611f1d578151611f048782611ea9565b9650611f0f83611ec1565b925050600181019050611ef0565b505050505050565b600060029050919050565b600081905092915050565b6000819050919050565b600081905092915050565b611f5981611e7a565b611f638184611f45565b9250611f6e82611e90565b8060005b83811015611f9f578151611f868782611ea9565b9650611f9183611ec1565b925050600181019050611f72565b505050505050565b6000611fb38383611f50565b60408301905092915050565b6000602082019050919050565b611fd581611f25565b611fdf8184611f30565b9250611fea82611f3b565b8060005b8381101561201b5781516120028782611fa7565b965061200d83611fbf565b925050600181019050611fee565b505050505050565b600060099050919050565b600081905092915050565b6000819050919050565b6000602082019050919050565b61205981612023565b612063818461202e565b925061206e82612039565b8060005b8381101561209f5781516120868782611ea9565b965061209183612043565b925050600181019050612072565b505050505050565b6000610220820190506120bd6000830187611ece565b6120ca6040830186611fcc565b6120d760c0830185611ece565b6120e5610100830184612050565b95945050505050565b7f706c616e6574206973206e6f7420696e2063617074757265207a6f6e65000000600082015250565b6000612124601d83611cf6565b915061212f826120ee565b602082019050919050565b6000602082019050818103600083015261215381612117565b9050919050565b612163816118de565b82525050565b600060208201905061217e600083018461215a565b92915050565b7f4e487b7100000000000000000000000000000000000000000000000000000000600052602160045260246000fd5b7f706c616e65742069732064657374726f79656400000000000000000000000000600082015250565b60006121e9601383611cf6565b91506121f4826121b3565b602082019050919050565b60006020820190508181036000830152612218816121dc565b9050919050565b7f706c616e657420697320616c726561647920696e766164656400000000000000600082015250565b6000612255601983611cf6565b91506122608261221f565b602082019050919050565b6000602082019050818103600083015261228481612248565b9050919050565b7f706c616e65742068617320616c7265616479206265656e206361707475726564600082015250565b60006122c1602083611cf6565b91506122cc8261228b565b602082019050919050565b600060208201905081810360008301526122f0816122b4565b9050919050565b7f796f752063616e206f6e6c7920696e7661646520706c616e65747320796f752060008201527f6f776e0000000000000000000000000000000000000000000000000000000000602082015250565b6000612353602383611cf6565b915061235e826122f7565b604082019050919050565b6000602082019050818103600083015261238281612346565b9050919050565b612392816118de565b82525050565b60006040820190506123ad6000830185611c73565b6123ba6020830184612389565b9392505050565b7f4e487b7100000000000000000000000000000000000000000000000000000000600052601160045260246000fd5b60006123fb826118de565b9150612406836118de565b925082821015612419576124186123c1565b5b828203905092915050565b7f4e487b7100000000000000000000000000000000000000000000000000000000600052601260045260246000fd5b600061245e826118de565b9150612469836118de565b92508261247957612478612424565b5b828204905092915050565b600061248f826118de565b915061249a836118de565b9250817fffffffffffffffffffffffffffffffffffffffffffffffffffffffffffffffff04831182151516156124d3576124d26123c1565b5b828202905092915050565b60006124e9826118de565b91506124f4836118de565b9250827fffffffffffffffffffffffffffffffffffffffffffffffffffffffffffffffff03821115612529576125286123c1565b5b828201905092915050565b6000819050919050565b6000819050919050565b61255961255482612534565b61253e565b82525050565b6000819050919050565b61257a612575826118de565b61255f565b82525050565b600061258c8285612548565b60208201915061259c8284612569565b6020820191508190509392505050565b60006125b782611c0d565b91506125c283611c0d565b9250827f8000000000000000000000000000000000000000000000000000000000000000018212600084121516156125fd576125fc6123c1565b5b827f7fffffffffffffffffffffffffffffffffffffffffffffffffffffffffffffff018213600084121615612635576126346123c1565b5b828203905092915050565b600061264b82611c0d565b915061265683611c0d565b9250827f7fffffffffffffffffffffffffffffffffffffffffffffffffffffffffffffff0482116000841360008413161615612695576126946123c1565b5b817f800000000000000000000000000000000000000000000000000000000000000005831260008412600084131616156126d2576126d16123c1565b5b827f8000000000000000000000000000000000000000000000000000000000000000058212600084136000841216161561270f5761270e6123c1565b5b827f7fffffffffffffffffffffffffffffffffffffffffffffffffffffffffffffff058212600084126000841216161561274c5761274b6123c1565b5b828202905092915050565b600061276282611c0d565b915061276d83611c0d565b9250817f7fffffffffffffffffffffffffffffffffffffffffffffffffffffffffffffff038313600083121516156127a8576127a76123c1565b5b817f80000000000000000000000000000000000000000000000000000000000000000383126000831216156127e0576127df6123c1565b5b828201905092915050565b60006127f6826118de565b91507fffffffffffffffffffffffffffffffffffffffffffffffffffffffffffffffff8203612828576128276123c1565b5b600182019050919050565b7f706c616e6574732063616e206f6e6c79206265206361707475726564206f6e6360008201527f6500000000000000000000000000000000000000000000000000000000000000602082015250565b600061288f602183611cf6565b915061289a82612833565b604082019050919050565b600060208201905081810360008301526128be81612882565b9050919050565b7f796f752063616e206f6e6c79206361707475726520706c616e65747320796f7560008201527f206f776e00000000000000000000000000000000000000000000000000000000602082015250565b6000612921602483611cf6565b915061292c826128c5565b604082019050919050565b6000602082019050818103600083015261295081612914565b9050919050565b7f796f75206d75737420696e766164652074686520706c616e6574206265666f7260008201527f6520636170747572696e67000000000000000000000000000000000000000000602082015250565b60006129b3602b83611cf6565b91506129be82612957565b604082019050919050565b600060208201905081810360008301526129e2816129a6565b9050919050565b7f706c616e6574206d75737420686176652038302520656e65726779206265666f60008201527f726520636170747572696e670000000000000000000000000000000000000000602082015250565b6000612a45602c83611cf6565b9150612a50826129e9565b604082019050919050565b60006020820190508181036000830152612a7481612a38565b9050919050565b7f796f752068617665206e6f742068656c642074686520706c616e6574206c6f6e60008201527f6720656e6f75676820746f206361707475726520697400000000000000000000602082015250565b6000612ad7603683611cf6565b9150612ae282612a7b565b604082019050919050565b60006020820190508181036000830152612b0681612aca565b9050919050565b7f4e756d626572206f757473696465206f66204162736f6c7574654d6f6450205260008201527f616e676500000000000000000000000000000000000000000000000000000000602082015250565b6000612b69602483611cf6565b9150612b7482612b0d565b604082019050919050565b60006020820190508181036000830152612b9881612b5c565b9050919050565b6000612baa826118de565b9150612bb5836118de565b925082612bc557612bc4612424565b5b828206905092915050565b6000612bdb82611c0d565b9150612be683611c0d565b925082612bf657612bf5612424565b5b600160000383147f800000000000000000000000000000000000000000000000000000000000000083141615612c2f57612c2e6123c1565b5b82820590509291505056fe0000000000c90f8801921d20025b26d703242abf03ed26e604b6195d057f00350647d97c0710a34507d95b9e08a2009a096a90490a3308bc0afb68050bc3ac350c8bd35e0d53db920e1bc2e40ee387660fab272b1072a0481139f0cf120116d512c8106e138edbb1145576b1151bdf8515e2144416a81305176dd9de183366e818f8b83c19bdcbf31a82a0251b4732ef1c0b826a1ccf8cb31d934fe51e56ca1e1f19f97b1fdcdc1b209f701c2161b39f2223a4c522e541af23a6887e2467775725280c5d25e845b626a8218527679df42826b92828e5714a29a3c4852a61b1012b1f34eb2bdc4e6f2c98fbba2d553afb2e110a622ecc681e2f8752623041c76030fbc54d31b54a5d326e54c73326e2c233def2873496824f354d905636041ad936ba2013376f9e46382493b038d8fe93398cdd323a402dd13af2eeb73ba51e293c56ba703d07c1d53db832a53e680b2c3f1749b73fc5ec974073f21d4121589a41ce1e64427a41d04325c13543d09aec447acd50452456bc45cd358f46756827471cece647c3c22e4869e664490f57ee49b415334a581c9d4afb6c974b9e038f4c3fdff34ce100344d8162c34e2106174ebfe8a44f5e08e24ffb654c5097fc5e5133cc9451ced46e5269126e53028517539b2aef5433027d54ca0a4a556040e255f5a4d2568a34a9571deef957b0d2555842dd5458d40e8c5964649759f3de125a8279995b1035ce5b9d11535c290acc5cb420df5d3e52365dc79d7b5e50015d5ed77c895f5e0db25fe3b38d60686cce60ec382f616f146b61f1003e6271fa6862f201ac637114cc63ef328f646c59bf64e889256563bf9165ddfbd266573cbb66cf811f6746c7d767bd0fbc683257aa68a69e806919e31f698c246b69fd614a6a6d98a36adcc9646b4af2786bb812d06c24295f6c8f351b6cf934fb6d6227f96dca0d146e30e3496e96a99c6efb5f116f5f02b16fc1938470231099708378fe70e2cbc571410804719e2cd171fa394872552c8472af05a67307c3cf735f662573b5ebd0740b53fa745f9dd074b2c8837504d3447555bd4b75a585ce75f42c0a7641af3c768e0ea576d9498877235f2c776c4eda77b417df77fab988784033287884841378c7aba17909a92c794a7c11798a23b079c89f6d7a05eeac7a4210d87a7d055a7ab6cba37aef63237b26cb4e7b5d039d7b920b887bc5e28f7bf8882f7c29fbed7c5a3d4f7c894bdd7cb727237ce3ceb17d0f42177d3980eb7d628ac57d8a5f3f7db0fdf77dd6668e7dfa98a77e1d93e97e3f57fe7e5fe4927e7f39567e9d55fb7eba3a387ed5e5c57ef0585f7f0991c37f2191b37f3857f57f4de4507f62368e7f754e7f7f872bf27f97cebc7fa736b37fb563b27fc255957fce0c3d7fd8878d7fe1c76a7fe9cbbf7ff094777ff621817ffa72d07ffd88597fff62157fffffffa264697066735822122019f599817ebe8adfd532396ac56a8087484f2bd92b1606dbcd1345c744f9ad6564736f6c634300080d0033",
  "immutableReferences": {},
  "source": "// SPDX-License-Identifier: GPL-3.0\npragma solidity ^0.8.0;\n\n// External contract imports\nimport {DFCoreFacet} from \"./DFCoreFacet.sol\";\nimport {DFWhitelistFacet} from \"./DFWhitelistFacet.sol\";\n\n// Library imports\nimport {LibPlanet} from \"../libraries/LibPlanet.sol\";\nimport {LibDiamond} from \"../vendor/libraries/LibDiamond.sol\";\n\n// Storage imports\nimport {WithStorage} from \"../libraries/LibStorage.sol\";\n\n// Vendor Imports\nimport {LibTrig} from \"../vendor/libraries/LibTrig.sol\";\nimport {ABDKMath64x64} from \"../vendor/libraries/ABDKMath64x64.sol\";\n\n// Type imports\nimport {Planet, PlanetExtendedInfo, PlanetExtendedInfo2} from \"../DFTypes.sol\";\n\ncontract DFCaptureFacet is WithStorage {\n    modifier notPaused() {\n        require(!gs().paused, \"Game is paused\");\n        _;\n    }\n\n    modifier onlyWhitelisted() {\n        require(\n            DFWhitelistFacet(address(this)).isWhitelisted(msg.sender) ||\n                msg.sender == LibDiamond.contractOwner(),\n            \"Player is not whitelisted\"\n        );\n        _;\n    }\n\n    event PlanetInvaded(address player, uint256 loc);\n    event PlanetCaptured(address player, uint256 loc);\n\n    struct Zone {\n        int256 x;\n        int256 y;\n    }\n\n    /**\n     * Same snark args as DFCoreFacet#revealLocation\n     * TODO Client supplies the nonce for the capture zone they are in.\n     * Contract can generate the same zone based on that nonce, eliminating\n     * the need to generate all the zones on every transaction.\n     */\n    function invadePlanet(\n        uint256[2] memory _a,\n        uint256[2][2] memory _b,\n        uint256[2] memory _c,\n        uint256[9] memory _input\n    ) public onlyWhitelisted notPaused {\n        require(gameConstants().CAPTURE_ZONES_ENABLED, \"capture zones are disabled\");\n\n        uint256 locationId = _input[0];\n\n        DFCoreFacet(address(this)).checkRevealProof(_a, _b, _c, _input);\n\n        require(planetInCaptureZone(_input[2], _input[3]), \"planet is not in capture zone\");\n\n        LibPlanet.refreshPlanet(locationId);\n        Planet memory planet = gs().planets[locationId];\n        PlanetExtendedInfo memory planetExtendedInfo = gs().planetsExtendedInfo[locationId];\n        PlanetExtendedInfo2 storage planetExtendedInfo2 = gs().planetsExtendedInfo2[locationId];\n\n        require(!planetExtendedInfo.destroyed, \"planet is destroyed\");\n        require(planetExtendedInfo2.invader == address(0), \"planet is already invaded\");\n        require(planetExtendedInfo2.capturer == address(0), \"planet has already been captured\");\n        require(planet.owner == msg.sender, \"you can only invade planets you own\");\n\n        planetExtendedInfo2.invader = msg.sender;\n        planetExtendedInfo2.invadeStartBlock = block.number;\n\n        emit PlanetInvaded(msg.sender, locationId);\n    }\n\n    function capturePlanet(uint256 locationId) public onlyWhitelisted notPaused {\n        require(gameConstants().CAPTURE_ZONES_ENABLED, \"capture zones are disabled\");\n\n        LibPlanet.refreshPlanet(locationId);\n        Planet memory planet = gs().planets[locationId];\n        PlanetExtendedInfo memory planetExtendedInfo = gs().planetsExtendedInfo[locationId];\n        PlanetExtendedInfo2 storage planetExtendedInfo2 = gs().planetsExtendedInfo2[locationId];\n\n        require(planetExtendedInfo2.capturer == address(0), \"planets can only be captured once\");\n        require(!planetExtendedInfo.destroyed, \"planet is destroyed\");\n        require(planet.owner == msg.sender, \"you can only capture planets you own\");\n        require(\n            planetExtendedInfo2.invader != address(0),\n            \"you must invade the planet before capturing\"\n        );\n        require(\n            (planet.population * 100) >= (planet.populationCap * 100) / 78,\n            // We lie here, but it is a better UX\n            \"planet must have 80% energy before capturing\"\n        );\n\n        require(\n            planetExtendedInfo2.invadeStartBlock +\n                gameConstants().CAPTURE_ZONE_HOLD_BLOCKS_REQUIRED <=\n                block.number,\n            \"you have not held the planet long enough to capture it\"\n        );\n\n        planetExtendedInfo2.capturer = msg.sender;\n\n        gs().players[msg.sender].score += gameConstants().CAPTURE_ZONE_PLANET_LEVEL_SCORE[\n            planet.planetLevel\n        ];\n        emit PlanetCaptured(msg.sender, locationId);\n    }\n\n    function planetInCaptureZone(uint256 x, uint256 y) public returns (bool) {\n        setNextGenerationBlock();\n\n        uint256 generationBlock =\n            gs().nextChangeBlock - gameConstants().CAPTURE_ZONE_CHANGE_BLOCK_INTERVAL;\n        bytes32 generationBlockHash = blockhash(generationBlock);\n\n        int256 planetX = getIntFromUInt(x);\n        int256 planetY = getIntFromUInt(y);\n\n        for (uint256 ring = 0; ring < gs().worldRadius / 5000; ring++) {\n            uint256 nonceBase = ring * gameConstants().CAPTURE_ZONES_PER_5000_WORLD_RADIUS;\n\n            for (uint256 j = 0; j < gameConstants().CAPTURE_ZONES_PER_5000_WORLD_RADIUS; j++) {\n                uint256 nonce = nonceBase + j;\n                bytes32 hexSeed = keccak256(abi.encodePacked(generationBlockHash, nonce));\n                uint256 seed = uint256(hexSeed);\n\n                Zone memory zone = getZonePoint(seed, ring);\n\n                int256 xDiff = (planetX - zone.x);\n                int256 yDiff = (planetY - zone.y);\n\n                uint256 distanceToZone = sqrt(uint256(xDiff * xDiff + yDiff * yDiff));\n\n                if (distanceToZone <= gameConstants().CAPTURE_ZONE_RADIUS) {\n                    return true;\n                }\n            }\n        }\n\n        return false;\n    }\n\n    function getZonePoint(uint256 seed, uint256 ringNumber) private pure returns (Zone memory) {\n        uint256 angleSeed = seed % 0xFFF;\n        uint256 angleRadians = (angleSeed * 1e18) / 651;\n\n        uint256 distanceSeed = ((seed - angleSeed) / 4096) % 0xFFFFFF;\n        uint256 divisor = 3355;\n\n        uint256 distance = (distanceSeed / divisor) + ringNumber * 5000;\n        int256 cos = LibTrig.cos(angleRadians);\n        int256 sin = LibTrig.sin(angleRadians);\n\n        return Zone((int256(distance) * cos) / 1e18, (int256(distance) * sin) / 1e18);\n    }\n\n    function sqrt(uint256 x) private pure returns (uint256 y) {\n        uint256 z = (x + 1) / 2;\n        y = x;\n        while (z < y) {\n            y = z;\n            z = (x / z + z) / 2;\n        }\n    }\n\n    function setNextGenerationBlock() private {\n        uint256 changeInterval = gameConstants().CAPTURE_ZONE_CHANGE_BLOCK_INTERVAL;\n        uint256 totalGameBlocks = block.number - gameConstants().GAME_START_BLOCK;\n        uint256 numPastIntervals = totalGameBlocks / changeInterval;\n        gs().nextChangeBlock =\n            gameConstants().GAME_START_BLOCK +\n            (numPastIntervals + 1) *\n            changeInterval;\n    }\n\n    function getIntFromUInt(uint256 n) public pure returns (int256) {\n        uint256 LOCATION_ID_UB =\n            21888242871839275222246405745257275088548364400416034343698204186575808495617;\n        require(n < LOCATION_ID_UB, \"Number outside of AbsoluteModP Range\");\n        if (n > (LOCATION_ID_UB / 2)) {\n            return 0 - int256(LOCATION_ID_UB - n);\n        }\n\n        return int256(n);\n    }\n}\n",
  "sourcePath": "/home/terra/opensource/tosca-chain/smart-contract-example/contracts/facets/DFCaptureFacet.sol",
  "compiler": {
    "name": "solc",
    "version": "0.8.13+commit.abaa5c0e.Emscripten.clang"
  },
  "schemaVersion": "3.4.7",
  "updatedAt": "2022-04-30T15:27:25.753Z",
  "devdoc": {
    "kind": "dev",
    "methods": {},
    "version": 1
  },
  "userdoc": {
    "kind": "user",
    "methods": {
      "invadePlanet(uint256[2],uint256[2][2],uint256[2],uint256[9])": {
        "notice": "Same snark args as DFCoreFacet#revealLocation TODO Client supplies the nonce for the capture zone they are in. Contract can generate the same zone based on that nonce, eliminating the need to generate all the zones on every transaction."
      }
    },
    "version": 1
  }
}