{
  "contractName": "DFDebugFacet",
  "abi": [
    {
      "inputs": [
        {
          "internalType": "uint256",
          "name": "locationId",
          "type": "uint256"
        }
      ],
      "name": "adminFillPlanet",
      "outputs": [],
      "stateMutability": "nonpayable",
      "type": "function"
    }
  ],
  "bytecode": "0x608060405234801561001057600080fd5b506103fa806100206000396000f3fe608060405234801561001057600080fd5b506004361061002b5760003560e01c80630ab4683514610030575b600080fd5b61004a60048036038101906100459190610288565b61004c565b005b610054610149565b61005c6101e4565b600e01600082815260200190815260200160002060000160009054906101000a900460ff166100c0576040517f08c379a00000000000000000000000000000000000000000000000000000000081526004016100b790610312565b60405180910390fd5b6100c86101e4565b600c016000828152602001908152602001600020600701546100e86101e4565b600c0160008381526020019081526020016000206009018190555061010b6101e4565b600c0160008281526020019081526020016000206005015461012b6101e4565b600c0160008381526020019081526020016000206004018190555050565b6101516101f3565b60040160009054906101000a900473ffffffffffffffffffffffffffffffffffffffff1673ffffffffffffffffffffffffffffffffffffffff163373ffffffffffffffffffffffffffffffffffffffff16146101e2576040517f08c379a00000000000000000000000000000000000000000000000000000000081526004016101d9906103a4565b60405180910390fd5b565b60006101ee610220565b905090565b6000807fc8fcad8db84d3cc18b4c41d551ea0ee66dd599cde068d998e57d5e09332c131c90508091505090565b6000807fcb7f1a525606efcbba7baaf9b0b55c468d0fd558cbf767967f538834dfa1232e90508091505090565b600080fd5b6000819050919050565b61026581610252565b811461027057600080fd5b50565b6000813590506102828161025c565b92915050565b60006020828403121561029e5761029d61024d565b5b60006102ac84828501610273565b91505092915050565b600082825260208201905092915050565b7f706c616e6574206973206e6f7420696e697469616c697a656400000000000000600082015250565b60006102fc6019836102b5565b9150610307826102c6565b602082019050919050565b6000602082019050818103600083015261032b816102ef565b9050919050565b7f4c69624469616d6f6e643a204d75737420626520636f6e7472616374206f776e60008201527f6572000000000000000000000000000000000000000000000000000000000000602082015250565b600061038e6022836102b5565b915061039982610332565b604082019050919050565b600060208201905081810360008301526103bd81610381565b905091905056fea264697066735822122046ea5f3c45f0a73a783fecb4b0d325ba4ee74d2a0fd7f92ea95054d697c88b5464736f6c634300080d0033",
  "immutableReferences": {},
  "source": "// SPDX-License-Identifier: GPL-3.0\npragma solidity ^0.8.0;\n\n// Library imports\nimport {LibDiamond} from \"../vendor/libraries/LibDiamond.sol\";\n\n// Storage imports\nimport {WithStorage} from \"../libraries/LibStorage.sol\";\n\n// Functions used in tests/development for easily modifying game state\ncontract DFDebugFacet is WithStorage {\n    modifier onlyAdmin() {\n        LibDiamond.enforceIsContractOwner();\n        _;\n    }\n\n    function adminFillPlanet(uint256 locationId) public onlyAdmin {\n        require(gs().planetsExtendedInfo[locationId].isInitialized, \"planet is not initialized\");\n\n        gs().planets[locationId].silver = gs().planets[locationId].silverCap;\n        gs().planets[locationId].population = gs().planets[locationId].populationCap;\n    }\n}\n",
  "sourcePath": "/home/terra/opensource/tosca-chain/smart-contract-example/contracts/facets/DFDebugFacet.sol",
  "compiler": {
    "name": "solc",
    "version": "0.8.13+commit.abaa5c0e.Emscripten.clang"
  },
  "schemaVersion": "3.4.7",
  "updatedAt": "2022-04-30T15:27:25.779Z",
  "devdoc": {
    "kind": "dev",
    "methods": {},
    "version": 1
  },
  "userdoc": {
    "kind": "user",
    "methods": {},
    "version": 1
  }
}