{
  "contractName": "DFLobbyFacet",
  "abi": [
    {
      "anonymous": false,
      "inputs": [
        {
          "indexed": false,
          "internalType": "address",
          "name": "ownerAddress",
          "type": "address"
        },
        {
          "indexed": false,
          "internalType": "address",
          "name": "lobbyAddress",
          "type": "address"
        }
      ],
      "name": "LobbyCreated",
      "type": "event"
    },
    {
      "inputs": [
        {
          "internalType": "address",
          "name": "initAddress",
          "type": "address"
        },
        {
          "internalType": "bytes",
          "name": "initData",
          "type": "bytes"
        }
      ],
      "name": "createLobby",
      "outputs": [],
      "stateMutability": "nonpayable",
      "type": "function"
    }
  ],
  "bytecode": "0x608060405234801561001057600080fd5b50614fd5806100206000396000f3fe60806040523480156200001157600080fd5b50600436106200002e5760003560e01c8063228f32a81462000033575b600080fd5b6200005160048036038101906200004b919062000615565b62000053565b005b60006200005f62000496565b60000160009054906101000a900473ffffffffffffffffffffffffffffffffffffffff16905060008173ffffffffffffffffffffffffffffffffffffffff1663cdffacc6631f931c1c60e01b6040518263ffffffff1660e01b8152600401620000c99190620006bc565b602060405180830381865afa158015620000e7573d6000803e3d6000fd5b505050506040513d601f19601f820116820180604052508101906200010d9190620006f0565b9050600082826040516200012190620004d4565b6200012e92919062000733565b604051809103906000f0801580156200014b573d6000803e3d6000fd5b50905060008373ffffffffffffffffffffffffffffffffffffffff16637a0ed6276040518163ffffffff1660e01b8152600401600060405180830381865afa1580156200019c573d6000803e3d6000fd5b505050506040513d6000823e3d601f19601f82011682018060405250810190620001c7919062000a75565b9050600060018251620001db919062000aff565b67ffffffffffffffff811115620001f757620001f662000771565b5b6040519080825280602002602001820160405280156200023457816020015b62000220620004e2565b815260200190600190039081620002165790505b5090506000805b83518110156200036b578573ffffffffffffffffffffffffffffffffffffffff1684828151811062000272576200027162000b3a565b5b60200260200101516000015173ffffffffffffffffffffffffffffffffffffffff161462000355576040518060600160405280858381518110620002bb57620002ba62000b3a565b5b60200260200101516000015173ffffffffffffffffffffffffffffffffffffffff16815260200160006002811115620002f957620002f862000b69565b5b815260200185838151811062000314576200031362000b3a565b5b60200260200101516020015181525083838151811062000339576200033862000b3a565b5b60200260200101819052508180620003519062000b98565b9250505b8080620003629062000b98565b9150506200023b565b508373ffffffffffffffffffffffffffffffffffffffff16631f931c1c838b8b8b6040518563ffffffff1660e01b8152600401620003ad949392919062000e8e565b600060405180830381600087803b158015620003c857600080fd5b505af1158015620003dd573d6000803e3d6000fd5b505050508373ffffffffffffffffffffffffffffffffffffffff1663f2fde38b336040518263ffffffff1660e01b81526004016200041c919062000edb565b600060405180830381600087803b1580156200043757600080fd5b505af11580156200044c573d6000803e3d6000fd5b505050507fa00aede238d74d7614a95aaeb03eb1d76760aee8bd95d80664dbb6e23de5b58933856040516200048392919062000733565b60405180910390a1505050505050505050565b6000620004a2620004a7565b905090565b6000807fcb7f1a525606efcbba7baaf9b0b55c468d0fd558cbf767967f538834dfa1232e90508091505090565b6140a78062000ef983390190565b6040518060600160405280600073ffffffffffffffffffffffffffffffffffffffff1681526020016000600281111562000521576200052062000b69565b5b8152602001606081525090565b6000604051905090565b600080fd5b600080fd5b600073ffffffffffffffffffffffffffffffffffffffff82169050919050565b60006200056f8262000542565b9050919050565b620005818162000562565b81146200058d57600080fd5b50565b600081359050620005a18162000576565b92915050565b600080fd5b600080fd5b600080fd5b60008083601f840112620005cf57620005ce620005a7565b5b8235905067ffffffffffffffff811115620005ef57620005ee620005ac565b5b6020830191508360018202830111156200060e576200060d620005b1565b5b9250929050565b60008060006040848603121562000631576200063062000538565b5b6000620006418682870162000590565b935050602084013567ffffffffffffffff8111156200066557620006646200053d565b5b6200067386828701620005b6565b92509250509250925092565b60007fffffffff0000000000000000000000000000000000000000000000000000000082169050919050565b620006b6816200067f565b82525050565b6000602082019050620006d36000830184620006ab565b92915050565b600081519050620006ea8162000576565b92915050565b60006020828403121562000709576200070862000538565b5b60006200071984828501620006d9565b91505092915050565b6200072d8162000562565b82525050565b60006040820190506200074a600083018562000722565b62000759602083018462000722565b9392505050565b6000601f19601f8301169050919050565b7f4e487b7100000000000000000000000000000000000000000000000000000000600052604160045260246000fd5b620007ab8262000760565b810181811067ffffffffffffffff82111715620007cd57620007cc62000771565b5b80604052505050565b6000620007e26200052e565b9050620007f08282620007a0565b919050565b600067ffffffffffffffff82111562000813576200081262000771565b5b602082029050602081019050919050565b600080fd5b600080fd5b600067ffffffffffffffff8211156200084c576200084b62000771565b5b602082029050602081019050919050565b62000868816200067f565b81146200087457600080fd5b50565b60008151905062000888816200085d565b92915050565b6000620008a56200089f846200082e565b620007d6565b90508083825260208201905060208402830185811115620008cb57620008ca620005b1565b5b835b81811015620008f85780620008e3888262000877565b845260208401935050602081019050620008cd565b5050509392505050565b600082601f8301126200091a5762000919620005a7565b5b81516200092c8482602086016200088e565b91505092915050565b6000604082840312156200094e576200094d62000824565b5b6200095a6040620007d6565b905060006200096c84828501620006d9565b600083015250602082015167ffffffffffffffff81111562000993576200099262000829565b5b620009a18482850162000902565b60208301525092915050565b6000620009c4620009be84620007f5565b620007d6565b90508083825260208201905060208402830185811115620009ea57620009e9620005b1565b5b835b8181101562000a3857805167ffffffffffffffff81111562000a135762000a12620005a7565b5b80860162000a22898262000935565b85526020850194505050602081019050620009ec565b5050509392505050565b600082601f83011262000a5a5762000a59620005a7565b5b815162000a6c848260208601620009ad565b91505092915050565b60006020828403121562000a8e5762000a8d62000538565b5b600082015167ffffffffffffffff81111562000aaf5762000aae6200053d565b5b62000abd8482850162000a42565b91505092915050565b6000819050919050565b7f4e487b7100000000000000000000000000000000000000000000000000000000600052601160045260246000fd5b600062000b0c8262000ac6565b915062000b198362000ac6565b92508282101562000b2f5762000b2e62000ad0565b5b828203905092915050565b7f4e487b7100000000000000000000000000000000000000000000000000000000600052603260045260246000fd5b7f4e487b7100000000000000000000000000000000000000000000000000000000600052602160045260246000fd5b600062000ba58262000ac6565b91507fffffffffffffffffffffffffffffffffffffffffffffffffffffffffffffffff820362000bda5762000bd962000ad0565b5b600182019050919050565b600081519050919050565b600082825260208201905092915050565b6000819050602082019050919050565b62000c1c8162000562565b82525050565b6003811062000c365762000c3562000b69565b5b50565b600081905062000c498262000c22565b919050565b600062000c5b8262000c39565b9050919050565b62000c6d8162000c4e565b82525050565b600081519050919050565b600082825260208201905092915050565b6000819050602082019050919050565b62000caa816200067f565b82525050565b600062000cbe838362000c9f565b60208301905092915050565b6000602082019050919050565b600062000ce48262000c73565b62000cf0818562000c7e565b935062000cfd8362000c8f565b8060005b8381101562000d3457815162000d18888262000cb0565b975062000d258362000cca565b92505060018101905062000d01565b5085935050505092915050565b600060608301600083015162000d5b600086018262000c11565b50602083015162000d70602086018262000c62565b506040830151848203604086015262000d8a828262000cd7565b9150508091505092915050565b600062000da5838362000d41565b905092915050565b6000602082019050919050565b600062000dc78262000be5565b62000dd3818562000bf0565b93508360208202850162000de78562000c01565b8060005b8581101562000e29578484038952815162000e07858262000d97565b945062000e148362000dad565b925060208a0199505060018101905062000deb565b50829750879550505050505092915050565b600082825260208201905092915050565b82818337600083830152505050565b600062000e69838562000e3b565b935062000e7883858462000e4c565b62000e838362000760565b840190509392505050565b6000606082019050818103600083015262000eaa818762000dba565b905062000ebb602083018662000722565b818103604083015262000ed081848662000e5b565b905095945050505050565b600060208201905062000ef2600083018462000722565b9291505056fe6080604052604051620040a7380380620040a7833981810160405281019062000029919062001353565b6200003f82620001f760201b620001471760201c565b6000600167ffffffffffffffff8111156200005f576200005e6200139a565b5b6040519080825280602002602001820160405280156200009c57816020015b620000886200129d565b8152602001906001900390816200007e5790505b5090506000600167ffffffffffffffff811115620000bf57620000be6200139a565b5b604051908082528060200260200182016040528015620000ee5781602001602082028036833780820191505090505b509050631f931c1c60e01b8160008151811062000110576200010f620013c9565b5b60200260200101907bffffffffffffffffffffffffffffffffffffffffffffffffffffffff191690817bffffffffffffffffffffffffffffffffffffffffffffffffffffffff19168152505060405180606001604052808473ffffffffffffffffffffffffffffffffffffffff168152602001600060028111156200019a5762000199620013f8565b5b81526020018281525082600081518110620001ba57620001b9620013c9565b5b6020026020010181905250620001ed82600060405180602001604052806000815250620002d660201b6200021e1760201c565b5050505062002117565b6000620002096200048560201b60201c565b905060008160040160009054906101000a900473ffffffffffffffffffffffffffffffffffffffff169050828260040160006101000a81548173ffffffffffffffffffffffffffffffffffffffff021916908373ffffffffffffffffffffffffffffffffffffffff1602179055508273ffffffffffffffffffffffffffffffffffffffff168173ffffffffffffffffffffffffffffffffffffffff167f8be0079c531659141344cd1fd0a4f28419497f9722a3daafe3b4186f6b6457e060405160405180910390a3505050565b6000620002e86200048560201b60201c565b905060008160020160009054906101000a900461ffff1661ffff16905060008190506000806007831611156200033557836001016000600384901c81526020019081526020016000205490505b60005b8751811015620003d857620003ba83838a84815181106200035e576200035d620013c9565b5b6020026020010151600001518b858151811062000380576200037f620013c9565b5b6020026020010151602001518c8681518110620003a257620003a1620013c9565b5b602002602001015160400151620004b260201b60201c565b80935081945050508080620003cf9062001460565b91505062000338565b508282146200040157818460020160006101000a81548161ffff021916908361ffff1602179055505b60006007831611156200042d5780846001016000600385901c8152602001908152602001600020819055505b7f8faa70878671ccd212d20771b795c50af8fd3ff6cf27f4bde57e5d4de0aeb6738787876040516200046293929190620017e4565b60405180910390a16200047c86866200101a60201b60201c565b50505050505050565b6000807fc8fcad8db84d3cc18b4c41d551ea0ee66dd599cde068d998e57d5e09332c131c90508091505090565b6000806000620004c76200048560201b60201c565b9050600084511162000510576040517f08c379a00000000000000000000000000000000000000000000000000000000081526004016200050790620018b6565b60405180910390fd5b60006002811115620005275762000526620013f8565b5b8560028111156200053d576200053c620013f8565b5b0362000793576200056e8660405180606001604052806024815260200162004033602491396200124860201b60201c565b60005b84518110156200078c576000858281518110620005935762000592620013c9565b5b602002602001015190506000836000016000837bffffffffffffffffffffffffffffffffffffffffffffffffffffffff19167bffffffffffffffffffffffffffffffffffffffffffffffffffffffff19168152602001908152602001600020549050600073ffffffffffffffffffffffffffffffffffffffff168160601c73ffffffffffffffffffffffffffffffffffffffff16146200066a576040517f08c379a000000000000000000000000000000000000000000000000000000000815260040162000661906200194e565b60405180910390fd5b8a60001b8960601b6bffffffffffffffffffffffff191617846000016000847bffffffffffffffffffffffffffffffffffffffffffffffffffffffff19167bffffffffffffffffffffffffffffffffffffffffffffffffffffffff19168152602001908152602001600020819055506000600560078d16901b905080837bffffffffffffffffffffffffffffffffffffffffffffffffffffffff1916901c817fffffffff0000000000000000000000000000000000000000000000000000000060001b901c198c16179a5060e0810362000763578a85600101600060038f901c8152602001908152602001600020819055506000801b9a505b8b80620007709062001460565b9c50505050508080620007839062001460565b91505062000571565b5062001009565b60016002811115620007aa57620007a9620013f8565b5b856002811115620007c057620007bf620013f8565b5b0362000a7157620007f1866040518060600160405280602881526020016200407f602891396200124860201b60201c565b60005b845181101562000a6a576000858281518110620008165762000815620013c9565b5b602002602001015190506000836000016000837bffffffffffffffffffffffffffffffffffffffffffffffffffffffff19167bffffffffffffffffffffffffffffffffffffffffffffffffffffffff1916815260200190815260200160002054905060008160601c90503073ffffffffffffffffffffffffffffffffffffffff168173ffffffffffffffffffffffffffffffffffffffff1603620008f1576040517f08c379a0000000000000000000000000000000000000000000000000000000008152600401620008e890620019e6565b60405180910390fd5b8973ffffffffffffffffffffffffffffffffffffffff168173ffffffffffffffffffffffffffffffffffffffff160362000962576040517f08c379a0000000000000000000000000000000000000000000000000000000008152600401620009599062001a7e565b60405180910390fd5b600073ffffffffffffffffffffffffffffffffffffffff168173ffffffffffffffffffffffffffffffffffffffff1603620009d4576040517f08c379a0000000000000000000000000000000000000000000000000000000008152600401620009cb9062001b16565b60405180910390fd5b8960601b6bffffffffffffffffffffffff19166bffffffffffffffffffffffff60001b831617856000016000857bffffffffffffffffffffffffffffffffffffffffffffffffffffffff19167bffffffffffffffffffffffffffffffffffffffffffffffffffffffff1916815260200190815260200160002081905550505050808062000a619062001460565b915050620007f4565b5062001008565b60028081111562000a875762000a86620013f8565b5b85600281111562000a9d5762000a9c620013f8565b5b0362000fca57600073ffffffffffffffffffffffffffffffffffffffff168673ffffffffffffffffffffffffffffffffffffffff161462000b15576040517f08c379a000000000000000000000000000000000000000000000000000000000815260040162000b0c9062001bae565b60405180910390fd5b6000600389901c9050600060078a16905060005b865181101562000fa3576000801b8a0362000b7057828062000b4b9062001bd0565b9350508360010160008481526020019081526020016000205499506007915062000b81565b818062000b7d9062001bd0565b9250505b6000806000808a858151811062000b9d5762000b9c620013c9565b5b602002602001015190506000886000016000837bffffffffffffffffffffffffffffffffffffffffffffffffffffffff19167bffffffffffffffffffffffffffffffffffffffffffffffffffffffff19168152602001908152602001600020549050600073ffffffffffffffffffffffffffffffffffffffff168160601c73ffffffffffffffffffffffffffffffffffffffff160362000c74576040517f08c379a000000000000000000000000000000000000000000000000000000000815260040162000c6b9062001c74565b60405180910390fd5b3073ffffffffffffffffffffffffffffffffffffffff168160601c73ffffffffffffffffffffffffffffffffffffffff160362000ce8576040517f08c379a000000000000000000000000000000000000000000000000000000000815260040162000cdf9062001d0c565b60405180910390fd5b600587901b8f901b9450817bffffffffffffffffffffffffffffffffffffffffffffffffffffffff1916857bffffffffffffffffffffffffffffffffffffffffffffffffffffffff19161462000e0657886000016000867bffffffffffffffffffffffffffffffffffffffffffffffffffffffff19167bffffffffffffffffffffffffffffffffffffffffffffffffffffffff19168152602001908152602001600020546bffffffffffffffffffffffff19166bffffffffffffffffffffffff60001b821617896000016000877bffffffffffffffffffffffffffffffffffffffffffffffffffffffff19167bffffffffffffffffffffffffffffffffffffffffffffffffffffffff19168152602001908152602001600020819055505b886000016000837bffffffffffffffffffffffffffffffffffffffffffffffffffffffff19167bffffffffffffffffffffffffffffffffffffffffffffffffffffffff191681526020019081526020016000206000905560008160001c61ffff169050600381901c9450600560078216901b935050505085821462000f1057600087600101600084815260200190815260200160002054905081847bffffffffffffffffffffffffffffffffffffffffffffffffffffffff1916901c827fffffffff0000000000000000000000000000000000000000000000000000000060001b901c19821617905080886001016000858152602001908152602001600020819055505062000f61565b80837bffffffffffffffffffffffffffffffffffffffffffffffffffffffff1916901c817fffffffff0000000000000000000000000000000000000000000000000000000060001b901c198e16179c505b6000850362000f8a57866001016000878152602001908152602001600020600090556000801b9c505b505050808062000f9a9062001460565b91505062000b29565b508060088362000fb4919062001d2e565b62000fc0919062001d8f565b9950505062001007565b6040517f08c379a000000000000000000000000000000000000000000000000000000000815260040162000ffe9062001e62565b60405180910390fd5b5b5b878792509250509550959350505050565b600073ffffffffffffffffffffffffffffffffffffffff168273ffffffffffffffffffffffffffffffffffffffff16036200109c57600081511462001096576040517f08c379a00000000000000000000000000000000000000000000000000000000081526004016200108d9062001efa565b60405180910390fd5b62001244565b6000815111620010e3576040517f08c379a0000000000000000000000000000000000000000000000000000000008152600401620010da9062001f92565b60405180910390fd5b3073ffffffffffffffffffffffffffffffffffffffff168273ffffffffffffffffffffffffffffffffffffffff16146200114357620011428260405180606001604052806028815260200162004057602891396200124860201b60201c565b5b6000808373ffffffffffffffffffffffffffffffffffffffff16836040516200116d919062001ff6565b600060405180830381855af49150503d8060008114620011aa576040519150601f19603f3d011682016040523d82523d6000602084013e620011af565b606091505b50915091508162001241576000815111156200120457806040517f08c379a0000000000000000000000000000000000000000000000000000000008152600401620011fb91906200205b565b60405180910390fd5b6040517f08c379a00000000000000000000000000000000000000000000000000000000081526004016200123890620020f5565b60405180910390fd5b50505b5050565b6000823b905060008111829062001297576040517f08c379a00000000000000000000000000000000000000000000000000000000081526004016200128e91906200205b565b60405180910390fd5b50505050565b6040518060600160405280600073ffffffffffffffffffffffffffffffffffffffff16815260200160006002811115620012dc57620012db620013f8565b5b8152602001606081525090565b600080fd5b600073ffffffffffffffffffffffffffffffffffffffff82169050919050565b60006200131b82620012ee565b9050919050565b6200132d816200130e565b81146200133957600080fd5b50565b6000815190506200134d8162001322565b92915050565b600080604083850312156200136d576200136c620012e9565b5b60006200137d858286016200133c565b925050602062001390858286016200133c565b9150509250929050565b7f4e487b7100000000000000000000000000000000000000000000000000000000600052604160045260246000fd5b7f4e487b7100000000000000000000000000000000000000000000000000000000600052603260045260246000fd5b7f4e487b7100000000000000000000000000000000000000000000000000000000600052602160045260246000fd5b7f4e487b7100000000000000000000000000000000000000000000000000000000600052601160045260246000fd5b6000819050919050565b60006200146d8262001456565b91507fffffffffffffffffffffffffffffffffffffffffffffffffffffffffffffffff8203620014a257620014a162001427565b5b600182019050919050565b600081519050919050565b600082825260208201905092915050565b6000819050602082019050919050565b620014e4816200130e565b82525050565b60038110620014fe57620014fd620013f8565b5b50565b60008190506200151182620014ea565b919050565b6000620015238262001501565b9050919050565b620015358162001516565b82525050565b600081519050919050565b600082825260208201905092915050565b6000819050602082019050919050565b60007fffffffff0000000000000000000000000000000000000000000000000000000082169050919050565b6200159e8162001567565b82525050565b6000620015b2838362001593565b60208301905092915050565b6000602082019050919050565b6000620015d8826200153b565b620015e4818562001546565b9350620015f18362001557565b8060005b83811015620016285781516200160c8882620015a4565b97506200161983620015be565b925050600181019050620015f5565b5085935050505092915050565b60006060830160008301516200164f6000860182620014d9565b5060208301516200166460208601826200152a565b50604083015184820360408601526200167e8282620015cb565b9150508091505092915050565b600062001699838362001635565b905092915050565b6000602082019050919050565b6000620016bb82620014ad565b620016c78185620014b8565b935083602082028501620016db85620014c9565b8060005b858110156200171d5784840389528151620016fb85826200168b565b94506200170883620016a1565b925060208a01995050600181019050620016df565b50829750879550505050505092915050565b6200173a816200130e565b82525050565b600081519050919050565b600082825260208201905092915050565b60005b838110156200177c5780820151818401526020810190506200175f565b838111156200178c576000848401525b50505050565b6000601f19601f8301169050919050565b6000620017b08262001740565b620017bc81856200174b565b9350620017ce8185602086016200175c565b620017d98162001792565b840191505092915050565b60006060820190508181036000830152620018008186620016ae565b90506200181160208301856200172f565b8181036040830152620018258184620017a3565b9050949350505050565b600082825260208201905092915050565b7f4c69624469616d6f6e644375743a204e6f2073656c6563746f727320696e206660008201527f6163657420746f20637574000000000000000000000000000000000000000000602082015250565b60006200189e602b836200182f565b9150620018ab8262001840565b604082019050919050565b60006020820190508181036000830152620018d1816200188f565b9050919050565b7f4c69624469616d6f6e644375743a2043616e2774206164642066756e6374696f60008201527f6e207468617420616c7265616479206578697374730000000000000000000000602082015250565b6000620019366035836200182f565b91506200194382620018d8565b604082019050919050565b60006020820190508181036000830152620019698162001927565b9050919050565b7f4c69624469616d6f6e644375743a2043616e2774207265706c61636520696d6d60008201527f757461626c652066756e6374696f6e0000000000000000000000000000000000602082015250565b6000620019ce602f836200182f565b9150620019db8262001970565b604082019050919050565b6000602082019050818103600083015262001a0181620019bf565b9050919050565b7f4c69624469616d6f6e644375743a2043616e2774207265706c6163652066756e60008201527f6374696f6e20776974682073616d652066756e6374696f6e0000000000000000602082015250565b600062001a666038836200182f565b915062001a738262001a08565b604082019050919050565b6000602082019050818103600083015262001a998162001a57565b9050919050565b7f4c69624469616d6f6e644375743a2043616e2774207265706c6163652066756e60008201527f6374696f6e207468617420646f65736e27742065786973740000000000000000602082015250565b600062001afe6038836200182f565b915062001b0b8262001aa0565b604082019050919050565b6000602082019050818103600083015262001b318162001aef565b9050919050565b7f4c69624469616d6f6e644375743a2052656d6f7665206661636574206164647260008201527f657373206d757374206265206164647265737328302900000000000000000000602082015250565b600062001b966036836200182f565b915062001ba38262001b38565b604082019050919050565b6000602082019050818103600083015262001bc98162001b87565b9050919050565b600062001bdd8262001456565b91506000820362001bf35762001bf262001427565b5b600182039050919050565b7f4c69624469616d6f6e644375743a2043616e27742072656d6f76652066756e6360008201527f74696f6e207468617420646f65736e2774206578697374000000000000000000602082015250565b600062001c5c6037836200182f565b915062001c698262001bfe565b604082019050919050565b6000602082019050818103600083015262001c8f8162001c4d565b9050919050565b7f4c69624469616d6f6e644375743a2043616e27742072656d6f766520696d6d7560008201527f7461626c652066756e6374696f6e000000000000000000000000000000000000602082015250565b600062001cf4602e836200182f565b915062001d018262001c96565b604082019050919050565b6000602082019050818103600083015262001d278162001ce5565b9050919050565b600062001d3b8262001456565b915062001d488362001456565b9250817fffffffffffffffffffffffffffffffffffffffffffffffffffffffffffffffff048311821515161562001d845762001d8362001427565b5b828202905092915050565b600062001d9c8262001456565b915062001da98362001456565b9250827fffffffffffffffffffffffffffffffffffffffffffffffffffffffffffffffff0382111562001de15762001de062001427565b5b828201905092915050565b7f4c69624469616d6f6e644375743a20496e636f7272656374204661636574437560008201527f74416374696f6e00000000000000000000000000000000000000000000000000602082015250565b600062001e4a6027836200182f565b915062001e578262001dec565b604082019050919050565b6000602082019050818103600083015262001e7d8162001e3b565b9050919050565b7f4c69624469616d6f6e644375743a205f696e697420697320616464726573732860008201527f3029206275745f63616c6c64617461206973206e6f7420656d70747900000000602082015250565b600062001ee2603c836200182f565b915062001eef8262001e84565b604082019050919050565b6000602082019050818103600083015262001f158162001ed3565b9050919050565b7f4c69624469616d6f6e644375743a205f63616c6c6461746120697320656d707460008201527f7920627574205f696e6974206973206e6f742061646472657373283029000000602082015250565b600062001f7a603d836200182f565b915062001f878262001f1c565b604082019050919050565b6000602082019050818103600083015262001fad8162001f6b565b9050919050565b600081905092915050565b600062001fcc8262001740565b62001fd8818562001fb4565b935062001fea8185602086016200175c565b80840191505092915050565b600062002004828462001fbf565b915081905092915050565b600081519050919050565b600062002027826200200f565b6200203381856200182f565b9350620020458185602086016200175c565b620020508162001792565b840191505092915050565b600060208201905081810360008301526200207781846200201a565b905092915050565b7f4c69624469616d6f6e644375743a205f696e69742066756e6374696f6e20726560008201527f7665727465640000000000000000000000000000000000000000000000000000602082015250565b6000620020dd6026836200182f565b9150620020ea826200207f565b604082019050919050565b600060208201905081810360008301526200211081620020ce565b9050919050565b611f0c80620021276000396000f3fe60806040523661000b57005b6000807fc8fcad8db84d3cc18b4c41d551ea0ee66dd599cde068d998e57d5e09332c131c9050809150600082600001600080357fffffffff00000000000000000000000000000000000000000000000000000000167bffffffffffffffffffffffffffffffffffffffffffffffffffffffff19167bffffffffffffffffffffffffffffffffffffffffffffffffffffffff191681526020019081526020016000205460601c9050600073ffffffffffffffffffffffffffffffffffffffff168173ffffffffffffffffffffffffffffffffffffffff1603610121576040517f08c379a000000000000000000000000000000000000000000000000000000000815260040161011890611187565b60405180910390fd5b3660008037600080366000845af43d6000803e8060008114610142573d6000f35b3d6000fd5b60006101516103a3565b905060008160040160009054906101000a900473ffffffffffffffffffffffffffffffffffffffff169050828260040160006101000a81548173ffffffffffffffffffffffffffffffffffffffff021916908373ffffffffffffffffffffffffffffffffffffffff1602179055508273ffffffffffffffffffffffffffffffffffffffff168173ffffffffffffffffffffffffffffffffffffffff167f8be0079c531659141344cd1fd0a4f28419497f9722a3daafe3b4186f6b6457e060405160405180910390a3505050565b60006102286103a3565b905060008160020160009054906101000a900461ffff1661ffff169050600081905060008060078316111561027457836001016000600384901c81526020019081526020016000205490505b60005b8751811015610302576102e783838a8481518110610298576102976111a7565b5b6020026020010151600001518b85815181106102b7576102b66111a7565b5b6020026020010151602001518c86815181106102d6576102d56111a7565b5b6020026020010151604001516103d0565b809350819450505080806102fa9061120f565b915050610277565b5082821461032a57818460020160006101000a81548161ffff021916908361ffff1602179055505b60006007831611156103555780846001016000600385901c8152602001908152602001600020819055505b7f8faa70878671ccd212d20771b795c50af8fd3ff6cf27f4bde57e5d4de0aeb673878787604051610388939291906115b3565b60405180910390a161039a8686610ec6565b50505050505050565b6000807fc8fcad8db84d3cc18b4c41d551ea0ee66dd599cde068d998e57d5e09332c131c90508091505090565b60008060006103dd6103a3565b90506000845111610423576040517f08c379a000000000000000000000000000000000000000000000000000000000815260040161041a9061166a565b60405180910390fd5b60006002811115610437576104366112c4565b5b85600281111561044a576104496112c4565b5b036106885761047186604051806060016040528060248152602001611e63602491396110d8565b60005b8451811015610682576000858281518110610492576104916111a7565b5b602002602001015190506000836000016000837bffffffffffffffffffffffffffffffffffffffffffffffffffffffff19167bffffffffffffffffffffffffffffffffffffffffffffffffffffffff19168152602001908152602001600020549050600073ffffffffffffffffffffffffffffffffffffffff168160601c73ffffffffffffffffffffffffffffffffffffffff1614610566576040517f08c379a000000000000000000000000000000000000000000000000000000000815260040161055d906116fc565b60405180910390fd5b8a60001b8960601b6bffffffffffffffffffffffff191617846000016000847bffffffffffffffffffffffffffffffffffffffffffffffffffffffff19167bffffffffffffffffffffffffffffffffffffffffffffffffffffffff19168152602001908152602001600020819055506000600560078d16901b905080837bffffffffffffffffffffffffffffffffffffffffffffffffffffffff1916901c817fffffffff0000000000000000000000000000000000000000000000000000000060001b901c198c16179a5060e0810361065e578a85600101600060038f901c8152602001908152602001600020819055506000801b9a505b8b806106699061120f565b9c5050505050808061067a9061120f565b915050610474565b50610eb5565b6001600281111561069c5761069b6112c4565b5b8560028111156106af576106ae6112c4565b5b03610945576106d686604051806060016040528060288152602001611eaf602891396110d8565b60005b845181101561093f5760008582815181106106f7576106f66111a7565b5b602002602001015190506000836000016000837bffffffffffffffffffffffffffffffffffffffffffffffffffffffff19167bffffffffffffffffffffffffffffffffffffffffffffffffffffffff1916815260200190815260200160002054905060008160601c90503073ffffffffffffffffffffffffffffffffffffffff168173ffffffffffffffffffffffffffffffffffffffff16036107cf576040517f08c379a00000000000000000000000000000000000000000000000000000000081526004016107c69061178e565b60405180910390fd5b8973ffffffffffffffffffffffffffffffffffffffff168173ffffffffffffffffffffffffffffffffffffffff160361083d576040517f08c379a000000000000000000000000000000000000000000000000000000000815260040161083490611820565b60405180910390fd5b600073ffffffffffffffffffffffffffffffffffffffff168173ffffffffffffffffffffffffffffffffffffffff16036108ac576040517f08c379a00000000000000000000000000000000000000000000000000000000081526004016108a3906118b2565b60405180910390fd5b8960601b6bffffffffffffffffffffffff19166bffffffffffffffffffffffff60001b831617856000016000857bffffffffffffffffffffffffffffffffffffffffffffffffffffffff19167bffffffffffffffffffffffffffffffffffffffffffffffffffffffff191681526020019081526020016000208190555050505080806109379061120f565b9150506106d9565b50610eb4565b600280811115610958576109576112c4565b5b85600281111561096b5761096a6112c4565b5b03610e7857600073ffffffffffffffffffffffffffffffffffffffff168673ffffffffffffffffffffffffffffffffffffffff16146109df576040517f08c379a00000000000000000000000000000000000000000000000000000000081526004016109d690611944565b60405180910390fd5b6000600389901c9050600060078a16905060005b8651811015610e56576000801b8a03610a35578280610a1190611964565b93505083600101600084815260200190815260200160002054995060079150610a44565b8180610a4090611964565b9250505b6000806000808a8581518110610a5d57610a5c6111a7565b5b602002602001015190506000886000016000837bffffffffffffffffffffffffffffffffffffffffffffffffffffffff19167bffffffffffffffffffffffffffffffffffffffffffffffffffffffff19168152602001908152602001600020549050600073ffffffffffffffffffffffffffffffffffffffff168160601c73ffffffffffffffffffffffffffffffffffffffff1603610b31576040517f08c379a0000000000000000000000000000000000000000000000000000000008152600401610b28906119ff565b60405180910390fd5b3073ffffffffffffffffffffffffffffffffffffffff168160601c73ffffffffffffffffffffffffffffffffffffffff1603610ba2576040517f08c379a0000000000000000000000000000000000000000000000000000000008152600401610b9990611a91565b60405180910390fd5b600587901b8f901b9450817bffffffffffffffffffffffffffffffffffffffffffffffffffffffff1916857bffffffffffffffffffffffffffffffffffffffffffffffffffffffff191614610cbf57886000016000867bffffffffffffffffffffffffffffffffffffffffffffffffffffffff19167bffffffffffffffffffffffffffffffffffffffffffffffffffffffff19168152602001908152602001600020546bffffffffffffffffffffffff19166bffffffffffffffffffffffff60001b821617896000016000877bffffffffffffffffffffffffffffffffffffffffffffffffffffffff19167bffffffffffffffffffffffffffffffffffffffffffffffffffffffff19168152602001908152602001600020819055505b886000016000837bffffffffffffffffffffffffffffffffffffffffffffffffffffffff19167bffffffffffffffffffffffffffffffffffffffffffffffffffffffff191681526020019081526020016000206000905560008160001c61ffff169050600381901c9450600560078216901b9350505050858214610dc757600087600101600084815260200190815260200160002054905081847bffffffffffffffffffffffffffffffffffffffffffffffffffffffff1916901c827fffffffff0000000000000000000000000000000000000000000000000000000060001b901c198216179050808860010160008581526020019081526020016000208190555050610e18565b80837bffffffffffffffffffffffffffffffffffffffffffffffffffffffff1916901c817fffffffff0000000000000000000000000000000000000000000000000000000060001b901c198e16179c505b60008503610e4057866001016000878152602001908152602001600020600090556000801b9c505b5050508080610e4e9061120f565b9150506109f3565b5080600883610e659190611ab1565b610e6f9190611b0b565b99505050610eb3565b6040517f08c379a0000000000000000000000000000000000000000000000000000000008152600401610eaa90611bd3565b60405180910390fd5b5b5b878792509250509550959350505050565b600073ffffffffffffffffffffffffffffffffffffffff168273ffffffffffffffffffffffffffffffffffffffff1603610f43576000815114610f3e576040517f08c379a0000000000000000000000000000000000000000000000000000000008152600401610f3590611c65565b60405180910390fd5b6110d4565b6000815111610f87576040517f08c379a0000000000000000000000000000000000000000000000000000000008152600401610f7e90611cf7565b60405180910390fd5b3073ffffffffffffffffffffffffffffffffffffffff168273ffffffffffffffffffffffffffffffffffffffff1614610fdd57610fdc82604051806060016040528060288152602001611e87602891396110d8565b5b6000808373ffffffffffffffffffffffffffffffffffffffff16836040516110059190611d53565b600060405180830381855af49150503d8060008114611040576040519150601f19603f3d011682016040523d82523d6000602084013e611045565b606091505b5091509150816110d15760008151111561109657806040517f08c379a000000000000000000000000000000000000000000000000000000000815260040161108d9190611dae565b60405180910390fd5b6040517f08c379a00000000000000000000000000000000000000000000000000000000081526004016110c890611e42565b60405180910390fd5b50505b5050565b6000823b9050600081118290611124576040517f08c379a000000000000000000000000000000000000000000000000000000000815260040161111b9190611dae565b60405180910390fd5b50505050565b600082825260208201905092915050565b7f4469616d6f6e643a2046756e6374696f6e20646f6573206e6f74206578697374600082015250565b600061117160208361112a565b915061117c8261113b565b602082019050919050565b600060208201905081810360008301526111a081611164565b9050919050565b7f4e487b7100000000000000000000000000000000000000000000000000000000600052603260045260246000fd5b7f4e487b7100000000000000000000000000000000000000000000000000000000600052601160045260246000fd5b6000819050919050565b600061121a82611205565b91507fffffffffffffffffffffffffffffffffffffffffffffffffffffffffffffffff820361124c5761124b6111d6565b5b600182019050919050565b600081519050919050565b600082825260208201905092915050565b6000819050602082019050919050565b600073ffffffffffffffffffffffffffffffffffffffff82169050919050565b60006112ae82611283565b9050919050565b6112be816112a3565b82525050565b7f4e487b7100000000000000000000000000000000000000000000000000000000600052602160045260246000fd5b60038110611304576113036112c4565b5b50565b6000819050611315826112f3565b919050565b600061132582611307565b9050919050565b6113358161131a565b82525050565b600081519050919050565b600082825260208201905092915050565b6000819050602082019050919050565b60007fffffffff0000000000000000000000000000000000000000000000000000000082169050919050565b61139c81611367565b82525050565b60006113ae8383611393565b60208301905092915050565b6000602082019050919050565b60006113d28261133b565b6113dc8185611346565b93506113e783611357565b8060005b838110156114185781516113ff88826113a2565b975061140a836113ba565b9250506001810190506113eb565b5085935050505092915050565b600060608301600083015161143d60008601826112b5565b506020830151611450602086018261132c565b506040830151848203604086015261146882826113c7565b9150508091505092915050565b60006114818383611425565b905092915050565b6000602082019050919050565b60006114a182611257565b6114ab8185611262565b9350836020820285016114bd85611273565b8060005b858110156114f957848403895281516114da8582611475565b94506114e583611489565b925060208a019950506001810190506114c1565b50829750879550505050505092915050565b611514816112a3565b82525050565b600081519050919050565b600082825260208201905092915050565b60005b83811015611554578082015181840152602081019050611539565b83811115611563576000848401525b50505050565b6000601f19601f8301169050919050565b60006115858261151a565b61158f8185611525565b935061159f818560208601611536565b6115a881611569565b840191505092915050565b600060608201905081810360008301526115cd8186611496565b90506115dc602083018561150b565b81810360408301526115ee818461157a565b9050949350505050565b7f4c69624469616d6f6e644375743a204e6f2073656c6563746f727320696e206660008201527f6163657420746f20637574000000000000000000000000000000000000000000602082015250565b6000611654602b8361112a565b915061165f826115f8565b604082019050919050565b6000602082019050818103600083015261168381611647565b9050919050565b7f4c69624469616d6f6e644375743a2043616e2774206164642066756e6374696f60008201527f6e207468617420616c7265616479206578697374730000000000000000000000602082015250565b60006116e660358361112a565b91506116f18261168a565b604082019050919050565b60006020820190508181036000830152611715816116d9565b9050919050565b7f4c69624469616d6f6e644375743a2043616e2774207265706c61636520696d6d60008201527f757461626c652066756e6374696f6e0000000000000000000000000000000000602082015250565b6000611778602f8361112a565b91506117838261171c565b604082019050919050565b600060208201905081810360008301526117a78161176b565b9050919050565b7f4c69624469616d6f6e644375743a2043616e2774207265706c6163652066756e60008201527f6374696f6e20776974682073616d652066756e6374696f6e0000000000000000602082015250565b600061180a60388361112a565b9150611815826117ae565b604082019050919050565b60006020820190508181036000830152611839816117fd565b9050919050565b7f4c69624469616d6f6e644375743a2043616e2774207265706c6163652066756e60008201527f6374696f6e207468617420646f65736e27742065786973740000000000000000602082015250565b600061189c60388361112a565b91506118a782611840565b604082019050919050565b600060208201905081810360008301526118cb8161188f565b9050919050565b7f4c69624469616d6f6e644375743a2052656d6f7665206661636574206164647260008201527f657373206d757374206265206164647265737328302900000000000000000000602082015250565b600061192e60368361112a565b9150611939826118d2565b604082019050919050565b6000602082019050818103600083015261195d81611921565b9050919050565b600061196f82611205565b915060008203611982576119816111d6565b5b600182039050919050565b7f4c69624469616d6f6e644375743a2043616e27742072656d6f76652066756e6360008201527f74696f6e207468617420646f65736e2774206578697374000000000000000000602082015250565b60006119e960378361112a565b91506119f48261198d565b604082019050919050565b60006020820190508181036000830152611a18816119dc565b9050919050565b7f4c69624469616d6f6e644375743a2043616e27742072656d6f766520696d6d7560008201527f7461626c652066756e6374696f6e000000000000000000000000000000000000602082015250565b6000611a7b602e8361112a565b9150611a8682611a1f565b604082019050919050565b60006020820190508181036000830152611aaa81611a6e565b9050919050565b6000611abc82611205565b9150611ac783611205565b9250817fffffffffffffffffffffffffffffffffffffffffffffffffffffffffffffffff0483118215151615611b0057611aff6111d6565b5b828202905092915050565b6000611b1682611205565b9150611b2183611205565b9250827fffffffffffffffffffffffffffffffffffffffffffffffffffffffffffffffff03821115611b5657611b556111d6565b5b828201905092915050565b7f4c69624469616d6f6e644375743a20496e636f7272656374204661636574437560008201527f74416374696f6e00000000000000000000000000000000000000000000000000602082015250565b6000611bbd60278361112a565b9150611bc882611b61565b604082019050919050565b60006020820190508181036000830152611bec81611bb0565b9050919050565b7f4c69624469616d6f6e644375743a205f696e697420697320616464726573732860008201527f3029206275745f63616c6c64617461206973206e6f7420656d70747900000000602082015250565b6000611c4f603c8361112a565b9150611c5a82611bf3565b604082019050919050565b60006020820190508181036000830152611c7e81611c42565b9050919050565b7f4c69624469616d6f6e644375743a205f63616c6c6461746120697320656d707460008201527f7920627574205f696e6974206973206e6f742061646472657373283029000000602082015250565b6000611ce1603d8361112a565b9150611cec82611c85565b604082019050919050565b60006020820190508181036000830152611d1081611cd4565b9050919050565b600081905092915050565b6000611d2d8261151a565b611d378185611d17565b9350611d47818560208601611536565b80840191505092915050565b6000611d5f8284611d22565b915081905092915050565b600081519050919050565b6000611d8082611d6a565b611d8a818561112a565b9350611d9a818560208601611536565b611da381611569565b840191505092915050565b60006020820190508181036000830152611dc88184611d75565b905092915050565b7f4c69624469616d6f6e644375743a205f696e69742066756e6374696f6e20726560008201527f7665727465640000000000000000000000000000000000000000000000000000602082015250565b6000611e2c60268361112a565b9150611e3782611dd0565b604082019050919050565b60006020820190508181036000830152611e5b81611e1f565b905091905056fe4c69624469616d6f6e644375743a2041646420666163657420686173206e6f20636f64654c69624469616d6f6e644375743a205f696e6974206164647265737320686173206e6f20636f64654c69624469616d6f6e644375743a205265706c61636520666163657420686173206e6f20636f6465a264697066735822122075dbfd05886ca7f08e59cee5ed3f81eda9b63663b96f4622da95c2f1291f85e464736f6c634300080d00334c69624469616d6f6e644375743a2041646420666163657420686173206e6f20636f64654c69624469616d6f6e644375743a205f696e6974206164647265737320686173206e6f20636f64654c69624469616d6f6e644375743a205265706c61636520666163657420686173206e6f20636f6465a264697066735822122090bedebce209be9d171390028a58d77ccd39903eca76c0fba6cb950a9284b92c64736f6c634300080d0033",
  "immutableReferences": {},
  "source": "// SPDX-License-Identifier: GPL-3.0\npragma solidity ^0.8.0;\n\n// Contract imports\nimport {Diamond} from \"../vendor/Diamond.sol\";\n\n// Interface imports\nimport {IDiamondCut} from \"../vendor/interfaces/IDiamondCut.sol\";\nimport {IDiamondLoupe} from \"../vendor/interfaces/IDiamondLoupe.sol\";\nimport {IERC173} from \"../vendor/interfaces/IERC173.sol\";\n\n// Storage imports\nimport {WithStorage} from \"../libraries/LibStorage.sol\";\n\ncontract DFLobbyFacet is WithStorage {\n    event LobbyCreated(address ownerAddress, address lobbyAddress);\n\n    function createLobby(address initAddress, bytes calldata initData) public {\n        address diamondAddress = gs().diamondAddress;\n        address diamondCutAddress =\n            IDiamondLoupe(diamondAddress).facetAddress(IDiamondCut.diamondCut.selector);\n        Diamond lobby = new Diamond(diamondAddress, diamondCutAddress);\n\n        IDiamondLoupe.Facet[] memory facets = IDiamondLoupe(diamondAddress).facets();\n\n        IDiamondCut.FacetCut[] memory facetCut = new IDiamondCut.FacetCut[](facets.length - 1);\n        uint256 cutIdx = 0;\n        for (uint256 i = 0; i < facets.length; i++) {\n            if (facets[i].facetAddress != diamondCutAddress) {\n                facetCut[cutIdx] = IDiamondCut.FacetCut({\n                    facetAddress: facets[i].facetAddress,\n                    action: IDiamondCut.FacetCutAction.Add,\n                    functionSelectors: facets[i].functionSelectors\n                });\n                cutIdx++;\n            }\n        }\n\n        IDiamondCut(address(lobby)).diamondCut(facetCut, initAddress, initData);\n\n        IERC173(address(lobby)).transferOwnership(msg.sender);\n\n        emit LobbyCreated(msg.sender, address(lobby));\n    }\n}\n",
  "sourcePath": "/home/terra/opensource/tosca-chain/smart-contract-example/contracts/facets/DFLobbyFacet.sol",
  "compiler": {
    "name": "solc",
    "version": "0.8.13+commit.abaa5c0e.Emscripten.clang"
  },
  "schemaVersion": "3.4.7",
  "updatedAt": "2022-04-30T15:27:25.815Z",
  "devdoc": {
    "kind": "dev",
    "methods": {},
    "version": 1
  },
  "userdoc": {
    "kind": "user",
    "methods": {},
    "version": 1
  }
}