{
  "contractName": "DFMoveFacet",
  "abi": [
    {
      "anonymous": false,
      "inputs": [
        {
          "indexed": false,
          "internalType": "address",
          "name": "player",
          "type": "address"
        },
        {
          "indexed": false,
          "internalType": "uint256",
          "name": "arrivalId",
          "type": "uint256"
        },
        {
          "indexed": false,
          "internalType": "uint256",
          "name": "from",
          "type": "uint256"
        },
        {
          "indexed": false,
          "internalType": "uint256",
          "name": "to",
          "type": "uint256"
        },
        {
          "indexed": false,
          "internalType": "uint256",
          "name": "artifactId",
          "type": "uint256"
        },
        {
          "indexed": false,
          "internalType": "uint256",
          "name": "abandoning",
          "type": "uint256"
        }
      ],
      "name": "ArrivalQueued",
      "type": "event"
    },
    {
      "inputs": [
        {
          "internalType": "uint256[2]",
          "name": "_a",
          "type": "uint256[2]"
        },
        {
          "internalType": "uint256[2][2]",
          "name": "_b",
          "type": "uint256[2][2]"
        },
        {
          "internalType": "uint256[2]",
          "name": "_c",
          "type": "uint256[2]"
        },
        {
          "internalType": "uint256[14]",
          "name": "_input",
          "type": "uint256[14]"
        }
      ],
      "name": "move",
      "outputs": [
        {
          "internalType": "uint256",
          "name": "",
          "type": "uint256"
        }
      ],
      "stateMutability": "nonpayable",
      "type": "function"
    },
    {
      "inputs": [
        {
          "components": [
            {
              "internalType": "bool",
              "name": "isInitialized",
              "type": "bool"
            },
            {
              "internalType": "uint256",
              "name": "id",
              "type": "uint256"
            },
            {
              "internalType": "uint256",
              "name": "planetDiscoveredOn",
              "type": "uint256"
            },
            {
              "internalType": "enum ArtifactRarity",
              "name": "rarity",
              "type": "uint8"
            },
            {
              "internalType": "enum Biome",
              "name": "planetBiome",
              "type": "uint8"
            },
            {
              "internalType": "uint256",
              "name": "mintedAtTimestamp",
              "type": "uint256"
            },
            {
              "internalType": "address",
              "name": "discoverer",
              "type": "address"
            },
            {
              "internalType": "enum ArtifactType",
              "name": "artifactType",
              "type": "uint8"
            },
            {
              "internalType": "uint256",
              "name": "activations",
              "type": "uint256"
            },
            {
              "internalType": "uint256",
              "name": "lastActivated",
              "type": "uint256"
            },
            {
              "internalType": "uint256",
              "name": "lastDeactivated",
              "type": "uint256"
            },
            {
              "internalType": "uint256",
              "name": "wormholeTo",
              "type": "uint256"
            },
            {
              "internalType": "address",
              "name": "controller",
              "type": "address"
            }
          ],
          "internalType": "struct Artifact",
          "name": "artifact",
          "type": "tuple"
        },
        {
          "components": [
            {
              "internalType": "address",
              "name": "owner",
              "type": "address"
            },
            {
              "internalType": "uint256",
              "name": "range",
              "type": "uint256"
            },
            {
              "internalType": "uint256",
              "name": "speed",
              "type": "uint256"
            },
            {
              "internalType": "uint256",
              "name": "defense",
              "type": "uint256"
            },
            {
              "internalType": "uint256",
              "name": "population",
              "type": "uint256"
            },
            {
              "internalType": "uint256",
              "name": "populationCap",
              "type": "uint256"
            },
            {
              "internalType": "uint256",
              "name": "populationGrowth",
              "type": "uint256"
            },
            {
              "internalType": "uint256",
              "name": "silverCap",
              "type": "uint256"
            },
            {
              "internalType": "uint256",
              "name": "silverGrowth",
              "type": "uint256"
            },
            {
              "internalType": "uint256",
              "name": "silver",
              "type": "uint256"
            },
            {
              "internalType": "uint256",
              "name": "planetLevel",
              "type": "uint256"
            },
            {
              "internalType": "enum PlanetType",
              "name": "planetType",
              "type": "uint8"
            },
            {
              "internalType": "bool",
              "name": "isHomePlanet",
              "type": "bool"
            }
          ],
          "internalType": "struct Planet",
          "name": "planet",
          "type": "tuple"
        },
        {
          "components": [
            {
              "internalType": "bool",
              "name": "isInitialized",
              "type": "bool"
            },
            {
              "internalType": "uint256",
              "name": "createdAt",
              "type": "uint256"
            },
            {
              "internalType": "uint256",
              "name": "lastUpdated",
              "type": "uint256"
            },
            {
              "internalType": "uint256",
              "name": "perlin",
              "type": "uint256"
            },
            {
              "internalType": "enum SpaceType",
              "name": "spaceType",
              "type": "uint8"
            },
            {
              "internalType": "uint256",
              "name": "upgradeState0",
              "type": "uint256"
            },
            {
              "internalType": "uint256",
              "name": "upgradeState1",
              "type": "uint256"
            },
            {
              "internalType": "uint256",
              "name": "upgradeState2",
              "type": "uint256"
            },
            {
              "internalType": "uint256",
              "name": "hatLevel",
              "type": "uint256"
            },
            {
              "internalType": "bool",
              "name": "hasTriedFindingArtifact",
              "type": "bool"
            },
            {
              "internalType": "uint256",
              "name": "prospectedBlockNumber",
              "type": "uint256"
            },
            {
              "internalType": "bool",
              "name": "destroyed",
              "type": "bool"
            },
            {
              "internalType": "uint256",
              "name": "spaceJunk",
              "type": "uint256"
            }
          ],
          "internalType": "struct PlanetExtendedInfo",
          "name": "planetExtendedInfo",
          "type": "tuple"
        },
        {
          "components": [
            {
              "internalType": "bool",
              "name": "isInitialized",
              "type": "bool"
            },
            {
              "internalType": "uint256",
              "name": "pausers",
              "type": "uint256"
            },
            {
              "internalType": "address",
              "name": "invader",
              "type": "address"
            },
            {
              "internalType": "uint256",
              "name": "invadeStartBlock",
              "type": "uint256"
            },
            {
              "internalType": "address",
              "name": "capturer",
              "type": "address"
            }
          ],
          "internalType": "struct PlanetExtendedInfo2",
          "name": "planetExtendedInfo2",
          "type": "tuple"
        }
      ],
      "name": "applySpaceshipDepart",
      "outputs": [
        {
          "components": [
            {
              "internalType": "address",
              "name": "owner",
              "type": "address"
            },
            {
              "internalType": "uint256",
              "name": "range",
              "type": "uint256"
            },
            {
              "internalType": "uint256",
              "name": "speed",
              "type": "uint256"
            },
            {
              "internalType": "uint256",
              "name": "defense",
              "type": "uint256"
            },
            {
              "internalType": "uint256",
              "name": "population",
              "type": "uint256"
            },
            {
              "internalType": "uint256",
              "name": "populationCap",
              "type": "uint256"
            },
            {
              "internalType": "uint256",
              "name": "populationGrowth",
              "type": "uint256"
            },
            {
              "internalType": "uint256",
              "name": "silverCap",
              "type": "uint256"
            },
            {
              "internalType": "uint256",
              "name": "silverGrowth",
              "type": "uint256"
            },
            {
              "internalType": "uint256",
              "name": "silver",
              "type": "uint256"
            },
            {
              "internalType": "uint256",
              "name": "planetLevel",
              "type": "uint256"
            },
            {
              "internalType": "enum PlanetType",
              "name": "planetType",
              "type": "uint8"
            },
            {
              "internalType": "bool",
              "name": "isHomePlanet",
              "type": "bool"
            }
          ],
          "internalType": "struct Planet",
          "name": "",
          "type": "tuple"
        },
        {
          "components": [
            {
              "internalType": "bool",
              "name": "isInitialized",
              "type": "bool"
            },
            {
              "internalType": "uint256",
              "name": "createdAt",
              "type": "uint256"
            },
            {
              "internalType": "uint256",
              "name": "lastUpdated",
              "type": "uint256"
            },
            {
              "internalType": "uint256",
              "name": "perlin",
              "type": "uint256"
            },
            {
              "internalType": "enum SpaceType",
              "name": "spaceType",
              "type": "uint8"
            },
            {
              "internalType": "uint256",
              "name": "upgradeState0",
              "type": "uint256"
            },
            {
              "internalType": "uint256",
              "name": "upgradeState1",
              "type": "uint256"
            },
            {
              "internalType": "uint256",
              "name": "upgradeState2",
              "type": "uint256"
            },
            {
              "internalType": "uint256",
              "name": "hatLevel",
              "type": "uint256"
            },
            {
              "internalType": "bool",
              "name": "hasTriedFindingArtifact",
              "type": "bool"
            },
            {
              "internalType": "uint256",
              "name": "prospectedBlockNumber",
              "type": "uint256"
            },
            {
              "internalType": "bool",
              "name": "destroyed",
              "type": "bool"
            },
            {
              "internalType": "uint256",
              "name": "spaceJunk",
              "type": "uint256"
            }
          ],
          "internalType": "struct PlanetExtendedInfo",
          "name": "",
          "type": "tuple"
        },
        {
          "components": [
            {
              "internalType": "bool",
              "name": "isInitialized",
              "type": "bool"
            },
            {
              "internalType": "uint256",
              "name": "pausers",
              "type": "uint256"
            },
            {
              "internalType": "address",
              "name": "invader",
              "type": "address"
            },
            {
              "internalType": "uint256",
              "name": "invadeStartBlock",
              "type": "uint256"
            },
            {
              "internalType": "address",
              "name": "capturer",
              "type": "address"
            }
          ],
          "internalType": "struct PlanetExtendedInfo2",
          "name": "",
          "type": "tuple"
        }
      ],
      "stateMutability": "view",
      "type": "function"
    }
  ],
  "bytecode": "0x608060405234801561001057600080fd5b5061654680620000216000396000f3fe608060405234801561001057600080fd5b50600436106100365760003560e01c8063b3b4159f1461003b578063df52e92a1461006b575b600080fd5b6100556004803603810190610050919061422b565b61009d565b60405161006291906142a3565b60405180910390f35b61008560048036038101906100809190614846565b610875565b60405161009493929190614c1b565b60405180910390f35b60006100a76109ab565b60000160149054906101000a900460ff16156100f8576040517f08c379a00000000000000000000000000000000000000000000000000000000081526004016100ef90614cb2565b60405180910390fd5b73__LibGameUtils__________________________6326c7e6186040518060a00160405280856005600e811061013157610130614cd2565b5b60200201518152602001856006600e811061014f5761014e614cd2565b5b60200201518152602001856007600e811061016d5761016c614cd2565b5b60200201518152602001856008600e811061018b5761018a614cd2565b5b60200201518152602001856009600e81106101a9576101a8614cd2565b5b602002015181525060006040518363ffffffff1660e01b81526004016101d0929190614dbb565b602060405180830381865af41580156101ed573d6000803e3d6000fd5b505050506040513d601f19601f820116820180604052508101906102119190614df9565b506000604051806101000160405280846000600e811061023457610233614cd2565b5b60200201518152602001846001600e811061025257610251614cd2565b5b60200201518152602001846004600e81106102705761026f614cd2565b5b6020020151815260200184600a600e811061028e5761028d614cd2565b5b6020020151815260200184600b600e81106102ac576102ab614cd2565b5b6020020151815260200184600c600e81106102ca576102c9614cd2565b5b6020020151815260200184600d600e81106102e8576102e7614cd2565b5b602002015181526020013373ffffffffffffffffffffffffffffffffffffffff168152509050610317816109ba565b156103565760008160e0019073ffffffffffffffffffffffffffffffffffffffff16908173ffffffffffffffffffffffffffffffffffffffff16815250505b6000836002600e811061036c5761036b614cd2565b5b602002015190506000846003600e811061038957610388614cd2565b5b60200201519050610398610a6b565b60000160009054906101000a900460ff1661053a576000604051806101400160405280856000015181526020018560200151815260200184815260200183815260200185604001518152602001876005600e81106103f9576103f8614cd2565b5b60200201518152602001876006600e811061041757610416614cd2565b5b60200201518152602001876007600e811061043557610434614cd2565b5b60200201518152602001876008600e811061045357610452614cd2565b5b60200201518152602001876009600e811061047157610470614cd2565b5b6020020151815250905073__Verifier______________________________637e0bb9098a8a8a856040518563ffffffff1660e01b81526004016104b8949392919061502c565b602060405180830381865af41580156104d5573d6000803e3d6000fd5b505050506040513d601f19601f820116820180604052508101906104f99190614df9565b610538576040517f08c379a000000000000000000000000000000000000000000000000000000000815260040161052f906150bf565b60405180910390fd5b505b6105426109ab565b60090154811115610588576040517f08c379a000000000000000000000000000000000000000000000000000000000815260040161057f9061512b565b60405180910390fd5b73__LibPlanet_____________________________633f324cf384600001516040518263ffffffff1660e01b81526004016105c3919061515a565b60006040518083038186803b1580156105db57600080fd5b505af41580156105ef573d6000803e3d6000fd5b505050506105fb6109ab565b600a01600081548092919061060f906151a4565b919050555061061c6109ab565b600e0160008460200151815260200190815260200160002060000160009054906101000a900460ff166106be5773__LibPlanet_____________________________631f59767e84602001518460006040518463ffffffff1660e01b8152600401610689939291906151ec565b60006040518083038186803b1580156106a157600080fd5b505af41580156106b5573d6000803e3d6000fd5b5050505061079b565b73__LibPlanet_____________________________633f324cf384602001516040518263ffffffff1660e01b81526004016106f9919061515a565b60006040518083038186803b15801561071157600080fd5b505af4158015610725573d6000803e3d6000fd5b5050505073__LibGameUtils__________________________63bf194fb484602001518560e001516040518363ffffffff1660e01b815260040161076a929190615232565b60006040518083038186803b15801561078257600080fd5b505af4158015610796573d6000803e3d6000fd5b505050505b6107a483610a7a565b73__LibGameUtils__________________________63eaae46536040518163ffffffff1660e01b815260040160006040518083038186803b1580156107e857600080fd5b505af41580156107fc573d6000803e3d6000fd5b505050507f927f8644a615619c5fa9893b76bfe497ea73d0a149963cc931126f78c4af7c573361082a6109ab565b600a0154856000015186602001518760a001518860c001516040516108549695949392919061526a565b60405180910390a16108646109ab565b600a01549350505050949350505050565b61087d613cd3565b610885613d65565b61088d613de5565b856101800151156108a6578585859250925092506109a1565b600a600e8111156108ba576108b96148cf565b5b8760e00151600e8111156108d1576108d06148cf565b5b036108f55760028660c0018181516108e991906152fa565b91508181525050610997565b600c600e811115610909576109086148cf565b5b8760e00151600e8111156109205761091f6148cf565b5b03610945576002866101000181815161093991906152fa565b91508181525050610996565b600e80811115610958576109576148cf565b5b8760e00151600e81111561096f5761096e6148cf565b5b0361099557428560400181815250508360200180518091906109909061532b565b815250505b5b5b8585859250925092505b9450945094915050565b60006109b5610f16565b905090565b600073__LibArtifactUtils______________________639bc1a4526109de6109ab565b60160160008560a00151815260200190815260200160002060050160149054906101000a900460ff166040518263ffffffff1660e01b8152600401610a23919061539c565b602060405180830381865af4158015610a40573d6000803e3d6000fd5b505050506040513d601f19601f82011682018060405250810190610a649190614df9565b9050919050565b6000610a75610f43565b905090565b610a8381610f70565b600060648260400151610a9691906153b7565b9050600060019050600073__LibGameUtils__________________________63aaad4d376040518163ffffffff1660e01b815260040160a060405180830381865af4158015610ae9573d6000803e3d6000fd5b505050506040513d601f19601f82011682018060405250810190610b0d91906154b2565b9050600080610b1b86611368565b915091508115610b38578085610b3191906152fa565b9450600393505b610b41866109ba565b610b6657600080610b51886115a5565b915091508115610b6357809450600295505b50505b610b6f86611785565b600086606001519050600087608001519050600082610b8c6109ab565b600c0160008b60000151815260200190815260200160002060040154610bb291906154df565b9050610bbc612018565b60490160009054906101000a900460ff168015610bdf5750610bdd896109ba565b155b15610c225760008960c0015114610c1857600080600080610bff8d612027565b9350935093509350839650829550819450809950505050505b610c21896125b5565b5b73__LibGameUtils__________________________6392dd471c8a60000151886040518363ffffffff1660e01b8152600401610c5f92919061557b565b60006040518083038186803b158015610c7757600080fd5b505af4158015610c8b573d6000803e3d6000fd5b505050506000610c996109ab565b600c0160008b6000015181526020019081526020016000206002015489610cc091906152fa565b905060008103610ccf57600190505b610cd76109ab565b60130160008b6020015181526020019081526020016000206040518060800160405280610d026109ab565b600a01548152602001600080811115610d1e57610d1d6148cf565b5b81526020018342610d2f91906155a4565b81526020014281525090806001815401808255809150506001900390600052602060002090600402016000909190919091506000820151816000015560208201518160010160006101000a81548160ff02191690836000811115610d9657610d956148cf565b5b021790555060408201518160020155606082015181600301555050610e3b6040518061014001604052808c60e0015173ffffffffffffffffffffffffffffffffffffffff1681526020018c6000015181526020018c6020015181526020018c6040015181526020018b81526020018681526020018581526020018381526020018c60a0015181526020018a6003811115610e3357610e326148cf565b5b815250612799565b73__LibGameUtils__________________________63b0c026398b60000151896040518363ffffffff1660e01b8152600401610e7892919061557b565b60006040518083038186803b158015610e9057600080fd5b505af4158015610ea4573d6000803e3d6000fd5b5050505082610eb16109ab565b600c0160008c6000015181526020019081526020016000206009016000828254610edb91906154df565b9250508190555081610eeb6109ab565b600c0160008c6000015181526020019081526020016000206004018190555050505050505050505050565b6000807fcb7f1a525606efcbba7baaf9b0b55c468d0fd558cbf767967f538834dfa1232e90508091505090565b6000807f2849cb27302bb32c0c7252ab45487d42296bcddad804f932e0b0589e515a937490508091505090565b610f79816109ba565b156110c2576000816060015114610fc5576040517f08c379a0000000000000000000000000000000000000000000000000000000008152600401610fbc90615646565b60405180910390fd5b600081608001511461100c576040517f08c379a0000000000000000000000000000000000000000000000000000000008152600401611003906156b2565b60405180910390fd5b3373ffffffffffffffffffffffffffffffffffffffff1661102b6109ab565b60160160008360a001518152602001908152602001600020600a0160009054906101000a900473ffffffffffffffffffffffffffffffffffffffff1673ffffffffffffffffffffffffffffffffffffffff16146110bd576040517f08c379a00000000000000000000000000000000000000000000000000000000081526004016110b49061571e565b60405180910390fd5b611288565b80606001516110cf6109ab565b600c01600083600001518152602001908152602001600020600401541161112b576040517f08c379a0000000000000000000000000000000000000000000000000000000008152600401611122906157b0565b60405180910390fd5b6111336109ab565b600e01600082602001518152602001908152602001600020600b0160009054906101000a900460ff16158015611197575061116c6109ab565b600e01600082600001518152602001908152602001600020600b0160009054906101000a900460ff16155b6111d6576040517f08c379a00000000000000000000000000000000000000000000000000000000081526004016111cd9061581c565b60405180910390fd5b3373ffffffffffffffffffffffffffffffffffffffff166111f56109ab565b600c0160008360000151815260200190815260200160002060000160009054906101000a900473ffffffffffffffffffffffffffffffffffffffff1673ffffffffffffffffffffffffffffffffffffffff1614611287576040517f08c379a000000000000000000000000000000000000000000000000000000000815260040161127e906158ae565b60405180910390fd5b5b80608001516112956109ab565b600c016000836000015181526020019081526020016000206009015410156112f2576040517f08c379a00000000000000000000000000000000000000000000000000000000081526004016112e990615940565b60405180910390fd5b60008160a00151146113655760056113086109ab565b6015016000836020015181526020019081526020016000208054905010611364576040517f08c379a000000000000000000000000000000000000000000000000000000000815260040161135b906159d2565b60405180910390fd5b5b50565b600080611373613e42565b600073__LibGameUtils__________________________63c4e6f90986600001516040518263ffffffff1660e01b81526004016113b0919061515a565b6101a060405180830381865af41580156113ce573d6000803e3d6000fd5b505050506040513d601f19601f820116820180604052508101906113f29190615b7e565b9050600073__LibGameUtils__________________________63c4e6f90987602001516040518263ffffffff1660e01b8152600401611431919061515a565b6101a060405180830381865af415801561144f573d6000803e3d6000fd5b505050506040513d601f19601f820116820180604052508101906114739190615b7e565b9050816000015180156114ae57506005600e811115611495576114946148cf565b5b8260e00151600e8111156114ac576114ab6148cf565b5b145b80156114c257508560200151826101600151145b156114cf57819250611526565b8060000151801561150857506005600e8111156114ef576114ee6148cf565b5b8160e00151600e811115611506576115056148cf565b5b145b801561151c57508560000151816101600151145b15611525578092505b5b82600001511561159d576001945060006040518060c001604052806001815260200160028152602001600481526020016008815260200160108152602001602081525090508084606001516005811115611583576115826148cf565b5b6006811061159457611593614cd2565b5b60200201519450505b505050915091565b60006115af613f0e565b600073__LibGameUtils__________________________63c4e6f90985600001516040518263ffffffff1660e01b81526004016115ec919061515a565b6101a060405180830381865af415801561160a573d6000803e3d6000fd5b505050506040513d601f19601f8201168201806040525081019061162e9190615b7e565b90508060000151801561166957506007600e8111156116505761164f6148cf565b5b8160e00151600e811115611667576116666148cf565b5b145b80156116905750611678612018565b601801548161012001514261168d91906154df565b10155b1561177f576001925073__LibArtifactUtils______________________63c918aebd85600001516040518263ffffffff1660e01b81526004016116d4919061515a565b60006040518083038186803b1580156116ec57600080fd5b505af4158015611700573d6000803e3d6000fd5b5050505073__LibGameUtils__________________________6329fa32f7826040518263ffffffff1660e01b815260040161173b9190615d74565b60a060405180830381865af4158015611758573d6000803e3d6000fd5b505050506040513d601f19601f8201168201806040525081019061177c91906154b2565b91505b50915091565b600061178f6109ab565b60160160008360a001518152602001908152602001600020604051806101a00160405290816000820160009054906101000a900460ff1615151515815260200160018201548152602001600282015481526020016003820160009054906101000a900460ff166005811115611807576118066148cf565b5b6005811115611819576118186148cf565b5b81526020016003820160019054906101000a900460ff16600a811115611842576118416148cf565b5b600a811115611854576118536148cf565b5b8152602001600482015481526020016005820160009054906101000a900473ffffffffffffffffffffffffffffffffffffffff1673ffffffffffffffffffffffffffffffffffffffff1673ffffffffffffffffffffffffffffffffffffffff1681526020016005820160149054906101000a900460ff16600e8111156118dd576118dc6148cf565b5b600e8111156118ef576118ee6148cf565b5b815260200160068201548152602001600782015481526020016008820154815260200160098201548152602001600a820160009054906101000a900473ffffffffffffffffffffffffffffffffffffffff1673ffffffffffffffffffffffffffffffffffffffff1673ffffffffffffffffffffffffffffffffffffffff1681525050905061197b613cd3565b611983613d65565b61198b613de5565b611ce8846119976109ab565b600c01600088600001518152602001908152602001600020604051806101a00160405290816000820160009054906101000a900473ffffffffffffffffffffffffffffffffffffffff1673ffffffffffffffffffffffffffffffffffffffff1673ffffffffffffffffffffffffffffffffffffffff168152602001600182015481526020016002820154815260200160038201548152602001600482015481526020016005820154815260200160068201548152602001600782015481526020016008820154815260200160098201548152602001600a8201548152602001600b820160009054906101000a900460ff166004811115611a9a57611a996148cf565b5b6004811115611aac57611aab6148cf565b5b8152602001600b820160019054906101000a900460ff161515151581525050611ad36109ab565b600e01600089600001518152602001908152602001600020604051806101a00160405290816000820160009054906101000a900460ff161515151581526020016001820154815260200160028201548152602001600382015481526020016004820160009054906101000a900460ff166003811115611b5557611b546148cf565b5b6003811115611b6757611b666148cf565b5b8152602001600582015481526020016006820154815260200160078201548152602001600882015481526020016009820160009054906101000a900460ff16151515158152602001600a8201548152602001600b820160009054906101000a900460ff16151515158152602001600c82015481525050611be56109ab565b600f0160008a6000015181526020019081526020016000206040518060a00160405290816000820160009054906101000a900460ff16151515158152602001600182015481526020016002820160009054906101000a900473ffffffffffffffffffffffffffffffffffffffff1673ffffffffffffffffffffffffffffffffffffffff1673ffffffffffffffffffffffffffffffffffffffff168152602001600382015481526020016004820160009054906101000a900473ffffffffffffffffffffffffffffffffffffffff1673ffffffffffffffffffffffffffffffffffffffff1673ffffffffffffffffffffffffffffffffffffffff1681525050610875565b80935081945082955050505082611cfd6109ab565b600c0160008760000151815260200190815260200160002060008201518160000160006101000a81548173ffffffffffffffffffffffffffffffffffffffff021916908373ffffffffffffffffffffffffffffffffffffffff1602179055506020820151816001015560408201518160020155606082015181600301556080820151816004015560a0820151816005015560c0820151816006015560e082015181600701556101008201518160080155610120820151816009015561014082015181600a015561016082015181600b0160006101000a81548160ff02191690836004811115611def57611dee6148cf565b5b021790555061018082015181600b0160016101000a81548160ff02191690831515021790555090505081611e216109ab565b600e0160008760000151815260200190815260200160002060008201518160000160006101000a81548160ff02191690831515021790555060208201518160010155604082015181600201556060820151816003015560808201518160040160006101000a81548160ff02191690836003811115611ea257611ea16148cf565b5b021790555060a0820151816005015560c0820151816006015560e0820151816007015561010082015181600801556101208201518160090160006101000a81548160ff02191690831515021790555061014082015181600a015561016082015181600b0160006101000a81548160ff02191690831515021790555061018082015181600c015590505080611f346109ab565b600f0160008760000151815260200190815260200160002060008201518160000160006101000a81548160ff0219169083151502179055506020820151816001015560408201518160020160006101000a81548173ffffffffffffffffffffffffffffffffffffffff021916908373ffffffffffffffffffffffffffffffffffffffff1602179055506060820151816003015560808201518160040160006101000a81548173ffffffffffffffffffffffffffffffffffffffff021916908373ffffffffffffffffffffffffffffffffffffffff1602179055509050505050505050565b6000612022612ca6565b905090565b6000806000612034613f0e565b600061203e6109ab565b601301600087600001518152602001908152602001600020805490501461209a576040517f08c379a000000000000000000000000000000000000000000000000000000000815260040161209190615e02565b60405180910390fd5b6120a26109ab565b600c01600086600001518152602001908152602001600020600b0160019054906101000a900460ff161561210b576040517f08c379a000000000000000000000000000000000000000000000000000000000815260040161210290615e6e565b60405180910390fd5b6121136109ab565b600c016000866000015181526020019081526020016000206004015493506121396109ab565b600c01600086600001518152602001908152602001600020600901549250600273__LibGameUtils__________________________6314f65d3b87600001516121806109ab565b600c0160008a600001518152602001908152602001600020600a01546121a46109ab565b600c0160008b600001518152602001908152602001600020600b0160009054906101000a900460ff166121d56109ab565b600e0160008c60000151815260200190815260200160002060040160009054906101000a900460ff16612206612018565b600301546040518663ffffffff1660e01b815260040161222a959493929190615eac565b6101a060405180830381865af4158015612248573d6000803e3d6000fd5b505050506040513d601f19601f8201168201806040525081019061226c919061604c565b6080015161227a91906153b7565b915073__LibGameUtils__________________________63df830d1f6040518163ffffffff1660e01b815260040160a060405180830381865af41580156122c5573d6000803e3d6000fd5b505050506040513d601f19601f820116820180604052508101906122e991906154b2565b9050600073__LibGameUtils__________________________63ce3b576b61230f6109ab565b600c016000896000015181526020019081526020016000206040518263ffffffff1660e01b815260040161234391906162df565b602060405180830381865af4158015612360573d6000803e3d6000fd5b505050506040513d601f19601f8201168201806040525081019061238491906162fb565b905073__LibGameUtils__________________________639160f2de87600001516040518263ffffffff1660e01b81526004016123c1919061515a565b602060405180830381865af41580156123de573d6000803e3d6000fd5b505050506040513d601f19601f820116820180604052508101906124029190614df9565b156124175760028161241491906152fa565b90505b61241f6109ab565b60120160003373ffffffffffffffffffffffffffffffffffffffff1673ffffffffffffffffffffffffffffffffffffffff1681526020019081526020016000206005015481106124bf5760006124736109ab565b60120160003373ffffffffffffffffffffffffffffffffffffffff1673ffffffffffffffffffffffffffffffffffffffff16815260200190815260200160002060050181905550612522565b806124c86109ab565b60120160003373ffffffffffffffffffffffffffffffffffffffff1673ffffffffffffffffffffffffffffffffffffffff168152602001908152602001600020600501600082825461251a91906154df565b925050819055505b8061252b6109ab565b600e01600088600001518152602001908152602001600020600c018190555060006125546109ab565b600c0160008860000151815260200190815260200160002060000160006101000a81548173ffffffffffffffffffffffffffffffffffffffff021916908373ffffffffffffffffffffffffffffffffffffffff160217905550509193509193565b6125bd6109ab565b60120160003373ffffffffffffffffffffffffffffffffffffffff1673ffffffffffffffffffffffffffffffffffffffff168152602001908152602001600020600601546126096109ab565b600e01600083602001518152602001908152602001600020600c015461262d6109ab565b60120160003373ffffffffffffffffffffffffffffffffffffffff1673ffffffffffffffffffffffffffffffffffffffff1681526020019081526020016000206005015461267b91906155a4565b11156126bc576040517f08c379a00000000000000000000000000000000000000000000000000000000081526004016126b39061639a565b60405180910390fd5b60006126c66109ab565b600e01600083602001518152602001908152602001600020600c015414612796576126ef6109ab565b600e01600082602001518152602001908152602001600020600c01546127136109ab565b60120160003373ffffffffffffffffffffffffffffffffffffffff1673ffffffffffffffffffffffffffffffffffffffff168152602001908152602001600020600501600082825461276591906155a4565b9250508190555060006127766109ab565b600e01600083602001518152602001908152602001600020600c01819055505b50565b60006127a36109ab565b600c01600083602001518152602001908152602001600020604051806101a00160405290816000820160009054906101000a900473ffffffffffffffffffffffffffffffffffffffff1673ffffffffffffffffffffffffffffffffffffffff1673ffffffffffffffffffffffffffffffffffffffff168152602001600182015481526020016002820154815260200160038201548152602001600482015481526020016005820154815260200160068201548152602001600782015481526020016008820154815260200160098201548152602001600a8201548152602001600b820160009054906101000a900460ff1660048111156128a6576128a56148cf565b5b60048111156128b8576128b76148cf565b5b8152602001600b820160019054906101000a900460ff161515151581525050905060006128f78360a00151846080015184602001518560a00151612cd3565b9050600073__LibArtifactUtils______________________639bc1a45261291d6109ab565b6016016000876101000151815260200190815260200160002060050160149054906101000a900460ff166040518263ffffffff1660e01b8152600401612963919061539c565b602060405180830381865af4158015612980573d6000803e3d6000fd5b505050506040513d601f19601f820116820180604052508101906129a49190614df9565b905060008211806129b25750805b6129f1576040517f08c379a00000000000000000000000000000000000000000000000000000000081526004016129e890616406565b60405180910390fd5b806129fd576001612a06565b60008460a00151145b612a45576040517f08c379a0000000000000000000000000000000000000000000000000000000008152600401612a3c90616498565b60405180910390fd5b604051806101600160405280612a596109ab565b600a01548152602001856000015173ffffffffffffffffffffffffffffffffffffffff16815260200185602001518152602001856040015181526020018381526020018560c0015181526020014281526020018560e0015142612abc91906155a4565b81526020018561012001516003811115612ad957612ad86148cf565b5b815260200185610100015181526020018560600151815250612af96109ab565b6014016000612b066109ab565b600a015481526020019081526020016000206000820151816000015560208201518160010160006101000a81548173ffffffffffffffffffffffffffffffffffffffff021916908373ffffffffffffffffffffffffffffffffffffffff16021790555060408201518160020155606082015181600301556080820151816004015560a0820151816005015560c0820151816006015560e082015181600701556101008201518160080160006101000a81548160ff02191690836003811115612bd157612bd06148cf565b5b0217905550610120820151816009015561014082015181600a0155905050600084610100015114612ca05773__LibGameUtils__________________________63ddd2866085610100015186602001516040518363ffffffff1660e01b8152600401612c3e9291906164b8565b60006040518083038186803b158015612c5657600080fd5b505af4158015612c6a573d6000803e3d6000fd5b50505050612c766109ab565b600a0154612c826109ab565b60110160008661010001518152602001908152602001600020819055505b50505050565b6000807f5fb65bb339c6bd3f2609a7342e6cb046e09f3e40f45242a5971904b021b5bb5390508091505090565b600080612cf4612cef86606487612cea91906153b7565b612d5c565b612dc3565b90506000612d03846014612d5c565b90506000612d19612d13896139c3565b846139e6565b905081600f0b81600f0b1315612d4c57612d3b612d368284613a6f565b613ad6565b67ffffffffffffffff169350612d51565b600093505b505050949350505050565b6000808203612d6a57600080fd5b6000612d768484613af7565b90506f7fffffffffffffffffffffffffffffff6fffffffffffffffffffffffffffffffff16816fffffffffffffffffffffffffffffffff161115612db957600080fd5b8091505092915050565b60006840000000000000000082600f0b12612ddd57600080fd5b7fffffffffffffffffffffffffffffffffffffffffffffffc0000000000000000082600f0b1215612e1157600090506139be565b60006f80000000000000000000000000000000905060006780000000000000008416600f0b1315612e5757608070016a09e667f3bcc908b2fb1366ea957d3e8202901c90505b60006740000000000000008416600f0b1315612e885760807001306fe0a31b7152de8d5a46305c85edec8202901c90505b60006720000000000000008416600f0b1315612eb95760807001172b83c7d517adcdf7c8c50eb14a791f8202901c90505b60006710000000000000008416600f0b1315612eea57608070010b5586cf9890f6298b92b71842a983638202901c90505b60006708000000000000008416600f0b1315612f1b5760807001059b0d31585743ae7c548eb68ca417fd8202901c90505b60006704000000000000008416600f0b1315612f4c576080700102c9a3e778060ee6f7caca4f7a29bde88202901c90505b60006702000000000000008416600f0b1315612f7d57608070010163da9fb33356d84a66ae336dcdfa3f8202901c90505b60006701000000000000008416600f0b1315612fae576080700100b1afa5abcbed6129ab13ec11dc95438202901c90505b600066800000000000008416600f0b1315612fde57608070010058c86da1c09ea1ff19d294cf2f679b8202901c90505b600066400000000000008416600f0b131561300e5760807001002c605e2e8cec506d21bfc89a23a00f8202901c90505b600066200000000000008416600f0b131561303e576080700100162f3904051fa128bca9c55c31e5df8202901c90505b600066100000000000008416600f0b131561306e5760807001000b175effdc76ba38e31671ca9397258202901c90505b600066080000000000008416600f0b131561309e576080700100058ba01fb9f96d6cacd4b180917c3d8202901c90505b600066040000000000008416600f0b13156130ce57608070010002c5cc37da9491d0985c348c68e7b38202901c90505b600066020000000000008416600f0b13156130fe5760807001000162e525ee054754457d59952920268202901c90505b600066010000000000008416600f0b131561312e57608070010000b17255775c040618bf4a4ade83fc8202901c90505b6000658000000000008416600f0b131561315d5760807001000058b91b5bc9ae2eed81e9b7d4cfab8202901c90505b6000654000000000008416600f0b131561318c576080700100002c5c89d5ec6ca4d7c8acc017b7c98202901c90505b6000652000000000008416600f0b13156131bb57608070010000162e43f4f831060e02d839a9d16d8202901c90505b6000651000000000008416600f0b13156131ea576080700100000b1721bcfc99d9f890ea069117638202901c90505b6000650800000000008416600f0b131561321957608070010000058b90cf1e6d97f9ca14dbcc16288202901c90505b6000650400000000008416600f0b13156132485760807001000002c5c863b73f016468f6bac5ca2b8202901c90505b6000650200000000008416600f0b1315613277576080700100000162e430e5a18f6119e3c02282a58202901c90505b6000650100000000008416600f0b13156132a65760807001000000b1721835514b86e6d96efd1bfe8202901c90505b60006480000000008416600f0b13156132d4576080700100000058b90c0b48c6be5df846c5b2ef8202901c90505b60006440000000008416600f0b131561330257608070010000002c5c8601cc6b9e94213c72737a8202901c90505b60006420000000008416600f0b13156133305760807001000000162e42fff037df38aa2b219f068202901c90505b60006410000000008416600f0b131561335e57608070010000000b17217fba9c739aa5819f44f98202901c90505b60006408000000008416600f0b131561338c5760807001000000058b90bfcdee5acd3c1cedc8238202901c90505b60006404000000008416600f0b13156133ba576080700100000002c5c85fe31f35a6a30da1be508202901c90505b60006402000000008416600f0b13156133e857608070010000000162e42ff0999ce3541b9fffcf8202901c90505b60006401000000008416600f0b1315613416576080700100000000b17217f80f4ef5aadda455548202901c90505b600063800000008416600f0b131561344357608070010000000058b90bfbf8479bd5a81b51ad8202901c90505b600063400000008416600f0b13156134705760807001000000002c5c85fdf84bd62ae30a74cc8202901c90505b600063200000008416600f0b131561349d576080700100000000162e42fefb2fed257559bdaa8202901c90505b600063100000008416600f0b13156134ca5760807001000000000b17217f7d5a7716bba4a9ae8202901c90505b600063080000008416600f0b13156134f7576080700100000000058b90bfbe9ddbac5e109cce8202901c90505b600063040000008416600f0b131561352457608070010000000002c5c85fdf4b15de6f17eb0d8202901c90505b600063020000008416600f0b13156135515760807001000000000162e42fefa494f1478fde058202901c90505b600063010000008416600f0b131561357e57608070010000000000b17217f7d20cf927c8e94c8202901c90505b6000628000008416600f0b13156135aa5760807001000000000058b90bfbe8f71cb4e4b33d8202901c90505b6000624000008416600f0b13156135d6576080700100000000002c5c85fdf477b662b269458202901c90505b6000622000008416600f0b131561360257608070010000000000162e42fefa3ae53369388c8202901c90505b6000621000008416600f0b131561362e576080700100000000000b17217f7d1d351a389d408202901c90505b6000620800008416600f0b131561365a57608070010000000000058b90bfbe8e8b2d3d4ede8202901c90505b6000620400008416600f0b13156136865760807001000000000002c5c85fdf4741bea6e77e8202901c90505b6000620200008416600f0b13156136b2576080700100000000000162e42fefa39fe95583c28202901c90505b6000620100008416600f0b13156136de5760807001000000000000b17217f7d1cfb72b45e18202901c90505b60006180008416600f0b1315613709576080700100000000000058b90bfbe8e7cc35c3f08202901c90505b60006140008416600f0b131561373457608070010000000000002c5c85fdf473e242ea388202901c90505b60006120008416600f0b131561375f5760807001000000000000162e42fefa39f02b772c8202901c90505b60006110008416600f0b131561378a57608070010000000000000b17217f7d1cf7d83c1a8202901c90505b60006108008416600f0b13156137b55760807001000000000000058b90bfbe8e7bdcbe2e8202901c90505b60006104008416600f0b13156137e0576080700100000000000002c5c85fdf473dea871f8202901c90505b60006102008416600f0b131561380b57608070010000000000000162e42fefa39ef44d918202901c90505b60006101008416600f0b1315613836576080700100000000000000b17217f7d1cf79e9498202901c90505b600060808416600f0b131561386057608070010000000000000058b90bfbe8e7bce5448202901c90505b600060408416600f0b131561388a5760807001000000000000002c5c85fdf473de6eca8202901c90505b600060208416600f0b13156138b4576080700100000000000000162e42fefa39ef366f8202901c90505b600060108416600f0b13156138de5760807001000000000000000b17217f7d1cf79afa8202901c90505b600060088416600f0b1315613908576080700100000000000000058b90bfbe8e7bcd6d8202901c90505b600060048416600f0b131561393257608070010000000000000002c5c85fdf473de6b28202901c90505b600060028416600f0b131561395c5760807001000000000000000162e42fefa39ef3588202901c90505b600060018416600f0b131561398657608070010000000000000000b17217f7d1cf79ab8202901c90505b604083600f0b901d603f03600f0b81901c90506f7fffffffffffffffffffffffffffffff600f0b8111156139b957600080fd5b809150505b919050565b6000677fffffffffffffff8211156139da57600080fd5b604082901b9050919050565b60008082600f0b036139f757600080fd5b600082600f0b604085600f0b901b81613a1357613a126152cb565b5b0590507fffffffffffffffffffffffffffffffff80000000000000000000000000000000600f0b8112158015613a5c57506f7fffffffffffffffffffffffffffffff600f0b8113155b613a6557600080fd5b8091505092915050565b60008082600f0b84600f0b0390507fffffffffffffffffffffffffffffffff80000000000000000000000000000000600f0b8112158015613ac357506f7fffffffffffffffffffffffffffffff600f0b8113155b613acc57600080fd5b8091505092915050565b60008082600f0b1215613ae857600080fd5b604082600f0b901d9050919050565b6000808203613b0557600080fd5b600077ffffffffffffffffffffffffffffffffffffffffffffffff8411613b425782604085901b81613b3a57613b396152cb565b5b049050613cac565b600060c09050600060c086901c90506401000000008110613b6b57602081901c90506020820191505b620100008110613b8357601081901c90506010820191505b6101008110613b9a57600881901c90506008820191505b60108110613bb057600481901c90506004820191505b60048110613bc657600281901c90506002820191505b60028110613bd5576001820191505b600160bf830360018703901c018260ff0387901b81613bf757613bf66152cb565b5b0492506fffffffffffffffffffffffffffffffff831115613c1757600080fd5b6000608086901c8402905060006fffffffffffffffffffffffffffffffff871685029050600060c089901c9050600060408a901b905082811015613c5c576001820391505b8281039050608084901b925082811015613c77576001820391505b8281039050608084901c8214613c9057613c8f6164e1565b5b888181613ca057613c9f6152cb565b5b04870196505050505050505b6fffffffffffffffffffffffffffffffff811115613cc957600080fd5b8091505092915050565b604051806101a00160405280600073ffffffffffffffffffffffffffffffffffffffff1681526020016000815260200160008152602001600081526020016000815260200160008152602001600081526020016000815260200160008152602001600081526020016000815260200160006004811115613d5657613d556148cf565b5b81526020016000151581525090565b604051806101a0016040528060001515815260200160008152602001600081526020016000815260200160006003811115613da357613da26148cf565b5b81526020016000815260200160008152602001600081526020016000815260200160001515815260200160008152602001600015158152602001600081525090565b6040518060a0016040528060001515815260200160008152602001600073ffffffffffffffffffffffffffffffffffffffff16815260200160008152602001600073ffffffffffffffffffffffffffffffffffffffff1681525090565b604051806101a00160405280600015158152602001600081526020016000815260200160006005811115613e7957613e786148cf565b5b81526020016000600a811115613e9257613e916148cf565b5b815260200160008152602001600073ffffffffffffffffffffffffffffffffffffffff1681526020016000600e811115613ecf57613ece6148cf565b5b815260200160008152602001600081526020016000815260200160008152602001600073ffffffffffffffffffffffffffffffffffffffff1681525090565b6040518060a0016040528060008152602001600081526020016000815260200160008152602001600081525090565b6000604051905090565b600080fd5b600080fd5b6000601f19601f8301169050919050565b7f4e487b7100000000000000000000000000000000000000000000000000000000600052604160045260246000fd5b613f9a82613f51565b810181811067ffffffffffffffff82111715613fb957613fb8613f62565b5b80604052505050565b6000613fcc613f3d565b9050613fd88282613f91565b919050565b600067ffffffffffffffff821115613ff857613ff7613f62565b5b602082029050919050565b600080fd5b6000819050919050565b61401b81614008565b811461402657600080fd5b50565b60008135905061403881614012565b92915050565b600061405161404c84613fdd565b613fc2565b9050806020840283018581111561406b5761406a614003565b5b835b8181101561409457806140808882614029565b84526020840193505060208101905061406d565b5050509392505050565b600082601f8301126140b3576140b2613f4c565b5b60026140c084828561403e565b91505092915050565b600067ffffffffffffffff8211156140e4576140e3613f62565b5b602082029050919050565b60006141026140fd846140c9565b613fc2565b9050806040840283018581111561411c5761411b614003565b5b835b818110156141455780614131888261409e565b84526020840193505060408101905061411e565b5050509392505050565b600082601f83011261416457614163613f4c565b5b60026141718482856140ef565b91505092915050565b600067ffffffffffffffff82111561419557614194613f62565b5b602082029050919050565b60006141b36141ae8461417a565b613fc2565b905080602084028301858111156141cd576141cc614003565b5b835b818110156141f657806141e28882614029565b8452602084019350506020810190506141cf565b5050509392505050565b600082601f83011261421557614214613f4c565b5b600e6142228482856141a0565b91505092915050565b6000806000806102c0858703121561424657614245613f47565b5b60006142548782880161409e565b94505060406142658782880161414f565b93505060c06142768782880161409e565b92505061010061428887828801614200565b91505092959194509250565b61429d81614008565b82525050565b60006020820190506142b86000830184614294565b92915050565b600080fd5b60008115159050919050565b6142d8816142c3565b81146142e357600080fd5b50565b6000813590506142f5816142cf565b92915050565b6006811061430857600080fd5b50565b60008135905061431a816142fb565b92915050565b600b811061432d57600080fd5b50565b60008135905061433f81614320565b92915050565b600073ffffffffffffffffffffffffffffffffffffffff82169050919050565b600061437082614345565b9050919050565b61438081614365565b811461438b57600080fd5b50565b60008135905061439d81614377565b92915050565b600f81106143b057600080fd5b50565b6000813590506143c2816143a3565b92915050565b60006101a082840312156143df576143de6142be565b5b6143ea6101a0613fc2565b905060006143fa848285016142e6565b600083015250602061440e84828501614029565b602083015250604061442284828501614029565b60408301525060606144368482850161430b565b606083015250608061444a84828501614330565b60808301525060a061445e84828501614029565b60a08301525060c06144728482850161438e565b60c08301525060e0614486848285016143b3565b60e08301525061010061449b84828501614029565b610100830152506101206144b184828501614029565b610120830152506101406144c784828501614029565b610140830152506101606144dd84828501614029565b610160830152506101806144f38482850161438e565b6101808301525092915050565b6005811061450d57600080fd5b50565b60008135905061451f81614500565b92915050565b60006101a0828403121561453c5761453b6142be565b5b6145476101a0613fc2565b905060006145578482850161438e565b600083015250602061456b84828501614029565b602083015250604061457f84828501614029565b604083015250606061459384828501614029565b60608301525060806145a784828501614029565b60808301525060a06145bb84828501614029565b60a08301525060c06145cf84828501614029565b60c08301525060e06145e384828501614029565b60e0830152506101006145f884828501614029565b6101008301525061012061460e84828501614029565b6101208301525061014061462484828501614029565b6101408301525061016061463a84828501614510565b61016083015250610180614650848285016142e6565b6101808301525092915050565b6004811061466a57600080fd5b50565b60008135905061467c8161465d565b92915050565b60006101a08284031215614699576146986142be565b5b6146a46101a0613fc2565b905060006146b4848285016142e6565b60008301525060206146c884828501614029565b60208301525060406146dc84828501614029565b60408301525060606146f084828501614029565b60608301525060806147048482850161466d565b60808301525060a061471884828501614029565b60a08301525060c061472c84828501614029565b60c08301525060e061474084828501614029565b60e08301525061010061475584828501614029565b6101008301525061012061476b848285016142e6565b6101208301525061014061478184828501614029565b61014083015250610160614797848285016142e6565b610160830152506101806147ad84828501614029565b6101808301525092915050565b600060a082840312156147d0576147cf6142be565b5b6147da60a0613fc2565b905060006147ea848285016142e6565b60008301525060206147fe84828501614029565b60208301525060406148128482850161438e565b604083015250606061482684828501614029565b606083015250608061483a8482850161438e565b60808301525092915050565b600080600080610580858703121561486157614860613f47565b5b600061486f878288016143c8565b9450506101a061488187828801614525565b93505061034061489387828801614682565b9250506104e06148a5878288016147ba565b91505092959194509250565b6148ba81614365565b82525050565b6148c981614008565b82525050565b7f4e487b7100000000000000000000000000000000000000000000000000000000600052602160045260246000fd5b6005811061490f5761490e6148cf565b5b50565b6000819050614920826148fe565b919050565b600061493082614912565b9050919050565b61494081614925565b82525050565b61494f816142c3565b82525050565b6101a08201600082015161496c60008501826148b1565b50602082015161497f60208501826148c0565b50604082015161499260408501826148c0565b5060608201516149a560608501826148c0565b5060808201516149b860808501826148c0565b5060a08201516149cb60a08501826148c0565b5060c08201516149de60c08501826148c0565b5060e08201516149f160e08501826148c0565b50610100820151614a066101008501826148c0565b50610120820151614a1b6101208501826148c0565b50610140820151614a306101408501826148c0565b50610160820151614a45610160850182614937565b50610180820151614a5a610180850182614946565b50505050565b60048110614a7157614a706148cf565b5b50565b6000819050614a8282614a60565b919050565b6000614a9282614a74565b9050919050565b614aa281614a87565b82525050565b6101a082016000820151614abf6000850182614946565b506020820151614ad260208501826148c0565b506040820151614ae560408501826148c0565b506060820151614af860608501826148c0565b506080820151614b0b6080850182614a99565b5060a0820151614b1e60a08501826148c0565b5060c0820151614b3160c08501826148c0565b5060e0820151614b4460e08501826148c0565b50610100820151614b596101008501826148c0565b50610120820151614b6e610120850182614946565b50610140820151614b836101408501826148c0565b50610160820151614b98610160850182614946565b50610180820151614bad6101808501826148c0565b50505050565b60a082016000820151614bc96000850182614946565b506020820151614bdc60208501826148c0565b506040820151614bef60408501826148b1565b506060820151614c0260608501826148c0565b506080820151614c1560808501826148b1565b50505050565b60006103e082019050614c316000830186614955565b614c3f6101a0830185614aa8565b614c4d610340830184614bb3565b949350505050565b600082825260208201905092915050565b7f47616d6520697320706175736564000000000000000000000000000000000000600082015250565b6000614c9c600e83614c55565b9150614ca782614c66565b602082019050919050565b60006020820190508181036000830152614ccb81614c8f565b9050919050565b7f4e487b7100000000000000000000000000000000000000000000000000000000600052603260045260246000fd5b600060059050919050565b600081905092915050565b6000819050919050565b614d2a81614008565b82525050565b6000614d3c8383614d21565b60208301905092915050565b6000602082019050919050565b614d5e81614d01565b614d688184614d0c565b9250614d7382614d17565b8060005b83811015614da4578151614d8b8782614d30565b9650614d9683614d48565b925050600181019050614d77565b505050505050565b614db5816142c3565b82525050565b600060c082019050614dd06000830185614d55565b614ddd60a0830184614dac565b9392505050565b600081519050614df3816142cf565b92915050565b600060208284031215614e0f57614e0e613f47565b5b6000614e1d84828501614de4565b91505092915050565b600060029050919050565b600081905092915050565b6000819050919050565b6000602082019050919050565b614e5c81614e26565b614e668184614e31565b9250614e7182614e3c565b8060005b83811015614ea2578151614e898782614d30565b9650614e9483614e46565b925050600181019050614e75565b505050505050565b600060029050919050565b600081905092915050565b6000819050919050565b600081905092915050565b614ede81614e26565b614ee88184614eca565b9250614ef382614e3c565b8060005b83811015614f24578151614f0b8782614d30565b9650614f1683614e46565b925050600181019050614ef7565b505050505050565b6000614f388383614ed5565b60408301905092915050565b6000602082019050919050565b614f5a81614eaa565b614f648184614eb5565b9250614f6f82614ec0565b8060005b83811015614fa0578151614f878782614f2c565b9650614f9283614f44565b925050600181019050614f73565b505050505050565b6000600a9050919050565b600081905092915050565b6000819050919050565b6000602082019050919050565b614fde81614fa8565b614fe88184614fb3565b9250614ff382614fbe565b8060005b8381101561502457815161500b8782614d30565b965061501683614fc8565b925050600181019050614ff7565b505050505050565b6000610240820190506150426000830187614e53565b61504f6040830186614f51565b61505c60c0830185614e53565b61506a610100830184614fd5565b95945050505050565b7f4661696c6564206d6f76652070726f6f6620636865636b000000000000000000600082015250565b60006150a9601783614c55565b91506150b482615073565b602082019050919050565b600060208201905081810360008301526150d88161509c565b9050919050565b7f417474656d7074696e6720746f206d6f7665206f7574206f6620626f756e6473600082015250565b6000615115602083614c55565b9150615120826150df565b602082019050919050565b6000602082019050818103600083015261514481615108565b9050919050565b61515481614008565b82525050565b600060208201905061516f600083018461514b565b92915050565b7f4e487b7100000000000000000000000000000000000000000000000000000000600052601160045260246000fd5b60006151af82614008565b91507fffffffffffffffffffffffffffffffffffffffffffffffffffffffffffffffff82036151e1576151e0615175565b5b600182019050919050565b6000606082019050615201600083018661514b565b61520e602083018561514b565b61521b6040830184614dac565b949350505050565b61522c81614365565b82525050565b6000604082019050615247600083018561514b565b6152546020830184615223565b9392505050565b61526481614365565b82525050565b600060c08201905061527f600083018961525b565b61528c6020830188614294565b6152996040830187614294565b6152a66060830186614294565b6152b36080830185614294565b6152c060a0830184614294565b979650505050505050565b7f4e487b7100000000000000000000000000000000000000000000000000000000600052601260045260246000fd5b600061530582614008565b915061531083614008565b9250826153205761531f6152cb565b5b828204905092915050565b600061533682614008565b91506000820361534957615348615175565b5b600182039050919050565b600f8110615365576153646148cf565b5b50565b600081905061537682615354565b919050565b600061538682615368565b9050919050565b6153968161537b565b82525050565b60006020820190506153b1600083018461538d565b92915050565b60006153c282614008565b91506153cd83614008565b9250817fffffffffffffffffffffffffffffffffffffffffffffffffffffffffffffffff048311821515161561540657615405615175565b5b828202905092915050565b60008151905061542081614012565b92915050565b600060a0828403121561543c5761543b6142be565b5b61544660a0613fc2565b9050600061545684828501615411565b600083015250602061546a84828501615411565b602083015250604061547e84828501615411565b604083015250606061549284828501615411565b60608301525060806154a684828501615411565b60808301525092915050565b600060a082840312156154c8576154c7613f47565b5b60006154d684828501615426565b91505092915050565b60006154ea82614008565b91506154f583614008565b92508282101561550857615507615175565b5b828203905092915050565b60a0820160008201516155296000850182614d21565b50602082015161553c6020850182614d21565b50604082015161554f6040850182614d21565b5060608201516155626060850182614d21565b5060808201516155756080850182614d21565b50505050565b600060c082019050615590600083018561514b565b61559d6020830184615513565b9392505050565b60006155af82614008565b91506155ba83614008565b9250827fffffffffffffffffffffffffffffffffffffffffffffffffffffffffffffffff038211156155ef576155ee615175565b5b828201905092915050565b7f73686970206d6f766573206d757374206d6f7665203020656e65726779000000600082015250565b6000615630601d83614c55565b915061563b826155fa565b602082019050919050565b6000602082019050818103600083015261565f81615623565b9050919050565b7f73686970206d6f766573206d757374206d6f766520302073696c766572000000600082015250565b600061569c601d83614c55565b91506156a782615666565b602082019050919050565b600060208201905081810360008301526156cb8161568f565b9050919050565b7f796f752063616e206f6e6c79206d6f766520796f7572206f776e207368697073600082015250565b6000615708602083614c55565b9150615713826156d2565b602082019050919050565b60006020820190508181036000830152615737816156fb565b9050919050565b7f547269656420746f206d6f7665206d6f726520706f70756c6174696f6e20746860008201527f6174207768617420657869737473000000000000000000000000000000000000602082015250565b600061579a602e83614c55565b91506157a58261573e565b604082019050919050565b600060208201905081810360008301526157c98161578d565b9050919050565b7f706c616e65742069732064657374726f79656400000000000000000000000000600082015250565b6000615806601383614c55565b9150615811826157d0565b602082019050919050565b60006020820190508181036000830152615835816157f9565b9050919050565b7f4f6e6c79206f776e6572206163636f756e742063616e20706572666f726d207460008201527f686174206f7065726174696f6e206f6e20706c616e65742e0000000000000000602082015250565b6000615898603883614c55565b91506158a38261583c565b604082019050919050565b600060208201905081810360008301526158c78161588b565b9050919050565b7f547269656420746f206d6f7665206d6f72652073696c766572207468616e207760008201527f6861742065786973747300000000000000000000000000000000000000000000602082015250565b600061592a602a83614c55565b9150615935826158ce565b604082019050919050565b600060208201905081810360008301526159598161591d565b9050919050565b7f746f6f206d616e7920617274696661637473206f6e207468697320706c616e6560008201527f7400000000000000000000000000000000000000000000000000000000000000602082015250565b60006159bc602183614c55565b91506159c782615960565b604082019050919050565b600060208201905081810360008301526159eb816159af565b9050919050565b600081519050615a01816142fb565b92915050565b600081519050615a1681614320565b92915050565b600081519050615a2b81614377565b92915050565b600081519050615a40816143a3565b92915050565b60006101a08284031215615a5d57615a5c6142be565b5b615a686101a0613fc2565b90506000615a7884828501614de4565b6000830152506020615a8c84828501615411565b6020830152506040615aa084828501615411565b6040830152506060615ab4848285016159f2565b6060830152506080615ac884828501615a07565b60808301525060a0615adc84828501615411565b60a08301525060c0615af084828501615a1c565b60c08301525060e0615b0484828501615a31565b60e083015250610100615b1984828501615411565b61010083015250610120615b2f84828501615411565b61012083015250610140615b4584828501615411565b61014083015250610160615b5b84828501615411565b61016083015250610180615b7184828501615a1c565b6101808301525092915050565b60006101a08284031215615b9557615b94613f47565b5b6000615ba384828501615a46565b91505092915050565b615bb5816142c3565b82525050565b60068110615bcc57615bcb6148cf565b5b50565b6000819050615bdd82615bbb565b919050565b6000615bed82615bcf565b9050919050565b615bfd81615be2565b82525050565b600b8110615c1457615c136148cf565b5b50565b6000819050615c2582615c03565b919050565b6000615c3582615c17565b9050919050565b615c4581615c2a565b82525050565b615c5481614365565b82525050565b615c638161537b565b82525050565b6101a082016000820151615c806000850182615bac565b506020820151615c936020850182614d21565b506040820151615ca66040850182614d21565b506060820151615cb96060850182615bf4565b506080820151615ccc6080850182615c3c565b5060a0820151615cdf60a0850182614d21565b5060c0820151615cf260c0850182615c4b565b5060e0820151615d0560e0850182615c5a565b50610100820151615d1a610100850182614d21565b50610120820151615d2f610120850182614d21565b50610140820151615d44610140850182614d21565b50610160820151615d59610160850182614d21565b50610180820151615d6e610180850182615c4b565b50505050565b60006101a082019050615d8a6000830184615c69565b92915050565b7f43616e6e6f74206162616e646f6e206120706c616e657420746861742068617360008201527f20696e636f6d696e6720766f79616765732e0000000000000000000000000000602082015250565b6000615dec603283614c55565b9150615df782615d90565b604082019050919050565b60006020820190508181036000830152615e1b81615ddf565b9050919050565b7f43616e6e6f74206162616e646f6e20686f6d6520706c616e6574000000000000600082015250565b6000615e58601a83614c55565b9150615e6382615e22565b602082019050919050565b60006020820190508181036000830152615e8781615e4b565b9050919050565b615e9781614925565b82525050565b615ea681614a87565b82525050565b600060a082019050615ec1600083018861514b565b615ece602083018761514b565b615edb6040830186615e8e565b615ee86060830185615e9d565b615ef5608083018461514b565b9695505050505050565b600081519050615f0e81614500565b92915050565b60006101a08284031215615f2b57615f2a6142be565b5b615f366101a0613fc2565b90506000615f4684828501615a1c565b6000830152506020615f5a84828501615411565b6020830152506040615f6e84828501615411565b6040830152506060615f8284828501615411565b6060830152506080615f9684828501615411565b60808301525060a0615faa84828501615411565b60a08301525060c0615fbe84828501615411565b60c08301525060e0615fd284828501615411565b60e083015250610100615fe784828501615411565b61010083015250610120615ffd84828501615411565b6101208301525061014061601384828501615411565b6101408301525061016061602984828501615eff565b6101608301525061018061603f84828501614de4565b6101808301525092915050565b60006101a0828403121561606357616062613f47565b5b600061607184828501615f14565b91505092915050565b60008160001c9050919050565b600073ffffffffffffffffffffffffffffffffffffffff82169050919050565b60006160ba6160b58361607a565b616087565b9050919050565b6000819050919050565b60006160de6160d98361607a565b6160c1565b9050919050565b600060ff82169050919050565b60006161056161008361607a565b6160e5565b9050919050565b61611581614925565b82525050565b60008160081c9050919050565b600060ff82169050919050565b60006161486161438361611b565b616128565b9050919050565b6101a082016000808301549050616165816160a7565b6161726000860182615c4b565b5060018301549050616183816160cb565b6161906020860182614d21565b50600283015490506161a1816160cb565b6161ae6040860182614d21565b50600383015490506161bf816160cb565b6161cc6060860182614d21565b50600483015490506161dd816160cb565b6161ea6080860182614d21565b50600583015490506161fb816160cb565b61620860a0860182614d21565b5060068301549050616219816160cb565b61622660c0860182614d21565b5060078301549050616237816160cb565b61624460e0860182614d21565b5060088301549050616255816160cb565b616263610100860182614d21565b5060098301549050616274816160cb565b616282610120860182614d21565b50600a8301549050616293816160cb565b6162a1610140860182614d21565b50600b83015490506162b2816160f2565b6162c061016086018261610c565b506162ca81616135565b6162d8610180860182615bac565b5050505050565b60006101a0820190506162f5600083018461614f565b92915050565b60006020828403121561631157616310613f47565b5b600061631f84828501615411565b91505092915050565b7f547269656420746f2074616b65206f6e206d6f7265207370616365206a756e6b60008201527f207468616e20796f7572206c696d697400000000000000000000000000000000602082015250565b6000616384603083614c55565b915061638f82616328565b604082019050919050565b600060208201905081810360008301526163b381616377565b9050919050565b7f4e6f7420656e6f75676820666f7263657320746f206d616b65206d6f76650000600082015250565b60006163f0601e83614c55565b91506163fb826163ba565b602082019050919050565b6000602082019050818103600083015261641f816163e3565b9050919050565b7f737061636573686970206d6f766573206d757374206265203020656e6572677960008201527f206d6f7665730000000000000000000000000000000000000000000000000000602082015250565b6000616482602683614c55565b915061648d82616426565b604082019050919050565b600060208201905081810360008301526164b181616475565b9050919050565b60006040820190506164cd600083018561514b565b6164da602083018461514b565b9392505050565b7f4e487b7100000000000000000000000000000000000000000000000000000000600052600160045260246000fdfea26469706673582212201188952b3d0b751f169cb8075dc153df5a587c70ba48de71fc9c043bc1e73f1364736f6c634300080d0033",
  "immutableReferences": {},
  "source": "// SPDX-License-Identifier: GPL-3.0\npragma solidity ^0.8.0;\n\n// Library imports\nimport {ABDKMath64x64} from \"../vendor/libraries/ABDKMath64x64.sol\";\nimport {LibGameUtils} from \"../libraries/LibGameUtils.sol\";\nimport {LibArtifactUtils} from \"../libraries/LibArtifactUtils.sol\";\nimport {LibPlanet} from \"../libraries/LibPlanet.sol\";\nimport {Verifier} from \"../Verifier.sol\";\n\n// Storage imports\nimport {WithStorage} from \"../libraries/LibStorage.sol\";\n\n// Type imports\nimport {\n    ArrivalData,\n    ArrivalType,\n    Artifact,\n    ArtifactType,\n    DFPCreateArrivalArgs,\n    DFPMoveArgs,\n    Planet,\n    PlanetExtendedInfo,\n    PlanetExtendedInfo2,\n    PlanetEventMetadata,\n    PlanetEventType,\n    Upgrade\n} from \"../DFTypes.sol\";\n\ncontract DFMoveFacet is WithStorage {\n    modifier notPaused() {\n        require(!gs().paused, \"Game is paused\");\n        _;\n    }\n\n    event ArrivalQueued(\n        address player,\n        uint256 arrivalId,\n        uint256 from,\n        uint256 to,\n        uint256 artifactId,\n        uint256 abandoning\n    );\n\n    function move(\n        uint256[2] memory _a,\n        uint256[2][2] memory _b,\n        uint256[2] memory _c,\n        uint256[14] memory _input\n    ) public notPaused returns (uint256) {\n        LibGameUtils.revertIfBadSnarkPerlinFlags(\n            [_input[5], _input[6], _input[7], _input[8], _input[9]],\n            false\n        );\n\n        DFPMoveArgs memory args =\n            DFPMoveArgs({\n                oldLoc: _input[0],\n                newLoc: _input[1],\n                maxDist: _input[4],\n                popMoved: _input[10],\n                silverMoved: _input[11],\n                movedArtifactId: _input[12],\n                abandoning: _input[13],\n                sender: msg.sender\n            });\n\n        if (_isSpaceshipMove(args)) {\n            // If spaceships moves are not address(0)\n            // they can conquer planets with 0 energy\n            args.sender = address(0);\n        }\n\n        uint256 newPerlin = _input[2];\n        uint256 newRadius = _input[3];\n\n        if (!snarkConstants().DISABLE_ZK_CHECKS) {\n            uint256[10] memory _proofInput =\n                [\n                    args.oldLoc,\n                    args.newLoc,\n                    newPerlin,\n                    newRadius,\n                    args.maxDist,\n                    _input[5],\n                    _input[6],\n                    _input[7],\n                    _input[8],\n                    _input[9]\n                ];\n            require(Verifier.verifyMoveProof(_a, _b, _c, _proofInput), \"Failed move proof check\");\n        }\n\n        // check radius\n        require(newRadius <= gs().worldRadius, \"Attempting to move out of bounds\");\n\n        // Refresh fromPlanet first before doing any action on it\n        LibPlanet.refreshPlanet(args.oldLoc);\n\n        gs().planetEventsCount++;\n\n        // Only perform if the toPlanet have never initialized previously\n        if (!gs().planetsExtendedInfo[args.newLoc].isInitialized) {\n            LibPlanet.initializePlanetWithDefaults(args.newLoc, newPerlin, false);\n        } else {\n            // need to do this so people can't deny service to planets with gas limit\n            LibPlanet.refreshPlanet(args.newLoc);\n            LibGameUtils.checkPlanetDOS(args.newLoc, args.sender);\n        }\n\n        _executeMove(args);\n\n        LibGameUtils.updateWorldRadius();\n        emit ArrivalQueued(\n            msg.sender,\n            gs().planetEventsCount,\n            args.oldLoc,\n            args.newLoc,\n            args.movedArtifactId,\n            args.abandoning\n        );\n        return (gs().planetEventsCount);\n    }\n\n    function _executeMove(DFPMoveArgs memory args) private {\n        _checkMoveValidity(args);\n\n        uint256 effectiveDistTimesHundred = args.maxDist * 100; // for precision\n        ArrivalType arrivalType = ArrivalType.Normal;\n        Upgrade memory temporaryUpgrade = LibGameUtils.defaultUpgrade();\n\n        (bool wormholePresent, uint256 distModifier) = _checkWormhole(args);\n        if (wormholePresent) {\n            effectiveDistTimesHundred /= distModifier;\n            arrivalType = ArrivalType.Wormhole;\n        }\n\n        if (!_isSpaceshipMove(args)) {\n            (bool photoidPresent, Upgrade memory newTempUpgrade) = _checkPhotoid(args);\n            if (photoidPresent) {\n                temporaryUpgrade = newTempUpgrade;\n                arrivalType = ArrivalType.Photoid;\n            }\n        }\n\n        _removeSpaceshipEffectsFromOriginPlanet(args);\n\n        uint256 popMoved = args.popMoved;\n        uint256 silverMoved = args.silverMoved;\n        uint256 remainingOriginPlanetPopulation = gs().planets[args.oldLoc].population - popMoved;\n\n        if (gameConstants().SPACE_JUNK_ENABLED && !_isSpaceshipMove(args)) {\n            if (args.abandoning != 0) {\n                (\n                    uint256 newPopMoved,\n                    uint256 newSilverMoved,\n                    uint256 newRemainingOriginPlanetPopulation,\n                    Upgrade memory abandonUpgrade\n                ) = _abandonPlanet(args);\n\n                popMoved = newPopMoved;\n                silverMoved = newSilverMoved;\n                remainingOriginPlanetPopulation = newRemainingOriginPlanetPopulation;\n                temporaryUpgrade = abandonUpgrade;\n            }\n\n            _transferPlanetSpaceJunkToPlayer(args);\n        }\n\n        LibGameUtils._buffPlanet(args.oldLoc, temporaryUpgrade);\n\n        uint256 travelTime = effectiveDistTimesHundred / gs().planets[args.oldLoc].speed;\n\n        // don't allow 0 second voyages, so that arrival can't be processed in same block\n        if (travelTime == 0) {\n            travelTime = 1;\n        }\n\n        // all checks pass. execute move\n        // push the new move into the planetEvents array for args.newLoc\n        gs().planetEvents[args.newLoc].push(\n            PlanetEventMetadata(\n                gs().planetEventsCount,\n                PlanetEventType.ARRIVAL,\n                block.timestamp + travelTime,\n                block.timestamp\n            )\n        );\n\n        _createArrival(\n            DFPCreateArrivalArgs(\n                args.sender,\n                args.oldLoc,\n                args.newLoc,\n                args.maxDist,\n                effectiveDistTimesHundred,\n                popMoved,\n                silverMoved,\n                travelTime,\n                args.movedArtifactId,\n                arrivalType\n            )\n        );\n        LibGameUtils._debuffPlanet(args.oldLoc, temporaryUpgrade);\n\n        gs().planets[args.oldLoc].silver -= silverMoved;\n        gs().planets[args.oldLoc].population = remainingOriginPlanetPopulation;\n    }\n\n    /**\n        Reverts transaction if the movement is invalid.\n     */\n    function _checkMoveValidity(DFPMoveArgs memory args) private view {\n        if (_isSpaceshipMove(args)) {\n            require(args.popMoved == 0, \"ship moves must move 0 energy\");\n            require(args.silverMoved == 0, \"ship moves must move 0 silver\");\n            require(\n                gs().artifacts[args.movedArtifactId].controller == msg.sender,\n                \"you can only move your own ships\"\n            );\n        } else {\n            // we want strict > so that the population can't go to 0\n            require(\n                gs().planets[args.oldLoc].population > args.popMoved,\n                \"Tried to move more population that what exists\"\n            );\n            require(\n                !gs().planetsExtendedInfo[args.newLoc].destroyed &&\n                    !gs().planetsExtendedInfo[args.oldLoc].destroyed,\n                \"planet is destroyed\"\n            );\n            require(\n                gs().planets[args.oldLoc].owner == msg.sender,\n                \"Only owner account can perform that operation on planet.\"\n            );\n        }\n\n        require(\n            gs().planets[args.oldLoc].silver >= args.silverMoved,\n            \"Tried to move more silver than what exists\"\n        );\n\n        if (args.movedArtifactId != 0) {\n            require(\n                gs().planetArtifacts[args.newLoc].length < 5,\n                \"too many artifacts on this planet\"\n            );\n        }\n    }\n\n    function applySpaceshipDepart(\n        Artifact memory artifact,\n        Planet memory planet,\n        PlanetExtendedInfo memory planetExtendedInfo,\n        PlanetExtendedInfo2 memory planetExtendedInfo2\n    )\n        public\n        view\n        returns (\n            Planet memory,\n            PlanetExtendedInfo memory,\n            PlanetExtendedInfo2 memory\n        )\n    {\n        if (planet.isHomePlanet) {\n            return (planet, planetExtendedInfo, planetExtendedInfo2);\n        }\n\n        if (artifact.artifactType == ArtifactType.ShipMothership) {\n            planet.populationGrowth /= 2;\n        } else if (artifact.artifactType == ArtifactType.ShipWhale) {\n            planet.silverGrowth /= 2;\n        } else if (artifact.artifactType == ArtifactType.ShipTitan) {\n            // so that updating silver/energy starts from the current time,\n            // as opposed to the last time that the planet was updated\n            planetExtendedInfo.lastUpdated = block.timestamp;\n            planetExtendedInfo2.pausers--;\n        }\n\n        return (planet, planetExtendedInfo, planetExtendedInfo2);\n    }\n\n    /**\n        Undo the spaceship effects that were applied when the ship arrived on the planet.\n     */\n    function _removeSpaceshipEffectsFromOriginPlanet(DFPMoveArgs memory args) private {\n        Artifact memory movedArtifact = gs().artifacts[args.movedArtifactId];\n\n        Planet memory planet;\n        PlanetExtendedInfo memory planetExtendedInfo;\n        PlanetExtendedInfo2 memory planetExtendedInfo2;\n\n        (planet, planetExtendedInfo, planetExtendedInfo2) = applySpaceshipDepart(\n            movedArtifact,\n            gs().planets[args.oldLoc],\n            gs().planetsExtendedInfo[args.oldLoc],\n            gs().planetsExtendedInfo2[args.oldLoc]\n        );\n\n        gs().planets[args.oldLoc] = planet;\n        gs().planetsExtendedInfo[args.oldLoc] = planetExtendedInfo;\n        gs().planetsExtendedInfo2[args.oldLoc] = planetExtendedInfo2;\n    }\n\n    /**\n        If an active wormhole is present on the origin planet,\n        return the modified distance between the origin and target\n        planet.\n     */\n    function _checkWormhole(DFPMoveArgs memory args)\n        private\n        view\n        returns (bool wormholePresent, uint256 effectiveDistModifier)\n    {\n        Artifact memory relevantWormhole;\n        Artifact memory activeArtifactFrom = LibGameUtils.getActiveArtifact(args.oldLoc);\n        Artifact memory activeArtifactTo = LibGameUtils.getActiveArtifact(args.newLoc);\n\n        // TODO: take the greater rarity of these, or disallow wormholes between planets that\n        // already have a wormhole between them\n        if (\n            activeArtifactFrom.isInitialized &&\n            activeArtifactFrom.artifactType == ArtifactType.Wormhole &&\n            activeArtifactFrom.wormholeTo == args.newLoc\n        ) {\n            relevantWormhole = activeArtifactFrom;\n        } else if (\n            activeArtifactTo.isInitialized &&\n            activeArtifactTo.artifactType == ArtifactType.Wormhole &&\n            activeArtifactTo.wormholeTo == args.oldLoc\n        ) {\n            relevantWormhole = activeArtifactTo;\n        }\n\n        if (relevantWormhole.isInitialized) {\n            wormholePresent = true;\n            uint256[6] memory speedBoosts = [uint256(1), 2, 4, 8, 16, 32];\n            effectiveDistModifier = speedBoosts[uint256(relevantWormhole.rarity)];\n        }\n    }\n\n    /**\n        If an active photoid cannon is present, return\n        the upgrade that should be applied to the origin\n        planet.\n     */\n    function _checkPhotoid(DFPMoveArgs memory args)\n        private\n        returns (bool photoidPresent, Upgrade memory temporaryUpgrade)\n    {\n        Artifact memory activeArtifactFrom = LibGameUtils.getActiveArtifact(args.oldLoc);\n        if (\n            activeArtifactFrom.isInitialized &&\n            activeArtifactFrom.artifactType == ArtifactType.PhotoidCannon &&\n            block.timestamp - activeArtifactFrom.lastActivated >=\n            gameConstants().PHOTOID_ACTIVATION_DELAY\n        ) {\n            photoidPresent = true;\n            LibArtifactUtils.deactivateArtifact(args.oldLoc);\n            temporaryUpgrade = LibGameUtils.timeDelayUpgrade(activeArtifactFrom);\n        }\n    }\n\n    function _abandonPlanet(DFPMoveArgs memory args)\n        private\n        returns (\n            uint256 popMoved,\n            uint256 silverMoved,\n            uint256 remainingOriginPlanetPopulation,\n            Upgrade memory temporaryUpgrade\n        )\n    {\n        require(\n            // This is dependent on Arrival being the only type of planet event.\n            gs().planetEvents[args.oldLoc].length == 0,\n            \"Cannot abandon a planet that has incoming voyages.\"\n        );\n\n        require(!gs().planets[args.oldLoc].isHomePlanet, \"Cannot abandon home planet\");\n\n        // When abandoning a planet:\n        // 1. Always send full energy and silver\n        // 2. Receive a range / speed boost\n        // 3. Transfer ownership to 0 address\n        // 4. Place double the default amount of space pirates\n        // 5. Subtract space junk from player total\n        popMoved = gs().planets[args.oldLoc].population;\n        silverMoved = gs().planets[args.oldLoc].silver;\n        remainingOriginPlanetPopulation =\n            LibGameUtils\n                ._defaultPlanet(\n                args\n                    .oldLoc,\n                gs().planets[args.oldLoc]\n                    .planetLevel,\n                gs().planets[args.oldLoc]\n                    .planetType,\n                gs().planetsExtendedInfo[args.oldLoc]\n                    .spaceType,\n                gameConstants()\n                    .TIME_FACTOR_HUNDREDTHS\n            )\n                .population *\n            2;\n        temporaryUpgrade = LibGameUtils.abandoningUpgrade();\n\n        uint256 planetSpaceJunk = LibGameUtils.getPlanetDefaultSpaceJunk(gs().planets[args.oldLoc]);\n\n        if (LibGameUtils.isHalfSpaceJunk(args.oldLoc)) {\n            planetSpaceJunk /= 2;\n        }\n\n        if (planetSpaceJunk >= gs().players[msg.sender].spaceJunk) {\n            gs().players[msg.sender].spaceJunk = 0;\n        } else {\n            gs().players[msg.sender].spaceJunk -= planetSpaceJunk;\n        }\n\n        gs().planetsExtendedInfo[args.oldLoc].spaceJunk = planetSpaceJunk;\n        gs().planets[args.oldLoc].owner = address(0);\n    }\n\n    /**\n        Make sure players don't take on more junk than they are allowed to.\n        Properly increment players space junk and remove the junk from the\n        target planet.\n     */\n    function _transferPlanetSpaceJunkToPlayer(DFPMoveArgs memory args) private {\n        require(\n            (gs().players[msg.sender].spaceJunk + gs().planetsExtendedInfo[args.newLoc].spaceJunk <=\n                gs().players[msg.sender].spaceJunkLimit),\n            \"Tried to take on more space junk than your limit\"\n        );\n\n        if (gs().planetsExtendedInfo[args.newLoc].spaceJunk != 0) {\n            gs().players[msg.sender].spaceJunk += gs().planetsExtendedInfo[args.newLoc].spaceJunk;\n            gs().planetsExtendedInfo[args.newLoc].spaceJunk = 0;\n        }\n    }\n\n    function _isSpaceshipMove(DFPMoveArgs memory args) private view returns (bool) {\n        return LibArtifactUtils.isSpaceship(gs().artifacts[args.movedArtifactId].artifactType);\n    }\n\n    function _createArrival(DFPCreateArrivalArgs memory args) private {\n        // enter the arrival data for event id\n        Planet memory planet = gs().planets[args.oldLoc];\n        uint256 popArriving =\n            _getDecayedPop(\n                args.popMoved,\n                args.effectiveDistTimesHundred,\n                planet.range,\n                planet.populationCap\n            );\n        bool isSpaceship =\n            LibArtifactUtils.isSpaceship(gs().artifacts[args.movedArtifactId].artifactType);\n        // space ship moves are implemented as 0-energy moves\n        require(popArriving > 0 || isSpaceship, \"Not enough forces to make move\");\n        require(isSpaceship ? args.popMoved == 0 : true, \"spaceship moves must be 0 energy moves\");\n        gs().planetArrivals[gs().planetEventsCount] = ArrivalData({\n            id: gs().planetEventsCount,\n            player: args.player, // player address or address(0) for ship moves\n            fromPlanet: args.oldLoc,\n            toPlanet: args.newLoc,\n            popArriving: popArriving,\n            silverMoved: args.silverMoved,\n            departureTime: block.timestamp,\n            arrivalTime: block.timestamp + args.travelTime,\n            arrivalType: args.arrivalType,\n            carriedArtifactId: args.movedArtifactId,\n            distance: args.actualDist\n        });\n\n        if (args.movedArtifactId != 0) {\n            LibGameUtils._takeArtifactOffPlanet(args.movedArtifactId, args.oldLoc);\n            gs().artifactIdToVoyageId[args.movedArtifactId] = gs().planetEventsCount;\n        }\n    }\n\n    function _getDecayedPop(\n        uint256 _popMoved,\n        uint256 distTimesHundred,\n        uint256 _range,\n        uint256 _populationCap\n    ) private pure returns (uint256 _decayedPop) {\n        int128 _scaleInv = ABDKMath64x64.exp_2(ABDKMath64x64.divu(distTimesHundred, _range * 100));\n        int128 _bigPlanetDebuff = ABDKMath64x64.divu(_populationCap, 20);\n        int128 _beforeDebuff = ABDKMath64x64.div(ABDKMath64x64.fromUInt(_popMoved), _scaleInv);\n        if (_beforeDebuff > _bigPlanetDebuff) {\n            _decayedPop = ABDKMath64x64.toUInt(ABDKMath64x64.sub(_beforeDebuff, _bigPlanetDebuff));\n        } else {\n            _decayedPop = 0;\n        }\n    }\n}\n",
  "sourcePath": "/home/terra/opensource/tosca-chain/smart-contract-example/contracts/facets/DFMoveFacet.sol",
  "compiler": {
    "name": "solc",
    "version": "0.8.13+commit.abaa5c0e.Emscripten.clang"
  },
  "schemaVersion": "3.4.7",
  "updatedAt": "2022-04-30T15:27:25.821Z",
  "devdoc": {
    "kind": "dev",
    "methods": {},
    "version": 1
  },
  "userdoc": {
    "kind": "user",
    "methods": {},
    "version": 1
  }
}