{
  "contractName": "DFWhitelistFacet",
  "abi": [
    {
      "inputs": [],
      "name": "getNAllowed",
      "outputs": [
        {
          "internalType": "uint256",
          "name": "",
          "type": "uint256"
        }
      ],
      "stateMutability": "view",
      "type": "function"
    },
    {
      "inputs": [
        {
          "internalType": "address",
          "name": "_addr",
          "type": "address"
        }
      ],
      "name": "isWhitelisted",
      "outputs": [
        {
          "internalType": "bool",
          "name": "",
          "type": "bool"
        }
      ],
      "stateMutability": "view",
      "type": "function"
    },
    {
      "inputs": [
        {
          "internalType": "uint256",
          "name": "hashed",
          "type": "uint256"
        }
      ],
      "name": "isKeyHashValid",
      "outputs": [
        {
          "internalType": "bool",
          "name": "",
          "type": "bool"
        }
      ],
      "stateMutability": "view",
      "type": "function"
    },
    {
      "inputs": [
        {
          "internalType": "uint256[]",
          "name": "hashes",
          "type": "uint256[]"
        }
      ],
      "name": "addKeys",
      "outputs": [],
      "stateMutability": "nonpayable",
      "type": "function"
    },
    {
      "inputs": [
        {
          "internalType": "uint256[]",
          "name": "keys",
          "type": "uint256[]"
        }
      ],
      "name": "disableKeys",
      "outputs": [],
      "stateMutability": "nonpayable",
      "type": "function"
    },
    {
      "inputs": [
        {
          "internalType": "uint256[2]",
          "name": "_a",
          "type": "uint256[2]"
        },
        {
          "internalType": "uint256[2][2]",
          "name": "_b",
          "type": "uint256[2][2]"
        },
        {
          "internalType": "uint256[2]",
          "name": "_c",
          "type": "uint256[2]"
        },
        {
          "internalType": "uint256[2]",
          "name": "_input",
          "type": "uint256[2]"
        }
      ],
      "name": "useKey",
      "outputs": [],
      "stateMutability": "nonpayable",
      "type": "function"
    },
    {
      "inputs": [
        {
          "internalType": "uint256",
          "name": "keyHash",
          "type": "uint256"
        },
        {
          "internalType": "address payable",
          "name": "recipient",
          "type": "address"
        }
      ],
      "name": "adminUseKey",
      "outputs": [],
      "stateMutability": "nonpayable",
      "type": "function"
    },
    {
      "inputs": [
        {
          "internalType": "address",
          "name": "toAdd",
          "type": "address"
        }
      ],
      "name": "addToWhitelist",
      "outputs": [],
      "stateMutability": "nonpayable",
      "type": "function"
    },
    {
      "inputs": [
        {
          "internalType": "address",
          "name": "toRemove",
          "type": "address"
        }
      ],
      "name": "removeFromWhitelist",
      "outputs": [],
      "stateMutability": "nonpayable",
      "type": "function"
    },
    {
      "inputs": [
        {
          "internalType": "uint256",
          "name": "newDrip",
          "type": "uint256"
        }
      ],
      "name": "changeDrip",
      "outputs": [],
      "stateMutability": "nonpayable",
      "type": "function"
    },
    {
      "inputs": [],
      "name": "drip",
      "outputs": [
        {
          "internalType": "uint256",
          "name": "",
          "type": "uint256"
        }
      ],
      "stateMutability": "view",
      "type": "function"
    },
    {
      "inputs": [
        {
          "internalType": "bool",
          "name": "newRewardsEnabled",
          "type": "bool"
        }
      ],
      "name": "setRelayerRewardsEnabled",
      "outputs": [],
      "stateMutability": "nonpayable",
      "type": "function"
    },
    {
      "inputs": [
        {
          "internalType": "uint256",
          "name": "newReward",
          "type": "uint256"
        }
      ],
      "name": "changeRelayerReward",
      "outputs": [],
      "stateMutability": "nonpayable",
      "type": "function"
    },
    {
      "inputs": [],
      "name": "relayerReward",
      "outputs": [
        {
          "internalType": "uint256",
          "name": "",
          "type": "uint256"
        }
      ],
      "stateMutability": "view",
      "type": "function"
    }
  ],
  "bytecode": "0x608060405234801561001057600080fd5b506119e0806100206000396000f3fe608060405234801561001057600080fd5b50600436106100ea5760003560e01c80637adb26771161008c5780639f678cca116100665780639f678cca14610231578063c175559b1461024f578063cb2d392d1461026d578063e43252d714610289576100ea565b80637adb2677146101dd5780638ab1d681146101f95780638d82b0a414610215576100ea565b80633af32abf116100c85780633af32abf146101575780633f1e4244146101875780636ea15727146101a55780636f3f80c9146101c1576100ea565b806320de1554146100ef578063265656de1461010b57806332ad9ecd14610127575b600080fd5b61010960048036038101906101049190610ec0565b6102a5565b005b61012560048036038101906101209190611059565b6102bb565b005b610141600480360381019061013c91906110a2565b61033d565b60405161014e91906110ea565b60405180910390f35b610171600480360381019061016c9190611143565b610370565b60405161017e91906110ea565b60405180910390f35b61018f6103f6565b60405161019c919061117f565b60405180910390f35b6101bf60048036038101906101ba91906110a2565b610409565b005b6101db60048036038101906101d691906112fc565b610424565b005b6101f760048036038101906101f29190611059565b610639565b005b610213600480360381019061020e9190611143565b6106b3565b005b61022f600480360381019061022a91906110a2565b610973565b005b61023961098e565b604051610246919061117f565b60405180910390f35b6102576109a1565b604051610264919061117f565b60405180910390f35b61028760048036038101906102829190611391565b6109b7565b005b6102a3600480360381019061029e9190611143565b6109e5565b005b6102ad610b53565b6102b78282610bee565b5050565b6102c3610b53565b60005b81518161ffff1610156103395760016102dd610daf565b6007016000848461ffff16815181106102f9576102f86113be565b5b6020026020010151815260200190815260200160002060006101000a81548160ff02191690831515021790555080806103319061142a565b9150506102c6565b5050565b6000610347610daf565b600701600083815260200190815260200160002060009054906101000a900460ff169050919050565b600061037a610daf565b60000160009054906101000a900460ff1661039857600190506103f1565b6103a0610daf565b60020160008373ffffffffffffffffffffffffffffffffffffffff1673ffffffffffffffffffffffffffffffffffffffff16815260200190815260200160002060009054906101000a900460ff1690505b919050565b6000610400610daf565b60060154905090565b610411610b53565b8061041a610daf565b6006018190555050565b73__Verifier______________________________633f1884bf858585856040518563ffffffff1660e01b815260040161046194939291906115fd565b602060405180830381865af415801561047e573d6000803e3d6000fd5b505050506040513d601f19601f820116820180604052508101906104a29190611659565b6104e1576040517f08c379a00000000000000000000000000000000000000000000000000000000081526004016104d8906116e3565b60405180910390fd5b6000816000600281106104f7576104f66113be565b5b60200201519050600082600160028110610514576105136113be565b5b60200201519050610523610daf565b60020160008273ffffffffffffffffffffffffffffffffffffffff1673ffffffffffffffffffffffffffffffffffffffff16815260200190815260200160002060009054906101000a900460ff161561057d575050610633565b6105878282610bee565b61058f610daf565b60050160009054906101000a900460ff1680156105d857503373ffffffffffffffffffffffffffffffffffffffff168173ffffffffffffffffffffffffffffffffffffffff1614155b15610630573373ffffffffffffffffffffffffffffffffffffffff166108fc6105ff610daf565b600601549081150290604051600060405180830381858888f1935050505015801561062e573d6000803e3d6000fd5b505b50505b50505050565b610641610b53565b60005b81518110156106af576000610657610daf565b600701600084848151811061066f5761066e6113be565b5b6020026020010151815260200190815260200160002060006101000a81548160ff02191690831515021790555080806106a790611703565b915050610644565b5050565b6106bb610b53565b6106c3610daf565b60020160008273ffffffffffffffffffffffffffffffffffffffff1673ffffffffffffffffffffffffffffffffffffffff16815260200190815260200160002060009054906101000a900460ff16610750576040517f08c379a0000000000000000000000000000000000000000000000000000000008152600401610747906117bd565b60405180910390fd5b600061075a610daf565b60020160008373ffffffffffffffffffffffffffffffffffffffff1673ffffffffffffffffffffffffffffffffffffffff16815260200190815260200160002060006101000a81548160ff02191690831515021790555060005b6107bc610daf565b6004018054905081101561096f578173ffffffffffffffffffffffffffffffffffffffff166107e9610daf565b60040182815481106107fe576107fd6113be565b5b9060005260206000200160009054906101000a900473ffffffffffffffffffffffffffffffffffffffff1673ffffffffffffffffffffffffffffffffffffffff160361095c5761084c610daf565b6004016001610859610daf565b6004018054905061086a91906117dd565b8154811061087b5761087a6113be565b5b9060005260206000200160009054906101000a900473ffffffffffffffffffffffffffffffffffffffff166108ae610daf565b60040182815481106108c3576108c26113be565b5b9060005260206000200160006101000a81548173ffffffffffffffffffffffffffffffffffffffff021916908373ffffffffffffffffffffffffffffffffffffffff160217905550610913610daf565b60040180548061092657610925611811565b5b6001900381819060005260206000200160006101000a81549073ffffffffffffffffffffffffffffffffffffffff021916905590555b808061096790611703565b9150506107b4565b5050565b61097b610b53565b80610984610daf565b6001018190555050565b6000610998610daf565b60010154905090565b60006109ab610daf565b60040180549050905090565b6109bf610b53565b806109c8610daf565b60050160006101000a81548160ff02191690831515021790555050565b6109ed610b53565b6109f5610daf565b60020160008273ffffffffffffffffffffffffffffffffffffffff1673ffffffffffffffffffffffffffffffffffffffff16815260200190815260200160002060009054906101000a900460ff1615610a83576040517f08c379a0000000000000000000000000000000000000000000000000000000008152600401610a7a9061188c565b60405180910390fd5b6001610a8d610daf565b60020160008373ffffffffffffffffffffffffffffffffffffffff1673ffffffffffffffffffffffffffffffffffffffff16815260200190815260200160002060006101000a81548160ff021916908315150217905550610aec610daf565b600401819080600181540180825580915050600190039060005260206000200160009091909190916101000a81548173ffffffffffffffffffffffffffffffffffffffff021916908373ffffffffffffffffffffffffffffffffffffffff16021790555050565b610b5b610dbe565b60040160009054906101000a900473ffffffffffffffffffffffffffffffffffffffff1673ffffffffffffffffffffffffffffffffffffffff163373ffffffffffffffffffffffffffffffffffffffff1614610bec576040517f08c379a0000000000000000000000000000000000000000000000000000000008152600401610be39061191e565b60405180910390fd5b565b610bf6610daf565b600701600083815260200190815260200160002060009054906101000a900460ff16610c57576040517f08c379a0000000000000000000000000000000000000000000000000000000008152600401610c4e9061198a565b60405180910390fd5b6001610c61610daf565b60020160008373ffffffffffffffffffffffffffffffffffffffff1673ffffffffffffffffffffffffffffffffffffffff16815260200190815260200160002060006101000a81548160ff021916908315150217905550610cc0610daf565b600401819080600181540180825580915050600190039060005260206000200160009091909190916101000a81548173ffffffffffffffffffffffffffffffffffffffff021916908373ffffffffffffffffffffffffffffffffffffffff1602179055506000610d2e610daf565b600701600084815260200190815260200160002060006101000a81548160ff0219169083151502179055508073ffffffffffffffffffffffffffffffffffffffff166108fc610d7b610daf565b600101549081150290604051600060405180830381858888f19350505050158015610daa573d6000803e3d6000fd5b505050565b6000610db9610deb565b905090565b6000807fc8fcad8db84d3cc18b4c41d551ea0ee66dd599cde068d998e57d5e09332c131c90508091505090565b6000807f69a2c502475bdd85d96bf3a0299d27e0c75b294faa4041a1d71dc144ef660eba90508091505090565b6000604051905090565b600080fd5b600080fd5b6000819050919050565b610e3f81610e2c565b8114610e4a57600080fd5b50565b600081359050610e5c81610e36565b92915050565b600073ffffffffffffffffffffffffffffffffffffffff82169050919050565b6000610e8d82610e62565b9050919050565b610e9d81610e82565b8114610ea857600080fd5b50565b600081359050610eba81610e94565b92915050565b60008060408385031215610ed757610ed6610e22565b5b6000610ee585828601610e4d565b9250506020610ef685828601610eab565b9150509250929050565b600080fd5b6000601f19601f8301169050919050565b7f4e487b7100000000000000000000000000000000000000000000000000000000600052604160045260246000fd5b610f4e82610f05565b810181811067ffffffffffffffff82111715610f6d57610f6c610f16565b5b80604052505050565b6000610f80610e18565b9050610f8c8282610f45565b919050565b600067ffffffffffffffff821115610fac57610fab610f16565b5b602082029050602081019050919050565b600080fd5b6000610fd5610fd084610f91565b610f76565b90508083825260208201905060208402830185811115610ff857610ff7610fbd565b5b835b81811015611021578061100d8882610e4d565b845260208401935050602081019050610ffa565b5050509392505050565b600082601f8301126110405761103f610f00565b5b8135611050848260208601610fc2565b91505092915050565b60006020828403121561106f5761106e610e22565b5b600082013567ffffffffffffffff81111561108d5761108c610e27565b5b6110998482850161102b565b91505092915050565b6000602082840312156110b8576110b7610e22565b5b60006110c684828501610e4d565b91505092915050565b60008115159050919050565b6110e4816110cf565b82525050565b60006020820190506110ff60008301846110db565b92915050565b600061111082610e62565b9050919050565b61112081611105565b811461112b57600080fd5b50565b60008135905061113d81611117565b92915050565b60006020828403121561115957611158610e22565b5b60006111678482850161112e565b91505092915050565b61117981610e2c565b82525050565b60006020820190506111946000830184611170565b92915050565b600067ffffffffffffffff8211156111b5576111b4610f16565b5b602082029050919050565b60006111d36111ce8461119a565b610f76565b905080602084028301858111156111ed576111ec610fbd565b5b835b8181101561121657806112028882610e4d565b8452602084019350506020810190506111ef565b5050509392505050565b600082601f83011261123557611234610f00565b5b60026112428482856111c0565b91505092915050565b600067ffffffffffffffff82111561126657611265610f16565b5b602082029050919050565b600061128461127f8461124b565b610f76565b9050806040840283018581111561129e5761129d610fbd565b5b835b818110156112c757806112b38882611220565b8452602084019350506040810190506112a0565b5050509392505050565b600082601f8301126112e6576112e5610f00565b5b60026112f3848285611271565b91505092915050565b600080600080610140858703121561131757611316610e22565b5b600061132587828801611220565b9450506040611336878288016112d1565b93505060c061134787828801611220565b92505061010061135987828801611220565b91505092959194509250565b61136e816110cf565b811461137957600080fd5b50565b60008135905061138b81611365565b92915050565b6000602082840312156113a7576113a6610e22565b5b60006113b58482850161137c565b91505092915050565b7f4e487b7100000000000000000000000000000000000000000000000000000000600052603260045260246000fd5b7f4e487b7100000000000000000000000000000000000000000000000000000000600052601160045260246000fd5b600061ffff82169050919050565b60006114358261141c565b915061ffff8203611449576114486113ed565b5b600182019050919050565b600060029050919050565b600081905092915050565b6000819050919050565b61147d81610e2c565b82525050565b600061148f8383611474565b60208301905092915050565b6000602082019050919050565b6114b181611454565b6114bb818461145f565b92506114c68261146a565b8060005b838110156114f75781516114de8782611483565b96506114e98361149b565b9250506001810190506114ca565b505050505050565b600060029050919050565b600081905092915050565b6000819050919050565b600081905092915050565b61153381611454565b61153d818461151f565b92506115488261146a565b8060005b838110156115795781516115608782611483565b965061156b8361149b565b92505060018101905061154c565b505050505050565b600061158d838361152a565b60408301905092915050565b6000602082019050919050565b6115af816114ff565b6115b9818461150a565b92506115c482611515565b8060005b838110156115f55781516115dc8782611581565b96506115e783611599565b9250506001810190506115c8565b505050505050565b60006101408201905061161360008301876114a8565b61162060408301866115a6565b61162d60c08301856114a8565b61163b6101008301846114a8565b95945050505050565b60008151905061165381611365565b92915050565b60006020828403121561166f5761166e610e22565b5b600061167d84828501611644565b91505092915050565b600082825260208201905092915050565b7f4661696c65642077686974656c6973742070726f6f6620636865636b00000000600082015250565b60006116cd601c83611686565b91506116d882611697565b602082019050919050565b600060208201905081810360008301526116fc816116c0565b9050919050565b600061170e82610e2c565b91507fffffffffffffffffffffffffffffffffffffffffffffffffffffffffffffffff82036117405761173f6113ed565b5b600182019050919050565b7f706c6179657220776173206e6f742077686974656c697374656420746f20626560008201527f67696e2077697468000000000000000000000000000000000000000000000000602082015250565b60006117a7602883611686565b91506117b28261174b565b604082019050919050565b600060208201905081810360008301526117d68161179a565b9050919050565b60006117e882610e2c565b91506117f383610e2c565b925082821015611806576118056113ed565b5b828203905092915050565b7f4e487b7100000000000000000000000000000000000000000000000000000000600052603160045260246000fd5b7f706c6179657220697320616c726561647920616c6c6f77656400000000000000600082015250565b6000611876601983611686565b915061188182611840565b602082019050919050565b600060208201905081810360008301526118a581611869565b9050919050565b7f4c69624469616d6f6e643a204d75737420626520636f6e7472616374206f776e60008201527f6572000000000000000000000000000000000000000000000000000000000000602082015250565b6000611908602283611686565b9150611913826118ac565b604082019050919050565b60006020820190508181036000830152611937816118fb565b9050919050565b7f696e76616c6964206b6579000000000000000000000000000000000000000000600082015250565b6000611974600b83611686565b915061197f8261193e565b602082019050919050565b600060208201905081810360008301526119a381611967565b905091905056fea2646970667358221220a87188bd0bf10f0eede7542ad403883b43d1bdefbe7a6fca4db0ae0b91e530f764736f6c634300080d0033",
  "immutableReferences": {},
  "source": "// SPDX-License-Identifier: GPL-3.0\npragma solidity ^0.8.0;\n\n// Library imports\nimport {LibDiamond} from \"../vendor/libraries/LibDiamond.sol\";\nimport {Verifier} from \"../Verifier.sol\";\n\n// Storage imports\nimport {WithStorage} from \"../libraries/LibStorage.sol\";\n\ncontract DFWhitelistFacet is WithStorage {\n    // administrative\n    modifier onlyAdmin() {\n        LibDiamond.enforceIsContractOwner();\n        _;\n    }\n\n    // public getters\n    function getNAllowed() public view returns (uint256) {\n        return ws().allowedAccountsArray.length;\n    }\n\n    function isWhitelisted(address _addr) public view returns (bool) {\n        if (!ws().enabled) {\n            return true;\n        }\n        return ws().allowedAccounts[_addr];\n    }\n\n    function isKeyHashValid(uint256 hashed) public view returns (bool) {\n        return ws().newAllowedKeyHashes[hashed];\n    }\n\n    // modify whitelist\n    function addKeys(uint256[] memory hashes) public onlyAdmin {\n        for (uint16 i = 0; i < hashes.length; i++) {\n            ws().newAllowedKeyHashes[hashes[i]] = true;\n        }\n    }\n\n    function disableKeys(uint256[] memory keys) public onlyAdmin {\n        for (uint256 i = 0; i < keys.length; i++) {\n            ws().newAllowedKeyHashes[keys[i]] = false;\n        }\n    }\n\n    function useKey(\n        uint256[2] memory _a,\n        uint256[2][2] memory _b,\n        uint256[2] memory _c,\n        uint256[2] memory _input\n    ) public {\n        require(Verifier.verifyWhitelistProof(_a, _b, _c, _input), \"Failed whitelist proof check\");\n\n        uint256 hashedKey = _input[0];\n        address payable recipient = payable(address(uint160(_input[1])));\n\n        if (ws().allowedAccounts[recipient]) return;\n\n        _useKey(hashedKey, recipient);\n\n        if (ws().relayerRewardsEnabled && recipient != msg.sender) {\n            // Payment to encourage relaying whitelist\n            // transactions for new users with no funds\n            payable(msg.sender).transfer(ws().relayerReward);\n        }\n    }\n\n    function adminUseKey(uint256 keyHash, address payable recipient) public onlyAdmin {\n        _useKey(keyHash, recipient);\n    }\n\n    function _useKey(uint256 keyHash, address payable recipient) private {\n        require(ws().newAllowedKeyHashes[keyHash], \"invalid key\");\n        ws().allowedAccounts[recipient] = true;\n        ws().allowedAccountsArray.push(recipient);\n        ws().newAllowedKeyHashes[keyHash] = false;\n        // xDAI ONLY\n        payable(recipient).transfer(ws().drip);\n    }\n\n    function addToWhitelist(address toAdd) public onlyAdmin {\n        require(!ws().allowedAccounts[toAdd], \"player is already allowed\");\n\n        ws().allowedAccounts[toAdd] = true;\n        ws().allowedAccountsArray.push(toAdd);\n    }\n\n    function removeFromWhitelist(address toRemove) public onlyAdmin {\n        require(ws().allowedAccounts[toRemove], \"player was not whitelisted to begin with\");\n        ws().allowedAccounts[toRemove] = false;\n        for (uint256 i = 0; i < ws().allowedAccountsArray.length; i++) {\n            if (ws().allowedAccountsArray[i] == toRemove) {\n                ws().allowedAccountsArray[i] = ws().allowedAccountsArray[\n                    ws().allowedAccountsArray.length - 1\n                ];\n                ws().allowedAccountsArray.pop();\n            }\n        }\n    }\n\n    function changeDrip(uint256 newDrip) public onlyAdmin {\n        ws().drip = newDrip;\n    }\n\n    function drip() public view returns (uint256) {\n        return ws().drip;\n    }\n\n    function setRelayerRewardsEnabled(bool newRewardsEnabled) public onlyAdmin {\n        ws().relayerRewardsEnabled = newRewardsEnabled;\n    }\n\n    function changeRelayerReward(uint256 newReward) public onlyAdmin {\n        ws().relayerReward = newReward;\n    }\n\n    function relayerReward() public view returns (uint256) {\n        return ws().relayerReward;\n    }\n}\n",
  "sourcePath": "/home/terra/opensource/tosca-chain/smart-contract-example/contracts/facets/DFWhitelistFacet.sol",
  "compiler": {
    "name": "solc",
    "version": "0.8.13+commit.abaa5c0e.Emscripten.clang"
  },
  "schemaVersion": "3.4.7",
  "updatedAt": "2022-04-30T15:27:25.846Z",
  "devdoc": {
    "kind": "dev",
    "methods": {},
    "version": 1
  },
  "userdoc": {
    "kind": "user",
    "methods": {},
    "version": 1
  }
}