{
  "contractName": "LibArtifactUtils",
  "abi": [
    {
      "anonymous": false,
      "inputs": [
        {
          "indexed": false,
          "internalType": "address",
          "name": "player",
          "type": "address"
        },
        {
          "indexed": false,
          "internalType": "uint256",
          "name": "artifactId",
          "type": "uint256"
        },
        {
          "indexed": false,
          "internalType": "uint256",
          "name": "loc",
          "type": "uint256"
        }
      ],
      "name": "ArtifactActivated",
      "type": "event"
    },
    {
      "anonymous": false,
      "inputs": [
        {
          "indexed": false,
          "internalType": "address",
          "name": "player",
          "type": "address"
        },
        {
          "indexed": false,
          "internalType": "uint256",
          "name": "artifactId",
          "type": "uint256"
        },
        {
          "indexed": false,
          "internalType": "uint256",
          "name": "loc",
          "type": "uint256"
        }
      ],
      "name": "ArtifactDeactivated",
      "type": "event"
    },
    {
      "anonymous": false,
      "inputs": [
        {
          "indexed": false,
          "internalType": "address",
          "name": "player",
          "type": "address"
        },
        {
          "indexed": false,
          "internalType": "uint256",
          "name": "loc",
          "type": "uint256"
        },
        {
          "indexed": false,
          "internalType": "uint256",
          "name": "branch",
          "type": "uint256"
        },
        {
          "indexed": false,
          "internalType": "uint256",
          "name": "toBranchLevel",
          "type": "uint256"
        }
      ],
      "name": "PlanetUpgraded",
      "type": "event"
    },
    {
      "inputs": [
        {
          "internalType": "uint256",
          "name": "locationId",
          "type": "uint256"
        },
        {
          "components": [
            {
              "internalType": "bool",
              "name": "isInitialized",
              "type": "bool"
            },
            {
              "internalType": "uint256",
              "name": "createdAt",
              "type": "uint256"
            },
            {
              "internalType": "uint256",
              "name": "lastUpdated",
              "type": "uint256"
            },
            {
              "internalType": "uint256",
              "name": "perlin",
              "type": "uint256"
            },
            {
              "internalType": "enum SpaceType",
              "name": "spaceType",
              "type": "SpaceType"
            },
            {
              "internalType": "uint256",
              "name": "upgradeState0",
              "type": "uint256"
            },
            {
              "internalType": "uint256",
              "name": "upgradeState1",
              "type": "uint256"
            },
            {
              "internalType": "uint256",
              "name": "upgradeState2",
              "type": "uint256"
            },
            {
              "internalType": "uint256",
              "name": "hatLevel",
              "type": "uint256"
            },
            {
              "internalType": "bool",
              "name": "hasTriedFindingArtifact",
              "type": "bool"
            },
            {
              "internalType": "uint256",
              "name": "prospectedBlockNumber",
              "type": "uint256"
            },
            {
              "internalType": "bool",
              "name": "destroyed",
              "type": "bool"
            },
            {
              "internalType": "uint256",
              "name": "spaceJunk",
              "type": "uint256"
            }
          ],
          "internalType": "struct PlanetExtendedInfo",
          "name": "info",
          "type": "tuple"
        },
        {
          "components": [
            {
              "internalType": "address",
              "name": "owner",
              "type": "address"
            },
            {
              "internalType": "uint256",
              "name": "range",
              "type": "uint256"
            },
            {
              "internalType": "uint256",
              "name": "speed",
              "type": "uint256"
            },
            {
              "internalType": "uint256",
              "name": "defense",
              "type": "uint256"
            },
            {
              "internalType": "uint256",
              "name": "population",
              "type": "uint256"
            },
            {
              "internalType": "uint256",
              "name": "populationCap",
              "type": "uint256"
            },
            {
              "internalType": "uint256",
              "name": "populationGrowth",
              "type": "uint256"
            },
            {
              "internalType": "uint256",
              "name": "silverCap",
              "type": "uint256"
            },
            {
              "internalType": "uint256",
              "name": "silverGrowth",
              "type": "uint256"
            },
            {
              "internalType": "uint256",
              "name": "silver",
              "type": "uint256"
            },
            {
              "internalType": "uint256",
              "name": "planetLevel",
              "type": "uint256"
            },
            {
              "internalType": "enum PlanetType",
              "name": "planetType",
              "type": "PlanetType"
            },
            {
              "internalType": "bool",
              "name": "isHomePlanet",
              "type": "bool"
            }
          ],
          "internalType": "struct Planet",
          "name": "planet",
          "type": "tuple"
        }
      ],
      "name": "checkFindArtifact",
      "outputs": [
        {
          "internalType": "bool",
          "name": "",
          "type": "bool"
        }
      ],
      "stateMutability": "view",
      "type": "function"
    },
    {
      "inputs": [
        {
          "internalType": "uint256",
          "name": "locationId",
          "type": "uint256"
        }
      ],
      "name": "containsGear",
      "outputs": [
        {
          "internalType": "bool",
          "name": "",
          "type": "bool"
        }
      ],
      "stateMutability": "view",
      "type": "function"
    },
    {
      "inputs": [
        {
          "internalType": "enum ArtifactType",
          "name": "artifactType",
          "type": "ArtifactType"
        }
      ],
      "name": "isSpaceship",
      "outputs": [
        {
          "internalType": "bool",
          "name": "",
          "type": "bool"
        }
      ],
      "stateMutability": "pure",
      "type": "function"
    }
  ],
  "bytecode": "0x615a7e62000054600b82828239805160001a607314610047577f4e487b7100000000000000000000000000000000000000000000000000000000600052600060045260246000fd5b30600052607381538281f3fe73000000000000000000000000000000000000000030146080604052600436106100a85760003560e01c8063a7d0cc3011610070578063a7d0cc301461019c578063c918aebd146101c5578063cc1612db146101ee578063e76aa4291461021e578063fa96074f14610247576100a8565b80632e3fdd26146100ad57806370e0f0ce146100dd57806376293ff1146101065780639513a2ad146101435780639bc1a4521461016c575b600080fd5b6100c760048036038101906100c2919061310f565b610284565b6040516100d49190613157565b60405180910390f35b8180156100e957600080fd5b5061010460048036038101906100ff9190613172565b610432565b005b81801561011257600080fd5b5061012d60048036038101906101289190613305565b610811565b60405161013a9190613341565b60405180910390f35b81801561014f57600080fd5b5061016a6004803603810190610165919061335c565b610e73565b005b610186600480360381019061018191906133d4565b611195565b6040516101939190613157565b60405180910390f35b8180156101a857600080fd5b506101c360048036038101906101be9190613401565b6111f7565b005b8180156101d157600080fd5b506101ec60048036038101906101e7919061310f565b6116dc565b005b6102086004803603810190610203919061373a565b611b3a565b6040516102159190613157565b60405180910390f35b81801561022a57600080fd5b506102456004803603810190610240919061310f565b611db7565b005b81801561025357600080fd5b5061026e6004803603810190610269919061378f565b611ff0565b60405161027b9190613341565b60405180910390f35b60008061028f612256565b60150160008481526020019081526020016000208054806020026020016040519081016040528092919081815260200182805480156102ed57602002820191906000526020600020905b8154815260200190600101908083116102d9575b5050505050905060005b81518110156104265760003073ffffffffffffffffffffffffffffffffffffffff16638465ad44848481518110610331576103306137e2565b5b60200260200101516040518263ffffffff1660e01b81526004016103559190613820565b6101a060405180830381865afa158015610373573d6000803e3d6000fd5b505050506040513d601f19601f820116820180604052508101906103979190613a11565b9050600d600e8111156103ad576103ac613a3f565b5b8160e00151600e8111156103c4576103c3613a3f565b5b148015610401575080610180015173ffffffffffffffffffffffffffffffffffffffff163373ffffffffffffffffffffffffffffffffffffffff16145b15610412576001935050505061042d565b50808061041e90613a9d565b9150506102f7565b5060009150505b919050565b600061043c612256565b600c01600084815260200190815260200160002090506003600481111561046657610465613a3f565b5b81600b0160009054906101000a900460ff16600481111561048a57610489613a3f565b5b146104ca576040517f08c379a00000000000000000000000000000000000000000000000000000000081526004016104c190613b68565b60405180910390fd5b6104d2612256565b600e016000848152602001908152602001600020600b0160009054906101000a900460ff1615610537576040517f08c379a000000000000000000000000000000000000000000000000000000000815260040161052e90613bd4565b60405180910390fd5b3373ffffffffffffffffffffffffffffffffffffffff168160000160009054906101000a900473ffffffffffffffffffffffffffffffffffffffff1673ffffffffffffffffffffffffffffffffffffffff16146105c9576040517f08c379a00000000000000000000000000000000000000000000000000000000081526004016105c090613c66565b60405180910390fd5b600073__LibGameUtils__________________________635256e19085856040518363ffffffff1660e01b8152600401610604929190613c86565b6101a060405180830381865af4158015610622573d6000803e3d6000fd5b505050506040513d601f19601f820116820180604052508101906106469190613a11565b9050806000015161068c576040517f08c379a000000000000000000000000000000000000000000000000000000000815260040161068390613d21565b60405180910390fd5b806060015160058111156106a3576106a2613a3f565b5b82600a0154116106e8576040517f08c379a00000000000000000000000000000000000000000000000000000000081526004016106df90613db3565b60405180910390fd5b6106f58160e00151611195565b15610735576040517f08c379a000000000000000000000000000000000000000000000000000000000815260040161072c90613e1f565b60405180910390fd5b73__LibGameUtils__________________________63ddd2866084866040518363ffffffff1660e01b815260040161076e929190613c86565b60006040518083038186803b15801561078657600080fd5b505af415801561079a573d6000803e3d6000fd5b505050503073ffffffffffffffffffffffffffffffffffffffff1663991182da84336040518363ffffffff1660e01b81526004016107d9929190613e4e565b600060405180830381600087803b1580156107f357600080fd5b505af1158015610807573d6000803e3d6000fd5b5050505050505050565b60008061081c612256565b600c0160008460000151815260200190815260200160002090506000610840612256565b600e016000856000015181526020019081526020016000209050610a77846000015182604051806101a00160405290816000820160009054906101000a900460ff161515151581526020016001820154815260200160028201548152602001600382015481526020016004820160009054906101000a900460ff1660038111156108cd576108cc613a3f565b5b60038111156108df576108de613a3f565b5b8152602001600582015481526020016006820154815260200160078201548152602001600882015481526020016009820160009054906101000a900460ff16151515158152602001600a8201548152602001600b820160009054906101000a900460ff16151515158152602001600c8201548152505084604051806101a00160405290816000820160009054906101000a900473ffffffffffffffffffffffffffffffffffffffff1673ffffffffffffffffffffffffffffffffffffffff1673ffffffffffffffffffffffffffffffffffffffff168152602001600182015481526020016002820154815260200160038201548152602001600482015481526020016005820154815260200160068201548152602001600782015481526020016008820154815260200160098201548152602001600a8201548152602001600b820160009054906101000a900460ff166004811115610a4157610a40613a3f565b5b6004811115610a5357610a52613a3f565b5b8152602001600b820160019054906101000a900460ff161515151581525050611b3a565b610a8057600080fd5b600073__LibGameUtils__________________________63a2deac588360040160009054906101000a900460ff1687602001516040518363ffffffff1660e01b8152600401610ad0929190613ebf565b602060405180830381865af4158015610aed573d6000803e3d6000fd5b505050506040513d601f19601f82011682018060405250810190610b119190613ee8565b905060008560000151866040015184600a015440604051602001610b3793929190613fa9565b6040516020818303038152906040528051906020012060001c9050600080610b7183858760040160009054906101000a900460ff16612265565b9150915060006040518061010001604052808581526020013373ffffffffffffffffffffffffffffffffffffffff1681526020018a60000151815260200173__LibGameUtils__________________________632ebe903f8a600a015486610bd99190613fe6565b6040518263ffffffff1660e01b8152600401610bf59190613341565b602060405180830381865af4158015610c12573d6000803e3d6000fd5b505050506040513d601f19601f82011682018060405250810190610c36919061403c565b6005811115610c4857610c47613a3f565b5b815260200186600a811115610c6057610c5f613a3f565b5b815260200184600e811115610c7857610c77613a3f565b5b81526020018a6040015173ffffffffffffffffffffffffffffffffffffffff168152602001600073ffffffffffffffffffffffffffffffffffffffff16815250905060003073ffffffffffffffffffffffffffffffffffffffff1663d72fd411836040518263ffffffff1660e01b8152600401610cf59190614201565b6101a0604051808303816000875af1158015610d15573d6000803e3d6000fd5b505050506040513d601f19601f82011682018060405250810190610d399190613a11565b905073__LibGameUtils__________________________63e83162c282602001518c600001516040518363ffffffff1660e01b8152600401610d7c929190613c86565b60006040518083038186803b158015610d9457600080fd5b505af4158015610da8573d6000803e3d6000fd5b5050505060018760090160006101000a81548160ff021916908315150217905550610dd1612454565b60430181606001516005811115610deb57610dea613a3f565b5b60068110610dfc57610dfb6137e2565b5b0154610e06612256565b60120160003373ffffffffffffffffffffffffffffffffffffffff1673ffffffffffffffffffffffffffffffffffffffff1681526020019081526020016000206004016000828254610e589190613fe6565b92505081905550806020015198505050505050505050919050565b6000610e7d612256565b600c01600085815260200190815260200160002090506000610e9d612256565b6016016000858152602001908152602001600020905073__LibGameUtils__________________________637e54ea1a86866040518363ffffffff1660e01b8152600401610eec929190613c86565b602060405180830381865af4158015610f09573d6000803e3d6000fd5b505050506040513d601f19601f82011682018060405250810190610f2d919061421d565b610f6c576040517f08c379a0000000000000000000000000000000000000000000000000000000008152600401610f63906142bc565b60405180910390fd5b610f868160050160149054906101000a900460ff16611195565b15610f9c57610f9785858484612463565b611174565b6111738585858585604051806101a00160405290816000820160009054906101000a900460ff1615151515815260200160018201548152602001600282015481526020016003820160009054906101000a900460ff16600581111561100457611003613a3f565b5b600581111561101657611015613a3f565b5b81526020016003820160019054906101000a900460ff16600a81111561103f5761103e613a3f565b5b600a81111561105157611050613a3f565b5b8152602001600482015481526020016005820160009054906101000a900473ffffffffffffffffffffffffffffffffffffffff1673ffffffffffffffffffffffffffffffffffffffff1673ffffffffffffffffffffffffffffffffffffffff1681526020016005820160149054906101000a900460ff16600e8111156110da576110d9613a3f565b5b600e8111156110ec576110eb613a3f565b5b815260200160068201548152602001600782015481526020016008820154815260200160098201548152602001600a820160009054906101000a900473ffffffffffffffffffffffffffffffffffffffff1673ffffffffffffffffffffffffffffffffffffffff1673ffffffffffffffffffffffffffffffffffffffff16815250506127a8565b5b80600601600081548092919061118990613a9d565b91905055505050505050565b6000600a600e8111156111ab576111aa613a3f565b5b82600e8111156111be576111bd613a3f565b5b101580156111f05750600e808111156111da576111d9613a3f565b5b82600e8111156111ed576111ec613a3f565b5b11155b9050919050565b6000611201612256565b600c016000858152602001908152602001600020905061121f612256565b600e016000858152602001908152602001600020600b0160009054906101000a900460ff1615611284576040517f08c379a000000000000000000000000000000000000000000000000000000000815260040161127b90613bd4565b60405180910390fd5b6003600481111561129857611297613a3f565b5b81600b0160009054906101000a900460ff1660048111156112bc576112bb613a3f565b5b146112fc576040517f08c379a00000000000000000000000000000000000000000000000000000000081526004016112f39061434e565b60405180910390fd5b3373ffffffffffffffffffffffffffffffffffffffff163073ffffffffffffffffffffffffffffffffffffffff16636352211e856040518263ffffffff1660e01b815260040161134c9190613820565b602060405180830381865afa158015611369573d6000803e3d6000fd5b505050506040513d601f19601f8201168201806040525081019061138d919061436e565b73ffffffffffffffffffffffffffffffffffffffff16146113e3576040517f08c379a00000000000000000000000000000000000000000000000000000000081526004016113da9061440d565b60405180910390fd5b3373ffffffffffffffffffffffffffffffffffffffff168160000160009054906101000a900473ffffffffffffffffffffffffffffffffffffffff1673ffffffffffffffffffffffffffffffffffffffff1614611475576040517f08c379a000000000000000000000000000000000000000000000000000000000815260040161146c9061449f565b60405180910390fd5b60003073ffffffffffffffffffffffffffffffffffffffff16638465ad44856040518263ffffffff1660e01b81526004016114b09190613820565b6101a060405180830381865afa1580156114ce573d6000803e3d6000fd5b505050506040513d601f19601f820116820180604052508101906114f29190613a11565b90508060600151600581111561150b5761150a613a3f565b5b82600a015411611550576040517f08c379a000000000000000000000000000000000000000000000000000000000815260040161154790614531565b60405180910390fd5b61155d8160e00151611195565b1561159d576040517f08c379a00000000000000000000000000000000000000000000000000000000081526004016115949061459d565b60405180910390fd5b60056115a7612256565b601501600087815260200190815260200160002080549050106115ff576040517f08c379a00000000000000000000000000000000000000000000000000000000081526004016115f69061462f565b60405180910390fd5b73__LibGameUtils__________________________63e83162c285876040518363ffffffff1660e01b8152600401611638929190613c86565b60006040518083038186803b15801561165057600080fd5b505af4158015611664573d6000803e3d6000fd5b505050503073ffffffffffffffffffffffffffffffffffffffff1663991182da85856040518363ffffffff1660e01b81526004016116a3929190613e4e565b600060405180830381600087803b1580156116bd57600080fd5b505af11580156116d1573d6000803e3d6000fd5b505050505050505050565b60006116e6612256565b600c01600083815260200190815260200160002090503373ffffffffffffffffffffffffffffffffffffffff168160000160009054906101000a900473ffffffffffffffffffffffffffffffffffffffff1673ffffffffffffffffffffffffffffffffffffffff161461178e576040517f08c379a0000000000000000000000000000000000000000000000000000000008152600401611785906146c1565b60405180910390fd5b611796612256565b600e016000838152602001908152602001600020600b0160009054906101000a900460ff16156117fb576040517f08c379a00000000000000000000000000000000000000000000000000000000081526004016117f290613bd4565b60405180910390fd5b600073__LibGameUtils__________________________63c4e6f909846040518263ffffffff1660e01b81526004016118349190613341565b6101a060405180830381865af4158015611852573d6000803e3d6000fd5b505050506040513d601f19601f820116820180604052508101906118769190613a11565b905080600001516118bc576040517f08c379a00000000000000000000000000000000000000000000000000000000081526004016118b390614753565b60405180910390fd5b42816101400181815250506000816101600181815250507ffc7424381711b1ad7e6b795168cb10ae460022f5f20ce53e9aeb8d4c950dfe5d3382602001518560405161190a93929190614773565b60405180910390a13073ffffffffffffffffffffffffffffffffffffffff1663204155f4826040518263ffffffff1660e01b815260040161194b91906148c4565b600060405180830381600087803b15801561196557600080fd5b505af1158015611979573d6000803e3d6000fd5b5050505060006006600e81111561199357611992613a3f565b5b8260e00151600e8111156119aa576119a9613a3f565b5b14806119de57506007600e8111156119c5576119c4613a3f565b5b8260e00151600e8111156119dc576119db613a3f565b5b145b90508015611a545773__LibGameUtils__________________________63ddd286608360200151866040518363ffffffff1660e01b8152600401611a23929190613c86565b60006040518083038186803b158015611a3b57600080fd5b505af4158015611a4f573d6000803e3d6000fd5b505050505b73__LibGameUtils__________________________63b0c026398573__LibGameUtils__________________________631ec2b886866040518263ffffffff1660e01b8152600401611aa69190614a45565b60a060405180830381865af4158015611ac3573d6000803e3d6000fd5b505050506040513d601f19601f82011682018060405250810190611ae79190614aed565b6040518363ffffffff1660e01b8152600401611b04929190614b82565b60006040518083038186803b158015611b1c57600080fd5b505af4158015611b30573d6000803e3d6000fd5b5050505050505050565b600082610120015115611b82576040517f08c379a0000000000000000000000000000000000000000000000000000000008152600401611b7990614c1d565b60405180910390fd5b3373ffffffffffffffffffffffffffffffffffffffff16826000015173ffffffffffffffffffffffffffffffffffffffff1614611bf4576040517f08c379a0000000000000000000000000000000000000000000000000000000008152600401611beb90614caf565b60405180910390fd5b600083610140015103611c3c576040517f08c379a0000000000000000000000000000000000000000000000000000000008152600401611c3390614d1b565b60405180910390fd5b4383610140015110611c83576040517f08c379a0000000000000000000000000000000000000000000000000000000008152600401611c7a90614dad565b60405180910390fd5b8261014001514311611cca576040517f08c379a0000000000000000000000000000000000000000000000000000000008152600401611cc190614e19565b60405180910390fd5b61010083610140015143611cde9190614e39565b10611d1e576040517f08c379a0000000000000000000000000000000000000000000000000000000008152600401611d1590614eb9565b60405180910390fd5b82610160015115611d64576040517f08c379a0000000000000000000000000000000000000000000000000000000008152600401611d5b90613bd4565b60405180910390fd5b611d6d84610284565b611dac576040517f08c379a0000000000000000000000000000000000000000000000000000000008152600401611da390614f4b565b60405180910390fd5b600190509392505050565b6000611dc1612256565b600c01600083815260200190815260200160002090506000611de1612256565b600e016000848152602001908152602001600020905080600b0160009054906101000a900460ff1615611e49576040517f08c379a0000000000000000000000000000000000000000000000000000000008152600401611e4090613bd4565b60405180910390fd5b60026004811115611e5d57611e5c613a3f565b5b82600b0160009054906101000a900460ff166004811115611e8157611e80613a3f565b5b14611ec1576040517f08c379a0000000000000000000000000000000000000000000000000000000008152600401611eb890614fdd565b60405180910390fd5b611eca83610284565b611f09576040517f08c379a0000000000000000000000000000000000000000000000000000000008152600401611f0090614f4b565b60405180910390fd5b3373ffffffffffffffffffffffffffffffffffffffff168260000160009054906101000a900473ffffffffffffffffffffffffffffffffffffffff1673ffffffffffffffffffffffffffffffffffffffff1614611f9b576040517f08c379a0000000000000000000000000000000000000000000000000000000008152600401611f9290615049565b60405180910390fd5b600081600a015414611fe2576040517f08c379a0000000000000000000000000000000000000000000000000000000008152600401611fd9906150db565b60405180910390fd5b4381600a0181905550505050565b6000600e8081111561200557612004613a3f565b5b82600e81111561201857612017613a3f565b5b1115801561204b5750600a600e81111561203557612034613a3f565b5b82600e81111561204857612047613a3f565b5b10155b61205457600080fd5b60008461205f612256565b600b01600081548092919061207390613a9d565b919050556040516020016120889291906150fb565b6040516020818303038152906040528051906020012060001c905060006040518061010001604052808381526020013373ffffffffffffffffffffffffffffffffffffffff168152602001878152602001600060058111156120ed576120ec613a3f565b5b81526020016000600a81111561210657612105613a3f565b5b815260200185600e81111561211e5761211d613a3f565b5b81526020013073ffffffffffffffffffffffffffffffffffffffff1681526020018673ffffffffffffffffffffffffffffffffffffffff16815250905060003073ffffffffffffffffffffffffffffffffffffffff1663d72fd411836040518263ffffffff1660e01b81526004016121969190614201565b6101a0604051808303816000875af11580156121b6573d6000803e3d6000fd5b505050506040513d601f19601f820116820180604052508101906121da9190613a11565b905073__LibGameUtils__________________________63e83162c28260200151896040518363ffffffff1660e01b8152600401612219929190613c86565b60006040518083038186803b15801561223157600080fd5b505af4158015612245573d6000803e3d6000fd5b505050508293505050509392505050565b6000612260613070565b905090565b600080600060ff866122779190615156565b9050600060ff610100838961228c9190614e39565b6122969190615187565b6122a09190615156565b905060006004905060278310156122ba576001905061241f565b604e8310156122cc576002905061241e565b609c8310156122de576004905061241d565b60ab8310156122f0576005905061241c565b60ba831015612302576006905061241b565b60c9831015612314576007905061241a565b60d88310156123265760089050612419565b60e78310156123385760099050612418565b6007600a81111561234c5761234b613a3f565b5b87600a81111561235f5761235e613a3f565b5b0361236d5760069050612413565b6009600a81111561238157612380613a3f565b5b87600a81111561239457612393613a3f565b5b036123a25760079050612412565b6008600a8111156123b6576123b5613a3f565b5b87600a8111156123c9576123c8613a3f565b5b036123d75760089050612411565b600a808111156123ea576123e9613a3f565b5b87600a8111156123fd576123fc613a3f565b5b0361240b5760099050612410565b600590505b5b5b5b600790505b5b5b5b5b5b5b5b600060048310156124335760029050612442565b601083101561244157600190505b5b81819550955050505050935093915050565b600061245e61309d565b905090565b600061246d612256565b600e0160008681526020019081526020016000209050600b600e81111561249757612496613a3f565b5b8260050160149054906101000a900460ff16600e8111156124bb576124ba613a3f565b5b036127a1576000826006015414612507576040517f08c379a00000000000000000000000000000000000000000000000000000000081526004016124fe9061522a565b60405180910390fd5b6001600481111561251b5761251a613a3f565b5b83600b0160009054906101000a900460ff16600481111561253f5761253e613a3f565b5b0361257f576040517f08c379a0000000000000000000000000000000000000000000000000000000008152600401612576906152bc565b60405180910390fd5b600073ffffffffffffffffffffffffffffffffffffffff168360000160009054906101000a900473ffffffffffffffffffffffffffffffffffffffff1673ffffffffffffffffffffffffffffffffffffffff1614612612576040517f08c379a00000000000000000000000000000000000000000000000000000000081526004016126099061534e565b60405180910390fd5b600183600a0154101561265a576040517f08c379a0000000000000000000000000000000000000000000000000000000008152600401612651906153e0565b60405180910390fd5b42826007018190555042826008018190555060008360090154036127385760018360090181905550600073__LibGameUtils__________________________6314f65d3b8786600a015460018660040160009054906101000a900460ff166126c0612454565b600301546040518663ffffffff1660e01b81526004016126e4959493929190615448565b6101a060405180830381865af4158015612702573d6000803e3d6000fd5b505050506040513d601f19601f8201168201806040525081019061272691906155e8565b90508061010001518460080181905550505b600183600b0160006101000a81548160ff021916908360048111156127605761275f613a3f565b5b02179055507f760658b7f8d52e2bfb26775ec9abda96f1ce4582d7415cfe87d28e7550bd493c33858760405161279893929190614773565b60405180910390a15b5050505050565b60006127b2612256565b600e01600087815260200190815260200160002090503373ffffffffffffffffffffffffffffffffffffffff168360000160009054906101000a900473ffffffffffffffffffffffffffffffffffffffff1673ffffffffffffffffffffffffffffffffffffffff161461285a576040517f08c379a000000000000000000000000000000000000000000000000000000000815260040161285190615688565b60405180910390fd5b73__LibGameUtils__________________________63c4e6f909876040518263ffffffff1660e01b81526004016128919190613341565b6101a060405180830381865af41580156128af573d6000803e3d6000fd5b505050506040513d601f19601f820116820180604052508101906128d39190613a11565b6000015115612917576040517f08c379a000000000000000000000000000000000000000000000000000000000815260040161290e9061571a565b60405180910390fd5b80600b0160009054906101000a900460ff1615612969576040517f08c379a000000000000000000000000000000000000000000000000000000000815260040161296090613bd4565b60405180910390fd5b81600001516129ad576040517f08c379a00000000000000000000000000000000000000000000000000000000081526004016129a490613d21565b60405180910390fd5b60006040518061014001604052806018815260200160008152602001600081526020016000815260200160008152602001600481526020016004815260200160188152602001601881526020016018815250905042603c80838660e00151600e811115612a1d57612a1c613a3f565b5b600a8110612a2e57612a2d6137e2565b5b6020020151612a3d919061573a565b612a47919061573a565b846101400151612a579190613fe6565b10612a97576040517f08c379a0000000000000000000000000000000000000000000000000000000008152600401612a8e906157e0565b60405180910390fd5b600042846101200181815250507f760658b7f8d52e2bfb26775ec9abda96f1ce4582d7415cfe87d28e7550bd493c33888a604051612ad793929190614773565b60405180910390a16005600e811115612af357612af2613a3f565b5b8460e00151600e811115612b0a57612b09613a3f565b5b03612c7c5760008603612b52576040517f08c379a0000000000000000000000000000000000000000000000000000000008152600401612b4990615872565b60405180910390fd5b3373ffffffffffffffffffffffffffffffffffffffff16612b71612256565b600c01600088815260200190815260200160002060000160009054906101000a900473ffffffffffffffffffffffffffffffffffffffff1673ffffffffffffffffffffffffffffffffffffffff1614612bff576040517f08c379a0000000000000000000000000000000000000000000000000000000008152600401612bf690615904565b60405180910390fd5b612c07612256565b600e016000878152602001908152602001600020600b0160009054906101000a900460ff1615612c6c576040517f08c379a0000000000000000000000000000000000000000000000000000000008152600401612c6390615970565b60405180910390fd5b8584610160018181525050612df5565b6008600e811115612c9057612c8f613a3f565b5b8460e00151600e811115612ca757612ca6613a3f565b5b03612d385784600a015484606001516005811115612cc857612cc7613a3f565b5b6002612cd4919061573a565b1015612d15576040517f08c379a0000000000000000000000000000000000000000000000000000000008152600401612d0c90615a28565b60405180910390fd5b846005015485600401819055508460070154856009018190555060019050612df4565b6009600e811115612d4c57612d4b613a3f565b5b8460e00151600e811115612d6357612d62613a3f565b5b03612df35784600a015484606001516005811115612d8457612d83613a3f565b5b6002612d90919061573a565b1015612dd1576040517f08c379a0000000000000000000000000000000000000000000000000000000008152600401612dc890615a28565b60405180910390fd5b600183600b0160006101000a81548160ff021916908315150217905550600190505b5b5b8015612f1a5742846101400181815250503073ffffffffffffffffffffffffffffffffffffffff1663204155f4856040518263ffffffff1660e01b8152600401612e3f91906148c4565b600060405180830381600087803b158015612e5957600080fd5b505af1158015612e6d573d6000803e3d6000fd5b505050507ffc7424381711b1ad7e6b795168cb10ae460022f5f20ce53e9aeb8d4c950dfe5d33888a604051612ea493929190614773565b60405180910390a173__LibGameUtils__________________________63ddd28660888a6040518363ffffffff1660e01b8152600401612ee5929190613c86565b60006040518083038186803b158015612efd57600080fd5b505af4158015612f11573d6000803e3d6000fd5b50505050612f86565b3073ffffffffffffffffffffffffffffffffffffffff1663204155f4856040518263ffffffff1660e01b8152600401612f5391906148c4565b600060405180830381600087803b158015612f6d57600080fd5b505af1158015612f81573d6000803e3d6000fd5b505050505b73__LibGameUtils__________________________6392dd471c8973__LibGameUtils__________________________631ec2b886886040518263ffffffff1660e01b8152600401612fd89190614a45565b60a060405180830381865af4158015612ff5573d6000803e3d6000fd5b505050506040513d601f19601f820116820180604052508101906130199190614aed565b6040518363ffffffff1660e01b8152600401613036929190614b82565b60006040518083038186803b15801561304e57600080fd5b505af4158015613062573d6000803e3d6000fd5b505050505050505050505050565b6000807fcb7f1a525606efcbba7baaf9b0b55c468d0fd558cbf767967f538834dfa1232e90508091505090565b6000807f5fb65bb339c6bd3f2609a7342e6cb046e09f3e40f45242a5971904b021b5bb5390508091505090565b6000604051905090565b600080fd5b6000819050919050565b6130ec816130d9565b81146130f757600080fd5b50565b600081359050613109816130e3565b92915050565b600060208284031215613125576131246130d4565b5b6000613133848285016130fa565b91505092915050565b60008115159050919050565b6131518161313c565b82525050565b600060208201905061316c6000830184613148565b92915050565b60008060408385031215613189576131886130d4565b5b6000613197858286016130fa565b92505060206131a8858286016130fa565b9150509250929050565b600080fd5b6000601f19601f8301169050919050565b7f4e487b7100000000000000000000000000000000000000000000000000000000600052604160045260246000fd5b613200826131b7565b810181811067ffffffffffffffff8211171561321f5761321e6131c8565b5b80604052505050565b60006132326130ca565b905061323e82826131f7565b919050565b600073ffffffffffffffffffffffffffffffffffffffff82169050919050565b600061326e82613243565b9050919050565b61327e81613263565b811461328957600080fd5b50565b60008135905061329b81613275565b92915050565b6000606082840312156132b7576132b66131b2565b5b6132c16060613228565b905060006132d1848285016130fa565b60008301525060206132e5848285016130fa565b60208301525060406132f98482850161328c565b60408301525092915050565b60006060828403121561331b5761331a6130d4565b5b6000613329848285016132a1565b91505092915050565b61333b816130d9565b82525050565b60006020820190506133566000830184613332565b92915050565b600080600060608486031215613375576133746130d4565b5b6000613383868287016130fa565b9350506020613394868287016130fa565b92505060406133a5868287016130fa565b9150509250925092565b600f81106133bc57600080fd5b50565b6000813590506133ce816133af565b92915050565b6000602082840312156133ea576133e96130d4565b5b60006133f8848285016133bf565b91505092915050565b60008060006060848603121561341a576134196130d4565b5b6000613428868287016130fa565b9350506020613439868287016130fa565b925050604061344a8682870161328c565b9150509250925092565b61345d8161313c565b811461346857600080fd5b50565b60008135905061347a81613454565b92915050565b6004811061348d57600080fd5b50565b60008135905061349f81613480565b92915050565b60006101a082840312156134bc576134bb6131b2565b5b6134c76101a0613228565b905060006134d78482850161346b565b60008301525060206134eb848285016130fa565b60208301525060406134ff848285016130fa565b6040830152506060613513848285016130fa565b606083015250608061352784828501613490565b60808301525060a061353b848285016130fa565b60a08301525060c061354f848285016130fa565b60c08301525060e0613563848285016130fa565b60e083015250610100613578848285016130fa565b6101008301525061012061358e8482850161346b565b610120830152506101406135a4848285016130fa565b610140830152506101606135ba8482850161346b565b610160830152506101806135d0848285016130fa565b6101808301525092915050565b600581106135ea57600080fd5b50565b6000813590506135fc816135dd565b92915050565b60006101a08284031215613619576136186131b2565b5b6136246101a0613228565b905060006136348482850161328c565b6000830152506020613648848285016130fa565b602083015250604061365c848285016130fa565b6040830152506060613670848285016130fa565b6060830152506080613684848285016130fa565b60808301525060a0613698848285016130fa565b60a08301525060c06136ac848285016130fa565b60c08301525060e06136c0848285016130fa565b60e0830152506101006136d5848285016130fa565b610100830152506101206136eb848285016130fa565b61012083015250610140613701848285016130fa565b61014083015250610160613717848285016135ed565b6101608301525061018061372d8482850161346b565b6101808301525092915050565b60008060006103608486031215613754576137536130d4565b5b6000613762868287016130fa565b9350506020613773868287016134a5565b9250506101c061378586828701613602565b9150509250925092565b6000806000606084860312156137a8576137a76130d4565b5b60006137b6868287016130fa565b93505060206137c78682870161328c565b92505060406137d8868287016133bf565b9150509250925092565b7f4e487b7100000000000000000000000000000000000000000000000000000000600052603260045260246000fd5b61381a816130d9565b82525050565b60006020820190506138356000830184613811565b92915050565b60008151905061384a81613454565b92915050565b60008151905061385f816130e3565b92915050565b6006811061387257600080fd5b50565b60008151905061388481613865565b92915050565b600b811061389757600080fd5b50565b6000815190506138a98161388a565b92915050565b6000815190506138be81613275565b92915050565b6000815190506138d3816133af565b92915050565b60006101a082840312156138f0576138ef6131b2565b5b6138fb6101a0613228565b9050600061390b8482850161383b565b600083015250602061391f84828501613850565b602083015250604061393384828501613850565b604083015250606061394784828501613875565b606083015250608061395b8482850161389a565b60808301525060a061396f84828501613850565b60a08301525060c0613983848285016138af565b60c08301525060e0613997848285016138c4565b60e0830152506101006139ac84828501613850565b610100830152506101206139c284828501613850565b610120830152506101406139d884828501613850565b610140830152506101606139ee84828501613850565b61016083015250610180613a04848285016138af565b6101808301525092915050565b60006101a08284031215613a2857613a276130d4565b5b6000613a36848285016138d9565b91505092915050565b7f4e487b7100000000000000000000000000000000000000000000000000000000600052602160045260246000fd5b7f4e487b7100000000000000000000000000000000000000000000000000000000600052601160045260246000fd5b6000613aa8826130d9565b91507fffffffffffffffffffffffffffffffffffffffffffffffffffffffffffffffff8203613ada57613ad9613a6e565b5b600182019050919050565b600082825260208201905092915050565b7f63616e206f6e6c792077697468647261772066726f6d2074726164696e67207060008201527f6f73747300000000000000000000000000000000000000000000000000000000602082015250565b6000613b52602483613ae5565b9150613b5d82613af6565b604082019050919050565b60006020820190508181036000830152613b8181613b45565b9050919050565b7f706c616e65742069732064657374726f79656400000000000000000000000000600082015250565b6000613bbe601383613ae5565b9150613bc982613b88565b602082019050919050565b60006020820190508181036000830152613bed81613bb1565b9050919050565b7f796f752063616e206f6e6c792077697468647261772066726f6d206120706c6160008201527f6e657420796f75206f776e000000000000000000000000000000000000000000602082015250565b6000613c50602b83613ae5565b9150613c5b82613bf4565b604082019050919050565b60006020820190508181036000830152613c7f81613c43565b9050919050565b6000604082019050613c9b6000830185613332565b613ca86020830184613332565b9392505050565b7f74686973206172746966616374206973206e6f74206f6e207468697320706c6160008201527f6e65740000000000000000000000000000000000000000000000000000000000602082015250565b6000613d0b602383613ae5565b9150613d1682613caf565b604082019050919050565b60006020820190508181036000830152613d3a81613cfe565b9050919050565b7f737061636574696d6520726970206e6f74206869676820656e6f756768206c6560008201527f76656c20746f2077697468647261772074686973206172746966616374000000602082015250565b6000613d9d603d83613ae5565b9150613da882613d41565b604082019050919050565b60006020820190508181036000830152613dcc81613d90565b9050919050565b7f63616e6e6f742077697468647261772073706163657368697073000000000000600082015250565b6000613e09601a83613ae5565b9150613e1482613dd3565b602082019050919050565b60006020820190508181036000830152613e3881613dfc565b9050919050565b613e4881613263565b82525050565b6000604082019050613e636000830185613811565b613e706020830184613e3f565b9392505050565b60048110613e8857613e87613a3f565b5b50565b6000819050613e9982613e77565b919050565b6000613ea982613e8b565b9050919050565b613eb981613e9e565b82525050565b6000604082019050613ed46000830185613eb0565b613ee16020830184613332565b9392505050565b600060208284031215613efe57613efd6130d4565b5b6000613f0c8482850161389a565b91505092915050565b6000819050919050565b613f30613f2b826130d9565b613f15565b82525050565b60008160601b9050919050565b6000613f4e82613f36565b9050919050565b6000613f6082613f43565b9050919050565b613f78613f7382613263565b613f55565b82525050565b6000819050919050565b6000819050919050565b613fa3613f9e82613f7e565b613f88565b82525050565b6000613fb58286613f1f565b602082019150613fc58285613f67565b601482019150613fd58284613f92565b602082019150819050949350505050565b6000613ff1826130d9565b9150613ffc836130d9565b9250827fffffffffffffffffffffffffffffffffffffffffffffffffffffffffffffffff0382111561403157614030613a6e565b5b828201905092915050565b600060208284031215614052576140516130d4565b5b600061406084828501613875565b91505092915050565b614072816130d9565b82525050565b61408181613263565b82525050565b6006811061409857614097613a3f565b5b50565b60008190506140a982614087565b919050565b60006140b98261409b565b9050919050565b6140c9816140ae565b82525050565b600b81106140e0576140df613a3f565b5b50565b60008190506140f1826140cf565b919050565b6000614101826140e3565b9050919050565b614111816140f6565b82525050565b600f811061412857614127613a3f565b5b50565b600081905061413982614117565b919050565b60006141498261412b565b9050919050565b6141598161413e565b82525050565b610100820160008201516141766000850182614069565b5060208201516141896020850182614078565b50604082015161419c6040850182614069565b5060608201516141af60608501826140c0565b5060808201516141c26080850182614108565b5060a08201516141d560a0850182614150565b5060c08201516141e860c0850182614078565b5060e08201516141fb60e0850182614078565b50505050565b600061010082019050614217600083018461415f565b92915050565b600060208284031215614233576142326130d4565b5b60006142418482850161383b565b91505092915050565b7f63616e27742061637469766520616e206172746966616374206f6e206120706c60008201527f616e65742069742773206e6f74206f6e00000000000000000000000000000000602082015250565b60006142a6603083613ae5565b91506142b18261424a565b604082019050919050565b600060208201905081810360008301526142d581614299565b9050919050565b7f63616e206f6e6c79206465706f736974206f6e2074726164696e6720706f737460008201527f7300000000000000000000000000000000000000000000000000000000000000602082015250565b6000614338602183613ae5565b9150614343826142dc565b604082019050919050565b600060208201905081810360008301526143678161432b565b9050919050565b600060208284031215614384576143836130d4565b5b6000614392848285016138af565b91505092915050565b7f796f752063616e206f6e6c79206465706f73697420617274696661637473207960008201527f6f75206f776e0000000000000000000000000000000000000000000000000000602082015250565b60006143f7602683613ae5565b91506144028261439b565b604082019050919050565b60006020820190508181036000830152614426816143ea565b9050919050565b7f796f752063616e206f6e6c79206465706f736974206f6e206120706c616e657460008201527f20796f75206f776e000000000000000000000000000000000000000000000000602082015250565b6000614489602883613ae5565b91506144948261442d565b604082019050919050565b600060208201905081810360008301526144b88161447c565b9050919050565b7f737061636574696d6520726970206e6f74206869676820656e6f756768206c6560008201527f76656c20746f206465706f736974207468697320617274696661637400000000602082015250565b600061451b603c83613ae5565b9150614526826144bf565b604082019050919050565b6000602082019050818103600083015261454a8161450e565b9050919050565b7f63616e6e6f74206465706f736974207370616365736869707300000000000000600082015250565b6000614587601983613ae5565b915061459282614551565b602082019050919050565b600060208201905081810360008301526145b68161457a565b9050919050565b7f746f6f206d616e7920617274696661637473206f6e207468697320706c616e6560008201527f7400000000000000000000000000000000000000000000000000000000000000602082015250565b6000614619602183613ae5565b9150614624826145bd565b604082019050919050565b600060208201905081810360008301526146488161460c565b9050919050565b7f796f75206d757374206f776e2074686520706c616e657420796f75206172652060008201527f646561637469766174696e6720616e206172746966616374206f6e0000000000602082015250565b60006146ab603b83613ae5565b91506146b68261464f565b604082019050919050565b600060208201905081810360008301526146da8161469e565b9050919050565b7f74686973206172746966616374206973206e6f7420616374697661746564206f60008201527f6e207468697320706c616e657400000000000000000000000000000000000000602082015250565b600061473d602d83613ae5565b9150614748826146e1565b604082019050919050565b6000602082019050818103600083015261476c81614730565b9050919050565b60006060820190506147886000830186613e3f565b6147956020830185613811565b6147a26040830184613811565b949350505050565b6147b38161313c565b82525050565b6101a0820160008201516147d060008501826147aa565b5060208201516147e36020850182614069565b5060408201516147f66040850182614069565b50606082015161480960608501826140c0565b50608082015161481c6080850182614108565b5060a082015161482f60a0850182614069565b5060c082015161484260c0850182614078565b5060e082015161485560e0850182614150565b5061010082015161486a610100850182614069565b5061012082015161487f610120850182614069565b50610140820151614894610140850182614069565b506101608201516148a9610160850182614069565b506101808201516148be610180850182614078565b50505050565b60006101a0820190506148da60008301846147b9565b92915050565b6148e98161313c565b82525050565b6148f8816130d9565b82525050565b614907816140ae565b82525050565b614916816140f6565b82525050565b61492581613263565b82525050565b6149348161413e565b82525050565b6101a08201600082015161495160008501826148e0565b50602082015161496460208501826148ef565b50604082015161497760408501826148ef565b50606082015161498a60608501826148fe565b50608082015161499d608085018261490d565b5060a08201516149b060a08501826148ef565b5060c08201516149c360c085018261491c565b5060e08201516149d660e085018261492b565b506101008201516149eb6101008501826148ef565b50610120820151614a006101208501826148ef565b50610140820151614a156101408501826148ef565b50610160820151614a2a6101608501826148ef565b50610180820151614a3f61018085018261491c565b50505050565b60006101a082019050614a5b600083018461493a565b92915050565b600060a08284031215614a7757614a766131b2565b5b614a8160a0613228565b90506000614a9184828501613850565b6000830152506020614aa584828501613850565b6020830152506040614ab984828501613850565b6040830152506060614acd84828501613850565b6060830152506080614ae184828501613850565b60808301525092915050565b600060a08284031215614b0357614b026130d4565b5b6000614b1184828501614a61565b91505092915050565b60a082016000820151614b3060008501826148ef565b506020820151614b4360208501826148ef565b506040820151614b5660408501826148ef565b506060820151614b6960608501826148ef565b506080820151614b7c60808501826148ef565b50505050565b600060c082019050614b976000830185613332565b614ba46020830184614b1a565b9392505050565b7f617274696661637420616c7265616479206d696e7465642066726f6d2074686960008201527f7320706c616e6574000000000000000000000000000000000000000000000000602082015250565b6000614c07602883613ae5565b9150614c1282614bab565b604082019050919050565b60006020820190508181036000830152614c3681614bfa565b9050919050565b7f796f752063616e206f6e6c792066696e6420617274696661637473206f6e207060008201527f6c616e65747320796f75206f776e000000000000000000000000000000000000602082015250565b6000614c99602e83613ae5565b9150614ca482614c3d565b604082019050919050565b60006020820190508181036000830152614cc881614c8c565b9050919050565b7f706c616e6574206e657665722070726f73706563746564000000000000000000600082015250565b6000614d05601783613ae5565b9150614d1082614ccf565b602082019050919050565b60006020820190508181036000830152614d3481614cf8565b9050919050565b7f63616e206f6e6c792063616c6c2066696e64417274696661637420616674657260008201527f2070726f73706563746564426c6f636b4e756d62657200000000000000000000602082015250565b6000614d97603683613ae5565b9150614da282614d3b565b604082019050919050565b60006020820190508181036000830152614dc681614d8a565b9050919050565b7f696e76616c69642070726f73706563746564426c6f636b4e756d626572000000600082015250565b6000614e03601d83613ae5565b9150614e0e82614dcd565b602082019050919050565b60006020820190508181036000830152614e3281614df6565b9050919050565b6000614e44826130d9565b9150614e4f836130d9565b925082821015614e6257614e61613a6e565b5b828203905092915050565b7f706c616e65742070726f73706563742065787069726564000000000000000000600082015250565b6000614ea3601783613ae5565b9150614eae82614e6d565b602082019050919050565b60006020820190508181036000830152614ed281614e96565b9050919050565b7f676561722073686970206d7573742062652070726573656e74206f6e20706c6160008201527f6e65740000000000000000000000000000000000000000000000000000000000602082015250565b6000614f35602383613ae5565b9150614f4082614ed9565b604082019050919050565b60006020820190508181036000830152614f6481614f28565b9050919050565b7f796f752063616e27742066696e6420616e206172746966616374206f6e20746860008201527f697320706c616e65740000000000000000000000000000000000000000000000602082015250565b6000614fc7602983613ae5565b9150614fd282614f6b565b604082019050919050565b60006020820190508181036000830152614ff681614fba565b9050919050565b7f796f75206d757374206f776e207468697320706c616e65740000000000000000600082015250565b6000615033601883613ae5565b915061503e82614ffd565b602082019050919050565b6000602082019050818103600083015261506281615026565b9050919050565b7f7468697320706c616e65742068617320616c7265616479206265656e2070726f60008201527f7370656374656400000000000000000000000000000000000000000000000000602082015250565b60006150c5602783613ae5565b91506150d082615069565b604082019050919050565b600060208201905081810360008301526150f4816150b8565b9050919050565b60006151078285613f1f565b6020820191506151178284613f1f565b6020820191508190509392505050565b7f4e487b7100000000000000000000000000000000000000000000000000000000600052601260045260246000fd5b6000615161826130d9565b915061516c836130d9565b92508261517c5761517b615127565b5b828206905092915050565b6000615192826130d9565b915061519d836130d9565b9250826151ad576151ac615127565b5b828204905092915050565b7f6372657363656e742063616e6e6f7420626520616374697661746564206d6f7260008201527f65207468616e206f6e6365000000000000000000000000000000000000000000602082015250565b6000615214602b83613ae5565b915061521f826151b8565b604082019050919050565b6000602082019050818103600083015261524381615207565b9050919050565b7f63616e6e6f74207475726e20612073696c766572206d696e6520696e746f206160008201527f2073696c766572206d696e650000000000000000000000000000000000000000602082015250565b60006152a6602c83613ae5565b91506152b18261524a565b604082019050919050565b600060208201905081810360008301526152d581615299565b9050919050565b7f63616e206f6e6c79206163746976617465206372657363656e74206f6e20756e60008201527f6f776e656420706c616e65747300000000000000000000000000000000000000602082015250565b6000615338602d83613ae5565b9150615343826152dc565b604082019050919050565b600060208201905081810360008301526153678161532b565b9050919050565b7f706c616e6574206c6576656c206d757374206265206d6f7265207468616e206f60008201527f6e65000000000000000000000000000000000000000000000000000000000000602082015250565b60006153ca602283613ae5565b91506153d58261536e565b604082019050919050565b600060208201905081810360008301526153f9816153bd565b9050919050565b6005811061541157615410613a3f565b5b50565b600081905061542282615400565b919050565b600061543282615414565b9050919050565b61544281615427565b82525050565b600060a08201905061545d6000830188613332565b61546a6020830187613332565b6154776040830186615439565b6154846060830185613eb0565b6154916080830184613332565b9695505050505050565b6000815190506154aa816135dd565b92915050565b60006101a082840312156154c7576154c66131b2565b5b6154d26101a0613228565b905060006154e2848285016138af565b60008301525060206154f684828501613850565b602083015250604061550a84828501613850565b604083015250606061551e84828501613850565b606083015250608061553284828501613850565b60808301525060a061554684828501613850565b60a08301525060c061555a84828501613850565b60c08301525060e061556e84828501613850565b60e08301525061010061558384828501613850565b6101008301525061012061559984828501613850565b610120830152506101406155af84828501613850565b610140830152506101606155c58482850161549b565b610160830152506101806155db8482850161383b565b6101808301525092915050565b60006101a082840312156155ff576155fe6130d4565b5b600061560d848285016154b0565b91505092915050565b7f796f75206d757374206f776e2074686520706c616e657420796f75206172652060008201527f61637469766174696e6720616e206172746966616374206f6e00000000000000602082015250565b6000615672603983613ae5565b915061567d82615616565b604082019050919050565b600060208201905081810360008301526156a181615665565b9050919050565b7f746865726520697320616c726561647920616e2061637469766520617274696660008201527f616374206f6e207468697320706c616e65740000000000000000000000000000602082015250565b6000615704603283613ae5565b915061570f826156a8565b604082019050919050565b60006020820190508181036000830152615733816156f7565b9050919050565b6000615745826130d9565b9150615750836130d9565b9250817fffffffffffffffffffffffffffffffffffffffffffffffffffffffffffffffff048311821515161561578957615788613a6e565b5b828202905092915050565b7f74686973206172746966616374206973206f6e206120636f6f6c646f776e0000600082015250565b60006157ca601e83613ae5565b91506157d582615794565b602082019050919050565b600060208201905081810360008301526157f9816157bd565b9050919050565b7f796f75206d7573742070726f76696465206120776f726d686f6c65546f20746f60008201527f206163746976617465206120776f726d686f6c65000000000000000000000000602082015250565b600061585c603483613ae5565b915061586782615800565b604082019050919050565b6000602082019050818103600083015261588b8161584f565b9050919050565b7f796f752063616e206f6e6c7920637265617465206120776f726d686f6c65207460008201527f6f206120706c616e657420796f75206f776e0000000000000000000000000000602082015250565b60006158ee603283613ae5565b91506158f982615892565b604082019050919050565b6000602082019050818103600083015261591d816158e1565b9050919050565b7f706c616e65742064657374726f79656400000000000000000000000000000000600082015250565b600061595a601083613ae5565b915061596582615924565b602082019050919050565b600060208201905081810360008301526159898161594d565b9050919050565b7f6172746966616374206973206e6f7420706f77657266756c20656e6f7567682060008201527f746f206170706c792065666665637420746f207468697320706c616e6574206c60208201527f6576656c00000000000000000000000000000000000000000000000000000000604082015250565b6000615a12604483613ae5565b9150615a1d82615990565b606082019050919050565b60006020820190508181036000830152615a4181615a05565b905091905056fea2646970667358221220ab96572eb3b4d595e996fce366df6720b75cb63b300c0b420a18fd369103420e64736f6c634300080d0033",
  "immutableReferences": {},
  "source": "// SPDX-License-Identifier: GPL-3.0\npragma solidity ^0.8.0;\n\n// External contract imports\nimport {DFArtifactFacet} from \"../facets/DFArtifactFacet.sol\";\n\n// Library imports\nimport {LibGameUtils} from \"./LibGameUtils.sol\";\n\n// Storage imports\nimport {LibStorage, GameStorage, GameConstants} from \"./LibStorage.sol\";\n\n// Type imports\nimport {\n    Biome,\n    Planet,\n    PlanetExtendedInfo,\n    PlanetType,\n    Artifact,\n    ArtifactType,\n    ArtifactRarity,\n    DFPFindArtifactArgs,\n    DFTCreateArtifactArgs\n} from \"../DFTypes.sol\";\n\nlibrary LibArtifactUtils {\n    function gs() internal pure returns (GameStorage storage) {\n        return LibStorage.gameStorage();\n    }\n\n    function gameConstants() internal pure returns (GameConstants storage) {\n        return LibStorage.gameConstants();\n    }\n\n    // also need to copy some of DFCore's event signatures\n    event ArtifactActivated(address player, uint256 artifactId, uint256 loc);\n    event ArtifactDeactivated(address player, uint256 artifactId, uint256 loc);\n    event PlanetUpgraded(address player, uint256 loc, uint256 branch, uint256 toBranchLevel);\n\n    // verifies that user is allowed to call findArtifact on this planet\n    function checkFindArtifact(\n        uint256 locationId,\n        PlanetExtendedInfo memory info,\n        Planet memory planet\n    ) public view returns (bool) {\n        require(!info.hasTriedFindingArtifact, \"artifact already minted from this planet\");\n        require(planet.owner == msg.sender, \"you can only find artifacts on planets you own\");\n        require(info.prospectedBlockNumber != 0, \"planet never prospected\");\n        require(\n            info.prospectedBlockNumber < block.number,\n            \"can only call findArtifact after prospectedBlockNumber\"\n        );\n        require(block.number > info.prospectedBlockNumber, \"invalid prospectedBlockNumber\");\n        require(block.number - info.prospectedBlockNumber < 256, \"planet prospect expired\");\n        require(!info.destroyed, \"planet is destroyed\");\n        require(containsGear(locationId), \"gear ship must be present on planet\");\n        return true;\n    }\n\n    /**\n     * Create a new spaceship and place it on a planet owned by the given player. Returns the id\n     * of the newly created spaceship.\n     */\n    function createAndPlaceSpaceship(\n        uint256 planetId,\n        address owner,\n        ArtifactType shipType\n    ) public returns (uint256) {\n        require(shipType <= ArtifactType.ShipTitan && shipType >= ArtifactType.ShipMothership);\n\n        uint256 id = uint256(keccak256(abi.encodePacked(planetId, gs().miscNonce++)));\n\n        DFTCreateArtifactArgs memory createArtifactArgs =\n            DFTCreateArtifactArgs(\n                id,\n                msg.sender,\n                planetId,\n                ArtifactRarity.Unknown,\n                Biome.Unknown,\n                shipType,\n                address(this),\n                owner\n            );\n\n        Artifact memory foundArtifact =\n            DFArtifactFacet(address(this)).createArtifact(createArtifactArgs);\n        LibGameUtils._putArtifactOnPlanet(foundArtifact.id, planetId);\n\n        return id;\n    }\n\n    function findArtifact(DFPFindArtifactArgs memory args) public returns (uint256 artifactId) {\n        Planet storage planet = gs().planets[args.planetId];\n        PlanetExtendedInfo storage info = gs().planetsExtendedInfo[args.planetId];\n\n        require(checkFindArtifact(args.planetId, info, planet));\n\n        Biome biome = LibGameUtils._getBiome(info.spaceType, args.biomebase);\n\n        uint256 artifactSeed =\n            uint256(\n                keccak256(\n                    abi.encodePacked(\n                        args.planetId,\n                        args.coreAddress,\n                        blockhash(info.prospectedBlockNumber)\n                    )\n                )\n            );\n\n        (ArtifactType artifactType, uint256 levelBonus) =\n            LibGameUtils._randomArtifactTypeAndLevelBonus(artifactSeed, biome, info.spaceType);\n\n        DFTCreateArtifactArgs memory createArtifactArgs =\n            DFTCreateArtifactArgs(\n                artifactSeed,\n                msg.sender,\n                args.planetId,\n                LibGameUtils.artifactRarityFromPlanetLevel(levelBonus + planet.planetLevel),\n                biome,\n                artifactType,\n                args.coreAddress,\n                address(0)\n            );\n\n        Artifact memory foundArtifact =\n            DFArtifactFacet(address(this)).createArtifact(createArtifactArgs);\n\n        LibGameUtils._putArtifactOnPlanet(foundArtifact.id, args.planetId);\n\n        info.hasTriedFindingArtifact = true;\n        gs().players[msg.sender].score += gameConstants().ARTIFACT_POINT_VALUES[\n            uint256(foundArtifact.rarity)\n        ];\n\n        artifactId = foundArtifact.id;\n    }\n\n    function activateArtifact(\n        uint256 locationId,\n        uint256 artifactId,\n        uint256 wormholeTo\n    ) public {\n        Planet storage planet = gs().planets[locationId];\n        Artifact storage artifact = gs().artifacts[artifactId];\n\n        require(\n            LibGameUtils.isArtifactOnPlanet(locationId, artifactId),\n            \"can't active an artifact on a planet it's not on\"\n        );\n\n        if (isSpaceship(artifact.artifactType)) {\n            activateSpaceshipArtifact(locationId, artifactId, planet, artifact);\n        } else {\n            activateNonSpaceshipArtifact(locationId, artifactId, wormholeTo, planet, artifact);\n        }\n\n        artifact.activations++;\n    }\n\n    function activateSpaceshipArtifact(\n        uint256 locationId,\n        uint256 artifactId,\n        Planet storage planet,\n        Artifact storage artifact\n    ) private {\n        PlanetExtendedInfo storage extendedInfo = gs().planetsExtendedInfo[locationId];\n\n        if (artifact.artifactType == ArtifactType.ShipCrescent) {\n            require(artifact.activations == 0, \"crescent cannot be activated more than once\");\n\n            require(\n                planet.planetType != PlanetType.SILVER_MINE,\n                \"cannot turn a silver mine into a silver mine\"\n            );\n\n            require(planet.owner == address(0), \"can only activate crescent on unowned planets\");\n            require(planet.planetLevel >= 1, \"planet level must be more than one\");\n\n            artifact.lastActivated = block.timestamp;\n            artifact.lastDeactivated = block.timestamp;\n\n            if (planet.silver == 0) {\n                planet.silver = 1;\n                Planet memory defaultPlanet =\n                    LibGameUtils._defaultPlanet(\n                        locationId,\n                        planet.planetLevel,\n                        PlanetType.SILVER_MINE,\n                        extendedInfo.spaceType,\n                        gameConstants().TIME_FACTOR_HUNDREDTHS\n                    );\n\n                planet.silverGrowth = defaultPlanet.silverGrowth;\n            }\n\n            planet.planetType = PlanetType.SILVER_MINE;\n            emit ArtifactActivated(msg.sender, artifactId, locationId);\n        }\n    }\n\n    function activateNonSpaceshipArtifact(\n        uint256 locationId,\n        uint256 artifactId,\n        uint256 wormholeTo,\n        Planet storage planet,\n        Artifact memory artifact\n    ) private {\n        PlanetExtendedInfo storage info = gs().planetsExtendedInfo[locationId];\n\n        require(\n            planet.owner == msg.sender,\n            \"you must own the planet you are activating an artifact on\"\n        );\n        require(\n            !LibGameUtils.getActiveArtifact(locationId).isInitialized,\n            \"there is already an active artifact on this planet\"\n        );\n        require(!info.destroyed, \"planet is destroyed\");\n\n        require(artifact.isInitialized, \"this artifact is not on this planet\");\n\n        // Unknown is the 0th one, Monolith is the 1st, and so on.\n        // TODO v0.6: consider photoid canon\n        uint256[10] memory artifactCooldownsHours = [uint256(24), 0, 0, 0, 0, 4, 4, 24, 24, 24];\n\n        require(\n            artifact.lastDeactivated +\n                artifactCooldownsHours[uint256(artifact.artifactType)] *\n                60 *\n                60 <\n                block.timestamp,\n            \"this artifact is on a cooldown\"\n        );\n\n        bool shouldDeactivateAndBurn = false;\n\n        artifact.lastActivated = block.timestamp;\n        emit ArtifactActivated(msg.sender, artifactId, locationId);\n\n        if (artifact.artifactType == ArtifactType.Wormhole) {\n            require(wormholeTo != 0, \"you must provide a wormholeTo to activate a wormhole\");\n            require(\n                gs().planets[wormholeTo].owner == msg.sender,\n                \"you can only create a wormhole to a planet you own\"\n            );\n            require(!gs().planetsExtendedInfo[wormholeTo].destroyed, \"planet destroyed\");\n            artifact.wormholeTo = wormholeTo;\n        } else if (artifact.artifactType == ArtifactType.BloomFilter) {\n            require(\n                2 * uint256(artifact.rarity) >= planet.planetLevel,\n                \"artifact is not powerful enough to apply effect to this planet level\"\n            );\n            planet.population = planet.populationCap;\n            planet.silver = planet.silverCap;\n            shouldDeactivateAndBurn = true;\n        } else if (artifact.artifactType == ArtifactType.BlackDomain) {\n            require(\n                2 * uint256(artifact.rarity) >= planet.planetLevel,\n                \"artifact is not powerful enough to apply effect to this planet level\"\n            );\n            info.destroyed = true;\n            shouldDeactivateAndBurn = true;\n        }\n\n        if (shouldDeactivateAndBurn) {\n            artifact.lastDeactivated = block.timestamp; // immediately deactivate\n            DFArtifactFacet(address(this)).updateArtifact(artifact); // save artifact state immediately, because _takeArtifactOffPlanet will access pull it from tokens contract\n            emit ArtifactDeactivated(msg.sender, artifactId, locationId);\n            // burn it after use. will be owned by contract but not on a planet anyone can control\n            LibGameUtils._takeArtifactOffPlanet(artifactId, locationId);\n        } else {\n            DFArtifactFacet(address(this)).updateArtifact(artifact);\n        }\n\n        // this is fine even tho some artifacts are immediately deactivated, because\n        // those artifacts do not buff the planet.\n        LibGameUtils._buffPlanet(locationId, LibGameUtils._getUpgradeForArtifact(artifact));\n    }\n\n    function deactivateArtifact(uint256 locationId) public {\n        Planet storage planet = gs().planets[locationId];\n\n        require(\n            planet.owner == msg.sender,\n            \"you must own the planet you are deactivating an artifact on\"\n        );\n\n        require(!gs().planetsExtendedInfo[locationId].destroyed, \"planet is destroyed\");\n\n        Artifact memory artifact = LibGameUtils.getActiveArtifact(locationId);\n\n        require(artifact.isInitialized, \"this artifact is not activated on this planet\");\n\n        artifact.lastDeactivated = block.timestamp;\n        artifact.wormholeTo = 0;\n        emit ArtifactDeactivated(msg.sender, artifact.id, locationId);\n        DFArtifactFacet(address(this)).updateArtifact(artifact);\n\n        bool shouldBurn =\n            artifact.artifactType == ArtifactType.PlanetaryShield ||\n                artifact.artifactType == ArtifactType.PhotoidCannon;\n        if (shouldBurn) {\n            // burn it after use. will be owned by contract but not on a planet anyone can control\n            LibGameUtils._takeArtifactOffPlanet(artifact.id, locationId);\n        }\n\n        LibGameUtils._debuffPlanet(locationId, LibGameUtils._getUpgradeForArtifact(artifact));\n    }\n\n    function depositArtifact(\n        uint256 locationId,\n        uint256 artifactId,\n        address coreAddress\n    ) public {\n        Planet storage planet = gs().planets[locationId];\n\n        require(!gs().planetsExtendedInfo[locationId].destroyed, \"planet is destroyed\");\n        require(planet.planetType == PlanetType.TRADING_POST, \"can only deposit on trading posts\");\n        require(\n            DFArtifactFacet(address(this)).ownerOf(artifactId) == msg.sender,\n            \"you can only deposit artifacts you own\"\n        );\n        require(planet.owner == msg.sender, \"you can only deposit on a planet you own\");\n\n        Artifact memory artifact = DFArtifactFacet(address(this)).getArtifact(artifactId);\n        require(\n            planet.planetLevel > uint256(artifact.rarity),\n            \"spacetime rip not high enough level to deposit this artifact\"\n        );\n        require(!isSpaceship(artifact.artifactType), \"cannot deposit spaceships\");\n\n        require(gs().planetArtifacts[locationId].length < 5, \"too many artifacts on this planet\");\n\n        LibGameUtils._putArtifactOnPlanet(artifactId, locationId);\n\n        DFArtifactFacet(address(this)).transferArtifact(artifactId, coreAddress);\n    }\n\n    function withdrawArtifact(uint256 locationId, uint256 artifactId) public {\n        Planet storage planet = gs().planets[locationId];\n\n        require(\n            planet.planetType == PlanetType.TRADING_POST,\n            \"can only withdraw from trading posts\"\n        );\n        require(!gs().planetsExtendedInfo[locationId].destroyed, \"planet is destroyed\");\n        require(planet.owner == msg.sender, \"you can only withdraw from a planet you own\");\n        Artifact memory artifact = LibGameUtils.getPlanetArtifact(locationId, artifactId);\n        require(artifact.isInitialized, \"this artifact is not on this planet\");\n\n        require(\n            planet.planetLevel > uint256(artifact.rarity),\n            \"spacetime rip not high enough level to withdraw this artifact\"\n        );\n        require(!isSpaceship(artifact.artifactType), \"cannot withdraw spaceships\");\n        LibGameUtils._takeArtifactOffPlanet(artifactId, locationId);\n\n        DFArtifactFacet(address(this)).transferArtifact(artifactId, msg.sender);\n    }\n\n    function prospectPlanet(uint256 locationId) public {\n        Planet storage planet = gs().planets[locationId];\n        PlanetExtendedInfo storage planetInfo = gs().planetsExtendedInfo[locationId];\n\n        require(!planetInfo.destroyed, \"planet is destroyed\");\n        require(planet.planetType == PlanetType.RUINS, \"you can't find an artifact on this planet\");\n        require(containsGear(locationId), \"gear ship must be present on planet\");\n        require(planet.owner == msg.sender, \"you must own this planet\");\n        require(planetInfo.prospectedBlockNumber == 0, \"this planet has already been prospected\");\n\n        planetInfo.prospectedBlockNumber = block.number;\n    }\n\n    function containsGear(uint256 locationId) public view returns (bool) {\n        uint256[] memory artifactIds = gs().planetArtifacts[locationId];\n\n        for (uint256 i = 0; i < artifactIds.length; i++) {\n            Artifact memory artifact = DFArtifactFacet(address(this)).getArtifact(artifactIds[i]);\n            if (\n                artifact.artifactType == ArtifactType.ShipGear && msg.sender == artifact.controller\n            ) {\n                return true;\n            }\n        }\n\n        return false;\n    }\n\n    function isSpaceship(ArtifactType artifactType) public pure returns (bool) {\n        return\n            artifactType >= ArtifactType.ShipMothership && artifactType <= ArtifactType.ShipTitan;\n    }\n}\n",
  "sourcePath": "/home/terra/opensource/tosca-chain/smart-contract-example/contracts/libraries/LibArtifactUtils.sol",
  "compiler": {
    "name": "solc",
    "version": "0.8.13+commit.abaa5c0e.Emscripten.clang"
  },
  "schemaVersion": "3.4.7",
  "updatedAt": "2022-04-30T15:27:25.854Z",
  "devdoc": {
    "kind": "dev",
    "methods": {},
    "version": 1
  },
  "userdoc": {
    "kind": "user",
    "methods": {
      "createAndPlaceSpaceship(uint256,address,ArtifactType)": {
        "notice": "Create a new spaceship and place it on a planet owned by the given player. Returns the id of the newly created spaceship."
      }
    },
    "version": 1
  }
}