{
  "contractName": "LibGameUtils",
  "abi": [
    {
      "inputs": [
        {
          "internalType": "bytes",
          "name": "_b",
          "type": "bytes"
        },
        {
          "internalType": "uint256",
          "name": "_startByte",
          "type": "uint256"
        },
        {
          "internalType": "uint256",
          "name": "_endByte",
          "type": "uint256"
        }
      ],
      "name": "_calculateByteUInt",
      "outputs": [
        {
          "internalType": "uint256",
          "name": "_byteUInt",
          "type": "uint256"
        }
      ],
      "stateMutability": "pure",
      "type": "function"
    },
    {
      "inputs": [
        {
          "internalType": "uint256",
          "name": "_loc",
          "type": "uint256"
        }
      ],
      "name": "_locationIdValid",
      "outputs": [
        {
          "internalType": "bool",
          "name": "",
          "type": "bool"
        }
      ],
      "stateMutability": "view",
      "type": "function"
    },
    {
      "inputs": [
        {
          "internalType": "uint256[5]",
          "name": "perlinFlags",
          "type": "uint256[5]"
        },
        {
          "internalType": "bool",
          "name": "checkingBiome",
          "type": "bool"
        }
      ],
      "name": "revertIfBadSnarkPerlinFlags",
      "outputs": [
        {
          "internalType": "bool",
          "name": "",
          "type": "bool"
        }
      ],
      "stateMutability": "view",
      "type": "function"
    },
    {
      "inputs": [
        {
          "internalType": "uint256",
          "name": "perlin",
          "type": "uint256"
        }
      ],
      "name": "spaceTypeFromPerlin",
      "outputs": [
        {
          "internalType": "enum SpaceType",
          "name": "",
          "type": "SpaceType"
        }
      ],
      "stateMutability": "view",
      "type": "function"
    },
    {
      "inputs": [
        {
          "internalType": "uint256",
          "name": "_location",
          "type": "uint256"
        },
        {
          "internalType": "uint256",
          "name": "_perlin",
          "type": "uint256"
        }
      ],
      "name": "_getPlanetLevelTypeAndSpaceType",
      "outputs": [
        {
          "internalType": "uint256",
          "name": "",
          "type": "uint256"
        },
        {
          "internalType": "enum PlanetType",
          "name": "",
          "type": "PlanetType"
        },
        {
          "internalType": "enum SpaceType",
          "name": "",
          "type": "SpaceType"
        }
      ],
      "stateMutability": "view",
      "type": "function"
    },
    {
      "inputs": [],
      "name": "_getRadius",
      "outputs": [
        {
          "internalType": "uint256",
          "name": "",
          "type": "uint256"
        }
      ],
      "stateMutability": "view",
      "type": "function"
    },
    {
      "inputs": [
        {
          "internalType": "enum SpaceType",
          "name": "spaceType",
          "type": "SpaceType"
        },
        {
          "internalType": "uint256",
          "name": "biomebase",
          "type": "uint256"
        }
      ],
      "name": "_getBiome",
      "outputs": [
        {
          "internalType": "enum Biome",
          "name": "",
          "type": "Biome"
        }
      ],
      "stateMutability": "view",
      "type": "function"
    },
    {
      "inputs": [],
      "name": "defaultUpgrade",
      "outputs": [
        {
          "components": [
            {
              "internalType": "uint256",
              "name": "popCapMultiplier",
              "type": "uint256"
            },
            {
              "internalType": "uint256",
              "name": "popGroMultiplier",
              "type": "uint256"
            },
            {
              "internalType": "uint256",
              "name": "rangeMultiplier",
              "type": "uint256"
            },
            {
              "internalType": "uint256",
              "name": "speedMultiplier",
              "type": "uint256"
            },
            {
              "internalType": "uint256",
              "name": "defMultiplier",
              "type": "uint256"
            }
          ],
          "internalType": "struct Upgrade",
          "name": "",
          "type": "tuple"
        }
      ],
      "stateMutability": "pure",
      "type": "function"
    },
    {
      "inputs": [
        {
          "components": [
            {
              "internalType": "bool",
              "name": "isInitialized",
              "type": "bool"
            },
            {
              "internalType": "uint256",
              "name": "id",
              "type": "uint256"
            },
            {
              "internalType": "uint256",
              "name": "planetDiscoveredOn",
              "type": "uint256"
            },
            {
              "internalType": "enum ArtifactRarity",
              "name": "rarity",
              "type": "ArtifactRarity"
            },
            {
              "internalType": "enum Biome",
              "name": "planetBiome",
              "type": "Biome"
            },
            {
              "internalType": "uint256",
              "name": "mintedAtTimestamp",
              "type": "uint256"
            },
            {
              "internalType": "address",
              "name": "discoverer",
              "type": "address"
            },
            {
              "internalType": "enum ArtifactType",
              "name": "artifactType",
              "type": "ArtifactType"
            },
            {
              "internalType": "uint256",
              "name": "activations",
              "type": "uint256"
            },
            {
              "internalType": "uint256",
              "name": "lastActivated",
              "type": "uint256"
            },
            {
              "internalType": "uint256",
              "name": "lastDeactivated",
              "type": "uint256"
            },
            {
              "internalType": "uint256",
              "name": "wormholeTo",
              "type": "uint256"
            },
            {
              "internalType": "address",
              "name": "controller",
              "type": "address"
            }
          ],
          "internalType": "struct Artifact",
          "name": "artifact",
          "type": "tuple"
        }
      ],
      "name": "timeDelayUpgrade",
      "outputs": [
        {
          "components": [
            {
              "internalType": "uint256",
              "name": "popCapMultiplier",
              "type": "uint256"
            },
            {
              "internalType": "uint256",
              "name": "popGroMultiplier",
              "type": "uint256"
            },
            {
              "internalType": "uint256",
              "name": "rangeMultiplier",
              "type": "uint256"
            },
            {
              "internalType": "uint256",
              "name": "speedMultiplier",
              "type": "uint256"
            },
            {
              "internalType": "uint256",
              "name": "defMultiplier",
              "type": "uint256"
            }
          ],
          "internalType": "struct Upgrade",
          "name": "",
          "type": "tuple"
        }
      ],
      "stateMutability": "pure",
      "type": "function"
    },
    {
      "inputs": [],
      "name": "abandoningUpgrade",
      "outputs": [
        {
          "components": [
            {
              "internalType": "uint256",
              "name": "popCapMultiplier",
              "type": "uint256"
            },
            {
              "internalType": "uint256",
              "name": "popGroMultiplier",
              "type": "uint256"
            },
            {
              "internalType": "uint256",
              "name": "rangeMultiplier",
              "type": "uint256"
            },
            {
              "internalType": "uint256",
              "name": "speedMultiplier",
              "type": "uint256"
            },
            {
              "internalType": "uint256",
              "name": "defMultiplier",
              "type": "uint256"
            }
          ],
          "internalType": "struct Upgrade",
          "name": "",
          "type": "tuple"
        }
      ],
      "stateMutability": "view",
      "type": "function"
    },
    {
      "inputs": [
        {
          "components": [
            {
              "internalType": "bool",
              "name": "isInitialized",
              "type": "bool"
            },
            {
              "internalType": "uint256",
              "name": "id",
              "type": "uint256"
            },
            {
              "internalType": "uint256",
              "name": "planetDiscoveredOn",
              "type": "uint256"
            },
            {
              "internalType": "enum ArtifactRarity",
              "name": "rarity",
              "type": "ArtifactRarity"
            },
            {
              "internalType": "enum Biome",
              "name": "planetBiome",
              "type": "Biome"
            },
            {
              "internalType": "uint256",
              "name": "mintedAtTimestamp",
              "type": "uint256"
            },
            {
              "internalType": "address",
              "name": "discoverer",
              "type": "address"
            },
            {
              "internalType": "enum ArtifactType",
              "name": "artifactType",
              "type": "ArtifactType"
            },
            {
              "internalType": "uint256",
              "name": "activations",
              "type": "uint256"
            },
            {
              "internalType": "uint256",
              "name": "lastActivated",
              "type": "uint256"
            },
            {
              "internalType": "uint256",
              "name": "lastDeactivated",
              "type": "uint256"
            },
            {
              "internalType": "uint256",
              "name": "wormholeTo",
              "type": "uint256"
            },
            {
              "internalType": "address",
              "name": "controller",
              "type": "address"
            }
          ],
          "internalType": "struct Artifact",
          "name": "artifact",
          "type": "tuple"
        }
      ],
      "name": "_getUpgradeForArtifact",
      "outputs": [
        {
          "components": [
            {
              "internalType": "uint256",
              "name": "popCapMultiplier",
              "type": "uint256"
            },
            {
              "internalType": "uint256",
              "name": "popGroMultiplier",
              "type": "uint256"
            },
            {
              "internalType": "uint256",
              "name": "rangeMultiplier",
              "type": "uint256"
            },
            {
              "internalType": "uint256",
              "name": "speedMultiplier",
              "type": "uint256"
            },
            {
              "internalType": "uint256",
              "name": "defMultiplier",
              "type": "uint256"
            }
          ],
          "internalType": "struct Upgrade",
          "name": "",
          "type": "tuple"
        }
      ],
      "stateMutability": "pure",
      "type": "function"
    },
    {
      "inputs": [
        {
          "internalType": "uint256",
          "name": "planetLevel",
          "type": "uint256"
        }
      ],
      "name": "artifactRarityFromPlanetLevel",
      "outputs": [
        {
          "internalType": "enum ArtifactRarity",
          "name": "",
          "type": "ArtifactRarity"
        }
      ],
      "stateMutability": "pure",
      "type": "function"
    },
    {
      "inputs": [
        {
          "components": [
            {
              "internalType": "bool",
              "name": "isInitialized",
              "type": "bool"
            },
            {
              "internalType": "uint256",
              "name": "id",
              "type": "uint256"
            },
            {
              "internalType": "uint256",
              "name": "planetDiscoveredOn",
              "type": "uint256"
            },
            {
              "internalType": "enum ArtifactRarity",
              "name": "rarity",
              "type": "ArtifactRarity"
            },
            {
              "internalType": "enum Biome",
              "name": "planetBiome",
              "type": "Biome"
            },
            {
              "internalType": "uint256",
              "name": "mintedAtTimestamp",
              "type": "uint256"
            },
            {
              "internalType": "address",
              "name": "discoverer",
              "type": "address"
            },
            {
              "internalType": "enum ArtifactType",
              "name": "artifactType",
              "type": "ArtifactType"
            },
            {
              "internalType": "uint256",
              "name": "activations",
              "type": "uint256"
            },
            {
              "internalType": "uint256",
              "name": "lastActivated",
              "type": "uint256"
            },
            {
              "internalType": "uint256",
              "name": "lastDeactivated",
              "type": "uint256"
            },
            {
              "internalType": "uint256",
              "name": "wormholeTo",
              "type": "uint256"
            },
            {
              "internalType": "address",
              "name": "controller",
              "type": "address"
            }
          ],
          "internalType": "struct Artifact",
          "name": "artifact",
          "type": "tuple"
        }
      ],
      "name": "isActivated",
      "outputs": [
        {
          "internalType": "bool",
          "name": "",
          "type": "bool"
        }
      ],
      "stateMutability": "pure",
      "type": "function"
    },
    {
      "inputs": [
        {
          "internalType": "uint256",
          "name": "locationId",
          "type": "uint256"
        },
        {
          "internalType": "uint256",
          "name": "artifactId",
          "type": "uint256"
        }
      ],
      "name": "getPlanetArtifact",
      "outputs": [
        {
          "components": [
            {
              "internalType": "bool",
              "name": "isInitialized",
              "type": "bool"
            },
            {
              "internalType": "uint256",
              "name": "id",
              "type": "uint256"
            },
            {
              "internalType": "uint256",
              "name": "planetDiscoveredOn",
              "type": "uint256"
            },
            {
              "internalType": "enum ArtifactRarity",
              "name": "rarity",
              "type": "ArtifactRarity"
            },
            {
              "internalType": "enum Biome",
              "name": "planetBiome",
              "type": "Biome"
            },
            {
              "internalType": "uint256",
              "name": "mintedAtTimestamp",
              "type": "uint256"
            },
            {
              "internalType": "address",
              "name": "discoverer",
              "type": "address"
            },
            {
              "internalType": "enum ArtifactType",
              "name": "artifactType",
              "type": "ArtifactType"
            },
            {
              "internalType": "uint256",
              "name": "activations",
              "type": "uint256"
            },
            {
              "internalType": "uint256",
              "name": "lastActivated",
              "type": "uint256"
            },
            {
              "internalType": "uint256",
              "name": "lastDeactivated",
              "type": "uint256"
            },
            {
              "internalType": "uint256",
              "name": "wormholeTo",
              "type": "uint256"
            },
            {
              "internalType": "address",
              "name": "controller",
              "type": "address"
            }
          ],
          "internalType": "struct Artifact",
          "name": "",
          "type": "tuple"
        }
      ],
      "stateMutability": "view",
      "type": "function"
    },
    {
      "inputs": [
        {
          "internalType": "uint256",
          "name": "locationId",
          "type": "uint256"
        }
      ],
      "name": "getActiveArtifact",
      "outputs": [
        {
          "components": [
            {
              "internalType": "bool",
              "name": "isInitialized",
              "type": "bool"
            },
            {
              "internalType": "uint256",
              "name": "id",
              "type": "uint256"
            },
            {
              "internalType": "uint256",
              "name": "planetDiscoveredOn",
              "type": "uint256"
            },
            {
              "internalType": "enum ArtifactRarity",
              "name": "rarity",
              "type": "ArtifactRarity"
            },
            {
              "internalType": "enum Biome",
              "name": "planetBiome",
              "type": "Biome"
            },
            {
              "internalType": "uint256",
              "name": "mintedAtTimestamp",
              "type": "uint256"
            },
            {
              "internalType": "address",
              "name": "discoverer",
              "type": "address"
            },
            {
              "internalType": "enum ArtifactType",
              "name": "artifactType",
              "type": "ArtifactType"
            },
            {
              "internalType": "uint256",
              "name": "activations",
              "type": "uint256"
            },
            {
              "internalType": "uint256",
              "name": "lastActivated",
              "type": "uint256"
            },
            {
              "internalType": "uint256",
              "name": "lastDeactivated",
              "type": "uint256"
            },
            {
              "internalType": "uint256",
              "name": "wormholeTo",
              "type": "uint256"
            },
            {
              "internalType": "address",
              "name": "controller",
              "type": "address"
            }
          ],
          "internalType": "struct Artifact",
          "name": "",
          "type": "tuple"
        }
      ],
      "stateMutability": "view",
      "type": "function"
    },
    {
      "inputs": [
        {
          "components": [
            {
              "internalType": "address",
              "name": "owner",
              "type": "address"
            },
            {
              "internalType": "uint256",
              "name": "range",
              "type": "uint256"
            },
            {
              "internalType": "uint256",
              "name": "speed",
              "type": "uint256"
            },
            {
              "internalType": "uint256",
              "name": "defense",
              "type": "uint256"
            },
            {
              "internalType": "uint256",
              "name": "population",
              "type": "uint256"
            },
            {
              "internalType": "uint256",
              "name": "populationCap",
              "type": "uint256"
            },
            {
              "internalType": "uint256",
              "name": "populationGrowth",
              "type": "uint256"
            },
            {
              "internalType": "uint256",
              "name": "silverCap",
              "type": "uint256"
            },
            {
              "internalType": "uint256",
              "name": "silverGrowth",
              "type": "uint256"
            },
            {
              "internalType": "uint256",
              "name": "silver",
              "type": "uint256"
            },
            {
              "internalType": "uint256",
              "name": "planetLevel",
              "type": "uint256"
            },
            {
              "internalType": "enum PlanetType",
              "name": "planetType",
              "type": "PlanetType"
            },
            {
              "internalType": "bool",
              "name": "isHomePlanet",
              "type": "bool"
            }
          ],
          "internalType": "struct Planet",
          "name": "planet",
          "type": "tuple"
        }
      ],
      "name": "getPlanetDefaultSpaceJunk",
      "outputs": [
        {
          "internalType": "uint256",
          "name": "",
          "type": "uint256"
        }
      ],
      "stateMutability": "view",
      "type": "function"
    },
    {
      "inputs": [
        {
          "internalType": "uint256",
          "name": "locationId",
          "type": "uint256"
        },
        {
          "internalType": "address",
          "name": "sender",
          "type": "address"
        }
      ],
      "name": "checkPlanetDOS",
      "outputs": [],
      "stateMutability": "view",
      "type": "function"
    },
    {
      "inputs": [
        {
          "internalType": "uint256",
          "name": "_location",
          "type": "uint256"
        }
      ],
      "name": "isPopCapBoost",
      "outputs": [
        {
          "internalType": "bool",
          "name": "",
          "type": "bool"
        }
      ],
      "stateMutability": "pure",
      "type": "function"
    },
    {
      "inputs": [
        {
          "internalType": "uint256",
          "name": "_location",
          "type": "uint256"
        }
      ],
      "name": "isPopGroBoost",
      "outputs": [
        {
          "internalType": "bool",
          "name": "",
          "type": "bool"
        }
      ],
      "stateMutability": "pure",
      "type": "function"
    },
    {
      "inputs": [
        {
          "internalType": "uint256",
          "name": "_location",
          "type": "uint256"
        }
      ],
      "name": "isRangeBoost",
      "outputs": [
        {
          "internalType": "bool",
          "name": "",
          "type": "bool"
        }
      ],
      "stateMutability": "pure",
      "type": "function"
    },
    {
      "inputs": [
        {
          "internalType": "uint256",
          "name": "_location",
          "type": "uint256"
        }
      ],
      "name": "isSpeedBoost",
      "outputs": [
        {
          "internalType": "bool",
          "name": "",
          "type": "bool"
        }
      ],
      "stateMutability": "pure",
      "type": "function"
    },
    {
      "inputs": [
        {
          "internalType": "uint256",
          "name": "_location",
          "type": "uint256"
        }
      ],
      "name": "isDefBoost",
      "outputs": [
        {
          "internalType": "bool",
          "name": "",
          "type": "bool"
        }
      ],
      "stateMutability": "pure",
      "type": "function"
    },
    {
      "inputs": [
        {
          "internalType": "uint256",
          "name": "_location",
          "type": "uint256"
        }
      ],
      "name": "isHalfSpaceJunk",
      "outputs": [
        {
          "internalType": "bool",
          "name": "",
          "type": "bool"
        }
      ],
      "stateMutability": "pure",
      "type": "function"
    },
    {
      "inputs": [
        {
          "internalType": "uint256",
          "name": "location",
          "type": "uint256"
        },
        {
          "internalType": "uint256",
          "name": "level",
          "type": "uint256"
        },
        {
          "internalType": "enum PlanetType",
          "name": "planetType",
          "type": "PlanetType"
        },
        {
          "internalType": "enum SpaceType",
          "name": "spaceType",
          "type": "SpaceType"
        },
        {
          "internalType": "uint256",
          "name": "TIME_FACTOR_HUNDREDTHS",
          "type": "uint256"
        }
      ],
      "name": "_defaultPlanet",
      "outputs": [
        {
          "components": [
            {
              "internalType": "address",
              "name": "owner",
              "type": "address"
            },
            {
              "internalType": "uint256",
              "name": "range",
              "type": "uint256"
            },
            {
              "internalType": "uint256",
              "name": "speed",
              "type": "uint256"
            },
            {
              "internalType": "uint256",
              "name": "defense",
              "type": "uint256"
            },
            {
              "internalType": "uint256",
              "name": "population",
              "type": "uint256"
            },
            {
              "internalType": "uint256",
              "name": "populationCap",
              "type": "uint256"
            },
            {
              "internalType": "uint256",
              "name": "populationGrowth",
              "type": "uint256"
            },
            {
              "internalType": "uint256",
              "name": "silverCap",
              "type": "uint256"
            },
            {
              "internalType": "uint256",
              "name": "silverGrowth",
              "type": "uint256"
            },
            {
              "internalType": "uint256",
              "name": "silver",
              "type": "uint256"
            },
            {
              "internalType": "uint256",
              "name": "planetLevel",
              "type": "uint256"
            },
            {
              "internalType": "enum PlanetType",
              "name": "planetType",
              "type": "PlanetType"
            },
            {
              "internalType": "bool",
              "name": "isHomePlanet",
              "type": "bool"
            }
          ],
          "internalType": "struct Planet",
          "name": "_planet",
          "type": "tuple"
        }
      ],
      "stateMutability": "view",
      "type": "function"
    }
  ],
  "bytecode": "0x615154610053600b82828239805160001a607314610046577f4e487b7100000000000000000000000000000000000000000000000000000000600052600060045260246000fd5b30600052607381538281f3fe73000000000000000000000000000000000000000030146080604052600436106101e45760003560e01c806392dd471c1161010e578063c4e6f909116100ac578063df830d1f1161007b578063df830d1f1461068b578063e83162c2146106a9578063eaae4653146106d2578063fb364ca2146106e9576101e4565b8063c4e6f909146105d2578063c8d503ea14610602578063ce3b576b14610632578063ddd2866014610662576101e4565b8063aaad4d37116100e8578063aaad4d371461053f578063b0c026391461055d578063b806b85914610586578063bf194fb4146105b6576101e4565b806392dd471c146104c85780639a07ea0d146104f1578063a2deac581461050f576101e4565b80637308c818116101865780638d4decca116101555780638d4decca1461040657806390d6ddc2146104385780639160f2de1461046857806391e66a7114610498576101e4565b80637308c818146103395780637e54ea1a146103695780637ed2b0e8146103a65780638265fa26146103d6576101e4565b806326c7e618116101c257806326c7e6181461027957806329fa32f7146102a95780632ebe903f146102d95780635256e19014610309576101e4565b8063019585da146101e957806314f65d3b146102195780631ec2b88614610249575b600080fd5b61020360048036038101906101fe9190613819565b610719565b6040516102109190613861565b60405180910390f35b610233600480360381019061022e91906138c6565b61076e565b6040516102409190613b22565b60405180910390f35b610263600480360381019061025e9190613dce565b610fcc565b6040516102709190613e64565b60405180910390f35b610293600480360381019061028e9190613f3a565b6118dd565b6040516102a09190613861565b60405180910390f35b6102c360048036038101906102be9190613dce565b611b7b565b6040516102d09190613e64565b60405180910390f35b6102f360048036038101906102ee9190613819565b611cc3565b6040516103009190613fc2565b60405180910390f35b610323600480360381019061031e9190613fdd565b611d13565b60405161033091906141c7565b60405180910390f35b610353600480360381019061034e9190613819565b611e2c565b604051610360919061422b565b60405180910390f35b81801561037557600080fd5b50610390600480360381019061038b9190613fdd565b611e89565b60405161039d9190613861565b60405180910390f35b6103c060048036038101906103bb91906142fb565b611f1c565b6040516103cd9190614379565b60405180910390f35b6103f060048036038101906103eb9190613819565b611f99565b6040516103fd9190613861565b60405180910390f35b610420600480360381019061041b9190613fdd565b611fee565b60405161042f939291906143a3565b60405180910390f35b610452600480360381019061044d9190613819565b612442565b60405161045f9190613861565b60405180910390f35b610482600480360381019061047d9190613819565b612497565b60405161048f9190613861565b60405180910390f35b6104b260048036038101906104ad9190613819565b6124ec565b6040516104bf9190613861565b60405180910390f35b8180156104d457600080fd5b506104ef60048036038101906104ea9190614466565b612541565b005b6104f961262e565b6040516105069190614379565b60405180910390f35b610529600480360381019061052491906144a6565b61272f565b60405161053691906144f5565b60405180910390f35b610547612804565b6040516105549190613e64565b60405180910390f35b81801561056957600080fd5b50610584600480360381019061057f9190614466565b61283d565b005b6105a0600480360381019061059b9190613dce565b61292a565b6040516105ad9190613861565b60405180910390f35b6105d060048036038101906105cb9190614510565b612940565b005b6105ec60048036038101906105e79190613819565b612c6f565b6040516105f991906141c7565b60405180910390f35b61061c60048036038101906106179190613819565b612d95565b6040516106299190613861565b60405180910390f35b61064c60048036038101906106479190614688565b612dd7565b6040516106599190614379565b60405180910390f35b81801561066e57600080fd5b5061068960048036038101906106849190613fdd565b612e19565b005b6106936130d1565b6040516106a09190613e64565b60405180910390f35b8180156106b557600080fd5b506106d060048036038101906106cb9190613fdd565b61311e565b005b8180156106de57600080fd5b506106e7613186565b005b61070360048036038101906106fe9190613819565b6131bd565b6040516107109190613861565b60405180910390f35b6000808260405160200161072d91906146d7565b6040516020818303038152906040529050601081600d81518110610754576107536146f2565b5b602001015160f81c60f81b60f81c60ff1610915050919050565b610776613620565b6000610780613212565b8681548110610792576107916146f2565b5b9060005260206000209060090201905060006003808111156107b7576107b6613991565b5b8560038111156107ca576107c9613991565b5b1490506000600260038111156107e3576107e2613991565b5b8660038111156107f6576107f5613991565b5b14905060006001600381111561080f5761080e613991565b5b87600381111561082257610821613991565b5b1490506000856000019073ffffffffffffffffffffffffffffffffffffffff16908173ffffffffffffffffffffffffffffffffffffffff1681525050888561014001818152505083600101548560a001818152505083600201548560c001818152505083600301548560200181815250508360040154856040018181525050836005015485606001818152505083600701548560e0018181525050600160048111156108d1576108d0613991565b5b8860048111156108e4576108e3613991565b5b036108f9578360060154856101000181815250505b6109028a612442565b156109225760028560a00181815161091a9190614750565b915081815250505b61092b8a6124ec565b1561094b5760028560c0018181516109439190614750565b915081815250505b6109548a611f99565b156109745760028560200181815161096c9190614750565b915081815250505b61097d8a6131bd565b1561099d576002856040018181516109959190614750565b915081815250505b6109a68a610719565b156109c6576002856060018181516109be9190614750565b915081815250505b8215610a9557600285602001516109dd9190614750565b856020018181525050600285604001516109f79190614750565b85604001818152505060028560a00151610a119190614750565b8560a001818152505060028560c00151610a2b9190614750565b8560c001818152505060028560e00151610a459190614750565b8560e00181815250506002856101000151610a609190614750565b85610100018181525050601460038660600151610a7d9190614750565b610a8791906147d9565b856060018181525050610ca9565b8115610ba057600260038660200151610aae9190614750565b610ab891906147d9565b856020018181525050600260038660400151610ad49190614750565b610ade91906147d9565b856040018181525050600260038660a00151610afa9190614750565b610b0491906147d9565b8560a0018181525050600260038660c00151610b209190614750565b610b2a91906147d9565b8560c0018181525050600260038660e00151610b469190614750565b610b5091906147d9565b8560e001818152505060026003866101000151610b6d9190614750565b610b7791906147d9565b8561010001818152505060048560600151610b9291906147d9565b856060018181525050610ca8565b8015610ca757600460058660200151610bb99190614750565b610bc391906147d9565b856020018181525050600460058660400151610bdf9190614750565b610be991906147d9565b856040018181525050600460058660a00151610c059190614750565b610c0f91906147d9565b8560a0018181525050600460058660c00151610c2b9190614750565b610c3591906147d9565b8560c0018181525050600460058660e00151610c519190614750565b610c5b91906147d9565b8560e001818152505060046005866101000151610c789190614750565b610c8291906147d9565b8561010001818152505060028560600151610c9d91906147d9565b8560600181815250505b5b5b878561016001906004811115610cc257610cc1613991565b5b90816004811115610cd657610cd5613991565b5b8152505060016004811115610cee57610ced613991565b5b886004811115610d0157610d00613991565b5b03610d3f5760028560e001818151610d199190614750565b91508181525050600285606001818151610d3391906147d9565b91508181525050610e2b565b600480811115610d5257610d51613991565b5b886004811115610d6557610d64613991565b5b03610dc857600285604001818151610d7d91906147d9565b91508181525050600a8560e001818151610d979190614750565b9150818152505060008560c001818152505060058560a001818151610dbc9190614750565b91508181525050610e2a565b60036004811115610ddc57610ddb613991565b5b886004811115610def57610dee613991565b5b03610e2957600285606001818151610e0791906147d9565b9150818152505060028560e001818151610e219190614750565b915081815250505b5b5b606484600801548660a00151610e419190614750565b610e4b91906147d9565b8560800181815250508215610e7957601485608001818151610e6d9190614750565b91508181525050610ec1565b8115610e9e57600a85608001818151610e929190614750565b91508181525050610ec0565b8015610ebf57600485608001818151610eb79190614750565b915081815250505b5b5b600480811115610ed457610ed3613991565b5b886004811115610ee757610ee6613991565b5b03610f0757600285608001818151610eff91906147d9565b915081815250505b60016004811115610f1b57610f1a613991565b5b886004811115610f2e57610f2d613991565b5b03610f4f5760028560e00151610f4491906147d9565b856101200181815250505b606486610f5c91906147d9565b85604001818151610f6d9190614750565b91508181525050606486610f8191906147d9565b8560c001818151610f929190614750565b91508181525050606486610fa691906147d9565b8561010001818151610fb89190614750565b915081815250505050505095945050505050565b610fd46136b2565b6006600e811115610fe857610fe7613991565b5b8260e00151600e811115610fff57610ffe613991565b5b0361109e5760006040518060c00160405280606481526020016096815260200160c8815260200161012c81526020016101c2815260200161028a81525090506040518060a0016040528060648152602001606481526020016014815260200160148152602001828560600151600581111561107d5761107c613991565b5b6006811061108e5761108d6146f2565b5b60200201518152509150506118d8565b6007600e8111156110b2576110b1613991565b5b8260e00151600e8111156110c9576110c8613991565b5b036111655760006040518060c00160405280606481526020016032815260200160288152602001601e815260200160148152602001600a81525090506040518060a0016040528060648152602001606481526020016064815260200160648152602001828560600151600581111561114457611143613991565b5b60068110611155576111546146f2565b5b60200201518152509150506118d8565b60058260e00151600e81111561117e5761117d613991565b5b106111b6576040518060a0016040528060648152602001606481526020016064815260200160648152602001606481525090506118d8565b60006040518060a0016040528060648152602001606481526020016064815260200160648152602001606481525090506001600e8111156111fa576111f9613991565b5b8360e00151600e81111561121157611210613991565b5b0361124f57600581600001818151611229919061480a565b91508181525050600581602001818151611243919061480a565b9150818152505061133b565b6002600e81111561126357611262613991565b5b8360e00151600e81111561127a57611279613991565b5b0361129e57600581606001818151611292919061480a565b9150818152505061133a565b6003600e8111156112b2576112b1613991565b5b8360e00151600e8111156112c9576112c8613991565b5b036112ed576005816040018181516112e1919061480a565b91508181525050611339565b6004600e81111561130157611300613991565b5b8360e00151600e81111561131857611317613991565b5b0361133857600581608001818151611330919061480a565b915081815250505b5b5b5b6001600a81111561134f5761134e613991565b5b8360800151600a81111561136657611365613991565b5b036113a45760058160600181815161137e919061480a565b91508181525050600581608001818151611398919061480a565b91508181525050611773565b6002600a8111156113b8576113b7613991565b5b8360800151600a8111156113cf576113ce613991565b5b03611427576005816080018181516113e7919061480a565b91508181525050600581600001818151611401919061480a565b9150818152505060058160200181815161141b919061480a565b91508181525050611772565b6003600a81111561143b5761143a613991565b5b8360800151600a81111561145257611451613991565b5b036114aa5760058160000181815161146a919061480a565b91508181525050600581602001818151611484919061480a565b9150818152505060058160400181815161149e919061480a565b91508181525050611771565b6004600a8111156114be576114bd613991565b5b8360800151600a8111156114d5576114d4613991565b5b03611513576005816080018181516114ed919061480a565b91508181525050600581604001818151611507919061480a565b91508181525050611770565b6005600a81111561152757611526613991565b5b8360800151600a81111561153e5761153d613991565b5b0361157c57600581606001818151611556919061480a565b91508181525050600581604001818151611570919061480a565b9150818152505061176f565b6006600a8111156115905761158f613991565b5b8360800151600a8111156115a7576115a6613991565b5b036115cb57600a816060018181516115bf919061480a565b9150818152505061176e565b6007600a8111156115df576115de613991565b5b8360800151600a8111156115f6576115f5613991565b5b0361161a57600a8160400181815161160e919061480a565b9150818152505061176d565b6008600a81111561162e5761162d613991565b5b8360800151600a81111561164557611644613991565b5b0361166957600a8160800181815161165d919061480a565b9150818152505061176c565b6009600a81111561167d5761167c613991565b5b8360800151600a81111561169457611693613991565b5b036116d257600a816000018181516116ac919061480a565b91508181525050600a816020018181516116c6919061480a565b9150818152505061176b565b600a808111156116e5576116e4613991565b5b8360800151600a8111156116fc576116fb613991565b5b0361176a57600581604001818151611714919061480a565b9150818152505060058160600181815161172e919061480a565b91508181525050600581600001818151611748919061480a565b91508181525050600581602001818151611762919061480a565b915081815250505b5b5b5b5b5b5b5b5b5b600060028460600151600581111561178e5761178d613991565b5b61179891906147d9565b60016117a4919061480a565b905060646001826117b59190614860565b6117bf9190614750565b8260000151826117cf9190614750565b6117d99190614860565b82600001818152505060646001826117f19190614860565b6117fb9190614750565b82602001518261180b9190614750565b6118159190614860565b826020018181525050606460018261182d9190614860565b6118379190614750565b8260600151826118479190614750565b6118519190614860565b82606001818152505060646001826118699190614860565b6118739190614750565b8260400151826118839190614750565b61188d9190614860565b82604001818152505060646001826118a59190614860565b6118af9190614750565b8260800151826118bf9190614750565b6118c99190614860565b82608001818152505081925050505b919050565b60006118e761323f565b60010154836000600581106118ff576118fe6146f2565b5b602002015114611944576040517f08c379a000000000000000000000000000000000000000000000000000000000815260040161193b906148f1565b60405180910390fd5b81156119b45761195261323f565b600301548360016005811061196a576119696146f2565b5b6020020151146119af576040517f08c379a00000000000000000000000000000000000000000000000000000000081526004016119a69061495d565b60405180910390fd5b611a1a565b6119bc61323f565b60020154836001600581106119d4576119d36146f2565b5b602002015114611a19576040517f08c379a0000000000000000000000000000000000000000000000000000000008152600401611a109061495d565b60405180910390fd5b5b611a2261323f565b6005015483600260058110611a3a57611a396146f2565b5b602002015114611a7f576040517f08c379a0000000000000000000000000000000000000000000000000000000008152600401611a76906149c9565b60405180910390fd5b611a8761323f565b60040160009054906101000a900460ff161515600184600360058110611ab057611aaf6146f2565b5b602002015114151514611af8576040517f08c379a0000000000000000000000000000000000000000000000000000000008152600401611aef90614a35565b60405180910390fd5b611b0061323f565b60040160019054906101000a900460ff161515600184600460058110611b2957611b286146f2565b5b602002015114151514611b71576040517f08c379a0000000000000000000000000000000000000000000000000000000008152600401611b6890614aa1565b60405180910390fd5b6001905092915050565b611b836136b2565b6007600e811115611b9757611b96613991565b5b8260e00151600e811115611bae57611bad613991565b5b03611cb35760006040518060c001604052806064815260200160c8815260200160c8815260200160c8815260200160c8815260200160c8815250905060006040518060c00160405280606481526020016101f481526020016103e881526020016105dc81526020016107d081526020016109c481525090506040518060a0016040528060648152602001606481526020018386606001516005811115611c5757611c56613991565b5b60068110611c6857611c676146f2565b5b602002015181526020018286606001516005811115611c8a57611c89613991565b5b60068110611c9b57611c9a6146f2565b5b60200201518152602001606481525092505050611cbe565b611cbb612804565b90505b919050565b600060018211611cd65760019050611d0e565b60038211611ce75760029050611d0e565b60058211611cf85760039050611d0e565b60078211611d095760049050611d0e565b600590505b919050565b611d1b6136e1565b60005b611d2661324e565b601501600085815260200190815260200160002080549050811015611e1a5782611d4e61324e565b60150160008681526020019081526020016000208281548110611d7457611d736146f2565b5b906000526020600020015403611e07573073ffffffffffffffffffffffffffffffffffffffff16638465ad44846040518263ffffffff1660e01b8152600401611dbd9190614ad0565b6101a060405180830381865afa158015611ddb573d6000803e3d6000fd5b505050506040513d601f19601f82011682018060405250810190611dff9190614ca1565b915050611e26565b8080611e1290614ccf565b915050611d1e565b50611e2361325d565b90505b92915050565b6000611e36613369565b600601548210611e495760039050611e84565b611e51613369565b600501548210611e645760029050611e84565b611e6c613369565b600401548210611e7f5760019050611e84565b600090505b919050565b6000805b611e9561324e565b601501600085815260200190815260200160002080549050811015611f105782611ebd61324e565b60150160008681526020019081526020016000208281548110611ee357611ee26146f2565b5b906000526020600020015403611efd576001915050611f16565b8080611f0890614ccf565b915050611e8d565b50600090505b92915050565b6000808390505b828111611f91578083611f369190614860565b610100611f439190614e4a565b858281518110611f5657611f556146f2565b5b602001015160f81c60f81b60f81c60ff16611f719190614750565b82611f7c919061480a565b91508080611f8990614ccf565b915050611f23565b509392505050565b60008082604051602001611fad91906146d7565b6040516020818303038152906040529050601081600b81518110611fd457611fd36146f2565b5b602001015160f81c60f81b60f81c60ff1610915050919050565b600080600080611ffd85611e2c565b905060008660405160200161201291906146d7565b604051602081830303815290604052905060006120328260046006611f1c565b9050600080600161204161324e565b600301805490506120529190614860565b90505b600081106120a75761206561324e565b600301818154811061207a576120796146f2565b5b9060005260206000200154831015612094578091506120a7565b808061209f90614e95565b915050612055565b50600060038111156120bc576120bb613991565b5b8460038111156120cf576120ce613991565b5b1480156120dc5750600481115b156120e657600490505b600160038111156120fa576120f9613991565b5b84600381111561210d5761210c613991565b5b14801561211a5750600581115b1561212457600590505b61212c613369565b600201548111156121465761213f613369565b6002015490505b600080612151613369565b601a0186600381111561216757612166613991565b5b60ff166004811061217b5761217a6146f2565b5b600a020183600a8110612191576121906146f2565b5b016005806020026040519081016040528092919082600580156121ef576020028201916000905b82829054906101000a900460ff1660ff16815260200190600101906020826000010492830192600103820291508084116121b85790505b505050505090506121fe6137ad565b600080600090505b60058160ff16101561225057838160ff1660058110612228576122276146f2565b5b602002015160ff168261223b919061480a565b9150808061224890614ecb565b915050612206565b5082600060058110612265576122646146f2565b5b602002015160ff16816122789190614860565b8260006005811061228c5761228b6146f2565b5b6020020181815250506000600190505b60058160ff16101561232957838160ff16600581106122be576122bd6146f2565b5b602002015160ff16836001836122d49190614ef4565b60ff16600581106122e8576122e76146f2565b5b60200201516122f79190614860565b838260ff166005811061230d5761230c6146f2565b5b602002018181525050808061232190614ecb565b91505061229c565b5060005b60058160ff16101561239e5781610100848360ff1660058110612353576123526146f2565b5b60200201516123629190614750565b61236c91906147d9565b838260ff1660058110612382576123816146f2565b5b602002018181525050808061239690614ecb565b91505061232d565b50506000866008815181106123b6576123b56146f2565b5b602001015160f81c60f81b60f81c905060005b60058160ff16101561242957828160ff16600581106123eb576123ea6146f2565b5b60200201518260ff1610612416578060ff16600481111561240f5761240e613991565b5b9450612429565b808061242190614ecb565b9150506123c9565b508484899a509a509a5050505050505050509250925092565b6000808260405160200161245691906146d7565b604051602081830303815290604052905060108160098151811061247d5761247c6146f2565b5b602001015160f81c60f81b60f81c60ff1610915050919050565b600080826040516020016124ab91906146d7565b6040516020818303038152906040529050601081600e815181106124d2576124d16146f2565b5b602001015160f81c60f81b60f81c60ff1610915050919050565b6000808260405160200161250091906146d7565b6040516020818303038152906040529050601081600a81518110612527576125266146f2565b5b602001015160f81c60f81b60f81c60ff1610915050919050565b600061254b61324e565b600c01600084815260200190815260200160002090506064826000015182600501546125779190614750565b61258191906147d9565b816005018190555060648260200151826006015461259f9190614750565b6125a991906147d9565b81600601819055506064826040015182600101546125c79190614750565b6125d191906147d9565b81600101819055506064826060015182600201546125ef9190614750565b6125f991906147d9565b81600201819055506064826080015182600301546126179190614750565b61262191906147d9565b8160030181905550505050565b60008061263961324e565b600801805490509050600061264c613369565b60010154905060008260146126619190614750565b61266961324e565b60050160048154811061267f5761267e6146f2565b5b9060005260206000200154612694919061480a565b9050600061013a60646126a561324e565b6004016004815481106126bb576126ba6146f2565b5b9060005260206000200154846126d19190614750565b6126db9190614750565b6126e591906147d9565b905060006127026126fd6126f884613378565b61339b565b6133c4565b67ffffffffffffffff1690508381101561272357839550505050505061272c565b80955050505050505b90565b600060038081111561274457612743613991565b5b83600381111561275757612756613991565b5b0361276557600a90506127fe565b600083600381111561277a57612779613991565b5b60036127869190614750565b9050612790613369565b600a01548310156127af576001816127a8919061480a565b90506127e7565b6127b7613369565b600b01548310156127d6576002816127cf919061480a565b90506127e6565b6003816127e3919061480a565b90505b5b80600a8111156127fa576127f9613991565b5b9150505b92915050565b61280c6136b2565b6040518060a00160405280606481526020016064815260200160648152602001606481526020016064815250905090565b600061284761324e565b600c01600084815260200190815260200160002090508160000151606482600501546128739190614750565b61287d91906147d9565b816005018190555081602001516064826006015461289b9190614750565b6128a591906147d9565b81600601819055508160400151606482600101546128c39190614750565b6128cd91906147d9565b81600101819055508160600151606482600201546128eb9190614750565b6128f591906147d9565b81600201819055508160800151606482600301546129139190614750565b61291d91906147d9565b8160030181905550505050565b6000816101200151826101400151109050919050565b60008060005b61294e61324e565b6013016000868152602001908152602001600020805490508160ff161015612b135760008081111561298357612982613991565b5b61298b61324e565b60130160008781526020019081526020016000208260ff16815481106129b4576129b36146f2565b5b906000526020600020906004020160010160009054906101000a900460ff1660008111156129e5576129e4613991565b5b03612b00576129f261324e565b600c01600086815260200190815260200160002060000160009054906101000a900473ffffffffffffffffffffffffffffffffffffffff1673ffffffffffffffffffffffffffffffffffffffff16612a4861324e565b6014016000612a5561324e565b60130160008981526020019081526020016000208460ff1681548110612a7e57612a7d6146f2565b5b906000526020600020906004020160000154815260200190815260200160002060010160009054906101000a900473ffffffffffffffffffffffffffffffffffffffff1673ffffffffffffffffffffffffffffffffffffffff1603612af0578280612ae890614ecb565b935050612aff565b8180612afb90614ecb565b9250505b5b8080612b0b90614ecb565b915050612946565b50612b1c61324e565b600c01600085815260200190815260200160002060000160009054906101000a900473ffffffffffffffffffffffffffffffffffffffff1673ffffffffffffffffffffffffffffffffffffffff168373ffffffffffffffffffffffffffffffffffffffff1603612bd15760068260ff1610612bcc576040517f08c379a0000000000000000000000000000000000000000000000000000000008152600401612bc390614f74565b60405180910390fd5b612c18565b60068160ff1610612c17576040517f08c379a0000000000000000000000000000000000000000000000000000000008152600401612c0e90614f74565b60405180910390fd5b5b600c8183612c269190614f94565b60ff1610612c69576040517f08c379a0000000000000000000000000000000000000000000000000000000008152600401612c6090614f74565b60405180910390fd5b50505050565b612c776136e1565b60005b612c8261324e565b601501600084815260200190815260200160002080549050811015612d845760003073ffffffffffffffffffffffffffffffffffffffff16638465ad44612cc761324e565b60150160008781526020019081526020016000208481548110612ced57612cec6146f2565b5b90600052602060002001546040518263ffffffff1660e01b8152600401612d149190614ad0565b6101a060405180830381865afa158015612d32573d6000803e3d6000fd5b505050506040513d601f19601f82011682018060405250810190612d569190614ca1565b9050612d618161292a565b15612d70578092505050612d90565b508080612d7c90614ccf565b915050612c7a565b50612d8d61325d565b90505b919050565b6000612d9f613369565b601601547f30644e72e131a029b85045b68181585d2833e84879b9709143e1f593f0000001612dce91906147d9565b82109050919050565b600081610180015115612ded5760009050612e14565b612df5613369565b604b01826101400151600a8110612e0f57612e0e6146f2565b5b015490505b919050565b6000612e2361324e565b60150160008381526020019081526020016000208054905090506000805b828110156130265784612e5261324e565b60150160008681526020019081526020016000208281548110612e7857612e776146f2565b5b9060005260206000200154036130135760003073ffffffffffffffffffffffffffffffffffffffff16638465ad44612eae61324e565b60150160008881526020019081526020016000208481548110612ed457612ed36146f2565b5b90600052602060002001546040518263ffffffff1660e01b8152600401612efb9190614ad0565b6101a060405180830381865afa158015612f19573d6000803e3d6000fd5b505050506040513d601f19601f82011682018060405250810190612f3d9190614ca1565b9050612f488161292a565b15612f88576040517f08c379a0000000000000000000000000000000000000000000000000000000008152600401612f7f9061503d565b60405180910390fd5b612f9061324e565b6015016000868152602001908152602001600020600185612fb19190614860565b81548110612fc257612fc16146f2565b5b9060005260206000200154612fd561324e565b60150160008781526020019081526020016000208381548110612ffb57612ffa6146f2565b5b90600052602060002001819055506001925050613026565b808061301e90614ccf565b915050612e41565b5080613067576040517f08c379a000000000000000000000000000000000000000000000000000000000815260040161305e906150cf565b60405180910390fd5b600061307161324e565b60100160008681526020019081526020016000208190555061309161324e565b60150160008481526020019081526020016000208054806130b5576130b46150ef565b5b6001900381819060005260206000200160009055905550505050565b6130d96136b2565b6040518060a0016040528060648152602001606481526020016130fa613369565b60560154815260200161310b613369565b6055015481526020016064815250905090565b8061312761324e565b60100160008481526020019081526020016000208190555061314761324e565b60150160008281526020019081526020016000208290806001815401808255809150506001900390600052602060002001600090919091909150555050565b61318e613369565b60000160019054906101000a900460ff166131bb576131ab61262e565b6131b361324e565b600901819055505b565b600080826040516020016131d191906146d7565b6040516020818303038152906040529050601081600c815181106131f8576131f76146f2565b5b602001015160f81c60f81b60f81c60ff1610915050919050565b6000807fc8b32c67c130c3ffee82ae8b12efdcc4a3964d2cf86dd6ece89dca12a93c024490508091505090565b60006132496133e5565b905090565b6000613258613412565b905090565b6132656136e1565b604051806101a0016040528060001515815260200160008152602001600081526020016000600581111561329c5761329b613991565b5b60058111156132ae576132ad613991565b5b81526020016000600a8111156132c7576132c6613991565b5b600a8111156132d9576132d8613991565b5b815260200160008152602001600073ffffffffffffffffffffffffffffffffffffffff1681526020016000600e81111561331657613315613991565b5b600e81111561332857613327613991565b5b815260200160008152602001600081526020016000815260200160008152602001600073ffffffffffffffffffffffffffffffffffffffff16815250905090565b600061337361343f565b905090565b6000677fffffffffffffff82111561338f57600080fd5b604082901b9050919050565b60008082600f0b12156133ad57600080fd5b6133bd604083600f0b901b61346c565b9050919050565b60008082600f0b12156133d657600080fd5b604082600f0b901d9050919050565b6000807f2849cb27302bb32c0c7252ab45487d42296bcddad804f932e0b0589e515a937490508091505090565b6000807fcb7f1a525606efcbba7baaf9b0b55c468d0fd558cbf767967f538834dfa1232e90508091505090565b6000807f5fb65bb339c6bd3f2609a7342e6cb046e09f3e40f45242a5971904b021b5bb5390508091505090565b600080820361347e576000905061361b565b600082905060006001905070010000000000000000000000000000000082106134b057608082901c9150604081901b90505b6801000000000000000082106134cf57604082901c9150602081901b90505b64010000000082106134ea57602082901c9150601081901b90505b62010000821061350357601082901c9150600881901b90505b610100821061351b57600882901c9150600481901b90505b6010821061353257600482901c9150600281901b90505b6008821061354257600181901b90505b6001818581613554576135536147aa565b5b048201901c9050600181858161356d5761356c6147aa565b5b048201901c90506001818581613586576135856147aa565b5b048201901c9050600181858161359f5761359e6147aa565b5b048201901c905060018185816135b8576135b76147aa565b5b048201901c905060018185816135d1576135d06147aa565b5b048201901c905060018185816135ea576135e96147aa565b5b048201901c90506000818581613603576136026147aa565b5b0490508082106136135780613615565b815b93505050505b919050565b604051806101a00160405280600073ffffffffffffffffffffffffffffffffffffffff16815260200160008152602001600081526020016000815260200160008152602001600081526020016000815260200160008152602001600081526020016000815260200160008152602001600060048111156136a3576136a2613991565b5b81526020016000151581525090565b6040518060a0016040528060008152602001600081526020016000815260200160008152602001600081525090565b604051806101a0016040528060001515815260200160008152602001600081526020016000600581111561371857613717613991565b5b81526020016000600a81111561373157613730613991565b5b815260200160008152602001600073ffffffffffffffffffffffffffffffffffffffff1681526020016000600e81111561376e5761376d613991565b5b815260200160008152602001600081526020016000815260200160008152602001600073ffffffffffffffffffffffffffffffffffffffff1681525090565b6040518060a00160405280600590602082028036833780820191505090505090565b6000604051905090565b600080fd5b600080fd5b6000819050919050565b6137f6816137e3565b811461380157600080fd5b50565b600081359050613813816137ed565b92915050565b60006020828403121561382f5761382e6137d9565b5b600061383d84828501613804565b91505092915050565b60008115159050919050565b61385b81613846565b82525050565b60006020820190506138766000830184613852565b92915050565b6005811061388957600080fd5b50565b60008135905061389b8161387c565b92915050565b600481106138ae57600080fd5b50565b6000813590506138c0816138a1565b92915050565b600080600080600060a086880312156138e2576138e16137d9565b5b60006138f088828901613804565b955050602061390188828901613804565b94505060406139128882890161388c565b9350506060613923888289016138b1565b925050608061393488828901613804565b9150509295509295909350565b600073ffffffffffffffffffffffffffffffffffffffff82169050919050565b600061396c82613941565b9050919050565b61397c81613961565b82525050565b61398b816137e3565b82525050565b7f4e487b7100000000000000000000000000000000000000000000000000000000600052602160045260246000fd5b600581106139d1576139d0613991565b5b50565b60008190506139e2826139c0565b919050565b60006139f2826139d4565b9050919050565b613a02816139e7565b82525050565b613a1181613846565b82525050565b6101a082016000820151613a2e6000850182613973565b506020820151613a416020850182613982565b506040820151613a546040850182613982565b506060820151613a676060850182613982565b506080820151613a7a6080850182613982565b5060a0820151613a8d60a0850182613982565b5060c0820151613aa060c0850182613982565b5060e0820151613ab360e0850182613982565b50610100820151613ac8610100850182613982565b50610120820151613add610120850182613982565b50610140820151613af2610140850182613982565b50610160820151613b076101608501826139f9565b50610180820151613b1c610180850182613a08565b50505050565b60006101a082019050613b386000830184613a17565b92915050565b600080fd5b6000601f19601f8301169050919050565b7f4e487b7100000000000000000000000000000000000000000000000000000000600052604160045260246000fd5b613b8c82613b43565b810181811067ffffffffffffffff82111715613bab57613baa613b54565b5b80604052505050565b6000613bbe6137cf565b9050613bca8282613b83565b919050565b613bd881613846565b8114613be357600080fd5b50565b600081359050613bf581613bcf565b92915050565b60068110613c0857600080fd5b50565b600081359050613c1a81613bfb565b92915050565b600b8110613c2d57600080fd5b50565b600081359050613c3f81613c20565b92915050565b613c4e81613961565b8114613c5957600080fd5b50565b600081359050613c6b81613c45565b92915050565b600f8110613c7e57600080fd5b50565b600081359050613c9081613c71565b92915050565b60006101a08284031215613cad57613cac613b3e565b5b613cb86101a0613bb4565b90506000613cc884828501613be6565b6000830152506020613cdc84828501613804565b6020830152506040613cf084828501613804565b6040830152506060613d0484828501613c0b565b6060830152506080613d1884828501613c30565b60808301525060a0613d2c84828501613804565b60a08301525060c0613d4084828501613c5c565b60c08301525060e0613d5484828501613c81565b60e083015250610100613d6984828501613804565b61010083015250610120613d7f84828501613804565b61012083015250610140613d9584828501613804565b61014083015250610160613dab84828501613804565b61016083015250610180613dc184828501613c5c565b6101808301525092915050565b60006101a08284031215613de557613de46137d9565b5b6000613df384828501613c96565b91505092915050565b60a082016000820151613e126000850182613982565b506020820151613e256020850182613982565b506040820151613e386040850182613982565b506060820151613e4b6060850182613982565b506080820151613e5e6080850182613982565b50505050565b600060a082019050613e796000830184613dfc565b92915050565b600080fd5b600067ffffffffffffffff821115613e9f57613e9e613b54565b5b602082029050919050565b600080fd5b6000613ec2613ebd84613e84565b613bb4565b90508060208402830185811115613edc57613edb613eaa565b5b835b81811015613f055780613ef18882613804565b845260208401935050602081019050613ede565b5050509392505050565b600082601f830112613f2457613f23613e7f565b5b6005613f31848285613eaf565b91505092915050565b60008060c08385031215613f5157613f506137d9565b5b6000613f5f85828601613f0f565b92505060a0613f7085828601613be6565b9150509250929050565b60068110613f8b57613f8a613991565b5b50565b6000819050613f9c82613f7a565b919050565b6000613fac82613f8e565b9050919050565b613fbc81613fa1565b82525050565b6000602082019050613fd76000830184613fb3565b92915050565b60008060408385031215613ff457613ff36137d9565b5b600061400285828601613804565b925050602061401385828601613804565b9150509250929050565b61402681613fa1565b82525050565b600b811061403d5761403c613991565b5b50565b600081905061404e8261402c565b919050565b600061405e82614040565b9050919050565b61406e81614053565b82525050565b600f811061408557614084613991565b5b50565b600081905061409682614074565b919050565b60006140a682614088565b9050919050565b6140b68161409b565b82525050565b6101a0820160008201516140d36000850182613a08565b5060208201516140e66020850182613982565b5060408201516140f96040850182613982565b50606082015161410c606085018261401d565b50608082015161411f6080850182614065565b5060a082015161413260a0850182613982565b5060c082015161414560c0850182613973565b5060e082015161415860e08501826140ad565b5061010082015161416d610100850182613982565b50610120820151614182610120850182613982565b50610140820151614197610140850182613982565b506101608201516141ac610160850182613982565b506101808201516141c1610180850182613973565b50505050565b60006101a0820190506141dd60008301846140bc565b92915050565b600481106141f4576141f3613991565b5b50565b6000819050614205826141e3565b919050565b6000614215826141f7565b9050919050565b6142258161420a565b82525050565b6000602082019050614240600083018461421c565b92915050565b600080fd5b600067ffffffffffffffff82111561426657614265613b54565b5b61426f82613b43565b9050602081019050919050565b82818337600083830152505050565b600061429e6142998461424b565b613bb4565b9050828152602081018484840111156142ba576142b9614246565b5b6142c584828561427c565b509392505050565b600082601f8301126142e2576142e1613e7f565b5b81356142f284826020860161428b565b91505092915050565b600080600060608486031215614314576143136137d9565b5b600084013567ffffffffffffffff811115614332576143316137de565b5b61433e868287016142cd565b935050602061434f86828701613804565b925050604061436086828701613804565b9150509250925092565b614373816137e3565b82525050565b600060208201905061438e600083018461436a565b92915050565b61439d816139e7565b82525050565b60006060820190506143b8600083018661436a565b6143c56020830185614394565b6143d2604083018461421c565b949350505050565b600060a082840312156143f0576143ef613b3e565b5b6143fa60a0613bb4565b9050600061440a84828501613804565b600083015250602061441e84828501613804565b602083015250604061443284828501613804565b604083015250606061444684828501613804565b606083015250608061445a84828501613804565b60808301525092915050565b60008060c0838503121561447d5761447c6137d9565b5b600061448b85828601613804565b925050602061449c858286016143da565b9150509250929050565b600080604083850312156144bd576144bc6137d9565b5b60006144cb858286016138b1565b92505060206144dc85828601613804565b9150509250929050565b6144ef81614053565b82525050565b600060208201905061450a60008301846144e6565b92915050565b60008060408385031215614527576145266137d9565b5b600061453585828601613804565b925050602061454685828601613c5c565b9150509250929050565b60006101a0828403121561456757614566613b3e565b5b6145726101a0613bb4565b9050600061458284828501613c5c565b600083015250602061459684828501613804565b60208301525060406145aa84828501613804565b60408301525060606145be84828501613804565b60608301525060806145d284828501613804565b60808301525060a06145e684828501613804565b60a08301525060c06145fa84828501613804565b60c08301525060e061460e84828501613804565b60e08301525061010061462384828501613804565b6101008301525061012061463984828501613804565b6101208301525061014061464f84828501613804565b610140830152506101606146658482850161388c565b6101608301525061018061467b84828501613be6565b6101808301525092915050565b60006101a0828403121561469f5761469e6137d9565b5b60006146ad84828501614550565b91505092915050565b6000819050919050565b6146d16146cc826137e3565b6146b6565b82525050565b60006146e382846146c0565b60208201915081905092915050565b7f4e487b7100000000000000000000000000000000000000000000000000000000600052603260045260246000fd5b7f4e487b7100000000000000000000000000000000000000000000000000000000600052601160045260246000fd5b600061475b826137e3565b9150614766836137e3565b9250817fffffffffffffffffffffffffffffffffffffffffffffffffffffffffffffffff048311821515161561479f5761479e614721565b5b828202905092915050565b7f4e487b7100000000000000000000000000000000000000000000000000000000600052601260045260246000fd5b60006147e4826137e3565b91506147ef836137e3565b9250826147ff576147fe6147aa565b5b828204905092915050565b6000614815826137e3565b9150614820836137e3565b9250827fffffffffffffffffffffffffffffffffffffffffffffffffffffffffffffffff0382111561485557614854614721565b5b828201905092915050565b600061486b826137e3565b9150614876836137e3565b92508282101561488957614888614721565b5b828203905092915050565b600082825260208201905092915050565b7f62616420706c616e657468617368206d696d63206b6579000000000000000000600082015250565b60006148db601783614894565b91506148e6826148a5565b602082019050919050565b6000602082019050818103600083015261490a816148ce565b9050919050565b7f62616420737061636574797065206d696d63206b657900000000000000000000600082015250565b6000614947601683614894565b915061495282614911565b602082019050919050565b600060208201905081810360008301526149768161493a565b9050919050565b7f626164207065726c696e206c656e677468207363616c65000000000000000000600082015250565b60006149b3601783614894565b91506149be8261497d565b602082019050919050565b600060208201905081810360008301526149e2816149a6565b9050919050565b7f626164207065726c696e206d6972726f72207800000000000000000000000000600082015250565b6000614a1f601383614894565b9150614a2a826149e9565b602082019050919050565b60006020820190508181036000830152614a4e81614a12565b9050919050565b7f626164207065726c696e206d6972726f72207900000000000000000000000000600082015250565b6000614a8b601383614894565b9150614a9682614a55565b602082019050919050565b60006020820190508181036000830152614aba81614a7e565b9050919050565b614aca816137e3565b82525050565b6000602082019050614ae56000830184614ac1565b92915050565b600081519050614afa81613bcf565b92915050565b600081519050614b0f816137ed565b92915050565b600081519050614b2481613bfb565b92915050565b600081519050614b3981613c20565b92915050565b600081519050614b4e81613c45565b92915050565b600081519050614b6381613c71565b92915050565b60006101a08284031215614b8057614b7f613b3e565b5b614b8b6101a0613bb4565b90506000614b9b84828501614aeb565b6000830152506020614baf84828501614b00565b6020830152506040614bc384828501614b00565b6040830152506060614bd784828501614b15565b6060830152506080614beb84828501614b2a565b60808301525060a0614bff84828501614b00565b60a08301525060c0614c1384828501614b3f565b60c08301525060e0614c2784828501614b54565b60e083015250610100614c3c84828501614b00565b61010083015250610120614c5284828501614b00565b61012083015250610140614c6884828501614b00565b61014083015250610160614c7e84828501614b00565b61016083015250610180614c9484828501614b3f565b6101808301525092915050565b60006101a08284031215614cb857614cb76137d9565b5b6000614cc684828501614b69565b91505092915050565b6000614cda826137e3565b91507fffffffffffffffffffffffffffffffffffffffffffffffffffffffffffffffff8203614d0c57614d0b614721565b5b600182019050919050565b60008160011c9050919050565b6000808291508390505b6001851115614d6e57808604811115614d4a57614d49614721565b5b6001851615614d595780820291505b8081029050614d6785614d17565b9450614d2e565b94509492505050565b600082614d875760019050614e43565b81614d955760009050614e43565b8160018114614dab5760028114614db557614de4565b6001915050614e43565b60ff841115614dc757614dc6614721565b5b8360020a915084821115614dde57614ddd614721565b5b50614e43565b5060208310610133831016604e8410600b8410161715614e195782820a905083811115614e1457614e13614721565b5b614e43565b614e268484846001614d24565b92509050818404811115614e3d57614e3c614721565b5b81810290505b9392505050565b6000614e55826137e3565b9150614e60836137e3565b9250614e8d7fffffffffffffffffffffffffffffffffffffffffffffffffffffffffffffffff8484614d77565b905092915050565b6000614ea0826137e3565b915060008203614eb357614eb2614721565b5b600182039050919050565b600060ff82169050919050565b6000614ed682614ebe565b915060ff8203614ee957614ee8614721565b5b600182019050919050565b6000614eff82614ebe565b9150614f0a83614ebe565b925082821015614f1d57614f1c614721565b5b828203905092915050565b7f506c616e657420697320726174652d6c696d6974656400000000000000000000600082015250565b6000614f5e601683614894565b9150614f6982614f28565b602082019050919050565b60006020820190508181036000830152614f8d81614f51565b9050919050565b6000614f9f82614ebe565b9150614faa83614ebe565b92508260ff03821115614fc057614fbf614721565b5b828201905092915050565b7f796f752063616e6e6f742074616b6520616e206163746976617465642061727460008201527f6966616374206f6666206120706c616e65740000000000000000000000000000602082015250565b6000615027603283614894565b915061503282614fcb565b604082019050919050565b600060208201905081810360008301526150568161501a565b9050919050565b7f7468697320617274696661637420776173206e6f742070726573656e74206f6e60008201527f207468697320706c616e65740000000000000000000000000000000000000000602082015250565b60006150b9602c83614894565b91506150c48261505d565b604082019050919050565b600060208201905081810360008301526150e8816150ac565b9050919050565b7f4e487b7100000000000000000000000000000000000000000000000000000000600052603160045260246000fdfea2646970667358221220d097cde486811179d17f3452dbf865070436cb7a2806c4b0bd92789e89dfa5bb64736f6c634300080d0033",
  "immutableReferences": {},
  "source": "// SPDX-License-Identifier: GPL-3.0\npragma solidity ^0.8.0;\n\n// External contract imports\nimport {DFArtifactFacet} from \"../facets/DFArtifactFacet.sol\";\n\n// Library imports\nimport {ABDKMath64x64} from \"../vendor/libraries/ABDKMath64x64.sol\";\n\n// Storage imports\nimport {LibStorage, GameStorage, GameConstants, SnarkConstants} from \"./LibStorage.sol\";\n\nimport {\n    Biome,\n    SpaceType,\n    Planet,\n    PlanetType,\n    PlanetEventType,\n    Artifact,\n    ArtifactType,\n    ArtifactRarity,\n    Upgrade,\n    PlanetDefaultStats\n} from \"../DFTypes.sol\";\n\nlibrary LibGameUtils {\n    function gs() internal pure returns (GameStorage storage) {\n        return LibStorage.gameStorage();\n    }\n\n    function gameConstants() internal pure returns (GameConstants storage) {\n        return LibStorage.gameConstants();\n    }\n\n    function snarkConstants() internal pure returns (SnarkConstants storage) {\n        return LibStorage.snarkConstants();\n    }\n\n    // inclusive on both ends\n    function _calculateByteUInt(\n        bytes memory _b,\n        uint256 _startByte,\n        uint256 _endByte\n    ) public pure returns (uint256 _byteUInt) {\n        for (uint256 i = _startByte; i <= _endByte; i++) {\n            _byteUInt += uint256(uint8(_b[i])) * (256**(_endByte - i));\n        }\n    }\n\n    function _locationIdValid(uint256 _loc) public view returns (bool) {\n        return (_loc <\n            (21888242871839275222246405745257275088548364400416034343698204186575808495617 /\n                gameConstants().PLANET_RARITY));\n    }\n\n    // if you don't check the public input snark perlin config values, then a player could specify a planet with for example the wrong PLANETHASH_KEY and the SNARK would verify but they'd have created an invalid planet.\n    // the zkSNARK verification function checks that the SNARK proof is valid; a valid proof might be \"i know the existence of a planet at secret coords with address 0x123456... and mimc key 42\". but if this universe's mimc key is 43 this is still an invalid planet, so we have to check that this SNARK proof is a proof for the right mimc key (and spacetype key, perlin length scale, etc.)\n    function revertIfBadSnarkPerlinFlags(uint256[5] memory perlinFlags, bool checkingBiome)\n        public\n        view\n        returns (bool)\n    {\n        require(perlinFlags[0] == snarkConstants().PLANETHASH_KEY, \"bad planethash mimc key\");\n        if (checkingBiome) {\n            require(perlinFlags[1] == snarkConstants().BIOMEBASE_KEY, \"bad spacetype mimc key\");\n        } else {\n            require(perlinFlags[1] == snarkConstants().SPACETYPE_KEY, \"bad spacetype mimc key\");\n        }\n        require(perlinFlags[2] == snarkConstants().PERLIN_LENGTH_SCALE, \"bad perlin length scale\");\n        require((perlinFlags[3] == 1) == snarkConstants().PERLIN_MIRROR_X, \"bad perlin mirror x\");\n        require((perlinFlags[4] == 1) == snarkConstants().PERLIN_MIRROR_Y, \"bad perlin mirror y\");\n\n        return true;\n    }\n\n    function spaceTypeFromPerlin(uint256 perlin) public view returns (SpaceType) {\n        if (perlin >= gameConstants().PERLIN_THRESHOLD_3) {\n            return SpaceType.DEAD_SPACE;\n        } else if (perlin >= gameConstants().PERLIN_THRESHOLD_2) {\n            return SpaceType.DEEP_SPACE;\n        } else if (perlin >= gameConstants().PERLIN_THRESHOLD_1) {\n            return SpaceType.SPACE;\n        }\n        return SpaceType.NEBULA;\n    }\n\n    function _getPlanetLevelTypeAndSpaceType(uint256 _location, uint256 _perlin)\n        public\n        view\n        returns (\n            uint256,\n            PlanetType,\n            SpaceType\n        )\n    {\n        SpaceType spaceType = spaceTypeFromPerlin(_perlin);\n\n        bytes memory _b = abi.encodePacked(_location);\n\n        // get the uint value of byte 4 - 6\n        uint256 _planetLevelUInt = _calculateByteUInt(_b, 4, 6);\n        uint256 level;\n\n        // reverse-iterate thresholds and return planet type accordingly\n        for (uint256 i = (gs().planetLevelThresholds.length - 1); i >= 0; i--) {\n            if (_planetLevelUInt < gs().planetLevelThresholds[i]) {\n                level = i;\n                break;\n            }\n        }\n\n        if (spaceType == SpaceType.NEBULA && level > 4) {\n            // clip level to <= 3 if in nebula\n            level = 4;\n        }\n        if (spaceType == SpaceType.SPACE && level > 5) {\n            // clip level to <= 4 if in space\n            level = 5;\n        }\n\n        // clip level to <= MAX_NATURAL_PLANET_LEVEL\n        if (level > gameConstants().MAX_NATURAL_PLANET_LEVEL) {\n            level = gameConstants().MAX_NATURAL_PLANET_LEVEL;\n        }\n\n        // get planet type\n        PlanetType planetType = PlanetType.PLANET;\n        uint8[5] memory weights = gameConstants().PLANET_TYPE_WEIGHTS[uint8(spaceType)][level];\n        uint256[5] memory thresholds;\n        {\n            uint256 weightSum;\n            for (uint8 i = 0; i < weights.length; i++) {\n                weightSum += weights[i];\n            }\n            thresholds[0] = weightSum - weights[0];\n            for (uint8 i = 1; i < weights.length; i++) {\n                thresholds[i] = thresholds[i - 1] - weights[i];\n            }\n            for (uint8 i = 0; i < weights.length; i++) {\n                thresholds[i] = (thresholds[i] * 256) / weightSum;\n            }\n        }\n\n        uint8 typeByte = uint8(_b[8]);\n        for (uint8 i = 0; i < thresholds.length; i++) {\n            if (typeByte >= thresholds[i]) {\n                planetType = PlanetType(i);\n                break;\n            }\n        }\n\n        return (level, planetType, spaceType);\n    }\n\n    function _getRadius() public view returns (uint256) {\n        uint256 nPlayers = gs().playerIds.length;\n        uint256 worldRadiusMin = gameConstants().WORLD_RADIUS_MIN;\n        uint256 target4 = gs().initializedPlanetCountByLevel[4] + 20 * nPlayers;\n        uint256 targetRadiusSquared4 = (target4 * gs().cumulativeRarities[4] * 100) / 314;\n        uint256 r4 =\n            ABDKMath64x64.toUInt(ABDKMath64x64.sqrt(ABDKMath64x64.fromUInt(targetRadiusSquared4)));\n        if (r4 < worldRadiusMin) {\n            return worldRadiusMin;\n        } else {\n            return r4;\n        }\n    }\n\n    function _randomArtifactTypeAndLevelBonus(\n        uint256 artifactSeed,\n        Biome biome,\n        SpaceType spaceType\n    ) internal pure returns (ArtifactType, uint256) {\n        uint256 lastByteOfSeed = artifactSeed % 0xFF;\n        uint256 secondLastByteOfSeed = ((artifactSeed - lastByteOfSeed) / 256) % 0xFF;\n\n        ArtifactType artifactType = ArtifactType.Pyramid;\n\n        if (lastByteOfSeed < 39) {\n            artifactType = ArtifactType.Monolith;\n        } else if (lastByteOfSeed < 78) {\n            artifactType = ArtifactType.Colossus;\n        }\n        // else if (lastByteOfSeed < 117) {\n        //     artifactType = ArtifactType.Spaceship;\n        // }\n        else if (lastByteOfSeed < 156) {\n            artifactType = ArtifactType.Pyramid;\n        } else if (lastByteOfSeed < 171) {\n            artifactType = ArtifactType.Wormhole;\n        } else if (lastByteOfSeed < 186) {\n            artifactType = ArtifactType.PlanetaryShield;\n        } else if (lastByteOfSeed < 201) {\n            artifactType = ArtifactType.PhotoidCannon;\n        } else if (lastByteOfSeed < 216) {\n            artifactType = ArtifactType.BloomFilter;\n        } else if (lastByteOfSeed < 231) {\n            artifactType = ArtifactType.BlackDomain;\n        } else {\n            if (biome == Biome.Ice) {\n                artifactType = ArtifactType.PlanetaryShield;\n            } else if (biome == Biome.Lava) {\n                artifactType = ArtifactType.PhotoidCannon;\n            } else if (biome == Biome.Wasteland) {\n                artifactType = ArtifactType.BloomFilter;\n            } else if (biome == Biome.Corrupted) {\n                artifactType = ArtifactType.BlackDomain;\n            } else {\n                artifactType = ArtifactType.Wormhole;\n            }\n            artifactType = ArtifactType.PhotoidCannon;\n        }\n\n        uint256 bonus = 0;\n        if (secondLastByteOfSeed < 4) {\n            bonus = 2;\n        } else if (secondLastByteOfSeed < 16) {\n            bonus = 1;\n        }\n\n        return (artifactType, bonus);\n    }\n\n    // TODO v0.6: handle corrupted biomes\n    function _getBiome(SpaceType spaceType, uint256 biomebase) public view returns (Biome) {\n        if (spaceType == SpaceType.DEAD_SPACE) {\n            return Biome.Corrupted;\n        }\n\n        uint256 biome = 3 * uint256(spaceType);\n        if (biomebase < gameConstants().BIOME_THRESHOLD_1) biome += 1;\n        else if (biomebase < gameConstants().BIOME_THRESHOLD_2) biome += 2;\n        else biome += 3;\n\n        return Biome(biome);\n    }\n\n    function defaultUpgrade() public pure returns (Upgrade memory) {\n        return\n            Upgrade({\n                popCapMultiplier: 100,\n                popGroMultiplier: 100,\n                rangeMultiplier: 100,\n                speedMultiplier: 100,\n                defMultiplier: 100\n            });\n    }\n\n    function timeDelayUpgrade(Artifact memory artifact) public pure returns (Upgrade memory) {\n        if (artifact.artifactType == ArtifactType.PhotoidCannon) {\n            uint256[6] memory range = [uint256(100), 200, 200, 200, 200, 200];\n            uint256[6] memory speedBoosts = [uint256(100), 500, 1000, 1500, 2000, 2500];\n            return\n                Upgrade({\n                    popCapMultiplier: 100,\n                    popGroMultiplier: 100,\n                    rangeMultiplier: range[uint256(artifact.rarity)],\n                    speedMultiplier: speedBoosts[uint256(artifact.rarity)],\n                    defMultiplier: 100\n                });\n        }\n\n        return defaultUpgrade();\n    }\n\n    /**\n      The upgrade applied to a movement when abandoning a planet.\n     */\n    function abandoningUpgrade() public view returns (Upgrade memory) {\n        return\n            Upgrade({\n                popCapMultiplier: 100,\n                popGroMultiplier: 100,\n                rangeMultiplier: gameConstants().ABANDON_RANGE_CHANGE_PERCENT,\n                speedMultiplier: gameConstants().ABANDON_SPEED_CHANGE_PERCENT,\n                defMultiplier: 100\n            });\n    }\n\n    function _getUpgradeForArtifact(Artifact memory artifact) public pure returns (Upgrade memory) {\n        if (artifact.artifactType == ArtifactType.PlanetaryShield) {\n            uint256[6] memory defenseMultipliersPerRarity = [uint256(100), 150, 200, 300, 450, 650];\n\n            return\n                Upgrade({\n                    popCapMultiplier: 100,\n                    popGroMultiplier: 100,\n                    rangeMultiplier: 20,\n                    speedMultiplier: 20,\n                    defMultiplier: defenseMultipliersPerRarity[uint256(artifact.rarity)]\n                });\n        }\n\n        if (artifact.artifactType == ArtifactType.PhotoidCannon) {\n            uint256[6] memory def = [uint256(100), 50, 40, 30, 20, 10];\n            return\n                Upgrade({\n                    popCapMultiplier: 100,\n                    popGroMultiplier: 100,\n                    rangeMultiplier: 100,\n                    speedMultiplier: 100,\n                    defMultiplier: def[uint256(artifact.rarity)]\n                });\n        }\n\n        if (uint256(artifact.artifactType) >= 5) {\n            return\n                Upgrade({\n                    popCapMultiplier: 100,\n                    popGroMultiplier: 100,\n                    rangeMultiplier: 100,\n                    speedMultiplier: 100,\n                    defMultiplier: 100\n                });\n        }\n\n        Upgrade memory ret =\n            Upgrade({\n                popCapMultiplier: 100,\n                popGroMultiplier: 100,\n                rangeMultiplier: 100,\n                speedMultiplier: 100,\n                defMultiplier: 100\n            });\n\n        if (artifact.artifactType == ArtifactType.Monolith) {\n            ret.popCapMultiplier += 5;\n            ret.popGroMultiplier += 5;\n        } else if (artifact.artifactType == ArtifactType.Colossus) {\n            ret.speedMultiplier += 5;\n        } else if (artifact.artifactType == ArtifactType.Spaceship) {\n            ret.rangeMultiplier += 5;\n        } else if (artifact.artifactType == ArtifactType.Pyramid) {\n            ret.defMultiplier += 5;\n        }\n\n        if (artifact.planetBiome == Biome.Ocean) {\n            ret.speedMultiplier += 5;\n            ret.defMultiplier += 5;\n        } else if (artifact.planetBiome == Biome.Forest) {\n            ret.defMultiplier += 5;\n            ret.popCapMultiplier += 5;\n            ret.popGroMultiplier += 5;\n        } else if (artifact.planetBiome == Biome.Grassland) {\n            ret.popCapMultiplier += 5;\n            ret.popGroMultiplier += 5;\n            ret.rangeMultiplier += 5;\n        } else if (artifact.planetBiome == Biome.Tundra) {\n            ret.defMultiplier += 5;\n            ret.rangeMultiplier += 5;\n        } else if (artifact.planetBiome == Biome.Swamp) {\n            ret.speedMultiplier += 5;\n            ret.rangeMultiplier += 5;\n        } else if (artifact.planetBiome == Biome.Desert) {\n            ret.speedMultiplier += 10;\n        } else if (artifact.planetBiome == Biome.Ice) {\n            ret.rangeMultiplier += 10;\n        } else if (artifact.planetBiome == Biome.Wasteland) {\n            ret.defMultiplier += 10;\n        } else if (artifact.planetBiome == Biome.Lava) {\n            ret.popCapMultiplier += 10;\n            ret.popGroMultiplier += 10;\n        } else if (artifact.planetBiome == Biome.Corrupted) {\n            ret.rangeMultiplier += 5;\n            ret.speedMultiplier += 5;\n            ret.popCapMultiplier += 5;\n            ret.popGroMultiplier += 5;\n        }\n\n        uint256 scale = 1 + (uint256(artifact.rarity) / 2);\n\n        ret.popCapMultiplier = scale * ret.popCapMultiplier - (scale - 1) * 100;\n        ret.popGroMultiplier = scale * ret.popGroMultiplier - (scale - 1) * 100;\n        ret.speedMultiplier = scale * ret.speedMultiplier - (scale - 1) * 100;\n        ret.rangeMultiplier = scale * ret.rangeMultiplier - (scale - 1) * 100;\n        ret.defMultiplier = scale * ret.defMultiplier - (scale - 1) * 100;\n\n        return ret;\n    }\n\n    function artifactRarityFromPlanetLevel(uint256 planetLevel)\n        public\n        pure\n        returns (ArtifactRarity)\n    {\n        if (planetLevel <= 1) return ArtifactRarity.Common;\n        else if (planetLevel <= 3) return ArtifactRarity.Rare;\n        else if (planetLevel <= 5) return ArtifactRarity.Epic;\n        else if (planetLevel <= 7) return ArtifactRarity.Legendary;\n        else return ArtifactRarity.Mythic;\n    }\n\n    // planets can have multiple artifacts on them. this function updates all the\n    // internal contract book-keeping to reflect that the given artifact was\n    // put on. note that this function does not transfer the artifact.\n    function _putArtifactOnPlanet(uint256 artifactId, uint256 locationId) public {\n        gs().artifactIdToPlanetId[artifactId] = locationId;\n        gs().planetArtifacts[locationId].push(artifactId);\n    }\n\n    // planets can have multiple artifacts on them. this function updates all the\n    // internal contract book-keeping to reflect that the given artifact was\n    // taken off the given planet. note that this function does not transfer the\n    // artifact.\n    //\n    // if the given artifact is not on the given planet, reverts\n    // if the given artifact is currently activated, reverts\n    function _takeArtifactOffPlanet(uint256 artifactId, uint256 locationId) public {\n        uint256 artifactsOnThisPlanet = gs().planetArtifacts[locationId].length;\n        bool hadTheArtifact = false;\n\n        for (uint256 i = 0; i < artifactsOnThisPlanet; i++) {\n            if (gs().planetArtifacts[locationId][i] == artifactId) {\n                Artifact memory artifact =\n                    DFArtifactFacet(address(this)).getArtifact(gs().planetArtifacts[locationId][i]);\n\n                require(\n                    !isActivated(artifact),\n                    \"you cannot take an activated artifact off a planet\"\n                );\n\n                gs().planetArtifacts[locationId][i] = gs().planetArtifacts[locationId][\n                    artifactsOnThisPlanet - 1\n                ];\n\n                hadTheArtifact = true;\n                break;\n            }\n        }\n\n        require(hadTheArtifact, \"this artifact was not present on this planet\");\n        gs().artifactIdToPlanetId[artifactId] = 0;\n        gs().planetArtifacts[locationId].pop();\n    }\n\n    // an artifact is only considered 'activated' if this method returns true.\n    // we do not have an `isActive` field on artifact; the times that the\n    // artifact was last activated and deactivated are sufficent to determine\n    // whether or not the artifact is activated.\n    function isActivated(Artifact memory artifact) public pure returns (bool) {\n        return artifact.lastDeactivated < artifact.lastActivated;\n    }\n\n    function isArtifactOnPlanet(uint256 locationId, uint256 artifactId) public returns (bool) {\n        for (uint256 i; i < gs().planetArtifacts[locationId].length; i++) {\n            if (gs().planetArtifacts[locationId][i] == artifactId) {\n                return true;\n            }\n        }\n\n        return false;\n    }\n\n    // if the given artifact is on the given planet, then return the artifact\n    // otherwise, return a 'null' artifact\n    function getPlanetArtifact(uint256 locationId, uint256 artifactId)\n        public\n        view\n        returns (Artifact memory)\n    {\n        for (uint256 i; i < gs().planetArtifacts[locationId].length; i++) {\n            if (gs().planetArtifacts[locationId][i] == artifactId) {\n                return DFArtifactFacet(address(this)).getArtifact(artifactId);\n            }\n        }\n\n        return _nullArtifact();\n    }\n\n    // if the given planet has an activated artifact on it, then return the artifact\n    // otherwise, return a 'null artifact'\n    function getActiveArtifact(uint256 locationId) public view returns (Artifact memory) {\n        for (uint256 i; i < gs().planetArtifacts[locationId].length; i++) {\n            Artifact memory artifact =\n                DFArtifactFacet(address(this)).getArtifact(gs().planetArtifacts[locationId][i]);\n\n            if (isActivated(artifact)) {\n                return artifact;\n            }\n        }\n\n        return _nullArtifact();\n    }\n\n    // the space junk that a planet starts with\n    function getPlanetDefaultSpaceJunk(Planet memory planet) public view returns (uint256) {\n        if (planet.isHomePlanet) return 0;\n\n        return gameConstants().PLANET_LEVEL_JUNK[planet.planetLevel];\n    }\n\n    // constructs a new artifact whose `isInititalized` field is set to `false`\n    // used to represent the concept of 'no artifact'\n    function _nullArtifact() private pure returns (Artifact memory) {\n        return\n            Artifact(\n                false,\n                0,\n                0,\n                ArtifactRarity(0),\n                Biome(0),\n                0,\n                address(0),\n                ArtifactType(0),\n                0,\n                0,\n                0,\n                0,\n                address(0)\n            );\n    }\n\n    function _buffPlanet(uint256 location, Upgrade memory upgrade) public {\n        Planet storage planet = gs().planets[location];\n\n        planet.populationCap = (planet.populationCap * upgrade.popCapMultiplier) / 100;\n        planet.populationGrowth = (planet.populationGrowth * upgrade.popGroMultiplier) / 100;\n        planet.range = (planet.range * upgrade.rangeMultiplier) / 100;\n        planet.speed = (planet.speed * upgrade.speedMultiplier) / 100;\n        planet.defense = (planet.defense * upgrade.defMultiplier) / 100;\n    }\n\n    function _debuffPlanet(uint256 location, Upgrade memory upgrade) public {\n        Planet storage planet = gs().planets[location];\n\n        planet.populationCap = (planet.populationCap * 100) / upgrade.popCapMultiplier;\n        planet.populationGrowth = (planet.populationGrowth * 100) / upgrade.popGroMultiplier;\n        planet.range = (planet.range * 100) / upgrade.rangeMultiplier;\n        planet.speed = (planet.speed * 100) / upgrade.speedMultiplier;\n        planet.defense = (planet.defense * 100) / upgrade.defMultiplier;\n    }\n\n    // planets support a limited amount of incoming arrivals\n    // the owner can send a maximum of 5 arrivals to this planet\n    // separately, everyone other than the owner can also send a maximum\n    // of 5 arrivals in aggregate\n    function checkPlanetDOS(uint256 locationId, address sender) public view {\n        uint8 arrivalsFromOwner = 0;\n        uint8 arrivalsFromOthers = 0;\n\n        for (uint8 i = 0; i < gs().planetEvents[locationId].length; i++) {\n            if (gs().planetEvents[locationId][i].eventType == PlanetEventType.ARRIVAL) {\n                if (\n                    gs().planetArrivals[gs().planetEvents[locationId][i].id].player ==\n                    gs().planets[locationId].owner\n                ) {\n                    arrivalsFromOwner++;\n                } else {\n                    arrivalsFromOthers++;\n                }\n            }\n        }\n        if (sender == gs().planets[locationId].owner) {\n            require(arrivalsFromOwner < 6, \"Planet is rate-limited\");\n        } else {\n            require(arrivalsFromOthers < 6, \"Planet is rate-limited\");\n        }\n\n        require(arrivalsFromOwner + arrivalsFromOthers < 12, \"Planet is rate-limited\");\n    }\n\n    function updateWorldRadius() public {\n        if (!gameConstants().WORLD_RADIUS_LOCKED) {\n            gs().worldRadius = _getRadius();\n        }\n    }\n\n    function isPopCapBoost(uint256 _location) public pure returns (bool) {\n        bytes memory _b = abi.encodePacked(_location);\n        return uint256(uint8(_b[9])) < 16;\n    }\n\n    function isPopGroBoost(uint256 _location) public pure returns (bool) {\n        bytes memory _b = abi.encodePacked(_location);\n        return uint256(uint8(_b[10])) < 16;\n    }\n\n    function isRangeBoost(uint256 _location) public pure returns (bool) {\n        bytes memory _b = abi.encodePacked(_location);\n        return uint256(uint8(_b[11])) < 16;\n    }\n\n    function isSpeedBoost(uint256 _location) public pure returns (bool) {\n        bytes memory _b = abi.encodePacked(_location);\n        return uint256(uint8(_b[12])) < 16;\n    }\n\n    function isDefBoost(uint256 _location) public pure returns (bool) {\n        bytes memory _b = abi.encodePacked(_location);\n        return uint256(uint8(_b[13])) < 16;\n    }\n\n    function isHalfSpaceJunk(uint256 _location) public pure returns (bool) {\n        bytes memory _b = abi.encodePacked(_location);\n        return uint256(uint8(_b[14])) < 16;\n    }\n\n    function _defaultPlanet(\n        uint256 location,\n        uint256 level,\n        PlanetType planetType,\n        SpaceType spaceType,\n        uint256 TIME_FACTOR_HUNDREDTHS\n    ) public view returns (Planet memory _planet) {\n        PlanetDefaultStats storage _planetDefaultStats = LibStorage.planetDefaultStats()[level];\n\n        bool deadSpace = spaceType == SpaceType.DEAD_SPACE;\n        bool deepSpace = spaceType == SpaceType.DEEP_SPACE;\n        bool mediumSpace = spaceType == SpaceType.SPACE;\n\n        _planet.owner = address(0);\n        _planet.planetLevel = level;\n\n        _planet.populationCap = _planetDefaultStats.populationCap;\n        _planet.populationGrowth = _planetDefaultStats.populationGrowth;\n        _planet.range = _planetDefaultStats.range;\n        _planet.speed = _planetDefaultStats.speed;\n        _planet.defense = _planetDefaultStats.defense;\n        _planet.silverCap = _planetDefaultStats.silverCap;\n\n        if (planetType == PlanetType.SILVER_MINE) {\n            _planet.silverGrowth = _planetDefaultStats.silverGrowth;\n        }\n\n        if (isPopCapBoost(location)) {\n            _planet.populationCap *= 2;\n        }\n        if (isPopGroBoost(location)) {\n            _planet.populationGrowth *= 2;\n        }\n        if (isRangeBoost(location)) {\n            _planet.range *= 2;\n        }\n        if (isSpeedBoost(location)) {\n            _planet.speed *= 2;\n        }\n        if (isDefBoost(location)) {\n            _planet.defense *= 2;\n        }\n\n        // space type buffs and debuffs\n        if (deadSpace) {\n            // dead space buff\n            _planet.range = _planet.range * 2;\n            _planet.speed = _planet.speed * 2;\n            _planet.populationCap = _planet.populationCap * 2;\n            _planet.populationGrowth = _planet.populationGrowth * 2;\n            _planet.silverCap = _planet.silverCap * 2;\n            _planet.silverGrowth = _planet.silverGrowth * 2;\n\n            // dead space debuff\n            _planet.defense = (_planet.defense * 3) / 20;\n        } else if (deepSpace) {\n            // deep space buff\n            _planet.range = (_planet.range * 3) / 2;\n            _planet.speed = (_planet.speed * 3) / 2;\n            _planet.populationCap = (_planet.populationCap * 3) / 2;\n            _planet.populationGrowth = (_planet.populationGrowth * 3) / 2;\n            _planet.silverCap = (_planet.silverCap * 3) / 2;\n            _planet.silverGrowth = (_planet.silverGrowth * 3) / 2;\n\n            // deep space debuff\n            _planet.defense = _planet.defense / 4;\n        } else if (mediumSpace) {\n            // buff\n            _planet.range = (_planet.range * 5) / 4;\n            _planet.speed = (_planet.speed * 5) / 4;\n            _planet.populationCap = (_planet.populationCap * 5) / 4;\n            _planet.populationGrowth = (_planet.populationGrowth * 5) / 4;\n            _planet.silverCap = (_planet.silverCap * 5) / 4;\n            _planet.silverGrowth = (_planet.silverGrowth * 5) / 4;\n\n            // debuff\n            _planet.defense = _planet.defense / 2;\n        }\n\n        // apply buffs/debuffs for nonstandard planets\n        // generally try to make division happen later than multiplication to avoid weird rounding\n        _planet.planetType = planetType;\n\n        if (planetType == PlanetType.SILVER_MINE) {\n            _planet.silverCap *= 2;\n            _planet.defense /= 2;\n        } else if (planetType == PlanetType.SILVER_BANK) {\n            _planet.speed /= 2;\n            _planet.silverCap *= 10;\n            _planet.populationGrowth = 0;\n            _planet.populationCap *= 5;\n        } else if (planetType == PlanetType.TRADING_POST) {\n            _planet.defense /= 2;\n            _planet.silverCap *= 2;\n        }\n\n        // initial population (pirates) and silver\n        _planet.population =\n            (_planet.populationCap * _planetDefaultStats.barbarianPercentage) /\n            100;\n\n        // pirates adjusted for def debuffs, and buffed in space/deepspace\n        if (deadSpace) {\n            _planet.population *= 20;\n        } else if (deepSpace) {\n            _planet.population *= 10;\n        } else if (mediumSpace) {\n            _planet.population *= 4;\n        }\n        if (planetType == PlanetType.SILVER_BANK) {\n            _planet.population /= 2;\n        }\n\n        // Adjust silver cap for mine\n        if (planetType == PlanetType.SILVER_MINE) {\n            _planet.silver = _planet.silverCap / 2;\n        }\n\n        // apply time factor\n        _planet.speed *= TIME_FACTOR_HUNDREDTHS / 100;\n        _planet.populationGrowth *= TIME_FACTOR_HUNDREDTHS / 100;\n        _planet.silverGrowth *= TIME_FACTOR_HUNDREDTHS / 100;\n    }\n}\n",
  "sourcePath": "/home/terra/opensource/tosca-chain/smart-contract-example/contracts/libraries/LibGameUtils.sol",
  "compiler": {
    "name": "solc",
    "version": "0.8.13+commit.abaa5c0e.Emscripten.clang"
  },
  "schemaVersion": "3.4.7",
  "updatedAt": "2022-04-30T15:27:25.878Z",
  "devdoc": {
    "kind": "dev",
    "methods": {},
    "version": 1
  },
  "userdoc": {
    "kind": "user",
    "methods": {
      "abandoningUpgrade()": {
        "notice": "The upgrade applied to a movement when abandoning a planet."
      }
    },
    "version": 1
  }
}