{
  "_format": "hh-sol-artifact-1",
  "contractName": "HookBidPool",
  "sourceName": "contracts/HookBidPool.sol",
  "abi": [
    {
      "inputs": [
        {
          "internalType": "address",
          "name": "_weth",
          "type": "address"
        },
        {
          "internalType": "address",
          "name": "_initialAdmin",
          "type": "address"
        },
        {
          "internalType": "address",
          "name": "_priceOracleSigner",
          "type": "address"
        },
        {
          "internalType": "address",
          "name": "_orderValidityOracleSigner",
          "type": "address"
        },
        {
          "internalType": "uint64",
          "name": "_feeBips",
          "type": "uint64"
        },
        {
          "internalType": "address",
          "name": "_feeRecipient",
          "type": "address"
        },
        {
          "internalType": "address",
          "name": "_protocol",
          "type": "address"
        }
      ],
      "stateMutability": "nonpayable",
      "type": "constructor"
    },
    {
      "inputs": [],
      "name": "InvalidShortString",
      "type": "error"
    },
    {
      "inputs": [
        {
          "internalType": "string",
          "name": "str",
          "type": "string"
        }
      ],
      "name": "StringTooLong",
      "type": "error"
    },
    {
      "anonymous": false,
      "inputs": [],
      "name": "EIP712DomainChanged",
      "type": "event"
    },
    {
      "anonymous": false,
      "inputs": [
        {
          "indexed": false,
          "internalType": "uint64",
          "name": "feeBips",
          "type": "uint64"
        }
      ],
      "name": "FeesUpdated",
      "type": "event"
    },
    {
      "anonymous": false,
      "inputs": [
        {
          "indexed": false,
          "internalType": "address",
          "name": "maker",
          "type": "address"
        },
        {
          "indexed": false,
          "internalType": "bytes32",
          "name": "orderHash",
          "type": "bytes32"
        }
      ],
      "name": "OrderCancelled",
      "type": "event"
    },
    {
      "anonymous": false,
      "inputs": [
        {
          "indexed": false,
          "internalType": "address",
          "name": "maker",
          "type": "address"
        },
        {
          "indexed": false,
          "internalType": "address",
          "name": "taker",
          "type": "address"
        },
        {
          "indexed": false,
          "internalType": "bytes32",
          "name": "orderHash",
          "type": "bytes32"
        },
        {
          "indexed": false,
          "internalType": "uint256",
          "name": "proceeds",
          "type": "uint256"
        },
        {
          "indexed": false,
          "internalType": "uint256",
          "name": "fees",
          "type": "uint256"
        },
        {
          "indexed": false,
          "internalType": "address",
          "name": "optionContract",
          "type": "address"
        },
        {
          "indexed": false,
          "internalType": "uint256",
          "name": "optionId",
          "type": "uint256"
        }
      ],
      "name": "OrderFilled",
      "type": "event"
    },
    {
      "anonymous": false,
      "inputs": [
        {
          "indexed": false,
          "internalType": "address",
          "name": "oracle",
          "type": "address"
        }
      ],
      "name": "OrderValidityOracleSignerUpdated",
      "type": "event"
    },
    {
      "anonymous": false,
      "inputs": [
        {
          "indexed": false,
          "internalType": "bool",
          "name": "newState",
          "type": "bool"
        }
      ],
      "name": "PauseUpdated",
      "type": "event"
    },
    {
      "anonymous": false,
      "inputs": [
        {
          "indexed": false,
          "internalType": "address",
          "name": "oracle",
          "type": "address"
        }
      ],
      "name": "PriceOracleSignerUpdated",
      "type": "event"
    },
    {
      "anonymous": false,
      "inputs": [
        {
          "indexed": false,
          "internalType": "address",
          "name": "protocol",
          "type": "address"
        }
      ],
      "name": "ProtocolAddressSet",
      "type": "event"
    },
    {
      "anonymous": false,
      "inputs": [
        {
          "indexed": false,
          "internalType": "address",
          "name": "recipient",
          "type": "address"
        }
      ],
      "name": "ProtocolFeeRecipientUpdated",
      "type": "event"
    },
    {
      "anonymous": false,
      "inputs": [
        {
          "indexed": true,
          "internalType": "bytes32",
          "name": "role",
          "type": "bytes32"
        },
        {
          "indexed": true,
          "internalType": "bytes32",
          "name": "previousAdminRole",
          "type": "bytes32"
        },
        {
          "indexed": true,
          "internalType": "bytes32",
          "name": "newAdminRole",
          "type": "bytes32"
        }
      ],
      "name": "RoleAdminChanged",
      "type": "event"
    },
    {
      "anonymous": false,
      "inputs": [
        {
          "indexed": true,
          "internalType": "bytes32",
          "name": "role",
          "type": "bytes32"
        },
        {
          "indexed": true,
          "internalType": "address",
          "name": "account",
          "type": "address"
        },
        {
          "indexed": true,
          "internalType": "address",
          "name": "sender",
          "type": "address"
        }
      ],
      "name": "RoleGranted",
      "type": "event"
    },
    {
      "anonymous": false,
      "inputs": [
        {
          "indexed": true,
          "internalType": "bytes32",
          "name": "role",
          "type": "bytes32"
        },
        {
          "indexed": true,
          "internalType": "address",
          "name": "account",
          "type": "address"
        },
        {
          "indexed": true,
          "internalType": "address",
          "name": "sender",
          "type": "address"
        }
      ],
      "name": "RoleRevoked",
      "type": "event"
    },
    {
      "inputs": [],
      "name": "DEFAULT_ADMIN_ROLE",
      "outputs": [
        {
          "internalType": "bytes32",
          "name": "",
          "type": "bytes32"
        }
      ],
      "stateMutability": "view",
      "type": "function"
    },
    {
      "inputs": [],
      "name": "FEES_ROLE",
      "outputs": [
        {
          "internalType": "bytes32",
          "name": "",
          "type": "bytes32"
        }
      ],
      "stateMutability": "view",
      "type": "function"
    },
    {
      "inputs": [],
      "name": "ORACLE_ROLE",
      "outputs": [
        {
          "internalType": "bytes32",
          "name": "",
          "type": "bytes32"
        }
      ],
      "stateMutability": "view",
      "type": "function"
    },
    {
      "inputs": [],
      "name": "PAUSER_ROLE",
      "outputs": [
        {
          "internalType": "bytes32",
          "name": "",
          "type": "bytes32"
        }
      ],
      "stateMutability": "view",
      "type": "function"
    },
    {
      "inputs": [],
      "name": "PROTOCOL_ROLE",
      "outputs": [
        {
          "internalType": "bytes32",
          "name": "",
          "type": "bytes32"
        }
      ],
      "stateMutability": "view",
      "type": "function"
    },
    {
      "inputs": [
        {
          "components": [
            {
              "internalType": "enum PoolOrders.OrderDirection",
              "name": "direction",
              "type": "uint8"
            },
            {
              "internalType": "address",
              "name": "maker",
              "type": "address"
            },
            {
              "internalType": "uint256",
              "name": "orderExpiry",
              "type": "uint256"
            },
            {
              "internalType": "uint256",
              "name": "nonce",
              "type": "uint256"
            },
            {
              "internalType": "uint8",
              "name": "size",
              "type": "uint8"
            },
            {
              "internalType": "enum PoolOrders.OptionType",
              "name": "optionType",
              "type": "uint8"
            },
            {
              "internalType": "uint256",
              "name": "maxStrikePriceMultiple",
              "type": "uint256"
            },
            {
              "internalType": "uint64",
              "name": "minOptionDuration",
              "type": "uint64"
            },
            {
              "internalType": "uint64",
              "name": "maxOptionDuration",
              "type": "uint64"
            },
            {
              "internalType": "uint64",
              "name": "maxPriceSignalAge",
              "type": "uint64"
            },
            {
              "components": [
                {
                  "internalType": "contract IPropertyValidator",
                  "name": "propertyValidator",
                  "type": "address"
                },
                {
                  "internalType": "bytes",
                  "name": "propertyData",
                  "type": "bytes"
                }
              ],
              "internalType": "struct PoolOrders.Property[]",
              "name": "nftProperties",
              "type": "tuple[]"
            },
            {
              "internalType": "address",
              "name": "optionMarketAddress",
              "type": "address"
            },
            {
              "internalType": "uint64",
              "name": "impliedVolBips",
              "type": "uint64"
            },
            {
              "internalType": "uint256",
              "name": "skewDecimal",
              "type": "uint256"
            },
            {
              "internalType": "uint64",
              "name": "riskFreeRateBips",
              "type": "uint64"
            }
          ],
          "internalType": "struct PoolOrders.Order",
          "name": "order",
          "type": "tuple"
        }
      ],
      "name": "cancelOrder",
      "outputs": [],
      "stateMutability": "nonpayable",
      "type": "function"
    },
    {
      "inputs": [],
      "name": "eip712Domain",
      "outputs": [
        {
          "internalType": "bytes1",
          "name": "fields",
          "type": "bytes1"
        },
        {
          "internalType": "string",
          "name": "name",
          "type": "string"
        },
        {
          "internalType": "string",
          "name": "version",
          "type": "string"
        },
        {
          "internalType": "uint256",
          "name": "chainId",
          "type": "uint256"
        },
        {
          "internalType": "address",
          "name": "verifyingContract",
          "type": "address"
        },
        {
          "internalType": "bytes32",
          "name": "salt",
          "type": "bytes32"
        },
        {
          "internalType": "uint256[]",
          "name": "extensions",
          "type": "uint256[]"
        }
      ],
      "stateMutability": "view",
      "type": "function"
    },
    {
      "inputs": [
        {
          "internalType": "bytes32",
          "name": "role",
          "type": "bytes32"
        }
      ],
      "name": "getRoleAdmin",
      "outputs": [
        {
          "internalType": "bytes32",
          "name": "",
          "type": "bytes32"
        }
      ],
      "stateMutability": "view",
      "type": "function"
    },
    {
      "inputs": [
        {
          "internalType": "bytes32",
          "name": "role",
          "type": "bytes32"
        },
        {
          "internalType": "address",
          "name": "account",
          "type": "address"
        }
      ],
      "name": "grantRole",
      "outputs": [],
      "stateMutability": "nonpayable",
      "type": "function"
    },
    {
      "inputs": [
        {
          "internalType": "bytes32",
          "name": "role",
          "type": "bytes32"
        },
        {
          "internalType": "address",
          "name": "account",
          "type": "address"
        }
      ],
      "name": "hasRole",
      "outputs": [
        {
          "internalType": "bool",
          "name": "",
          "type": "bool"
        }
      ],
      "stateMutability": "view",
      "type": "function"
    },
    {
      "inputs": [
        {
          "internalType": "bytes32",
          "name": "role",
          "type": "bytes32"
        },
        {
          "internalType": "address",
          "name": "account",
          "type": "address"
        }
      ],
      "name": "renounceRole",
      "outputs": [],
      "stateMutability": "nonpayable",
      "type": "function"
    },
    {
      "inputs": [
        {
          "internalType": "bytes32",
          "name": "role",
          "type": "bytes32"
        },
        {
          "internalType": "address",
          "name": "account",
          "type": "address"
        }
      ],
      "name": "revokeRole",
      "outputs": [],
      "stateMutability": "nonpayable",
      "type": "function"
    },
    {
      "inputs": [
        {
          "components": [
            {
              "internalType": "enum PoolOrders.OrderDirection",
              "name": "direction",
              "type": "uint8"
            },
            {
              "internalType": "address",
              "name": "maker",
              "type": "address"
            },
            {
              "internalType": "uint256",
              "name": "orderExpiry",
              "type": "uint256"
            },
            {
              "internalType": "uint256",
              "name": "nonce",
              "type": "uint256"
            },
            {
              "internalType": "uint8",
              "name": "size",
              "type": "uint8"
            },
            {
              "internalType": "enum PoolOrders.OptionType",
              "name": "optionType",
              "type": "uint8"
            },
            {
              "internalType": "uint256",
              "name": "maxStrikePriceMultiple",
              "type": "uint256"
            },
            {
              "internalType": "uint64",
              "name": "minOptionDuration",
              "type": "uint64"
            },
            {
              "internalType": "uint64",
              "name": "maxOptionDuration",
              "type": "uint64"
            },
            {
              "internalType": "uint64",
              "name": "maxPriceSignalAge",
              "type": "uint64"
            },
            {
              "components": [
                {
                  "internalType": "contract IPropertyValidator",
                  "name": "propertyValidator",
                  "type": "address"
                },
                {
                  "internalType": "bytes",
                  "name": "propertyData",
                  "type": "bytes"
                }
              ],
              "internalType": "struct PoolOrders.Property[]",
              "name": "nftProperties",
              "type": "tuple[]"
            },
            {
              "internalType": "address",
              "name": "optionMarketAddress",
              "type": "address"
            },
            {
              "internalType": "uint64",
              "name": "impliedVolBips",
              "type": "uint64"
            },
            {
              "internalType": "uint256",
              "name": "skewDecimal",
              "type": "uint256"
            },
            {
              "internalType": "uint64",
              "name": "riskFreeRateBips",
              "type": "uint64"
            }
          ],
          "internalType": "struct PoolOrders.Order",
          "name": "order",
          "type": "tuple"
        },
        {
          "internalType": "bytes",
          "name": "orderSignature",
          "type": "bytes"
        },
        {
          "components": [
            {
              "internalType": "uint256",
              "name": "assetPriceInWei",
              "type": "uint256"
            },
            {
              "internalType": "uint256",
              "name": "priceObservedTimestamp",
              "type": "uint256"
            },
            {
              "internalType": "uint256",
              "name": "goodTilTimestamp",
              "type": "uint256"
            },
            {
              "internalType": "bytes",
              "name": "signature",
              "type": "bytes"
            }
          ],
          "internalType": "struct HookBidPool.AssetPriceClaim",
          "name": "assetPrice",
          "type": "tuple"
        },
        {
          "components": [
            {
              "internalType": "bytes32",
              "name": "orderHash",
              "type": "bytes32"
            },
            {
              "internalType": "uint256",
              "name": "goodTilTimestamp",
              "type": "uint256"
            },
            {
              "internalType": "bytes",
              "name": "signature",
              "type": "bytes"
            }
          ],
          "internalType": "struct HookBidPool.OrderValidityOracleClaim",
          "name": "orderValidityOracleClaim",
          "type": "tuple"
        },
        {
          "internalType": "uint256",
          "name": "saleProceeds",
          "type": "uint256"
        },
        {
          "internalType": "uint256",
          "name": "optionId",
          "type": "uint256"
        }
      ],
      "name": "sellOption",
      "outputs": [],
      "stateMutability": "nonpayable",
      "type": "function"
    },
    {
      "inputs": [
        {
          "internalType": "uint64",
          "name": "_feeBips",
          "type": "uint64"
        }
      ],
      "name": "setFeeBips",
      "outputs": [],
      "stateMutability": "nonpayable",
      "type": "function"
    },
    {
      "inputs": [
        {
          "internalType": "address",
          "name": "_feeRecipient",
          "type": "address"
        }
      ],
      "name": "setFeeRecipient",
      "outputs": [],
      "stateMutability": "nonpayable",
      "type": "function"
    },
    {
      "inputs": [
        {
          "internalType": "address",
          "name": "_orderValidityOracleSigner",
          "type": "address"
        }
      ],
      "name": "setOrderValidityOracleSigner",
      "outputs": [],
      "stateMutability": "nonpayable",
      "type": "function"
    },
    {
      "inputs": [
        {
          "internalType": "bool",
          "name": "_paused",
          "type": "bool"
        }
      ],
      "name": "setPoolPaused",
      "outputs": [],
      "stateMutability": "nonpayable",
      "type": "function"
    },
    {
      "inputs": [
        {
          "internalType": "address",
          "name": "_priceOracleSigner",
          "type": "address"
        }
      ],
      "name": "setPriceOracleSigner",
      "outputs": [],
      "stateMutability": "nonpayable",
      "type": "function"
    },
    {
      "inputs": [
        {
          "internalType": "address",
          "name": "_protocol",
          "type": "address"
        }
      ],
      "name": "setProtocol",
      "outputs": [],
      "stateMutability": "nonpayable",
      "type": "function"
    },
    {
      "inputs": [
        {
          "internalType": "bytes4",
          "name": "interfaceId",
          "type": "bytes4"
        }
      ],
      "name": "supportsInterface",
      "outputs": [
        {
          "internalType": "bool",
          "name": "",
          "type": "bool"
        }
      ],
      "stateMutability": "view",
      "type": "function"
    }
  ],
  "bytecode": "0x6101806040523480156200001257600080fd5b5060405162003ffb38038062003ffb8339810160408190526200003591620007ad565b60405180604001604052806004815260200163486f6f6b60e01b815250604051806040016040528060058152602001640312e302e360dc1b8152506200008b600083620005ab60201b62000ca51790919060201c565b61012052620000a8816001620005ab602090811b62000ca517901c565b61014052815160208084019190912060e052815190820120610100524660a0526200013660e05161010051604080517f8b73c3c69bb8fe3d512ecc4cf759cc79239f7b179b0ffacaa9a75d522b39400f60208201529081019290925260608201524660808201523060a082015260009060c00160405160208183030381529060405280519060200120905090565b60805250503060c05260016002556001600160a01b038516620001b35760405162461bcd60e51b815260206004820152602a60248201527f5072696365206f7261636c65207369676e65722063616e6e6f74206265207a65604482015269726f206164647265737360b01b60648201526084015b60405180910390fd5b6001600160a01b038416620002315760405162461bcd60e51b815260206004820152603360248201527f4f726465722076616c6964697479206f7261636c65207369676e65722063616e60448201527f6e6f74206265207a65726f2061646472657373000000000000000000000000006064820152608401620001aa565b6001600160a01b038616620002955760405162461bcd60e51b8152602060048201526024808201527f496e697469616c2061646d696e2063616e6e6f74206265207a65726f206164646044820152637265737360e01b6064820152608401620001aa565b6001600160a01b038216620002f95760405162461bcd60e51b8152602060048201526024808201527f46656520726563697069656e742063616e6e6f74206265207a65726f206164646044820152637265737360e01b6064820152608401620001aa565b6001600160a01b0387811661016052600580546001600160a01b031990811688841617909155600680548784166001600160e01b031990911617600160a01b6001600160401b0388168102919091179091556007805460048054909416868616179093559285166001600160a81b0319909216919091171790556200039f7f68e79a7bf1e0bc45d0a330c573bc367f9cf464fd326078812f301165fbda4ef187620005ff565b620003cb7f65d7a28e3265b37a6474929f336521b332c1681b933f6cb9f3376673440d862a87620005ff565b620003f77fba279271fb7bbf76a6f3df3cc57bf80647fcafdea60ec3383d90f459de74e7c087620005ff565b620004237fe2b0d6eac44bd89c98f9198715d9545150fc431fdbb7bf3aee5d285561121d0a87620005ff565b62000430600087620005ff565b600754604051600160a01b90910460ff16151581527f77860e247ab9186dbe64e5bd0e0b93273cc4273e01818420e788f500078886f59060200160405180910390a16040516001600160401b03841681527f467ddfecd8e8d3d312ddc45d7ca685faedd6f2d3a5a729b02666d5ebf2f2afb29060200160405180910390a16040516001600160a01b03821681527f1b95d297874c15a1a61f448b3d75e73df3e1db34cca1a51ea6a37e8f2afa5a879060200160405180910390a16040516001600160a01b03831681527fc1b5345cce283376356748dc57f2dfa7120431d016fc7ca9ba641bc65f91411d9060200160405180910390a16040516001600160a01b03861681527fd7d2b1aefee38313014bdd313761a1c3a1a908f2fb337c9db0fc1a6039e8ab4b9060200160405180910390a16040516001600160a01b03851681527f409c6e067a92cefc6f8c36c438b5a54be17f7948e78c303cfea005ff906b81639060200160405180910390a15050505050505062000907565b6000602083511015620005cb57620005c383620006a4565b9050620005f9565b82620005e283620006e760201b62000cdc1760201c565b8151620005f39260200190620006ea565b5060ff90505b92915050565b60008281526003602090815260408083206001600160a01b038516845290915290205460ff16620006a05760008281526003602090815260408083206001600160a01b03851684529091529020805460ff191660011790556200065f3390565b6001600160a01b0316816001600160a01b0316837f2f8788117e7eff1d82e926ec794901d17c78024a50270940304540a733656f0d60405160405180910390a45b5050565b600080829050601f81511115620006d2578260405163305a27a960e01b8152600401620001aa919062000850565b8051620006df82620008a8565b179392505050565b90565b828054620006f890620008d0565b90600052602060002090601f0160209004810192826200071c576000855562000767565b82601f106200073757805160ff191683800117855562000767565b8280016001018555821562000767579182015b82811115620007675782518255916020019190600101906200074a565b506200077592915062000779565b5090565b5b808211156200077557600081556001016200077a565b80516001600160a01b0381168114620007a857600080fd5b919050565b600080600080600080600060e0888a031215620007c957600080fd5b620007d48862000790565b9650620007e46020890162000790565b9550620007f46040890162000790565b9450620008046060890162000790565b60808901519094506001600160401b03811681146200082257600080fd5b92506200083260a0890162000790565b91506200084260c0890162000790565b905092959891949750929550565b600060208083528351808285015260005b818110156200087f5785810183015185820160400152820162000861565b8181111562000892576000604083870101525b50601f01601f1916929092016040019392505050565b80516020808301519190811015620008ca576000198160200360031b1b821691505b50919050565b600181811c90821680620008e557607f821691505b60208210811415620008ca57634e487b7160e01b600052602260045260246000fd5b60805160a05160c05160e05161010051610120516101405161016051613687620009746000396000818161088901526108e701526000610a0a015260006109e00152600061184f0152600061182701526000611782015260006117ac015260006117d601526136876000f3fe608060405234801561001057600080fd5b50600436106100fc5760003560e01c806301ffc9a71461010157806302768de41461012957806304a4cb7d1461014c57806307e2cea5146101615780630a9d793d14610176578063248a9ca3146101895780632a1ea7851461019c5780632f2ff15d146101af57806334bf8d30146101c257806336568abe146101d55780638214cadb146101e857806384b0196e146101fb5780638e3ba26f1461021657806391d14854146102295780639c13d5391461023c578063a217fddf1461024f578063d547741f14610257578063e04803871461026a578063e63ab1e91461027f578063e74b981b14610294575b600080fd5b61011461010f36600461292d565b6102a7565b60405190151581526020015b60405180910390f35b61013e6000805160206135f283398151915281565b604051908152602001610120565b61015f61015a366004612970565b6102de565b005b61013e6000805160206135d283398151915281565b61015f6101843660046129c9565b6103f6565b61013e6101973660046129e6565b610459565b61015f6101aa366004612a16565b61046e565b61015f6101bd366004612a31565b610531565b61015f6101d0366004612a6f565b610552565b61015f6101e3366004612a31565b61061c565b61015f6101f6366004612af1565b61069a565b6102036109d2565b6040516101209796959493929190612c0e565b61015f6102243660046129c9565b610a5a565b610114610237366004612a31565b610b2f565b61015f61024a3660046129c9565b610b5a565b61013e600081565b61015f610265366004612a31565b610c26565b61013e60008051602061363283398151915281565b61013e60008051602061361283398151915281565b61015f6102a23660046129c9565b610c42565b60006001600160e01b03198216637965db0b60e01b14806102d857506301ffc9a760e01b6001600160e01b03198316145b92915050565b6102ee60408201602083016129c9565b6001600160a01b0316336001600160a01b0316146103655760405162461bcd60e51b815260206004820152602960248201527f4f6e6c7920746865206f72646572206d616b65722063616e2063616e63656c206044820152683a34329037b93232b960b91b60648201526084015b60405180910390fd5b600061038061037b61037684612e9a565b610cdf565b610d21565b600081815260096020908152604091829020805460ff191660011790559192507f35974c4230d53fb4c6e8553fd900c88ba92747dbc689a79bcd6ba755cb936985916103d09185019085016129c9565b604080516001600160a01b03909216825260208201849052015b60405180910390a15050565b6000805160206135f283398151915261040e81610d4e565b600480546001600160a01b0319166001600160a01b0384161790556040517f1b95d297874c15a1a61f448b3d75e73df3e1db34cca1a51ea6a37e8f2afa5a87906103ea908490612fba565b60009081526003602052604090206001015490565b60008051602061363283398151915261048681610d4e565b612710826001600160401b031611156104d75760405162461bcd60e51b815260206004820152601360248201527204665652062697073206f76657220313030303606c1b604482015260640161035c565b60068054600160a01b600160e01b031916600160a01b6001600160401b038516908102919091179091556040519081527f467ddfecd8e8d3d312ddc45d7ca685faedd6f2d3a5a729b02666d5ebf2f2afb2906020016103ea565b61053a82610459565b61054381610d4e565b61054d8383610d5b565b505050565b60008051602061361283398151915261056a81610d4e565b60075460ff600160a01b9091041615158215146105c75760405162461bcd60e51b815260206004820152601b60248201527a63616e6e6f742073657420746f2063757272656e7420737461746560281b604482015260640161035c565b6007805460ff60a01b1916600160a01b8415158102919091179182905560405160ff9190920416151581527f77860e247ab9186dbe64e5bd0e0b93273cc4273e01818420e788f500078886f5906020016103ea565b6001600160a01b038116331461068c5760405162461bcd60e51b815260206004820152602f60248201527f416363657373436f6e74726f6c3a2063616e206f6e6c792072656e6f756e636560448201526e103937b632b9903337b91039b2b63360891b606482015260840161035c565b6106968282610de1565b5050565b6106a2610e48565b600754600160a01b900460ff16156106ec5760405162461bcd60e51b815260206004820152600d60248201526c1b585c9ad95d081c185d5cd959609a1b604482015260640161035c565b6004805460408051635b67d9ab60e01b815290516001600160a01b0390921692635b67d9ab92828201926000929082900301818387803b15801561072f57600080fd5b505af1158015610743573d6000803e3d6000fd5b50505050600061075961037b8961037690612e9a565b905060008061076d8a848b8b8b8b8a610ea0565b915091506000806107818c8a86868b611383565b91509150818110156107df5760405162461bcd60e51b815260206004820152602160248201527f6f72646572206e6f74206869676820656e6f75676820666f72207468652061736044820152606b60f81b606482015260840161035c565b60006107f36101808e016101608f016129c9565b9050806001600160a01b03166342842e0e338f602001602081019061081891906129c9565b8a6040518463ffffffff1660e01b815260040161083793929190612fce565b600060405180830381600087803b15801561085157600080fd5b505af1158015610865573d6000803e3d6000fd5b505050506108b18d602001602081019061087f91906129c9565b6001600160a01b037f00000000000000000000000000000000000000000000000000000000000000001690338b611534565b61090f8d60200160208101906108c791906129c9565b6007546001600160a01b03166108dd8b87613008565b6001600160a01b037f000000000000000000000000000000000000000000000000000000000000000016929190611534565b600086815260086020526040812080546001929061092e90849061301f565b925050819055507fbf126b8fa101f4e0fc17d10956c04860c0e041987f55adf64c91720a95fd6aa38d602001602081019061096991906129c9565b33888b6109768189613008565b604080516001600160a01b03968716815294861660208601528401929092526060830152608082015290831660a082015260c0810189905260e00160405180910390a15050505050506109c96001600255565b50505050505050565b600060608082808083610a057f000000000000000000000000000000000000000000000000000000000000000083611592565b610a307f00000000000000000000000000000000000000000000000000000000000000006001611592565b60408051600080825260208201909252600f60f81b9b939a50919850469750309650945092509050565b6000805160206135d2833981519152610a7281610d4e565b6001600160a01b038216610ae45760405162461bcd60e51b815260206004820152603360248201527f4f726465722076616c6964697479206f7261636c65207369676e65722063616e6044820152726e6f74206265207a65726f206164647265737360681b606482015260840161035c565b600680546001600160a01b0319166001600160a01b0384161790556040517f409c6e067a92cefc6f8c36c438b5a54be17f7948e78c303cfea005ff906b8163906103ea908490612fba565b60009182526003602090815260408084206001600160a01b0393909316845291905290205460ff1690565b6000805160206135d2833981519152610b7281610d4e565b6001600160a01b038216610bdb5760405162461bcd60e51b815260206004820152602a60248201527f5072696365206f7261636c65207369676e65722063616e6e6f74206265207a65604482015269726f206164647265737360b01b606482015260840161035c565b600580546001600160a01b0319166001600160a01b0384161790556040517fd7d2b1aefee38313014bdd313761a1c3a1a908f2fb337c9db0fc1a6039e8ab4b906103ea908490612fba565b610c2f82610459565b610c3881610d4e565b61054d8383610de1565b600080516020613632833981519152610c5a81610d4e565b600780546001600160a01b0319166001600160a01b0384161790556040517fc1b5345cce283376356748dc57f2dfa7120431d016fc7ca9ba641bc65f91411d906103ea908490612fba565b6000602083511015610cc157610cba83611636565b90506102d8565b82828151610cd29260200190612894565b5060ff90506102d8565b90565b6000610cea82611674565b610cf3836116e2565b604051602001610d04929190613037565b604051602081830303815290604052805190602001209050919050565b60006102d8610d2e611775565b8360405161190160f01b8152600281019290925260228201526042902090565b610d5881336118a5565b50565b610d658282610b2f565b6106965760008281526003602090815260408083206001600160a01b03851684529091529020805460ff19166001179055610d9d3390565b6001600160a01b0316816001600160a01b0316837f2f8788117e7eff1d82e926ec794901d17c78024a50270940304540a733656f0d60405160405180910390a45050565b610deb8282610b2f565b156106965760008281526003602090815260408083206001600160a01b0385168085529252808320805460ff1916905551339285917ff6391f5c32d9c69d2a47ea670b442974b53935d1edc7fd64eb21e047a839171b9190a45050565b600280541415610e9a5760405162461bcd60e51b815260206004820152601f60248201527f5265656e7472616e637947756172643a207265656e7472616e742063616c6c00604482015260640161035c565b60028055565b600080610ead84896118fe565b610ec888610ec160408c0160208d016129c9565b8989611a18565b610ed185611b84565b610ee36101408a016101208b01612a16565b6001600160401b03161580610f1f57506020850135610f0a6101408b016101208c01612a16565b610f1d906001600160401b031642613008565b105b610f655760405162461bcd60e51b8152602060048201526017602482015276141c9a58d9481cda59db985b081a5cc81d1bdbc81bdb19604a1b604482015260640161035c565b60008881526009602052604090205460ff1615610fb95760405162461bcd60e51b815260206004820152601260248201527113dc99195c881a5cc818d85b98d95b1b195960721b604482015260640161035c565b610fc960a08a0160808b01613066565b60ff16600860008a8152602001908152602001600020541061101f5760405162461bcd60e51b815260206004820152600f60248201526e13dc99195c881a5cc8199a5b1b1959608a1b604482015260640161035c565b428960400135116110655760405162461bcd60e51b815260206004820152601060248201526f13dc99195c881a5cc8195e1c1a5c995960821b604482015260640161035c565b600061107460208b018b613097565b600181111561108557611085613081565b146110cd5760405162461bcd60e51b815260206004820152601860248201527727b93232b91034b9903737ba103090313abc9037b93232b960411b604482015260640161035c565b60006110e16101808b016101608c016129c9565b6040516311edb68160e11b8152600481018690529091506001600160a01b038216906323db6d0290602401602060405180830381865afa158015611129573d6000803e3d6000fd5b505050506040513d601f19601f8201168201806040525081019061114d91906130b4565b60405163a05b775f60e01b8152600481018690529092506001600160a01b0382169063a05b775f90602401602060405180830381865afa158015611195573d6000803e3d6000fd5b505050506040513d601f19601f820116820180604052508101906111b991906130b4565b92506111cd6111c78b612e9a565b85611c51565b826111df6101008c0160e08d01612a16565b6111f2906001600160401b03164261301f565b1061124d5760405162461bcd60e51b815260206004820152602560248201527f4f7074696f6e20697320746f6f20636c6f736520746f206f7220706173742065604482015264787069727960d81b606482015260840161035c565b61125f6101208b016101008c01612a16565b6001600160401b031615806112975750826112826101208c016101008d01612a16565b611295906001600160401b03164261301f565b115b6112e35760405162461bcd60e51b815260206004820152601d60248201527f4f7074696f6e20697320746f6f206661722066726f6d20657870697279000000604482015260640161035c565b60c08a0135158061131f575060c08a01358635670de0b6b3a76400006113098286613008565b61131391906130cd565b61131d91906130ec565b105b6113765760405162461bcd60e51b815260206004820152602260248201527f6f7074696f6e20697320746f6f20666172206f7574206f6620746865206d6f6e604482015261657960f01b606482015260840161035c565b5097509795505050505050565b6006546000908190612710906113a990600160a01b90046001600160401b03168261301f565b6113b390856130cd565b6113bd91906130ec565b915060006113d58588356113d08b612e9a565b611d9c565b905060006113ed612710670de0b6b3a76400006130ec565b6113ff6101e08b016101c08c01612a16565b6001600160401b031661141291906130cd565b905060008073__$723f5b2a8b7f4ec3661c0870dc8374bee6$__63b6e62e596040518060a00160405280428d6114489190613008565b815260208082018990528e3560408084019190915260608084018f905260809384018a905281516001600160e01b031960e088901b168152855160048201529285015160248401529084015160448301528301516064820152910151608482015260a4016040805180830381865af41580156114c8573d6000803e3d6000fd5b505050506040513d601f19601f820116820180604052508101906114ec919061310e565b9092509050600061150360c08d0160a08e01613097565b600181111561151457611514613081565b141561152257819450611526565b8094505b505050509550959350505050565b61158c846323b872dd60e01b85858560405160240161155593929190612fce565b60408051601f198184030181529190526020810180516001600160e01b03166001600160e01b031990931692909217909152611e26565b50505050565b606060ff83146115a557610cba83611efb565b8180546115b190613132565b80601f01602080910402602001604051908101604052809291908181526020018280546115dd90613132565b801561162a5780601f106115ff5761010080835404028352916020019161162a565b820191906000526020600020905b81548152906001019060200180831161160d57829003601f168201915b505050505090506102d8565b600080829050601f81511115611661578260405163305a27a960e01b815260040161035c9190613167565b805161166c8261317a565b179392505050565b8051602080830151604080850151606086810151608088015160a089015160c08a0151955193986116cc987fcf88a2fdf20e362d67310061df675df92f17bd55a872a02e14b7dc017475f705989197919695016131bc565b6040516020818303038152906040529050919050565b60608160e00151826101000151836101200151611703856101400151611f3a565b6101608601516101808701516101a08801516101c0890151604080516001600160401b03998a16602082015297891690880152948716606087015260808601939093526001600160a01b0390911660a0850152841660c084015260e083015291909116610100820152610120016116cc565b6000306001600160a01b037f0000000000000000000000000000000000000000000000000000000000000000161480156117ce57507f000000000000000000000000000000000000000000000000000000000000000046145b156117f857507f000000000000000000000000000000000000000000000000000000000000000090565b6118a0604080517f8b73c3c69bb8fe3d512ecc4cf759cc79239f7b179b0ffacaa9a75d522b39400f60208201527f0000000000000000000000000000000000000000000000000000000000000000918101919091527f000000000000000000000000000000000000000000000000000000000000000060608201524660808201523060a082015260009060c00160405160208183030381529060405280519060200120905090565b905090565b6118af8282610b2f565b610696576118bc8161211b565b6118c783602061212d565b6040516020016118d8929190613219565b60408051601f198184030181529082905262461bcd60e51b825261035c91600401613167565b6000611937828460200135604051602001611923929190918252602082015260400190565b6040516020818303038152906040526122c8565b600654909150611992906001600160a01b0316826119586040870187613288565b8080601f0160208091040260200160405190810160405280939291908181526020018383808284376000920191909152506122e692505050565b6119f55760405162461bcd60e51b815260206004820152602e60248201527f436c61696d206973206e6f74207369676e656420627920746865206f7264657260448201526d56616c69646974794f7261636c6560901b606482015260840161035c565b4283602001351161054d5760405162461bcd60e51b815260040161035c906132ce565b611a59838584848080601f0160208091040260200160405190810160405280939291908181526020018383808284376000920191909152506122e692505050565b15611a635761158c565b600080611aa68685858080601f01602080910402602001604051908101604052809392919081815260200183838082843760009201919091525061234792505050565b90925090506000816004811115611abf57611abf613081565b14611adc5760405162461bcd60e51b815260040161035c906132f8565b60405163090c9a2d60e41b81526001600160a01b038084166004830152861660248201523060448201526d76a84fef008cdabe6409d2fe638b906390c9a2d090606401602060405180830381865afa158015611b3c573d6000803e3d6000fd5b505050506040513d601f19601f82011682018060405250810190611b60919061332c565b611b7c5760405162461bcd60e51b815260040161035c906132f8565b505050505050565b60408051823560208281019190915283013581830152908201356060820152600090611bb290608001611923565b600554909150611bd3906001600160a01b0316826119586060860186613288565b611c2e5760405162461bcd60e51b815260206004820152602660248201527f436c61696d206973206e6f74207369676e6564206279207468652070726963656044820152654f7261636c6560d01b606482015260840161035c565b428260400135116106965760405162461bcd60e51b815260040161035c906132ce565b61014082015151611c60575050565b60005b8261014001515181101561054d5760008361014001518281518110611c8a57611c8a613349565b6020026020010151905060006001600160a01b031681600001516001600160a01b03161415611cb95750611d8a565b80516101608501516020830151604051631395c0f360e01b81526001600160a01b0390931692631395c0f392611cf692909188919060040161335f565b60006040518083038186803b158015611d0e57600080fd5b505afa925050508015611d1f575060015b611d885760405162461bcd60e51b815260206004820152603460248201527f50726f70657274792076616c69646174696f6e206661696c656420666f7220746044820152731a19481c1c9bdd9a591959081bdc1d1a5bdb925960621b606482015260840161035c565b505b80611d948161338f565b915050611c63565b600080611db3612710670de0b6b3a76400006130ec565b8361018001516001600160401b0316611dcc91906130cd565b9050826101a0015160001415611de3579050611e1f565b6000611df7611df286886133aa565b61238d565b90506000611e0a82866101a001516123a5565b90506000611e18828561301f565b9450505050505b9392505050565b6000611e7b826040518060400160405280602081526020017f5361666545524332303a206c6f772d6c6576656c2063616c6c206661696c6564815250856001600160a01b03166123c79092919063ffffffff16565b9050805160001480611e9c575080806020019051810190611e9c919061332c565b61054d5760405162461bcd60e51b815260206004820152602a60248201527f5361666545524332303a204552433230206f7065726174696f6e20646964206e6044820152691bdd081cdd58d8d9595960b21b606482015260840161035c565b60606000611f08836123de565b604080516020808252818301909252919250600091906020820181803683375050509182525060208101929092525090565b805160009080611f6c57507fc5d2460186f7233c927e7db2dcc703c0e500b653ca82273b7bfad8045d85a47092915050565b6000816001600160401b03811115611f8657611f86612ca4565b604051908082528060200260200182016040528015611faf578160200160208202803683370190505b50905060005b828110156120ea57604051680a0e4dee0cae4e8f2560bb1b6020820152791859191c995cdcc81c1c9bdc195c9d1e55985b1a59185d1bdc8b60321b60298201527162797465732070726f70657274794461746160701b6043820152602960f81b60558201526056016040516020818303038152906040528051906020012060001c85828151811061204857612048613349565b60200260200101516000015186838151811061206657612066613349565b602002602001015160200151805190602001206040516020016120a5939291909283526001600160a01b03919091166020830152604082015260600190565b604051602081830303815290604052805190602001208282815181106120cd576120cd613349565b6020908102919091010152806120e28161338f565b915050611fb5565b50806040516020016120fc91906133e9565b6040516020818303038152906040528051906020012092505050919050565b60606102d86001600160a01b03831660145b6060600061213c8360026130cd565b61214790600261301f565b6001600160401b0381111561215e5761215e612ca4565b6040519080825280601f01601f191660200182016040528015612188576020820181803683370190505b509050600360fc1b816000815181106121a3576121a3613349565b60200101906001600160f81b031916908160001a905350600f60fb1b816001815181106121d2576121d2613349565b60200101906001600160f81b031916908160001a90535060006121f68460026130cd565b61220190600161301f565b90505b6001811115612279576f181899199a1a9b1b9c1cb0b131b232b360811b85600f166010811061223557612235613349565b1a60f81b82828151811061224b5761224b613349565b60200101906001600160f81b031916908160001a90535060049490941c936122728161341f565b9050612204565b508315611e1f5760405162461bcd60e51b815260206004820181905260248201527f537472696e67733a20686578206c656e67746820696e73756666696369656e74604482015260640161035c565b60006122d48251612406565b82604051602001610d04929190613436565b60008060006122f58585612347565b9092509050600081600481111561230e5761230e613081565b14801561232c5750856001600160a01b0316826001600160a01b0316145b8061233d575061233d8686866124a2565b9695505050505050565b60008082516041141561237e5760208301516040840151606085015160001a6123728782858561258e565b94509450505050612386565b506000905060025b9250929050565b600080821261239c57816102d8565b6102d88261348f565b60006123b36012600a613590565b6123bd83856130cd565b611e1f91906130ec565b60606123d68484600085612648565b949350505050565b600060ff8216601f8111156102d857604051632cd44ac360e21b815260040160405180910390fd5b6060600061241383612723565b60010190506000816001600160401b0381111561243257612432612ca4565b6040519080825280601f01601f19166020018201604052801561245c576020820181803683370190505b5090508181016020015b600019016f181899199a1a9b1b9c1cb0b131b232b360811b600a86061a8153600a85049450846124955761249a565b612466565b509392505050565b6000806000856001600160a01b0316631626ba7e60e01b86866040516024016124cc92919061359c565b60408051601f198184030181529181526020820180516001600160e01b03166001600160e01b031990941693909317909252905161250a91906135b5565b600060405180830381855afa9150503d8060008114612545576040519150601f19603f3d011682016040523d82523d6000602084013e61254a565b606091505b509150915081801561255e57506020815110155b801561233d57508051630b135d3f60e11b9061258390830160209081019084016130b4565b149695505050505050565b6000806fa2a8918ca85bafe22016d0b997e4df60600160ff1b038311156125bb575060009050600361263f565b6040805160008082526020820180845289905260ff881692820192909252606081018690526080810185905260019060a0016020604051602081039080840390855afa15801561260f573d6000803e3d6000fd5b5050604051601f1901519150506001600160a01b0381166126385760006001925092505061263f565b9150600090505b94509492505050565b6060824710156126a95760405162461bcd60e51b815260206004820152602660248201527f416464726573733a20696e73756666696369656e742062616c616e636520666f6044820152651c8818d85b1b60d21b606482015260840161035c565b600080866001600160a01b031685876040516126c591906135b5565b60006040518083038185875af1925050503d8060008114612702576040519150601f19603f3d011682016040523d82523d6000602084013e612707565b606091505b5091509150612718878383876127f9565b979650505050505050565b60008072184f03e93ff9f4daa797ed6e38ed64bf6a1f0160401b83106127625772184f03e93ff9f4daa797ed6e38ed64bf6a1f0160401b830492506040015b6904ee2d6d415b85acef8160201b831061278c576904ee2d6d415b85acef8160201b830492506020015b662386f26fc1000083106127aa57662386f26fc10000830492506010015b6305f5e10083106127c2576305f5e100830492506008015b61271083106127d657612710830492506004015b606483106127e8576064830492506002015b600a83106102d85760010192915050565b6060831561286557825161285e576001600160a01b0385163b61285e5760405162461bcd60e51b815260206004820152601d60248201527f416464726573733a2063616c6c20746f206e6f6e2d636f6e7472616374000000604482015260640161035c565b50816123d6565b6123d6838381511561287a5781518083602001fd5b8060405162461bcd60e51b815260040161035c9190613167565b8280546128a090613132565b90600052602060002090601f0160209004810192826128c25760008555612908565b82601f106128db57805160ff1916838001178555612908565b82800160010185558215612908579182015b828111156129085782518255916020019190600101906128ed565b50612914929150612918565b5090565b5b808211156129145760008155600101612919565b60006020828403121561293f57600080fd5b81356001600160e01b031981168114611e1f57600080fd5b60006101e0828403121561296a57600080fd5b50919050565b60006020828403121561298257600080fd5b81356001600160401b0381111561299857600080fd5b6123d684828501612957565b6001600160a01b0381168114610d5857600080fd5b80356129c4816129a4565b919050565b6000602082840312156129db57600080fd5b8135611e1f816129a4565b6000602082840312156129f857600080fd5b5035919050565b80356001600160401b03811681146129c457600080fd5b600060208284031215612a2857600080fd5b611e1f826129ff565b60008060408385031215612a4457600080fd5b823591506020830135612a56816129a4565b809150509250929050565b8015158114610d5857600080fd5b600060208284031215612a8157600080fd5b8135611e1f81612a61565b60008083601f840112612a9e57600080fd5b5081356001600160401b03811115612ab557600080fd5b60208301915083602082850101111561238657600080fd5b60006080828403121561296a57600080fd5b60006060828403121561296a57600080fd5b600080600080600080600060c0888a031215612b0c57600080fd5b87356001600160401b0380821115612b2357600080fd5b612b2f8b838c01612957565b985060208a0135915080821115612b4557600080fd5b612b518b838c01612a8c565b909850965060408a0135915080821115612b6a57600080fd5b612b768b838c01612acd565b955060608a0135915080821115612b8c57600080fd5b50612b998a828b01612adf565b9350506080880135915060a0880135905092959891949750929550565b60005b83811015612bd1578181015183820152602001612bb9565b8381111561158c5750506000910152565b60008151808452612bfa816020860160208601612bb6565b601f01601f19169290920160200192915050565b60ff60f81b881681526000602060e081840152612c2e60e084018a612be2565b8381036040850152612c40818a612be2565b606085018990526001600160a01b038816608086015260a0850187905284810360c0860152855180825283870192509083019060005b81811015612c9257835183529284019291840191600101612c76565b50909c9b505050505050505050505050565b634e487b7160e01b600052604160045260246000fd5b604080519081016001600160401b0381118282101715612cdc57612cdc612ca4565b60405290565b6040516101e081016001600160401b0381118282101715612cdc57612cdc612ca4565b604051601f8201601f191681016001600160401b0381118282101715612d2d57612d2d612ca4565b604052919050565b60028110610d5857600080fd5b80356129c481612d35565b803560ff811681146129c457600080fd5b6000601f8381840112612d7057600080fd5b823560206001600160401b0380831115612d8c57612d8c612ca4565b8260051b612d9b838201612d05565b9384528681018301938381019089861115612db557600080fd5b84890192505b85831015612e8d57823584811115612dd35760008081fd5b89016040601f19828d038101821315612dec5760008081fd5b612df4612cba565b88840135612e01816129a4565b81528383013588811115612e155760008081fd5b8085019450508d603f850112612e2b5760008081fd5b8884013588811115612e3f57612e3f612ca4565b612e4e8a848e84011601612d05565b92508083528e84828701011115612e655760008081fd5b808486018b85013760009083018a015280890191909152845250509184019190840190612dbb565b9998505050505050505050565b60006101e08236031215612ead57600080fd5b612eb5612ce2565b612ebe83612d42565b8152612ecc602084016129b9565b60208201526040830135604082015260608301356060820152612ef160808401612d4d565b6080820152612f0260a08401612d42565b60a082015260c083013560c0820152612f1d60e084016129ff565b60e0820152610100612f308185016129ff565b90820152610120612f428482016129ff565b90820152610140838101356001600160401b03811115612f6157600080fd5b612f6d36828701612d5e565b828401525050610160612f818185016129b9565b90820152610180612f938482016129ff565b908201526101a083810135908201526101c0612fb08185016129ff565b9082015292915050565b6001600160a01b0391909116815260200190565b6001600160a01b039384168152919092166020820152604081019190915260600190565b634e487b7160e01b600052601160045260246000fd5b60008282101561301a5761301a612ff2565b500390565b6000821982111561303257613032612ff2565b500190565b60008351613049818460208801612bb6565b83519083019061305d818360208801612bb6565b01949350505050565b60006020828403121561307857600080fd5b611e1f82612d4d565b634e487b7160e01b600052602160045260246000fd5b6000602082840312156130a957600080fd5b8135611e1f81612d35565b6000602082840312156130c657600080fd5b5051919050565b60008160001904831182151516156130e7576130e7612ff2565b500290565b60008261310957634e487b7160e01b600052601260045260246000fd5b500490565b6000806040838503121561312157600080fd5b505080516020909101519092909150565b600181811c9082168061314657607f821691505b6020821081141561296a57634e487b7160e01b600052602260045260246000fd5b602081526000611e1f6020830184612be2565b8051602080830151919081101561296a5760001960209190910360031b1b16919050565b60028110610d5857634e487b7160e01b600052602160045260246000fd5b88815261010081016131cd8961319e565b602082018990526001600160a01b0388166040830152606082018790526080820186905260ff851660a08301526132038461319e565b60c082019390935260e001529695505050505050565b76020b1b1b2b9b9a1b7b73a3937b61d1030b1b1b7bab73a1604d1b81526000835161324b816017850160208801612bb6565b7001034b99036b4b9b9b4b733903937b6329607d1b601791840191820152835161327c816028840160208801612bb6565b01602801949350505050565b6000808335601e1984360301811261329f57600080fd5b8301803591506001600160401b038211156132b957600080fd5b60200191503681900382131561238657600080fd5b60208082526010908201526f10db185a5b481a5cc8195e1c1a5c995960821b604082015260600190565b6020808252601a908201527913dc99195c881cda59db985d1d5c99481a5cc81a5b9d985b1a5960321b604082015260600190565b60006020828403121561333e57600080fd5b8151611e1f81612a61565b634e487b7160e01b600052603260045260246000fd5b60018060a01b03841681528260208201526060604082015260006133866060830184612be2565b95945050505050565b60006000198214156133a3576133a3612ff2565b5060010190565b60008083128015600160ff1b8501841216156133c8576133c8612ff2565b6001600160ff1b03840183138116156133e3576133e3612ff2565b50500390565b815160009082906020808601845b83811015613413578151855293820193908201906001016133f7565b50929695505050505050565b60008161342e5761342e612ff2565b506000190190565b790ca2ba3432b932bab69029b4b3b732b21026b2b9b9b0b3b29d0560311b8152825160009061346c81601a850160208801612bb6565b83519083019061348381601a840160208801612bb6565b01601a01949350505050565b6000600160ff1b8214156134a5576134a5612ff2565b5060000390565b600181815b808511156134e75781600019048211156134cd576134cd612ff2565b808516156134da57918102915b93841c93908002906134b1565b509250929050565b6000826134fe575060016102d8565b8161350b575060006102d8565b8160018114613521576002811461352b57613547565b60019150506102d8565b60ff84111561353c5761353c612ff2565b50506001821b6102d8565b5060208310610133831016604e8410600b841016171561356a575081810a6102d8565b61357483836134ac565b806000190482111561358857613588612ff2565b029392505050565b6000611e1f83836134ef565b8281526040602082015260006123d66040830184612be2565b600082516135c7818460208701612bb6565b919091019291505056fe68e79a7bf1e0bc45d0a330c573bc367f9cf464fd326078812f301165fbda4ef1ba279271fb7bbf76a6f3df3cc57bf80647fcafdea60ec3383d90f459de74e7c065d7a28e3265b37a6474929f336521b332c1681b933f6cb9f3376673440d862ae2b0d6eac44bd89c98f9198715d9545150fc431fdbb7bf3aee5d285561121d0aa2646970667358221220c2d835d8335a4b9f960802f337c7ede343ce4e79864cacfe6861f12d35bd4b2864736f6c634300080a0033",
  "linkReferences": {
    "contracts/lib/lyra/BlackScholes.sol": {
      "BlackScholes": [
        {
          "length": 20,
          "start": 7565
        }
      ]
    }
  },
  "deployedLinkReferences": {
    "contracts/lib/lyra/BlackScholes.sol": {
      "BlackScholes": [
        {
          "length": 20,
          "start": 5145
        }
      ]
    }
  }
}