{
  "_format": "hh-sol-artifact-1",
  "contractName": "Font3",
  "sourceName": "contracts/lib/Fonts.sol",
  "abi": [
    {
      "inputs": [],
      "name": "font",
      "outputs": [
        {
          "internalType": "string",
          "name": "",
          "type": "string"
        }
      ],
      "stateMutability": "pure",
      "type": "function"
    }
  ],
  "bytecode": "0x611e0661003a600b82828239805160001a60731461002d57634e487b7160e01b600052600060045260246000fd5b30600052607381538281f3fe73000000000000000000000000000000000000000030146080604052600436106100355760003560e01c80639d37bc7c1461003a575b600080fd5b610042610058565b60405161004f919061007b565b60405180910390f35b606060405180611d200160405280611d0081526020016100d1611d009139905090565b600060208083528351808285015260005b818110156100a85785810183015185820160400152820161008c565b818111156100ba576000604083870101525b50601f01601f191692909201604001939250505056fe63377271686d5755526153484c4974426b4b6263577a5849564237474e4f697448596953683374307a334f74473561614443714365354a624e6a576441445273677650386553763146384f4d466c506750564a756d485056307270724d555071576f43694a506f6b4342795241656466544477664f4f42575a53464d6969527172646b485753675430316d564c6962497a7955707734306b386d67545a444a53454469446d654e764a79642b4b51424c6a6373536c3563735a7a6a6f6f4b6b66312b696b37307430476741776d4f5874322b2b56514632754d5937694e704e45323158674c577366367a537154556f6e476d6978315934654a5442413354725932464241522b437875625251464f36636973446677554753664d77324847396b4f324d544e58446c616b636b56745a6b4e3737326a545263574c584f35454f37694230612f42547a6575793055774778624f65705874302b4b66646c6e6e7879516c626856422b4b712f6c532b54337075674d5656753376544d4a33425a52643563674a384b6f453445377436514c39794b3844426166755973535255796c5450356b726b4b4a6d4249316a6f5646496f6c70442b374943744c425659456536786d7230714f3951376d4f4568633561687658563446664241666d492b474a596e5575583661765a796d726459646c554765382b4d7641576161794b624946327a67454175634f4163726c446159416f3065503236456937624a77584947554373554167334e71382b68694b6f564232636637755336352b314c62654b523330514661596453427a794c4171727a4173685141716c31394f646c646b544b423651394858597947625255705a484c4f53717459366e6753596f7072424a546c356969624b686b364c412b7542426733694e3532516f346d594638326e5437303831656f5052764f7a476955316f58344c5570342f4d46527a4e6b66794867597742535070572b5042472b7432644b2f655658423551487878324c63322b5230454c4a6c676c515867747966444a4b3133577078554269375a67766f4752563647344c374471782b6835494475423935536b6e4a72767231706c5955526a674664517454703956674e697353335734796a333762374a575874714165306f77376b3873576f6338523332485a475758536c6f7845464e65526b46446d386c42736d4f6b6332622b6f4d57447431385838794878707279366f4b4e6c462b5a474f56352f576e63582f50333865733378722f37626c2b59577565736852656551536e6c76427572317777654d6545326133685a51303747704f78326f4e706839524430664449586c354634553041576e7647676f50575153465935425139375a4b613246637537306c726970384768505873334b436a684744763457597a3071574f42685938654737344733735450654c3763483568644775657473616148302b447637784442395136617073515361453639492f64384664766a646d333059766d784973624a346c426131417364643836774c4b3874414449533756784849316e58454b4c366d614f34725779565049304f4d70427a545a4575526f336c4232462b70566254593452616b4c74504e6e5055614d646e7372796c4546514c74496857466f4d3735444d3565355a4d34704e68584e67755470653441456d6b4d4634647345714156346e79324e44767867705a74643835697733677938545978357743316e6b6b63334c6f305a516b534e426f69315859514a5434734965336333694458634b7a3353544c5a6e4c5734704f452b52336b5462367171356c6e4a6f37354844474f367775714b6c497072615461667471464a575a4a376e44535052515741624250314c3352487056683534637570515063774c7a6f6e78495137636242385641486854714c5178466e35417249476a33673278355770464549696b55454175785a4a6e65343751304e65566e726b5331544838317a6439412f56796c7341557735566f474b67316735746d3371364a6c6775515377686f68444877494c346f32437a6b4a793844534d5a53715056654e6e4c4d6674375959484f37755738336e4277554e7758503547592f5263575335356e5677356873354733764674556a745a6f34544541346249494a386d3864344177395538766a66416c616979584d3964474f6b2f38656f415944486a6143383071686174413148315162473175615266314756464e70616c796c6f48362f4a577456514866654e575a53335846494379564950536a47465971704a58476e744b776d37716264304d3673496b322b4136704141435765336e522b444f334b436c5a4b657775486c78736b445a543832673259786b53536c7642763054377654385376725a6e476b67645276716346443632464f4d716d49626156522b3568456c644a706d78776276654b7069416b5473386f6e6832384e4d385756432b71513250474a346e474b3973672b784561744433335942667671383547564c75654f7a644d4439513036637a3769546e53645a312f746435504e7471434c2f754a357a763939766564584f345750486e5261366773484f507763543138717170786f6c354f6654705337466b4e707557316949346a5431306d7851485439617552617a716e7134684d524f56676d34436b6f59354d4f41356166702f57556f4b54475464645630514765316b726a794b4a613965477764586941625834723671396857525366394b4948385442576f3847585a7a6d336f4f584542755145753079534c5a2f4353754b63796f76455773556c43376d4b535553584b48454234556e73385a366931436f6368734d6155506f51415053326c4d4b304431466b41346431612f33546b727a414c6350324c38674344544b43314c6a4a57374f414c476a4e385968626b5235626f2f69316a52626351674762396b33594a7a4f6c7a4d42424a72574f64334d566e4a7a544f506c6142704a434b4d446a78783670766e45756168635a444e7271347533695a545a73317961626b6437447056593848367a6b59716967306d4f564e42354371584f664134717642492b314e3636344139784a4d6730586f6551596b7a7266417444724e714374345936364a6b427857567165314d567050302b52382f78612b30623130794c65384d516e396537756f4f5031336572564d7938706d706f394d445767394e322b4132693957572f72435454456c7175733561523949465a6d51626856627332704c7369573050416e436744554d517431376e4154516e5076695947335630366573314a746830796f5355356231746555396736586e586d7a64356537666632654344665542325337594735464c31326b336e67326c35465962466d574259346467382b344a4165646758636551336f45454c46594f755546374c5a3943757a364f79434b467042305941532f6a6e69377a55375a6a4f62495a4a6d547056636e734a4c44444852574173384b6d335846484f476d4d7073725a75686d434b5949414f5a33376379486d32393858745757454b573934563076754141437948754d697452566239494359516d2b6d6349777568596541303376785076694e55437571704545314871584d3465507976446849697531774b305355577755316f5445363334425373433430556b4b53553239654b434c34644d78535a33556b43416c3475496c44322b395348435776517a75717459434c4f6f70425851563562614167667455676d7539623958322b494c3550784f4936756a357765704c614c317246565974634a455641626b575954483043587442694531506d32534d38416161582b53376f446b7551424657647636377149636d3961786e50614d50785138533374537348483747514c4d684c365a6c434b774c5266464671426e476d354e55564f6265574d644930376f335a59694d5736744f4c5a4a4e77456f46394f746e6a7868354a4c384932423568444e367a375068524e32714f4d52616351685556414f694d455a6f65646b79784530617674547649783353786a6e56575578494a307745416c6f42632b4b4a6d465230494f364179657153437971593963456c4b597149746a504755366d47387361787a6b68786b726451516d4a4957376752766657785479724c4634453753726a4a565765434e51695269436f4c41396e5269537a4442373662687a6e49435454496745525537674e73644c317254725335545048357a46522f5168437736384568324556496f31717259687677306758553049354f494545367a556e5a55792b557252756473496d2b77496a3344526d71694a352b4c7975564a316a4d344e3569536b6463387650557177646b30764c65446b725252654b55765438686543794e5830514e4d55346f76785171743036754b47733251533572554b6d6e696a6b337055753375385a4379374d5363674b70676f32767459785043616b46706e6f48334d716937707a4b72307350436d69706d367438527732714b434e4b79424c4352336c3273516948735139594d7941346f504c49416d664b61592f737349444b5968496f42336b517576702b3250542f2f56436e4f3854646f4b52664c6752554c784e5331393254506473666c39746b3770372f4d334f3441666861474f716c796e574d317841446f4334557139374e46764a474f524e477255556a4473306e496d366432674e364e5a41386a53546965455562654776592b30714b6c626f2f4a567634716b4a7572746e4f447746316b71324e4b42345169336d324653504c35347476794975594a465643392b497762714a4a4b39456b65566c5a696172473266343533754b4755777a737578476636374e537a34636b394231744e396e777a573872546e655a366675716d467945327a585a636c6e6d4f4f5536773165394d5263632b704e526e71394e78786b446c6b7051454f345369794675394f564377436b39522b5a636e6932506e426c507969527650504946705a5a4a6c52583342572f6c5679657576676542514156586c44766b6f4b626537744d317642585479687a69676c4372446f4e6938472b6a635066436d653542433337313970337676587a6762574f303070364866723375475a75666b7874476c31314c78754757482f514e3657586b75734c6148306b516952726a5154506265414275566e774e38534e38702f2f4f6b425165786b733339764562773174754a72654d54776a736f7a4e6b664d4b2b59336d6263775752696a384e373244662f42494334622f3858474e414e6f54646e396b7a50784470506633642f642f7158695437396c325572653236754d77316c794837326e6a3361417a542b62444a4552644e66647767434131455964614e4252446f53526476624949314546676d7478564e68636161697433504d537a414a71657554704b526e456468497835775156694148457371486838586c69414b6d5a497337504c454a7070566d57545970555662524d7361655856344c6642515459656665444a4836596237576e4f76592b574f392b3244446c7641634d37456b37644c6e576d4b54703448633457377561376b316f744747514e385766706a336662686e506d656b4272614267734d5a5071664e73794e6273724a626261592f636c6d44782b694f42316b306d304450636b7357786d6548747561706754676a6a56574b4748494a4a694844614b466f4f615a5a6746354c39463168555651614434764c4551564d79535075394d77546d4661365a396d6b78466a4635436933436c38786662707965454946564a463034423055325a354f666737415134524b3554744a756f3958766f6a4d6c7978505269546741534c345957534942783670714f4f716e5138696d70506f5448326565306557496b4f346479327365365a364d516d4131482f693949536f596c594757797a664a416f3967505257712f65486c3545486d397a384f61303966496d53466f6b435671587372594a4776556f6c4e6172456b5a414c4c38466c54796542616b696777547968644330696d792f4b594358737958736231743943356d63496c635456395a6c526673716f4c564e637a41484870457170723250502b5776665242366b464c316b4d59346a6b6a6a6a6f2b787149787869342b7442476639616a773452416f3752497a4774545a575358694c6d465670347a3453514f4a4e33436139444542514f69376f6a734834386f764e6a4b304975587a6343714b7145763758592b426f376c39584d676f6a646f596e396a416d35382b784d754d2b3563637044494e515267743764786d667a536a6c5a71586779713333305a74525a4d58426e7a662f507751596d63696533664a6b4c76454e70566d714b2f654a2f66444d6a79536a3355697754484548416861394c756f304979454d6a473766347937744e4e56346b78353559654e746371656f50797871356854554631696b737a6d51724c6468514c496f5830756c74444e413357343076727a5a75694e7738324961414c396b6e6b644679537273544e656f7a414a6f3852557a496b2b63304f394151546e6b4b4c4f4d65364d4674664461766a4975566953665832374157594a30316733427a7062736b5558374b4141537649564c495736356e4645674c586e36304b6849467a6d587256684d682b65417262527070505956485739726c306f664f2b42664b75486e6f716c307371756e2b4b4844446e36725a6e6e363473614379782f4f4f4d6e6f6652695165694f726167653831306c393934507352423050464e6c385651423278623632594648446e63715a5a454846765339502b6a416e3534314841654b59536268445545594c6533635a6e633644637246773965565348745144723744427654627a76767353692f4a534a344d432b6d685861745376786e6f6c4e7a3335634e6f446274383273513367324830316b396e684d7948564d76626871793376634c4e6e466b7a72637052762b31647a3334556a6653617373796f6e6e634469334e4c6c3647365237783453614a2b39696d447163764e45726a35727070785758416b4c54547468416a565a4778337332574250797a3074634436714745484433654f642b787039333255426862344c4a6338674142574a69705630756750716d546b2b77354978396534667a715a636c6f2f6d72667864514c563143547537584538652f7a46653771743857675349704c747046697133555844456c345a306f5778734e51495955494e2b366547733541345178704b67785471357a7479365257615a677649364f6a4b4b744a4f69306c46725039665569355152517433794f394a686c49704276493851434c725234476d434a69335a52704d677049552b74505979494b614a67674230496163504a7076616b79365933686d2f42517856635273375459663074516b79736b736f465543634a72367a564d47776654576f41687635626a2b2f4664466b37317678596238354e795134326351426b67495467484b5a7434625a41336c6158466336323079364953376c584a652b7a595362476e716d7a304a3145776e3063454e594d305676665756537a78384830724b676a51335131414b6472322b753038786f6c447a595a585954514b524c4f313844526752763155674732754b304f57345667544d68376135644642496c61344234554962496349564e7530773758453357456266734e31654344504a304f363238787a4d384b56383041336e634c797666365532616137447a4278577a4975646566616e685a4e322f34756e58655233435467394b7a4b444e55367a3050385275586f7a46657538644b442b636c6434573572632b315367686f5368456e593334663638672b694a5979706b6c6f523871393636336a617134386d6345344752717248343870736f66657a71754769336578436866592f4342675978576c6645754643766a676374764d676f695033574f7245497438796738503335417a555132656f51376d4361567249746e55556e62744e31525437386e626b4d6d5973366d59356d6349466179367875563766667042376f615a2b55485673442f382b58387a4c682f53795a2b6e445347546e7a335651557456706149684b4430633965355165626743622f4a382f3141655639566a66397532776a55783631723833615a616e426633584a5a316e574175636f6e673441666e64544d504f4a76524245674871562f76707349422b72682f7750636a446d354c5754652f464842364b59765566437572465041647a56676a554b502b37676f555732585971586f762f336e34686c794a4f75414e7471615548744b53326e657967687649694833374464553865504c566131682f6b336d7051745a3041645164756b62354d75666151456c66616b312f4158756641454e2b542f3050566c723250316a47443444766e38335830747a523875396e74666a302f78324a564a566c36763957422f33373173474a3932636344644e2f73336b624f58386e7266662b5059533743356b4e55764b6b6648334a576357673650696358442f4b6579362b684b6b55443551397a2f4e6e67533867574a4574636734364e7638795646634430635a576f30527069745479704b726a4b57614171376939704f4a6e636a685132614352796a4b55767a684876545434322b676171444b71784f70646c5770776a73726759506d4f763863474871396772416e69534753514f4552634c466f6d496e703272423257346769586b4651664b74515637486961715137436459536d7a4c6e435671626931717253433770566734556d666234734548476f6b394b565650316e334e71386657556d63685a2f4c5353302b5445514271536b61696c5951775443373059366d3839372f466c6656366d624b414b362f6959556c49735473666c47494d73346b703958684670626647734c6c437975592b6f77422b6a4345496e6d552b4657316f56655472424961644755675252445470555438647a696131456d4678763757322b62304941784b2f434f414a696f7445696f473277744d30574c334e557a4a474a7453775045416e65566b7457616b574a6a6d32443763716a784a767475777261465a6c42654c533256576d644b656e7378704146413667336b744671505569586d4a4c3241756b7872687762714a783356685343626e674c74454c54416e4d57706c4b4766706a475034656936554b4274474e314d574e382b535838795152326141757053686d6d4c6a594361545950552f6a5338305a7a727147757139434b5842624b553168656d34567a397073616153764e79763869414f4f69726a774741373974527747695a7963626d6f2b44764b30593334335a2f705448524f75736c6d683058553444786b574775677a544130556f44314161474e476f594265706438654c4c3164703463316a43673855644548525949744f43655a376a4946695269316a64556550566147687379466c7453564d39305066326975557a7450523668354e76395238393077384b576b36336b6a6263333036747563636338776152652b2f4a667a4b5a436f7a2f3265476a764f752f427746792f65306c3937583156627773797a5251694a76396d6a6b65664346766449464f676d30784d424154696b446772685552756b62594445462b5a79566878644a6d464b732f62455a6a74545a6a6c4a323747637668734a576a7a56532b69795364746d537a30743730384a614e574833642b50355034434f4962706b6953425645457a6643345742684578334a6269656c324d45676a3176456341686865462f6344636d73445934536e44556b6f3857445159515a306e644353583832375a4e79577a6277494b3747313252426458647271723461776c496f6d4632446f6b7479767779684333565a6961486a7277737673685642734f546b4b6e706a576e356f35715976504865643137534a43357766693047566f7070355471436859616453684258424b4f61444571734672545a4b4a42494a4e6b6d4544675554763853374e586d684d765556532f474572557a375867424b70652b494266645849597131536e5643582f55316d4e535a6f6d767247677633384776537348326f334a4d4a3173565278776368784b7554443054346e376976392b63554d3352546a774b5375712f455573712f352b334d5856384a686a4861714f4841464f4f727649474e686255557365734c4e492b684f633330357a4e44483632557333664b48587939664d685a35756d6c3866746432596555694c6a4f77537358614462684f446d767262784f6759695654514141a2646970667358221220391b4ca5290e8fe32e0ff0135106f33f283459e84c2baa09ab24827eca9859d164736f6c634300080a0033",
  "linkReferences": {},
  "deployedLinkReferences": {}
}