{
  "contractName": "Caller",
  "abi": [
    {
      "inputs": [
        {
          "internalType": "address",
          "name": "_newCallee",
          "type": "address"
        }
      ],
      "name": "setCallee",
      "outputs": [],
      "stateMutability": "nonpayable",
      "type": "function"
    },
    {
      "inputs": [],
      "name": "getCallee",
      "outputs": [
        {
          "internalType": "address",
          "name": "",
          "type": "address"
        }
      ],
      "stateMutability": "view",
      "type": "function"
    },
    {
      "inputs": [
        {
          "internalType": "int256",
          "name": "_number",
          "type": "int256"
        }
      ],
      "name": "call",
      "outputs": [
        {
          "internalType": "int256",
          "name": "",
          "type": "int256"
        }
      ],
      "stateMutability": "view",
      "type": "function"
    }
  ],
  "bytecode": "0x608060405234801561001057600080fd5b5061037f806100206000396000f3fe608060405234801561001057600080fd5b50600436106100415760003560e01c80631b58523814610046578063703aaa921461007657806383a4354b14610094575b600080fd5b610060600480360381019061005b91906101fb565b6100b0565b60405161006d9190610237565b60405180910390f35b61007e610154565b60405161008b9190610293565b60405180910390f35b6100ae60048036038101906100a991906102da565b61017d565b005b60008060009054906101000a900473ffffffffffffffffffffffffffffffffffffffff1673ffffffffffffffffffffffffffffffffffffffff1663c03c3003836040518263ffffffff1660e01b815260040161010c9190610237565b602060405180830381865afa158015610129573d6000803e3d6000fd5b505050506040513d601f19601f8201168201806040525081019061014d919061031c565b9050919050565b60008060009054906101000a900473ffffffffffffffffffffffffffffffffffffffff16905090565b806000806101000a81548173ffffffffffffffffffffffffffffffffffffffff021916908373ffffffffffffffffffffffffffffffffffffffff16021790555050565b600080fd5b6000819050919050565b6101d8816101c5565b81146101e357600080fd5b50565b6000813590506101f5816101cf565b92915050565b600060208284031215610211576102106101c0565b5b600061021f848285016101e6565b91505092915050565b610231816101c5565b82525050565b600060208201905061024c6000830184610228565b92915050565b600073ffffffffffffffffffffffffffffffffffffffff82169050919050565b600061027d82610252565b9050919050565b61028d81610272565b82525050565b60006020820190506102a86000830184610284565b92915050565b6102b781610272565b81146102c257600080fd5b50565b6000813590506102d4816102ae565b92915050565b6000602082840312156102f0576102ef6101c0565b5b60006102fe848285016102c5565b91505092915050565b600081519050610316816101cf565b92915050565b600060208284031215610332576103316101c0565b5b600061034084828501610307565b9150509291505056fea264697066735822122058875c439f5df7d57b7adbc43c680fec2c95fb91050ecb39c9996f52d3c6c57164736f6c634300080d0033",
  "immutableReferences": {},
  "source": "// SPDX-License-Identifier: MIT\npragma solidity ^0.8.0;\n\nimport \"./ICallee.sol\";\n\ncontract Caller {\n    ICallee private callee;\n\n    function setCallee(address _newCallee) external {\n        callee = ICallee(_newCallee);   \n    }\n    \n    function getCallee() external view returns(address) {\n        return address(callee);\n    }\n\n    function call(int _number) external view returns(int) {\n        return callee.increment(_number);\n    }\n\n}",
  "sourcePath": "/home/terra/opensource/tosca-chain/smart-contract-example/contracts/Caller.sol",
  "compiler": {
    "name": "solc",
    "version": "0.8.13+commit.abaa5c0e.Emscripten.clang"
  },
  "schemaVersion": "3.4.6",
  "updatedAt": "2022-04-13T12:30:52.891Z",
  "devdoc": {
    "kind": "dev",
    "methods": {},
    "version": 1
  },
  "userdoc": {
    "kind": "user",
    "methods": {},
    "version": 1
  }
}