{
  "contractName": "LibPlanet",
  "abi": [
    {
      "anonymous": false,
      "inputs": [
        {
          "indexed": false,
          "internalType": "address",
          "name": "player",
          "type": "address"
        },
        {
          "indexed": false,
          "internalType": "uint256",
          "name": "artifactId",
          "type": "uint256"
        },
        {
          "indexed": false,
          "internalType": "uint256",
          "name": "loc",
          "type": "uint256"
        }
      ],
      "name": "ArtifactActivated",
      "type": "event"
    },
    {
      "anonymous": false,
      "inputs": [
        {
          "indexed": false,
          "internalType": "address",
          "name": "player",
          "type": "address"
        },
        {
          "indexed": false,
          "internalType": "uint256",
          "name": "artifactId",
          "type": "uint256"
        },
        {
          "indexed": false,
          "internalType": "uint256",
          "name": "loc",
          "type": "uint256"
        }
      ],
      "name": "ArtifactDeactivated",
      "type": "event"
    },
    {
      "anonymous": false,
      "inputs": [
        {
          "indexed": false,
          "internalType": "address",
          "name": "player",
          "type": "address"
        },
        {
          "indexed": false,
          "internalType": "uint256",
          "name": "loc",
          "type": "uint256"
        },
        {
          "indexed": false,
          "internalType": "uint256",
          "name": "branch",
          "type": "uint256"
        },
        {
          "indexed": false,
          "internalType": "uint256",
          "name": "toBranchLevel",
          "type": "uint256"
        }
      ],
      "name": "PlanetUpgraded",
      "type": "event"
    },
    {
      "inputs": [
        {
          "internalType": "uint256",
          "name": "_location",
          "type": "uint256"
        },
        {
          "internalType": "uint256",
          "name": "_perlin",
          "type": "uint256"
        },
        {
          "internalType": "bool",
          "name": "_isHomePlanet",
          "type": "bool"
        }
      ],
      "name": "getDefaultInitPlanetArgs",
      "outputs": [
        {
          "components": [
            {
              "internalType": "uint256",
              "name": "location",
              "type": "uint256"
            },
            {
              "internalType": "uint256",
              "name": "perlin",
              "type": "uint256"
            },
            {
              "internalType": "uint256",
              "name": "level",
              "type": "uint256"
            },
            {
              "internalType": "uint256",
              "name": "TIME_FACTOR_HUNDREDTHS",
              "type": "uint256"
            },
            {
              "internalType": "enum SpaceType",
              "name": "spaceType",
              "type": "SpaceType"
            },
            {
              "internalType": "enum PlanetType",
              "name": "planetType",
              "type": "PlanetType"
            },
            {
              "internalType": "bool",
              "name": "isHomePlanet",
              "type": "bool"
            }
          ],
          "internalType": "struct DFPInitPlanetArgs",
          "name": "",
          "type": "tuple"
        }
      ],
      "stateMutability": "view",
      "type": "function"
    },
    {
      "inputs": [
        {
          "internalType": "uint256",
          "name": "_location",
          "type": "uint256"
        },
        {
          "internalType": "uint256",
          "name": "_perlin",
          "type": "uint256"
        },
        {
          "internalType": "uint256",
          "name": "_radius",
          "type": "uint256"
        }
      ],
      "name": "checkPlayerInit",
      "outputs": [
        {
          "internalType": "bool",
          "name": "",
          "type": "bool"
        }
      ],
      "stateMutability": "view",
      "type": "function"
    },
    {
      "inputs": [
        {
          "internalType": "uint256",
          "name": "location",
          "type": "uint256"
        },
        {
          "internalType": "uint256",
          "name": "timestamp",
          "type": "uint256"
        }
      ],
      "name": "getRefreshedPlanet",
      "outputs": [
        {
          "components": [
            {
              "internalType": "address",
              "name": "owner",
              "type": "address"
            },
            {
              "internalType": "uint256",
              "name": "range",
              "type": "uint256"
            },
            {
              "internalType": "uint256",
              "name": "speed",
              "type": "uint256"
            },
            {
              "internalType": "uint256",
              "name": "defense",
              "type": "uint256"
            },
            {
              "internalType": "uint256",
              "name": "population",
              "type": "uint256"
            },
            {
              "internalType": "uint256",
              "name": "populationCap",
              "type": "uint256"
            },
            {
              "internalType": "uint256",
              "name": "populationGrowth",
              "type": "uint256"
            },
            {
              "internalType": "uint256",
              "name": "silverCap",
              "type": "uint256"
            },
            {
              "internalType": "uint256",
              "name": "silverGrowth",
              "type": "uint256"
            },
            {
              "internalType": "uint256",
              "name": "silver",
              "type": "uint256"
            },
            {
              "internalType": "uint256",
              "name": "planetLevel",
              "type": "uint256"
            },
            {
              "internalType": "enum PlanetType",
              "name": "planetType",
              "type": "PlanetType"
            },
            {
              "internalType": "bool",
              "name": "isHomePlanet",
              "type": "bool"
            }
          ],
          "internalType": "struct Planet",
          "name": "",
          "type": "tuple"
        },
        {
          "components": [
            {
              "internalType": "bool",
              "name": "isInitialized",
              "type": "bool"
            },
            {
              "internalType": "uint256",
              "name": "createdAt",
              "type": "uint256"
            },
            {
              "internalType": "uint256",
              "name": "lastUpdated",
              "type": "uint256"
            },
            {
              "internalType": "uint256",
              "name": "perlin",
              "type": "uint256"
            },
            {
              "internalType": "enum SpaceType",
              "name": "spaceType",
              "type": "SpaceType"
            },
            {
              "internalType": "uint256",
              "name": "upgradeState0",
              "type": "uint256"
            },
            {
              "internalType": "uint256",
              "name": "upgradeState1",
              "type": "uint256"
            },
            {
              "internalType": "uint256",
              "name": "upgradeState2",
              "type": "uint256"
            },
            {
              "internalType": "uint256",
              "name": "hatLevel",
              "type": "uint256"
            },
            {
              "internalType": "bool",
              "name": "hasTriedFindingArtifact",
              "type": "bool"
            },
            {
              "internalType": "uint256",
              "name": "prospectedBlockNumber",
              "type": "uint256"
            },
            {
              "internalType": "bool",
              "name": "destroyed",
              "type": "bool"
            },
            {
              "internalType": "uint256",
              "name": "spaceJunk",
              "type": "uint256"
            }
          ],
          "internalType": "struct PlanetExtendedInfo",
          "name": "",
          "type": "tuple"
        },
        {
          "components": [
            {
              "internalType": "bool",
              "name": "isInitialized",
              "type": "bool"
            },
            {
              "internalType": "uint256",
              "name": "pausers",
              "type": "uint256"
            },
            {
              "internalType": "address",
              "name": "invader",
              "type": "address"
            },
            {
              "internalType": "uint256",
              "name": "invadeStartBlock",
              "type": "uint256"
            },
            {
              "internalType": "address",
              "name": "capturer",
              "type": "address"
            }
          ],
          "internalType": "struct PlanetExtendedInfo2",
          "name": "",
          "type": "tuple"
        },
        {
          "internalType": "uint256[12]",
          "name": "eventsToRemove",
          "type": "uint256[12]"
        },
        {
          "internalType": "uint256[12]",
          "name": "artifactsToAdd",
          "type": "uint256[12]"
        }
      ],
      "stateMutability": "view",
      "type": "function"
    },
    {
      "inputs": [
        {
          "components": [
            {
              "internalType": "bool",
              "name": "isInitialized",
              "type": "bool"
            },
            {
              "internalType": "uint256",
              "name": "id",
              "type": "uint256"
            },
            {
              "internalType": "uint256",
              "name": "planetDiscoveredOn",
              "type": "uint256"
            },
            {
              "internalType": "enum ArtifactRarity",
              "name": "rarity",
              "type": "ArtifactRarity"
            },
            {
              "internalType": "enum Biome",
              "name": "planetBiome",
              "type": "Biome"
            },
            {
              "internalType": "uint256",
              "name": "mintedAtTimestamp",
              "type": "uint256"
            },
            {
              "internalType": "address",
              "name": "discoverer",
              "type": "address"
            },
            {
              "internalType": "enum ArtifactType",
              "name": "artifactType",
              "type": "ArtifactType"
            },
            {
              "internalType": "uint256",
              "name": "activations",
              "type": "uint256"
            },
            {
              "internalType": "uint256",
              "name": "lastActivated",
              "type": "uint256"
            },
            {
              "internalType": "uint256",
              "name": "lastDeactivated",
              "type": "uint256"
            },
            {
              "internalType": "uint256",
              "name": "wormholeTo",
              "type": "uint256"
            },
            {
              "internalType": "address",
              "name": "controller",
              "type": "address"
            }
          ],
          "internalType": "struct Artifact",
          "name": "artifact",
          "type": "tuple"
        },
        {
          "components": [
            {
              "internalType": "address",
              "name": "owner",
              "type": "address"
            },
            {
              "internalType": "uint256",
              "name": "range",
              "type": "uint256"
            },
            {
              "internalType": "uint256",
              "name": "speed",
              "type": "uint256"
            },
            {
              "internalType": "uint256",
              "name": "defense",
              "type": "uint256"
            },
            {
              "internalType": "uint256",
              "name": "population",
              "type": "uint256"
            },
            {
              "internalType": "uint256",
              "name": "populationCap",
              "type": "uint256"
            },
            {
              "internalType": "uint256",
              "name": "populationGrowth",
              "type": "uint256"
            },
            {
              "internalType": "uint256",
              "name": "silverCap",
              "type": "uint256"
            },
            {
              "internalType": "uint256",
              "name": "silverGrowth",
              "type": "uint256"
            },
            {
              "internalType": "uint256",
              "name": "silver",
              "type": "uint256"
            },
            {
              "internalType": "uint256",
              "name": "planetLevel",
              "type": "uint256"
            },
            {
              "internalType": "enum PlanetType",
              "name": "planetType",
              "type": "PlanetType"
            },
            {
              "internalType": "bool",
              "name": "isHomePlanet",
              "type": "bool"
            }
          ],
          "internalType": "struct Planet",
          "name": "planet",
          "type": "tuple"
        },
        {
          "components": [
            {
              "internalType": "bool",
              "name": "isInitialized",
              "type": "bool"
            },
            {
              "internalType": "uint256",
              "name": "createdAt",
              "type": "uint256"
            },
            {
              "internalType": "uint256",
              "name": "lastUpdated",
              "type": "uint256"
            },
            {
              "internalType": "uint256",
              "name": "perlin",
              "type": "uint256"
            },
            {
              "internalType": "enum SpaceType",
              "name": "spaceType",
              "type": "SpaceType"
            },
            {
              "internalType": "uint256",
              "name": "upgradeState0",
              "type": "uint256"
            },
            {
              "internalType": "uint256",
              "name": "upgradeState1",
              "type": "uint256"
            },
            {
              "internalType": "uint256",
              "name": "upgradeState2",
              "type": "uint256"
            },
            {
              "internalType": "uint256",
              "name": "hatLevel",
              "type": "uint256"
            },
            {
              "internalType": "bool",
              "name": "hasTriedFindingArtifact",
              "type": "bool"
            },
            {
              "internalType": "uint256",
              "name": "prospectedBlockNumber",
              "type": "uint256"
            },
            {
              "internalType": "bool",
              "name": "destroyed",
              "type": "bool"
            },
            {
              "internalType": "uint256",
              "name": "spaceJunk",
              "type": "uint256"
            }
          ],
          "internalType": "struct PlanetExtendedInfo",
          "name": "planetExtendedInfo",
          "type": "tuple"
        },
        {
          "components": [
            {
              "internalType": "bool",
              "name": "isInitialized",
              "type": "bool"
            },
            {
              "internalType": "uint256",
              "name": "pausers",
              "type": "uint256"
            },
            {
              "internalType": "address",
              "name": "invader",
              "type": "address"
            },
            {
              "internalType": "uint256",
              "name": "invadeStartBlock",
              "type": "uint256"
            },
            {
              "internalType": "address",
              "name": "capturer",
              "type": "address"
            }
          ],
          "internalType": "struct PlanetExtendedInfo2",
          "name": "planetExtendedInfo2",
          "type": "tuple"
        }
      ],
      "name": "applySpaceshipArrive",
      "outputs": [
        {
          "components": [
            {
              "internalType": "address",
              "name": "owner",
              "type": "address"
            },
            {
              "internalType": "uint256",
              "name": "range",
              "type": "uint256"
            },
            {
              "internalType": "uint256",
              "name": "speed",
              "type": "uint256"
            },
            {
              "internalType": "uint256",
              "name": "defense",
              "type": "uint256"
            },
            {
              "internalType": "uint256",
              "name": "population",
              "type": "uint256"
            },
            {
              "internalType": "uint256",
              "name": "populationCap",
              "type": "uint256"
            },
            {
              "internalType": "uint256",
              "name": "populationGrowth",
              "type": "uint256"
            },
            {
              "internalType": "uint256",
              "name": "silverCap",
              "type": "uint256"
            },
            {
              "internalType": "uint256",
              "name": "silverGrowth",
              "type": "uint256"
            },
            {
              "internalType": "uint256",
              "name": "silver",
              "type": "uint256"
            },
            {
              "internalType": "uint256",
              "name": "planetLevel",
              "type": "uint256"
            },
            {
              "internalType": "enum PlanetType",
              "name": "planetType",
              "type": "PlanetType"
            },
            {
              "internalType": "bool",
              "name": "isHomePlanet",
              "type": "bool"
            }
          ],
          "internalType": "struct Planet",
          "name": "",
          "type": "tuple"
        },
        {
          "components": [
            {
              "internalType": "bool",
              "name": "isInitialized",
              "type": "bool"
            },
            {
              "internalType": "uint256",
              "name": "createdAt",
              "type": "uint256"
            },
            {
              "internalType": "uint256",
              "name": "lastUpdated",
              "type": "uint256"
            },
            {
              "internalType": "uint256",
              "name": "perlin",
              "type": "uint256"
            },
            {
              "internalType": "enum SpaceType",
              "name": "spaceType",
              "type": "SpaceType"
            },
            {
              "internalType": "uint256",
              "name": "upgradeState0",
              "type": "uint256"
            },
            {
              "internalType": "uint256",
              "name": "upgradeState1",
              "type": "uint256"
            },
            {
              "internalType": "uint256",
              "name": "upgradeState2",
              "type": "uint256"
            },
            {
              "internalType": "uint256",
              "name": "hatLevel",
              "type": "uint256"
            },
            {
              "internalType": "bool",
              "name": "hasTriedFindingArtifact",
              "type": "bool"
            },
            {
              "internalType": "uint256",
              "name": "prospectedBlockNumber",
              "type": "uint256"
            },
            {
              "internalType": "bool",
              "name": "destroyed",
              "type": "bool"
            },
            {
              "internalType": "uint256",
              "name": "spaceJunk",
              "type": "uint256"
            }
          ],
          "internalType": "struct PlanetExtendedInfo",
          "name": "",
          "type": "tuple"
        },
        {
          "components": [
            {
              "internalType": "bool",
              "name": "isInitialized",
              "type": "bool"
            },
            {
              "internalType": "uint256",
              "name": "pausers",
              "type": "uint256"
            },
            {
              "internalType": "address",
              "name": "invader",
              "type": "address"
            },
            {
              "internalType": "uint256",
              "name": "invadeStartBlock",
              "type": "uint256"
            },
            {
              "internalType": "address",
              "name": "capturer",
              "type": "address"
            }
          ],
          "internalType": "struct PlanetExtendedInfo2",
          "name": "",
          "type": "tuple"
        }
      ],
      "stateMutability": "pure",
      "type": "function"
    }
  ],
  "bytecode": "0x615d5862000054600b82828239805160001a607314610047577f4e487b7100000000000000000000000000000000000000000000000000000000600052600060045260246000fd5b30600052607381538281f3fe73000000000000000000000000000000000000000030146080604052600436106100b35760003560e01c806373a853811161007b57806373a853811461018c5780637f1ac31c146101b55780638f0742bf146101e7578063e01f89261461021b578063eb75e28414610244578063f35f651314610274576100b3565b80631f59767e146100b85780632237b572146100e15780632caa23fc146101115780633f324cf31461013a578063443a397c14610163575b600080fd5b8180156100c457600080fd5b506100df60048036038101906100da9190612e01565b61029d565b005b6100fb60048036038101906100f69190612e01565b6103e7565b6040516101089190612fbf565b60405180910390f35b81801561011d57600080fd5b5061013860048036038101906101339190613169565b610595565b005b81801561014657600080fd5b50610161600480360381019061015c9190613196565b610a5b565b005b81801561016f57600080fd5b5061018a600480360381019061018591906131c3565b6110a2565b005b81801561019857600080fd5b506101b360048036038101906101ae91906131c3565b611340565b005b6101cf60048036038101906101ca9190613704565b611a26565b6040516101de939291906139fc565b60405180910390f35b61020160048036038101906101fc91906131c3565b611b52565b604051610212959493929190613ad2565b60405180910390f35b81801561022757600080fd5b50610242600480360381019061023d9190613d47565b6123a7565b005b61025e60048036038101906102599190613dc5565b6125ea565b60405161026b9190613e27565b60405180910390f35b81801561028057600080fd5b5061029b60048036038101906102969190613e42565b61283b565b005b73__LibGameUtils__________________________63c8d503ea846040518263ffffffff1660e01b81526004016102d49190613ecc565b602060405180830381865af41580156102f1573d6000803e3d6000fd5b505050506040513d601f19601f820116820180604052508101906103159190613efc565b610354576040517f08c379a000000000000000000000000000000000000000000000000000000000815260040161034b90613f86565b60405180910390fd5b60006103618484846103e7565b905061036c81610595565b610374612a8b565b60060184908060018154018082558091505060019003906000526020600020016000909190919091505560016103a8612a8b565b6005018260400151815481106103c1576103c0613fa6565b5b9060005260206000200160008282546103da9190614004565b9250508190555050505050565b6103ef612b6c565b600080600073__LibGameUtils__________________________638d4decca88886040518363ffffffff1660e01b815260040161042d92919061405a565b606060405180830381865af415801561044a573d6000803e3d6000fd5b505050506040513d601f19601f8201168201806040525081019061046e91906140c2565b925092509250841561052557600083146104bd576040517f08c379a00000000000000000000000000000000000000000000000000000000081526004016104b490614187565b60405180910390fd5b600060048111156104d1576104d0612e63565b5b8260048111156104e4576104e3612e63565b5b14610524576040517f08c379a000000000000000000000000000000000000000000000000000000000815260040161051b90614219565b60405180910390fd5b5b6040518060e0016040528088815260200187815260200184815260200161054a612a9a565b60030154815260200182600381111561056657610565612e63565b5b815260200183600481111561057e5761057d612e63565b5b815260200186151581525093505050509392505050565b600061059f612a8b565b600c01600083600001518152602001908152602001600020905060006105c3612a8b565b600e01600084600001518152602001908152602001600020905060006105e7612a8b565b600f0160008560000151815260200190815260200160002090508160000160009054906101000a900460ff1615610653576040517f08c379a000000000000000000000000000000000000000000000000000000000815260040161064a90614285565b60405180910390fd5b600073__LibGameUtils__________________________6314f65d3b866000015187604001518860a0015189608001518a606001516040518663ffffffff1660e01b81526004016106a89594939291906142c3565b6101a060405180830381865af41580156106c6573d6000803e3d6000fd5b505050506040513d601f19601f820116820180604052508101906106ea9190614463565b905080600001518460000160006101000a81548173ffffffffffffffffffffffffffffffffffffffff021916908373ffffffffffffffffffffffffffffffffffffffff16021790555080610180015184600b0160016101000a81548160ff021916908315150217905550806020015184600101819055508060400151846002018190555080606001518460030181905550806080015184600401819055508060a0015184600501819055508060c0015184600601819055508060e0015184600701819055508061010001518460080181905550806101200151846009018190555080610140015184600a018190555080610160015184600b0160006101000a81548160ff0219169083600481111561080557610804612e63565b5b021790555060018360000160006101000a81548160ff0219169083151502179055508460200151836003018190555084608001518360040160006101000a81548160ff0219169083600381111561085f5761085e612e63565b5b021790555042836001018190555042836002018190555060008360050181905550600083600601819055506000836007018190555060018260000160006101000a81548160ff021916908315150217905550600082600101819055508460c001511561093557600184600b0160016101000a81548160ff021916908315150217905550338460000160006101000a81548173ffffffffffffffffffffffffffffffffffffffff021916908373ffffffffffffffffffffffffffffffffffffffff16021790555061c3508460040181905550610a54565b73__LibGameUtils__________________________63ce3b576b856040518263ffffffff1660e01b815260040161096c91906146e7565b602060405180830381865af4158015610989573d6000803e3d6000fd5b505050506040513d601f19601f820116820180604052508101906109ad9190614703565b83600c018190555073__LibGameUtils__________________________639160f2de86600001516040518263ffffffff1660e01b81526004016109f09190613ecc565b602060405180830381865af4158015610a0d573d6000803e3d6000fd5b505050506040513d601f19601f82011682018060405250810190610a319190613efc565b15610a5357600283600c016000828254610a4b919061475f565b925050819055505b5b5050505050565b610a63612a8b565b600e01600082815260200190815260200160002060000160009054906101000a900460ff16610ac7576040517f08c379a0000000000000000000000000000000000000000000000000000000008152600401610abe906147dc565b60405180910390fd5b6000806000806000610ad98642611b52565b9450945094509450945084610aec612a8b565b600c01600088815260200190815260200160002060008201518160000160006101000a81548173ffffffffffffffffffffffffffffffffffffffff021916908373ffffffffffffffffffffffffffffffffffffffff1602179055506020820151816001015560408201518160020155606082015181600301556080820151816004015560a0820151816005015560c0820151816006015560e082015181600701556101008201518160080155610120820151816009015561014082015181600a015561016082015181600b0160006101000a81548160ff02191690836004811115610bda57610bd9612e63565b5b021790555061018082015181600b0160016101000a81548160ff02191690831515021790555090505083610c0c612a8b565b600e01600088815260200190815260200160002060008201518160000160006101000a81548160ff02191690831515021790555060208201518160010155604082015181600201556060820151816003015560808201518160040160006101000a81548160ff02191690836003811115610c8957610c88612e63565b5b021790555060a0820151816005015560c0820151816006015560e0820151816007015561010082015181600801556101208201518160090160006101000a81548160ff02191690831515021790555061014082015181600a015561016082015181600b0160006101000a81548160ff02191690831515021790555061018082015181600c015590505082610d1b612a8b565b600f01600088815260200190815260200160002060008201518160000160006101000a81548160ff0219169083151502179055506020820151816001015560408201518160020160006101000a81548173ffffffffffffffffffffffffffffffffffffffff021916908373ffffffffffffffffffffffffffffffffffffffff1602179055506060820151816003015560808201518160040160006101000a81548173ffffffffffffffffffffffffffffffffffffffff021916908373ffffffffffffffffffffffffffffffffffffffff1602179055509050506000610dfe612a8b565b6013016000888152602001908152602001600020905060005b600c811015610f9f5760005b8280549050811015610f8b578482600c8110610e4257610e41613fa6565b5b6020020151838281548110610e5a57610e59613fa6565b5b90600052602060002090600402016000015403610f78578260018480549050610e8391906147fc565b81548110610e9457610e93613fa6565b5b9060005260206000209060040201838281548110610eb557610eb4613fa6565b5b9060005260206000209060040201600082015481600001556001820160009054906101000a900460ff168160010160006101000a81548160ff02191690836000811115610f0557610f04612e63565b5b0217905550600282015481600201556003820154816003015590505082805480610f3257610f31614830565b5b60019003818190600052602060002090600402016000808201600090556001820160006101000a81549060ff021916905560028201600090556003820160009055505090555b8080610f839061485f565b915050610e23565b508080610f979061485f565b915050610e17565b5060005b600c8110156110985760008382600c8110610fc157610fc0613fa6565b5b602002015114611085576000610fd5612a8b565b60110160008584600c8110610fed57610fec613fa6565b5b602002015181526020019081526020016000208190555073__LibGameUtils__________________________63e83162c28483600c811061103157611030613fa6565b5b60200201518a6040518363ffffffff1660e01b815260040161105492919061405a565b60006040518083038186803b15801561106c57600080fd5b505af4158015611080573d6000803e3d6000fd5b505050505b80806110909061485f565b915050610fa3565b5050505050505050565b60006110ac612a8b565b600c016000848152602001908152602001600020905060006110cc612a8b565b600e01600085815260200190815260200160002090503373ffffffffffffffffffffffffffffffffffffffff168260000160009054906101000a900473ffffffffffffffffffffffffffffffffffffffff1673ffffffffffffffffffffffffffffffffffffffff1614611174576040517f08c379a000000000000000000000000000000000000000000000000000000000815260040161116b906148f3565b60405180910390fd5b6003600481111561118857611187612e63565b5b82600b0160009054906101000a900460ff1660048111156111ac576111ab612e63565b5b146111ec576040517f08c379a00000000000000000000000000000000000000000000000000000000081526004016111e390614985565b60405180910390fd5b80600b0160009054906101000a900460ff161561123e576040517f08c379a0000000000000000000000000000000000000000000000000000000008152600401611235906149f1565b60405180910390fd5b8282600901541015611285576040517f08c379a000000000000000000000000000000000000000000000000000000000815260040161127c90614a83565b60405180910390fd5b8282600901600082825461129991906147fc565b9250508190555060006103e8846112b0919061475f565b905060646112bc612a9a565b60420154826112cb9190614aa3565b6112d5919061475f565b9050806112e0612a8b565b60120160003373ffffffffffffffffffffffffffffffffffffffff1673ffffffffffffffffffffffffffffffffffffffff16815260200190815260200160002060040160008282546113329190614004565b925050819055505050505050565b600061134a612a8b565b600c0160008481526020019081526020016000209050600061136a612a8b565b600e01600085815260200190815260200160002090503373ffffffffffffffffffffffffffffffffffffffff168260000160009054906101000a900473ffffffffffffffffffffffffffffffffffffffff1673ffffffffffffffffffffffffffffffffffffffff1614611412576040517f08c379a000000000000000000000000000000000000000000000000000000000815260040161140990614b6f565b60405180910390fd5b600082600a015490506000811161145e576040517f08c379a000000000000000000000000000000000000000000000000000000000815260040161145590614c01565b60405180910390fd5b600384106114a1576040517f08c379a000000000000000000000000000000000000000000000000000000000815260040161149890614c6d565b60405180910390fd5b600060048111156114b5576114b4612e63565b5b83600b0160009054906101000a900460ff1660048111156114d9576114d8612e63565b5b14611519576040517f08c379a000000000000000000000000000000000000000000000000000000000815260040161151090614cd9565b60405180910390fd5b81600b0160009054906101000a900460ff161561156b576040517f08c379a0000000000000000000000000000000000000000000000000000000008152600401611562906149f1565b60405180910390fd5b60008260070154836006015484600501546115869190614004565b6115909190614004565b9050600060038111156115a6576115a5612e63565b5b8360040160009054906101000a900460ff1660038111156115ca576115c9612e63565b5b1480156115d75750600381105b806116235750600160038111156115f1576115f0612e63565b5b8360040160009054906101000a900460ff16600381111561161557611614612e63565b5b1480156116225750600481105b5b8061166f57506002600381111561163d5761163c612e63565b5b8360040160009054906101000a900460ff16600381111561166157611660612e63565b5b14801561166e5750600581105b5b806116ba575060038081111561168857611687612e63565b5b8360040160009054906101000a900460ff1660038111156116ac576116ab612e63565b5b1480156116b95750600581105b5b6116f9576040517f08c379a00000000000000000000000000000000000000000000000000000000081526004016116f090614d45565b60405180910390fd5b600080600281111561170e5761170d612e63565b5b86036117205783600501549050611769565b6001600281111561173457611733612e63565b5b86036117465783600601549050611768565b60028081111561175957611758612e63565b5b860361176757836007015490505b5b5b600481106117ac576040517f08c379a00000000000000000000000000000000000000000000000000000000081526004016117a390614db1565b60405180910390fd5b60006117b6612aa9565b87600381106117c8576117c7613fa6565b5b6014020182600481106117de576117dd613fa6565b5b600502016040518060a0016040529081600082015481526020016001820154815260200160028201548152602001600382015481526020016004820154815250509050600060646001856118329190614004565b601489600701546118439190614aa3565b61184d9190614aa3565b611857919061475f565b905080876009015410156118a0576040517f08c379a000000000000000000000000000000000000000000000000000000000815260040161189790614e1d565b60405180910390fd5b73__LibGameUtils__________________________6392dd471c8a846040518363ffffffff1660e01b81526004016118d9929190614ea5565b60006040518083038186803b1580156118f157600080fd5b505af4158015611905573d6000803e3d6000fd5b505050508087600901600082825461191d91906147fc565b925050819055506000600281111561193857611937612e63565b5b880361195f5760018660050160008282546119539190614004565b925050819055506119d2565b6001600281111561197357611972612e63565b5b880361199a57600186600601600082825461198e9190614004565b925050819055506119d1565b6002808111156119ad576119ac612e63565b5b88036119d05760018660070160008282546119c89190614004565b925050819055505b5b5b7f60152808f08b8da56b8e54e6c434937a71e3fea4878fa466a3c2b514d76f5e50338a8a600187611a039190614004565b604051611a139493929190614eec565b60405180910390a1505050505050505050565b611a2e612bcf565b611a36612c61565b611a3e612ce1565b85610180015115611a5757858585925092509250611b48565b600a600e811115611a6b57611a6a612e63565b5b8760e00151600e811115611a8257611a81612e63565b5b03611aa65760028660c001818151611a9a9190614aa3565b91508181525050611b3e565b600c600e811115611aba57611ab9612e63565b5b8760e00151600e811115611ad157611ad0612e63565b5b03611af65760028661010001818151611aea9190614aa3565b91508181525050611b3d565b600e80811115611b0957611b08612e63565b5b8760e00151600e811115611b2057611b1f612e63565b5b03611b3c57836020018051809190611b379061485f565b815250505b5b5b8585859250925092505b9450945094915050565b611b5a612bcf565b611b62612c61565b611b6a612ce1565b611b72612d3e565b611b7a612d3e565b6000611b84612a8b565b600c016000898152602001908152602001600020604051806101a00160405290816000820160009054906101000a900473ffffffffffffffffffffffffffffffffffffffff1673ffffffffffffffffffffffffffffffffffffffff1673ffffffffffffffffffffffffffffffffffffffff168152602001600182015481526020016002820154815260200160038201548152602001600482015481526020016005820154815260200160068201548152602001600782015481526020016008820154815260200160098201548152602001600a8201548152602001600b820160009054906101000a900460ff166004811115611c8357611c82612e63565b5b6004811115611c9557611c94612e63565b5b8152602001600b820160019054906101000a900460ff16151515158152505090506000611cc0612a8b565b600e0160008a8152602001908152602001600020604051806101a00160405290816000820160009054906101000a900460ff161515151581526020016001820154815260200160028201548152602001600382015481526020016004820160009054906101000a900460ff166003811115611d3e57611d3d612e63565b5b6003811115611d5057611d4f612e63565b5b8152602001600582015481526020016006820154815260200160078201548152602001600882015481526020016009820160009054906101000a900460ff16151515158152602001600a8201548152602001600b820160009054906101000a900460ff16151515158152602001600c8201548152505090506000611dd2612a8b565b600f0160008b81526020019081526020016000206040518060a00160405290816000820160009054906101000a900460ff16151515158152602001600182015481526020016002820160009054906101000a900473ffffffffffffffffffffffffffffffffffffffff1673ffffffffffffffffffffffffffffffffffffffff1673ffffffffffffffffffffffffffffffffffffffff168152602001600382015481526020016004820160009054906101000a900473ffffffffffffffffffffffffffffffffffffffff1673ffffffffffffffffffffffffffffffffffffffff1673ffffffffffffffffffffffffffffffffffffffff16815250509050611ed6612d61565b6000611ee0612a8b565b60130160008d8152602001908152602001600020805480602002602001604051908101604052809291908181526020016000905b82821015611f9f5783829060005260206000209060040201604051806080016040529081600082015481526020016001820160009054906101000a900460ff166000811115611f6657611f65612e63565b5b6000811115611f7857611f77612e63565b5b81526020016002820154815260200160038201548152505081526020019060010190611f14565b50505050905073__LibLazyUpdate_________________________63aceff2808c878787866040518663ffffffff1660e01b8152600401611fe495949392919061507d565b6106e060405180830381865af4158015612002573d6000803e3d6000fd5b505050506040513d601f19601f820116820180604052508101906120269190615350565b8095508196508297508398505050505060005b600c8110156120c95782816018811061205557612054613fa6565b5b60200201518882600c811061206d5761206c613fa6565b5b60200201818152505082600c826120849190614004565b6018811061209557612094613fa6565b5b60200201518782600c81106120ad576120ac613fa6565b5b60200201818152505080806120c19061485f565b915050612039565b5060005b600c8110156123035760006120e0612a8b565b60160160008984600c81106120f8576120f7613fa6565b5b60200201518152602001908152602001600020604051806101a00160405290816000820160009054906101000a900460ff1615151515815260200160018201548152602001600282015481526020016003820160009054906101000a900460ff16600581111561216b5761216a612e63565b5b600581111561217d5761217c612e63565b5b81526020016003820160019054906101000a900460ff16600a8111156121a6576121a5612e63565b5b600a8111156121b8576121b7612e63565b5b8152602001600482015481526020016005820160009054906101000a900473ffffffffffffffffffffffffffffffffffffffff1673ffffffffffffffffffffffffffffffffffffffff1673ffffffffffffffffffffffffffffffffffffffff1681526020016005820160149054906101000a900460ff16600e81111561224157612240612e63565b5b600e81111561225357612252612e63565b5b815260200160068201548152602001600782015481526020016008820154815260200160098201548152602001600a820160009054906101000a900473ffffffffffffffffffffffffffffffffffffffff1673ffffffffffffffffffffffffffffffffffffffff1673ffffffffffffffffffffffffffffffffffffffff168152505090506122e381888888611a26565b8097508198508299505050505080806122fb9061485f565b9150506120cd565b5073__LibLazyUpdate_________________________6355363bda8c8787876040518563ffffffff1660e01b815260040161234194939291906153bb565b6103e060405180830381865af415801561235f573d6000803e3d6000fd5b505050506040513d601f19601f820116820180604052508101906123839190615403565b80955081965082975050505084848499509950995050505050509295509295909350565b6123af612ad6565b60000160009054906101000a900460ff166124825773__Verifier______________________________634bdf7672868686866040518563ffffffff1660e01b8152600401612401949392919061565f565b602060405180830381865af415801561241e573d6000803e3d6000fd5b505050506040513d601f19601f820116820180604052508101906124429190613efc565b612481576040517f08c379a0000000000000000000000000000000000000000000000000000000008152600401612478906156f2565b60405180910390fd5b5b60008260006008811061249857612497613fa6565b5b602002015190506000836001600881106124b5576124b4613fa6565b5b6020020151905073__LibGameUtils__________________________6326c7e6186040518060a00160405280876003600881106124f5576124f4613fa6565b5b602002015181526020018760046008811061251357612512613fa6565b5b602002015181526020018760056008811061253157612530613fa6565b5b602002015181526020018760066008811061254f5761254e613fa6565b5b602002015181526020018760076008811061256d5761256c613fa6565b5b602002015181525060006040518363ffffffff1660e01b8152600401612594929190615796565b602060405180830381865af41580156125b1573d6000803e3d6000fd5b505050506040513d601f19601f820116820180604052508101906125d59190613efc565b506125e182828561029d565b50505050505050565b60006125f4612a8b565b60120160003373ffffffffffffffffffffffffffffffffffffffff1673ffffffffffffffffffffffffffffffffffffffff16815260200190815260200160002060000160009054906101000a900460ff1615612685576040517f08c379a000000000000000000000000000000000000000000000000000000000815260040161267c9061580b565b60405180910390fd5b61268d612a8b565b600901548211156126d3576040517f08c379a00000000000000000000000000000000000000000000000000000000081526004016126ca9061589d565b60405180910390fd5b60006126dd612a9a565b600901541461279557606461013a60026126f5612a8b565b6009015461270391906159fd565b61270d9190614aa3565b612717919061475f565b61271f612a9a565b60090154606461013a60028661273591906159fd565b61273f9190614aa3565b612749919061475f565b6127539190614004565b1015612794576040517f08c379a000000000000000000000000000000000000000000000000000000000815260040161278b90615aba565b60405180910390fd5b5b61279d612a9a565b600701548310156127e3576040517f08c379a00000000000000000000000000000000000000000000000000000000081526004016127da90615b4c565b60405180910390fd5b6127eb612a9a565b600801548310612830576040517f08c379a000000000000000000000000000000000000000000000000000000000815260040161282790615c04565b60405180910390fd5b600190509392505050565b80156128e557612849612a9a565b60190154612855612a8b565b60120160003373ffffffffffffffffffffffffffffffffffffffff1673ffffffffffffffffffffffffffffffffffffffff16815260200190815260200160002060030154426128a491906147fc565b116128e4576040517f08c379a00000000000000000000000000000000000000000000000000000000081526004016128db90615c96565b60405180910390fd5b5b60006128ef612a8b565b600d0160008781526020019081526020016000206000015414612947576040517f08c379a000000000000000000000000000000000000000000000000000000000815260040161293e90615d02565b60405180910390fd5b61294f612a8b565b60070185908060018154018082558091505060019003906000526020600020016000909190919091505560405180608001604052808681526020018481526020018381526020013373ffffffffffffffffffffffffffffffffffffffff168152506129b8612a8b565b600d01600087815260200190815260200160002060008201518160000155602082015181600101556040820151816002015560608201518160030160006101000a81548173ffffffffffffffffffffffffffffffffffffffff021916908373ffffffffffffffffffffffffffffffffffffffff16021790555090505042612a3d612a8b565b60120160003373ffffffffffffffffffffffffffffffffffffffff1673ffffffffffffffffffffffffffffffffffffffff168152602001908152602001600020600301819055505050505050565b6000612a95612ae5565b905090565b6000612aa4612b12565b905090565b6000807fb997f4d26de83b05e27fc6c6b9d295ba414ad9dfbfc3edc3b418ee775927d06890508091505090565b6000612ae0612b3f565b905090565b6000807fcb7f1a525606efcbba7baaf9b0b55c468d0fd558cbf767967f538834dfa1232e90508091505090565b6000807f5fb65bb339c6bd3f2609a7342e6cb046e09f3e40f45242a5971904b021b5bb5390508091505090565b6000807f2849cb27302bb32c0c7252ab45487d42296bcddad804f932e0b0589e515a937490508091505090565b6040518060e001604052806000815260200160008152602001600081526020016000815260200160006003811115612ba757612ba6612e63565b5b815260200160006004811115612bc057612bbf612e63565b5b81526020016000151581525090565b604051806101a00160405280600073ffffffffffffffffffffffffffffffffffffffff1681526020016000815260200160008152602001600081526020016000815260200160008152602001600081526020016000815260200160008152602001600081526020016000815260200160006004811115612c5257612c51612e63565b5b81526020016000151581525090565b604051806101a0016040528060001515815260200160008152602001600081526020016000815260200160006003811115612c9f57612c9e612e63565b5b81526020016000815260200160008152602001600081526020016000815260200160001515815260200160008152602001600015158152602001600081525090565b6040518060a0016040528060001515815260200160008152602001600073ffffffffffffffffffffffffffffffffffffffff16815260200160008152602001600073ffffffffffffffffffffffffffffffffffffffff1681525090565b604051806101800160405280600c90602082028036833780820191505090505090565b604051806103000160405280601890602082028036833780820191505090505090565b6000604051905090565b600080fd5b6000819050919050565b612da681612d93565b8114612db157600080fd5b50565b600081359050612dc381612d9d565b92915050565b60008115159050919050565b612dde81612dc9565b8114612de957600080fd5b50565b600081359050612dfb81612dd5565b92915050565b600080600060608486031215612e1a57612e19612d8e565b5b6000612e2886828701612db4565b9350506020612e3986828701612db4565b9250506040612e4a86828701612dec565b9150509250925092565b612e5d81612d93565b82525050565b7f4e487b7100000000000000000000000000000000000000000000000000000000600052602160045260246000fd5b60048110612ea357612ea2612e63565b5b50565b6000819050612eb482612e92565b919050565b6000612ec482612ea6565b9050919050565b612ed481612eb9565b82525050565b60058110612eeb57612eea612e63565b5b50565b6000819050612efc82612eda565b919050565b6000612f0c82612eee565b9050919050565b612f1c81612f01565b82525050565b612f2b81612dc9565b82525050565b60e082016000820151612f476000850182612e54565b506020820151612f5a6020850182612e54565b506040820151612f6d6040850182612e54565b506060820151612f806060850182612e54565b506080820151612f936080850182612ecb565b5060a0820151612fa660a0850182612f13565b5060c0820151612fb960c0850182612f22565b50505050565b600060e082019050612fd46000830184612f31565b92915050565b600080fd5b6000601f19601f8301169050919050565b7f4e487b7100000000000000000000000000000000000000000000000000000000600052604160045260246000fd5b61302882612fdf565b810181811067ffffffffffffffff8211171561304757613046612ff0565b5b80604052505050565b600061305a612d84565b9050613066828261301f565b919050565b6004811061307857600080fd5b50565b60008135905061308a8161306b565b92915050565b6005811061309d57600080fd5b50565b6000813590506130af81613090565b92915050565b600060e082840312156130cb576130ca612fda565b5b6130d560e0613050565b905060006130e584828501612db4565b60008301525060206130f984828501612db4565b602083015250604061310d84828501612db4565b604083015250606061312184828501612db4565b60608301525060806131358482850161307b565b60808301525060a0613149848285016130a0565b60a08301525060c061315d84828501612dec565b60c08301525092915050565b600060e0828403121561317f5761317e612d8e565b5b600061318d848285016130b5565b91505092915050565b6000602082840312156131ac576131ab612d8e565b5b60006131ba84828501612db4565b91505092915050565b600080604083850312156131da576131d9612d8e565b5b60006131e885828601612db4565b92505060206131f985828601612db4565b9150509250929050565b6006811061321057600080fd5b50565b60008135905061322281613203565b92915050565b600b811061323557600080fd5b50565b60008135905061324781613228565b92915050565b600073ffffffffffffffffffffffffffffffffffffffff82169050919050565b60006132788261324d565b9050919050565b6132888161326d565b811461329357600080fd5b50565b6000813590506132a58161327f565b92915050565b600f81106132b857600080fd5b50565b6000813590506132ca816132ab565b92915050565b60006101a082840312156132e7576132e6612fda565b5b6132f26101a0613050565b9050600061330284828501612dec565b600083015250602061331684828501612db4565b602083015250604061332a84828501612db4565b604083015250606061333e84828501613213565b606083015250608061335284828501613238565b60808301525060a061336684828501612db4565b60a08301525060c061337a84828501613296565b60c08301525060e061338e848285016132bb565b60e0830152506101006133a384828501612db4565b610100830152506101206133b984828501612db4565b610120830152506101406133cf84828501612db4565b610140830152506101606133e584828501612db4565b610160830152506101806133fb84828501613296565b6101808301525092915050565b60006101a0828403121561341f5761341e612fda565b5b61342a6101a0613050565b9050600061343a84828501613296565b600083015250602061344e84828501612db4565b602083015250604061346284828501612db4565b604083015250606061347684828501612db4565b606083015250608061348a84828501612db4565b60808301525060a061349e84828501612db4565b60a08301525060c06134b284828501612db4565b60c08301525060e06134c684828501612db4565b60e0830152506101006134db84828501612db4565b610100830152506101206134f184828501612db4565b6101208301525061014061350784828501612db4565b6101408301525061016061351d848285016130a0565b6101608301525061018061353384828501612dec565b6101808301525092915050565b60006101a0828403121561355757613556612fda565b5b6135626101a0613050565b9050600061357284828501612dec565b600083015250602061358684828501612db4565b602083015250604061359a84828501612db4565b60408301525060606135ae84828501612db4565b60608301525060806135c28482850161307b565b60808301525060a06135d684828501612db4565b60a08301525060c06135ea84828501612db4565b60c08301525060e06135fe84828501612db4565b60e08301525061010061361384828501612db4565b6101008301525061012061362984828501612dec565b6101208301525061014061363f84828501612db4565b6101408301525061016061365584828501612dec565b6101608301525061018061366b84828501612db4565b6101808301525092915050565b600060a0828403121561368e5761368d612fda565b5b61369860a0613050565b905060006136a884828501612dec565b60008301525060206136bc84828501612db4565b60208301525060406136d084828501613296565b60408301525060606136e484828501612db4565b60608301525060806136f884828501613296565b60808301525092915050565b600080600080610580858703121561371f5761371e612d8e565b5b600061372d878288016132d0565b9450506101a061373f87828801613408565b93505061034061375187828801613540565b9250506104e061376387828801613678565b91505092959194509250565b6137788161326d565b82525050565b6101a082016000820151613795600085018261376f565b5060208201516137a86020850182612e54565b5060408201516137bb6040850182612e54565b5060608201516137ce6060850182612e54565b5060808201516137e16080850182612e54565b5060a08201516137f460a0850182612e54565b5060c082015161380760c0850182612e54565b5060e082015161381a60e0850182612e54565b5061010082015161382f610100850182612e54565b50610120820151613844610120850182612e54565b50610140820151613859610140850182612e54565b5061016082015161386e610160850182612f13565b50610180820151613883610180850182612f22565b50505050565b6101a0820160008201516138a06000850182612f22565b5060208201516138b36020850182612e54565b5060408201516138c66040850182612e54565b5060608201516138d96060850182612e54565b5060808201516138ec6080850182612ecb565b5060a08201516138ff60a0850182612e54565b5060c082015161391260c0850182612e54565b5060e082015161392560e0850182612e54565b5061010082015161393a610100850182612e54565b5061012082015161394f610120850182612f22565b50610140820151613964610140850182612e54565b50610160820151613979610160850182612f22565b5061018082015161398e610180850182612e54565b50505050565b60a0820160008201516139aa6000850182612f22565b5060208201516139bd6020850182612e54565b5060408201516139d0604085018261376f565b5060608201516139e36060850182612e54565b5060808201516139f6608085018261376f565b50505050565b60006103e082019050613a12600083018661377e565b613a206101a0830185613889565b613a2e610340830184613994565b949350505050565b6000600c9050919050565b600081905092915050565b6000819050919050565b6000613a628383612e54565b60208301905092915050565b6000602082019050919050565b613a8481613a36565b613a8e8184613a41565b9250613a9982613a4c565b8060005b83811015613aca578151613ab18782613a56565b9650613abc83613a6e565b925050600181019050613a9d565b505050505050565b60006106e082019050613ae8600083018861377e565b613af66101a0830187613889565b613b04610340830186613994565b613b126103e0830185613a7b565b613b20610560830184613a7b565b9695505050505050565b600080fd5b600067ffffffffffffffff821115613b4a57613b49612ff0565b5b602082029050919050565b600080fd5b6000613b6d613b6884613b2f565b613050565b90508060208402830185811115613b8757613b86613b55565b5b835b81811015613bb05780613b9c8882612db4565b845260208401935050602081019050613b89565b5050509392505050565b600082601f830112613bcf57613bce613b2a565b5b6002613bdc848285613b5a565b91505092915050565b600067ffffffffffffffff821115613c0057613bff612ff0565b5b602082029050919050565b6000613c1e613c1984613be5565b613050565b90508060408402830185811115613c3857613c37613b55565b5b835b81811015613c615780613c4d8882613bba565b845260208401935050604081019050613c3a565b5050509392505050565b600082601f830112613c8057613c7f613b2a565b5b6002613c8d848285613c0b565b91505092915050565b600067ffffffffffffffff821115613cb157613cb0612ff0565b5b602082029050919050565b6000613ccf613cca84613c96565b613050565b90508060208402830185811115613ce957613ce8613b55565b5b835b81811015613d125780613cfe8882612db4565b845260208401935050602081019050613ceb565b5050509392505050565b600082601f830112613d3157613d30613b2a565b5b6008613d3e848285613cbc565b91505092915050565b60008060008060006102208688031215613d6457613d63612d8e565b5b6000613d7288828901613bba565b9550506040613d8388828901613c6b565b94505060c0613d9488828901613bba565b935050610100613da688828901613d1c565b925050610200613db888828901612dec565b9150509295509295909350565b600080600060608486031215613dde57613ddd612d8e565b5b6000613dec86828701612db4565b9350506020613dfd86828701612db4565b9250506040613e0e86828701612db4565b9150509250925092565b613e2181612dc9565b82525050565b6000602082019050613e3c6000830184613e18565b92915050565b600080600080600060a08688031215613e5e57613e5d612d8e565b5b6000613e6c88828901612db4565b9550506020613e7d88828901612db4565b9450506040613e8e88828901612db4565b9350506060613e9f88828901612db4565b9250506080613eb088828901612dec565b9150509295509295909350565b613ec681612d93565b82525050565b6000602082019050613ee16000830184613ebd565b92915050565b600081519050613ef681612dd5565b92915050565b600060208284031215613f1257613f11612d8e565b5b6000613f2084828501613ee7565b91505092915050565b600082825260208201905092915050565b7f4e6f7420612076616c696420706c616e6574206c6f636174696f6e0000000000600082015250565b6000613f70601b83613f29565b9150613f7b82613f3a565b602082019050919050565b60006020820190508181036000830152613f9f81613f63565b9050919050565b7f4e487b7100000000000000000000000000000000000000000000000000000000600052603260045260246000fd5b7f4e487b7100000000000000000000000000000000000000000000000000000000600052601160045260246000fd5b600061400f82612d93565b915061401a83612d93565b9250827fffffffffffffffffffffffffffffffffffffffffffffffffffffffffffffffff0382111561404f5761404e613fd5565b5b828201905092915050565b600060408201905061406f6000830185613ebd565b61407c6020830184613ebd565b9392505050565b60008151905061409281612d9d565b92915050565b6000815190506140a781613090565b92915050565b6000815190506140bc8161306b565b92915050565b6000806000606084860312156140db576140da612d8e565b5b60006140e986828701614083565b93505060206140fa86828701614098565b925050604061410b868287016140ad565b9150509250925092565b7f43616e206f6e6c7920696e697469616c697a65206f6e20706c616e6574206c6560008201527f76656c2030000000000000000000000000000000000000000000000000000000602082015250565b6000614171602583613f29565b915061417c82614115565b604082019050919050565b600060208201905081810360008301526141a081614164565b9050919050565b7f43616e206f6e6c7920696e697469616c697a65206f6e20726567756c6172207060008201527f6c616e6574730000000000000000000000000000000000000000000000000000602082015250565b6000614203602683613f29565b915061420e826141a7565b604082019050919050565b60006020820190508181036000830152614232816141f6565b9050919050565b7f506c616e657420697320616c726561647920696e697469616c697a6564000000600082015250565b600061426f601d83613f29565b915061427a82614239565b602082019050919050565b6000602082019050818103600083015261429e81614262565b9050919050565b6142ae81612f01565b82525050565b6142bd81612eb9565b82525050565b600060a0820190506142d86000830188613ebd565b6142e56020830187613ebd565b6142f260408301866142a5565b6142ff60608301856142b4565b61430c6080830184613ebd565b9695505050505050565b6000815190506143258161327f565b92915050565b60006101a0828403121561434257614341612fda565b5b61434d6101a0613050565b9050600061435d84828501614316565b600083015250602061437184828501614083565b602083015250604061438584828501614083565b604083015250606061439984828501614083565b60608301525060806143ad84828501614083565b60808301525060a06143c184828501614083565b60a08301525060c06143d584828501614083565b60c08301525060e06143e984828501614083565b60e0830152506101006143fe84828501614083565b6101008301525061012061441484828501614083565b6101208301525061014061442a84828501614083565b6101408301525061016061444084828501614098565b6101608301525061018061445684828501613ee7565b6101808301525092915050565b60006101a0828403121561447a57614479612d8e565b5b60006144888482850161432b565b91505092915050565b60008160001c9050919050565b600073ffffffffffffffffffffffffffffffffffffffff82169050919050565b60006144d16144cc83614491565b61449e565b9050919050565b6000819050919050565b60006144f56144f083614491565b6144d8565b9050919050565b600060ff82169050919050565b600061451c61451783614491565b6144fc565b9050919050565b60008160081c9050919050565b600060ff82169050919050565b600061455061454b83614523565b614530565b9050919050565b6101a08201600080830154905061456d816144be565b61457a600086018261376f565b506001830154905061458b816144e2565b6145986020860182612e54565b50600283015490506145a9816144e2565b6145b66040860182612e54565b50600383015490506145c7816144e2565b6145d46060860182612e54565b50600483015490506145e5816144e2565b6145f26080860182612e54565b5060058301549050614603816144e2565b61461060a0860182612e54565b5060068301549050614621816144e2565b61462e60c0860182612e54565b506007830154905061463f816144e2565b61464c60e0860182612e54565b506008830154905061465d816144e2565b61466b610100860182612e54565b506009830154905061467c816144e2565b61468a610120860182612e54565b50600a830154905061469b816144e2565b6146a9610140860182612e54565b50600b83015490506146ba81614509565b6146c8610160860182612f13565b506146d28161453d565b6146e0610180860182612f22565b5050505050565b60006101a0820190506146fd6000830184614557565b92915050565b60006020828403121561471957614718612d8e565b5b600061472784828501614083565b91505092915050565b7f4e487b7100000000000000000000000000000000000000000000000000000000600052601260045260246000fd5b600061476a82612d93565b915061477583612d93565b92508261478557614784614730565b5b828204905092915050565b7f506c616e657420686173206e6f74206265656e20696e697469616c697a656400600082015250565b60006147c6601f83613f29565b91506147d182614790565b602082019050919050565b600060208201905081810360008301526147f5816147b9565b9050919050565b600061480782612d93565b915061481283612d93565b92508282101561482557614824613fd5565b5b828203905092915050565b7f4e487b7100000000000000000000000000000000000000000000000000000000600052603160045260246000fd5b600061486a82612d93565b91507fffffffffffffffffffffffffffffffffffffffffffffffffffffffffffffffff820361489c5761489b613fd5565b5b600182019050919050565b7f796f75206d757374206f776e207468697320706c616e65740000000000000000600082015250565b60006148dd601883613f29565b91506148e8826148a7565b602082019050919050565b6000602082019050818103600083015261490c816148d0565b9050919050565b7f63616e206f6e6c792077697468647261772073696c7665722066726f6d20747260008201527f6164696e6720706f737473000000000000000000000000000000000000000000602082015250565b600061496f602b83613f29565b915061497a82614913565b604082019050919050565b6000602082019050818103600083015261499e81614962565b9050919050565b7f706c616e65742069732064657374726f79656400000000000000000000000000600082015250565b60006149db601383613f29565b91506149e6826149a5565b602082019050919050565b60006020820190508181036000830152614a0a816149ce565b9050919050565b7f747269656420746f207769746864726177206d6f72652073696c76657220746860008201527f616e20657869737473206f6e20706c616e657400000000000000000000000000602082015250565b6000614a6d603383613f29565b9150614a7882614a11565b604082019050919050565b60006020820190508181036000830152614a9c81614a60565b9050919050565b6000614aae82612d93565b9150614ab983612d93565b9250817fffffffffffffffffffffffffffffffffffffffffffffffffffffffffffffffff0483118215151615614af257614af1613fd5565b5b828202905092915050565b7f4f6e6c79206f776e6572206163636f756e742063616e20706572666f726d207460008201527f686174206f7065726174696f6e206f6e20706c616e65742e0000000000000000602082015250565b6000614b59603883613f29565b9150614b6482614afd565b604082019050919050565b60006020820190508181036000830152614b8881614b4c565b9050919050565b7f506c616e6574206c6576656c206973206e6f74206869676820656e6f7567682060008201527f666f722074686973207570677261646500000000000000000000000000000000602082015250565b6000614beb603083613f29565b9150614bf682614b8f565b604082019050919050565b60006020820190508181036000830152614c1a81614bde565b9050919050565b7f55706772616465206272616e6368206e6f742076616c69640000000000000000600082015250565b6000614c57601883613f29565b9150614c6282614c21565b602082019050919050565b60006020820190508181036000830152614c8681614c4a565b9050919050565b7f43616e206f6e6c79207570677261646520726567756c617220706c616e657473600082015250565b6000614cc3602083613f29565b9150614cce82614c8d565b602082019050919050565b60006020820190508181036000830152614cf281614cb6565b9050919050565b7f506c616e6574206174206d617820746f74616c206c6576656c00000000000000600082015250565b6000614d2f601983613f29565b9150614d3a82614cf9565b602082019050919050565b60006020820190508181036000830152614d5e81614d22565b9050919050565b7f55706772616465206272616e636820616c7265616479206d6178656400000000600082015250565b6000614d9b601c83613f29565b9150614da682614d65565b602082019050919050565b60006020820190508181036000830152614dca81614d8e565b9050919050565b7f496e73756666696369656e742073696c76657220746f20757067726164650000600082015250565b6000614e07601e83613f29565b9150614e1282614dd1565b602082019050919050565b60006020820190508181036000830152614e3681614dfa565b9050919050565b60a082016000820151614e536000850182612e54565b506020820151614e666020850182612e54565b506040820151614e796040850182612e54565b506060820151614e8c6060850182612e54565b506080820151614e9f6080850182612e54565b50505050565b600060c082019050614eba6000830185613ebd565b614ec76020830184614e3d565b9392505050565b614ed78161326d565b82525050565b614ee681612d93565b82525050565b6000608082019050614f016000830187614ece565b614f0e6020830186614edd565b614f1b6040830185614edd565b614f286060830184614edd565b95945050505050565b600081519050919050565b600082825260208201905092915050565b6000819050602082019050919050565b60018110614f6e57614f6d612e63565b5b50565b6000819050614f7f82614f5d565b919050565b6000614f8f82614f71565b9050919050565b614f9f81614f84565b82525050565b608082016000820151614fbb6000850182612e54565b506020820151614fce6020850182614f96565b506040820151614fe16040850182612e54565b506060820151614ff46060850182612e54565b50505050565b60006150068383614fa5565b60808301905092915050565b6000602082019050919050565b600061502a82614f31565b6150348185614f3c565b935061503f83614f4d565b8060005b838110156150705781516150578882614ffa565b975061506283615012565b925050600181019050615043565b5085935050505092915050565b6000610420820190506150936000830188613ebd565b6150a0602083018761377e565b6150ae6101c0830186613889565b6150bc610360830185613994565b8181036104008301526150cf818461501f565b90509695505050505050565b60006101a082840312156150f2576150f1612fda565b5b6150fd6101a0613050565b9050600061510d84828501613ee7565b600083015250602061512184828501614083565b602083015250604061513584828501614083565b604083015250606061514984828501614083565b606083015250608061515d848285016140ad565b60808301525060a061517184828501614083565b60a08301525060c061518584828501614083565b60c08301525060e061519984828501614083565b60e0830152506101006151ae84828501614083565b610100830152506101206151c484828501613ee7565b610120830152506101406151da84828501614083565b610140830152506101606151f084828501613ee7565b6101608301525061018061520684828501614083565b6101808301525092915050565b600060a0828403121561522957615228612fda565b5b61523360a0613050565b9050600061524384828501613ee7565b600083015250602061525784828501614083565b602083015250604061526b84828501614316565b604083015250606061527f84828501614083565b606083015250608061529384828501614316565b60808301525092915050565b600067ffffffffffffffff8211156152ba576152b9612ff0565b5b602082029050919050565b60006152d86152d38461529f565b613050565b905080602084028301858111156152f2576152f1613b55565b5b835b8181101561531b57806153078882614083565b8452602084019350506020810190506152f4565b5050509392505050565b600082601f83011261533a57615339613b2a565b5b60186153478482856152c5565b91505092915050565b6000806000806106e0858703121561536b5761536a612d8e565b5b60006153798782880161432b565b9450506101a061538b878288016150db565b93505061034061539d87828801615213565b9250506103e06153af87828801615325565b91505092959194509250565b6000610400820190506153d16000830187613ebd565b6153de602083018661377e565b6153ec6101c0830185613889565b6153fa610360830184613994565b95945050505050565b60008060006103e0848603121561541d5761541c612d8e565b5b600061542b8682870161432b565b9350506101a061543d868287016150db565b92505061034061544f86828701615213565b9150509250925092565b600060029050919050565b600081905092915050565b6000819050919050565b6000602082019050919050565b61548f81615459565b6154998184615464565b92506154a48261546f565b8060005b838110156154d55781516154bc8782613a56565b96506154c783615479565b9250506001810190506154a8565b505050505050565b600060029050919050565b600081905092915050565b6000819050919050565b600081905092915050565b61551181615459565b61551b81846154fd565b92506155268261546f565b8060005b8381101561555757815161553e8782613a56565b965061554983615479565b92505060018101905061552a565b505050505050565b600061556b8383615508565b60408301905092915050565b6000602082019050919050565b61558d816154dd565b61559781846154e8565b92506155a2826154f3565b8060005b838110156155d35781516155ba878261555f565b96506155c583615577565b9250506001810190506155a6565b505050505050565b600060089050919050565b600081905092915050565b6000819050919050565b6000602082019050919050565b615611816155db565b61561b81846155e6565b9250615626826155f1565b8060005b8381101561565757815161563e8782613a56565b9650615649836155fb565b92505060018101905061562a565b505050505050565b6000610200820190506156756000830187615486565b6156826040830186615584565b61568f60c0830185615486565b61569d610100830184615608565b95945050505050565b7f4661696c656420696e69742070726f6f6620636865636b000000000000000000600082015250565b60006156dc601783613f29565b91506156e7826156a6565b602082019050919050565b6000602082019050818103600083015261570b816156cf565b9050919050565b600060059050919050565b600081905092915050565b6000819050919050565b6000602082019050919050565b61574881615712565b615752818461571d565b925061575d82615728565b8060005b8381101561578e5781516157758782613a56565b965061578083615732565b925050600181019050615761565b505050505050565b600060c0820190506157ab600083018561573f565b6157b860a0830184613e18565b9392505050565b7f506c6179657220697320616c726561647920696e697469616c697a6564000000600082015250565b60006157f5601d83613f29565b9150615800826157bf565b602082019050919050565b60006020820190508181036000830152615824816157e8565b9050919050565b7f496e69742072616469757320697320626967676572207468616e20746865206360008201527f757272656e7420776f726c642072616469757300000000000000000000000000602082015250565b6000615887603383613f29565b91506158928261582b565b604082019050919050565b600060208201905081810360008301526158b68161587a565b9050919050565b60008160011c9050919050565b6000808291508390505b6001851115615914578086048111156158f0576158ef613fd5565b5b60018516156158ff5780820291505b808102905061590d856158bd565b94506158d4565b94509492505050565b60008261592d57600190506159e9565b8161593b57600090506159e9565b8160018114615951576002811461595b5761598a565b60019150506159e9565b60ff84111561596d5761596c613fd5565b5b8360020a91508482111561598457615983613fd5565b5b506159e9565b5060208310610133831016604e8410600b84101617156159bf5782820a9050838111156159ba576159b9613fd5565b5b6159e9565b6159cc84848460016158ca565b925090508184048111156159e3576159e2613fd5565b5b81810290505b9392505050565b600060ff82169050919050565b6000615a0882612d93565b9150615a13836159f0565b9250615a407fffffffffffffffffffffffffffffffffffffffffffffffffffffffffffffffff848461591d565b905092915050565b7f506c617965722063616e206f6e6c7920737061776e2061742074686520756e6960008201527f76657273652072696d0000000000000000000000000000000000000000000000602082015250565b6000615aa4602983613f29565b9150615aaf82615a48565b604082019050919050565b60006020820190508181036000830152615ad381615a97565b9050919050565b7f496e6974206e6f7420616c6c6f77656420696e207065726c696e2076616c756560008201527f206c657373207468616e20494e49545f5045524c494e5f4d494e000000000000602082015250565b6000615b36603a83613f29565b9150615b4182615ada565b604082019050919050565b60006020820190508181036000830152615b6581615b29565b9050919050565b7f496e6974206e6f7420616c6c6f77656420696e207065726c696e2076616c756560008201527f2067726561746572207468616e206f7220657175616c20746f2074686520494e60208201527f49545f5045524c494e5f4d415800000000000000000000000000000000000000604082015250565b6000615bee604d83613f29565b9150615bf982615b6c565b606082019050919050565b60006020820190508181036000830152615c1d81615be1565b9050919050565b7f7761697420666f7220636f6f6c646f776e206265666f72652072657665616c6960008201527f6e6720616761696e000000000000000000000000000000000000000000000000602082015250565b6000615c80602883613f29565b9150615c8b82615c24565b604082019050919050565b60006020820190508181036000830152615caf81615c73565b9050919050565b7f4c6f636174696f6e20616c72656164792072657665616c656400000000000000600082015250565b6000615cec601983613f29565b9150615cf782615cb6565b602082019050919050565b60006020820190508181036000830152615d1b81615cdf565b905091905056fea26469706673582212209c1e685da49a839d8a1c0bb89c8ff3b5473572dfc9e82bcad73be21c7f6b883b64736f6c634300080d0033",
  "immutableReferences": {},
  "source": "// SPDX-License-Identifier: GPL-3.0\npragma solidity ^0.8.0;\n\n// Library imports\nimport {LibGameUtils} from \"./LibGameUtils.sol\";\nimport {LibLazyUpdate} from \"./LibLazyUpdate.sol\";\nimport {Verifier} from \"../Verifier.sol\";\n\n// Storage imports\nimport {LibStorage, GameStorage, GameConstants, SnarkConstants} from \"./LibStorage.sol\";\n\n// Type imports\nimport {\n    Artifact,\n    ArtifactType,\n    DFPInitPlanetArgs,\n    Planet,\n    PlanetEventMetadata,\n    PlanetExtendedInfo,\n    PlanetExtendedInfo2,\n    PlanetType,\n    RevealedCoords,\n    SpaceType,\n    Upgrade,\n    UpgradeBranch\n} from \"../DFTypes.sol\";\n\nlibrary LibPlanet {\n    function gs() internal pure returns (GameStorage storage) {\n        return LibStorage.gameStorage();\n    }\n\n    function snarkConstants() internal pure returns (SnarkConstants storage sc) {\n        return LibStorage.snarkConstants();\n    }\n\n    function gameConstants() internal pure returns (GameConstants storage) {\n        return LibStorage.gameConstants();\n    }\n\n    // also need to copy some of DFCore's event signatures\n    event ArtifactActivated(address player, uint256 artifactId, uint256 loc);\n    event ArtifactDeactivated(address player, uint256 artifactId, uint256 loc);\n    event PlanetUpgraded(address player, uint256 loc, uint256 branch, uint256 toBranchLevel);\n\n    function revealLocation(\n        uint256 location,\n        uint256 perlin,\n        uint256 x,\n        uint256 y,\n        bool checkTimestamp\n    ) public {\n        if (checkTimestamp) {\n            require(\n                block.timestamp - gs().players[msg.sender].lastRevealTimestamp >\n                    gameConstants().LOCATION_REVEAL_COOLDOWN,\n                \"wait for cooldown before revealing again\"\n            );\n        }\n        require(gs().revealedCoords[location].locationId == 0, \"Location already revealed\");\n        gs().revealedPlanetIds.push(location);\n        gs().revealedCoords[location] = RevealedCoords({\n            locationId: location,\n            x: x,\n            y: y,\n            revealer: msg.sender\n        });\n        gs().players[msg.sender].lastRevealTimestamp = block.timestamp;\n    }\n\n    function getDefaultInitPlanetArgs(\n        uint256 _location,\n        uint256 _perlin,\n        bool _isHomePlanet\n    ) public view returns (DFPInitPlanetArgs memory) {\n        (uint256 level, PlanetType planetType, SpaceType spaceType) =\n            LibGameUtils._getPlanetLevelTypeAndSpaceType(_location, _perlin);\n\n        if (_isHomePlanet) {\n            require(level == 0, \"Can only initialize on planet level 0\");\n            require(planetType == PlanetType.PLANET, \"Can only initialize on regular planets\");\n        }\n\n        return\n            DFPInitPlanetArgs(\n                _location,\n                _perlin,\n                level,\n                gameConstants().TIME_FACTOR_HUNDREDTHS,\n                spaceType,\n                planetType,\n                _isHomePlanet\n            );\n    }\n\n    /**\n     * Same SNARK args as `initializePlayer`. Adds a planet to the smart contract without setting an owner.\n     */\n    function initializePlanet(\n        uint256[2] memory _a,\n        uint256[2][2] memory _b,\n        uint256[2] memory _c,\n        uint256[8] memory _input,\n        bool isHomePlanet\n    ) public {\n        if (!snarkConstants().DISABLE_ZK_CHECKS) {\n            require(Verifier.verifyInitProof(_a, _b, _c, _input), \"Failed init proof check\");\n        }\n\n        uint256 _location = _input[0];\n        uint256 _perlin = _input[1];\n\n        LibGameUtils.revertIfBadSnarkPerlinFlags(\n            [_input[3], _input[4], _input[5], _input[6], _input[7]],\n            false\n        );\n\n        // Initialize planet information\n        initializePlanetWithDefaults(_location, _perlin, isHomePlanet);\n    }\n\n    function initializePlanetWithDefaults(\n        uint256 _location,\n        uint256 _perlin,\n        bool _isHomePlanet\n    ) public {\n        require(LibGameUtils._locationIdValid(_location), \"Not a valid planet location\");\n\n        DFPInitPlanetArgs memory initArgs =\n            getDefaultInitPlanetArgs(_location, _perlin, _isHomePlanet);\n\n        _initializePlanet(initArgs);\n        gs().planetIds.push(_location);\n        gs().initializedPlanetCountByLevel[initArgs.level] += 1;\n    }\n\n    function _initializePlanet(DFPInitPlanetArgs memory args) public {\n        Planet storage _planet = gs().planets[args.location];\n        PlanetExtendedInfo storage _planetExtendedInfo = gs().planetsExtendedInfo[args.location];\n        PlanetExtendedInfo2 storage _planetExtendedInfo2 = gs().planetsExtendedInfo2[args.location];\n        // can't initialize a planet twice\n        require(!_planetExtendedInfo.isInitialized, \"Planet is already initialized\");\n\n        // planet initialize should set the planet to default state, including having the owner be adress 0x0\n        // then it's the responsibility for the mechanics to set the owner to the player\n\n        Planet memory defaultPlanet =\n            LibGameUtils._defaultPlanet(\n                args.location,\n                args.level,\n                args.planetType,\n                args.spaceType,\n                args.TIME_FACTOR_HUNDREDTHS\n            );\n        _planet.owner = defaultPlanet.owner;\n        _planet.isHomePlanet = defaultPlanet.isHomePlanet;\n        _planet.range = defaultPlanet.range;\n        _planet.speed = defaultPlanet.speed;\n        _planet.defense = defaultPlanet.defense;\n        _planet.population = defaultPlanet.population;\n        _planet.populationCap = defaultPlanet.populationCap;\n        _planet.populationGrowth = defaultPlanet.populationGrowth;\n        _planet.silverCap = defaultPlanet.silverCap;\n        _planet.silverGrowth = defaultPlanet.silverGrowth;\n        _planet.silver = defaultPlanet.silver;\n        _planet.planetLevel = defaultPlanet.planetLevel;\n        _planet.planetType = defaultPlanet.planetType;\n\n        _planetExtendedInfo.isInitialized = true;\n        _planetExtendedInfo.perlin = args.perlin;\n        _planetExtendedInfo.spaceType = args.spaceType;\n        _planetExtendedInfo.createdAt = block.timestamp;\n        _planetExtendedInfo.lastUpdated = block.timestamp;\n        _planetExtendedInfo.upgradeState0 = 0;\n        _planetExtendedInfo.upgradeState1 = 0;\n        _planetExtendedInfo.upgradeState2 = 0;\n\n        _planetExtendedInfo2.isInitialized = true;\n        _planetExtendedInfo2.pausers = 0;\n\n        if (args.isHomePlanet) {\n            _planet.isHomePlanet = true;\n            _planet.owner = msg.sender;\n            _planet.population = 50000;\n        } else {\n            _planetExtendedInfo.spaceJunk = LibGameUtils.getPlanetDefaultSpaceJunk(_planet);\n\n            if (LibGameUtils.isHalfSpaceJunk(args.location)) {\n                _planetExtendedInfo.spaceJunk /= 2;\n            }\n        }\n    }\n\n    function upgradePlanet(uint256 _location, uint256 _branch) public {\n        Planet storage planet = gs().planets[_location];\n        PlanetExtendedInfo storage info = gs().planetsExtendedInfo[_location];\n        require(\n            planet.owner == msg.sender,\n            \"Only owner account can perform that operation on planet.\"\n        );\n        uint256 planetLevel = planet.planetLevel;\n        require(planetLevel > 0, \"Planet level is not high enough for this upgrade\");\n        require(_branch < 3, \"Upgrade branch not valid\");\n        require(planet.planetType == PlanetType.PLANET, \"Can only upgrade regular planets\");\n        require(!info.destroyed, \"planet is destroyed\");\n\n        uint256 totalLevel = info.upgradeState0 + info.upgradeState1 + info.upgradeState2;\n        require(\n            (info.spaceType == SpaceType.NEBULA && totalLevel < 3) ||\n                (info.spaceType == SpaceType.SPACE && totalLevel < 4) ||\n                (info.spaceType == SpaceType.DEEP_SPACE && totalLevel < 5) ||\n                (info.spaceType == SpaceType.DEAD_SPACE && totalLevel < 5),\n            \"Planet at max total level\"\n        );\n\n        uint256 upgradeBranchCurrentLevel;\n        if (_branch == uint256(UpgradeBranch.DEFENSE)) {\n            upgradeBranchCurrentLevel = info.upgradeState0;\n        } else if (_branch == uint256(UpgradeBranch.RANGE)) {\n            upgradeBranchCurrentLevel = info.upgradeState1;\n        } else if (_branch == uint256(UpgradeBranch.SPEED)) {\n            upgradeBranchCurrentLevel = info.upgradeState2;\n        }\n        require(upgradeBranchCurrentLevel < 4, \"Upgrade branch already maxed\");\n\n        Upgrade memory upgrade = LibStorage.upgrades()[_branch][upgradeBranchCurrentLevel];\n        uint256 upgradeCost = (planet.silverCap * 20 * (totalLevel + 1)) / 100;\n        require(planet.silver >= upgradeCost, \"Insufficient silver to upgrade\");\n\n        // do upgrade\n        LibGameUtils._buffPlanet(_location, upgrade);\n        planet.silver -= upgradeCost;\n        if (_branch == uint256(UpgradeBranch.DEFENSE)) {\n            info.upgradeState0 += 1;\n        } else if (_branch == uint256(UpgradeBranch.RANGE)) {\n            info.upgradeState1 += 1;\n        } else if (_branch == uint256(UpgradeBranch.SPEED)) {\n            info.upgradeState2 += 1;\n        }\n        emit PlanetUpgraded(msg.sender, _location, _branch, upgradeBranchCurrentLevel + 1);\n    }\n\n    function checkPlayerInit(\n        uint256 _location,\n        uint256 _perlin,\n        uint256 _radius\n    ) public view returns (bool) {\n        require(!gs().players[msg.sender].isInitialized, \"Player is already initialized\");\n        require(_radius <= gs().worldRadius, \"Init radius is bigger than the current world radius\");\n\n        if (gameConstants().SPAWN_RIM_AREA != 0) {\n            require(\n                (_radius**2 * 314) / 100 + gameConstants().SPAWN_RIM_AREA >=\n                    (gs().worldRadius**2 * 314) / 100,\n                \"Player can only spawn at the universe rim\"\n            );\n        }\n\n        require(\n            _perlin >= gameConstants().INIT_PERLIN_MIN,\n            \"Init not allowed in perlin value less than INIT_PERLIN_MIN\"\n        );\n        require(\n            _perlin < gameConstants().INIT_PERLIN_MAX,\n            \"Init not allowed in perlin value greater than or equal to the INIT_PERLIN_MAX\"\n        );\n        return true;\n    }\n\n    function getRefreshedPlanet(uint256 location, uint256 timestamp)\n        public\n        view\n        returns (\n            Planet memory,\n            PlanetExtendedInfo memory,\n            PlanetExtendedInfo2 memory,\n            uint256[12] memory eventsToRemove,\n            uint256[12] memory artifactsToAdd\n        )\n    {\n        Planet memory planet = gs().planets[location];\n        PlanetExtendedInfo memory planetExtendedInfo = gs().planetsExtendedInfo[location];\n        PlanetExtendedInfo2 memory planetExtendedInfo2 = gs().planetsExtendedInfo2[location];\n\n        // first 12 are event ids to remove\n        // last 12 are artifact ids that are new on the planet\n        uint256[24] memory updates;\n\n        PlanetEventMetadata[] memory events = gs().planetEvents[location];\n\n        (planet, planetExtendedInfo, planetExtendedInfo2, updates) = LibLazyUpdate\n            .applyPendingEvents(timestamp, planet, planetExtendedInfo, planetExtendedInfo2, events);\n\n        for (uint256 i = 0; i < 12; i++) {\n            eventsToRemove[i] = updates[i];\n            artifactsToAdd[i] = updates[i + 12];\n        }\n\n        for (uint256 i = 0; i < artifactsToAdd.length; i++) {\n            Artifact memory artifact = gs().artifacts[artifactsToAdd[i]];\n\n            (planet, planetExtendedInfo, planetExtendedInfo2) = applySpaceshipArrive(\n                artifact,\n                planet,\n                planetExtendedInfo,\n                planetExtendedInfo2\n            );\n        }\n\n        (planet, planetExtendedInfo, planetExtendedInfo2) = LibLazyUpdate.updatePlanet(\n            timestamp,\n            planet,\n            planetExtendedInfo,\n            planetExtendedInfo2\n        );\n\n        return (planet, planetExtendedInfo, planetExtendedInfo2, eventsToRemove, artifactsToAdd);\n    }\n\n    function applySpaceshipArrive(\n        Artifact memory artifact,\n        Planet memory planet,\n        PlanetExtendedInfo memory planetExtendedInfo,\n        PlanetExtendedInfo2 memory planetExtendedInfo2\n    )\n        public\n        pure\n        returns (\n            Planet memory,\n            PlanetExtendedInfo memory,\n            PlanetExtendedInfo2 memory\n        )\n    {\n        if (planet.isHomePlanet) {\n            return (planet, planetExtendedInfo, planetExtendedInfo2);\n        }\n\n        if (artifact.artifactType == ArtifactType.ShipMothership) {\n            planet.populationGrowth *= 2;\n        } else if (artifact.artifactType == ArtifactType.ShipWhale) {\n            planet.silverGrowth *= 2;\n        } else if (artifact.artifactType == ArtifactType.ShipTitan) {\n            planetExtendedInfo2.pausers++;\n        }\n\n        return (planet, planetExtendedInfo, planetExtendedInfo2);\n    }\n\n    function refreshPlanet(uint256 location) public {\n        require(\n            gs().planetsExtendedInfo[location].isInitialized,\n            \"Planet has not been initialized\"\n        );\n\n        (\n            Planet memory planet,\n            PlanetExtendedInfo memory planetInfo,\n            PlanetExtendedInfo2 memory planetInfo2,\n            uint256[12] memory eventsToRemove,\n            uint256[12] memory artifactIdsToAddToPlanet\n        ) = getRefreshedPlanet(location, block.timestamp);\n\n        gs().planets[location] = planet;\n        gs().planetsExtendedInfo[location] = planetInfo;\n        gs().planetsExtendedInfo2[location] = planetInfo2;\n\n        PlanetEventMetadata[] storage events = gs().planetEvents[location];\n\n        for (uint256 toRemoveIdx = 0; toRemoveIdx < 12; toRemoveIdx++) {\n            for (uint256 i = 0; i < events.length; i++) {\n                if (events[i].id == eventsToRemove[toRemoveIdx]) {\n                    events[i] = events[events.length - 1];\n                    events.pop();\n                }\n            }\n        }\n\n        for (uint256 i = 0; i < 12; i++) {\n            if (artifactIdsToAddToPlanet[i] != 0) {\n                gs().artifactIdToVoyageId[artifactIdsToAddToPlanet[i]] = 0;\n                LibGameUtils._putArtifactOnPlanet(artifactIdsToAddToPlanet[i], location);\n            }\n        }\n    }\n\n    function withdrawSilver(uint256 locationId, uint256 silverToWithdraw) public {\n        Planet storage planet = gs().planets[locationId];\n        PlanetExtendedInfo storage info = gs().planetsExtendedInfo[locationId];\n        require(planet.owner == msg.sender, \"you must own this planet\");\n        require(\n            planet.planetType == PlanetType.TRADING_POST,\n            \"can only withdraw silver from trading posts\"\n        );\n        require(!info.destroyed, \"planet is destroyed\");\n        require(\n            planet.silver >= silverToWithdraw,\n            \"tried to withdraw more silver than exists on planet\"\n        );\n\n        planet.silver -= silverToWithdraw;\n\n        // Energy and Silver are not stored as floats in the smart contracts,\n        // so any of those values coming from the contracts need to be divided by\n        // `CONTRACT_PRECISION` to get their true integer value.\n        uint256 scoreGained = silverToWithdraw / 1000;\n        scoreGained = (scoreGained * gameConstants().SILVER_SCORE_VALUE) / 100;\n        gs().players[msg.sender].score += scoreGained;\n    }\n}\n",
  "sourcePath": "/home/terra/opensource/tosca-chain/smart-contract-example/contracts/libraries/LibPlanet.sol",
  "compiler": {
    "name": "solc",
    "version": "0.8.13+commit.abaa5c0e.Emscripten.clang"
  },
  "schemaVersion": "3.4.7",
  "updatedAt": "2022-04-30T15:27:25.916Z",
  "devdoc": {
    "kind": "dev",
    "methods": {},
    "version": 1
  },
  "userdoc": {
    "kind": "user",
    "methods": {
      "initializePlanet(uint256[2],uint256[2][2],uint256[2],uint256[8],bool)": {
        "notice": "Same SNARK args as `initializePlayer`. Adds a planet to the smart contract without setting an owner."
      }
    },
    "version": 1
  }
}