{
  "_format": "hh-sol-artifact-1",
  "contractName": "HookERC721VaultImplV1",
  "sourceName": "contracts/HookERC721VaultImplV1.sol",
  "abi": [
    {
      "inputs": [],
      "stateMutability": "nonpayable",
      "type": "constructor"
    },
    {
      "anonymous": false,
      "inputs": [
        {
          "indexed": true,
          "internalType": "address",
          "name": "beneficialOwner",
          "type": "address"
        },
        {
          "indexed": true,
          "internalType": "address",
          "name": "approved",
          "type": "address"
        },
        {
          "indexed": true,
          "internalType": "uint32",
          "name": "assetId",
          "type": "uint32"
        }
      ],
      "name": "Approval",
      "type": "event"
    },
    {
      "anonymous": false,
      "inputs": [
        {
          "indexed": false,
          "internalType": "address",
          "name": "owner",
          "type": "address"
        },
        {
          "indexed": false,
          "internalType": "uint256",
          "name": "tokenId",
          "type": "uint256"
        },
        {
          "indexed": false,
          "internalType": "address",
          "name": "flashLoanImpl",
          "type": "address"
        }
      ],
      "name": "AssetFlashLoaned",
      "type": "event"
    },
    {
      "anonymous": false,
      "inputs": [
        {
          "indexed": false,
          "internalType": "address",
          "name": "owner",
          "type": "address"
        },
        {
          "indexed": false,
          "internalType": "address",
          "name": "sender",
          "type": "address"
        },
        {
          "indexed": false,
          "internalType": "address",
          "name": "contractAddress",
          "type": "address"
        },
        {
          "indexed": false,
          "internalType": "uint32",
          "name": "assetId",
          "type": "uint32"
        }
      ],
      "name": "AssetReceived",
      "type": "event"
    },
    {
      "anonymous": false,
      "inputs": [
        {
          "indexed": false,
          "internalType": "uint32",
          "name": "assetId",
          "type": "uint32"
        },
        {
          "indexed": false,
          "internalType": "address",
          "name": "to",
          "type": "address"
        },
        {
          "indexed": false,
          "internalType": "address",
          "name": "beneficialOwner",
          "type": "address"
        }
      ],
      "name": "AssetWithdrawn",
      "type": "event"
    },
    {
      "anonymous": false,
      "inputs": [
        {
          "indexed": false,
          "internalType": "uint32",
          "name": "assetId",
          "type": "uint32"
        },
        {
          "indexed": false,
          "internalType": "address",
          "name": "beneficialOwner",
          "type": "address"
        },
        {
          "indexed": false,
          "internalType": "address",
          "name": "setBy",
          "type": "address"
        }
      ],
      "name": "BeneficialOwnerSet",
      "type": "event"
    },
    {
      "anonymous": false,
      "inputs": [
        {
          "indexed": false,
          "internalType": "uint256",
          "name": "assetId",
          "type": "uint256"
        },
        {
          "indexed": false,
          "internalType": "address",
          "name": "beneficialOwner",
          "type": "address"
        }
      ],
      "name": "EntitlementCleared",
      "type": "event"
    },
    {
      "anonymous": false,
      "inputs": [
        {
          "indexed": false,
          "internalType": "uint32",
          "name": "assetId",
          "type": "uint32"
        },
        {
          "indexed": false,
          "internalType": "address",
          "name": "entitledAccount",
          "type": "address"
        },
        {
          "indexed": false,
          "internalType": "uint32",
          "name": "expiry",
          "type": "uint32"
        },
        {
          "indexed": false,
          "internalType": "address",
          "name": "beneficialOwner",
          "type": "address"
        }
      ],
      "name": "EntitlementImposed",
      "type": "event"
    },
    {
      "anonymous": false,
      "inputs": [
        {
          "indexed": false,
          "internalType": "uint8",
          "name": "version",
          "type": "uint8"
        }
      ],
      "name": "Initialized",
      "type": "event"
    },
    {
      "inputs": [],
      "name": "EIP712_DOMAIN_SEPARATOR",
      "outputs": [
        {
          "internalType": "bytes32",
          "name": "",
          "type": "bytes32"
        }
      ],
      "stateMutability": "view",
      "type": "function"
    },
    {
      "inputs": [
        {
          "internalType": "address",
          "name": "to",
          "type": "address"
        },
        {
          "internalType": "uint32",
          "name": "assetId",
          "type": "uint32"
        }
      ],
      "name": "approveOperator",
      "outputs": [],
      "stateMutability": "nonpayable",
      "type": "function"
    },
    {
      "inputs": [
        {
          "internalType": "uint32",
          "name": "",
          "type": "uint32"
        }
      ],
      "name": "assetAddress",
      "outputs": [
        {
          "internalType": "address",
          "name": "",
          "type": "address"
        }
      ],
      "stateMutability": "view",
      "type": "function"
    },
    {
      "inputs": [
        {
          "internalType": "uint32",
          "name": "assetId",
          "type": "uint32"
        }
      ],
      "name": "assetTokenId",
      "outputs": [
        {
          "internalType": "uint256",
          "name": "",
          "type": "uint256"
        }
      ],
      "stateMutability": "view",
      "type": "function"
    },
    {
      "inputs": [
        {
          "internalType": "uint32",
          "name": "assetId",
          "type": "uint32"
        }
      ],
      "name": "clearEntitlement",
      "outputs": [],
      "stateMutability": "nonpayable",
      "type": "function"
    },
    {
      "inputs": [
        {
          "internalType": "uint32",
          "name": "assetId",
          "type": "uint32"
        },
        {
          "internalType": "address",
          "name": "receiver",
          "type": "address"
        }
      ],
      "name": "clearEntitlementAndDistribute",
      "outputs": [],
      "stateMutability": "nonpayable",
      "type": "function"
    },
    {
      "inputs": [
        {
          "internalType": "uint32",
          "name": "assetId",
          "type": "uint32"
        }
      ],
      "name": "entitlementExpiration",
      "outputs": [
        {
          "internalType": "uint32",
          "name": "",
          "type": "uint32"
        }
      ],
      "stateMutability": "view",
      "type": "function"
    },
    {
      "inputs": [
        {
          "internalType": "address",
          "name": "to",
          "type": "address"
        },
        {
          "internalType": "bytes",
          "name": "data",
          "type": "bytes"
        }
      ],
      "name": "execTransaction",
      "outputs": [
        {
          "internalType": "bool",
          "name": "",
          "type": "bool"
        }
      ],
      "stateMutability": "payable",
      "type": "function"
    },
    {
      "inputs": [
        {
          "internalType": "uint32",
          "name": "assetId",
          "type": "uint32"
        },
        {
          "internalType": "address",
          "name": "receiverAddress",
          "type": "address"
        },
        {
          "internalType": "bytes",
          "name": "params",
          "type": "bytes"
        }
      ],
      "name": "flashLoan",
      "outputs": [],
      "stateMutability": "nonpayable",
      "type": "function"
    },
    {
      "inputs": [
        {
          "internalType": "uint32",
          "name": "assetId",
          "type": "uint32"
        }
      ],
      "name": "getApprovedOperator",
      "outputs": [
        {
          "internalType": "address",
          "name": "",
          "type": "address"
        }
      ],
      "stateMutability": "view",
      "type": "function"
    },
    {
      "inputs": [
        {
          "internalType": "uint32",
          "name": "assetId",
          "type": "uint32"
        }
      ],
      "name": "getBeneficialOwner",
      "outputs": [
        {
          "internalType": "address",
          "name": "",
          "type": "address"
        }
      ],
      "stateMutability": "view",
      "type": "function"
    },
    {
      "inputs": [
        {
          "internalType": "uint32",
          "name": "assetId",
          "type": "uint32"
        }
      ],
      "name": "getCurrentEntitlementOperator",
      "outputs": [
        {
          "internalType": "bool",
          "name": "",
          "type": "bool"
        },
        {
          "internalType": "address",
          "name": "",
          "type": "address"
        }
      ],
      "stateMutability": "view",
      "type": "function"
    },
    {
      "inputs": [
        {
          "internalType": "uint32",
          "name": "assetId",
          "type": "uint32"
        }
      ],
      "name": "getHoldsAsset",
      "outputs": [
        {
          "internalType": "bool",
          "name": "",
          "type": "bool"
        }
      ],
      "stateMutability": "view",
      "type": "function"
    },
    {
      "inputs": [
        {
          "components": [
            {
              "internalType": "address",
              "name": "beneficialOwner",
              "type": "address"
            },
            {
              "internalType": "address",
              "name": "operator",
              "type": "address"
            },
            {
              "internalType": "address",
              "name": "vaultAddress",
              "type": "address"
            },
            {
              "internalType": "uint32",
              "name": "assetId",
              "type": "uint32"
            },
            {
              "internalType": "uint32",
              "name": "expiry",
              "type": "uint32"
            }
          ],
          "internalType": "struct Entitlements.Entitlement",
          "name": "entitlement",
          "type": "tuple"
        }
      ],
      "name": "grantEntitlement",
      "outputs": [],
      "stateMutability": "nonpayable",
      "type": "function"
    },
    {
      "inputs": [
        {
          "internalType": "uint32",
          "name": "assetId",
          "type": "uint32"
        }
      ],
      "name": "hasActiveEntitlement",
      "outputs": [
        {
          "internalType": "bool",
          "name": "",
          "type": "bool"
        }
      ],
      "stateMutability": "view",
      "type": "function"
    },
    {
      "inputs": [
        {
          "internalType": "address",
          "name": "operator",
          "type": "address"
        },
        {
          "internalType": "uint32",
          "name": "expiry",
          "type": "uint32"
        },
        {
          "internalType": "uint32",
          "name": "assetId",
          "type": "uint32"
        },
        {
          "internalType": "uint8",
          "name": "v",
          "type": "uint8"
        },
        {
          "internalType": "bytes32",
          "name": "r",
          "type": "bytes32"
        },
        {
          "internalType": "bytes32",
          "name": "s",
          "type": "bytes32"
        }
      ],
      "name": "imposeEntitlement",
      "outputs": [],
      "stateMutability": "nonpayable",
      "type": "function"
    },
    {
      "inputs": [
        {
          "internalType": "address",
          "name": "nftContract",
          "type": "address"
        },
        {
          "internalType": "address",
          "name": "hookAddress",
          "type": "address"
        }
      ],
      "name": "initialize",
      "outputs": [],
      "stateMutability": "nonpayable",
      "type": "function"
    },
    {
      "inputs": [
        {
          "internalType": "address",
          "name": "nftContract",
          "type": "address"
        },
        {
          "internalType": "uint256",
          "name": "tokenId",
          "type": "uint256"
        },
        {
          "internalType": "address",
          "name": "hookAddress",
          "type": "address"
        }
      ],
      "name": "initialize",
      "outputs": [],
      "stateMutability": "nonpayable",
      "type": "function"
    },
    {
      "inputs": [
        {
          "internalType": "address",
          "name": "operator",
          "type": "address"
        },
        {
          "internalType": "address",
          "name": "from",
          "type": "address"
        },
        {
          "internalType": "uint256",
          "name": "tokenId",
          "type": "uint256"
        },
        {
          "internalType": "bytes",
          "name": "data",
          "type": "bytes"
        }
      ],
      "name": "onERC721Received",
      "outputs": [
        {
          "internalType": "bytes4",
          "name": "",
          "type": "bytes4"
        }
      ],
      "stateMutability": "nonpayable",
      "type": "function"
    },
    {
      "inputs": [
        {
          "internalType": "uint32",
          "name": "assetId",
          "type": "uint32"
        },
        {
          "internalType": "address",
          "name": "newBeneficialOwner",
          "type": "address"
        }
      ],
      "name": "setBeneficialOwner",
      "outputs": [],
      "stateMutability": "nonpayable",
      "type": "function"
    },
    {
      "inputs": [
        {
          "internalType": "bytes4",
          "name": "interfaceId",
          "type": "bytes4"
        }
      ],
      "name": "supportsInterface",
      "outputs": [
        {
          "internalType": "bool",
          "name": "",
          "type": "bool"
        }
      ],
      "stateMutability": "view",
      "type": "function"
    },
    {
      "inputs": [
        {
          "internalType": "address",
          "name": "operator",
          "type": "address"
        },
        {
          "internalType": "uint32",
          "name": "expiry",
          "type": "uint32"
        },
        {
          "internalType": "uint32",
          "name": "assetId",
          "type": "uint32"
        },
        {
          "internalType": "uint8",
          "name": "v",
          "type": "uint8"
        },
        {
          "internalType": "bytes32",
          "name": "r",
          "type": "bytes32"
        },
        {
          "internalType": "bytes32",
          "name": "s",
          "type": "bytes32"
        }
      ],
      "name": "validateEntitlementSignature",
      "outputs": [],
      "stateMutability": "view",
      "type": "function"
    },
    {
      "inputs": [
        {
          "internalType": "uint32",
          "name": "assetId",
          "type": "uint32"
        }
      ],
      "name": "withdrawalAsset",
      "outputs": [],
      "stateMutability": "nonpayable",
      "type": "function"
    }
  ],
  "bytecode": "0x608060405234801561001057600080fd5b506001600255612b7b806100256000396000f3fe6080604052600436106101105760003560e01c806301ffc9a71461011557806303e7158b1461014a578063150b7a021461016c5780631f48f6ab146101a557806325a23982146101e85780632ec14d3f14610208578063485cc955146102285780634eeeaa321461024857806360bbf4a414610268578063774a7627146102885780637ae7cfb5146102bd578063942811b5146102d0578063af024ae6146102f0578063ba02481b1461032c578063bf6346b71461034c578063c350a1b51461036c578063c72bed151461038c578063dab400f3146103cb578063dbd74309146103ef578063e7dc956b1461040f578063eaf8b3231461042f578063ebc5eb071461044f578063ecb2c20b1461046f575b600080fd5b34801561012157600080fd5b50610135610130366004612529565b6104ab565b60405190151581526020015b60405180910390f35b34801561015657600080fd5b5061016a61016536600461257c565b6104e2565b005b34801561017857600080fd5b5061018c610187366004612634565b610527565b6040516001600160e01b03199091168152602001610141565b3480156101b157600080fd5b506101d06101c03660046126a6565b506003546001600160a01b031690565b6040516001600160a01b039091168152602001610141565b3480156101f457600080fd5b5061016a6102033660046126c1565b610792565b34801561021457600080fd5b5061016a6102233660046126c1565b61099a565b34801561023457600080fd5b5061016a6102433660046126f8565b6109ce565b34801561025457600080fd5b5061016a6102633660046126a6565b610bae565b34801561027457600080fd5b5061016a610283366004612716565b610bdc565b34801561029457600080fd5b506102a86102a33660046126a6565b610d1e565b60405163ffffffff9091168152602001610141565b6101356102cb366004612744565b610d60565b3480156102dc57600080fd5b506101356102eb3660046126a6565b611094565b3480156102fc57600080fd5b506101d061030b3660046126a6565b63ffffffff166000908152600560205260409020546001600160a01b031690565b34801561033857600080fd5b506101356103473660046126a6565b6110e9565b34801561035857600080fd5b5061016a610367366004612807565b611105565b34801561037857600080fd5b5061016a610387366004612869565b61167c565b34801561039857600080fd5b506103ac6103a73660046126a6565b61168b565b6040805192151583526001600160a01b03909116602083015201610141565b3480156103d757600080fd5b506103e160005481565b604051908152602001610141565b3480156103fb57600080fd5b5061016a61040a36600461257c565b6116c7565b34801561041b57600080fd5b506103e161042a3660046126a6565b611879565b34801561043b57600080fd5b5061016a61044a3660046126a6565b611884565b34801561045b57600080fd5b5061016a61046a3660046128ab565b6119a0565b34801561047b57600080fd5b506101d061048a3660046126a6565b63ffffffff166000908152600460205260409020546001600160a01b031690565b60006001600160e01b0319821663162ff4f760e21b14806104dc57506001600160e01b031982166301ffc9a760e01b145b92915050565b63ffffffff841680156105105760405162461bcd60e51b8152600401610507906128e0565b60405180910390fd5b61051e878787878787611aa8565b50505050505050565b6003546000906001600160a01b031633148015610545575060075484145b1561066857610555600086611b5f565b81156105b1576000808061056b85870187612931565b92509250925061057c600084611b5f565b60008080526004602052600080516020612b06833981519152546105ad9190849084906001600160a01b0316611c46565b5050505b60405163ecb2c20b60e01b8152600060048201527f7897fd58abdfc815ef9370ad67929a217fbaa4b692c4b1086930ae97e4a7fe2d90309063ecb2c20b90602401602060405180830381865afa15801561060f573d6000803e3d6000fd5b505050506040513d601f19601f820116820180604052508101906106339190612978565b604080516001600160a01b039283168152918916602083015233908201526000606082015260800160405180910390a1610780565b60065460035460405163194f672960e01b81526001600160a01b039283169263194f6729926106be929116907fb412698babfc09c0301b5d182736929808a05b7d7d7385d9ef48282f7676578090600401612995565b602060405180830381865afa1580156106db573d6000803e3d6000fd5b505050506040513d601f19601f820116820180604052508101906106ff91906129ae565b156107805760405162461bcd60e51b815260206004820152604560248201527f6f6e45524337323152656365697665642d6e6f6e2d657363726f77206173736560448201527f742072657475726e6564207768656e2061697264726f7073206172652064697360648201526418589b195960da1b608482015260a401610507565b50630a85bd0160e11b95945050505050565b61079a611e23565b63ffffffff82166000908152600460205260409020546001600160a01b038281169116146108465760405162461bcd60e51b815260206004820152604d60248201527f636c656172456e7469746c656d656e74416e64446973747269627574652d4f6e60448201527f6c79207468652062656e6566696369616c206f776e65722063616e207265636560648201526c1a5d99481d1a1948185cdcd95d609a1b608482015260a401610507565b6001600160a01b0381166108ce5760405162461bcd60e51b815260206004820152604360248201527f636c656172456e7469746c656d656e74416e64446973747269627574652d617360448201527f736574732063616e6e6f742062652073656e7420746f206e756c6c206164647260648201526265737360e81b608482015260a401610507565b6108d782611884565b6003546001600160a01b03166342842e0e30836108f386611e7b565b6040518463ffffffff1660e01b8152600401610911939291906129d0565b600060405180830381600087803b15801561092b57600080fd5b505af115801561093f573d6000803e3d6000fd5b50505063ffffffff831660009081526004602052604090819020549051600080516020612b26833981519152925061098491859185916001600160a01b0316906129f4565b60405180910390a16109966001600255565b5050565b63ffffffff821680156109bf5760405162461bcd60e51b8152600401610507906128e0565b6109c98383611eac565b505050565b600154610100900460ff16158080156109eb57506001805460ff16105b80610a045750303b158015610a0457506001805460ff16145b610a675760405162461bcd60e51b815260206004820152602e60248201527f496e697469616c697a61626c653a20636f6e747261637420697320616c72656160448201526d191e481a5b9a5d1a585b1a5e995960921b6064820152608401610507565b6001805460ff1916811790558015610a89576001805461ff0019166101001790555b604080517f8b73c3c69bb8fe3d512ecc4cf759cc79239f7b179b0ffacaa9a75d522b39400f6020808301919091527fbefac456e8d3c7dcbe25358dd865ef756e23bdcd0f4f36a6e915a0f24b6849e9828401527f06c015bd22b4c69690933c1058878ebdfef31f9aaae40bbe86d8a09fe1b2972c60608301524660808301526001600160a01b03851660a0808401919091528351808403909101815260c09092019092528051910120600055600380546001600160a01b038086166001600160a01b031992831617909255600680549285169290911691909117905580156109c9576001805461ff00191681556040519081527f7f26b83ff96e1f2b6a682f133852f6798a09c465da95921460cefb38474024989060200160405180910390a1505050565b63ffffffff81168015610bd35760405162461bcd60e51b8152600401610507906128e0565b6109968261202a565b3360046000610bf160808501606086016126a6565b63ffffffff1681526020810191909152604001600020546001600160a01b03161480610c4f57503360056000610c2d60808501606086016126a6565b63ffffffff1681526020810191909152604001600020546001600160a01b0316145b610ce25760405162461bcd60e51b815260206004820152605860248201527f6772616e74456e7469746c656d656e742d6f6e6c79207468652062656e65666960448201527f6369616c206f776e6572206f7220617070726f766564206f70657261746f722060648201527718d85b8819dc985b9d08185b88195b9d1a5d1b195b595b9d60421b608482015260a401610507565b610d1b610cf560808301606084016126a6565b610d056040840160208501612a1b565b610d1560a08501608086016126a6565b33611c46565b50565b6000610d2982611094565b610d3557506000919050565b5063ffffffff908116600090815260046020526040902060010154600160a01b90041690565b919050565b60008080526004602052600080516020612b06833981519152546001600160a01b03163314610e015760405162461bcd60e51b815260206004820152604160248201527f657865635472616e73616374696f6e2d6f6e6c79207468652062656e6566696360448201527f69616c206f776e65722063616e2075736520746865207472616e73616374696f6064820152603760f91b608482015260a401610507565b6003546001600160a01b0384811691161415610e915760405162461bcd60e51b815260206004820152604360248201527f657865635472616e73616374696f6e2d63616e6e6f742073656e64207472616e60448201527f73616374696f6e7320746f20746865204e465420636f6e74726163742069747360648201526232b63360e91b608482015260a401610507565b6001600160a01b038316301415610f015760405162461bcd60e51b815260206004820152602e60248201527f657865635472616e73616374696f6e2d63616e6e6f742063616c6c207468652060448201526d1d985d5b1d0818dbdb9d1c9858dd60921b6064820152608401610507565b60065460035460405163194f672960e01b81526001600160a01b039283169263194f672992610f57929116907f2bd4c5aff60ff3434688f381717660e12ab5cc42c032cfecd11e47b7660aaf8890600401612995565b602060405180830381865afa158015610f74573d6000803e3d6000fd5b505050506040513d601f19601f82011682018060405250810190610f9891906129ae565b156110055760405162461bcd60e51b815260206004820152603760248201527f657865635472616e73616374696f6e2d666561747572652069732064697361626044820152763632b2103337b9103a3434b99031b7b63632b1ba34b7b760491b6064820152608401610507565b6000836001600160a01b031634846040516110209190612a38565b60006040518083038185875af1925050503d806000811461105d576040519150601f19603f3d011682016040523d82523d6000602084013e611062565b606091505b50509050306001600160a01b031661107a6000612236565b6001600160a01b03161461108d57600080fd5b9392505050565b63ffffffff8082166000908152600460205260408120600101549091600160a01b90910416421080156104dc57505063ffffffff166000908152600460205260409020600101546001600160a01b0316151590565b6000306110f583612236565b6001600160a01b03161492915050565b61110d611e23565b826001600160a01b03811661115d5760405162461bcd60e51b8152602060048201526016602482015275666c6173684c6f616e2d7a65726f206164647265737360501b6044820152606401610507565b3061116786612236565b6001600160a01b0316146111bc5760405162461bcd60e51b815260206004820152601c60248201527b199b185cda131bd85b8b585cdcd95d081b9bdd081a5b881d985d5b1d60221b6044820152606401610507565b63ffffffff85166000908152600460205260409020546001600160a01b031633146112395760405162461bcd60e51b815260206004820152602760248201527f666c6173684c6f616e2d6e6f742063616c6c65642062792074686520617373656044820152663a1037bbb732b960c91b6064820152608401610507565b60065460035460405163194f672960e01b81526001600160a01b039283169263194f67299261128f929116907f7b2ae2881a80edd04dac29e0424a8afcb85d139d6204e45ea854215cb864990b90600401612995565b602060405180830381865afa1580156112ac573d6000803e3d6000fd5b505050506040513d601f19601f820116820180604052508101906112d091906129ae565b1561133c5760405162461bcd60e51b815260206004820152603660248201527f666c6173684c6f616e2d666c6173684c6f616e20666561747572652064697361604482015275189b195908199bdc881d1a1a5cc818dbdb9d1c9858dd60521b6064820152608401610507565b63ffffffff8516600090815260046020908152604080832090516113609201612a73565b60408051601f1981840301815291905280516020909101206003549091506001600160a01b03166342842e0e30876113978a611e7b565b6040518463ffffffff1660e01b81526004016113b5939291906129d0565b600060405180830381600087803b1580156113cf57600080fd5b505af11580156113e3573d6000803e3d6000fd5b50506003546001600160a01b03808616935063817dc5e592501661140689611e7b565b333089896040518763ffffffff1660e01b815260040161142b96959493929190612aa8565b6020604051808303816000875af115801561144a573d6000803e3d6000fd5b505050506040513d601f19601f8201168201806040525081019061146e91906129ae565b6114d55760405162461bcd60e51b815260206004820152603260248201527f666c6173684c6f616e2d74686520666c617368206c6f616e20636f6e7472616360448201527174206d7573742072657475726e207472756560701b6064820152608401610507565b6003546001600160a01b03166323b872dd86306114f18a611e7b565b6040518463ffffffff1660e01b815260040161150f939291906129d0565b600060405180830381600087803b15801561152957600080fd5b505af115801561153d573d6000803e3d6000fd5b50505050306001600160a01b031661155487612236565b6001600160a01b03161461156757600080fd5b63ffffffff8616600090815260046020908152604091829020915161158d929101612a73565b6040516020818303038152906040528051906020012081146116085760405162461bcd60e51b815260206004820152602e60248201527f666c6173684c6f616e2d656e7469746c656d656e742073746174652063616e6e60448201526d1bdd081899481b5bd91a599a595960921b6064820152608401610507565b63ffffffff86166000818152600460209081526040918290205482516001600160a01b0391821681529182019390935291871682820152517fb9a0fd57b76d147a2f98aed604908c2285d360c4349bf8c59e89365e39b2f9e29181900360600190a150506116766001600255565b50505050565b60078290556109c983826109ce565b600080600061169984611094565b63ffffffff90941660009081526004602052604090206001015493946001600160a01b039094169392505050565b6040805160a08101825263ffffffff808716600081815260046020908152858220546001600160a01b0390811686528c169085015230948401949094526060830152871660808201526117229061171d906122b2565b6123eb565b6040805160008082526020820180845284905260ff88169282019290925260608101869052608081018590529192509060019060a0016020604051602081039080840390855afa15801561177a573d6000803e3d6000fd5b5050604051601f1901519150506001600160a01b0381166117d95760405162461bcd60e51b81526020600482015260196024820152781c9958dbdd995c9959081859191c995cdcc81a5cc81b9d5b1b603a1b6044820152606401610507565b63ffffffff86166000908152600460205260409020546001600160a01b0382811691161461186f5760405162461bcd60e51b815260206004820152603e60248201527f76616c6964617465456e7469746c656d656e745369676e6174757265202d2d2d60448201527f206e6f74207369676e65642062792062656e6566696369616c4f776e657200006064820152608401610507565b5050505050505050565b60006104dc82611e7b565b61188d81611094565b6118f35760405162461bcd60e51b815260206004820152603160248201527f636c656172456e7469746c656d656e742d616e2061637469766520656e7469746044820152701b195b595b9d081b5d5cdd08195e1a5cdd607a1b6064820152608401610507565b63ffffffff81166000908152600460205260409020600101546001600160a01b031633146119975760405162461bcd60e51b8152602060048201526044602482018190527f636c656172456e7469746c656d656e742d6f6e6c792074686520656e7469746c908201527f656420616464726573732063616e20636c6561722074686520656e7469746c656064820152631b595b9d60e21b608482015260a401610507565b610d1b81612414565b63ffffffff81166000908152600460205260409020546001600160a01b03908116908316811415611a275760405162461bcd60e51b815260206004820152602b60248201527f617070726f76652d617070726f76616c20746f2063757272656e742062656e6560448201526a3334b1b4b0b627bbb732b960a91b6064820152608401610507565b336001600160a01b03821614611a9e5760405162461bcd60e51b815260206004820152603660248201527f617070726f76652d617070726f76652063616c6c6572206973206e6f74206375604482015275393932b73a103132b732b334b1b4b0b61037bbb732b960511b6064820152608401610507565b6109c98383612480565b63ffffffff84166000908152600460205260409020546001600160a01b0316611b495760405162461bcd60e51b815260206004820152604760248201527f696d706f7365456e7469746c656d656e742d62656e6566696369616c206f776e60448201527f6572206d7573742062652073657420746f20696d706f736520616e20656e74696064820152661d1b195b595b9d60ca1b608482015260a401610507565b611b578686868686866124ed565b505050505050565b6001600160a01b038116611bcf5760405162461bcd60e51b815260206004820152603160248201527f5f73657442656e6566696369616c4f776e65722d6e6577206f776e657220697360448201527020746865207a65726f206164647265737360781b6064820152608401610507565b63ffffffff8216600090815260046020526040812080546001600160a01b0319166001600160a01b038416179055611c079083612480565b7f183944454934706f9df1285ff0207d23600c244528512cdc01c94f5ec8f601b4828233604051611c3a939291906129f4565b60405180910390a15050565b611c4f84611094565b15611ce15760405162461bcd60e51b815260206004820152605660248201527f5f7265676973746572456e7469746c656d656e742d6578697374696e6720656e60448201527f7469746c656d656e74206d75737420626520636c6561726564206265666f7265606482015275207265676973746572696e672061206e6577206f6e6560501b608482015260a401610507565b428263ffffffff1611611d595760405162461bcd60e51b815260206004820152603a60248201527f5f7265676973746572456e7469746c656d656e742d656e7469746c656d656e74604482015279206d7573742065787069726520696e207468652066757475726560301b6064820152608401610507565b60408051606080820183526001600160a01b03848116808452878216602080860182815263ffffffff8a8116888a018181528e83166000818152600487528c90209a518b546001600160a01b031916908a16178b5593516001909a01805491519a9098166001600160c01b031990911617600160a01b9990921698909802179094558651938452830152938101929092528101919091527f595e586d44ea8c92723ac9fdd4897e8a5ee6d55e2bad6d386fe7ccbff5912b239060800160405180910390a150505050565b600280541415611e755760405162461bcd60e51b815260206004820152601f60248201527f5265656e7472616e637947756172643a207265656e7472616e742063616c6c006044820152606401610507565b60028055565b600063ffffffff82168015611ea25760405162461bcd60e51b8152600401610507906128e0565b5050600754919050565b611eb582611094565b15611f7b5763ffffffff82166000908152600460205260409020600101546001600160a01b03163314611f765760405162461bcd60e51b815260206004820152606060248201527f73657442656e6566696369616c4f776e65722d6f6e6c792074686520636f6e7460448201527f726163742077697468207468652061637469766520656e7469746c656d656e7460648201527f2063616e20757064617465207468652062656e6566696369616c206f776e6572608482015260a401610507565b612020565b63ffffffff82166000908152600460205260409020546001600160a01b031633146120205760405162461bcd60e51b815260206004820152604960248201527f73657442656e6566696369616c4f776e65722d6f6e6c7920746865206375727260448201527f656e74206f776e65722063616e20757064617465207468652062656e6566696360648201526834b0b61037bbb732b960b91b608482015260a401610507565b6109968282611b5f565b612032611e23565b61203b81611094565b156120bf5760405162461bcd60e51b815260206004820152604860248201527f7769746864726177616c41737365742d7468652061737365742063616e6e6f7460448201527f2062652077697468647261776e207769746820616e2061637469766520656e746064820152671a5d1b195b595b9d60c21b608482015260a401610507565b63ffffffff81166000908152600460205260409020546001600160a01b0316331461215c5760405162461bcd60e51b815260206004820152604160248201527f7769746864726177616c41737365742d6f6e6c79207468652062656e6566696360448201527f69616c206f776e65722063616e207769746864726177616c20616e20617373656064820152601d60fa1b608482015260a401610507565b60035463ffffffff82166000908152600460205260409020546001600160a01b03918216916342842e0e9130911661219385611e7b565b6040518463ffffffff1660e01b81526004016121b1939291906129d0565b600060405180830381600087803b1580156121cb57600080fd5b505af11580156121df573d6000803e3d6000fd5b50505063ffffffff821660009081526004602052604090819020549051600080516020612b26833981519152925061222491849133916001600160a01b0316906129f4565b60405180910390a1610d1b6001600255565b6003546000906001600160a01b0316636352211e61225384611e7b565b6040518263ffffffff1660e01b815260040161227191815260200190565b602060405180830381865afa15801561228e573d6000803e3d6000fd5b505050506040513d601f19601f820116820180604052508101906104dc9190612978565b6040516b08adce8d2e8d8cadacadce8560a31b6020820152771859191c995cdcc818995b99599a58da585b13dddb995c8b60421b602c820152701859191c995cdcc81bdc195c985d1bdc8b607a1b6044820152741859191c995cdcc81d985d5b1d1059191c995cdccb605a1b60558201526e1d5a5b9d0ccc88185cdcd95d12590b608a1b606a8201526c75696e7433322065787069727960981b6079820152602960f81b608682015260009060870160408051601f198184030181528282528051602091820120855186830151878501516060808a01516080808c0151978a01969096526001600160a01b039485169789019790975291831691870191909152169084015263ffffffff91821660a08401521660c082015260e0015b604051602081830303815290604052805190602001209050919050565b6000805460405161190160f01b60208201526022810191909152604281018390526062016123ce565b63ffffffff81166000818152600460209081526040918290206001810180546001600160c01b03191690555482519384526001600160a01b0316908301527fd7aa6a9fe8ec62f38eafaf1c43d6816defbf427c414d3b0e865cb5cdd52a647c910160405180910390a150565b63ffffffff8116600081815260056020908152604080832080546001600160a01b0319166001600160a01b03888116918217909255600490935281842054915192939116917fe26b9b29b95cb706aaebdd86a3524de879b8590b0ba7e61b104f54196bab20319190a45050565b6124fb8686868686866116c7565b63ffffffff8416600090815260046020526040902054611b57908590889088906001600160a01b0316611c46565b60006020828403121561253b57600080fd5b81356001600160e01b03198116811461108d57600080fd5b6001600160a01b0381168114610d1b57600080fd5b803563ffffffff81168114610d5b57600080fd5b60008060008060008060c0878903121561259557600080fd5b86356125a081612553565b95506125ae60208801612568565b94506125bc60408801612568565b9350606087013560ff811681146125d257600080fd5b9598949750929560808101359460a0909101359350915050565b60008083601f8401126125fe57600080fd5b5081356001600160401b0381111561261557600080fd5b60208301915083602082850101111561262d57600080fd5b9250929050565b60008060008060006080868803121561264c57600080fd5b853561265781612553565b9450602086013561266781612553565b93506040860135925060608601356001600160401b0381111561268957600080fd5b612695888289016125ec565b969995985093965092949392505050565b6000602082840312156126b857600080fd5b61108d82612568565b600080604083850312156126d457600080fd5b6126dd83612568565b915060208301356126ed81612553565b809150509250929050565b6000806040838503121561270b57600080fd5b82356126dd81612553565b600060a0828403121561272857600080fd5b50919050565b634e487b7160e01b600052604160045260246000fd5b6000806040838503121561275757600080fd5b823561276281612553565b915060208301356001600160401b038082111561277e57600080fd5b818501915085601f83011261279257600080fd5b8135818111156127a4576127a461272e565b604051601f8201601f19908116603f011681019083821181831017156127cc576127cc61272e565b816040528281528860208487010111156127e557600080fd5b8260208601602083013760006020848301015280955050505050509250929050565b6000806000806060858703121561281d57600080fd5b61282685612568565b9350602085013561283681612553565b925060408501356001600160401b0381111561285157600080fd5b61285d878288016125ec565b95989497509550505050565b60008060006060848603121561287e57600080fd5b833561288981612553565b92506020840135915060408401356128a081612553565b809150509250925092565b600080604083850312156128be57600080fd5b82356128c981612553565b91506128d760208401612568565b90509250929050565b60208082526031908201527f6173736574496449735a65726f2d74686973207661756c74206f6e6c79207375604082015270070706f727473206173736574206964203607c1b606082015260800190565b60008060006060848603121561294657600080fd5b833561295181612553565b9250602084013561296181612553565b915061296f60408501612568565b90509250925092565b60006020828403121561298a57600080fd5b815161108d81612553565b6001600160a01b03929092168252602082015260400190565b6000602082840312156129c057600080fd5b8151801515811461108d57600080fd5b6001600160a01b039384168152919092166020820152604081019190915260600190565b63ffffffff9390931683526001600160a01b03918216602084015216604082015260600190565b600060208284031215612a2d57600080fd5b813561108d81612553565b6000825160005b81811015612a595760208186018101518583015201612a3f565b81811115612a68576000828501525b509190910192915050565b81546001600160a01b03908116825260019290920154918216602082015260a09190911c63ffffffff16604082015260600190565b6001600160a01b0387811682526020820187905285811660408301528416606082015260a06080820181905281018290526000828460c0840137600060c0848401015260c0601f19601f850116830101905097965050505050505056fe17ef568e3e12ab5b9c7254a8d58478811de00f9e6eb34345acd53bf8fd09d3ec79ab5c29ad5c9805473ba77c80b4472dd5721aae58e97158a7bbc53205ee7180a2646970667358221220156300294c989c7b78ac51f642f66c2a165226d37f59ee8cdfae8c8ddbaaf2d264736f6c634300080a0033",
  "linkReferences": {},
  "deployedLinkReferences": {}
}