{
  "_format": "hh-sol-artifact-1",
  "contractName": "Beacon",
  "sourceName": "contracts/proxy/Beacon.sol",
  "abi": [
    {
      "inputs": [
        {
          "internalType": "address",
          "name": "_owner",
          "type": "address"
        },
        {
          "internalType": "address",
          "name": "_impl",
          "type": "address"
        }
      ],
      "stateMutability": "nonpayable",
      "type": "constructor"
    },
    {
      "anonymous": false,
      "inputs": [
        {
          "indexed": false,
          "internalType": "address",
          "name": "newImpl",
          "type": "address"
        }
      ],
      "name": "ImplementationUpdated",
      "type": "event"
    },
    {
      "anonymous": false,
      "inputs": [
        {
          "indexed": true,
          "internalType": "address",
          "name": "previousOwner",
          "type": "address"
        },
        {
          "indexed": true,
          "internalType": "address",
          "name": "newOwner",
          "type": "address"
        }
      ],
      "name": "OwnershipTransferred",
      "type": "event"
    },
    {
      "inputs": [
        {
          "internalType": "address",
          "name": "_newImpl",
          "type": "address"
        }
      ],
      "name": "changeImpl",
      "outputs": [],
      "stateMutability": "nonpayable",
      "type": "function"
    },
    {
      "inputs": [],
      "name": "impl",
      "outputs": [
        {
          "internalType": "address",
          "name": "",
          "type": "address"
        }
      ],
      "stateMutability": "view",
      "type": "function"
    },
    {
      "inputs": [],
      "name": "implementation",
      "outputs": [
        {
          "internalType": "address",
          "name": "",
          "type": "address"
        }
      ],
      "stateMutability": "view",
      "type": "function"
    },
    {
      "inputs": [],
      "name": "owner",
      "outputs": [
        {
          "internalType": "address",
          "name": "",
          "type": "address"
        }
      ],
      "stateMutability": "view",
      "type": "function"
    },
    {
      "inputs": [],
      "name": "renounceOwnership",
      "outputs": [],
      "stateMutability": "nonpayable",
      "type": "function"
    },
    {
      "inputs": [
        {
          "internalType": "address",
          "name": "newOwner",
          "type": "address"
        }
      ],
      "name": "transferOwnership",
      "outputs": [],
      "stateMutability": "nonpayable",
      "type": "function"
    }
  ],
  "bytecode": "0x60806040523480156200001157600080fd5b5060405162000b5b38038062000b5b833981810160405281019062000037919062000358565b620000576200004b6200012460201b60201c565b6200012c60201b60201c565b600073ffffffffffffffffffffffffffffffffffffffff168273ffffffffffffffffffffffffffffffffffffffff161415620000ca576040517f08c379a0000000000000000000000000000000000000000000000000000000008152600401620000c19062000430565b60405180910390fd5b80600160006101000a81548173ffffffffffffffffffffffffffffffffffffffff021916908373ffffffffffffffffffffffffffffffffffffffff1602179055506200011c82620001f060201b60201c565b505062000574565b600033905090565b60008060009054906101000a900473ffffffffffffffffffffffffffffffffffffffff169050816000806101000a81548173ffffffffffffffffffffffffffffffffffffffff021916908373ffffffffffffffffffffffffffffffffffffffff1602179055508173ffffffffffffffffffffffffffffffffffffffff168173ffffffffffffffffffffffffffffffffffffffff167f8be0079c531659141344cd1fd0a4f28419497f9722a3daafe3b4186f6b6457e060405160405180910390a35050565b620002006200028760201b60201c565b600073ffffffffffffffffffffffffffffffffffffffff168173ffffffffffffffffffffffffffffffffffffffff16141562000273576040517f08c379a00000000000000000000000000000000000000000000000000000000081526004016200026a906200040e565b60405180910390fd5b62000284816200012c60201b60201c565b50565b620002976200012460201b60201c565b73ffffffffffffffffffffffffffffffffffffffff16620002bd6200031860201b60201c565b73ffffffffffffffffffffffffffffffffffffffff161462000316576040517f08c379a00000000000000000000000000000000000000000000000000000000081526004016200030d9062000452565b60405180910390fd5b565b60008060009054906101000a900473ffffffffffffffffffffffffffffffffffffffff16905090565b60008151905062000352816200055a565b92915050565b600080604083850312156200036c57600080fd5b60006200037c8582860162000341565b92505060206200038f8582860162000341565b9150509250929050565b6000620003a860268362000474565b9150620003b582620004b9565b604082019050919050565b6000620003cf601a8362000474565b9150620003dc8262000508565b602082019050919050565b6000620003f660208362000474565b9150620004038262000531565b602082019050919050565b60006020820190508181036000830152620004298162000399565b9050919050565b600060208201905081810360008301526200044b81620003c0565b9050919050565b600060208201905081810360008301526200046d81620003e7565b9050919050565b600082825260208201905092915050565b6000620004928262000499565b9050919050565b600073ffffffffffffffffffffffffffffffffffffffff82169050919050565b7f4f776e61626c653a206e6577206f776e657220697320746865207a65726f206160008201527f6464726573730000000000000000000000000000000000000000000000000000602082015250565b7f426561636f6e3a205a45524f5f4f574e45525f41444452455353000000000000600082015250565b7f4f776e61626c653a2063616c6c6572206973206e6f7420746865206f776e6572600082015250565b620005658162000485565b81146200057157600080fd5b50565b6105d780620005846000396000f3fe608060405234801561001057600080fd5b50600436106100625760003560e01c80635c60da1b14610067578063715018a6146100855780638abf60771461008f5780638da5cb5b146100ad578063b4bf1cdf146100cb578063f2fde38b146100e7575b600080fd5b61006f610103565b60405161007c9190610474565b60405180910390f35b61008d61012d565b005b610097610141565b6040516100a49190610474565b60405180910390f35b6100b5610167565b6040516100c29190610474565b60405180910390f35b6100e560048036038101906100e091906103f6565b610190565b005b61010160048036038101906100fc91906103f6565b610213565b005b6000600160009054906101000a900473ffffffffffffffffffffffffffffffffffffffff16905090565b610135610297565b61013f6000610315565b565b600160009054906101000a900473ffffffffffffffffffffffffffffffffffffffff1681565b60008060009054906101000a900473ffffffffffffffffffffffffffffffffffffffff16905090565b610198610297565b80600160006101000a81548173ffffffffffffffffffffffffffffffffffffffff021916908373ffffffffffffffffffffffffffffffffffffffff1602179055507f310ba5f1d2ed074b51e2eccd052a47ae9ab7c6b800d1fca3db3999d6a592ca03816040516102089190610474565b60405180910390a150565b61021b610297565b600073ffffffffffffffffffffffffffffffffffffffff168173ffffffffffffffffffffffffffffffffffffffff16141561028b576040517f08c379a00000000000000000000000000000000000000000000000000000000081526004016102829061048f565b60405180910390fd5b61029481610315565b50565b61029f6103d9565b73ffffffffffffffffffffffffffffffffffffffff166102bd610167565b73ffffffffffffffffffffffffffffffffffffffff1614610313576040517f08c379a000000000000000000000000000000000000000000000000000000000815260040161030a906104af565b60405180910390fd5b565b60008060009054906101000a900473ffffffffffffffffffffffffffffffffffffffff169050816000806101000a81548173ffffffffffffffffffffffffffffffffffffffff021916908373ffffffffffffffffffffffffffffffffffffffff1602179055508173ffffffffffffffffffffffffffffffffffffffff168173ffffffffffffffffffffffffffffffffffffffff167f8be0079c531659141344cd1fd0a4f28419497f9722a3daafe3b4186f6b6457e060405160405180910390a35050565b600033905090565b6000813590506103f08161058a565b92915050565b60006020828403121561040857600080fd5b6000610416848285016103e1565b91505092915050565b610428816104e0565b82525050565b600061043b6026836104cf565b915061044682610512565b604082019050919050565b600061045e6020836104cf565b915061046982610561565b602082019050919050565b6000602082019050610489600083018461041f565b92915050565b600060208201905081810360008301526104a88161042e565b9050919050565b600060208201905081810360008301526104c881610451565b9050919050565b600082825260208201905092915050565b60006104eb826104f2565b9050919050565b600073ffffffffffffffffffffffffffffffffffffffff82169050919050565b7f4f776e61626c653a206e6577206f776e657220697320746865207a65726f206160008201527f6464726573730000000000000000000000000000000000000000000000000000602082015250565b7f4f776e61626c653a2063616c6c6572206973206e6f7420746865206f776e6572600082015250565b610593816104e0565b811461059e57600080fd5b5056fea264697066735822122076ad3fdfc92283d6d1fad69afb53a4a2e9c866d83795c42fb8c89d078fd1fb0a64736f6c63430008040033",
  "linkReferences": {},
  "deployedLinkReferences": {}
}