{
  "_format": "hh-sol-artifact-1",
  "contractName": "Ticket",
  "sourceName": "contracts/Ticket.sol",
  "abi": [
    {
      "anonymous": false,
      "inputs": [
        {
          "indexed": true,
          "internalType": "address",
          "name": "owner",
          "type": "address"
        },
        {
          "indexed": true,
          "internalType": "address",
          "name": "approved",
          "type": "address"
        },
        {
          "indexed": true,
          "internalType": "uint256",
          "name": "tokenId",
          "type": "uint256"
        }
      ],
      "name": "Approval",
      "type": "event"
    },
    {
      "anonymous": false,
      "inputs": [
        {
          "indexed": true,
          "internalType": "address",
          "name": "owner",
          "type": "address"
        },
        {
          "indexed": true,
          "internalType": "address",
          "name": "operator",
          "type": "address"
        },
        {
          "indexed": false,
          "internalType": "bool",
          "name": "approved",
          "type": "bool"
        }
      ],
      "name": "ApprovalForAll",
      "type": "event"
    },
    {
      "anonymous": false,
      "inputs": [
        {
          "indexed": false,
          "internalType": "address",
          "name": "user",
          "type": "address"
        },
        {
          "indexed": false,
          "internalType": "uint256",
          "name": "lotteryId",
          "type": "uint256"
        }
      ],
      "name": "BoughtTicket",
      "type": "event"
    },
    {
      "anonymous": false,
      "inputs": [
        {
          "indexed": false,
          "internalType": "address",
          "name": "lotteryWinner",
          "type": "address"
        },
        {
          "indexed": false,
          "internalType": "uint256",
          "name": "winningAmount",
          "type": "uint256"
        },
        {
          "indexed": false,
          "internalType": "uint256",
          "name": "blockNumber",
          "type": "uint256"
        }
      ],
      "name": "DeclaredLotteryWinner",
      "type": "event"
    },
    {
      "anonymous": false,
      "inputs": [
        {
          "indexed": false,
          "internalType": "address",
          "name": "surpriseWinner",
          "type": "address"
        },
        {
          "indexed": false,
          "internalType": "uint256",
          "name": "winningAmount",
          "type": "uint256"
        },
        {
          "indexed": false,
          "internalType": "uint256",
          "name": "blockNumber",
          "type": "uint256"
        }
      ],
      "name": "DeclaredSurpriseWinner",
      "type": "event"
    },
    {
      "anonymous": false,
      "inputs": [
        {
          "indexed": false,
          "internalType": "uint8",
          "name": "version",
          "type": "uint8"
        }
      ],
      "name": "Initialized",
      "type": "event"
    },
    {
      "anonymous": false,
      "inputs": [
        {
          "indexed": true,
          "internalType": "address",
          "name": "previousOwner",
          "type": "address"
        },
        {
          "indexed": true,
          "internalType": "address",
          "name": "newOwner",
          "type": "address"
        }
      ],
      "name": "OwnershipTransferred",
      "type": "event"
    },
    {
      "anonymous": false,
      "inputs": [
        {
          "indexed": true,
          "internalType": "address",
          "name": "from",
          "type": "address"
        },
        {
          "indexed": true,
          "internalType": "address",
          "name": "to",
          "type": "address"
        },
        {
          "indexed": true,
          "internalType": "uint256",
          "name": "tokenId",
          "type": "uint256"
        }
      ],
      "name": "Transfer",
      "type": "event"
    },
    {
      "anonymous": false,
      "inputs": [
        {
          "indexed": false,
          "internalType": "string",
          "name": "_uri",
          "type": "string"
        }
      ],
      "name": "UpdatedBaseURI",
      "type": "event"
    },
    {
      "inputs": [
        {
          "internalType": "address",
          "name": "to",
          "type": "address"
        },
        {
          "internalType": "uint256",
          "name": "tokenId",
          "type": "uint256"
        }
      ],
      "name": "approve",
      "outputs": [],
      "stateMutability": "nonpayable",
      "type": "function"
    },
    {
      "inputs": [
        {
          "internalType": "address",
          "name": "owner",
          "type": "address"
        }
      ],
      "name": "balanceOf",
      "outputs": [
        {
          "internalType": "uint256",
          "name": "",
          "type": "uint256"
        }
      ],
      "stateMutability": "view",
      "type": "function"
    },
    {
      "inputs": [],
      "name": "baseURI",
      "outputs": [
        {
          "internalType": "string",
          "name": "",
          "type": "string"
        }
      ],
      "stateMutability": "view",
      "type": "function"
    },
    {
      "inputs": [],
      "name": "buyTicket",
      "outputs": [],
      "stateMutability": "payable",
      "type": "function"
    },
    {
      "inputs": [],
      "name": "declareLotteryWinner",
      "outputs": [],
      "stateMutability": "nonpayable",
      "type": "function"
    },
    {
      "inputs": [],
      "name": "declareSurpriseWinner",
      "outputs": [],
      "stateMutability": "nonpayable",
      "type": "function"
    },
    {
      "inputs": [
        {
          "internalType": "uint256",
          "name": "tokenId",
          "type": "uint256"
        }
      ],
      "name": "getApproved",
      "outputs": [
        {
          "internalType": "address",
          "name": "",
          "type": "address"
        }
      ],
      "stateMutability": "view",
      "type": "function"
    },
    {
      "inputs": [],
      "name": "getLotteryWinner",
      "outputs": [
        {
          "internalType": "address",
          "name": "winner",
          "type": "address"
        }
      ],
      "stateMutability": "view",
      "type": "function"
    },
    {
      "inputs": [],
      "name": "getSurpriseWinner",
      "outputs": [
        {
          "internalType": "address",
          "name": "winner",
          "type": "address"
        }
      ],
      "stateMutability": "view",
      "type": "function"
    },
    {
      "inputs": [
        {
          "internalType": "uint256",
          "name": "_startBlock",
          "type": "uint256"
        },
        {
          "internalType": "uint256",
          "name": "_endBlock",
          "type": "uint256"
        },
        {
          "internalType": "uint256",
          "name": "_ticketPrice",
          "type": "uint256"
        },
        {
          "internalType": "address",
          "name": "_newOwner",
          "type": "address"
        },
        {
          "internalType": "string",
          "name": "_name",
          "type": "string"
        },
        {
          "internalType": "string",
          "name": "_symbol",
          "type": "string"
        },
        {
          "internalType": "string",
          "name": "_uri",
          "type": "string"
        }
      ],
      "name": "initialize",
      "outputs": [],
      "stateMutability": "nonpayable",
      "type": "function"
    },
    {
      "inputs": [
        {
          "internalType": "address",
          "name": "owner",
          "type": "address"
        },
        {
          "internalType": "address",
          "name": "operator",
          "type": "address"
        }
      ],
      "name": "isApprovedForAll",
      "outputs": [
        {
          "internalType": "bool",
          "name": "",
          "type": "bool"
        }
      ],
      "stateMutability": "view",
      "type": "function"
    },
    {
      "inputs": [],
      "name": "latestLotteryId",
      "outputs": [
        {
          "internalType": "uint256",
          "name": "",
          "type": "uint256"
        }
      ],
      "stateMutability": "view",
      "type": "function"
    },
    {
      "inputs": [
        {
          "internalType": "uint256",
          "name": "",
          "type": "uint256"
        }
      ],
      "name": "lotteryHolders",
      "outputs": [
        {
          "internalType": "address",
          "name": "",
          "type": "address"
        }
      ],
      "stateMutability": "view",
      "type": "function"
    },
    {
      "inputs": [],
      "name": "lotteryWinnerId",
      "outputs": [
        {
          "internalType": "uint256",
          "name": "",
          "type": "uint256"
        }
      ],
      "stateMutability": "view",
      "type": "function"
    },
    {
      "inputs": [],
      "name": "name",
      "outputs": [
        {
          "internalType": "string",
          "name": "",
          "type": "string"
        }
      ],
      "stateMutability": "view",
      "type": "function"
    },
    {
      "inputs": [],
      "name": "owner",
      "outputs": [
        {
          "internalType": "address",
          "name": "",
          "type": "address"
        }
      ],
      "stateMutability": "view",
      "type": "function"
    },
    {
      "inputs": [
        {
          "internalType": "uint256",
          "name": "tokenId",
          "type": "uint256"
        }
      ],
      "name": "ownerOf",
      "outputs": [
        {
          "internalType": "address",
          "name": "",
          "type": "address"
        }
      ],
      "stateMutability": "view",
      "type": "function"
    },
    {
      "inputs": [],
      "name": "prizePool",
      "outputs": [
        {
          "internalType": "uint256",
          "name": "",
          "type": "uint256"
        }
      ],
      "stateMutability": "view",
      "type": "function"
    },
    {
      "inputs": [],
      "name": "purchaseEndBlock",
      "outputs": [
        {
          "internalType": "uint256",
          "name": "",
          "type": "uint256"
        }
      ],
      "stateMutability": "view",
      "type": "function"
    },
    {
      "inputs": [],
      "name": "purchaseStartBlock",
      "outputs": [
        {
          "internalType": "uint256",
          "name": "",
          "type": "uint256"
        }
      ],
      "stateMutability": "view",
      "type": "function"
    },
    {
      "inputs": [],
      "name": "renounceOwnership",
      "outputs": [],
      "stateMutability": "nonpayable",
      "type": "function"
    },
    {
      "inputs": [
        {
          "internalType": "address",
          "name": "from",
          "type": "address"
        },
        {
          "internalType": "address",
          "name": "to",
          "type": "address"
        },
        {
          "internalType": "uint256",
          "name": "tokenId",
          "type": "uint256"
        }
      ],
      "name": "safeTransferFrom",
      "outputs": [],
      "stateMutability": "nonpayable",
      "type": "function"
    },
    {
      "inputs": [
        {
          "internalType": "address",
          "name": "from",
          "type": "address"
        },
        {
          "internalType": "address",
          "name": "to",
          "type": "address"
        },
        {
          "internalType": "uint256",
          "name": "tokenId",
          "type": "uint256"
        },
        {
          "internalType": "bytes",
          "name": "data",
          "type": "bytes"
        }
      ],
      "name": "safeTransferFrom",
      "outputs": [],
      "stateMutability": "nonpayable",
      "type": "function"
    },
    {
      "inputs": [
        {
          "internalType": "address",
          "name": "operator",
          "type": "address"
        },
        {
          "internalType": "bool",
          "name": "approved",
          "type": "bool"
        }
      ],
      "name": "setApprovalForAll",
      "outputs": [],
      "stateMutability": "nonpayable",
      "type": "function"
    },
    {
      "inputs": [
        {
          "internalType": "string",
          "name": "_uri",
          "type": "string"
        }
      ],
      "name": "setBaseURI",
      "outputs": [],
      "stateMutability": "nonpayable",
      "type": "function"
    },
    {
      "inputs": [
        {
          "internalType": "bytes4",
          "name": "interfaceId",
          "type": "bytes4"
        }
      ],
      "name": "supportsInterface",
      "outputs": [
        {
          "internalType": "bool",
          "name": "",
          "type": "bool"
        }
      ],
      "stateMutability": "view",
      "type": "function"
    },
    {
      "inputs": [],
      "name": "surpriseWinnerId",
      "outputs": [
        {
          "internalType": "uint256",
          "name": "",
          "type": "uint256"
        }
      ],
      "stateMutability": "view",
      "type": "function"
    },
    {
      "inputs": [],
      "name": "symbol",
      "outputs": [
        {
          "internalType": "string",
          "name": "",
          "type": "string"
        }
      ],
      "stateMutability": "view",
      "type": "function"
    },
    {
      "inputs": [],
      "name": "ticketPrice",
      "outputs": [
        {
          "internalType": "uint256",
          "name": "",
          "type": "uint256"
        }
      ],
      "stateMutability": "view",
      "type": "function"
    },
    {
      "inputs": [
        {
          "internalType": "uint256",
          "name": "tokenId",
          "type": "uint256"
        }
      ],
      "name": "tokenURI",
      "outputs": [
        {
          "internalType": "string",
          "name": "",
          "type": "string"
        }
      ],
      "stateMutability": "view",
      "type": "function"
    },
    {
      "inputs": [
        {
          "internalType": "address",
          "name": "from",
          "type": "address"
        },
        {
          "internalType": "address",
          "name": "to",
          "type": "address"
        },
        {
          "internalType": "uint256",
          "name": "tokenId",
          "type": "uint256"
        }
      ],
      "name": "transferFrom",
      "outputs": [],
      "stateMutability": "nonpayable",
      "type": "function"
    },
    {
      "inputs": [
        {
          "internalType": "address",
          "name": "newOwner",
          "type": "address"
        }
      ],
      "name": "transferOwnership",
      "outputs": [],
      "stateMutability": "nonpayable",
      "type": "function"
    }
  ],
  "bytecode": "0x608060405234801561001057600080fd5b5061434a806100206000396000f3fe6080604052600436106101e35760003560e01c806389947a6e11610102578063c0bd801d11610095578063e985e9c511610064578063e985e9c5146106be578063edca914c146106fb578063eed8e1ee14610705578063f2fde38b14610730576101e3565b8063c0bd801d14610614578063c669ba4c1461062b578063c87b56dd14610656578063cc72ecb014610693576101e3565b8063a22cb465116100d1578063a22cb4651461056e578063b2d55c1c14610597578063b2de3ec2146105c2578063b88d4fde146105eb576101e3565b806389947a6e146104c25780638da5cb5b146104ed57806395d89b411461051857806399c49db914610543576101e3565b806342842e0e1161017a5780636c0360eb116101495780636c0360eb1461041857806370a0823114610443578063715018a614610480578063719ce73e14610497576101e3565b806342842e0e1461035e57806355f804b3146103875780636352211e146103b057806366104c67146103ed576101e3565b80631209b1f6116101b65780631209b1f6146102b65780631ea287cf146102e157806323b872dd146102f857806341579f6814610321576101e3565b806301ffc9a7146101e857806306fdde0314610225578063081812fc14610250578063095ea7b31461028d575b600080fd5b3480156101f457600080fd5b5061020f600480360381019061020a9190612f4a565b610759565b60405161021c9190613667565b60405180910390f35b34801561023157600080fd5b5061023a61083b565b604051610247919061369d565b60405180910390f35b34801561025c57600080fd5b5061027760048036038101906102729190612fdd565b6108cd565b60405161028491906135a0565b60405180910390f35b34801561029957600080fd5b506102b460048036038101906102af9190612f0e565b610913565b005b3480156102c257600080fd5b506102cb610a2b565b6040516102d8919061399f565b60405180910390f35b3480156102ed57600080fd5b506102f6610a31565b005b34801561030457600080fd5b5061031f600480360381019061031a9190612e08565b610bd6565b005b34801561032d57600080fd5b5061034860048036038101906103439190612fdd565b610c36565b60405161035591906135a0565b60405180910390f35b34801561036a57600080fd5b5061038560048036038101906103809190612e08565b610c69565b005b34801561039357600080fd5b506103ae60048036038101906103a99190612f9c565b610c89565b005b3480156103bc57600080fd5b506103d760048036038101906103d29190612fdd565b610d56565b6040516103e491906135a0565b60405180910390f35b3480156103f957600080fd5b50610402610ddd565b60405161040f919061399f565b60405180910390f35b34801561042457600080fd5b5061042d610de3565b60405161043a919061369d565b60405180910390f35b34801561044f57600080fd5b5061046a60048036038101906104659190612da3565b610e71565b604051610477919061399f565b60405180910390f35b34801561048c57600080fd5b50610495610f29565b005b3480156104a357600080fd5b506104ac610fb1565b6040516104b9919061399f565b60405180910390f35b3480156104ce57600080fd5b506104d7610fb7565b6040516104e4919061399f565b60405180910390f35b3480156104f957600080fd5b50610502610fbd565b60405161050f91906135a0565b60405180910390f35b34801561052457600080fd5b5061052d610fe7565b60405161053a919061369d565b60405180910390f35b34801561054f57600080fd5b50610558611079565b60405161056591906135a0565b60405180910390f35b34801561057a57600080fd5b5061059560048036038101906105909190612ed2565b6110b6565b005b3480156105a357600080fd5b506105ac6110cc565b6040516105b991906135a0565b60405180910390f35b3480156105ce57600080fd5b506105e960048036038101906105e49190613006565b611109565b005b3480156105f757600080fd5b50610612600480360381019061060d9190612e57565b61128d565b005b34801561062057600080fd5b506106296112ef565b005b34801561063757600080fd5b506106406114c9565b60405161064d919061399f565b60405180910390f35b34801561066257600080fd5b5061067d60048036038101906106789190612fdd565b6114cf565b60405161068a919061369d565b60405180910390f35b34801561069f57600080fd5b506106a8611537565b6040516106b5919061399f565b60405180910390f35b3480156106ca57600080fd5b506106e560048036038101906106e09190612dcc565b61153d565b6040516106f29190613667565b60405180910390f35b6107036115d1565b005b34801561071157600080fd5b5061071a61174c565b604051610727919061399f565b60405180910390f35b34801561073c57600080fd5b5061075760048036038101906107529190612da3565b611752565b005b60007f80ac58cd000000000000000000000000000000000000000000000000000000007bffffffffffffffffffffffffffffffffffffffffffffffffffffffff1916827bffffffffffffffffffffffffffffffffffffffffffffffffffffffff1916148061082457507f5b5e139f000000000000000000000000000000000000000000000000000000007bffffffffffffffffffffffffffffffffffffffffffffffffffffffff1916827bffffffffffffffffffffffffffffffffffffffffffffffffffffffff1916145b8061083457506108338261184a565b5b9050919050565b60606065805461084a90613c1f565b80601f016020809104026020016040519081016040528092919081815260200182805461087690613c1f565b80156108c35780601f10610898576101008083540402835291602001916108c3565b820191906000526020600020905b8154815290600101906020018083116108a657829003601f168201915b5050505050905090565b60006108d8826118b4565b6069600083815260200190815260200160002060009054906101000a900473ffffffffffffffffffffffffffffffffffffffff169050919050565b600061091e82610d56565b90508073ffffffffffffffffffffffffffffffffffffffff168373ffffffffffffffffffffffffffffffffffffffff16141561098f576040517f08c379a00000000000000000000000000000000000000000000000000000000081526004016109869061391f565b60405180910390fd5b8073ffffffffffffffffffffffffffffffffffffffff166109ae6118ff565b73ffffffffffffffffffffffffffffffffffffffff1614806109dd57506109dc816109d76118ff565b61153d565b5b610a1c576040517f08c379a0000000000000000000000000000000000000000000000000000000008152600401610a139061393f565b60405180910390fd5b610a268383611907565b505050565b60cb5481565b610a396118ff565b73ffffffffffffffffffffffffffffffffffffffff16610a57610fbd565b73ffffffffffffffffffffffffffffffffffffffff1614610aad576040517f08c379a0000000000000000000000000000000000000000000000000000000008152600401610aa49061389f565b60405180910390fd5b60ca544311610af1576040517f08c379a0000000000000000000000000000000000000000000000000000000008152600401610ae89061375f565b60405180910390fd5b600060cf5414610b36576040517f08c379a0000000000000000000000000000000000000000000000000000000008152600401610b2d906137df565b60405180910390fd5b610b3e6119c0565b60cf81905550600060d1600060cf54815260200190815260200160002060009054906101000a900473ffffffffffffffffffffffffffffffffffffffff169050600060cd549050600060cd81905550610b978282611a1c565b7fcf6df45f3cd08d2a84fff8068a3e49b3581930e649aba86c88490179a04b85b1828243604051610bca93929190613630565b60405180910390a15050565b610be7610be16118ff565b82611b80565b610c26576040517f08c379a0000000000000000000000000000000000000000000000000000000008152600401610c1d906136bf565b60405180910390fd5b610c31838383611c15565b505050565b60d16020528060005260406000206000915054906101000a900473ffffffffffffffffffffffffffffffffffffffff1681565b610c848383836040518060200160405280600081525061128d565b505050565b610c916118ff565b73ffffffffffffffffffffffffffffffffffffffff16610caf610fbd565b73ffffffffffffffffffffffffffffffffffffffff1614610d05576040517f08c379a0000000000000000000000000000000000000000000000000000000008152600401610cfc9061389f565b60405180910390fd5b8060d09080519060200190610d1b929190612bc7565b507fe12d4d4a70d9b5c313db41dbfde977d2932dd59c55fca4a4af5181b2397c172581604051610d4b919061369d565b60405180910390a150565b600080610d6283611f0f565b9050600073ffffffffffffffffffffffffffffffffffffffff168173ffffffffffffffffffffffffffffffffffffffff161415610dd4576040517f08c379a0000000000000000000000000000000000000000000000000000000008152600401610dcb906138ff565b60405180910390fd5b80915050919050565b60ce5481565b60d08054610df090613c1f565b80601f0160208091040260200160405190810160405280929190818152602001828054610e1c90613c1f565b8015610e695780601f10610e3e57610100808354040283529160200191610e69565b820191906000526020600020905b815481529060010190602001808311610e4c57829003601f168201915b505050505081565b60008073ffffffffffffffffffffffffffffffffffffffff168273ffffffffffffffffffffffffffffffffffffffff161415610ee2576040517f08c379a0000000000000000000000000000000000000000000000000000000008152600401610ed9906137ff565b60405180910390fd5b606860008373ffffffffffffffffffffffffffffffffffffffff1673ffffffffffffffffffffffffffffffffffffffff168152602001908152602001600020549050919050565b610f316118ff565b73ffffffffffffffffffffffffffffffffffffffff16610f4f610fbd565b73ffffffffffffffffffffffffffffffffffffffff1614610fa5576040517f08c379a0000000000000000000000000000000000000000000000000000000008152600401610f9c9061389f565b60405180910390fd5b610faf6000611f4c565b565b60cd5481565b60cf5481565b6000609760009054906101000a900473ffffffffffffffffffffffffffffffffffffffff16905090565b606060668054610ff690613c1f565b80601f016020809104026020016040519081016040528092919081815260200182805461102290613c1f565b801561106f5780601f106110445761010080835404028352916020019161106f565b820191906000526020600020905b81548152906001019060200180831161105257829003601f168201915b5050505050905090565b600060d1600060ce54815260200190815260200160002060009054906101000a900473ffffffffffffffffffffffffffffffffffffffff16905090565b6110c86110c16118ff565b8383612012565b5050565b600060d1600060cf54815260200190815260200160002060009054906101000a900473ffffffffffffffffffffffffffffffffffffffff16905090565b60008060019054906101000a900460ff1615905080801561113a5750600160008054906101000a900460ff1660ff16105b8061116757506111493061217f565b1580156111665750600160008054906101000a900460ff1660ff16145b5b6111a6576040517f08c379a000000000000000000000000000000000000000000000000000000000815260040161119d9061383f565b60405180910390fd5b60016000806101000a81548160ff021916908360ff16021790555080156111e3576001600060016101000a81548160ff0219169083151502179055505b6111eb6121a2565b6111f485611752565b6111fe84846121fb565b8160d09080519060200190611214929190612bc7565b508760c9819055508660ca819055508560cb8190555080156112835760008060016101000a81548160ff0219169083151502179055507f7f26b83ff96e1f2b6a682f133852f6798a09c465da95921460cefb3847402498600160405161127a9190613682565b60405180910390a15b5050505050505050565b61129e6112986118ff565b83611b80565b6112dd576040517f08c379a00000000000000000000000000000000000000000000000000000000081526004016112d4906136bf565b60405180910390fd5b6112e984848484612258565b50505050565b6112f76118ff565b73ffffffffffffffffffffffffffffffffffffffff16611315610fbd565b73ffffffffffffffffffffffffffffffffffffffff161461136b576040517f08c379a00000000000000000000000000000000000000000000000000000000081526004016113629061389f565b60405180910390fd5b60c954431015801561137f575060ca544311155b6113be576040517f08c379a00000000000000000000000000000000000000000000000000000000081526004016113b5906138bf565b60405180910390fd5b600060ce5414611403576040517f08c379a00000000000000000000000000000000000000000000000000000000081526004016113fa9061387f565b60405180910390fd5b61140b6119c0565b60ce81905550600060d1600060ce54815260200190815260200160002060009054906101000a900473ffffffffffffffffffffffffffffffffffffffff1690506000611463600260cd546122b490919063ffffffff16565b905061147a8160cd546122ca90919063ffffffff16565b60cd8190555061148a8282611a1c565b7fbed9008a928542e5a671ca1329a2ca6b5cbb9fe79daa5c93e3aa74c6e591ddde8282436040516114bd93929190613630565b60405180910390a15050565b60ca5481565b60606114da826118b4565b60006114e46122e0565b90506000815111611504576040518060200160405280600081525061152f565b8061150e84612372565b60405160200161151f92919061352a565b6040516020818303038152906040525b915050919050565b60c95481565b6000606a60008473ffffffffffffffffffffffffffffffffffffffff1673ffffffffffffffffffffffffffffffffffffffff16815260200190815260200160002060008373ffffffffffffffffffffffffffffffffffffffff1673ffffffffffffffffffffffffffffffffffffffff16815260200190815260200160002060009054906101000a900460ff16905092915050565b60c95443101580156115e5575060ca544311155b611624576040517f08c379a000000000000000000000000000000000000000000000000000000000815260040161161b906138bf565b60405180910390fd5b60cb543414611668576040517f08c379a000000000000000000000000000000000000000000000000000000000815260040161165f9061397f565b60405180910390fd5b61167e600160cc5461249690919063ffffffff16565b60cc8190555061169761168f6118ff565b60cc546124ac565b61169f6118ff565b60d1600060cc54815260200190815260200160002060006101000a81548173ffffffffffffffffffffffffffffffffffffffff021916908373ffffffffffffffffffffffffffffffffffffffff16021790555060cb5460cd546117029190613a8f565b60cd819055507f3618b0a7469bf1ba864e8b1926f16621c49ae96b79cdeb0e8acd0c6f0ec923646117316118ff565b60cc54604051611742929190613607565b60405180910390a1565b60cc5481565b61175a6118ff565b73ffffffffffffffffffffffffffffffffffffffff16611778610fbd565b73ffffffffffffffffffffffffffffffffffffffff16146117ce576040517f08c379a00000000000000000000000000000000000000000000000000000000081526004016117c59061389f565b60405180910390fd5b600073ffffffffffffffffffffffffffffffffffffffff168173ffffffffffffffffffffffffffffffffffffffff16141561183e576040517f08c379a00000000000000000000000000000000000000000000000000000000081526004016118359061371f565b60405180910390fd5b61184781611f4c565b50565b60007f01ffc9a7000000000000000000000000000000000000000000000000000000007bffffffffffffffffffffffffffffffffffffffffffffffffffffffff1916827bffffffffffffffffffffffffffffffffffffffffffffffffffffffff1916149050919050565b6118bd816126ca565b6118fc576040517f08c379a00000000000000000000000000000000000000000000000000000000081526004016118f3906138ff565b60405180910390fd5b50565b600033905090565b816069600083815260200190815260200160002060006101000a81548173ffffffffffffffffffffffffffffffffffffffff021916908373ffffffffffffffffffffffffffffffffffffffff160217905550808273ffffffffffffffffffffffffffffffffffffffff1661197a83610d56565b73ffffffffffffffffffffffffffffffffffffffff167f8c5be1e5ebec7d5bd14f71427d1e84f3dd0314c0f7b2291e5b200ac8c7c3b92560405160405180910390a45050565b60008060cc54444260cc546040516020016119dd93929190613563565b6040516020818303038152906040528051906020012060001c611a009190613c8c565b9050611a1660018261249690919063ffffffff16565b91505090565b600073ffffffffffffffffffffffffffffffffffffffff168273ffffffffffffffffffffffffffffffffffffffff161415611a8c576040517f08c379a0000000000000000000000000000000000000000000000000000000008152600401611a839061381f565b60405180910390fd5b80471015611acf576040517f08c379a0000000000000000000000000000000000000000000000000000000008152600401611ac6906136df565b60405180910390fd5b60008273ffffffffffffffffffffffffffffffffffffffff1682604051611af59061354e565b60006040518083038185875af1925050503d8060008114611b32576040519150601f19603f3d011682016040523d82523d6000602084013e611b37565b606091505b5050905080611b7b576040517f08c379a0000000000000000000000000000000000000000000000000000000008152600401611b72906138df565b60405180910390fd5b505050565b600080611b8c83610d56565b90508073ffffffffffffffffffffffffffffffffffffffff168473ffffffffffffffffffffffffffffffffffffffff161480611bce5750611bcd818561153d565b5b80611c0c57508373ffffffffffffffffffffffffffffffffffffffff16611bf4846108cd565b73ffffffffffffffffffffffffffffffffffffffff16145b91505092915050565b8273ffffffffffffffffffffffffffffffffffffffff16611c3582610d56565b73ffffffffffffffffffffffffffffffffffffffff1614611c8b576040517f08c379a0000000000000000000000000000000000000000000000000000000008152600401611c829061373f565b60405180910390fd5b600073ffffffffffffffffffffffffffffffffffffffff168273ffffffffffffffffffffffffffffffffffffffff161415611cfb576040517f08c379a0000000000000000000000000000000000000000000000000000000008152600401611cf29061379f565b60405180910390fd5b611d08838383600161270b565b8273ffffffffffffffffffffffffffffffffffffffff16611d2882610d56565b73ffffffffffffffffffffffffffffffffffffffff1614611d7e576040517f08c379a0000000000000000000000000000000000000000000000000000000008152600401611d759061373f565b60405180910390fd5b6069600082815260200190815260200160002060006101000a81549073ffffffffffffffffffffffffffffffffffffffff02191690556001606860008573ffffffffffffffffffffffffffffffffffffffff1673ffffffffffffffffffffffffffffffffffffffff168152602001908152602001600020600082825403925050819055506001606860008473ffffffffffffffffffffffffffffffffffffffff1673ffffffffffffffffffffffffffffffffffffffff16815260200190815260200160002060008282540192505081905550816067600083815260200190815260200160002060006101000a81548173ffffffffffffffffffffffffffffffffffffffff021916908373ffffffffffffffffffffffffffffffffffffffff160217905550808273ffffffffffffffffffffffffffffffffffffffff168473ffffffffffffffffffffffffffffffffffffffff167fddf252ad1be2c89b69c2b068fc378daa952ba7f163c4a11628f55a4df523b3ef60405160405180910390a4611f0a8383836001612711565b505050565b60006067600083815260200190815260200160002060009054906101000a900473ffffffffffffffffffffffffffffffffffffffff169050919050565b6000609760009054906101000a900473ffffffffffffffffffffffffffffffffffffffff16905081609760006101000a81548173ffffffffffffffffffffffffffffffffffffffff021916908373ffffffffffffffffffffffffffffffffffffffff1602179055508173ffffffffffffffffffffffffffffffffffffffff168173ffffffffffffffffffffffffffffffffffffffff167f8be0079c531659141344cd1fd0a4f28419497f9722a3daafe3b4186f6b6457e060405160405180910390a35050565b8173ffffffffffffffffffffffffffffffffffffffff168373ffffffffffffffffffffffffffffffffffffffff161415612081576040517f08c379a0000000000000000000000000000000000000000000000000000000008152600401612078906137bf565b60405180910390fd5b80606a60008573ffffffffffffffffffffffffffffffffffffffff1673ffffffffffffffffffffffffffffffffffffffff16815260200190815260200160002060008473ffffffffffffffffffffffffffffffffffffffff1673ffffffffffffffffffffffffffffffffffffffff16815260200190815260200160002060006101000a81548160ff0219169083151502179055508173ffffffffffffffffffffffffffffffffffffffff168373ffffffffffffffffffffffffffffffffffffffff167f17307eab39ab6107e8899845ad3d59bd9653f200f220920489ca2b5937696c31836040516121729190613667565b60405180910390a3505050565b6000808273ffffffffffffffffffffffffffffffffffffffff163b119050919050565b600060019054906101000a900460ff166121f1576040517f08c379a00000000000000000000000000000000000000000000000000000000081526004016121e89061395f565b60405180910390fd5b6121f9612717565b565b600060019054906101000a900460ff1661224a576040517f08c379a00000000000000000000000000000000000000000000000000000000081526004016122419061395f565b60405180910390fd5b6122548282612778565b5050565b612263848484611c15565b61226f848484846127f9565b6122ae576040517f08c379a00000000000000000000000000000000000000000000000000000000081526004016122a5906136ff565b60405180910390fd5b50505050565b600081836122c29190613ae5565b905092915050565b600081836122d89190613b16565b905092915050565b606060d080546122ef90613c1f565b80601f016020809104026020016040519081016040528092919081815260200182805461231b90613c1f565b80156123685780601f1061233d57610100808354040283529160200191612368565b820191906000526020600020905b81548152906001019060200180831161234b57829003601f168201915b5050505050905090565b60606000600161238184612990565b01905060008167ffffffffffffffff8111156123c6577f4e487b7100000000000000000000000000000000000000000000000000000000600052604160045260246000fd5b6040519080825280601f01601f1916602001820160405280156123f85781602001600182028036833780820191505090505b509050600082602001820190505b60011561248b578080600190039150507f3031323334353637383961626364656600000000000000000000000000000000600a86061a8153600a8581612475577f4e487b7100000000000000000000000000000000000000000000000000000000600052601260045260246000fd5b04945060008514156124865761248b565b612406565b819350505050919050565b600081836124a49190613a8f565b905092915050565b600073ffffffffffffffffffffffffffffffffffffffff168273ffffffffffffffffffffffffffffffffffffffff16141561251c576040517f08c379a00000000000000000000000000000000000000000000000000000000081526004016125139061385f565b60405180910390fd5b612525816126ca565b15612565576040517f08c379a000000000000000000000000000000000000000000000000000000000815260040161255c9061377f565b60405180910390fd5b61257360008383600161270b565b61257c816126ca565b156125bc576040517f08c379a00000000000000000000000000000000000000000000000000000000081526004016125b39061377f565b60405180910390fd5b6001606860008473ffffffffffffffffffffffffffffffffffffffff1673ffffffffffffffffffffffffffffffffffffffff16815260200190815260200160002060008282540192505081905550816067600083815260200190815260200160002060006101000a81548173ffffffffffffffffffffffffffffffffffffffff021916908373ffffffffffffffffffffffffffffffffffffffff160217905550808273ffffffffffffffffffffffffffffffffffffffff16600073ffffffffffffffffffffffffffffffffffffffff167fddf252ad1be2c89b69c2b068fc378daa952ba7f163c4a11628f55a4df523b3ef60405160405180910390a46126c6600083836001612711565b5050565b60008073ffffffffffffffffffffffffffffffffffffffff166126ec83611f0f565b73ffffffffffffffffffffffffffffffffffffffff1614159050919050565b50505050565b50505050565b600060019054906101000a900460ff16612766576040517f08c379a000000000000000000000000000000000000000000000000000000000815260040161275d9061395f565b60405180910390fd5b6127766127716118ff565b611f4c565b565b600060019054906101000a900460ff166127c7576040517f08c379a00000000000000000000000000000000000000000000000000000000081526004016127be9061395f565b60405180910390fd5b81606590805190602001906127dd929190612bc7565b5080606690805190602001906127f4929190612bc7565b505050565b600061281a8473ffffffffffffffffffffffffffffffffffffffff1661217f565b15612983578373ffffffffffffffffffffffffffffffffffffffff1663150b7a026128436118ff565b8786866040518563ffffffff1660e01b815260040161286594939291906135bb565b602060405180830381600087803b15801561287f57600080fd5b505af19250505080156128b057506040513d601f19601f820116820180604052508101906128ad9190612f73565b60015b612933573d80600081146128e0576040519150601f19603f3d011682016040523d82523d6000602084013e6128e5565b606091505b5060008151141561292b576040517f08c379a0000000000000000000000000000000000000000000000000000000008152600401612922906136ff565b60405180910390fd5b805181602001fd5b63150b7a0260e01b7bffffffffffffffffffffffffffffffffffffffffffffffffffffffff1916817bffffffffffffffffffffffffffffffffffffffffffffffffffffffff191614915050612988565b600190505b949350505050565b600080600090507a184f03e93ff9f4daa797ed6e38ed64bf6a1f0100000000000000008310612a14577a184f03e93ff9f4daa797ed6e38ed64bf6a1f0100000000000000008381612a0a577f4e487b7100000000000000000000000000000000000000000000000000000000600052601260045260246000fd5b0492506040810190505b6d04ee2d6d415b85acef81000000008310612a77576d04ee2d6d415b85acef81000000008381612a6d577f4e487b7100000000000000000000000000000000000000000000000000000000600052601260045260246000fd5b0492506020810190505b662386f26fc100008310612acc57662386f26fc100008381612ac2577f4e487b7100000000000000000000000000000000000000000000000000000000600052601260045260246000fd5b0492506010810190505b6305f5e1008310612b1b576305f5e1008381612b11577f4e487b7100000000000000000000000000000000000000000000000000000000600052601260045260246000fd5b0492506008810190505b6127108310612b66576127108381612b5c577f4e487b7100000000000000000000000000000000000000000000000000000000600052601260045260246000fd5b0492506004810190505b60648310612baf5760648381612ba5577f4e487b7100000000000000000000000000000000000000000000000000000000600052601260045260246000fd5b0492506002810190505b600a8310612bbe576001810190505b80915050919050565b828054612bd390613c1f565b90600052602060002090601f016020900481019282612bf55760008555612c3c565b82601f10612c0e57805160ff1916838001178555612c3c565b82800160010185558215612c3c579182015b82811115612c3b578251825591602001919060010190612c20565b5b509050612c499190612c4d565b5090565b5b80821115612c66576000816000905550600101612c4e565b5090565b6000612c7d612c78846139df565b6139ba565b905082815260208101848484011115612c9557600080fd5b612ca0848285613bdd565b509392505050565b6000612cbb612cb684613a10565b6139ba565b905082815260208101848484011115612cd357600080fd5b612cde848285613bdd565b509392505050565b600081359050612cf5816142b8565b92915050565b600081359050612d0a816142cf565b92915050565b600081359050612d1f816142e6565b92915050565b600081519050612d34816142e6565b92915050565b600082601f830112612d4b57600080fd5b8135612d5b848260208601612c6a565b91505092915050565b600082601f830112612d7557600080fd5b8135612d85848260208601612ca8565b91505092915050565b600081359050612d9d816142fd565b92915050565b600060208284031215612db557600080fd5b6000612dc384828501612ce6565b91505092915050565b60008060408385031215612ddf57600080fd5b6000612ded85828601612ce6565b9250506020612dfe85828601612ce6565b9150509250929050565b600080600060608486031215612e1d57600080fd5b6000612e2b86828701612ce6565b9350506020612e3c86828701612ce6565b9250506040612e4d86828701612d8e565b9150509250925092565b60008060008060808587031215612e6d57600080fd5b6000612e7b87828801612ce6565b9450506020612e8c87828801612ce6565b9350506040612e9d87828801612d8e565b925050606085013567ffffffffffffffff811115612eba57600080fd5b612ec687828801612d3a565b91505092959194509250565b60008060408385031215612ee557600080fd5b6000612ef385828601612ce6565b9250506020612f0485828601612cfb565b9150509250929050565b60008060408385031215612f2157600080fd5b6000612f2f85828601612ce6565b9250506020612f4085828601612d8e565b9150509250929050565b600060208284031215612f5c57600080fd5b6000612f6a84828501612d10565b91505092915050565b600060208284031215612f8557600080fd5b6000612f9384828501612d25565b91505092915050565b600060208284031215612fae57600080fd5b600082013567ffffffffffffffff811115612fc857600080fd5b612fd484828501612d64565b91505092915050565b600060208284031215612fef57600080fd5b6000612ffd84828501612d8e565b91505092915050565b600080600080600080600060e0888a03121561302157600080fd5b600061302f8a828b01612d8e565b97505060206130408a828b01612d8e565b96505060406130518a828b01612d8e565b95505060606130628a828b01612ce6565b945050608088013567ffffffffffffffff81111561307f57600080fd5b61308b8a828b01612d64565b93505060a088013567ffffffffffffffff8111156130a857600080fd5b6130b48a828b01612d64565b92505060c088013567ffffffffffffffff8111156130d157600080fd5b6130dd8a828b01612d64565b91505092959891949750929550565b6130f581613b4a565b82525050565b61310481613b5c565b82525050565b600061311582613a41565b61311f8185613a57565b935061312f818560208601613bec565b61313881613d79565b840191505092915050565b61314c81613bcb565b82525050565b600061315d82613a4c565b6131678185613a73565b9350613177818560208601613bec565b61318081613d79565b840191505092915050565b600061319682613a4c565b6131a08185613a84565b93506131b0818560208601613bec565b80840191505092915050565b60006131c9602d83613a73565b91506131d482613d8a565b604082019050919050565b60006131ec601483613a73565b91506131f782613dd9565b602082019050919050565b600061320f603283613a73565b915061321a82613e02565b604082019050919050565b6000613232602683613a73565b915061323d82613e51565b604082019050919050565b6000613255602583613a73565b915061326082613ea0565b604082019050919050565b6000613278601683613a73565b915061328382613eef565b602082019050919050565b600061329b601c83613a73565b91506132a682613f18565b602082019050919050565b60006132be602483613a73565b91506132c982613f41565b604082019050919050565b60006132e1601983613a73565b91506132ec82613f90565b602082019050919050565b6000613304601783613a73565b915061330f82613fb9565b602082019050919050565b6000613327602983613a73565b915061333282613fe2565b604082019050919050565b600061334a600c83613a73565b915061335582614031565b602082019050919050565b600061336d602e83613a73565b91506133788261405a565b604082019050919050565b6000613390602083613a73565b915061339b826140a9565b602082019050919050565b60006133b3602083613a73565b91506133be826140d2565b602082019050919050565b60006133d6602083613a73565b91506133e1826140fb565b602082019050919050565b60006133f9601c83613a73565b915061340482614124565b602082019050919050565b600061341c601183613a73565b91506134278261414d565b602082019050919050565b600061343f601883613a73565b915061344a82614176565b602082019050919050565b6000613462602183613a73565b915061346d8261419f565b604082019050919050565b6000613485600083613a68565b9150613490826141ee565b600082019050919050565b60006134a8603d83613a73565b91506134b3826141f1565b604082019050919050565b60006134cb602b83613a73565b91506134d682614240565b604082019050919050565b60006134ee601183613a73565b91506134f98261428f565b602082019050919050565b61350d81613bb4565b82525050565b61352461351f82613bb4565b613c82565b82525050565b6000613536828561318b565b9150613542828461318b565b91508190509392505050565b600061355982613478565b9150819050919050565b600061356f8286613513565b60208201915061357f8285613513565b60208201915061358f8284613513565b602082019150819050949350505050565b60006020820190506135b560008301846130ec565b92915050565b60006080820190506135d060008301876130ec565b6135dd60208301866130ec565b6135ea6040830185613504565b81810360608301526135fc818461310a565b905095945050505050565b600060408201905061361c60008301856130ec565b6136296020830184613504565b9392505050565b600060608201905061364560008301866130ec565b6136526020830185613504565b61365f6040830184613504565b949350505050565b600060208201905061367c60008301846130fb565b92915050565b60006020820190506136976000830184613143565b92915050565b600060208201905081810360008301526136b78184613152565b905092915050565b600060208201905081810360008301526136d8816131bc565b9050919050565b600060208201905081810360008301526136f8816131df565b9050919050565b6000602082019050818103600083015261371881613202565b9050919050565b6000602082019050818103600083015261373881613225565b9050919050565b6000602082019050818103600083015261375881613248565b9050919050565b600060208201905081810360008301526137788161326b565b9050919050565b600060208201905081810360008301526137988161328e565b9050919050565b600060208201905081810360008301526137b8816132b1565b9050919050565b600060208201905081810360008301526137d8816132d4565b9050919050565b600060208201905081810360008301526137f8816132f7565b9050919050565b600060208201905081810360008301526138188161331a565b9050919050565b600060208201905081810360008301526138388161333d565b9050919050565b6000602082019050818103600083015261385881613360565b9050919050565b6000602082019050818103600083015261387881613383565b9050919050565b60006020820190508181036000830152613898816133a6565b9050919050565b600060208201905081810360008301526138b8816133c9565b9050919050565b600060208201905081810360008301526138d8816133ec565b9050919050565b600060208201905081810360008301526138f88161340f565b9050919050565b6000602082019050818103600083015261391881613432565b9050919050565b6000602082019050818103600083015261393881613455565b9050919050565b600060208201905081810360008301526139588161349b565b9050919050565b60006020820190508181036000830152613978816134be565b9050919050565b60006020820190508181036000830152613998816134e1565b9050919050565b60006020820190506139b46000830184613504565b92915050565b60006139c46139d5565b90506139d08282613c51565b919050565b6000604051905090565b600067ffffffffffffffff8211156139fa576139f9613d4a565b5b613a0382613d79565b9050602081019050919050565b600067ffffffffffffffff821115613a2b57613a2a613d4a565b5b613a3482613d79565b9050602081019050919050565b600081519050919050565b600081519050919050565b600082825260208201905092915050565b600081905092915050565b600082825260208201905092915050565b600081905092915050565b6000613a9a82613bb4565b9150613aa583613bb4565b9250827fffffffffffffffffffffffffffffffffffffffffffffffffffffffffffffffff03821115613ada57613ad9613cbd565b5b828201905092915050565b6000613af082613bb4565b9150613afb83613bb4565b925082613b0b57613b0a613cec565b5b828204905092915050565b6000613b2182613bb4565b9150613b2c83613bb4565b925082821015613b3f57613b3e613cbd565b5b828203905092915050565b6000613b5582613b94565b9050919050565b60008115159050919050565b60007fffffffff0000000000000000000000000000000000000000000000000000000082169050919050565b600073ffffffffffffffffffffffffffffffffffffffff82169050919050565b6000819050919050565b600060ff82169050919050565b6000613bd682613bbe565b9050919050565b82818337600083830152505050565b60005b83811015613c0a578082015181840152602081019050613bef565b83811115613c19576000848401525b50505050565b60006002820490506001821680613c3757607f821691505b60208210811415613c4b57613c4a613d1b565b5b50919050565b613c5a82613d79565b810181811067ffffffffffffffff82111715613c7957613c78613d4a565b5b80604052505050565b6000819050919050565b6000613c9782613bb4565b9150613ca283613bb4565b925082613cb257613cb1613cec565b5b828206905092915050565b7f4e487b7100000000000000000000000000000000000000000000000000000000600052601160045260246000fd5b7f4e487b7100000000000000000000000000000000000000000000000000000000600052601260045260246000fd5b7f4e487b7100000000000000000000000000000000000000000000000000000000600052602260045260246000fd5b7f4e487b7100000000000000000000000000000000000000000000000000000000600052604160045260246000fd5b6000601f19601f8301169050919050565b7f4552433732313a2063616c6c6572206973206e6f7420746f6b656e206f776e6560008201527f72206f7220617070726f76656400000000000000000000000000000000000000602082015250565b7f494e53554646494349454e545f42414c414e4345000000000000000000000000600082015250565b7f4552433732313a207472616e7366657220746f206e6f6e20455243373231526560008201527f63656976657220696d706c656d656e7465720000000000000000000000000000602082015250565b7f4f776e61626c653a206e6577206f776e657220697320746865207a65726f206160008201527f6464726573730000000000000000000000000000000000000000000000000000602082015250565b7f4552433732313a207472616e736665722066726f6d20696e636f72726563742060008201527f6f776e6572000000000000000000000000000000000000000000000000000000602082015250565b7f50555243484153455f4e4f545f454e4445445f59455400000000000000000000600082015250565b7f4552433732313a20746f6b656e20616c7265616479206d696e74656400000000600082015250565b7f4552433732313a207472616e7366657220746f20746865207a65726f2061646460008201527f7265737300000000000000000000000000000000000000000000000000000000602082015250565b7f4552433732313a20617070726f766520746f2063616c6c657200000000000000600082015250565b7f57494e4e45525f414c52454144595f4445434c41524544000000000000000000600082015250565b7f4552433732313a2061646472657373207a65726f206973206e6f74206120766160008201527f6c6964206f776e65720000000000000000000000000000000000000000000000602082015250565b7f5a45524f5f414444524553530000000000000000000000000000000000000000600082015250565b7f496e697469616c697a61626c653a20636f6e747261637420697320616c72656160008201527f647920696e697469616c697a6564000000000000000000000000000000000000602082015250565b7f4552433732313a206d696e7420746f20746865207a65726f2061646472657373600082015250565b7f53555250524953455f57494e4e45525f414c52454144595f4445434c41524544600082015250565b7f4f776e61626c653a2063616c6c6572206973206e6f7420746865206f776e6572600082015250565b7f4e4f545f494e5f50555243484153455f424c4f434b5f4c494d49545300000000600082015250565b7f5452414e534645525f5245564552544544000000000000000000000000000000600082015250565b7f4552433732313a20696e76616c696420746f6b656e2049440000000000000000600082015250565b7f4552433732313a20617070726f76616c20746f2063757272656e74206f776e6560008201527f7200000000000000000000000000000000000000000000000000000000000000602082015250565b50565b7f4552433732313a20617070726f76652063616c6c6572206973206e6f7420746f60008201527f6b656e206f776e6572206f7220617070726f76656420666f7220616c6c000000602082015250565b7f496e697469616c697a61626c653a20636f6e7472616374206973206e6f74206960008201527f6e697469616c697a696e67000000000000000000000000000000000000000000602082015250565b7f4e4f545f454e4f5547485f414d4f554e54000000000000000000000000000000600082015250565b6142c181613b4a565b81146142cc57600080fd5b50565b6142d881613b5c565b81146142e357600080fd5b50565b6142ef81613b68565b81146142fa57600080fd5b50565b61430681613bb4565b811461431157600080fd5b5056fea264697066735822122022df47c0c83f8dadc6018f588c1fe69924fe86491f1f8396baa507cc418fc4b064736f6c63430008040033",
  "linkReferences": {},
  "deployedLinkReferences": {}
}