{
  "_format": "hh-sol-artifact-1",
  "contractName": "TicketFactory",
  "sourceName": "contracts/TicketFactory.sol",
  "abi": [
    {
      "inputs": [
        {
          "internalType": "address",
          "name": "_beacon",
          "type": "address"
        }
      ],
      "stateMutability": "nonpayable",
      "type": "constructor"
    },
    {
      "anonymous": false,
      "inputs": [
        {
          "indexed": false,
          "internalType": "address",
          "name": "ticketAddress",
          "type": "address"
        },
        {
          "indexed": false,
          "internalType": "address",
          "name": "ticketCreator",
          "type": "address"
        }
      ],
      "name": "TicketCreated",
      "type": "event"
    },
    {
      "inputs": [],
      "name": "beacon",
      "outputs": [
        {
          "internalType": "address",
          "name": "",
          "type": "address"
        }
      ],
      "stateMutability": "view",
      "type": "function"
    },
    {
      "inputs": [
        {
          "internalType": "uint256",
          "name": "startBlock",
          "type": "uint256"
        },
        {
          "internalType": "uint256",
          "name": "endBlock",
          "type": "uint256"
        },
        {
          "internalType": "uint256",
          "name": "ticketPrice",
          "type": "uint256"
        },
        {
          "internalType": "string",
          "name": "name",
          "type": "string"
        },
        {
          "internalType": "string",
          "name": "symbol",
          "type": "string"
        },
        {
          "internalType": "string",
          "name": "uri",
          "type": "string"
        },
        {
          "internalType": "bytes32",
          "name": "_salt",
          "type": "bytes32"
        }
      ],
      "name": "createTicket",
      "outputs": [],
      "stateMutability": "nonpayable",
      "type": "function"
    },
    {
      "inputs": [
        {
          "internalType": "address",
          "name": "_creator",
          "type": "address"
        },
        {
          "internalType": "bytes32",
          "name": "_salt",
          "type": "bytes32"
        }
      ],
      "name": "preComputeAddress",
      "outputs": [
        {
          "internalType": "address",
          "name": "predicted",
          "type": "address"
        }
      ],
      "stateMutability": "view",
      "type": "function"
    },
    {
      "inputs": [
        {
          "internalType": "address",
          "name": "",
          "type": "address"
        }
      ],
      "name": "ticketRegistry",
      "outputs": [
        {
          "internalType": "bool",
          "name": "",
          "type": "bool"
        }
      ],
      "stateMutability": "view",
      "type": "function"
    }
  ],
  "bytecode": "0x60806040523480156200001157600080fd5b506040516200144938038062001449833981810160405281019062000037919062000108565b600073ffffffffffffffffffffffffffffffffffffffff168173ffffffffffffffffffffffffffffffffffffffff161415620000aa576040517f08c379a0000000000000000000000000000000000000000000000000000000008152600401620000a1906200015b565b60405180910390fd5b806000806101000a81548173ffffffffffffffffffffffffffffffffffffffff021916908373ffffffffffffffffffffffffffffffffffffffff160217905550506200022b565b600081519050620001028162000211565b92915050565b6000602082840312156200011b57600080fd5b60006200012b84828501620000f1565b91505092915050565b6000620001436022836200017d565b91506200015082620001c2565b604082019050919050565b60006020820190508181036000830152620001768162000134565b9050919050565b600082825260208201905092915050565b60006200019b82620001a2565b9050919050565b600073ffffffffffffffffffffffffffffffffffffffff82169050919050565b7f5469636b6574466163746f72793a205a45524f5f424541434f4e5f414444524560008201527f5353000000000000000000000000000000000000000000000000000000000000602082015250565b6200021c816200018e565b81146200022857600080fd5b50565b61120e806200023b6000396000f3fe60806040523480156200001157600080fd5b5060043610620000525760003560e01c806307ecaac2146200005757806359659e90146200008d578063948d0db814620000af578063d3e0248414620000cf575b600080fd5b6200007560048036038101906200006f919062000625565b62000105565b60405162000084919062000a01565b60405180910390f35b6200009762000125565b604051620000a691906200098a565b60405180910390f35b620000cd6004803603810190620000c7919062000692565b62000149565b005b620000ed6004803603810190620000e7919062000651565b62000243565b604051620000fc91906200098a565b60405180910390f35b60016020528060005260406000206000915054906101000a900460ff1681565b60008054906101000a900473ffffffffffffffffffffffffffffffffffffffff1681565b6000338260405160200162000160929190620009d4565b604051602081830303815290604052805190602001209050600062000185826200034e565b90506200019489898962000400565b620001a6818a8a8a338b8b8b620004d5565b60018060008373ffffffffffffffffffffffffffffffffffffffff1673ffffffffffffffffffffffffffffffffffffffff16815260200190815260200160002060006101000a81548160ff0219169083151502179055507f06fc06f67fb05203b463f5748557476bb73e3e18256f04a7b63f31ae43a4c6f3813360405162000230929190620009a7565b60405180910390a1505050505050505050565b60008083836040516020016200025b929190620009d4565b604051602081830303815290604052805190602001209050600060405180602001620002879062000560565b6020820181038252601f19601f8201166040525060008054906101000a900473ffffffffffffffffffffffffffffffffffffffff16604051602001620002ce91906200098a565b604051602081830303815290604052604051602001620002f092919062000962565b6040516020818303038152906040529050600060ff60f81b308484805190602001206040516020016200032794939291906200090c565b6040516020818303038152906040528051906020012090508060001c935050505092915050565b600080600060405180602001620003659062000560565b6020820181038252601f19601f8201166040525060008054906101000a900473ffffffffffffffffffffffffffffffffffffffff16604051602001620003ac91906200098a565b604051602081830303815290604052604051602001620003ce92919062000962565b60405160208183030381529060405290508381516020830134f59150813b620003f657600080fd5b8192505050919050565b43831162000445576040517f08c379a00000000000000000000000000000000000000000000000000000000081526004016200043c9062000a62565b60405180910390fd5b4382116200048a576040517f08c379a0000000000000000000000000000000000000000000000000000000008152600401620004819062000a1e565b60405180910390fd5b60008111620004d0576040517f08c379a0000000000000000000000000000000000000000000000000000000008152600401620004c79062000a40565b60405180910390fd5b505050565b60008890508073ffffffffffffffffffffffffffffffffffffffff1663b2de3ec2898989898989896040518863ffffffff1660e01b815260040162000521979695949392919062000a84565b600060405180830381600087803b1580156200053c57600080fd5b505af115801562000551573d6000803e3d6000fd5b50505050505050505050505050565b6103988062000e4183390190565b6000620005856200057f8462000b3f565b62000b16565b9050828152602081018484840111156200059e57600080fd5b620005ab84828562000c27565b509392505050565b600081359050620005c48162000df2565b92915050565b600081359050620005db8162000e0c565b92915050565b600082601f830112620005f357600080fd5b8135620006058482602086016200056e565b91505092915050565b6000813590506200061f8162000e26565b92915050565b6000602082840312156200063857600080fd5b60006200064884828501620005b3565b91505092915050565b600080604083850312156200066557600080fd5b60006200067585828601620005b3565b92505060206200068885828601620005ca565b9150509250929050565b600080600080600080600060e0888a031215620006ae57600080fd5b6000620006be8a828b016200060e565b9750506020620006d18a828b016200060e565b9650506040620006e48a828b016200060e565b955050606088013567ffffffffffffffff8111156200070257600080fd5b620007108a828b01620005e1565b945050608088013567ffffffffffffffff8111156200072e57600080fd5b6200073c8a828b01620005e1565b93505060a088013567ffffffffffffffff8111156200075a57600080fd5b620007688a828b01620005e1565b92505060c06200077b8a828b01620005ca565b91505092959891949750929550565b620007958162000ba7565b82525050565b620007b0620007aa8262000ba7565b62000ca2565b82525050565b620007c18162000bbb565b82525050565b620007dc620007d68262000bc7565b62000cb6565b82525050565b620007ed8162000bf3565b82525050565b62000808620008028262000bf3565b62000cc0565b82525050565b60006200081b8262000b75565b62000827818562000b8b565b93506200083981856020860162000c36565b80840191505092915050565b6000620008528262000b80565b6200085e818562000b96565b93506200087081856020860162000c36565b6200087b8162000d0d565b840191505092915050565b600062000895601f8362000b96565b9150620008a28262000d2b565b602082019050919050565b6000620008bc60228362000b96565b9150620008c98262000d54565b604082019050919050565b6000620008e360218362000b96565b9150620008f08262000da3565b604082019050919050565b620009068162000c1d565b82525050565b60006200091a8287620007c7565b6001820191506200092c82866200079b565b6014820191506200093e8285620007f3565b602082019150620009508284620007f3565b60208201915081905095945050505050565b60006200097082856200080e565b91506200097e82846200080e565b91508190509392505050565b6000602082019050620009a160008301846200078a565b92915050565b6000604082019050620009be60008301856200078a565b620009cd60208301846200078a565b9392505050565b6000604082019050620009eb60008301856200078a565b620009fa6020830184620007e2565b9392505050565b600060208201905062000a186000830184620007b6565b92915050565b6000602082019050818103600083015262000a398162000886565b9050919050565b6000602082019050818103600083015262000a5b81620008ad565b9050919050565b6000602082019050818103600083015262000a7d81620008d4565b9050919050565b600060e08201905062000a9b600083018a620008fb565b62000aaa6020830189620008fb565b62000ab96040830188620008fb565b62000ac860608301876200078a565b818103608083015262000adc818662000845565b905081810360a083015262000af2818562000845565b905081810360c083015262000b08818462000845565b905098975050505050505050565b600062000b2262000b35565b905062000b30828262000c6c565b919050565b6000604051905090565b600067ffffffffffffffff82111562000b5d5762000b5c62000cde565b5b62000b688262000d0d565b9050602081019050919050565b600081519050919050565b600081519050919050565b600081905092915050565b600082825260208201905092915050565b600062000bb48262000bfd565b9050919050565b60008115159050919050565b60007fff0000000000000000000000000000000000000000000000000000000000000082169050919050565b6000819050919050565b600073ffffffffffffffffffffffffffffffffffffffff82169050919050565b6000819050919050565b82818337600083830152505050565b60005b8381101562000c5657808201518184015260208101905062000c39565b8381111562000c66576000848401525b50505050565b62000c778262000d0d565b810181811067ffffffffffffffff8211171562000c995762000c9862000cde565b5b80604052505050565b600062000caf8262000cca565b9050919050565b6000819050919050565b6000819050919050565b600062000cd78262000d1e565b9050919050565b7f4e487b7100000000000000000000000000000000000000000000000000000000600052604160045260246000fd5b6000601f19601f8301169050919050565b60008160601b9050919050565b7f5469636b6574466163746f72793a20494e564149445f454e445f424c4f434b00600082015250565b7f5469636b6574466163746f72793a20494e564149445f5449434b45545f50524960008201527f4345000000000000000000000000000000000000000000000000000000000000602082015250565b7f5469636b6574466163746f72793a20494e564149445f53544152545f424c4f4360008201527f4b00000000000000000000000000000000000000000000000000000000000000602082015250565b62000dfd8162000ba7565b811462000e0957600080fd5b50565b62000e178162000bf3565b811462000e2357600080fd5b50565b62000e318162000c1d565b811462000e3d57600080fd5b5056fe60a060405234801561001057600080fd5b50604051610398380380610398833981810160405281019061003291906100f4565b600073ffffffffffffffffffffffffffffffffffffffff168173ffffffffffffffffffffffffffffffffffffffff1614156100a2576040517f08c379a000000000000000000000000000000000000000000000000000000000815260040161009990610140565b60405180910390fd5b8073ffffffffffffffffffffffffffffffffffffffff1660808173ffffffffffffffffffffffffffffffffffffffff1660601b81525050506101e3565b6000815190506100ee816101cc565b92915050565b60006020828403121561010657600080fd5b6000610114848285016100df565b91505092915050565b600061012a601983610160565b9150610135826101a3565b602082019050919050565b600060208201905081810360008301526101598161011d565b9050919050565b600082825260208201905092915050565b600061017c82610183565b9050919050565b600073ffffffffffffffffffffffffffffffffffffffff82169050919050565b7f5469636b657450726f78793a205a45524f5f4144445245535300000000000000600082015250565b6101d581610171565b81146101e057600080fd5b50565b60805160601c6101986102006000396000603a01526101986000f3fe6080604052600061000e610036565b90503660008037600080366000845af43d6000803e8060008114610031573d6000f35b3d6000fd5b60007f000000000000000000000000000000000000000000000000000000000000000073ffffffffffffffffffffffffffffffffffffffff16635c60da1b6040518163ffffffff1660e01b815260040160206040518083038186803b15801561009e57600080fd5b505afa1580156100b2573d6000803e3d6000fd5b505050506040513d601f19601f820116820180604052508101906100d691906100f0565b905090565b6000815190506100ea8161014b565b92915050565b60006020828403121561010257600080fd5b6000610110848285016100db565b91505092915050565b60006101248261012b565b9050919050565b600073ffffffffffffffffffffffffffffffffffffffff82169050919050565b61015481610119565b811461015f57600080fd5b5056fea264697066735822122045daa5f7dae9f44e4a301a8c84ee529e5e0a0533e82f6d192c982c2b71f4c7b564736f6c63430008040033a2646970667358221220caf9da88a3a8aa873f263536a3a1bac679b2ebe98b26dc762f42b614636f84a764736f6c63430008040033",
  "linkReferences": {},
  "deployedLinkReferences": {}
}