{
  "_format": "hh-sol-artifact-1",
  "contractName": "UUPSImplementation1",
  "sourceName": "contracts/UUPSImplementation1.sol",
  "abi": [
    {
      "anonymous": false,
      "inputs": [
        {
          "indexed": false,
          "internalType": "address",
          "name": "previousAdmin",
          "type": "address"
        },
        {
          "indexed": false,
          "internalType": "address",
          "name": "newAdmin",
          "type": "address"
        }
      ],
      "name": "AdminChanged",
      "type": "event"
    },
    {
      "anonymous": false,
      "inputs": [
        {
          "indexed": true,
          "internalType": "address",
          "name": "beacon",
          "type": "address"
        }
      ],
      "name": "BeaconUpgraded",
      "type": "event"
    },
    {
      "anonymous": false,
      "inputs": [
        {
          "indexed": false,
          "internalType": "uint8",
          "name": "version",
          "type": "uint8"
        }
      ],
      "name": "Initialized",
      "type": "event"
    },
    {
      "anonymous": false,
      "inputs": [
        {
          "indexed": true,
          "internalType": "address",
          "name": "previousOwner",
          "type": "address"
        },
        {
          "indexed": true,
          "internalType": "address",
          "name": "newOwner",
          "type": "address"
        }
      ],
      "name": "OwnershipTransferred",
      "type": "event"
    },
    {
      "anonymous": false,
      "inputs": [
        {
          "indexed": true,
          "internalType": "address",
          "name": "implementation",
          "type": "address"
        }
      ],
      "name": "Upgraded",
      "type": "event"
    },
    {
      "inputs": [
        {
          "internalType": "uint256",
          "name": "factor",
          "type": "uint256"
        }
      ],
      "name": "add",
      "outputs": [],
      "stateMutability": "nonpayable",
      "type": "function"
    },
    {
      "inputs": [],
      "name": "count",
      "outputs": [
        {
          "internalType": "uint256",
          "name": "",
          "type": "uint256"
        }
      ],
      "stateMutability": "view",
      "type": "function"
    },
    {
      "inputs": [],
      "name": "getContractVersion",
      "outputs": [
        {
          "internalType": "uint256",
          "name": "",
          "type": "uint256"
        }
      ],
      "stateMutability": "pure",
      "type": "function"
    },
    {
      "inputs": [],
      "name": "getCount",
      "outputs": [
        {
          "internalType": "uint256",
          "name": "",
          "type": "uint256"
        }
      ],
      "stateMutability": "view",
      "type": "function"
    },
    {
      "inputs": [],
      "name": "getOwner",
      "outputs": [
        {
          "internalType": "address",
          "name": "",
          "type": "address"
        }
      ],
      "stateMutability": "view",
      "type": "function"
    },
    {
      "inputs": [
        {
          "internalType": "uint256",
          "name": "initial_count",
          "type": "uint256"
        }
      ],
      "name": "initialize",
      "outputs": [],
      "stateMutability": "nonpayable",
      "type": "function"
    },
    {
      "inputs": [],
      "name": "owner",
      "outputs": [
        {
          "internalType": "address",
          "name": "",
          "type": "address"
        }
      ],
      "stateMutability": "view",
      "type": "function"
    },
    {
      "inputs": [],
      "name": "proxiableUUID",
      "outputs": [
        {
          "internalType": "bytes32",
          "name": "",
          "type": "bytes32"
        }
      ],
      "stateMutability": "view",
      "type": "function"
    },
    {
      "inputs": [],
      "name": "renounceOwnership",
      "outputs": [],
      "stateMutability": "nonpayable",
      "type": "function"
    },
    {
      "inputs": [
        {
          "internalType": "address",
          "name": "newOwner",
          "type": "address"
        }
      ],
      "name": "transferOwnership",
      "outputs": [],
      "stateMutability": "nonpayable",
      "type": "function"
    },
    {
      "inputs": [
        {
          "internalType": "address",
          "name": "newImplementation",
          "type": "address"
        }
      ],
      "name": "upgradeTo",
      "outputs": [],
      "stateMutability": "nonpayable",
      "type": "function"
    },
    {
      "inputs": [
        {
          "internalType": "address",
          "name": "newImplementation",
          "type": "address"
        },
        {
          "internalType": "bytes",
          "name": "data",
          "type": "bytes"
        }
      ],
      "name": "upgradeToAndCall",
      "outputs": [],
      "stateMutability": "payable",
      "type": "function"
    }
  ],
  "bytecode": "0x60a06040523060805234801561001457600080fd5b50608051610e5061004c600039600081816102260152818161026f0152818161030e0152818161034e01526103e10152610e506000f3fe6080604052600436106100a75760003560e01c8063893d20e811610064578063893d20e8146101545780638aa10435146101815780638da5cb5b14610195578063a87d942c146101b3578063f2fde38b146101c8578063fe4b84df146101e857600080fd5b806306661abd146100ac5780631003e2d2146100d55780633659cfe6146100f75780634f1ef2861461011757806352d1902d1461012a578063715018a61461013f575b600080fd5b3480156100b857600080fd5b506100c260c95481565b6040519081526020015b60405180910390f35b3480156100e157600080fd5b506100f56100f0366004610b1b565b610208565b005b34801561010357600080fd5b506100f5610112366004610b50565b61021c565b6100f5610125366004610b81565b610304565b34801561013657600080fd5b506100c26103d4565b34801561014b57600080fd5b506100f5610487565b34801561016057600080fd5b5061016961049b565b6040516001600160a01b0390911681526020016100cc565b34801561018d57600080fd5b5060016100c2565b3480156101a157600080fd5b506097546001600160a01b0316610169565b3480156101bf57600080fd5b5060c9546100c2565b3480156101d457600080fd5b506100f56101e3366004610b50565b6104b4565b3480156101f457600080fd5b506100f5610203366004610b1b565b61052a565b8060c9546102169190610c43565b60c95550565b6001600160a01b037f000000000000000000000000000000000000000000000000000000000000000016300361026d5760405162461bcd60e51b815260040161026490610c64565b60405180910390fd5b7f00000000000000000000000000000000000000000000000000000000000000006001600160a01b03166102b6600080516020610dd4833981519152546001600160a01b031690565b6001600160a01b0316146102dc5760405162461bcd60e51b815260040161026490610cb0565b6102e581610640565b6040805160008082526020820190925261030191839190610648565b50565b6001600160a01b037f000000000000000000000000000000000000000000000000000000000000000016300361034c5760405162461bcd60e51b815260040161026490610c64565b7f00000000000000000000000000000000000000000000000000000000000000006001600160a01b0316610395600080516020610dd4833981519152546001600160a01b031690565b6001600160a01b0316146103bb5760405162461bcd60e51b815260040161026490610cb0565b6103c482610640565b6103d082826001610648565b5050565b6000306001600160a01b037f000000000000000000000000000000000000000000000000000000000000000016146104745760405162461bcd60e51b815260206004820152603860248201527f555550535570677261646561626c653a206d757374206e6f742062652063616c60448201527f6c6564207468726f7567682064656c656761746563616c6c00000000000000006064820152608401610264565b50600080516020610dd483398151915290565b61048f6107b8565b6104996000610812565b565b60006104af6097546001600160a01b031690565b905090565b6104bc6107b8565b6001600160a01b0381166105215760405162461bcd60e51b815260206004820152602660248201527f4f776e61626c653a206e6577206f776e657220697320746865207a65726f206160448201526564647265737360d01b6064820152608401610264565b61030181610812565b600054610100900460ff161580801561054a5750600054600160ff909116105b806105645750303b158015610564575060005460ff166001145b6105c75760405162461bcd60e51b815260206004820152602e60248201527f496e697469616c697a61626c653a20636f6e747261637420697320616c72656160448201526d191e481a5b9a5d1a585b1a5e995960921b6064820152608401610264565b6000805460ff1916600117905580156105ea576000805461ff0019166101001790555b60c98290556105f7610864565b80156103d0576000805461ff0019169055604051600181527f7f26b83ff96e1f2b6a682f133852f6798a09c465da95921460cefb38474024989060200160405180910390a15050565b6103016107b8565b7f4910fdfa16fed3260ed0e7147f7cc6da11a60208b5b9406d12a635614ffd91435460ff16156106805761067b83610893565b505050565b826001600160a01b03166352d1902d6040518163ffffffff1660e01b8152600401602060405180830381865afa9250505080156106da575060408051601f3d908101601f191682019092526106d791810190610cfc565b60015b61073d5760405162461bcd60e51b815260206004820152602e60248201527f45524331393637557067726164653a206e657720696d706c656d656e7461746960448201526d6f6e206973206e6f74205555505360901b6064820152608401610264565b600080516020610dd483398151915281146107ac5760405162461bcd60e51b815260206004820152602960248201527f45524331393637557067726164653a20756e737570706f727465642070726f786044820152681a58589b195555525160ba1b6064820152608401610264565b5061067b83838361092f565b6097546001600160a01b031633146104995760405162461bcd60e51b815260206004820181905260248201527f4f776e61626c653a2063616c6c6572206973206e6f7420746865206f776e65726044820152606401610264565b609780546001600160a01b038381166001600160a01b0319831681179093556040519116919082907f8be0079c531659141344cd1fd0a4f28419497f9722a3daafe3b4186f6b6457e090600090a35050565b600054610100900460ff1661088b5760405162461bcd60e51b815260040161026490610d15565b61049961095a565b6001600160a01b0381163b6109005760405162461bcd60e51b815260206004820152602d60248201527f455243313936373a206e657720696d706c656d656e746174696f6e206973206e60448201526c1bdd08184818dbdb9d1c9858dd609a1b6064820152608401610264565b600080516020610dd483398151915280546001600160a01b0319166001600160a01b0392909216919091179055565b6109388361098a565b6000825111806109455750805b1561067b5761095483836109ca565b50505050565b600054610100900460ff166109815760405162461bcd60e51b815260040161026490610d15565b61049933610812565b61099381610893565b6040516001600160a01b038216907fbc7cd75a20ee27fd9adebab32041f755214dbc6bffa90cc0225b39da2e5c2d3b90600090a250565b60606109ef8383604051806060016040528060278152602001610df4602791396109f8565b90505b92915050565b6060600080856001600160a01b031685604051610a159190610d84565b600060405180830381855af49150503d8060008114610a50576040519150601f19603f3d011682016040523d82523d6000602084013e610a55565b606091505b5091509150610a6686838387610a70565b9695505050505050565b60608315610adf578251600003610ad8576001600160a01b0385163b610ad85760405162461bcd60e51b815260206004820152601d60248201527f416464726573733a2063616c6c20746f206e6f6e2d636f6e74726163740000006044820152606401610264565b5081610ae9565b610ae98383610af1565b949350505050565b815115610b015781518083602001fd5b8060405162461bcd60e51b81526004016102649190610da0565b600060208284031215610b2d57600080fd5b5035919050565b80356001600160a01b0381168114610b4b57600080fd5b919050565b600060208284031215610b6257600080fd5b6109ef82610b34565b634e487b7160e01b600052604160045260246000fd5b60008060408385031215610b9457600080fd5b610b9d83610b34565b9150602083013567ffffffffffffffff80821115610bba57600080fd5b818501915085601f830112610bce57600080fd5b813581811115610be057610be0610b6b565b604051601f8201601f19908116603f01168101908382118183101715610c0857610c08610b6b565b81604052828152886020848701011115610c2157600080fd5b8260208601602083013760006020848301015280955050505050509250929050565b808201808211156109f257634e487b7160e01b600052601160045260246000fd5b6020808252602c908201527f46756e6374696f6e206d7573742062652063616c6c6564207468726f7567682060408201526b19195b1959d85d1958d85b1b60a21b606082015260800190565b6020808252602c908201527f46756e6374696f6e206d7573742062652063616c6c6564207468726f7567682060408201526b6163746976652070726f787960a01b606082015260800190565b600060208284031215610d0e57600080fd5b5051919050565b6020808252602b908201527f496e697469616c697a61626c653a20636f6e7472616374206973206e6f74206960408201526a6e697469616c697a696e6760a81b606082015260800190565b60005b83811015610d7b578181015183820152602001610d63565b50506000910152565b60008251610d96818460208701610d60565b9190910192915050565b6020815260008251806020840152610dbf816040850160208701610d60565b601f01601f1916919091016040019291505056fe360894a13ba1a3210667c828492db98dca3e2076cc3735a920a3ca505d382bbc416464726573733a206c6f772d6c6576656c2064656c65676174652063616c6c206661696c6564a26469706673582212203295e4781135c0394bc605d2257c83fe1fcad6529cbbca295200ca58cf79b52664736f6c63430008120033",
  "linkReferences": {},
  "deployedLinkReferences": {}
}